{
	"coqfighttestnet.sol": {
		"CoqFightTestnet": {
			"abi": [
				{
					"inputs": [
						{
							"internalType": "uint64",
							"name": "subscriptionId",
							"type": "uint64"
						}
					],
					"stateMutability": "nonpayable",
					"type": "constructor"
				},
				{
					"inputs": [
						{
							"internalType": "address",
							"name": "have",
							"type": "address"
						},
						{
							"internalType": "address",
							"name": "want",
							"type": "address"
						}
					],
					"name": "OnlyCoordinatorCanFulfill",
					"type": "error"
				},
				{
					"anonymous": false,
					"inputs": [
						{
							"indexed": true,
							"internalType": "uint256",
							"name": "gameId",
							"type": "uint256"
						}
					],
					"name": "GameCancelled",
					"type": "event"
				},
				{
					"anonymous": false,
					"inputs": [
						{
							"indexed": true,
							"internalType": "uint256",
							"name": "gameId",
							"type": "uint256"
						},
						{
							"indexed": true,
							"internalType": "address",
							"name": "winner",
							"type": "address"
						}
					],
					"name": "GameCompleted",
					"type": "event"
				},
				{
					"anonymous": false,
					"inputs": [
						{
							"indexed": true,
							"internalType": "uint256",
							"name": "gameId",
							"type": "uint256"
						},
						{
							"indexed": true,
							"internalType": "address",
							"name": "player1",
							"type": "address"
						},
						{
							"indexed": false,
							"internalType": "uint256",
							"name": "wager",
							"type": "uint256"
						}
					],
					"name": "GameStarted",
					"type": "event"
				},
				{
					"anonymous": false,
					"inputs": [
						{
							"indexed": true,
							"internalType": "address",
							"name": "from",
							"type": "address"
						},
						{
							"indexed": true,
							"internalType": "address",
							"name": "to",
							"type": "address"
						}
					],
					"name": "OwnershipTransferRequested",
					"type": "event"
				},
				{
					"anonymous": false,
					"inputs": [
						{
							"indexed": true,
							"internalType": "address",
							"name": "from",
							"type": "address"
						},
						{
							"indexed": true,
							"internalType": "address",
							"name": "to",
							"type": "address"
						}
					],
					"name": "OwnershipTransferred",
					"type": "event"
				},
				{
					"anonymous": false,
					"inputs": [
						{
							"indexed": true,
							"internalType": "uint256",
							"name": "gameId",
							"type": "uint256"
						},
						{
							"indexed": true,
							"internalType": "address",
							"name": "player2",
							"type": "address"
						}
					],
					"name": "PlayerJoined",
					"type": "event"
				},
				{
					"anonymous": false,
					"inputs": [
						{
							"indexed": false,
							"internalType": "uint256",
							"name": "requestId",
							"type": "uint256"
						},
						{
							"indexed": false,
							"internalType": "uint256[]",
							"name": "randomWords",
							"type": "uint256[]"
						}
					],
					"name": "RequestFulfilled",
					"type": "event"
				},
				{
					"anonymous": false,
					"inputs": [
						{
							"indexed": false,
							"internalType": "uint256",
							"name": "requestId",
							"type": "uint256"
						},
						{
							"indexed": false,
							"internalType": "uint32",
							"name": "numWords",
							"type": "uint32"
						}
					],
					"name": "RequestSent",
					"type": "event"
				},
				{
					"inputs": [],
					"name": "acceptOwnership",
					"outputs": [],
					"stateMutability": "nonpayable",
					"type": "function"
				},
				{
					"inputs": [
						{
							"internalType": "uint256",
							"name": "",
							"type": "uint256"
						}
					],
					"name": "activeGameIds",
					"outputs": [
						{
							"internalType": "uint256",
							"name": "",
							"type": "uint256"
						}
					],
					"stateMutability": "view",
					"type": "function"
				},
				{
					"inputs": [],
					"name": "botAddress",
					"outputs": [
						{
							"internalType": "address",
							"name": "",
							"type": "address"
						}
					],
					"stateMutability": "view",
					"type": "function"
				},
				{
					"inputs": [
						{
							"internalType": "uint256",
							"name": "_gameId",
							"type": "uint256"
						}
					],
					"name": "cancelGame",
					"outputs": [],
					"stateMutability": "nonpayable",
					"type": "function"
				},
				{
					"inputs": [
						{
							"internalType": "uint256",
							"name": "_gameId",
							"type": "uint256"
						},
						{
							"internalType": "uint256[]",
							"name": "_randomWords",
							"type": "uint256[]"
						}
					],
					"name": "completeGame",
					"outputs": [],
					"stateMutability": "nonpayable",
					"type": "function"
				},
				{
					"inputs": [
						{
							"internalType": "uint256",
							"name": "",
							"type": "uint256"
						}
					],
					"name": "gameIdByRequestId",
					"outputs": [
						{
							"internalType": "uint256",
							"name": "",
							"type": "uint256"
						}
					],
					"stateMutability": "view",
					"type": "function"
				},
				{
					"inputs": [
						{
							"internalType": "uint256",
							"name": "",
							"type": "uint256"
						}
					],
					"name": "games",
					"outputs": [
						{
							"internalType": "address",
							"name": "player1",
							"type": "address"
						},
						{
							"internalType": "address",
							"name": "player2",
							"type": "address"
						},
						{
							"internalType": "uint256",
							"name": "wager",
							"type": "uint256"
						},
						{
							"internalType": "bool",
							"name": "completed",
							"type": "bool"
						},
						{
							"internalType": "address",
							"name": "winner",
							"type": "address"
						}
					],
					"stateMutability": "view",
					"type": "function"
				},
				{
					"inputs": [],
					"name": "getActiveGameIds",
					"outputs": [
						{
							"internalType": "uint256[]",
							"name": "",
							"type": "uint256[]"
						}
					],
					"stateMutability": "view",
					"type": "function"
				},
				{
					"inputs": [
						{
							"internalType": "uint256",
							"name": "_requestId",
							"type": "uint256"
						}
					],
					"name": "getRequestStatus",
					"outputs": [
						{
							"internalType": "bool",
							"name": "fulfilled",
							"type": "bool"
						},
						{
							"internalType": "uint256[]",
							"name": "randomWords",
							"type": "uint256[]"
						}
					],
					"stateMutability": "view",
					"type": "function"
				},
				{
					"inputs": [
						{
							"internalType": "uint256",
							"name": "_gameId",
							"type": "uint256"
						}
					],
					"name": "joinGame",
					"outputs": [],
					"stateMutability": "payable",
					"type": "function"
				},
				{
					"inputs": [],
					"name": "lastRequestId",
					"outputs": [
						{
							"internalType": "uint256",
							"name": "",
							"type": "uint256"
						}
					],
					"stateMutability": "view",
					"type": "function"
				},
				{
					"inputs": [],
					"name": "minimumWager",
					"outputs": [
						{
							"internalType": "uint256",
							"name": "",
							"type": "uint256"
						}
					],
					"stateMutability": "view",
					"type": "function"
				},
				{
					"inputs": [],
					"name": "owner",
					"outputs": [
						{
							"internalType": "address",
							"name": "",
							"type": "address"
						}
					],
					"stateMutability": "view",
					"type": "function"
				},
				{
					"inputs": [
						{
							"internalType": "uint256",
							"name": "requestId",
							"type": "uint256"
						},
						{
							"internalType": "uint256[]",
							"name": "randomWords",
							"type": "uint256[]"
						}
					],
					"name": "rawFulfillRandomWords",
					"outputs": [],
					"stateMutability": "nonpayable",
					"type": "function"
				},
				{
					"inputs": [
						{
							"internalType": "uint256",
							"name": "",
							"type": "uint256"
						}
					],
					"name": "requestIds",
					"outputs": [
						{
							"internalType": "uint256",
							"name": "",
							"type": "uint256"
						}
					],
					"stateMutability": "view",
					"type": "function"
				},
				{
					"inputs": [
						{
							"internalType": "uint256",
							"name": "",
							"type": "uint256"
						}
					],
					"name": "s_requests",
					"outputs": [
						{
							"internalType": "bool",
							"name": "fulfilled",
							"type": "bool"
						},
						{
							"internalType": "bool",
							"name": "exists",
							"type": "bool"
						}
					],
					"stateMutability": "view",
					"type": "function"
				},
				{
					"inputs": [
						{
							"internalType": "address",
							"name": "_botAddress",
							"type": "address"
						}
					],
					"name": "setBotAddress",
					"outputs": [],
					"stateMutability": "nonpayable",
					"type": "function"
				},
				{
					"inputs": [
						{
							"internalType": "uint32",
							"name": "_callbackGasLimit",
							"type": "uint32"
						}
					],
					"name": "setCallback",
					"outputs": [],
					"stateMutability": "nonpayable",
					"type": "function"
				},
				{
					"inputs": [
						{
							"internalType": "uint256",
							"name": "_newMinimumWager",
							"type": "uint256"
						}
					],
					"name": "setMinimumWager",
					"outputs": [],
					"stateMutability": "nonpayable",
					"type": "function"
				},
				{
					"inputs": [
						{
							"internalType": "uint256",
							"name": "_wager",
							"type": "uint256"
						}
					],
					"name": "startGame",
					"outputs": [],
					"stateMutability": "payable",
					"type": "function"
				},
				{
					"inputs": [
						{
							"internalType": "address",
							"name": "to",
							"type": "address"
						}
					],
					"name": "transferOwnership",
					"outputs": [],
					"stateMutability": "nonpayable",
					"type": "function"
				}
			],
			"devdoc": {
				"kind": "dev",
				"methods": {},
				"version": 1
			},
			"evm": {
				"assembly": "    /* \"coqfighttestnet.sol\":393:12611  contract CoqFightTestnet is VRFConsumerBaseV2, ConfirmedOwner {... */\n  mstore(0x40, 0xa0)\n    /* \"coqfighttestnet.sol\":575:576  1 */\n  0x01\n    /* \"coqfighttestnet.sol\":545:576  uint256 private gameCounter = 1 */\n  0x02\n  sstore\n    /* \"coqfighttestnet.sol\":1200:1242  0xc5b407677BFaf9f5a1523ac54E630C046aFe3B49 */\n  0xc5b407677bfaf9f5a1523ac54e630c046afe3b49\n    /* \"coqfighttestnet.sol\":1172:1242  address public botAddress = 0xc5b407677BFaf9f5a1523ac54E630C046aFe3B49 */\n  0x05\n  exp(0x0100, 0x00)\n  dup2\n  sload\n  dup2\n  0xffffffffffffffffffffffffffffffffffffffff\n  mul\n  not\n  and\n  swap1\n  dup4\n  0xffffffffffffffffffffffffffffffffffffffff\n  and\n  mul\n  or\n  swap1\n  sstore\n  pop\n    /* \"coqfighttestnet.sol\":1734:1800  0x354d2f95da55398f44b7cff77da56283d9c6c829a4bdf1bbcaf2ad6a4d081f61 */\n  0x354d2f95da55398f44b7cff77da56283d9c6c829a4bdf1bbcaf2ad6a4d081f61\n    /* \"coqfighttestnet.sol\":1708:1800  bytes32 keyHash =... */\n  0x00\n  shl\n  0x08\n  sstore\n    /* \"coqfighttestnet.sol\":2356:2362  100000 */\n  0x0186a0\n    /* \"coqfighttestnet.sol\":2330:2362  uint32 callbackGasLimit = 100000 */\n  0x09\n  exp(0x0100, 0x00)\n  dup2\n  sload\n  dup2\n  0xffffffff\n  mul\n  not\n  and\n  swap1\n  dup4\n  0xffffffff\n  and\n  mul\n  or\n  swap1\n  sstore\n  pop\n    /* \"coqfighttestnet.sol\":2451:2452  3 */\n  0x03\n    /* \"coqfighttestnet.sol\":2421:2452  uint16 requestConfirmations = 3 */\n  0x09\n  exp(0x0100, 0x04)\n  dup2\n  sload\n  dup2\n  0xffff\n  mul\n  not\n  and\n  swap1\n  dup4\n  0xffff\n  and\n  mul\n  or\n  swap1\n  sstore\n  pop\n    /* \"coqfighttestnet.sol\":2518:2519  1 */\n  0x01\n    /* \"coqfighttestnet.sol\":2500:2519  uint32 numWords = 1 */\n  0x09\n  exp(0x0100, 0x06)\n  dup2\n  sload\n  dup2\n  0xffffffff\n  mul\n  not\n  and\n  swap1\n  dup4\n  0xffffffff\n  and\n  mul\n  or\n  swap1\n  sstore\n  pop\n    /* \"coqfighttestnet.sol\":4149:4797  constructor(... */\n  callvalue\n  dup1\n  iszero\n  tag_1\n  jumpi\n  0x00\n  dup1\n  revert\ntag_1:\n  pop\n  mload(0x40)\n  sub(codesize, bytecodeSize)\n  dup1\n  bytecodeSize\n  dup4\n  codecopy\n  dup2\n  dup2\n  add\n  0x40\n  mstore\n  dup2\n  add\n  swap1\n  tag_2\n  swap2\n  swap1\n  tag_3\n  jump\t// in\ntag_2:\n    /* \"coqfighttestnet.sol\":4291:4301  msg.sender */\n  caller\n    /* \"@chainlink/contracts/src/v0.8/shared/access/ConfirmedOwner.sol\":327:335  newOwner */\n  dup1\n    /* \"@chainlink/contracts/src/v0.8/shared/access/ConfirmedOwner.sol\":345:346  0 */\n  0x00\n    /* \"coqfighttestnet.sol\":4224:4266  0x2eD832Ba664535e5886b75D64C46EB9a228C2610 */\n  0x2ed832ba664535e5886b75d64c46eb9a228c2610\n    /* \"@chainlink/contracts/src/v0.8/vrf/VRFConsumerBaseV2.sol\":5616:5631  _vrfCoordinator */\n  dup1\n    /* \"@chainlink/contracts/src/v0.8/vrf/VRFConsumerBaseV2.sol\":5599:5631  vrfCoordinator = _vrfCoordinator */\n  0xffffffffffffffffffffffffffffffffffffffff\n  and\n  0x80\n  dup2\n  0xffffffffffffffffffffffffffffffffffffffff\n  and\n  dup2\n  mstore\n  pop\n  pop\n    /* \"@chainlink/contracts/src/v0.8/vrf/VRFConsumerBaseV2.sol\":5556:5636  constructor(address _vrfCoordinator) {... */\n  pop\n    /* \"@chainlink/contracts/src/v0.8/shared/access/ConfirmedOwnerWithProposal.sol\":557:558  0 */\n  0x00\n    /* \"@chainlink/contracts/src/v0.8/shared/access/ConfirmedOwnerWithProposal.sol\":537:559  newOwner != address(0) */\n  0xffffffffffffffffffffffffffffffffffffffff\n  and\n    /* \"@chainlink/contracts/src/v0.8/shared/access/ConfirmedOwnerWithProposal.sol\":537:545  newOwner */\n  dup3\n    /* \"@chainlink/contracts/src/v0.8/shared/access/ConfirmedOwnerWithProposal.sol\":537:559  newOwner != address(0) */\n  0xffffffffffffffffffffffffffffffffffffffff\n  and\n  sub\n    /* \"@chainlink/contracts/src/v0.8/shared/access/ConfirmedOwnerWithProposal.sol\":529:588  require(newOwner != address(0), \"Cannot set owner to zero\") */\n  tag_10\n  jumpi\n  mload(0x40)\n  0x08c379a000000000000000000000000000000000000000000000000000000000\n  dup2\n  mstore\n  0x04\n  add\n  tag_11\n  swap1\n  tag_12\n  jump\t// in\ntag_11:\n  mload(0x40)\n  dup1\n  swap2\n  sub\n  swap1\n  revert\ntag_10:\n    /* \"@chainlink/contracts/src/v0.8/shared/access/ConfirmedOwnerWithProposal.sol\":605:613  newOwner */\n  dup2\n    /* \"@chainlink/contracts/src/v0.8/shared/access/ConfirmedOwnerWithProposal.sol\":595:602  s_owner */\n  0x00\n  dup1\n    /* \"@chainlink/contracts/src/v0.8/shared/access/ConfirmedOwnerWithProposal.sol\":595:613  s_owner = newOwner */\n  0x0100\n  exp\n  dup2\n  sload\n  dup2\n  0xffffffffffffffffffffffffffffffffffffffff\n  mul\n  not\n  and\n  swap1\n  dup4\n  0xffffffffffffffffffffffffffffffffffffffff\n  and\n  mul\n  or\n  swap1\n  sstore\n  pop\n    /* \"@chainlink/contracts/src/v0.8/shared/access/ConfirmedOwnerWithProposal.sol\":647:648  0 */\n  0x00\n    /* \"@chainlink/contracts/src/v0.8/shared/access/ConfirmedOwnerWithProposal.sol\":623:649  pendingOwner != address(0) */\n  0xffffffffffffffffffffffffffffffffffffffff\n  and\n    /* \"@chainlink/contracts/src/v0.8/shared/access/ConfirmedOwnerWithProposal.sol\":623:635  pendingOwner */\n  dup2\n    /* \"@chainlink/contracts/src/v0.8/shared/access/ConfirmedOwnerWithProposal.sol\":623:649  pendingOwner != address(0) */\n  0xffffffffffffffffffffffffffffffffffffffff\n  and\n  eq\n    /* \"@chainlink/contracts/src/v0.8/shared/access/ConfirmedOwnerWithProposal.sol\":619:698  if (pendingOwner != address(0)) {... */\n  tag_13\n  jumpi\n    /* \"@chainlink/contracts/src/v0.8/shared/access/ConfirmedOwnerWithProposal.sol\":659:691  _transferOwnership(pendingOwner) */\n  tag_14\n    /* \"@chainlink/contracts/src/v0.8/shared/access/ConfirmedOwnerWithProposal.sol\":678:690  pendingOwner */\n  dup2\n    /* \"@chainlink/contracts/src/v0.8/shared/access/ConfirmedOwnerWithProposal.sol\":659:677  _transferOwnership */\n  shl(0x20, tag_15)\n    /* \"@chainlink/contracts/src/v0.8/shared/access/ConfirmedOwnerWithProposal.sol\":659:691  _transferOwnership(pendingOwner) */\n  0x20\n  shr\n  jump\t// in\ntag_14:\n    /* \"@chainlink/contracts/src/v0.8/shared/access/ConfirmedOwnerWithProposal.sol\":619:698  if (pendingOwner != address(0)) {... */\ntag_13:\n    /* \"@chainlink/contracts/src/v0.8/shared/access/ConfirmedOwnerWithProposal.sol\":471:702  constructor(address newOwner, address pendingOwner) {... */\n  pop\n  pop\n    /* \"@chainlink/contracts/src/v0.8/shared/access/ConfirmedOwner.sol\":270:351  constructor(address newOwner) ConfirmedOwnerWithProposal(newOwner, address(0)) {} */\n  pop\n    /* \"coqfighttestnet.sol\":4370:4412  0x2eD832Ba664535e5886b75D64C46EB9a228C2610 */\n  0x2ed832ba664535e5886b75d64c46eb9a228c2610\n    /* \"coqfighttestnet.sol\":4317:4328  COORDINATOR */\n  0x0b\n  0x00\n    /* \"coqfighttestnet.sol\":4317:4422  COORDINATOR = VRFCoordinatorV2Interface(... */\n  0x0100\n  exp\n  dup2\n  sload\n  dup2\n  0xffffffffffffffffffffffffffffffffffffffff\n  mul\n  not\n  and\n  swap1\n  dup4\n  0xffffffffffffffffffffffffffffffffffffffff\n  and\n  mul\n  or\n  swap1\n  sstore\n  pop\n    /* \"coqfighttestnet.sol\":4493:4507  subscriptionId */\n  dup1\n    /* \"coqfighttestnet.sol\":4474:4490  s_subscriptionId */\n  0x05\n  0x14\n    /* \"coqfighttestnet.sol\":4474:4507  s_subscriptionId = subscriptionId */\n  0x0100\n  exp\n  dup2\n  sload\n  dup2\n  0xffffffffffffffff\n  mul\n  not\n  and\n  swap1\n  dup4\n  0xffffffffffffffff\n  and\n  mul\n  or\n  swap1\n  sstore\n  pop\n    /* \"coqfighttestnet.sol\":4602:4620  100000000000000000 */\n  0x016345785d8a0000\n    /* \"coqfighttestnet.sol\":4587:4599  minimumWager */\n  0x04\n    /* \"coqfighttestnet.sol\":4587:4620  minimumWager = 100000000000000000 */\n  dup2\n  swap1\n  sstore\n  pop\n    /* \"coqfighttestnet.sol\":4149:4797  constructor(... */\n  pop\n    /* \"coqfighttestnet.sol\":393:12611  contract CoqFightTestnet is VRFConsumerBaseV2, ConfirmedOwner {... */\n  jump(tag_18)\n    /* \"@chainlink/contracts/src/v0.8/shared/access/ConfirmedOwnerWithProposal.sol\":1482:1670  function _transferOwnership(address to) private {... */\ntag_15:\n    /* \"@chainlink/contracts/src/v0.8/shared/access/ConfirmedOwnerWithProposal.sol\":1550:1560  msg.sender */\n  caller\n    /* \"@chainlink/contracts/src/v0.8/shared/access/ConfirmedOwnerWithProposal.sol\":1544:1560  to != msg.sender */\n  0xffffffffffffffffffffffffffffffffffffffff\n  and\n    /* \"@chainlink/contracts/src/v0.8/shared/access/ConfirmedOwnerWithProposal.sol\":1544:1546  to */\n  dup2\n    /* \"@chainlink/contracts/src/v0.8/shared/access/ConfirmedOwnerWithProposal.sol\":1544:1560  to != msg.sender */\n  0xffffffffffffffffffffffffffffffffffffffff\n  and\n  sub\n    /* \"@chainlink/contracts/src/v0.8/shared/access/ConfirmedOwnerWithProposal.sol\":1536:1588  require(to != msg.sender, \"Cannot transfer to self\") */\n  tag_20\n  jumpi\n  mload(0x40)\n  0x08c379a000000000000000000000000000000000000000000000000000000000\n  dup2\n  mstore\n  0x04\n  add\n  tag_21\n  swap1\n  tag_22\n  jump\t// in\ntag_21:\n  mload(0x40)\n  dup1\n  swap2\n  sub\n  swap1\n  revert\ntag_20:\n    /* \"@chainlink/contracts/src/v0.8/shared/access/ConfirmedOwnerWithProposal.sol\":1612:1614  to */\n  dup1\n    /* \"@chainlink/contracts/src/v0.8/shared/access/ConfirmedOwnerWithProposal.sol\":1595:1609  s_pendingOwner */\n  0x01\n  0x00\n    /* \"@chainlink/contracts/src/v0.8/shared/access/ConfirmedOwnerWithProposal.sol\":1595:1614  s_pendingOwner = to */\n  0x0100\n  exp\n  dup2\n  sload\n  dup2\n  0xffffffffffffffffffffffffffffffffffffffff\n  mul\n  not\n  and\n  swap1\n  dup4\n  0xffffffffffffffffffffffffffffffffffffffff\n  and\n  mul\n  or\n  swap1\n  sstore\n  pop\n    /* \"@chainlink/contracts/src/v0.8/shared/access/ConfirmedOwnerWithProposal.sol\":1662:1664  to */\n  dup1\n    /* \"@chainlink/contracts/src/v0.8/shared/access/ConfirmedOwnerWithProposal.sol\":1626:1665  OwnershipTransferRequested(s_owner, to) */\n  0xffffffffffffffffffffffffffffffffffffffff\n  and\n    /* \"@chainlink/contracts/src/v0.8/shared/access/ConfirmedOwnerWithProposal.sol\":1653:1660  s_owner */\n  0x00\n  dup1\n  sload\n  swap1\n  0x0100\n  exp\n  swap1\n  div\n  0xffffffffffffffffffffffffffffffffffffffff\n  and\n    /* \"@chainlink/contracts/src/v0.8/shared/access/ConfirmedOwnerWithProposal.sol\":1626:1665  OwnershipTransferRequested(s_owner, to) */\n  0xffffffffffffffffffffffffffffffffffffffff\n  and\n  0xed8889f560326eb138920d842192f0eb3dd22b4f139c87a2c57538e05bae1278\n  mload(0x40)\n  mload(0x40)\n  dup1\n  swap2\n  sub\n  swap1\n  log3\n    /* \"@chainlink/contracts/src/v0.8/shared/access/ConfirmedOwnerWithProposal.sol\":1482:1670  function _transferOwnership(address to) private {... */\n  pop\n  jump\t// out\n    /* \"#utility.yul\":88:205   */\ntag_24:\n    /* \"#utility.yul\":197:198   */\n  0x00\n    /* \"#utility.yul\":194:195   */\n  dup1\n    /* \"#utility.yul\":187:199   */\n  revert\n    /* \"#utility.yul\":334:435   */\ntag_26:\n    /* \"#utility.yul\":370:377   */\n  0x00\n    /* \"#utility.yul\":410:428   */\n  0xffffffffffffffff\n    /* \"#utility.yul\":403:408   */\n  dup3\n    /* \"#utility.yul\":399:429   */\n  and\n    /* \"#utility.yul\":388:429   */\n  swap1\n  pop\n    /* \"#utility.yul\":334:435   */\n  swap2\n  swap1\n  pop\n  jump\t// out\n    /* \"#utility.yul\":441:561   */\ntag_27:\n    /* \"#utility.yul\":513:536   */\n  tag_40\n    /* \"#utility.yul\":530:535   */\n  dup2\n    /* \"#utility.yul\":513:536   */\n  tag_26\n  jump\t// in\ntag_40:\n    /* \"#utility.yul\":506:511   */\n  dup2\n    /* \"#utility.yul\":503:537   */\n  eq\n    /* \"#utility.yul\":493:555   */\n  tag_41\n  jumpi\n    /* \"#utility.yul\":551:552   */\n  0x00\n    /* \"#utility.yul\":548:549   */\n  dup1\n    /* \"#utility.yul\":541:553   */\n  revert\n    /* \"#utility.yul\":493:555   */\ntag_41:\n    /* \"#utility.yul\":441:561   */\n  pop\n  jump\t// out\n    /* \"#utility.yul\":567:708   */\ntag_28:\n    /* \"#utility.yul\":623:628   */\n  0x00\n    /* \"#utility.yul\":654:660   */\n  dup2\n    /* \"#utility.yul\":648:661   */\n  mload\n    /* \"#utility.yul\":639:661   */\n  swap1\n  pop\n    /* \"#utility.yul\":670:702   */\n  tag_43\n    /* \"#utility.yul\":696:701   */\n  dup2\n    /* \"#utility.yul\":670:702   */\n  tag_27\n  jump\t// in\ntag_43:\n    /* \"#utility.yul\":567:708   */\n  swap3\n  swap2\n  pop\n  pop\n  jump\t// out\n    /* \"#utility.yul\":714:1063   */\ntag_3:\n    /* \"#utility.yul\":783:789   */\n  0x00\n    /* \"#utility.yul\":832:834   */\n  0x20\n    /* \"#utility.yul\":820:829   */\n  dup3\n    /* \"#utility.yul\":811:818   */\n  dup5\n    /* \"#utility.yul\":807:830   */\n  sub\n    /* \"#utility.yul\":803:835   */\n  slt\n    /* \"#utility.yul\":800:919   */\n  iszero\n  tag_45\n  jumpi\n    /* \"#utility.yul\":838:917   */\n  tag_46\n  tag_24\n  jump\t// in\ntag_46:\n    /* \"#utility.yul\":800:919   */\ntag_45:\n    /* \"#utility.yul\":958:959   */\n  0x00\n    /* \"#utility.yul\":983:1046   */\n  tag_47\n    /* \"#utility.yul\":1038:1045   */\n  dup5\n    /* \"#utility.yul\":1029:1035   */\n  dup3\n    /* \"#utility.yul\":1018:1027   */\n  dup6\n    /* \"#utility.yul\":1014:1036   */\n  add\n    /* \"#utility.yul\":983:1046   */\n  tag_28\n  jump\t// in\ntag_47:\n    /* \"#utility.yul\":973:1046   */\n  swap2\n  pop\n    /* \"#utility.yul\":929:1056   */\n  pop\n    /* \"#utility.yul\":714:1063   */\n  swap3\n  swap2\n  pop\n  pop\n  jump\t// out\n    /* \"#utility.yul\":1069:1238   */\ntag_29:\n    /* \"#utility.yul\":1153:1164   */\n  0x00\n    /* \"#utility.yul\":1187:1193   */\n  dup3\n    /* \"#utility.yul\":1182:1185   */\n  dup3\n    /* \"#utility.yul\":1175:1194   */\n  mstore\n    /* \"#utility.yul\":1227:1231   */\n  0x20\n    /* \"#utility.yul\":1222:1225   */\n  dup3\n    /* \"#utility.yul\":1218:1232   */\n  add\n    /* \"#utility.yul\":1203:1232   */\n  swap1\n  pop\n    /* \"#utility.yul\":1069:1238   */\n  swap3\n  swap2\n  pop\n  pop\n  jump\t// out\n    /* \"#utility.yul\":1244:1418   */\ntag_30:\n    /* \"#utility.yul\":1384:1410   */\n  0x43616e6e6f7420736574206f776e657220746f207a65726f0000000000000000\n    /* \"#utility.yul\":1380:1381   */\n  0x00\n    /* \"#utility.yul\":1372:1378   */\n  dup3\n    /* \"#utility.yul\":1368:1382   */\n  add\n    /* \"#utility.yul\":1361:1411   */\n  mstore\n    /* \"#utility.yul\":1244:1418   */\n  pop\n  jump\t// out\n    /* \"#utility.yul\":1424:1790   */\ntag_31:\n    /* \"#utility.yul\":1566:1569   */\n  0x00\n    /* \"#utility.yul\":1587:1654   */\n  tag_51\n    /* \"#utility.yul\":1651:1653   */\n  0x18\n    /* \"#utility.yul\":1646:1649   */\n  dup4\n    /* \"#utility.yul\":1587:1654   */\n  tag_29\n  jump\t// in\ntag_51:\n    /* \"#utility.yul\":1580:1654   */\n  swap2\n  pop\n    /* \"#utility.yul\":1663:1756   */\n  tag_52\n    /* \"#utility.yul\":1752:1755   */\n  dup3\n    /* \"#utility.yul\":1663:1756   */\n  tag_30\n  jump\t// in\ntag_52:\n    /* \"#utility.yul\":1781:1783   */\n  0x20\n    /* \"#utility.yul\":1776:1779   */\n  dup3\n    /* \"#utility.yul\":1772:1784   */\n  add\n    /* \"#utility.yul\":1765:1784   */\n  swap1\n  pop\n    /* \"#utility.yul\":1424:1790   */\n  swap2\n  swap1\n  pop\n  jump\t// out\n    /* \"#utility.yul\":1796:2215   */\ntag_12:\n    /* \"#utility.yul\":1962:1966   */\n  0x00\n    /* \"#utility.yul\":2000:2002   */\n  0x20\n    /* \"#utility.yul\":1989:1998   */\n  dup3\n    /* \"#utility.yul\":1985:2003   */\n  add\n    /* \"#utility.yul\":1977:2003   */\n  swap1\n  pop\n    /* \"#utility.yul\":2049:2058   */\n  dup2\n    /* \"#utility.yul\":2043:2047   */\n  dup2\n    /* \"#utility.yul\":2039:2059   */\n  sub\n    /* \"#utility.yul\":2035:2036   */\n  0x00\n    /* \"#utility.yul\":2024:2033   */\n  dup4\n    /* \"#utility.yul\":2020:2037   */\n  add\n    /* \"#utility.yul\":2013:2060   */\n  mstore\n    /* \"#utility.yul\":2077:2208   */\n  tag_54\n    /* \"#utility.yul\":2203:2207   */\n  dup2\n    /* \"#utility.yul\":2077:2208   */\n  tag_31\n  jump\t// in\ntag_54:\n    /* \"#utility.yul\":2069:2208   */\n  swap1\n  pop\n    /* \"#utility.yul\":1796:2215   */\n  swap2\n  swap1\n  pop\n  jump\t// out\n    /* \"#utility.yul\":2221:2394   */\ntag_32:\n    /* \"#utility.yul\":2361:2386   */\n  0x43616e6e6f74207472616e7366657220746f2073656c66000000000000000000\n    /* \"#utility.yul\":2357:2358   */\n  0x00\n    /* \"#utility.yul\":2349:2355   */\n  dup3\n    /* \"#utility.yul\":2345:2359   */\n  add\n    /* \"#utility.yul\":2338:2387   */\n  mstore\n    /* \"#utility.yul\":2221:2394   */\n  pop\n  jump\t// out\n    /* \"#utility.yul\":2400:2766   */\ntag_33:\n    /* \"#utility.yul\":2542:2545   */\n  0x00\n    /* \"#utility.yul\":2563:2630   */\n  tag_57\n    /* \"#utility.yul\":2627:2629   */\n  0x17\n    /* \"#utility.yul\":2622:2625   */\n  dup4\n    /* \"#utility.yul\":2563:2630   */\n  tag_29\n  jump\t// in\ntag_57:\n    /* \"#utility.yul\":2556:2630   */\n  swap2\n  pop\n    /* \"#utility.yul\":2639:2732   */\n  tag_58\n    /* \"#utility.yul\":2728:2731   */\n  dup3\n    /* \"#utility.yul\":2639:2732   */\n  tag_32\n  jump\t// in\ntag_58:\n    /* \"#utility.yul\":2757:2759   */\n  0x20\n    /* \"#utility.yul\":2752:2755   */\n  dup3\n    /* \"#utility.yul\":2748:2760   */\n  add\n    /* \"#utility.yul\":2741:2760   */\n  swap1\n  pop\n    /* \"#utility.yul\":2400:2766   */\n  swap2\n  swap1\n  pop\n  jump\t// out\n    /* \"#utility.yul\":2772:3191   */\ntag_22:\n    /* \"#utility.yul\":2938:2942   */\n  0x00\n    /* \"#utility.yul\":2976:2978   */\n  0x20\n    /* \"#utility.yul\":2965:2974   */\n  dup3\n    /* \"#utility.yul\":2961:2979   */\n  add\n    /* \"#utility.yul\":2953:2979   */\n  swap1\n  pop\n    /* \"#utility.yul\":3025:3034   */\n  dup2\n    /* \"#utility.yul\":3019:3023   */\n  dup2\n    /* \"#utility.yul\":3015:3035   */\n  sub\n    /* \"#utility.yul\":3011:3012   */\n  0x00\n    /* \"#utility.yul\":3000:3009   */\n  dup4\n    /* \"#utility.yul\":2996:3013   */\n  add\n    /* \"#utility.yul\":2989:3036   */\n  mstore\n    /* \"#utility.yul\":3053:3184   */\n  tag_60\n    /* \"#utility.yul\":3179:3183   */\n  dup2\n    /* \"#utility.yul\":3053:3184   */\n  tag_33\n  jump\t// in\ntag_60:\n    /* \"#utility.yul\":3045:3184   */\n  swap1\n  pop\n    /* \"#utility.yul\":2772:3191   */\n  swap2\n  swap1\n  pop\n  jump\t// out\n    /* \"coqfighttestnet.sol\":393:12611  contract CoqFightTestnet is VRFConsumerBaseV2, ConfirmedOwner {... */\ntag_18:\n  mload(0x80)\n  codecopy(0x00, dataOffset(sub_0), dataSize(sub_0))\n  0x00\n  assignImmutable(\"0x064aab4cf973af3102587bae83caeab28cf75517d40727c9b952f0d14fb521fa\")\n  return(0x00, dataSize(sub_0))\nstop\n\nsub_0: assembly {\n        /* \"coqfighttestnet.sol\":393:12611  contract CoqFightTestnet is VRFConsumerBaseV2, ConfirmedOwner {... */\n      mstore(0x40, 0x80)\n      jumpi(tag_1, lt(calldatasize, 0x04))\n      shr(0xe0, calldataload(0x00))\n      dup1\n      0x8da5cb5b\n      gt\n      tag_23\n      jumpi\n      dup1\n      0xb4a91e1e\n      gt\n      tag_24\n      jumpi\n      dup1\n      0xb4a91e1e\n      eq\n      tag_17\n      jumpi\n      dup1\n      0xd8a4676f\n      eq\n      tag_18\n      jumpi\n      dup1\n      0xe5ed1d59\n      eq\n      tag_19\n      jumpi\n      dup1\n      0xefaa55a0\n      eq\n      tag_20\n      jumpi\n      dup1\n      0xf2fde38b\n      eq\n      tag_21\n      jumpi\n      dup1\n      0xfc2a88c3\n      eq\n      tag_22\n      jumpi\n      jump(tag_1)\n    tag_24:\n      dup1\n      0x8da5cb5b\n      eq\n      tag_12\n      jumpi\n      dup1\n      0x8ee67472\n      eq\n      tag_13\n      jumpi\n      dup1\n      0x978fffb8\n      eq\n      tag_14\n      jumpi\n      dup1\n      0xa168fa89\n      eq\n      tag_15\n      jumpi\n      dup1\n      0xb19068c7\n      eq\n      tag_16\n      jumpi\n      jump(tag_1)\n    tag_23:\n      dup1\n      0x6916c9b0\n      gt\n      tag_25\n      jumpi\n      dup1\n      0x6916c9b0\n      eq\n      tag_7\n      jumpi\n      dup1\n      0x69958ab9\n      eq\n      tag_8\n      jumpi\n      dup1\n      0x79ba5097\n      eq\n      tag_9\n      jumpi\n      dup1\n      0x7f7f8968\n      eq\n      tag_10\n      jumpi\n      dup1\n      0x8796ba8c\n      eq\n      tag_11\n      jumpi\n      jump(tag_1)\n    tag_25:\n      dup1\n      0x117a5b90\n      eq\n      tag_2\n      jumpi\n      dup1\n      0x1fe543e3\n      eq\n      tag_3\n      jumpi\n      dup1\n      0x2d4f40c6\n      eq\n      tag_4\n      jumpi\n      dup1\n      0x4bf4f423\n      eq\n      tag_5\n      jumpi\n      dup1\n      0x5a758cb7\n      eq\n      tag_6\n      jumpi\n    tag_1:\n      0x00\n      dup1\n      revert\n        /* \"coqfighttestnet.sol\":3115:3152  mapping(uint256 => Game) public games */\n    tag_2:\n      callvalue\n      dup1\n      iszero\n      tag_26\n      jumpi\n      0x00\n      dup1\n      revert\n    tag_26:\n      pop\n      tag_27\n      0x04\n      dup1\n      calldatasize\n      sub\n      dup2\n      add\n      swap1\n      tag_28\n      swap2\n      swap1\n      tag_29\n      jump\t// in\n    tag_28:\n      tag_30\n      jump\t// in\n    tag_27:\n      mload(0x40)\n      tag_31\n      swap6\n      swap5\n      swap4\n      swap3\n      swap2\n      swap1\n      tag_32\n      jump\t// in\n    tag_31:\n      mload(0x40)\n      dup1\n      swap2\n      sub\n      swap1\n      return\n        /* \"@chainlink/contracts/src/v0.8/vrf/VRFConsumerBaseV2.sol\":6618:6874  function rawFulfillRandomWords(uint256 requestId, uint256[] memory randomWords) external {... */\n    tag_3:\n      callvalue\n      dup1\n      iszero\n      tag_33\n      jumpi\n      0x00\n      dup1\n      revert\n    tag_33:\n      pop\n      tag_34\n      0x04\n      dup1\n      calldatasize\n      sub\n      dup2\n      add\n      swap1\n      tag_35\n      swap2\n      swap1\n      tag_36\n      jump\t// in\n    tag_35:\n      tag_37\n      jump\t// in\n    tag_34:\n      stop\n        /* \"coqfighttestnet.sol\":10130:10234  function setBotAddress(address _botAddress) external onlyOwner {... */\n    tag_4:\n      callvalue\n      dup1\n      iszero\n      tag_38\n      jumpi\n      0x00\n      dup1\n      revert\n    tag_38:\n      pop\n      tag_39\n      0x04\n      dup1\n      calldatasize\n      sub\n      dup2\n      add\n      swap1\n      tag_40\n      swap2\n      swap1\n      tag_41\n      jump\t// in\n    tag_40:\n      tag_42\n      jump\t// in\n    tag_39:\n      stop\n        /* \"coqfighttestnet.sol\":1172:1242  address public botAddress = 0xc5b407677BFaf9f5a1523ac54E630C046aFe3B49 */\n    tag_5:\n      callvalue\n      dup1\n      iszero\n      tag_43\n      jumpi\n      0x00\n      dup1\n      revert\n    tag_43:\n      pop\n      tag_44\n      tag_45\n      jump\t// in\n    tag_44:\n      mload(0x40)\n      tag_46\n      swap2\n      swap1\n      tag_47\n      jump\t// in\n    tag_46:\n      mload(0x40)\n      dup1\n      swap2\n      sub\n      swap1\n      return\n        /* \"coqfighttestnet.sol\":7765:8870  function completeGame(uint256 _gameId, uint256[] memory _randomWords) external {... */\n    tag_6:\n      callvalue\n      dup1\n      iszero\n      tag_48\n      jumpi\n      0x00\n      dup1\n      revert\n    tag_48:\n      pop\n      tag_49\n      0x04\n      dup1\n      calldatasize\n      sub\n      dup2\n      add\n      swap1\n      tag_50\n      swap2\n      swap1\n      tag_36\n      jump\t// in\n    tag_50:\n      tag_51\n      jump\t// in\n    tag_49:\n      stop\n        /* \"coqfighttestnet.sol\":6470:6576  function getActiveGameIds() external view returns (uint256[] memory) {... */\n    tag_7:\n      callvalue\n      dup1\n      iszero\n      tag_52\n      jumpi\n      0x00\n      dup1\n      revert\n    tag_52:\n      pop\n      tag_53\n      tag_54\n      jump\t// in\n    tag_53:\n      mload(0x40)\n      tag_55\n      swap2\n      swap1\n      tag_56\n      jump\t// in\n    tag_55:\n      mload(0x40)\n      dup1\n      swap2\n      sub\n      swap1\n      return\n        /* \"coqfighttestnet.sol\":6733:7668  function cancelGame(uint256 _gameId) external onlyOwner {... */\n    tag_8:\n      callvalue\n      dup1\n      iszero\n      tag_57\n      jumpi\n      0x00\n      dup1\n      revert\n    tag_57:\n      pop\n      tag_58\n      0x04\n      dup1\n      calldatasize\n      sub\n      dup2\n      add\n      swap1\n      tag_59\n      swap2\n      swap1\n      tag_29\n      jump\t// in\n    tag_59:\n      tag_60\n      jump\t// in\n    tag_58:\n      stop\n        /* \"@chainlink/contracts/src/v0.8/shared/access/ConfirmedOwnerWithProposal.sol\":1001:1266  function acceptOwnership() external override {... */\n    tag_9:\n      callvalue\n      dup1\n      iszero\n      tag_61\n      jumpi\n      0x00\n      dup1\n      revert\n    tag_61:\n      pop\n      tag_62\n      tag_63\n      jump\t// in\n    tag_62:\n      stop\n        /* \"coqfighttestnet.sol\":9692:9810  function setMinimumWager(uint256 _newMinimumWager) external onlyOwner {... */\n    tag_10:\n      callvalue\n      dup1\n      iszero\n      tag_64\n      jumpi\n      0x00\n      dup1\n      revert\n    tag_64:\n      pop\n      tag_65\n      0x04\n      dup1\n      calldatasize\n      sub\n      dup2\n      add\n      swap1\n      tag_66\n      swap2\n      swap1\n      tag_29\n      jump\t// in\n    tag_66:\n      tag_67\n      jump\t// in\n    tag_65:\n      stop\n        /* \"coqfighttestnet.sol\":1334:1361  uint256[] public requestIds */\n    tag_11:\n      callvalue\n      dup1\n      iszero\n      tag_68\n      jumpi\n      0x00\n      dup1\n      revert\n    tag_68:\n      pop\n      tag_69\n      0x04\n      dup1\n      calldatasize\n      sub\n      dup2\n      add\n      swap1\n      tag_70\n      swap2\n      swap1\n      tag_29\n      jump\t// in\n    tag_70:\n      tag_71\n      jump\t// in\n    tag_69:\n      mload(0x40)\n      tag_72\n      swap2\n      swap1\n      tag_73\n      jump\t// in\n    tag_72:\n      mload(0x40)\n      dup1\n      swap2\n      sub\n      swap1\n      return\n        /* \"@chainlink/contracts/src/v0.8/shared/access/ConfirmedOwnerWithProposal.sol\":1317:1398  function owner() public view override returns (address) {... */\n    tag_12:\n      callvalue\n      dup1\n      iszero\n      tag_74\n      jumpi\n      0x00\n      dup1\n      revert\n    tag_74:\n      pop\n      tag_75\n      tag_76\n      jump\t// in\n    tag_75:\n      mload(0x40)\n      tag_77\n      swap2\n      swap1\n      tag_47\n      jump\t// in\n    tag_77:\n      mload(0x40)\n      dup1\n      swap2\n      sub\n      swap1\n      return\n        /* \"coqfighttestnet.sol\":639:669  uint256[] public activeGameIds */\n    tag_13:\n      callvalue\n      dup1\n      iszero\n      tag_78\n      jumpi\n      0x00\n      dup1\n      revert\n    tag_78:\n      pop\n      tag_79\n      0x04\n      dup1\n      calldatasize\n      sub\n      dup2\n      add\n      swap1\n      tag_80\n      swap2\n      swap1\n      tag_29\n      jump\t// in\n    tag_80:\n      tag_81\n      jump\t// in\n    tag_79:\n      mload(0x40)\n      tag_82\n      swap2\n      swap1\n      tag_73\n      jump\t// in\n    tag_82:\n      mload(0x40)\n      dup1\n      swap2\n      sub\n      swap1\n      return\n        /* \"coqfighttestnet.sol\":9910:10029  function setCallback(uint32 _callbackGasLimit) external onlyOwner {... */\n    tag_14:\n      callvalue\n      dup1\n      iszero\n      tag_83\n      jumpi\n      0x00\n      dup1\n      revert\n    tag_83:\n      pop\n      tag_84\n      0x04\n      dup1\n      calldatasize\n      sub\n      dup2\n      add\n      swap1\n      tag_85\n      swap2\n      swap1\n      tag_86\n      jump\t// in\n    tag_85:\n      tag_87\n      jump\t// in\n    tag_84:\n      stop\n        /* \"coqfighttestnet.sol\":2936:2995  mapping(uint256 => RequestStatus)... */\n    tag_15:\n      callvalue\n      dup1\n      iszero\n      tag_88\n      jumpi\n      0x00\n      dup1\n      revert\n    tag_88:\n      pop\n      tag_89\n      0x04\n      dup1\n      calldatasize\n      sub\n      dup2\n      add\n      swap1\n      tag_90\n      swap2\n      swap1\n      tag_29\n      jump\t// in\n    tag_90:\n      tag_91\n      jump\t// in\n    tag_89:\n      mload(0x40)\n      tag_92\n      swap3\n      swap2\n      swap1\n      tag_93\n      jump\t// in\n    tag_92:\n      mload(0x40)\n      dup1\n      swap2\n      sub\n      swap1\n      return\n        /* \"coqfighttestnet.sol\":844:871  uint256 public minimumWager */\n    tag_16:\n      callvalue\n      dup1\n      iszero\n      tag_94\n      jumpi\n      0x00\n      dup1\n      revert\n    tag_94:\n      pop\n      tag_95\n      tag_96\n      jump\t// in\n    tag_95:\n      mload(0x40)\n      tag_97\n      swap2\n      swap1\n      tag_73\n      jump\t// in\n    tag_97:\n      mload(0x40)\n      dup1\n      swap2\n      sub\n      swap1\n      return\n        /* \"coqfighttestnet.sol\":3200:3252  mapping(uint256 => uint256) public gameIdByRequestId */\n    tag_17:\n      callvalue\n      dup1\n      iszero\n      tag_98\n      jumpi\n      0x00\n      dup1\n      revert\n    tag_98:\n      pop\n      tag_99\n      0x04\n      dup1\n      calldatasize\n      sub\n      dup2\n      add\n      swap1\n      tag_100\n      swap2\n      swap1\n      tag_29\n      jump\t// in\n    tag_100:\n      tag_101\n      jump\t// in\n    tag_99:\n      mload(0x40)\n      tag_102\n      swap2\n      swap1\n      tag_73\n      jump\t// in\n    tag_102:\n      mload(0x40)\n      dup1\n      swap2\n      sub\n      swap1\n      return\n        /* \"coqfighttestnet.sol\":12284:12609  function getRequestStatus(... */\n    tag_18:\n      callvalue\n      dup1\n      iszero\n      tag_103\n      jumpi\n      0x00\n      dup1\n      revert\n    tag_103:\n      pop\n      tag_104\n      0x04\n      dup1\n      calldatasize\n      sub\n      dup2\n      add\n      swap1\n      tag_105\n      swap2\n      swap1\n      tag_29\n      jump\t// in\n    tag_105:\n      tag_106\n      jump\t// in\n    tag_104:\n      mload(0x40)\n      tag_107\n      swap3\n      swap2\n      swap1\n      tag_108\n      jump\t// in\n    tag_107:\n      mload(0x40)\n      dup1\n      swap2\n      sub\n      swap1\n      return\n        /* \"coqfighttestnet.sol\":4908:5469  function startGame(uint256 _wager) external payable {... */\n    tag_19:\n      tag_109\n      0x04\n      dup1\n      calldatasize\n      sub\n      dup2\n      add\n      swap1\n      tag_110\n      swap2\n      swap1\n      tag_29\n      jump\t// in\n    tag_110:\n      tag_111\n      jump\t// in\n    tag_109:\n      stop\n        /* \"coqfighttestnet.sol\":5516:6405  function joinGame(uint256 _gameId) external payable {... */\n    tag_20:\n      tag_112\n      0x04\n      dup1\n      calldatasize\n      sub\n      dup2\n      add\n      swap1\n      tag_113\n      swap2\n      swap1\n      tag_29\n      jump\t// in\n    tag_113:\n      tag_114\n      jump\t// in\n    tag_112:\n      stop\n        /* \"@chainlink/contracts/src/v0.8/shared/access/ConfirmedOwnerWithProposal.sol\":811:909  function transferOwnership(address to) public override onlyOwner {... */\n    tag_21:\n      callvalue\n      dup1\n      iszero\n      tag_115\n      jumpi\n      0x00\n      dup1\n      revert\n    tag_115:\n      pop\n      tag_116\n      0x04\n      dup1\n      calldatasize\n      sub\n      dup2\n      add\n      swap1\n      tag_117\n      swap2\n      swap1\n      tag_41\n      jump\t// in\n    tag_117:\n      tag_118\n      jump\t// in\n    tag_116:\n      stop\n        /* \"coqfighttestnet.sol\":1367:1395  uint256 public lastRequestId */\n    tag_22:\n      callvalue\n      dup1\n      iszero\n      tag_119\n      jumpi\n      0x00\n      dup1\n      revert\n    tag_119:\n      pop\n      tag_120\n      tag_121\n      jump\t// in\n    tag_120:\n      mload(0x40)\n      tag_122\n      swap2\n      swap1\n      tag_73\n      jump\t// in\n    tag_122:\n      mload(0x40)\n      dup1\n      swap2\n      sub\n      swap1\n      return\n        /* \"coqfighttestnet.sol\":3115:3152  mapping(uint256 => Game) public games */\n    tag_30:\n      mstore(0x20, 0x0c)\n      dup1\n      0x00\n      mstore\n      keccak256(0x00, 0x40)\n      0x00\n      swap2\n      pop\n      swap1\n      pop\n      dup1\n      0x00\n      add\n      0x00\n      swap1\n      sload\n      swap1\n      0x0100\n      exp\n      swap1\n      div\n      0xffffffffffffffffffffffffffffffffffffffff\n      and\n      swap1\n      dup1\n      0x01\n      add\n      0x00\n      swap1\n      sload\n      swap1\n      0x0100\n      exp\n      swap1\n      div\n      0xffffffffffffffffffffffffffffffffffffffff\n      and\n      swap1\n      dup1\n      0x02\n      add\n      sload\n      swap1\n      dup1\n      0x03\n      add\n      0x00\n      swap1\n      sload\n      swap1\n      0x0100\n      exp\n      swap1\n      div\n      0xff\n      and\n      swap1\n      dup1\n      0x03\n      add\n      0x01\n      swap1\n      sload\n      swap1\n      0x0100\n      exp\n      swap1\n      div\n      0xffffffffffffffffffffffffffffffffffffffff\n      and\n      swap1\n      pop\n      dup6\n      jump\t// out\n        /* \"@chainlink/contracts/src/v0.8/vrf/VRFConsumerBaseV2.sol\":6618:6874  function rawFulfillRandomWords(uint256 requestId, uint256[] memory randomWords) external {... */\n    tag_37:\n        /* \"@chainlink/contracts/src/v0.8/vrf/VRFConsumerBaseV2.sol\":6731:6745  vrfCoordinator */\n      immutable(\"0x064aab4cf973af3102587bae83caeab28cf75517d40727c9b952f0d14fb521fa\")\n        /* \"@chainlink/contracts/src/v0.8/vrf/VRFConsumerBaseV2.sol\":6717:6745  msg.sender != vrfCoordinator */\n      0xffffffffffffffffffffffffffffffffffffffff\n      and\n        /* \"@chainlink/contracts/src/v0.8/vrf/VRFConsumerBaseV2.sol\":6717:6727  msg.sender */\n      caller\n        /* \"@chainlink/contracts/src/v0.8/vrf/VRFConsumerBaseV2.sol\":6717:6745  msg.sender != vrfCoordinator */\n      0xffffffffffffffffffffffffffffffffffffffff\n      and\n      eq\n        /* \"@chainlink/contracts/src/v0.8/vrf/VRFConsumerBaseV2.sol\":6713:6822  if (msg.sender != vrfCoordinator) {... */\n      tag_124\n      jumpi\n        /* \"@chainlink/contracts/src/v0.8/vrf/VRFConsumerBaseV2.sol\":6788:6798  msg.sender */\n      caller\n        /* \"@chainlink/contracts/src/v0.8/vrf/VRFConsumerBaseV2.sol\":6800:6814  vrfCoordinator */\n      immutable(\"0x064aab4cf973af3102587bae83caeab28cf75517d40727c9b952f0d14fb521fa\")\n        /* \"@chainlink/contracts/src/v0.8/vrf/VRFConsumerBaseV2.sol\":6762:6815  OnlyCoordinatorCanFulfill(msg.sender, vrfCoordinator) */\n      mload(0x40)\n      0x1cf993f400000000000000000000000000000000000000000000000000000000\n      dup2\n      mstore\n      0x04\n      add\n      tag_125\n      swap3\n      swap2\n      swap1\n      tag_126\n      jump\t// in\n    tag_125:\n      mload(0x40)\n      dup1\n      swap2\n      sub\n      swap1\n      revert\n        /* \"@chainlink/contracts/src/v0.8/vrf/VRFConsumerBaseV2.sol\":6713:6822  if (msg.sender != vrfCoordinator) {... */\n    tag_124:\n        /* \"@chainlink/contracts/src/v0.8/vrf/VRFConsumerBaseV2.sol\":6827:6869  fulfillRandomWords(requestId, randomWords) */\n      tag_127\n        /* \"@chainlink/contracts/src/v0.8/vrf/VRFConsumerBaseV2.sol\":6846:6855  requestId */\n      dup3\n        /* \"@chainlink/contracts/src/v0.8/vrf/VRFConsumerBaseV2.sol\":6857:6868  randomWords */\n      dup3\n        /* \"@chainlink/contracts/src/v0.8/vrf/VRFConsumerBaseV2.sol\":6827:6845  fulfillRandomWords */\n      tag_128\n        /* \"@chainlink/contracts/src/v0.8/vrf/VRFConsumerBaseV2.sol\":6827:6869  fulfillRandomWords(requestId, randomWords) */\n      jump\t// in\n    tag_127:\n        /* \"@chainlink/contracts/src/v0.8/vrf/VRFConsumerBaseV2.sol\":6618:6874  function rawFulfillRandomWords(uint256 requestId, uint256[] memory randomWords) external {... */\n      pop\n      pop\n      jump\t// out\n        /* \"coqfighttestnet.sol\":10130:10234  function setBotAddress(address _botAddress) external onlyOwner {... */\n    tag_42:\n        /* \"@chainlink/contracts/src/v0.8/shared/access/ConfirmedOwnerWithProposal.sol\":1941:1961  _validateOwnership() */\n      tag_130\n        /* \"@chainlink/contracts/src/v0.8/shared/access/ConfirmedOwnerWithProposal.sol\":1941:1959  _validateOwnership */\n      tag_131\n        /* \"@chainlink/contracts/src/v0.8/shared/access/ConfirmedOwnerWithProposal.sol\":1941:1961  _validateOwnership() */\n      jump\t// in\n    tag_130:\n        /* \"coqfighttestnet.sol\":10216:10227  _botAddress */\n      dup1\n        /* \"coqfighttestnet.sol\":10203:10213  botAddress */\n      0x05\n      0x00\n        /* \"coqfighttestnet.sol\":10203:10227  botAddress = _botAddress */\n      0x0100\n      exp\n      dup2\n      sload\n      dup2\n      0xffffffffffffffffffffffffffffffffffffffff\n      mul\n      not\n      and\n      swap1\n      dup4\n      0xffffffffffffffffffffffffffffffffffffffff\n      and\n      mul\n      or\n      swap1\n      sstore\n      pop\n        /* \"coqfighttestnet.sol\":10130:10234  function setBotAddress(address _botAddress) external onlyOwner {... */\n      pop\n      jump\t// out\n        /* \"coqfighttestnet.sol\":1172:1242  address public botAddress = 0xc5b407677BFaf9f5a1523ac54E630C046aFe3B49 */\n    tag_45:\n      0x05\n      0x00\n      swap1\n      sload\n      swap1\n      0x0100\n      exp\n      swap1\n      div\n      0xffffffffffffffffffffffffffffffffffffffff\n      and\n      dup2\n      jump\t// out\n        /* \"coqfighttestnet.sol\":7765:8870  function completeGame(uint256 _gameId, uint256[] memory _randomWords) external {... */\n    tag_51:\n        /* \"coqfighttestnet.sol\":7854:7871  Game storage game */\n      0x00\n        /* \"coqfighttestnet.sol\":7874:7879  games */\n      0x0c\n        /* \"coqfighttestnet.sol\":7874:7888  games[_gameId] */\n      0x00\n        /* \"coqfighttestnet.sol\":7880:7887  _gameId */\n      dup5\n        /* \"coqfighttestnet.sol\":7874:7888  games[_gameId] */\n      dup2\n      mstore\n      0x20\n      add\n      swap1\n      dup2\n      mstore\n      0x20\n      add\n      0x00\n      keccak256\n        /* \"coqfighttestnet.sol\":7854:7888  Game storage game = games[_gameId] */\n      swap1\n      pop\n        /* \"coqfighttestnet.sol\":7907:7911  game */\n      dup1\n        /* \"coqfighttestnet.sol\":7907:7921  game.completed */\n      0x03\n      add\n      0x00\n      swap1\n      sload\n      swap1\n      0x0100\n      exp\n      swap1\n      div\n      0xff\n      and\n        /* \"coqfighttestnet.sol\":7906:7921  !game.completed */\n      iszero\n        /* \"coqfighttestnet.sol\":7898:7951  require(!game.completed, \"Game is already completed\") */\n      tag_134\n      jumpi\n      mload(0x40)\n      0x08c379a000000000000000000000000000000000000000000000000000000000\n      dup2\n      mstore\n      0x04\n      add\n      tag_135\n      swap1\n      tag_136\n      jump\t// in\n    tag_135:\n      mload(0x40)\n      dup1\n      swap2\n      sub\n      swap1\n      revert\n    tag_134:\n        /* \"coqfighttestnet.sol\":7983:7993  botAddress */\n      0x05\n      0x00\n      swap1\n      sload\n      swap1\n      0x0100\n      exp\n      swap1\n      div\n      0xffffffffffffffffffffffffffffffffffffffff\n      and\n        /* \"coqfighttestnet.sol\":7969:7993  msg.sender == botAddress */\n      0xffffffffffffffffffffffffffffffffffffffff\n      and\n        /* \"coqfighttestnet.sol\":7969:7979  msg.sender */\n      caller\n        /* \"coqfighttestnet.sol\":7969:7993  msg.sender == botAddress */\n      0xffffffffffffffffffffffffffffffffffffffff\n      and\n      eq\n        /* \"coqfighttestnet.sol\":7961:8019  require(msg.sender == botAddress,\"Caller is not game bot\") */\n      tag_137\n      jumpi\n      mload(0x40)\n      0x08c379a000000000000000000000000000000000000000000000000000000000\n      dup2\n      mstore\n      0x04\n      add\n      tag_138\n      swap1\n      tag_139\n      jump\t// in\n    tag_138:\n      mload(0x40)\n      dup1\n      swap2\n      sub\n      swap1\n      revert\n    tag_137:\n        /* \"coqfighttestnet.sol\":8126:8127  0 */\n      0x00\n        /* \"coqfighttestnet.sol\":8121:8122  2 */\n      0x02\n        /* \"coqfighttestnet.sol\":8103:8115  _randomWords */\n      dup4\n        /* \"coqfighttestnet.sol\":8116:8117  0 */\n      0x00\n        /* \"coqfighttestnet.sol\":8103:8118  _randomWords[0] */\n      dup2\n      mload\n      dup2\n      lt\n      tag_140\n      jumpi\n      tag_141\n      tag_142\n      jump\t// in\n    tag_141:\n    tag_140:\n      0x20\n      mul\n      0x20\n      add\n      add\n      mload\n        /* \"coqfighttestnet.sol\":8103:8122  _randomWords[0] % 2 */\n      tag_143\n      swap2\n      swap1\n      tag_144\n      jump\t// in\n    tag_143:\n        /* \"coqfighttestnet.sol\":8103:8127  _randomWords[0] % 2 == 0 */\n      eq\n        /* \"coqfighttestnet.sol\":8102:8158  (_randomWords[0] % 2 == 0) ? game.player1 : game.player2 */\n      tag_145\n      jumpi\n        /* \"coqfighttestnet.sol\":8146:8150  game */\n      dup1\n        /* \"coqfighttestnet.sol\":8146:8158  game.player2 */\n      0x01\n      add\n      0x00\n      swap1\n      sload\n      swap1\n      0x0100\n      exp\n      swap1\n      div\n      0xffffffffffffffffffffffffffffffffffffffff\n      and\n        /* \"coqfighttestnet.sol\":8102:8158  (_randomWords[0] % 2 == 0) ? game.player1 : game.player2 */\n      jump(tag_146)\n    tag_145:\n        /* \"coqfighttestnet.sol\":8131:8135  game */\n      dup1\n        /* \"coqfighttestnet.sol\":8131:8143  game.player1 */\n      0x00\n      add\n      0x00\n      swap1\n      sload\n      swap1\n      0x0100\n      exp\n      swap1\n      div\n      0xffffffffffffffffffffffffffffffffffffffff\n      and\n        /* \"coqfighttestnet.sol\":8102:8158  (_randomWords[0] % 2 == 0) ? game.player1 : game.player2 */\n    tag_146:\n        /* \"coqfighttestnet.sol\":8088:8092  game */\n      dup2\n        /* \"coqfighttestnet.sol\":8088:8099  game.winner */\n      0x03\n      add\n      0x01\n        /* \"coqfighttestnet.sol\":8088:8158  game.winner = (_randomWords[0] % 2 == 0) ? game.player1 : game.player2 */\n      0x0100\n      exp\n      dup2\n      sload\n      dup2\n      0xffffffffffffffffffffffffffffffffffffffff\n      mul\n      not\n      and\n      swap1\n      dup4\n      0xffffffffffffffffffffffffffffffffffffffff\n      and\n      mul\n      or\n      swap1\n      sstore\n      pop\n        /* \"coqfighttestnet.sol\":8185:8189  true */\n      0x01\n        /* \"coqfighttestnet.sol\":8168:8172  game */\n      dup2\n        /* \"coqfighttestnet.sol\":8168:8182  game.completed */\n      0x03\n      add\n      0x00\n        /* \"coqfighttestnet.sol\":8168:8189  game.completed = true */\n      0x0100\n      exp\n      dup2\n      sload\n      dup2\n      0xff\n      mul\n      not\n      and\n      swap1\n      dup4\n      iszero\n      iszero\n      mul\n      or\n      swap1\n      sstore\n      pop\n        /* \"coqfighttestnet.sol\":8671:8675  game */\n      dup1\n        /* \"coqfighttestnet.sol\":8671:8682  game.winner */\n      0x03\n      add\n      0x01\n      swap1\n      sload\n      swap1\n      0x0100\n      exp\n      swap1\n      div\n      0xffffffffffffffffffffffffffffffffffffffff\n      and\n        /* \"coqfighttestnet.sol\":8663:8692  payable(game.winner).transfer */\n      0xffffffffffffffffffffffffffffffffffffffff\n      and\n        /* \"coqfighttestnet.sol\":8663:8711  payable(game.winner).transfer(game.wager.mul(2)) */\n      0x08fc\n        /* \"coqfighttestnet.sol\":8693:8710  game.wager.mul(2) */\n      tag_147\n        /* \"coqfighttestnet.sol\":8708:8709  2 */\n      0x02\n        /* \"coqfighttestnet.sol\":8693:8697  game */\n      dup5\n        /* \"coqfighttestnet.sol\":8693:8703  game.wager */\n      0x02\n      add\n      sload\n        /* \"coqfighttestnet.sol\":8693:8707  game.wager.mul */\n      tag_148\n      swap1\n        /* \"coqfighttestnet.sol\":8693:8710  game.wager.mul(2) */\n      swap2\n      swap1\n      0xffffffff\n      and\n      jump\t// in\n    tag_147:\n        /* \"coqfighttestnet.sol\":8663:8711  payable(game.winner).transfer(game.wager.mul(2)) */\n      swap1\n      dup2\n      iszero\n      mul\n      swap1\n      mload(0x40)\n      0x00\n      mload(0x40)\n      dup1\n      dup4\n      sub\n      dup2\n      dup6\n      dup9\n      dup9\n      call\n      swap4\n      pop\n      pop\n      pop\n      pop\n      iszero\n      dup1\n      iszero\n      tag_150\n      jumpi\n      returndatasize\n      0x00\n      dup1\n      returndatacopy\n      revert(0x00, returndatasize)\n    tag_150:\n      pop\n        /* \"coqfighttestnet.sol\":8778:8812  _removeGameFromActiveList(_gameId) */\n      tag_151\n        /* \"coqfighttestnet.sol\":8804:8811  _gameId */\n      dup4\n        /* \"coqfighttestnet.sol\":8778:8803  _removeGameFromActiveList */\n      tag_152\n        /* \"coqfighttestnet.sol\":8778:8812  _removeGameFromActiveList(_gameId) */\n      jump\t// in\n    tag_151:\n        /* \"coqfighttestnet.sol\":8851:8855  game */\n      dup1\n        /* \"coqfighttestnet.sol\":8851:8862  game.winner */\n      0x03\n      add\n      0x01\n      swap1\n      sload\n      swap1\n      0x0100\n      exp\n      swap1\n      div\n      0xffffffffffffffffffffffffffffffffffffffff\n      and\n        /* \"coqfighttestnet.sol\":8828:8863  GameCompleted(_gameId, game.winner) */\n      0xffffffffffffffffffffffffffffffffffffffff\n      and\n        /* \"coqfighttestnet.sol\":8842:8849  _gameId */\n      dup4\n        /* \"coqfighttestnet.sol\":8828:8863  GameCompleted(_gameId, game.winner) */\n      0x7f40df5127524300187445e867486da572aab86769c0212e0b392bd87c4ca97f\n      mload(0x40)\n      mload(0x40)\n      dup1\n      swap2\n      sub\n      swap1\n      log3\n        /* \"coqfighttestnet.sol\":7844:8870  {... */\n      pop\n        /* \"coqfighttestnet.sol\":7765:8870  function completeGame(uint256 _gameId, uint256[] memory _randomWords) external {... */\n      pop\n      pop\n      jump\t// out\n        /* \"coqfighttestnet.sol\":6470:6576  function getActiveGameIds() external view returns (uint256[] memory) {... */\n    tag_54:\n        /* \"coqfighttestnet.sol\":6521:6537  uint256[] memory */\n      0x60\n        /* \"coqfighttestnet.sol\":6556:6569  activeGameIds */\n      0x03\n        /* \"coqfighttestnet.sol\":6549:6569  return activeGameIds */\n      dup1\n      sload\n      dup1\n      0x20\n      mul\n      0x20\n      add\n      mload(0x40)\n      swap1\n      dup2\n      add\n      0x40\n      mstore\n      dup1\n      swap3\n      swap2\n      swap1\n      dup2\n      dup2\n      mstore\n      0x20\n      add\n      dup3\n      dup1\n      sload\n      dup1\n      iszero\n      tag_154\n      jumpi\n      0x20\n      mul\n      dup3\n      add\n      swap2\n      swap1\n      0x00\n      mstore\n      keccak256(0x00, 0x20)\n      swap1\n    tag_155:\n      dup2\n      sload\n      dup2\n      mstore\n      0x20\n      add\n      swap1\n      0x01\n      add\n      swap1\n      dup1\n      dup4\n      gt\n      tag_155\n      jumpi\n    tag_154:\n      pop\n      pop\n      pop\n      pop\n      pop\n      swap1\n      pop\n        /* \"coqfighttestnet.sol\":6470:6576  function getActiveGameIds() external view returns (uint256[] memory) {... */\n      swap1\n      jump\t// out\n        /* \"coqfighttestnet.sol\":6733:7668  function cancelGame(uint256 _gameId) external onlyOwner {... */\n    tag_60:\n        /* \"@chainlink/contracts/src/v0.8/shared/access/ConfirmedOwnerWithProposal.sol\":1941:1961  _validateOwnership() */\n      tag_157\n        /* \"@chainlink/contracts/src/v0.8/shared/access/ConfirmedOwnerWithProposal.sol\":1941:1959  _validateOwnership */\n      tag_131\n        /* \"@chainlink/contracts/src/v0.8/shared/access/ConfirmedOwnerWithProposal.sol\":1941:1961  _validateOwnership() */\n      jump\t// in\n    tag_157:\n        /* \"coqfighttestnet.sol\":6799:6816  Game storage game */\n      0x00\n        /* \"coqfighttestnet.sol\":6819:6824  games */\n      0x0c\n        /* \"coqfighttestnet.sol\":6819:6833  games[_gameId] */\n      0x00\n        /* \"coqfighttestnet.sol\":6825:6832  _gameId */\n      dup4\n        /* \"coqfighttestnet.sol\":6819:6833  games[_gameId] */\n      dup2\n      mstore\n      0x20\n      add\n      swap1\n      dup2\n      mstore\n      0x20\n      add\n      0x00\n      keccak256\n        /* \"coqfighttestnet.sol\":6799:6833  Game storage game = games[_gameId] */\n      swap1\n      pop\n        /* \"coqfighttestnet.sol\":6875:6876  0 */\n      0x00\n        /* \"coqfighttestnet.sol\":6851:6877  game.player1 != address(0) */\n      0xffffffffffffffffffffffffffffffffffffffff\n      and\n        /* \"coqfighttestnet.sol\":6851:6855  game */\n      dup2\n        /* \"coqfighttestnet.sol\":6851:6863  game.player1 */\n      0x00\n      add\n      0x00\n      swap1\n      sload\n      swap1\n      0x0100\n      exp\n      swap1\n      div\n      0xffffffffffffffffffffffffffffffffffffffff\n      and\n        /* \"coqfighttestnet.sol\":6851:6877  game.player1 != address(0) */\n      0xffffffffffffffffffffffffffffffffffffffff\n      and\n      sub\n        /* \"coqfighttestnet.sol\":6843:6901  require(game.player1 != address(0), \"Game does not exist\") */\n      tag_159\n      jumpi\n      mload(0x40)\n      0x08c379a000000000000000000000000000000000000000000000000000000000\n      dup2\n      mstore\n      0x04\n      add\n      tag_160\n      swap1\n      tag_161\n      jump\t// in\n    tag_160:\n      mload(0x40)\n      dup1\n      swap2\n      sub\n      swap1\n      revert\n    tag_159:\n        /* \"coqfighttestnet.sol\":6921:6925  game */\n      dup1\n        /* \"coqfighttestnet.sol\":6921:6935  game.completed */\n      0x03\n      add\n      0x00\n      swap1\n      sload\n      swap1\n      0x0100\n      exp\n      swap1\n      div\n      0xff\n      and\n        /* \"coqfighttestnet.sol\":6920:6935  !game.completed */\n      iszero\n        /* \"coqfighttestnet.sol\":6912:6957  require(!game.completed, \"Game is completed\") */\n      tag_162\n      jumpi\n      mload(0x40)\n      0x08c379a000000000000000000000000000000000000000000000000000000000\n      dup2\n      mstore\n      0x04\n      add\n      tag_163\n      swap1\n      tag_164\n      jump\t// in\n    tag_163:\n      mload(0x40)\n      dup1\n      swap2\n      sub\n      swap1\n      revert\n    tag_162:\n        /* \"coqfighttestnet.sol\":7271:7275  game */\n      dup1\n        /* \"coqfighttestnet.sol\":7271:7283  game.player1 */\n      0x00\n      add\n      0x00\n      swap1\n      sload\n      swap1\n      0x0100\n      exp\n      swap1\n      div\n      0xffffffffffffffffffffffffffffffffffffffff\n      and\n        /* \"coqfighttestnet.sol\":7263:7293  payable(game.player1).transfer */\n      0xffffffffffffffffffffffffffffffffffffffff\n      and\n        /* \"coqfighttestnet.sol\":7263:7305  payable(game.player1).transfer(game.wager) */\n      0x08fc\n        /* \"coqfighttestnet.sol\":7294:7298  game */\n      dup3\n        /* \"coqfighttestnet.sol\":7294:7304  game.wager */\n      0x02\n      add\n      sload\n        /* \"coqfighttestnet.sol\":7263:7305  payable(game.player1).transfer(game.wager) */\n      swap1\n      dup2\n      iszero\n      mul\n      swap1\n      mload(0x40)\n      0x00\n      mload(0x40)\n      dup1\n      dup4\n      sub\n      dup2\n      dup6\n      dup9\n      dup9\n      call\n      swap4\n      pop\n      pop\n      pop\n      pop\n      iszero\n      dup1\n      iszero\n      tag_166\n      jumpi\n      returndatasize\n      0x00\n      dup1\n      returndatacopy\n      revert(0x00, returndatasize)\n    tag_166:\n      pop\n        /* \"coqfighttestnet.sol\":7421:7422  0 */\n      0x00\n        /* \"coqfighttestnet.sol\":7397:7423  game.player2 != address(0) */\n      0xffffffffffffffffffffffffffffffffffffffff\n      and\n        /* \"coqfighttestnet.sol\":7397:7401  game */\n      dup2\n        /* \"coqfighttestnet.sol\":7397:7409  game.player2 */\n      0x01\n      add\n      0x00\n      swap1\n      sload\n      swap1\n      0x0100\n      exp\n      swap1\n      div\n      0xffffffffffffffffffffffffffffffffffffffff\n      and\n        /* \"coqfighttestnet.sol\":7397:7423  game.player2 != address(0) */\n      0xffffffffffffffffffffffffffffffffffffffff\n      and\n      eq\n        /* \"coqfighttestnet.sol\":7394:7492  if(game.player2 != address(0)){... */\n      tag_167\n      jumpi\n        /* \"coqfighttestnet.sol\":7447:7451  game */\n      dup1\n        /* \"coqfighttestnet.sol\":7447:7459  game.player2 */\n      0x01\n      add\n      0x00\n      swap1\n      sload\n      swap1\n      0x0100\n      exp\n      swap1\n      div\n      0xffffffffffffffffffffffffffffffffffffffff\n      and\n        /* \"coqfighttestnet.sol\":7439:7469  payable(game.player2).transfer */\n      0xffffffffffffffffffffffffffffffffffffffff\n      and\n        /* \"coqfighttestnet.sol\":7439:7481  payable(game.player2).transfer(game.wager) */\n      0x08fc\n        /* \"coqfighttestnet.sol\":7470:7474  game */\n      dup3\n        /* \"coqfighttestnet.sol\":7470:7480  game.wager */\n      0x02\n      add\n      sload\n        /* \"coqfighttestnet.sol\":7439:7481  payable(game.player2).transfer(game.wager) */\n      swap1\n      dup2\n      iszero\n      mul\n      swap1\n      mload(0x40)\n      0x00\n      mload(0x40)\n      dup1\n      dup4\n      sub\n      dup2\n      dup6\n      dup9\n      dup9\n      call\n      swap4\n      pop\n      pop\n      pop\n      pop\n      iszero\n      dup1\n      iszero\n      tag_169\n      jumpi\n      returndatasize\n      0x00\n      dup1\n      returndatacopy\n      revert(0x00, returndatasize)\n    tag_169:\n      pop\n        /* \"coqfighttestnet.sol\":7394:7492  if(game.player2 != address(0)){... */\n    tag_167:\n        /* \"coqfighttestnet.sol\":7557:7591  _removeGameFromActiveList(_gameId) */\n      tag_170\n        /* \"coqfighttestnet.sol\":7583:7590  _gameId */\n      dup3\n        /* \"coqfighttestnet.sol\":7557:7582  _removeGameFromActiveList */\n      tag_152\n        /* \"coqfighttestnet.sol\":7557:7591  _removeGameFromActiveList(_gameId) */\n      jump\t// in\n    tag_170:\n        /* \"coqfighttestnet.sol\":7609:7614  games */\n      0x0c\n        /* \"coqfighttestnet.sol\":7609:7623  games[_gameId] */\n      0x00\n        /* \"coqfighttestnet.sol\":7615:7622  _gameId */\n      dup4\n        /* \"coqfighttestnet.sol\":7609:7623  games[_gameId] */\n      dup2\n      mstore\n      0x20\n      add\n      swap1\n      dup2\n      mstore\n      0x20\n      add\n      0x00\n      keccak256\n      0x00\n        /* \"coqfighttestnet.sol\":7602:7623  delete games[_gameId] */\n      dup1\n      dup3\n      add\n      exp(0x0100, 0x00)\n      dup2\n      sload\n      swap1\n      0xffffffffffffffffffffffffffffffffffffffff\n      mul\n      not\n      and\n      swap1\n      sstore\n      0x01\n      dup3\n      add\n      exp(0x0100, 0x00)\n      dup2\n      sload\n      swap1\n      0xffffffffffffffffffffffffffffffffffffffff\n      mul\n      not\n      and\n      swap1\n      sstore\n      0x02\n      dup3\n      add\n      0x00\n      swap1\n      sstore\n      0x03\n      dup3\n      add\n      exp(0x0100, 0x00)\n      dup2\n      sload\n      swap1\n      0xff\n      mul\n      not\n      and\n      swap1\n      sstore\n      0x03\n      dup3\n      add\n      exp(0x0100, 0x01)\n      dup2\n      sload\n      swap1\n      0xffffffffffffffffffffffffffffffffffffffff\n      mul\n      not\n      and\n      swap1\n      sstore\n      pop\n      pop\n        /* \"coqfighttestnet.sol\":7653:7660  _gameId */\n      dup2\n        /* \"coqfighttestnet.sol\":7639:7661  GameCancelled(_gameId) */\n      0x681705fdbd93dba3b679fd712577e9a86d57c5551c520f8c74857deb57f9623f\n      mload(0x40)\n      mload(0x40)\n      dup1\n      swap2\n      sub\n      swap1\n      log2\n        /* \"coqfighttestnet.sol\":6789:7668  {... */\n      pop\n        /* \"coqfighttestnet.sol\":6733:7668  function cancelGame(uint256 _gameId) external onlyOwner {... */\n      pop\n      jump\t// out\n        /* \"@chainlink/contracts/src/v0.8/shared/access/ConfirmedOwnerWithProposal.sol\":1001:1266  function acceptOwnership() external override {... */\n    tag_63:\n        /* \"@chainlink/contracts/src/v0.8/shared/access/ConfirmedOwnerWithProposal.sol\":1074:1088  s_pendingOwner */\n      0x01\n      0x00\n      swap1\n      sload\n      swap1\n      0x0100\n      exp\n      swap1\n      div\n      0xffffffffffffffffffffffffffffffffffffffff\n      and\n        /* \"@chainlink/contracts/src/v0.8/shared/access/ConfirmedOwnerWithProposal.sol\":1060:1088  msg.sender == s_pendingOwner */\n      0xffffffffffffffffffffffffffffffffffffffff\n      and\n        /* \"@chainlink/contracts/src/v0.8/shared/access/ConfirmedOwnerWithProposal.sol\":1060:1070  msg.sender */\n      caller\n        /* \"@chainlink/contracts/src/v0.8/shared/access/ConfirmedOwnerWithProposal.sol\":1060:1088  msg.sender == s_pendingOwner */\n      0xffffffffffffffffffffffffffffffffffffffff\n      and\n      eq\n        /* \"@chainlink/contracts/src/v0.8/shared/access/ConfirmedOwnerWithProposal.sol\":1052:1115  require(msg.sender == s_pendingOwner, \"Must be proposed owner\") */\n      tag_172\n      jumpi\n      mload(0x40)\n      0x08c379a000000000000000000000000000000000000000000000000000000000\n      dup2\n      mstore\n      0x04\n      add\n      tag_173\n      swap1\n      tag_174\n      jump\t// in\n    tag_173:\n      mload(0x40)\n      dup1\n      swap2\n      sub\n      swap1\n      revert\n    tag_172:\n        /* \"@chainlink/contracts/src/v0.8/shared/access/ConfirmedOwnerWithProposal.sol\":1122:1138  address oldOwner */\n      0x00\n        /* \"@chainlink/contracts/src/v0.8/shared/access/ConfirmedOwnerWithProposal.sol\":1141:1148  s_owner */\n      dup1\n      0x00\n      swap1\n      sload\n      swap1\n      0x0100\n      exp\n      swap1\n      div\n      0xffffffffffffffffffffffffffffffffffffffff\n      and\n        /* \"@chainlink/contracts/src/v0.8/shared/access/ConfirmedOwnerWithProposal.sol\":1122:1148  address oldOwner = s_owner */\n      swap1\n      pop\n        /* \"@chainlink/contracts/src/v0.8/shared/access/ConfirmedOwnerWithProposal.sol\":1164:1174  msg.sender */\n      caller\n        /* \"@chainlink/contracts/src/v0.8/shared/access/ConfirmedOwnerWithProposal.sol\":1154:1161  s_owner */\n      0x00\n      dup1\n        /* \"@chainlink/contracts/src/v0.8/shared/access/ConfirmedOwnerWithProposal.sol\":1154:1174  s_owner = msg.sender */\n      0x0100\n      exp\n      dup2\n      sload\n      dup2\n      0xffffffffffffffffffffffffffffffffffffffff\n      mul\n      not\n      and\n      swap1\n      dup4\n      0xffffffffffffffffffffffffffffffffffffffff\n      and\n      mul\n      or\n      swap1\n      sstore\n      pop\n        /* \"@chainlink/contracts/src/v0.8/shared/access/ConfirmedOwnerWithProposal.sol\":1205:1206  0 */\n      0x00\n        /* \"@chainlink/contracts/src/v0.8/shared/access/ConfirmedOwnerWithProposal.sol\":1180:1194  s_pendingOwner */\n      0x01\n      0x00\n        /* \"@chainlink/contracts/src/v0.8/shared/access/ConfirmedOwnerWithProposal.sol\":1180:1207  s_pendingOwner = address(0) */\n      0x0100\n      exp\n      dup2\n      sload\n      dup2\n      0xffffffffffffffffffffffffffffffffffffffff\n      mul\n      not\n      and\n      swap1\n      dup4\n      0xffffffffffffffffffffffffffffffffffffffff\n      and\n      mul\n      or\n      swap1\n      sstore\n      pop\n        /* \"@chainlink/contracts/src/v0.8/shared/access/ConfirmedOwnerWithProposal.sol\":1250:1260  msg.sender */\n      caller\n        /* \"@chainlink/contracts/src/v0.8/shared/access/ConfirmedOwnerWithProposal.sol\":1219:1261  OwnershipTransferred(oldOwner, msg.sender) */\n      0xffffffffffffffffffffffffffffffffffffffff\n      and\n        /* \"@chainlink/contracts/src/v0.8/shared/access/ConfirmedOwnerWithProposal.sol\":1240:1248  oldOwner */\n      dup2\n        /* \"@chainlink/contracts/src/v0.8/shared/access/ConfirmedOwnerWithProposal.sol\":1219:1261  OwnershipTransferred(oldOwner, msg.sender) */\n      0xffffffffffffffffffffffffffffffffffffffff\n      and\n      0x8be0079c531659141344cd1fd0a4f28419497f9722a3daafe3b4186f6b6457e0\n      mload(0x40)\n      mload(0x40)\n      dup1\n      swap2\n      sub\n      swap1\n      log3\n        /* \"@chainlink/contracts/src/v0.8/shared/access/ConfirmedOwnerWithProposal.sol\":1046:1266  {... */\n      pop\n        /* \"@chainlink/contracts/src/v0.8/shared/access/ConfirmedOwnerWithProposal.sol\":1001:1266  function acceptOwnership() external override {... */\n      jump\t// out\n        /* \"coqfighttestnet.sol\":9692:9810  function setMinimumWager(uint256 _newMinimumWager) external onlyOwner {... */\n    tag_67:\n        /* \"@chainlink/contracts/src/v0.8/shared/access/ConfirmedOwnerWithProposal.sol\":1941:1961  _validateOwnership() */\n      tag_176\n        /* \"@chainlink/contracts/src/v0.8/shared/access/ConfirmedOwnerWithProposal.sol\":1941:1959  _validateOwnership */\n      tag_131\n        /* \"@chainlink/contracts/src/v0.8/shared/access/ConfirmedOwnerWithProposal.sol\":1941:1961  _validateOwnership() */\n      jump\t// in\n    tag_176:\n        /* \"coqfighttestnet.sol\":9787:9803  _newMinimumWager */\n      dup1\n        /* \"coqfighttestnet.sol\":9772:9784  minimumWager */\n      0x04\n        /* \"coqfighttestnet.sol\":9772:9803  minimumWager = _newMinimumWager */\n      dup2\n      swap1\n      sstore\n      pop\n        /* \"coqfighttestnet.sol\":9692:9810  function setMinimumWager(uint256 _newMinimumWager) external onlyOwner {... */\n      pop\n      jump\t// out\n        /* \"coqfighttestnet.sol\":1334:1361  uint256[] public requestIds */\n    tag_71:\n      0x06\n      dup2\n      dup2\n      sload\n      dup2\n      lt\n      tag_178\n      jumpi\n      0x00\n      dup1\n      revert\n    tag_178:\n      swap1\n      0x00\n      mstore\n      keccak256(0x00, 0x20)\n      add\n      0x00\n      swap2\n      pop\n      swap1\n      pop\n      sload\n      dup2\n      jump\t// out\n        /* \"@chainlink/contracts/src/v0.8/shared/access/ConfirmedOwnerWithProposal.sol\":1317:1398  function owner() public view override returns (address) {... */\n    tag_76:\n        /* \"@chainlink/contracts/src/v0.8/shared/access/ConfirmedOwnerWithProposal.sol\":1364:1371  address */\n      0x00\n        /* \"@chainlink/contracts/src/v0.8/shared/access/ConfirmedOwnerWithProposal.sol\":1386:1393  s_owner */\n      dup1\n      0x00\n      swap1\n      sload\n      swap1\n      0x0100\n      exp\n      swap1\n      div\n      0xffffffffffffffffffffffffffffffffffffffff\n      and\n        /* \"@chainlink/contracts/src/v0.8/shared/access/ConfirmedOwnerWithProposal.sol\":1379:1393  return s_owner */\n      swap1\n      pop\n        /* \"@chainlink/contracts/src/v0.8/shared/access/ConfirmedOwnerWithProposal.sol\":1317:1398  function owner() public view override returns (address) {... */\n      swap1\n      jump\t// out\n        /* \"coqfighttestnet.sol\":639:669  uint256[] public activeGameIds */\n    tag_81:\n      0x03\n      dup2\n      dup2\n      sload\n      dup2\n      lt\n      tag_181\n      jumpi\n      0x00\n      dup1\n      revert\n    tag_181:\n      swap1\n      0x00\n      mstore\n      keccak256(0x00, 0x20)\n      add\n      0x00\n      swap2\n      pop\n      swap1\n      pop\n      sload\n      dup2\n      jump\t// out\n        /* \"coqfighttestnet.sol\":9910:10029  function setCallback(uint32 _callbackGasLimit) external onlyOwner {... */\n    tag_87:\n        /* \"@chainlink/contracts/src/v0.8/shared/access/ConfirmedOwnerWithProposal.sol\":1941:1961  _validateOwnership() */\n      tag_184\n        /* \"@chainlink/contracts/src/v0.8/shared/access/ConfirmedOwnerWithProposal.sol\":1941:1959  _validateOwnership */\n      tag_131\n        /* \"@chainlink/contracts/src/v0.8/shared/access/ConfirmedOwnerWithProposal.sol\":1941:1961  _validateOwnership() */\n      jump\t// in\n    tag_184:\n        /* \"coqfighttestnet.sol\":10005:10022  _callbackGasLimit */\n      dup1\n        /* \"coqfighttestnet.sol\":9986:10002  callbackGasLimit */\n      0x09\n      0x00\n        /* \"coqfighttestnet.sol\":9986:10022  callbackGasLimit = _callbackGasLimit */\n      0x0100\n      exp\n      dup2\n      sload\n      dup2\n      0xffffffff\n      mul\n      not\n      and\n      swap1\n      dup4\n      0xffffffff\n      and\n      mul\n      or\n      swap1\n      sstore\n      pop\n        /* \"coqfighttestnet.sol\":9910:10029  function setCallback(uint32 _callbackGasLimit) external onlyOwner {... */\n      pop\n      jump\t// out\n        /* \"coqfighttestnet.sol\":2936:2995  mapping(uint256 => RequestStatus)... */\n    tag_91:\n      mstore(0x20, 0x0a)\n      dup1\n      0x00\n      mstore\n      keccak256(0x00, 0x40)\n      0x00\n      swap2\n      pop\n      swap1\n      pop\n      dup1\n      0x00\n      add\n      0x00\n      swap1\n      sload\n      swap1\n      0x0100\n      exp\n      swap1\n      div\n      0xff\n      and\n      swap1\n      dup1\n      0x00\n      add\n      0x01\n      swap1\n      sload\n      swap1\n      0x0100\n      exp\n      swap1\n      div\n      0xff\n      and\n      swap1\n      pop\n      dup3\n      jump\t// out\n        /* \"coqfighttestnet.sol\":844:871  uint256 public minimumWager */\n    tag_96:\n      sload(0x04)\n      dup2\n      jump\t// out\n        /* \"coqfighttestnet.sol\":3200:3252  mapping(uint256 => uint256) public gameIdByRequestId */\n    tag_101:\n      mstore(0x20, 0x0d)\n      dup1\n      0x00\n      mstore\n      keccak256(0x00, 0x40)\n      0x00\n      swap2\n      pop\n      swap1\n      pop\n      sload\n      dup2\n      jump\t// out\n        /* \"coqfighttestnet.sol\":12284:12609  function getRequestStatus(... */\n    tag_106:\n        /* \"coqfighttestnet.sol\":12367:12381  bool fulfilled */\n      0x00\n        /* \"coqfighttestnet.sol\":12383:12411  uint256[] memory randomWords */\n      0x60\n        /* \"coqfighttestnet.sol\":12431:12441  s_requests */\n      0x0a\n        /* \"coqfighttestnet.sol\":12431:12453  s_requests[_requestId] */\n      0x00\n        /* \"coqfighttestnet.sol\":12442:12452  _requestId */\n      dup5\n        /* \"coqfighttestnet.sol\":12431:12453  s_requests[_requestId] */\n      dup2\n      mstore\n      0x20\n      add\n      swap1\n      dup2\n      mstore\n      0x20\n      add\n      0x00\n      keccak256\n        /* \"coqfighttestnet.sol\":12431:12460  s_requests[_requestId].exists */\n      0x00\n      add\n      0x01\n      swap1\n      sload\n      swap1\n      0x0100\n      exp\n      swap1\n      div\n      0xff\n      and\n        /* \"coqfighttestnet.sol\":12423:12482  require(s_requests[_requestId].exists, \"request not found\") */\n      tag_187\n      jumpi\n      mload(0x40)\n      0x08c379a000000000000000000000000000000000000000000000000000000000\n      dup2\n      mstore\n      0x04\n      add\n      tag_188\n      swap1\n      tag_189\n      jump\t// in\n    tag_188:\n      mload(0x40)\n      dup1\n      swap2\n      sub\n      swap1\n      revert\n    tag_187:\n        /* \"coqfighttestnet.sol\":12492:12520  RequestStatus memory request */\n      0x00\n        /* \"coqfighttestnet.sol\":12523:12533  s_requests */\n      0x0a\n        /* \"coqfighttestnet.sol\":12523:12545  s_requests[_requestId] */\n      0x00\n        /* \"coqfighttestnet.sol\":12534:12544  _requestId */\n      dup6\n        /* \"coqfighttestnet.sol\":12523:12545  s_requests[_requestId] */\n      dup2\n      mstore\n      0x20\n      add\n      swap1\n      dup2\n      mstore\n      0x20\n      add\n      0x00\n      keccak256\n        /* \"coqfighttestnet.sol\":12492:12545  RequestStatus memory request = s_requests[_requestId] */\n      mload(0x40)\n      dup1\n      0x60\n      add\n      0x40\n      mstore\n      swap1\n      dup2\n      0x00\n      dup3\n      add\n      0x00\n      swap1\n      sload\n      swap1\n      0x0100\n      exp\n      swap1\n      div\n      0xff\n      and\n      iszero\n      iszero\n      iszero\n      iszero\n      dup2\n      mstore\n      0x20\n      add\n      0x00\n      dup3\n      add\n      0x01\n      swap1\n      sload\n      swap1\n      0x0100\n      exp\n      swap1\n      div\n      0xff\n      and\n      iszero\n      iszero\n      iszero\n      iszero\n      dup2\n      mstore\n      0x20\n      add\n      0x01\n      dup3\n      add\n      dup1\n      sload\n      dup1\n      0x20\n      mul\n      0x20\n      add\n      mload(0x40)\n      swap1\n      dup2\n      add\n      0x40\n      mstore\n      dup1\n      swap3\n      swap2\n      swap1\n      dup2\n      dup2\n      mstore\n      0x20\n      add\n      dup3\n      dup1\n      sload\n      dup1\n      iszero\n      tag_190\n      jumpi\n      0x20\n      mul\n      dup3\n      add\n      swap2\n      swap1\n      0x00\n      mstore\n      keccak256(0x00, 0x20)\n      swap1\n    tag_191:\n      dup2\n      sload\n      dup2\n      mstore\n      0x20\n      add\n      swap1\n      0x01\n      add\n      swap1\n      dup1\n      dup4\n      gt\n      tag_191\n      jumpi\n    tag_190:\n      pop\n      pop\n      pop\n      pop\n      pop\n      dup2\n      mstore\n      pop\n      pop\n      swap1\n      pop\n        /* \"coqfighttestnet.sol\":12563:12570  request */\n      dup1\n        /* \"coqfighttestnet.sol\":12563:12580  request.fulfilled */\n      0x00\n      add\n      mload\n        /* \"coqfighttestnet.sol\":12582:12589  request */\n      dup2\n        /* \"coqfighttestnet.sol\":12582:12601  request.randomWords */\n      0x40\n      add\n      mload\n        /* \"coqfighttestnet.sol\":12555:12602  return (request.fulfilled, request.randomWords) */\n      swap3\n      pop\n      swap3\n      pop\n      pop\n        /* \"coqfighttestnet.sol\":12284:12609  function getRequestStatus(... */\n      swap2\n      pop\n      swap2\n      jump\t// out\n        /* \"coqfighttestnet.sol\":4908:5469  function startGame(uint256 _wager) external payable {... */\n    tag_111:\n        /* \"coqfighttestnet.sol\":5153:5165  minimumWager */\n      sload(0x04)\n        /* \"coqfighttestnet.sol\":5140:5149  msg.value */\n      callvalue\n        /* \"coqfighttestnet.sol\":5140:5165  msg.value >= minimumWager */\n      lt\n      iszero\n        /* \"coqfighttestnet.sol\":5132:5208  require(msg.value >= minimumWager, \"Wager amount is less than minimumWager\") */\n      tag_193\n      jumpi\n      mload(0x40)\n      0x08c379a000000000000000000000000000000000000000000000000000000000\n      dup2\n      mstore\n      0x04\n      add\n      tag_194\n      swap1\n      tag_195\n      jump\t// in\n    tag_194:\n      mload(0x40)\n      dup1\n      swap2\n      sub\n      swap1\n      revert\n    tag_193:\n        /* \"coqfighttestnet.sol\":5219:5233  uint256 gameId */\n      0x00\n        /* \"coqfighttestnet.sol\":5236:5253  _generateGameId() */\n      tag_196\n        /* \"coqfighttestnet.sol\":5236:5251  _generateGameId */\n      tag_197\n        /* \"coqfighttestnet.sol\":5236:5253  _generateGameId() */\n      jump\t// in\n    tag_196:\n        /* \"coqfighttestnet.sol\":5219:5253  uint256 gameId = _generateGameId() */\n      swap1\n      pop\n        /* \"coqfighttestnet.sol\":5279:5334  Game(msg.sender, address(0), _wager, false, address(0)) */\n      mload(0x40)\n      dup1\n      0xa0\n      add\n      0x40\n      mstore\n      dup1\n        /* \"coqfighttestnet.sol\":5284:5294  msg.sender */\n      caller\n        /* \"coqfighttestnet.sol\":5279:5334  Game(msg.sender, address(0), _wager, false, address(0)) */\n      0xffffffffffffffffffffffffffffffffffffffff\n      and\n      dup2\n      mstore\n      0x20\n      add\n        /* \"coqfighttestnet.sol\":5304:5305  0 */\n      0x00\n        /* \"coqfighttestnet.sol\":5279:5334  Game(msg.sender, address(0), _wager, false, address(0)) */\n      0xffffffffffffffffffffffffffffffffffffffff\n      and\n      dup2\n      mstore\n      0x20\n      add\n        /* \"coqfighttestnet.sol\":5308:5314  _wager */\n      dup4\n        /* \"coqfighttestnet.sol\":5279:5334  Game(msg.sender, address(0), _wager, false, address(0)) */\n      dup2\n      mstore\n      0x20\n      add\n        /* \"coqfighttestnet.sol\":5316:5321  false */\n      0x00\n        /* \"coqfighttestnet.sol\":5279:5334  Game(msg.sender, address(0), _wager, false, address(0)) */\n      iszero\n      iszero\n      dup2\n      mstore\n      0x20\n      add\n        /* \"coqfighttestnet.sol\":5331:5332  0 */\n      0x00\n        /* \"coqfighttestnet.sol\":5279:5334  Game(msg.sender, address(0), _wager, false, address(0)) */\n      0xffffffffffffffffffffffffffffffffffffffff\n      and\n      dup2\n      mstore\n      pop\n        /* \"coqfighttestnet.sol\":5263:5268  games */\n      0x0c\n        /* \"coqfighttestnet.sol\":5263:5276  games[gameId] */\n      0x00\n        /* \"coqfighttestnet.sol\":5269:5275  gameId */\n      dup4\n        /* \"coqfighttestnet.sol\":5263:5276  games[gameId] */\n      dup2\n      mstore\n      0x20\n      add\n      swap1\n      dup2\n      mstore\n      0x20\n      add\n      0x00\n      keccak256\n        /* \"coqfighttestnet.sol\":5263:5334  games[gameId] = Game(msg.sender, address(0), _wager, false, address(0)) */\n      0x00\n      dup3\n      add\n      mload\n      dup2\n      0x00\n      add\n      exp(0x0100, 0x00)\n      dup2\n      sload\n      dup2\n      0xffffffffffffffffffffffffffffffffffffffff\n      mul\n      not\n      and\n      swap1\n      dup4\n      0xffffffffffffffffffffffffffffffffffffffff\n      and\n      mul\n      or\n      swap1\n      sstore\n      pop\n      0x20\n      dup3\n      add\n      mload\n      dup2\n      0x01\n      add\n      exp(0x0100, 0x00)\n      dup2\n      sload\n      dup2\n      0xffffffffffffffffffffffffffffffffffffffff\n      mul\n      not\n      and\n      swap1\n      dup4\n      0xffffffffffffffffffffffffffffffffffffffff\n      and\n      mul\n      or\n      swap1\n      sstore\n      pop\n      0x40\n      dup3\n      add\n      mload\n      dup2\n      0x02\n      add\n      sstore\n      0x60\n      dup3\n      add\n      mload\n      dup2\n      0x03\n      add\n      exp(0x0100, 0x00)\n      dup2\n      sload\n      dup2\n      0xff\n      mul\n      not\n      and\n      swap1\n      dup4\n      iszero\n      iszero\n      mul\n      or\n      swap1\n      sstore\n      pop\n      0x80\n      dup3\n      add\n      mload\n      dup2\n      0x03\n      add\n      exp(0x0100, 0x01)\n      dup2\n      sload\n      dup2\n      0xffffffffffffffffffffffffffffffffffffffff\n      mul\n      not\n      and\n      swap1\n      dup4\n      0xffffffffffffffffffffffffffffffffffffffff\n      and\n      mul\n      or\n      swap1\n      sstore\n      pop\n      swap1\n      pop\n      pop\n        /* \"coqfighttestnet.sol\":5344:5357  activeGameIds */\n      0x03\n        /* \"coqfighttestnet.sol\":5363:5369  gameId */\n      dup2\n        /* \"coqfighttestnet.sol\":5344:5370  activeGameIds.push(gameId) */\n      swap1\n      dup1\n      0x01\n      dup2\n      sload\n      add\n      dup1\n      dup3\n      sstore\n      dup1\n      swap2\n      pop\n      pop\n      0x01\n      swap1\n      sub\n      swap1\n      0x00\n      mstore\n      keccak256(0x00, 0x20)\n      add\n      0x00\n      swap1\n      swap2\n      swap1\n      swap2\n      swap1\n      swap2\n      pop\n      sstore\n        /* \"coqfighttestnet.sol\":5443:5453  msg.sender */\n      caller\n        /* \"coqfighttestnet.sol\":5423:5462  GameStarted(gameId, msg.sender, _wager) */\n      0xffffffffffffffffffffffffffffffffffffffff\n      and\n        /* \"coqfighttestnet.sol\":5435:5441  gameId */\n      dup2\n        /* \"coqfighttestnet.sol\":5423:5462  GameStarted(gameId, msg.sender, _wager) */\n      0x0c82908456d66c43e9de63edd66f9faf875c8f3a12f936e162d675ec42c35444\n        /* \"coqfighttestnet.sol\":5455:5461  _wager */\n      dup5\n        /* \"coqfighttestnet.sol\":5423:5462  GameStarted(gameId, msg.sender, _wager) */\n      mload(0x40)\n      tag_199\n      swap2\n      swap1\n      tag_73\n      jump\t// in\n    tag_199:\n      mload(0x40)\n      dup1\n      swap2\n      sub\n      swap1\n      log3\n        /* \"coqfighttestnet.sol\":4960:5469  {... */\n      pop\n        /* \"coqfighttestnet.sol\":4908:5469  function startGame(uint256 _wager) external payable {... */\n      pop\n      jump\t// out\n        /* \"coqfighttestnet.sol\":5516:6405  function joinGame(uint256 _gameId) external payable {... */\n    tag_114:\n        /* \"coqfighttestnet.sol\":5578:5595  Game storage game */\n      0x00\n        /* \"coqfighttestnet.sol\":5598:5603  games */\n      0x0c\n        /* \"coqfighttestnet.sol\":5598:5612  games[_gameId] */\n      0x00\n        /* \"coqfighttestnet.sol\":5604:5611  _gameId */\n      dup4\n        /* \"coqfighttestnet.sol\":5598:5612  games[_gameId] */\n      dup2\n      mstore\n      0x20\n      add\n      swap1\n      dup2\n      mstore\n      0x20\n      add\n      0x00\n      keccak256\n        /* \"coqfighttestnet.sol\":5578:5612  Game storage game = games[_gameId] */\n      swap1\n      pop\n        /* \"coqfighttestnet.sol\":5631:5635  game */\n      dup1\n        /* \"coqfighttestnet.sol\":5631:5645  game.completed */\n      0x03\n      add\n      0x00\n      swap1\n      sload\n      swap1\n      0x0100\n      exp\n      swap1\n      div\n      0xff\n      and\n        /* \"coqfighttestnet.sol\":5630:5645  !game.completed */\n      iszero\n        /* \"coqfighttestnet.sol\":5622:5667  require(!game.completed, \"Game is completed\") */\n      tag_201\n      jumpi\n      mload(0x40)\n      0x08c379a000000000000000000000000000000000000000000000000000000000\n      dup2\n      mstore\n      0x04\n      add\n      tag_202\n      swap1\n      tag_164\n      jump\t// in\n    tag_202:\n      mload(0x40)\n      dup1\n      swap2\n      sub\n      swap1\n      revert\n    tag_201:\n        /* \"coqfighttestnet.sol\":5709:5710  0 */\n      0x00\n        /* \"coqfighttestnet.sol\":5685:5711  game.player2 == address(0) */\n      0xffffffffffffffffffffffffffffffffffffffff\n      and\n        /* \"coqfighttestnet.sol\":5685:5689  game */\n      dup2\n        /* \"coqfighttestnet.sol\":5685:5697  game.player2 */\n      0x01\n      add\n      0x00\n      swap1\n      sload\n      swap1\n      0x0100\n      exp\n      swap1\n      div\n      0xffffffffffffffffffffffffffffffffffffffff\n      and\n        /* \"coqfighttestnet.sol\":5685:5711  game.player2 == address(0) */\n      0xffffffffffffffffffffffffffffffffffffffff\n      and\n      eq\n        /* \"coqfighttestnet.sol\":5677:5738  require(game.player2 == address(0), \"Game is already joined\") */\n      tag_203\n      jumpi\n      mload(0x40)\n      0x08c379a000000000000000000000000000000000000000000000000000000000\n      dup2\n      mstore\n      0x04\n      add\n      tag_204\n      swap1\n      tag_205\n      jump\t// in\n    tag_204:\n      mload(0x40)\n      dup1\n      swap2\n      sub\n      swap1\n      revert\n    tag_203:\n        /* \"coqfighttestnet.sol\":5935:5939  game */\n      dup1\n        /* \"coqfighttestnet.sol\":5935:5945  game.wager */\n      0x02\n      add\n      sload\n        /* \"coqfighttestnet.sol\":5922:5931  msg.value */\n      callvalue\n        /* \"coqfighttestnet.sol\":5922:5945  msg.value == game.wager */\n      eq\n        /* \"coqfighttestnet.sol\":5914:5971  require(msg.value == game.wager, \"Incorrect amount sent\") */\n      tag_206\n      jumpi\n      mload(0x40)\n      0x08c379a000000000000000000000000000000000000000000000000000000000\n      dup2\n      mstore\n      0x04\n      add\n      tag_207\n      swap1\n      tag_208\n      jump\t// in\n    tag_207:\n      mload(0x40)\n      dup1\n      swap2\n      sub\n      swap1\n      revert\n    tag_206:\n        /* \"coqfighttestnet.sol\":6013:6014  0 */\n      0x00\n        /* \"coqfighttestnet.sol\":5989:6015  game.player1 != address(0) */\n      0xffffffffffffffffffffffffffffffffffffffff\n      and\n        /* \"coqfighttestnet.sol\":5989:5993  game */\n      dup2\n        /* \"coqfighttestnet.sol\":5989:6001  game.player1 */\n      0x00\n      add\n      0x00\n      swap1\n      sload\n      swap1\n      0x0100\n      exp\n      swap1\n      div\n      0xffffffffffffffffffffffffffffffffffffffff\n      and\n        /* \"coqfighttestnet.sol\":5989:6015  game.player1 != address(0) */\n      0xffffffffffffffffffffffffffffffffffffffff\n      and\n      sub\n        /* \"coqfighttestnet.sol\":5981:6039  require(game.player1 != address(0), \"Game does not exist\") */\n      tag_209\n      jumpi\n      mload(0x40)\n      0x08c379a000000000000000000000000000000000000000000000000000000000\n      dup2\n      mstore\n      0x04\n      add\n      tag_210\n      swap1\n      tag_161\n      jump\t// in\n    tag_210:\n      mload(0x40)\n      dup1\n      swap2\n      sub\n      swap1\n      revert\n    tag_209:\n        /* \"coqfighttestnet.sol\":6071:6075  game */\n      dup1\n        /* \"coqfighttestnet.sol\":6071:6083  game.player1 */\n      0x00\n      add\n      0x00\n      swap1\n      sload\n      swap1\n      0x0100\n      exp\n      swap1\n      div\n      0xffffffffffffffffffffffffffffffffffffffff\n      and\n        /* \"coqfighttestnet.sol\":6057:6083  msg.sender != game.player1 */\n      0xffffffffffffffffffffffffffffffffffffffff\n      and\n        /* \"coqfighttestnet.sol\":6057:6067  msg.sender */\n      caller\n        /* \"coqfighttestnet.sol\":6057:6083  msg.sender != game.player1 */\n      0xffffffffffffffffffffffffffffffffffffffff\n      and\n      sub\n        /* \"coqfighttestnet.sol\":6049:6117  require(msg.sender != game.player1, \"You cannot join your own game\") */\n      tag_211\n      jumpi\n      mload(0x40)\n      0x08c379a000000000000000000000000000000000000000000000000000000000\n      dup2\n      mstore\n      0x04\n      add\n      tag_212\n      swap1\n      tag_213\n      jump\t// in\n    tag_212:\n      mload(0x40)\n      dup1\n      swap2\n      sub\n      swap1\n      revert\n    tag_211:\n        /* \"coqfighttestnet.sol\":6185:6195  msg.sender */\n      caller\n        /* \"coqfighttestnet.sol\":6170:6174  game */\n      dup2\n        /* \"coqfighttestnet.sol\":6170:6182  game.player2 */\n      0x01\n      add\n      0x00\n        /* \"coqfighttestnet.sol\":6170:6195  game.player2 = msg.sender */\n      0x0100\n      exp\n      dup2\n      sload\n      dup2\n      0xffffffffffffffffffffffffffffffffffffffff\n      mul\n      not\n      and\n      swap1\n      dup4\n      0xffffffffffffffffffffffffffffffffffffffff\n      and\n      mul\n      or\n      swap1\n      sstore\n      pop\n        /* \"coqfighttestnet.sol\":6261:6278  uint256 requestId */\n      0x00\n        /* \"coqfighttestnet.sol\":6281:6301  requestRandomWords() */\n      tag_214\n        /* \"coqfighttestnet.sol\":6281:6299  requestRandomWords */\n      tag_215\n        /* \"coqfighttestnet.sol\":6281:6301  requestRandomWords() */\n      jump\t// in\n    tag_214:\n        /* \"coqfighttestnet.sol\":6261:6301  uint256 requestId = requestRandomWords() */\n      swap1\n      pop\n        /* \"coqfighttestnet.sol\":6342:6349  _gameId */\n      dup3\n        /* \"coqfighttestnet.sol\":6311:6328  gameIdByRequestId */\n      0x0d\n        /* \"coqfighttestnet.sol\":6311:6339  gameIdByRequestId[requestId] */\n      0x00\n        /* \"coqfighttestnet.sol\":6329:6338  requestId */\n      dup4\n        /* \"coqfighttestnet.sol\":6311:6339  gameIdByRequestId[requestId] */\n      dup2\n      mstore\n      0x20\n      add\n      swap1\n      dup2\n      mstore\n      0x20\n      add\n      0x00\n      keccak256\n        /* \"coqfighttestnet.sol\":6311:6349  gameIdByRequestId[requestId] = _gameId */\n      dup2\n      swap1\n      sstore\n      pop\n        /* \"coqfighttestnet.sol\":6387:6397  msg.sender */\n      caller\n        /* \"coqfighttestnet.sol\":6365:6398  PlayerJoined(_gameId, msg.sender) */\n      0xffffffffffffffffffffffffffffffffffffffff\n      and\n        /* \"coqfighttestnet.sol\":6378:6385  _gameId */\n      dup4\n        /* \"coqfighttestnet.sol\":6365:6398  PlayerJoined(_gameId, msg.sender) */\n      0x87969bc7faf902221a147b95ceba76e011c5efb0339a0a8ee7a2bb82d9cfbbd6\n      mload(0x40)\n      mload(0x40)\n      dup1\n      swap2\n      sub\n      swap1\n      log3\n        /* \"coqfighttestnet.sol\":5568:6405  {... */\n      pop\n      pop\n        /* \"coqfighttestnet.sol\":5516:6405  function joinGame(uint256 _gameId) external payable {... */\n      pop\n      jump\t// out\n        /* \"@chainlink/contracts/src/v0.8/shared/access/ConfirmedOwnerWithProposal.sol\":811:909  function transferOwnership(address to) public override onlyOwner {... */\n    tag_118:\n        /* \"@chainlink/contracts/src/v0.8/shared/access/ConfirmedOwnerWithProposal.sol\":1941:1961  _validateOwnership() */\n      tag_217\n        /* \"@chainlink/contracts/src/v0.8/shared/access/ConfirmedOwnerWithProposal.sol\":1941:1959  _validateOwnership */\n      tag_131\n        /* \"@chainlink/contracts/src/v0.8/shared/access/ConfirmedOwnerWithProposal.sol\":1941:1961  _validateOwnership() */\n      jump\t// in\n    tag_217:\n        /* \"@chainlink/contracts/src/v0.8/shared/access/ConfirmedOwnerWithProposal.sol\":882:904  _transferOwnership(to) */\n      tag_219\n        /* \"@chainlink/contracts/src/v0.8/shared/access/ConfirmedOwnerWithProposal.sol\":901:903  to */\n      dup2\n        /* \"@chainlink/contracts/src/v0.8/shared/access/ConfirmedOwnerWithProposal.sol\":882:900  _transferOwnership */\n      tag_220\n        /* \"@chainlink/contracts/src/v0.8/shared/access/ConfirmedOwnerWithProposal.sol\":882:904  _transferOwnership(to) */\n      jump\t// in\n    tag_219:\n        /* \"@chainlink/contracts/src/v0.8/shared/access/ConfirmedOwnerWithProposal.sol\":811:909  function transferOwnership(address to) public override onlyOwner {... */\n      pop\n      jump\t// out\n        /* \"coqfighttestnet.sol\":1367:1395  uint256 public lastRequestId */\n    tag_121:\n      sload(0x07)\n      dup2\n      jump\t// out\n        /* \"coqfighttestnet.sol\":11855:12278  function fulfillRandomWords(... */\n    tag_128:\n        /* \"coqfighttestnet.sol\":11992:12002  s_requests */\n      0x0a\n        /* \"coqfighttestnet.sol\":11992:12014  s_requests[_requestId] */\n      0x00\n        /* \"coqfighttestnet.sol\":12003:12013  _requestId */\n      dup4\n        /* \"coqfighttestnet.sol\":11992:12014  s_requests[_requestId] */\n      dup2\n      mstore\n      0x20\n      add\n      swap1\n      dup2\n      mstore\n      0x20\n      add\n      0x00\n      keccak256\n        /* \"coqfighttestnet.sol\":11992:12021  s_requests[_requestId].exists */\n      0x00\n      add\n      0x01\n      swap1\n      sload\n      swap1\n      0x0100\n      exp\n      swap1\n      div\n      0xff\n      and\n        /* \"coqfighttestnet.sol\":11984:12043  require(s_requests[_requestId].exists, \"request not found\") */\n      tag_222\n      jumpi\n      mload(0x40)\n      0x08c379a000000000000000000000000000000000000000000000000000000000\n      dup2\n      mstore\n      0x04\n      add\n      tag_223\n      swap1\n      tag_189\n      jump\t// in\n    tag_223:\n      mload(0x40)\n      dup1\n      swap2\n      sub\n      swap1\n      revert\n    tag_222:\n        /* \"coqfighttestnet.sol\":12088:12092  true */\n      0x01\n        /* \"coqfighttestnet.sol\":12053:12063  s_requests */\n      0x0a\n        /* \"coqfighttestnet.sol\":12053:12075  s_requests[_requestId] */\n      0x00\n        /* \"coqfighttestnet.sol\":12064:12074  _requestId */\n      dup5\n        /* \"coqfighttestnet.sol\":12053:12075  s_requests[_requestId] */\n      dup2\n      mstore\n      0x20\n      add\n      swap1\n      dup2\n      mstore\n      0x20\n      add\n      0x00\n      keccak256\n        /* \"coqfighttestnet.sol\":12053:12085  s_requests[_requestId].fulfilled */\n      0x00\n      add\n      0x00\n        /* \"coqfighttestnet.sol\":12053:12092  s_requests[_requestId].fulfilled = true */\n      0x0100\n      exp\n      dup2\n      sload\n      dup2\n      0xff\n      mul\n      not\n      and\n      swap1\n      dup4\n      iszero\n      iszero\n      mul\n      or\n      swap1\n      sstore\n      pop\n        /* \"coqfighttestnet.sol\":12139:12151  _randomWords */\n      dup1\n        /* \"coqfighttestnet.sol\":12102:12112  s_requests */\n      0x0a\n        /* \"coqfighttestnet.sol\":12102:12124  s_requests[_requestId] */\n      0x00\n        /* \"coqfighttestnet.sol\":12113:12123  _requestId */\n      dup5\n        /* \"coqfighttestnet.sol\":12102:12124  s_requests[_requestId] */\n      dup2\n      mstore\n      0x20\n      add\n      swap1\n      dup2\n      mstore\n      0x20\n      add\n      0x00\n      keccak256\n        /* \"coqfighttestnet.sol\":12102:12136  s_requests[_requestId].randomWords */\n      0x01\n      add\n        /* \"coqfighttestnet.sol\":12102:12151  s_requests[_requestId].randomWords = _randomWords */\n      swap1\n      dup1\n      mload\n      swap1\n      0x20\n      add\n      swap1\n      tag_224\n      swap3\n      swap2\n      swap1\n      tag_225\n      jump\t// in\n    tag_224:\n      pop\n        /* \"coqfighttestnet.sol\":12229:12271  RequestFulfilled(_requestId, _randomWords) */\n      0xfe2e2d779dba245964d4e3ef9b994be63856fd568bf7d3ca9e224755cb1bd54d\n        /* \"coqfighttestnet.sol\":12246:12256  _requestId */\n      dup3\n        /* \"coqfighttestnet.sol\":12258:12270  _randomWords */\n      dup3\n        /* \"coqfighttestnet.sol\":12229:12271  RequestFulfilled(_requestId, _randomWords) */\n      mload(0x40)\n      tag_226\n      swap3\n      swap2\n      swap1\n      tag_227\n      jump\t// in\n    tag_226:\n      mload(0x40)\n      dup1\n      swap2\n      sub\n      swap1\n      log1\n        /* \"coqfighttestnet.sol\":11855:12278  function fulfillRandomWords(... */\n      pop\n      pop\n      jump\t// out\n        /* \"@chainlink/contracts/src/v0.8/shared/access/ConfirmedOwnerWithProposal.sol\":1715:1826  function _validateOwnership() internal view {... */\n    tag_131:\n        /* \"@chainlink/contracts/src/v0.8/shared/access/ConfirmedOwnerWithProposal.sol\":1787:1794  s_owner */\n      0x00\n      dup1\n      sload\n      swap1\n      0x0100\n      exp\n      swap1\n      div\n      0xffffffffffffffffffffffffffffffffffffffff\n      and\n        /* \"@chainlink/contracts/src/v0.8/shared/access/ConfirmedOwnerWithProposal.sol\":1773:1794  msg.sender == s_owner */\n      0xffffffffffffffffffffffffffffffffffffffff\n      and\n        /* \"@chainlink/contracts/src/v0.8/shared/access/ConfirmedOwnerWithProposal.sol\":1773:1783  msg.sender */\n      caller\n        /* \"@chainlink/contracts/src/v0.8/shared/access/ConfirmedOwnerWithProposal.sol\":1773:1794  msg.sender == s_owner */\n      0xffffffffffffffffffffffffffffffffffffffff\n      and\n      eq\n        /* \"@chainlink/contracts/src/v0.8/shared/access/ConfirmedOwnerWithProposal.sol\":1765:1821  require(msg.sender == s_owner, \"Only callable by owner\") */\n      tag_229\n      jumpi\n      mload(0x40)\n      0x08c379a000000000000000000000000000000000000000000000000000000000\n      dup2\n      mstore\n      0x04\n      add\n      tag_230\n      swap1\n      tag_231\n      jump\t// in\n    tag_230:\n      mload(0x40)\n      dup1\n      swap2\n      sub\n      swap1\n      revert\n    tag_229:\n        /* \"@chainlink/contracts/src/v0.8/shared/access/ConfirmedOwnerWithProposal.sol\":1715:1826  function _validateOwnership() internal view {... */\n      jump\t// out\n        /* \"@openzeppelin/contracts/utils/math/SafeMath.sol\":3465:3561  function mul(uint256 a, uint256 b) internal pure returns (uint256) {... */\n    tag_148:\n        /* \"@openzeppelin/contracts/utils/math/SafeMath.sol\":3523:3530  uint256 */\n      0x00\n        /* \"@openzeppelin/contracts/utils/math/SafeMath.sol\":3553:3554  b */\n      dup2\n        /* \"@openzeppelin/contracts/utils/math/SafeMath.sol\":3549:3550  a */\n      dup4\n        /* \"@openzeppelin/contracts/utils/math/SafeMath.sol\":3549:3554  a * b */\n      tag_233\n      swap2\n      swap1\n      tag_234\n      jump\t// in\n    tag_233:\n        /* \"@openzeppelin/contracts/utils/math/SafeMath.sol\":3542:3554  return a * b */\n      swap1\n      pop\n        /* \"@openzeppelin/contracts/utils/math/SafeMath.sol\":3465:3561  function mul(uint256 a, uint256 b) internal pure returns (uint256) {... */\n      swap3\n      swap2\n      pop\n      pop\n      jump\t// out\n        /* \"coqfighttestnet.sol\":8938:9381  function _removeGameFromActiveList(uint256 _gameId) internal {... */\n    tag_152:\n        /* \"coqfighttestnet.sol\":9014:9023  uint256 i */\n      0x00\n        /* \"coqfighttestnet.sol\":9009:9375  for (uint256 i = 0; i < activeGameIds.length; i++) {... */\n    tag_236:\n        /* \"coqfighttestnet.sol\":9033:9046  activeGameIds */\n      0x03\n        /* \"coqfighttestnet.sol\":9033:9053  activeGameIds.length */\n      dup1\n      sload\n      swap1\n      pop\n        /* \"coqfighttestnet.sol\":9029:9030  i */\n      dup2\n        /* \"coqfighttestnet.sol\":9029:9053  i < activeGameIds.length */\n      lt\n        /* \"coqfighttestnet.sol\":9009:9375  for (uint256 i = 0; i < activeGameIds.length; i++) {... */\n      iszero\n      tag_237\n      jumpi\n        /* \"coqfighttestnet.sol\":9098:9105  _gameId */\n      dup2\n        /* \"coqfighttestnet.sol\":9078:9091  activeGameIds */\n      0x03\n        /* \"coqfighttestnet.sol\":9092:9093  i */\n      dup3\n        /* \"coqfighttestnet.sol\":9078:9094  activeGameIds[i] */\n      dup2\n      sload\n      dup2\n      lt\n      tag_239\n      jumpi\n      tag_240\n      tag_142\n      jump\t// in\n    tag_240:\n    tag_239:\n      swap1\n      0x00\n      mstore\n      keccak256(0x00, 0x20)\n      add\n      sload\n        /* \"coqfighttestnet.sol\":9078:9105  activeGameIds[i] == _gameId */\n      sub\n        /* \"coqfighttestnet.sol\":9074:9365  if (activeGameIds[i] == _gameId) {... */\n      tag_242\n      jumpi\n        /* \"coqfighttestnet.sol\":9251:9264  activeGameIds */\n      0x03\n        /* \"coqfighttestnet.sol\":9288:9289  1 */\n      0x01\n        /* \"coqfighttestnet.sol\":9265:9278  activeGameIds */\n      0x03\n        /* \"coqfighttestnet.sol\":9265:9285  activeGameIds.length */\n      dup1\n      sload\n      swap1\n      pop\n        /* \"coqfighttestnet.sol\":9265:9289  activeGameIds.length - 1 */\n      tag_243\n      swap2\n      swap1\n      tag_244\n      jump\t// in\n    tag_243:\n        /* \"coqfighttestnet.sol\":9251:9290  activeGameIds[activeGameIds.length - 1] */\n      dup2\n      sload\n      dup2\n      lt\n      tag_245\n      jumpi\n      tag_246\n      tag_142\n      jump\t// in\n    tag_246:\n    tag_245:\n      swap1\n      0x00\n      mstore\n      keccak256(0x00, 0x20)\n      add\n      sload\n        /* \"coqfighttestnet.sol\":9232:9245  activeGameIds */\n      0x03\n        /* \"coqfighttestnet.sol\":9246:9247  i */\n      dup3\n        /* \"coqfighttestnet.sol\":9232:9248  activeGameIds[i] */\n      dup2\n      sload\n      dup2\n      lt\n      tag_248\n      jumpi\n      tag_249\n      tag_142\n      jump\t// in\n    tag_249:\n    tag_248:\n      swap1\n      0x00\n      mstore\n      keccak256(0x00, 0x20)\n      add\n        /* \"coqfighttestnet.sol\":9232:9290  activeGameIds[i] = activeGameIds[activeGameIds.length - 1] */\n      dup2\n      swap1\n      sstore\n      pop\n        /* \"coqfighttestnet.sol\":9308:9321  activeGameIds */\n      0x03\n        /* \"coqfighttestnet.sol\":9308:9327  activeGameIds.pop() */\n      dup1\n      sload\n      dup1\n      tag_251\n      jumpi\n      tag_252\n      tag_253\n      jump\t// in\n    tag_252:\n    tag_251:\n      0x01\n      swap1\n      sub\n      dup2\n      dup2\n      swap1\n      0x00\n      mstore\n      keccak256(0x00, 0x20)\n      add\n      0x00\n      swap1\n      sstore\n      swap1\n      sstore\n        /* \"coqfighttestnet.sol\":9345:9350  break */\n      jump(tag_237)\n        /* \"coqfighttestnet.sol\":9074:9365  if (activeGameIds[i] == _gameId) {... */\n    tag_242:\n        /* \"coqfighttestnet.sol\":9055:9058  i++ */\n      dup1\n      dup1\n      0x01\n      add\n      swap2\n      pop\n      pop\n        /* \"coqfighttestnet.sol\":9009:9375  for (uint256 i = 0; i < activeGameIds.length; i++) {... */\n      jump(tag_236)\n    tag_237:\n      pop\n        /* \"coqfighttestnet.sol\":8938:9381  function _removeGameFromActiveList(uint256 _gameId) internal {... */\n      pop\n      jump\t// out\n        /* \"coqfighttestnet.sol\":9466:9623  function _generateGameId() private returns (uint256) {... */\n    tag_197:\n        /* \"coqfighttestnet.sol\":9510:9517  uint256 */\n      0x00\n        /* \"coqfighttestnet.sol\":9571:9586  block.timestamp */\n      timestamp\n        /* \"coqfighttestnet.sol\":9588:9598  msg.sender */\n      caller\n        /* \"coqfighttestnet.sol\":9600:9611  gameCounter */\n      0x02\n      0x00\n        /* \"coqfighttestnet.sol\":9600:9613  gameCounter++ */\n      dup2\n      sload\n      dup1\n      swap3\n      swap2\n      swap1\n      tag_256\n      swap1\n      tag_257\n      jump\t// in\n    tag_256:\n      swap2\n      swap1\n      pop\n      sstore\n        /* \"coqfighttestnet.sol\":9554:9614  abi.encodePacked(block.timestamp, msg.sender, gameCounter++) */\n      add(0x20, mload(0x40))\n      tag_258\n      swap4\n      swap3\n      swap2\n      swap1\n      tag_259\n      jump\t// in\n    tag_258:\n      mload(0x40)\n      0x20\n      dup2\n      dup4\n      sub\n      sub\n      dup2\n      mstore\n      swap1\n      0x40\n      mstore\n        /* \"coqfighttestnet.sol\":9544:9615  keccak256(abi.encodePacked(block.timestamp, msg.sender, gameCounter++)) */\n      dup1\n      mload\n      swap1\n      0x20\n      add\n      keccak256\n        /* \"coqfighttestnet.sol\":9536:9616  uint256(keccak256(abi.encodePacked(block.timestamp, msg.sender, gameCounter++))) */\n      0x00\n      shr\n        /* \"coqfighttestnet.sol\":9529:9616  return uint256(keccak256(abi.encodePacked(block.timestamp, msg.sender, gameCounter++))) */\n      swap1\n      pop\n        /* \"coqfighttestnet.sol\":9466:9623  function _generateGameId() private returns (uint256) {... */\n      swap1\n      jump\t// out\n        /* \"coqfighttestnet.sol\":11208:11849  function requestRandomWords() internal returns (uint256 requestId)... */\n    tag_215:\n        /* \"coqfighttestnet.sol\":11256:11273  uint256 requestId */\n      0x00\n        /* \"coqfighttestnet.sol\":11363:11374  COORDINATOR */\n      0x0b\n      0x00\n      swap1\n      sload\n      swap1\n      0x0100\n      exp\n      swap1\n      div\n      0xffffffffffffffffffffffffffffffffffffffff\n      and\n        /* \"coqfighttestnet.sol\":11363:11393  COORDINATOR.requestRandomWords */\n      0xffffffffffffffffffffffffffffffffffffffff\n      and\n      0x5d3b1d30\n        /* \"coqfighttestnet.sol\":11407:11414  keyHash */\n      sload(0x08)\n        /* \"coqfighttestnet.sol\":11428:11444  s_subscriptionId */\n      0x05\n      0x14\n      swap1\n      sload\n      swap1\n      0x0100\n      exp\n      swap1\n      div\n      0xffffffffffffffff\n      and\n        /* \"coqfighttestnet.sol\":11458:11478  requestConfirmations */\n      0x09\n      0x04\n      swap1\n      sload\n      swap1\n      0x0100\n      exp\n      swap1\n      div\n      0xffff\n      and\n        /* \"coqfighttestnet.sol\":11492:11508  callbackGasLimit */\n      0x09\n      0x00\n      swap1\n      sload\n      swap1\n      0x0100\n      exp\n      swap1\n      div\n      0xffffffff\n      and\n        /* \"coqfighttestnet.sol\":11522:11530  numWords */\n      0x09\n      0x06\n      swap1\n      sload\n      swap1\n      0x0100\n      exp\n      swap1\n      div\n      0xffffffff\n      and\n        /* \"coqfighttestnet.sol\":11363:11540  COORDINATOR.requestRandomWords(... */\n      mload(0x40)\n      dup7\n      0xffffffff\n      and\n      0xe0\n      shl\n      dup2\n      mstore\n      0x04\n      add\n      tag_261\n      swap6\n      swap5\n      swap4\n      swap3\n      swap2\n      swap1\n      tag_262\n      jump\t// in\n    tag_261:\n      0x20\n      mload(0x40)\n      dup1\n      dup4\n      sub\n      dup2\n      0x00\n      dup8\n      gas\n      call\n      iszero\n      dup1\n      iszero\n      tag_264\n      jumpi\n      returndatasize\n      0x00\n      dup1\n      returndatacopy\n      revert(0x00, returndatasize)\n    tag_264:\n      pop\n      pop\n      pop\n      pop\n      mload(0x40)\n      returndatasize\n      not(0x1f)\n      0x1f\n      dup3\n      add\n      and\n      dup3\n      add\n      dup1\n      0x40\n      mstore\n      pop\n      dup2\n      add\n      swap1\n      tag_265\n      swap2\n      swap1\n      tag_266\n      jump\t// in\n    tag_265:\n        /* \"coqfighttestnet.sol\":11351:11540  requestId = COORDINATOR.requestRandomWords(... */\n      swap1\n      pop\n        /* \"coqfighttestnet.sol\":11574:11698  RequestStatus({... */\n      mload(0x40)\n      dup1\n      0x60\n      add\n      0x40\n      mstore\n      dup1\n        /* \"coqfighttestnet.sol\":11682:11687  false */\n      0x00\n        /* \"coqfighttestnet.sol\":11574:11698  RequestStatus({... */\n      iszero\n      iszero\n      dup2\n      mstore\n      0x20\n      add\n        /* \"coqfighttestnet.sol\":11653:11657  true */\n      0x01\n        /* \"coqfighttestnet.sol\":11574:11698  RequestStatus({... */\n      iszero\n      iszero\n      dup2\n      mstore\n      0x20\n      add\n        /* \"coqfighttestnet.sol\":11629:11630  0 */\n      0x00\n        /* \"coqfighttestnet.sol\":11615:11631  new uint256[](0) */\n      0xffffffffffffffff\n      dup2\n      gt\n      iszero\n      tag_267\n      jumpi\n      tag_268\n      tag_269\n      jump\t// in\n    tag_268:\n    tag_267:\n      mload(0x40)\n      swap1\n      dup1\n      dup3\n      mstore\n      dup1\n      0x20\n      mul\n      0x20\n      add\n      dup3\n      add\n      0x40\n      mstore\n      dup1\n      iszero\n      tag_270\n      jumpi\n      dup2\n      0x20\n      add\n      0x20\n      dup3\n      mul\n      dup1\n      calldatasize\n      dup4\n      calldatacopy\n      dup1\n      dup3\n      add\n      swap2\n      pop\n      pop\n      swap1\n      pop\n    tag_270:\n      pop\n        /* \"coqfighttestnet.sol\":11574:11698  RequestStatus({... */\n      dup2\n      mstore\n      pop\n        /* \"coqfighttestnet.sol\":11550:11560  s_requests */\n      0x0a\n        /* \"coqfighttestnet.sol\":11550:11571  s_requests[requestId] */\n      0x00\n        /* \"coqfighttestnet.sol\":11561:11570  requestId */\n      dup4\n        /* \"coqfighttestnet.sol\":11550:11571  s_requests[requestId] */\n      dup2\n      mstore\n      0x20\n      add\n      swap1\n      dup2\n      mstore\n      0x20\n      add\n      0x00\n      keccak256\n        /* \"coqfighttestnet.sol\":11550:11698  s_requests[requestId] = RequestStatus({... */\n      0x00\n      dup3\n      add\n      mload\n      dup2\n      0x00\n      add\n      exp(0x0100, 0x00)\n      dup2\n      sload\n      dup2\n      0xff\n      mul\n      not\n      and\n      swap1\n      dup4\n      iszero\n      iszero\n      mul\n      or\n      swap1\n      sstore\n      pop\n      0x20\n      dup3\n      add\n      mload\n      dup2\n      0x00\n      add\n      exp(0x0100, 0x01)\n      dup2\n      sload\n      dup2\n      0xff\n      mul\n      not\n      and\n      swap1\n      dup4\n      iszero\n      iszero\n      mul\n      or\n      swap1\n      sstore\n      pop\n      0x40\n      dup3\n      add\n      mload\n      dup2\n      0x01\n      add\n      swap1\n      dup1\n      mload\n      swap1\n      0x20\n      add\n      swap1\n      tag_271\n      swap3\n      swap2\n      swap1\n      tag_225\n      jump\t// in\n    tag_271:\n      pop\n      swap1\n      pop\n      pop\n        /* \"coqfighttestnet.sol\":11708:11718  requestIds */\n      0x06\n        /* \"coqfighttestnet.sol\":11724:11733  requestId */\n      dup2\n        /* \"coqfighttestnet.sol\":11708:11734  requestIds.push(requestId) */\n      swap1\n      dup1\n      0x01\n      dup2\n      sload\n      add\n      dup1\n      dup3\n      sstore\n      dup1\n      swap2\n      pop\n      pop\n      0x01\n      swap1\n      sub\n      swap1\n      0x00\n      mstore\n      keccak256(0x00, 0x20)\n      add\n      0x00\n      swap1\n      swap2\n      swap1\n      swap2\n      swap1\n      swap2\n      pop\n      sstore\n        /* \"coqfighttestnet.sol\":11760:11769  requestId */\n      dup1\n        /* \"coqfighttestnet.sol\":11744:11757  lastRequestId */\n      0x07\n        /* \"coqfighttestnet.sol\":11744:11769  lastRequestId = requestId */\n      dup2\n      swap1\n      sstore\n      pop\n        /* \"coqfighttestnet.sol\":11784:11816  RequestSent(requestId, numWords) */\n      0xcc58b13ad3eab50626c6a6300b1d139cd6ebb1688a7cced9461c2f7e762665ee\n        /* \"coqfighttestnet.sol\":11796:11805  requestId */\n      dup2\n        /* \"coqfighttestnet.sol\":11807:11815  numWords */\n      0x09\n      0x06\n      swap1\n      sload\n      swap1\n      0x0100\n      exp\n      swap1\n      div\n      0xffffffff\n      and\n        /* \"coqfighttestnet.sol\":11784:11816  RequestSent(requestId, numWords) */\n      mload(0x40)\n      tag_273\n      swap3\n      swap2\n      swap1\n      tag_274\n      jump\t// in\n    tag_273:\n      mload(0x40)\n      dup1\n      swap2\n      sub\n      swap1\n      log1\n        /* \"coqfighttestnet.sol\":11208:11849  function requestRandomWords() internal returns (uint256 requestId)... */\n      swap1\n      jump\t// out\n        /* \"@chainlink/contracts/src/v0.8/shared/access/ConfirmedOwnerWithProposal.sol\":1482:1670  function _transferOwnership(address to) private {... */\n    tag_220:\n        /* \"@chainlink/contracts/src/v0.8/shared/access/ConfirmedOwnerWithProposal.sol\":1550:1560  msg.sender */\n      caller\n        /* \"@chainlink/contracts/src/v0.8/shared/access/ConfirmedOwnerWithProposal.sol\":1544:1560  to != msg.sender */\n      0xffffffffffffffffffffffffffffffffffffffff\n      and\n        /* \"@chainlink/contracts/src/v0.8/shared/access/ConfirmedOwnerWithProposal.sol\":1544:1546  to */\n      dup2\n        /* \"@chainlink/contracts/src/v0.8/shared/access/ConfirmedOwnerWithProposal.sol\":1544:1560  to != msg.sender */\n      0xffffffffffffffffffffffffffffffffffffffff\n      and\n      sub\n        /* \"@chainlink/contracts/src/v0.8/shared/access/ConfirmedOwnerWithProposal.sol\":1536:1588  require(to != msg.sender, \"Cannot transfer to self\") */\n      tag_276\n      jumpi\n      mload(0x40)\n      0x08c379a000000000000000000000000000000000000000000000000000000000\n      dup2\n      mstore\n      0x04\n      add\n      tag_277\n      swap1\n      tag_278\n      jump\t// in\n    tag_277:\n      mload(0x40)\n      dup1\n      swap2\n      sub\n      swap1\n      revert\n    tag_276:\n        /* \"@chainlink/contracts/src/v0.8/shared/access/ConfirmedOwnerWithProposal.sol\":1612:1614  to */\n      dup1\n        /* \"@chainlink/contracts/src/v0.8/shared/access/ConfirmedOwnerWithProposal.sol\":1595:1609  s_pendingOwner */\n      0x01\n      0x00\n        /* \"@chainlink/contracts/src/v0.8/shared/access/ConfirmedOwnerWithProposal.sol\":1595:1614  s_pendingOwner = to */\n      0x0100\n      exp\n      dup2\n      sload\n      dup2\n      0xffffffffffffffffffffffffffffffffffffffff\n      mul\n      not\n      and\n      swap1\n      dup4\n      0xffffffffffffffffffffffffffffffffffffffff\n      and\n      mul\n      or\n      swap1\n      sstore\n      pop\n        /* \"@chainlink/contracts/src/v0.8/shared/access/ConfirmedOwnerWithProposal.sol\":1662:1664  to */\n      dup1\n        /* \"@chainlink/contracts/src/v0.8/shared/access/ConfirmedOwnerWithProposal.sol\":1626:1665  OwnershipTransferRequested(s_owner, to) */\n      0xffffffffffffffffffffffffffffffffffffffff\n      and\n        /* \"@chainlink/contracts/src/v0.8/shared/access/ConfirmedOwnerWithProposal.sol\":1653:1660  s_owner */\n      0x00\n      dup1\n      sload\n      swap1\n      0x0100\n      exp\n      swap1\n      div\n      0xffffffffffffffffffffffffffffffffffffffff\n      and\n        /* \"@chainlink/contracts/src/v0.8/shared/access/ConfirmedOwnerWithProposal.sol\":1626:1665  OwnershipTransferRequested(s_owner, to) */\n      0xffffffffffffffffffffffffffffffffffffffff\n      and\n      0xed8889f560326eb138920d842192f0eb3dd22b4f139c87a2c57538e05bae1278\n      mload(0x40)\n      mload(0x40)\n      dup1\n      swap2\n      sub\n      swap1\n      log3\n        /* \"@chainlink/contracts/src/v0.8/shared/access/ConfirmedOwnerWithProposal.sol\":1482:1670  function _transferOwnership(address to) private {... */\n      pop\n      jump\t// out\n    tag_225:\n      dup3\n      dup1\n      sload\n      dup3\n      dup3\n      sstore\n      swap1\n      0x00\n      mstore\n      keccak256(0x00, 0x20)\n      swap1\n      dup2\n      add\n      swap3\n      dup3\n      iszero\n      tag_279\n      jumpi\n      swap2\n      0x20\n      mul\n      dup3\n      add\n    tag_280:\n      dup3\n      dup2\n      gt\n      iszero\n      tag_281\n      jumpi\n      dup3\n      mload\n      dup3\n      sstore\n      swap2\n      0x20\n      add\n      swap2\n      swap1\n      0x01\n      add\n      swap1\n      jump(tag_280)\n    tag_281:\n    tag_279:\n      pop\n      swap1\n      pop\n      tag_282\n      swap2\n      swap1\n      tag_283\n      jump\t// in\n    tag_282:\n      pop\n      swap1\n      jump\t// out\n    tag_283:\n    tag_284:\n      dup1\n      dup3\n      gt\n      iszero\n      tag_285\n      jumpi\n      0x00\n      dup2\n      0x00\n      swap1\n      sstore\n      pop\n      0x01\n      add\n      jump(tag_284)\n    tag_285:\n      pop\n      swap1\n      jump\t// out\n        /* \"#utility.yul\":7:82   */\n    tag_286:\n        /* \"#utility.yul\":40:46   */\n      0x00\n        /* \"#utility.yul\":73:75   */\n      0x40\n        /* \"#utility.yul\":67:76   */\n      mload\n        /* \"#utility.yul\":57:76   */\n      swap1\n      pop\n        /* \"#utility.yul\":7:82   */\n      swap1\n      jump\t// out\n        /* \"#utility.yul\":88:205   */\n    tag_287:\n        /* \"#utility.yul\":197:198   */\n      0x00\n        /* \"#utility.yul\":194:195   */\n      dup1\n        /* \"#utility.yul\":187:199   */\n      revert\n        /* \"#utility.yul\":211:328   */\n    tag_288:\n        /* \"#utility.yul\":320:321   */\n      0x00\n        /* \"#utility.yul\":317:318   */\n      dup1\n        /* \"#utility.yul\":310:322   */\n      revert\n        /* \"#utility.yul\":334:411   */\n    tag_289:\n        /* \"#utility.yul\":371:378   */\n      0x00\n        /* \"#utility.yul\":400:405   */\n      dup2\n        /* \"#utility.yul\":389:405   */\n      swap1\n      pop\n        /* \"#utility.yul\":334:411   */\n      swap2\n      swap1\n      pop\n      jump\t// out\n        /* \"#utility.yul\":417:539   */\n    tag_290:\n        /* \"#utility.yul\":490:514   */\n      tag_365\n        /* \"#utility.yul\":508:513   */\n      dup2\n        /* \"#utility.yul\":490:514   */\n      tag_289\n      jump\t// in\n    tag_365:\n        /* \"#utility.yul\":483:488   */\n      dup2\n        /* \"#utility.yul\":480:515   */\n      eq\n        /* \"#utility.yul\":470:533   */\n      tag_366\n      jumpi\n        /* \"#utility.yul\":529:530   */\n      0x00\n        /* \"#utility.yul\":526:527   */\n      dup1\n        /* \"#utility.yul\":519:531   */\n      revert\n        /* \"#utility.yul\":470:533   */\n    tag_366:\n        /* \"#utility.yul\":417:539   */\n      pop\n      jump\t// out\n        /* \"#utility.yul\":545:684   */\n    tag_291:\n        /* \"#utility.yul\":591:596   */\n      0x00\n        /* \"#utility.yul\":629:635   */\n      dup2\n        /* \"#utility.yul\":616:636   */\n      calldataload\n        /* \"#utility.yul\":607:636   */\n      swap1\n      pop\n        /* \"#utility.yul\":645:678   */\n      tag_368\n        /* \"#utility.yul\":672:677   */\n      dup2\n        /* \"#utility.yul\":645:678   */\n      tag_290\n      jump\t// in\n    tag_368:\n        /* \"#utility.yul\":545:684   */\n      swap3\n      swap2\n      pop\n      pop\n      jump\t// out\n        /* \"#utility.yul\":690:1019   */\n    tag_29:\n        /* \"#utility.yul\":749:755   */\n      0x00\n        /* \"#utility.yul\":798:800   */\n      0x20\n        /* \"#utility.yul\":786:795   */\n      dup3\n        /* \"#utility.yul\":777:784   */\n      dup5\n        /* \"#utility.yul\":773:796   */\n      sub\n        /* \"#utility.yul\":769:801   */\n      slt\n        /* \"#utility.yul\":766:885   */\n      iszero\n      tag_370\n      jumpi\n        /* \"#utility.yul\":804:883   */\n      tag_371\n      tag_287\n      jump\t// in\n    tag_371:\n        /* \"#utility.yul\":766:885   */\n    tag_370:\n        /* \"#utility.yul\":924:925   */\n      0x00\n        /* \"#utility.yul\":949:1002   */\n      tag_372\n        /* \"#utility.yul\":994:1001   */\n      dup5\n        /* \"#utility.yul\":985:991   */\n      dup3\n        /* \"#utility.yul\":974:983   */\n      dup6\n        /* \"#utility.yul\":970:992   */\n      add\n        /* \"#utility.yul\":949:1002   */\n      tag_291\n      jump\t// in\n    tag_372:\n        /* \"#utility.yul\":939:1002   */\n      swap2\n      pop\n        /* \"#utility.yul\":895:1012   */\n      pop\n        /* \"#utility.yul\":690:1019   */\n      swap3\n      swap2\n      pop\n      pop\n      jump\t// out\n        /* \"#utility.yul\":1025:1151   */\n    tag_292:\n        /* \"#utility.yul\":1062:1069   */\n      0x00\n        /* \"#utility.yul\":1102:1144   */\n      0xffffffffffffffffffffffffffffffffffffffff\n        /* \"#utility.yul\":1095:1100   */\n      dup3\n        /* \"#utility.yul\":1091:1145   */\n      and\n        /* \"#utility.yul\":1080:1145   */\n      swap1\n      pop\n        /* \"#utility.yul\":1025:1151   */\n      swap2\n      swap1\n      pop\n      jump\t// out\n        /* \"#utility.yul\":1157:1253   */\n    tag_293:\n        /* \"#utility.yul\":1194:1201   */\n      0x00\n        /* \"#utility.yul\":1223:1247   */\n      tag_375\n        /* \"#utility.yul\":1241:1246   */\n      dup3\n        /* \"#utility.yul\":1223:1247   */\n      tag_292\n      jump\t// in\n    tag_375:\n        /* \"#utility.yul\":1212:1247   */\n      swap1\n      pop\n        /* \"#utility.yul\":1157:1253   */\n      swap2\n      swap1\n      pop\n      jump\t// out\n        /* \"#utility.yul\":1259:1377   */\n    tag_294:\n        /* \"#utility.yul\":1346:1370   */\n      tag_377\n        /* \"#utility.yul\":1364:1369   */\n      dup2\n        /* \"#utility.yul\":1346:1370   */\n      tag_293\n      jump\t// in\n    tag_377:\n        /* \"#utility.yul\":1341:1344   */\n      dup3\n        /* \"#utility.yul\":1334:1371   */\n      mstore\n        /* \"#utility.yul\":1259:1377   */\n      pop\n      pop\n      jump\t// out\n        /* \"#utility.yul\":1383:1501   */\n    tag_295:\n        /* \"#utility.yul\":1470:1494   */\n      tag_379\n        /* \"#utility.yul\":1488:1493   */\n      dup2\n        /* \"#utility.yul\":1470:1494   */\n      tag_289\n      jump\t// in\n    tag_379:\n        /* \"#utility.yul\":1465:1468   */\n      dup3\n        /* \"#utility.yul\":1458:1495   */\n      mstore\n        /* \"#utility.yul\":1383:1501   */\n      pop\n      pop\n      jump\t// out\n        /* \"#utility.yul\":1507:1597   */\n    tag_296:\n        /* \"#utility.yul\":1541:1548   */\n      0x00\n        /* \"#utility.yul\":1584:1589   */\n      dup2\n        /* \"#utility.yul\":1577:1590   */\n      iszero\n        /* \"#utility.yul\":1570:1591   */\n      iszero\n        /* \"#utility.yul\":1559:1591   */\n      swap1\n      pop\n        /* \"#utility.yul\":1507:1597   */\n      swap2\n      swap1\n      pop\n      jump\t// out\n        /* \"#utility.yul\":1603:1712   */\n    tag_297:\n        /* \"#utility.yul\":1684:1705   */\n      tag_382\n        /* \"#utility.yul\":1699:1704   */\n      dup2\n        /* \"#utility.yul\":1684:1705   */\n      tag_296\n      jump\t// in\n    tag_382:\n        /* \"#utility.yul\":1679:1682   */\n      dup3\n        /* \"#utility.yul\":1672:1706   */\n      mstore\n        /* \"#utility.yul\":1603:1712   */\n      pop\n      pop\n      jump\t// out\n        /* \"#utility.yul\":1718:2370   */\n    tag_32:\n        /* \"#utility.yul\":1917:1921   */\n      0x00\n        /* \"#utility.yul\":1955:1958   */\n      0xa0\n        /* \"#utility.yul\":1944:1953   */\n      dup3\n        /* \"#utility.yul\":1940:1959   */\n      add\n        /* \"#utility.yul\":1932:1959   */\n      swap1\n      pop\n        /* \"#utility.yul\":1969:2040   */\n      tag_384\n        /* \"#utility.yul\":2037:2038   */\n      0x00\n        /* \"#utility.yul\":2026:2035   */\n      dup4\n        /* \"#utility.yul\":2022:2039   */\n      add\n        /* \"#utility.yul\":2013:2019   */\n      dup9\n        /* \"#utility.yul\":1969:2040   */\n      tag_294\n      jump\t// in\n    tag_384:\n        /* \"#utility.yul\":2050:2122   */\n      tag_385\n        /* \"#utility.yul\":2118:2120   */\n      0x20\n        /* \"#utility.yul\":2107:2116   */\n      dup4\n        /* \"#utility.yul\":2103:2121   */\n      add\n        /* \"#utility.yul\":2094:2100   */\n      dup8\n        /* \"#utility.yul\":2050:2122   */\n      tag_294\n      jump\t// in\n    tag_385:\n        /* \"#utility.yul\":2132:2204   */\n      tag_386\n        /* \"#utility.yul\":2200:2202   */\n      0x40\n        /* \"#utility.yul\":2189:2198   */\n      dup4\n        /* \"#utility.yul\":2185:2203   */\n      add\n        /* \"#utility.yul\":2176:2182   */\n      dup7\n        /* \"#utility.yul\":2132:2204   */\n      tag_295\n      jump\t// in\n    tag_386:\n        /* \"#utility.yul\":2214:2280   */\n      tag_387\n        /* \"#utility.yul\":2276:2278   */\n      0x60\n        /* \"#utility.yul\":2265:2274   */\n      dup4\n        /* \"#utility.yul\":2261:2279   */\n      add\n        /* \"#utility.yul\":2252:2258   */\n      dup6\n        /* \"#utility.yul\":2214:2280   */\n      tag_297\n      jump\t// in\n    tag_387:\n        /* \"#utility.yul\":2290:2363   */\n      tag_388\n        /* \"#utility.yul\":2358:2361   */\n      0x80\n        /* \"#utility.yul\":2347:2356   */\n      dup4\n        /* \"#utility.yul\":2343:2362   */\n      add\n        /* \"#utility.yul\":2334:2340   */\n      dup5\n        /* \"#utility.yul\":2290:2363   */\n      tag_294\n      jump\t// in\n    tag_388:\n        /* \"#utility.yul\":1718:2370   */\n      swap7\n      swap6\n      pop\n      pop\n      pop\n      pop\n      pop\n      pop\n      jump\t// out\n        /* \"#utility.yul\":2376:2493   */\n    tag_298:\n        /* \"#utility.yul\":2485:2486   */\n      0x00\n        /* \"#utility.yul\":2482:2483   */\n      dup1\n        /* \"#utility.yul\":2475:2487   */\n      revert\n        /* \"#utility.yul\":2499:2601   */\n    tag_299:\n        /* \"#utility.yul\":2540:2546   */\n      0x00\n        /* \"#utility.yul\":2591:2593   */\n      0x1f\n        /* \"#utility.yul\":2587:2594   */\n      not\n        /* \"#utility.yul\":2582:2584   */\n      0x1f\n        /* \"#utility.yul\":2575:2580   */\n      dup4\n        /* \"#utility.yul\":2571:2585   */\n      add\n        /* \"#utility.yul\":2567:2595   */\n      and\n        /* \"#utility.yul\":2557:2595   */\n      swap1\n      pop\n        /* \"#utility.yul\":2499:2601   */\n      swap2\n      swap1\n      pop\n      jump\t// out\n        /* \"#utility.yul\":2607:2787   */\n    tag_269:\n        /* \"#utility.yul\":2655:2732   */\n      0x4e487b7100000000000000000000000000000000000000000000000000000000\n        /* \"#utility.yul\":2652:2653   */\n      0x00\n        /* \"#utility.yul\":2645:2733   */\n      mstore\n        /* \"#utility.yul\":2752:2756   */\n      0x41\n        /* \"#utility.yul\":2749:2750   */\n      0x04\n        /* \"#utility.yul\":2742:2757   */\n      mstore\n        /* \"#utility.yul\":2776:2780   */\n      0x24\n        /* \"#utility.yul\":2773:2774   */\n      0x00\n        /* \"#utility.yul\":2766:2781   */\n      revert\n        /* \"#utility.yul\":2793:3074   */\n    tag_300:\n        /* \"#utility.yul\":2876:2903   */\n      tag_393\n        /* \"#utility.yul\":2898:2902   */\n      dup3\n        /* \"#utility.yul\":2876:2903   */\n      tag_299\n      jump\t// in\n    tag_393:\n        /* \"#utility.yul\":2868:2874   */\n      dup2\n        /* \"#utility.yul\":2864:2904   */\n      add\n        /* \"#utility.yul\":3006:3012   */\n      dup2\n        /* \"#utility.yul\":2994:3004   */\n      dup2\n        /* \"#utility.yul\":2991:3013   */\n      lt\n        /* \"#utility.yul\":2970:2988   */\n      0xffffffffffffffff\n        /* \"#utility.yul\":2958:2968   */\n      dup3\n        /* \"#utility.yul\":2955:2989   */\n      gt\n        /* \"#utility.yul\":2952:3014   */\n      or\n        /* \"#utility.yul\":2949:3037   */\n      iszero\n      tag_394\n      jumpi\n        /* \"#utility.yul\":3017:3035   */\n      tag_395\n      tag_269\n      jump\t// in\n    tag_395:\n        /* \"#utility.yul\":2949:3037   */\n    tag_394:\n        /* \"#utility.yul\":3057:3067   */\n      dup1\n        /* \"#utility.yul\":3053:3055   */\n      0x40\n        /* \"#utility.yul\":3046:3068   */\n      mstore\n        /* \"#utility.yul\":2836:3074   */\n      pop\n        /* \"#utility.yul\":2793:3074   */\n      pop\n      pop\n      jump\t// out\n        /* \"#utility.yul\":3080:3209   */\n    tag_301:\n        /* \"#utility.yul\":3114:3120   */\n      0x00\n        /* \"#utility.yul\":3141:3161   */\n      tag_397\n      tag_286\n      jump\t// in\n    tag_397:\n        /* \"#utility.yul\":3131:3161   */\n      swap1\n      pop\n        /* \"#utility.yul\":3170:3203   */\n      tag_398\n        /* \"#utility.yul\":3198:3202   */\n      dup3\n        /* \"#utility.yul\":3190:3196   */\n      dup3\n        /* \"#utility.yul\":3170:3203   */\n      tag_300\n      jump\t// in\n    tag_398:\n        /* \"#utility.yul\":3080:3209   */\n      swap2\n      swap1\n      pop\n      jump\t// out\n        /* \"#utility.yul\":3215:3526   */\n    tag_302:\n        /* \"#utility.yul\":3292:3296   */\n      0x00\n        /* \"#utility.yul\":3382:3400   */\n      0xffffffffffffffff\n        /* \"#utility.yul\":3374:3380   */\n      dup3\n        /* \"#utility.yul\":3371:3401   */\n      gt\n        /* \"#utility.yul\":3368:3424   */\n      iszero\n      tag_400\n      jumpi\n        /* \"#utility.yul\":3404:3422   */\n      tag_401\n      tag_269\n      jump\t// in\n    tag_401:\n        /* \"#utility.yul\":3368:3424   */\n    tag_400:\n        /* \"#utility.yul\":3454:3458   */\n      0x20\n        /* \"#utility.yul\":3446:3452   */\n      dup3\n        /* \"#utility.yul\":3442:3459   */\n      mul\n        /* \"#utility.yul\":3434:3459   */\n      swap1\n      pop\n        /* \"#utility.yul\":3514:3518   */\n      0x20\n        /* \"#utility.yul\":3508:3512   */\n      dup2\n        /* \"#utility.yul\":3504:3519   */\n      add\n        /* \"#utility.yul\":3496:3519   */\n      swap1\n      pop\n        /* \"#utility.yul\":3215:3526   */\n      swap2\n      swap1\n      pop\n      jump\t// out\n        /* \"#utility.yul\":3532:3649   */\n    tag_303:\n        /* \"#utility.yul\":3641:3642   */\n      0x00\n        /* \"#utility.yul\":3638:3639   */\n      dup1\n        /* \"#utility.yul\":3631:3643   */\n      revert\n        /* \"#utility.yul\":3672:4382   */\n    tag_304:\n        /* \"#utility.yul\":3768:3773   */\n      0x00\n        /* \"#utility.yul\":3793:3874   */\n      tag_404\n        /* \"#utility.yul\":3809:3873   */\n      tag_405\n        /* \"#utility.yul\":3866:3872   */\n      dup5\n        /* \"#utility.yul\":3809:3873   */\n      tag_302\n      jump\t// in\n    tag_405:\n        /* \"#utility.yul\":3793:3874   */\n      tag_301\n      jump\t// in\n    tag_404:\n        /* \"#utility.yul\":3784:3874   */\n      swap1\n      pop\n        /* \"#utility.yul\":3894:3899   */\n      dup1\n        /* \"#utility.yul\":3923:3929   */\n      dup4\n        /* \"#utility.yul\":3916:3921   */\n      dup3\n        /* \"#utility.yul\":3909:3930   */\n      mstore\n        /* \"#utility.yul\":3957:3961   */\n      0x20\n        /* \"#utility.yul\":3950:3955   */\n      dup3\n        /* \"#utility.yul\":3946:3962   */\n      add\n        /* \"#utility.yul\":3939:3962   */\n      swap1\n      pop\n        /* \"#utility.yul\":4010:4014   */\n      0x20\n        /* \"#utility.yul\":4002:4008   */\n      dup5\n        /* \"#utility.yul\":3998:4015   */\n      mul\n        /* \"#utility.yul\":3990:3996   */\n      dup4\n        /* \"#utility.yul\":3986:4016   */\n      add\n        /* \"#utility.yul\":4039:4042   */\n      dup6\n        /* \"#utility.yul\":4031:4037   */\n      dup2\n        /* \"#utility.yul\":4028:4043   */\n      gt\n        /* \"#utility.yul\":4025:4147   */\n      iszero\n      tag_406\n      jumpi\n        /* \"#utility.yul\":4058:4137   */\n      tag_407\n      tag_303\n      jump\t// in\n    tag_407:\n        /* \"#utility.yul\":4025:4147   */\n    tag_406:\n        /* \"#utility.yul\":4173:4179   */\n      dup4\n        /* \"#utility.yul\":4156:4376   */\n    tag_408:\n        /* \"#utility.yul\":4190:4196   */\n      dup2\n        /* \"#utility.yul\":4185:4188   */\n      dup2\n        /* \"#utility.yul\":4182:4197   */\n      lt\n        /* \"#utility.yul\":4156:4376   */\n      iszero\n      tag_410\n      jumpi\n        /* \"#utility.yul\":4265:4268   */\n      dup1\n        /* \"#utility.yul\":4294:4331   */\n      tag_411\n        /* \"#utility.yul\":4327:4330   */\n      dup9\n        /* \"#utility.yul\":4315:4325   */\n      dup3\n        /* \"#utility.yul\":4294:4331   */\n      tag_291\n      jump\t// in\n    tag_411:\n        /* \"#utility.yul\":4289:4292   */\n      dup5\n        /* \"#utility.yul\":4282:4332   */\n      mstore\n        /* \"#utility.yul\":4361:4365   */\n      0x20\n        /* \"#utility.yul\":4356:4359   */\n      dup5\n        /* \"#utility.yul\":4352:4366   */\n      add\n        /* \"#utility.yul\":4345:4366   */\n      swap4\n      pop\n        /* \"#utility.yul\":4232:4376   */\n      pop\n        /* \"#utility.yul\":4216:4220   */\n      0x20\n        /* \"#utility.yul\":4211:4214   */\n      dup2\n        /* \"#utility.yul\":4207:4221   */\n      add\n        /* \"#utility.yul\":4200:4221   */\n      swap1\n      pop\n        /* \"#utility.yul\":4156:4376   */\n      jump(tag_408)\n    tag_410:\n        /* \"#utility.yul\":4160:4181   */\n      pop\n        /* \"#utility.yul\":3774:4382   */\n      pop\n      pop\n        /* \"#utility.yul\":3672:4382   */\n      swap4\n      swap3\n      pop\n      pop\n      pop\n      jump\t// out\n        /* \"#utility.yul\":4405:4775   */\n    tag_305:\n        /* \"#utility.yul\":4476:4481   */\n      0x00\n        /* \"#utility.yul\":4525:4528   */\n      dup3\n        /* \"#utility.yul\":4518:4522   */\n      0x1f\n        /* \"#utility.yul\":4510:4516   */\n      dup4\n        /* \"#utility.yul\":4506:4523   */\n      add\n        /* \"#utility.yul\":4502:4529   */\n      slt\n        /* \"#utility.yul\":4492:4614   */\n      tag_413\n      jumpi\n        /* \"#utility.yul\":4533:4612   */\n      tag_414\n      tag_298\n      jump\t// in\n    tag_414:\n        /* \"#utility.yul\":4492:4614   */\n    tag_413:\n        /* \"#utility.yul\":4650:4656   */\n      dup2\n        /* \"#utility.yul\":4637:4657   */\n      calldataload\n        /* \"#utility.yul\":4675:4769   */\n      tag_415\n        /* \"#utility.yul\":4765:4768   */\n      dup5\n        /* \"#utility.yul\":4757:4763   */\n      dup3\n        /* \"#utility.yul\":4750:4754   */\n      0x20\n        /* \"#utility.yul\":4742:4748   */\n      dup7\n        /* \"#utility.yul\":4738:4755   */\n      add\n        /* \"#utility.yul\":4675:4769   */\n      tag_304\n      jump\t// in\n    tag_415:\n        /* \"#utility.yul\":4666:4769   */\n      swap2\n      pop\n        /* \"#utility.yul\":4482:4775   */\n      pop\n        /* \"#utility.yul\":4405:4775   */\n      swap3\n      swap2\n      pop\n      pop\n      jump\t// out\n        /* \"#utility.yul\":4781:5465   */\n    tag_36:\n        /* \"#utility.yul\":4874:4880   */\n      0x00\n        /* \"#utility.yul\":4882:4888   */\n      dup1\n        /* \"#utility.yul\":4931:4933   */\n      0x40\n        /* \"#utility.yul\":4919:4928   */\n      dup4\n        /* \"#utility.yul\":4910:4917   */\n      dup6\n        /* \"#utility.yul\":4906:4929   */\n      sub\n        /* \"#utility.yul\":4902:4934   */\n      slt\n        /* \"#utility.yul\":4899:5018   */\n      iszero\n      tag_417\n      jumpi\n        /* \"#utility.yul\":4937:5016   */\n      tag_418\n      tag_287\n      jump\t// in\n    tag_418:\n        /* \"#utility.yul\":4899:5018   */\n    tag_417:\n        /* \"#utility.yul\":5057:5058   */\n      0x00\n        /* \"#utility.yul\":5082:5135   */\n      tag_419\n        /* \"#utility.yul\":5127:5134   */\n      dup6\n        /* \"#utility.yul\":5118:5124   */\n      dup3\n        /* \"#utility.yul\":5107:5116   */\n      dup7\n        /* \"#utility.yul\":5103:5125   */\n      add\n        /* \"#utility.yul\":5082:5135   */\n      tag_291\n      jump\t// in\n    tag_419:\n        /* \"#utility.yul\":5072:5135   */\n      swap3\n      pop\n        /* \"#utility.yul\":5028:5145   */\n      pop\n        /* \"#utility.yul\":5212:5214   */\n      0x20\n        /* \"#utility.yul\":5201:5210   */\n      dup4\n        /* \"#utility.yul\":5197:5215   */\n      add\n        /* \"#utility.yul\":5184:5216   */\n      calldataload\n        /* \"#utility.yul\":5243:5261   */\n      0xffffffffffffffff\n        /* \"#utility.yul\":5235:5241   */\n      dup2\n        /* \"#utility.yul\":5232:5262   */\n      gt\n        /* \"#utility.yul\":5229:5346   */\n      iszero\n      tag_420\n      jumpi\n        /* \"#utility.yul\":5265:5344   */\n      tag_421\n      tag_288\n      jump\t// in\n    tag_421:\n        /* \"#utility.yul\":5229:5346   */\n    tag_420:\n        /* \"#utility.yul\":5370:5448   */\n      tag_422\n        /* \"#utility.yul\":5440:5447   */\n      dup6\n        /* \"#utility.yul\":5431:5437   */\n      dup3\n        /* \"#utility.yul\":5420:5429   */\n      dup7\n        /* \"#utility.yul\":5416:5438   */\n      add\n        /* \"#utility.yul\":5370:5448   */\n      tag_305\n      jump\t// in\n    tag_422:\n        /* \"#utility.yul\":5360:5448   */\n      swap2\n      pop\n        /* \"#utility.yul\":5155:5458   */\n      pop\n        /* \"#utility.yul\":4781:5465   */\n      swap3\n      pop\n      swap3\n      swap1\n      pop\n      jump\t// out\n        /* \"#utility.yul\":5471:5593   */\n    tag_306:\n        /* \"#utility.yul\":5544:5568   */\n      tag_424\n        /* \"#utility.yul\":5562:5567   */\n      dup2\n        /* \"#utility.yul\":5544:5568   */\n      tag_293\n      jump\t// in\n    tag_424:\n        /* \"#utility.yul\":5537:5542   */\n      dup2\n        /* \"#utility.yul\":5534:5569   */\n      eq\n        /* \"#utility.yul\":5524:5587   */\n      tag_425\n      jumpi\n        /* \"#utility.yul\":5583:5584   */\n      0x00\n        /* \"#utility.yul\":5580:5581   */\n      dup1\n        /* \"#utility.yul\":5573:5585   */\n      revert\n        /* \"#utility.yul\":5524:5587   */\n    tag_425:\n        /* \"#utility.yul\":5471:5593   */\n      pop\n      jump\t// out\n        /* \"#utility.yul\":5599:5738   */\n    tag_307:\n        /* \"#utility.yul\":5645:5650   */\n      0x00\n        /* \"#utility.yul\":5683:5689   */\n      dup2\n        /* \"#utility.yul\":5670:5690   */\n      calldataload\n        /* \"#utility.yul\":5661:5690   */\n      swap1\n      pop\n        /* \"#utility.yul\":5699:5732   */\n      tag_427\n        /* \"#utility.yul\":5726:5731   */\n      dup2\n        /* \"#utility.yul\":5699:5732   */\n      tag_306\n      jump\t// in\n    tag_427:\n        /* \"#utility.yul\":5599:5738   */\n      swap3\n      swap2\n      pop\n      pop\n      jump\t// out\n        /* \"#utility.yul\":5744:6073   */\n    tag_41:\n        /* \"#utility.yul\":5803:5809   */\n      0x00\n        /* \"#utility.yul\":5852:5854   */\n      0x20\n        /* \"#utility.yul\":5840:5849   */\n      dup3\n        /* \"#utility.yul\":5831:5838   */\n      dup5\n        /* \"#utility.yul\":5827:5850   */\n      sub\n        /* \"#utility.yul\":5823:5855   */\n      slt\n        /* \"#utility.yul\":5820:5939   */\n      iszero\n      tag_429\n      jumpi\n        /* \"#utility.yul\":5858:5937   */\n      tag_430\n      tag_287\n      jump\t// in\n    tag_430:\n        /* \"#utility.yul\":5820:5939   */\n    tag_429:\n        /* \"#utility.yul\":5978:5979   */\n      0x00\n        /* \"#utility.yul\":6003:6056   */\n      tag_431\n        /* \"#utility.yul\":6048:6055   */\n      dup5\n        /* \"#utility.yul\":6039:6045   */\n      dup3\n        /* \"#utility.yul\":6028:6037   */\n      dup6\n        /* \"#utility.yul\":6024:6046   */\n      add\n        /* \"#utility.yul\":6003:6056   */\n      tag_307\n      jump\t// in\n    tag_431:\n        /* \"#utility.yul\":5993:6056   */\n      swap2\n      pop\n        /* \"#utility.yul\":5949:6066   */\n      pop\n        /* \"#utility.yul\":5744:6073   */\n      swap3\n      swap2\n      pop\n      pop\n      jump\t// out\n        /* \"#utility.yul\":6079:6301   */\n    tag_47:\n        /* \"#utility.yul\":6172:6176   */\n      0x00\n        /* \"#utility.yul\":6210:6212   */\n      0x20\n        /* \"#utility.yul\":6199:6208   */\n      dup3\n        /* \"#utility.yul\":6195:6213   */\n      add\n        /* \"#utility.yul\":6187:6213   */\n      swap1\n      pop\n        /* \"#utility.yul\":6223:6294   */\n      tag_433\n        /* \"#utility.yul\":6291:6292   */\n      0x00\n        /* \"#utility.yul\":6280:6289   */\n      dup4\n        /* \"#utility.yul\":6276:6293   */\n      add\n        /* \"#utility.yul\":6267:6273   */\n      dup5\n        /* \"#utility.yul\":6223:6294   */\n      tag_294\n      jump\t// in\n    tag_433:\n        /* \"#utility.yul\":6079:6301   */\n      swap3\n      swap2\n      pop\n      pop\n      jump\t// out\n        /* \"#utility.yul\":6307:6421   */\n    tag_308:\n        /* \"#utility.yul\":6374:6380   */\n      0x00\n        /* \"#utility.yul\":6408:6413   */\n      dup2\n        /* \"#utility.yul\":6402:6414   */\n      mload\n        /* \"#utility.yul\":6392:6414   */\n      swap1\n      pop\n        /* \"#utility.yul\":6307:6421   */\n      swap2\n      swap1\n      pop\n      jump\t// out\n        /* \"#utility.yul\":6427:6611   */\n    tag_309:\n        /* \"#utility.yul\":6526:6537   */\n      0x00\n        /* \"#utility.yul\":6560:6566   */\n      dup3\n        /* \"#utility.yul\":6555:6558   */\n      dup3\n        /* \"#utility.yul\":6548:6567   */\n      mstore\n        /* \"#utility.yul\":6600:6604   */\n      0x20\n        /* \"#utility.yul\":6595:6598   */\n      dup3\n        /* \"#utility.yul\":6591:6605   */\n      add\n        /* \"#utility.yul\":6576:6605   */\n      swap1\n      pop\n        /* \"#utility.yul\":6427:6611   */\n      swap3\n      swap2\n      pop\n      pop\n      jump\t// out\n        /* \"#utility.yul\":6617:6749   */\n    tag_310:\n        /* \"#utility.yul\":6684:6688   */\n      0x00\n        /* \"#utility.yul\":6707:6710   */\n      dup2\n        /* \"#utility.yul\":6699:6710   */\n      swap1\n      pop\n        /* \"#utility.yul\":6737:6741   */\n      0x20\n        /* \"#utility.yul\":6732:6735   */\n      dup3\n        /* \"#utility.yul\":6728:6742   */\n      add\n        /* \"#utility.yul\":6720:6742   */\n      swap1\n      pop\n        /* \"#utility.yul\":6617:6749   */\n      swap2\n      swap1\n      pop\n      jump\t// out\n        /* \"#utility.yul\":6755:6863   */\n    tag_311:\n        /* \"#utility.yul\":6832:6856   */\n      tag_438\n        /* \"#utility.yul\":6850:6855   */\n      dup2\n        /* \"#utility.yul\":6832:6856   */\n      tag_289\n      jump\t// in\n    tag_438:\n        /* \"#utility.yul\":6827:6830   */\n      dup3\n        /* \"#utility.yul\":6820:6857   */\n      mstore\n        /* \"#utility.yul\":6755:6863   */\n      pop\n      pop\n      jump\t// out\n        /* \"#utility.yul\":6869:7048   */\n    tag_312:\n        /* \"#utility.yul\":6938:6948   */\n      0x00\n        /* \"#utility.yul\":6959:7005   */\n      tag_440\n        /* \"#utility.yul\":7001:7004   */\n      dup4\n        /* \"#utility.yul\":6993:6999   */\n      dup4\n        /* \"#utility.yul\":6959:7005   */\n      tag_311\n      jump\t// in\n    tag_440:\n        /* \"#utility.yul\":7037:7041   */\n      0x20\n        /* \"#utility.yul\":7032:7035   */\n      dup4\n        /* \"#utility.yul\":7028:7042   */\n      add\n        /* \"#utility.yul\":7014:7042   */\n      swap1\n      pop\n        /* \"#utility.yul\":6869:7048   */\n      swap3\n      swap2\n      pop\n      pop\n      jump\t// out\n        /* \"#utility.yul\":7054:7167   */\n    tag_313:\n        /* \"#utility.yul\":7124:7128   */\n      0x00\n        /* \"#utility.yul\":7156:7160   */\n      0x20\n        /* \"#utility.yul\":7151:7154   */\n      dup3\n        /* \"#utility.yul\":7147:7161   */\n      add\n        /* \"#utility.yul\":7139:7161   */\n      swap1\n      pop\n        /* \"#utility.yul\":7054:7167   */\n      swap2\n      swap1\n      pop\n      jump\t// out\n        /* \"#utility.yul\":7203:7935   */\n    tag_314:\n        /* \"#utility.yul\":7322:7325   */\n      0x00\n        /* \"#utility.yul\":7351:7405   */\n      tag_443\n        /* \"#utility.yul\":7399:7404   */\n      dup3\n        /* \"#utility.yul\":7351:7405   */\n      tag_308\n      jump\t// in\n    tag_443:\n        /* \"#utility.yul\":7421:7507   */\n      tag_444\n        /* \"#utility.yul\":7500:7506   */\n      dup2\n        /* \"#utility.yul\":7495:7498   */\n      dup6\n        /* \"#utility.yul\":7421:7507   */\n      tag_309\n      jump\t// in\n    tag_444:\n        /* \"#utility.yul\":7414:7507   */\n      swap4\n      pop\n        /* \"#utility.yul\":7531:7587   */\n      tag_445\n        /* \"#utility.yul\":7581:7586   */\n      dup4\n        /* \"#utility.yul\":7531:7587   */\n      tag_310\n      jump\t// in\n    tag_445:\n        /* \"#utility.yul\":7610:7617   */\n      dup1\n        /* \"#utility.yul\":7641:7642   */\n      0x00\n        /* \"#utility.yul\":7626:7910   */\n    tag_446:\n        /* \"#utility.yul\":7651:7657   */\n      dup4\n        /* \"#utility.yul\":7648:7649   */\n      dup2\n        /* \"#utility.yul\":7645:7658   */\n      lt\n        /* \"#utility.yul\":7626:7910   */\n      iszero\n      tag_448\n      jumpi\n        /* \"#utility.yul\":7727:7733   */\n      dup2\n        /* \"#utility.yul\":7721:7734   */\n      mload\n        /* \"#utility.yul\":7754:7817   */\n      tag_449\n        /* \"#utility.yul\":7813:7816   */\n      dup9\n        /* \"#utility.yul\":7798:7811   */\n      dup3\n        /* \"#utility.yul\":7754:7817   */\n      tag_312\n      jump\t// in\n    tag_449:\n        /* \"#utility.yul\":7747:7817   */\n      swap8\n      pop\n        /* \"#utility.yul\":7840:7900   */\n      tag_450\n        /* \"#utility.yul\":7893:7899   */\n      dup4\n        /* \"#utility.yul\":7840:7900   */\n      tag_313\n      jump\t// in\n    tag_450:\n        /* \"#utility.yul\":7830:7900   */\n      swap3\n      pop\n        /* \"#utility.yul\":7686:7910   */\n      pop\n        /* \"#utility.yul\":7673:7674   */\n      0x01\n        /* \"#utility.yul\":7670:7671   */\n      dup2\n        /* \"#utility.yul\":7666:7675   */\n      add\n        /* \"#utility.yul\":7661:7675   */\n      swap1\n      pop\n        /* \"#utility.yul\":7626:7910   */\n      jump(tag_446)\n    tag_448:\n        /* \"#utility.yul\":7630:7644   */\n      pop\n        /* \"#utility.yul\":7926:7929   */\n      dup6\n        /* \"#utility.yul\":7919:7929   */\n      swap4\n      pop\n        /* \"#utility.yul\":7327:7935   */\n      pop\n      pop\n      pop\n        /* \"#utility.yul\":7203:7935   */\n      swap3\n      swap2\n      pop\n      pop\n      jump\t// out\n        /* \"#utility.yul\":7941:8314   */\n    tag_56:\n        /* \"#utility.yul\":8084:8088   */\n      0x00\n        /* \"#utility.yul\":8122:8124   */\n      0x20\n        /* \"#utility.yul\":8111:8120   */\n      dup3\n        /* \"#utility.yul\":8107:8125   */\n      add\n        /* \"#utility.yul\":8099:8125   */\n      swap1\n      pop\n        /* \"#utility.yul\":8171:8180   */\n      dup2\n        /* \"#utility.yul\":8165:8169   */\n      dup2\n        /* \"#utility.yul\":8161:8181   */\n      sub\n        /* \"#utility.yul\":8157:8158   */\n      0x00\n        /* \"#utility.yul\":8146:8155   */\n      dup4\n        /* \"#utility.yul\":8142:8159   */\n      add\n        /* \"#utility.yul\":8135:8182   */\n      mstore\n        /* \"#utility.yul\":8199:8307   */\n      tag_452\n        /* \"#utility.yul\":8302:8306   */\n      dup2\n        /* \"#utility.yul\":8293:8299   */\n      dup5\n        /* \"#utility.yul\":8199:8307   */\n      tag_314\n      jump\t// in\n    tag_452:\n        /* \"#utility.yul\":8191:8307   */\n      swap1\n      pop\n        /* \"#utility.yul\":7941:8314   */\n      swap3\n      swap2\n      pop\n      pop\n      jump\t// out\n        /* \"#utility.yul\":8320:8542   */\n    tag_73:\n        /* \"#utility.yul\":8413:8417   */\n      0x00\n        /* \"#utility.yul\":8451:8453   */\n      0x20\n        /* \"#utility.yul\":8440:8449   */\n      dup3\n        /* \"#utility.yul\":8436:8454   */\n      add\n        /* \"#utility.yul\":8428:8454   */\n      swap1\n      pop\n        /* \"#utility.yul\":8464:8535   */\n      tag_454\n        /* \"#utility.yul\":8532:8533   */\n      0x00\n        /* \"#utility.yul\":8521:8530   */\n      dup4\n        /* \"#utility.yul\":8517:8534   */\n      add\n        /* \"#utility.yul\":8508:8514   */\n      dup5\n        /* \"#utility.yul\":8464:8535   */\n      tag_295\n      jump\t// in\n    tag_454:\n        /* \"#utility.yul\":8320:8542   */\n      swap3\n      swap2\n      pop\n      pop\n      jump\t// out\n        /* \"#utility.yul\":8548:8641   */\n    tag_315:\n        /* \"#utility.yul\":8584:8591   */\n      0x00\n        /* \"#utility.yul\":8624:8634   */\n      0xffffffff\n        /* \"#utility.yul\":8617:8622   */\n      dup3\n        /* \"#utility.yul\":8613:8635   */\n      and\n        /* \"#utility.yul\":8602:8635   */\n      swap1\n      pop\n        /* \"#utility.yul\":8548:8641   */\n      swap2\n      swap1\n      pop\n      jump\t// out\n        /* \"#utility.yul\":8647:8767   */\n    tag_316:\n        /* \"#utility.yul\":8719:8742   */\n      tag_457\n        /* \"#utility.yul\":8736:8741   */\n      dup2\n        /* \"#utility.yul\":8719:8742   */\n      tag_315\n      jump\t// in\n    tag_457:\n        /* \"#utility.yul\":8712:8717   */\n      dup2\n        /* \"#utility.yul\":8709:8743   */\n      eq\n        /* \"#utility.yul\":8699:8761   */\n      tag_458\n      jumpi\n        /* \"#utility.yul\":8757:8758   */\n      0x00\n        /* \"#utility.yul\":8754:8755   */\n      dup1\n        /* \"#utility.yul\":8747:8759   */\n      revert\n        /* \"#utility.yul\":8699:8761   */\n    tag_458:\n        /* \"#utility.yul\":8647:8767   */\n      pop\n      jump\t// out\n        /* \"#utility.yul\":8773:8910   */\n    tag_317:\n        /* \"#utility.yul\":8818:8823   */\n      0x00\n        /* \"#utility.yul\":8856:8862   */\n      dup2\n        /* \"#utility.yul\":8843:8863   */\n      calldataload\n        /* \"#utility.yul\":8834:8863   */\n      swap1\n      pop\n        /* \"#utility.yul\":8872:8904   */\n      tag_460\n        /* \"#utility.yul\":8898:8903   */\n      dup2\n        /* \"#utility.yul\":8872:8904   */\n      tag_316\n      jump\t// in\n    tag_460:\n        /* \"#utility.yul\":8773:8910   */\n      swap3\n      swap2\n      pop\n      pop\n      jump\t// out\n        /* \"#utility.yul\":8916:9243   */\n    tag_86:\n        /* \"#utility.yul\":8974:8980   */\n      0x00\n        /* \"#utility.yul\":9023:9025   */\n      0x20\n        /* \"#utility.yul\":9011:9020   */\n      dup3\n        /* \"#utility.yul\":9002:9009   */\n      dup5\n        /* \"#utility.yul\":8998:9021   */\n      sub\n        /* \"#utility.yul\":8994:9026   */\n      slt\n        /* \"#utility.yul\":8991:9110   */\n      iszero\n      tag_462\n      jumpi\n        /* \"#utility.yul\":9029:9108   */\n      tag_463\n      tag_287\n      jump\t// in\n    tag_463:\n        /* \"#utility.yul\":8991:9110   */\n    tag_462:\n        /* \"#utility.yul\":9149:9150   */\n      0x00\n        /* \"#utility.yul\":9174:9226   */\n      tag_464\n        /* \"#utility.yul\":9218:9225   */\n      dup5\n        /* \"#utility.yul\":9209:9215   */\n      dup3\n        /* \"#utility.yul\":9198:9207   */\n      dup6\n        /* \"#utility.yul\":9194:9216   */\n      add\n        /* \"#utility.yul\":9174:9226   */\n      tag_317\n      jump\t// in\n    tag_464:\n        /* \"#utility.yul\":9164:9226   */\n      swap2\n      pop\n        /* \"#utility.yul\":9120:9236   */\n      pop\n        /* \"#utility.yul\":8916:9243   */\n      swap3\n      swap2\n      pop\n      pop\n      jump\t// out\n        /* \"#utility.yul\":9249:9557   */\n    tag_93:\n        /* \"#utility.yul\":9358:9362   */\n      0x00\n        /* \"#utility.yul\":9396:9398   */\n      0x40\n        /* \"#utility.yul\":9385:9394   */\n      dup3\n        /* \"#utility.yul\":9381:9399   */\n      add\n        /* \"#utility.yul\":9373:9399   */\n      swap1\n      pop\n        /* \"#utility.yul\":9409:9474   */\n      tag_466\n        /* \"#utility.yul\":9471:9472   */\n      0x00\n        /* \"#utility.yul\":9460:9469   */\n      dup4\n        /* \"#utility.yul\":9456:9473   */\n      add\n        /* \"#utility.yul\":9447:9453   */\n      dup6\n        /* \"#utility.yul\":9409:9474   */\n      tag_297\n      jump\t// in\n    tag_466:\n        /* \"#utility.yul\":9484:9550   */\n      tag_467\n        /* \"#utility.yul\":9546:9548   */\n      0x20\n        /* \"#utility.yul\":9535:9544   */\n      dup4\n        /* \"#utility.yul\":9531:9549   */\n      add\n        /* \"#utility.yul\":9522:9528   */\n      dup5\n        /* \"#utility.yul\":9484:9550   */\n      tag_297\n      jump\t// in\n    tag_467:\n        /* \"#utility.yul\":9249:9557   */\n      swap4\n      swap3\n      pop\n      pop\n      pop\n      jump\t// out\n        /* \"#utility.yul\":9563:10034   */\n    tag_108:\n        /* \"#utility.yul\":9728:9732   */\n      0x00\n        /* \"#utility.yul\":9766:9768   */\n      0x40\n        /* \"#utility.yul\":9755:9764   */\n      dup3\n        /* \"#utility.yul\":9751:9769   */\n      add\n        /* \"#utility.yul\":9743:9769   */\n      swap1\n      pop\n        /* \"#utility.yul\":9779:9844   */\n      tag_469\n        /* \"#utility.yul\":9841:9842   */\n      0x00\n        /* \"#utility.yul\":9830:9839   */\n      dup4\n        /* \"#utility.yul\":9826:9843   */\n      add\n        /* \"#utility.yul\":9817:9823   */\n      dup6\n        /* \"#utility.yul\":9779:9844   */\n      tag_297\n      jump\t// in\n    tag_469:\n        /* \"#utility.yul\":9891:9900   */\n      dup2\n        /* \"#utility.yul\":9885:9889   */\n      dup2\n        /* \"#utility.yul\":9881:9901   */\n      sub\n        /* \"#utility.yul\":9876:9878   */\n      0x20\n        /* \"#utility.yul\":9865:9874   */\n      dup4\n        /* \"#utility.yul\":9861:9879   */\n      add\n        /* \"#utility.yul\":9854:9902   */\n      mstore\n        /* \"#utility.yul\":9919:10027   */\n      tag_470\n        /* \"#utility.yul\":10022:10026   */\n      dup2\n        /* \"#utility.yul\":10013:10019   */\n      dup5\n        /* \"#utility.yul\":9919:10027   */\n      tag_314\n      jump\t// in\n    tag_470:\n        /* \"#utility.yul\":9911:10027   */\n      swap1\n      pop\n        /* \"#utility.yul\":9563:10034   */\n      swap4\n      swap3\n      pop\n      pop\n      pop\n      jump\t// out\n        /* \"#utility.yul\":10040:10372   */\n    tag_126:\n        /* \"#utility.yul\":10161:10165   */\n      0x00\n        /* \"#utility.yul\":10199:10201   */\n      0x40\n        /* \"#utility.yul\":10188:10197   */\n      dup3\n        /* \"#utility.yul\":10184:10202   */\n      add\n        /* \"#utility.yul\":10176:10202   */\n      swap1\n      pop\n        /* \"#utility.yul\":10212:10283   */\n      tag_472\n        /* \"#utility.yul\":10280:10281   */\n      0x00\n        /* \"#utility.yul\":10269:10278   */\n      dup4\n        /* \"#utility.yul\":10265:10282   */\n      add\n        /* \"#utility.yul\":10256:10262   */\n      dup6\n        /* \"#utility.yul\":10212:10283   */\n      tag_294\n      jump\t// in\n    tag_472:\n        /* \"#utility.yul\":10293:10365   */\n      tag_473\n        /* \"#utility.yul\":10361:10363   */\n      0x20\n        /* \"#utility.yul\":10350:10359   */\n      dup4\n        /* \"#utility.yul\":10346:10364   */\n      add\n        /* \"#utility.yul\":10337:10343   */\n      dup5\n        /* \"#utility.yul\":10293:10365   */\n      tag_294\n      jump\t// in\n    tag_473:\n        /* \"#utility.yul\":10040:10372   */\n      swap4\n      swap3\n      pop\n      pop\n      pop\n      jump\t// out\n        /* \"#utility.yul\":10378:10547   */\n    tag_318:\n        /* \"#utility.yul\":10462:10473   */\n      0x00\n        /* \"#utility.yul\":10496:10502   */\n      dup3\n        /* \"#utility.yul\":10491:10494   */\n      dup3\n        /* \"#utility.yul\":10484:10503   */\n      mstore\n        /* \"#utility.yul\":10536:10540   */\n      0x20\n        /* \"#utility.yul\":10531:10534   */\n      dup3\n        /* \"#utility.yul\":10527:10541   */\n      add\n        /* \"#utility.yul\":10512:10541   */\n      swap1\n      pop\n        /* \"#utility.yul\":10378:10547   */\n      swap3\n      swap2\n      pop\n      pop\n      jump\t// out\n        /* \"#utility.yul\":10553:10728   */\n    tag_319:\n        /* \"#utility.yul\":10693:10720   */\n      0x47616d6520697320616c726561647920636f6d706c6574656400000000000000\n        /* \"#utility.yul\":10689:10690   */\n      0x00\n        /* \"#utility.yul\":10681:10687   */\n      dup3\n        /* \"#utility.yul\":10677:10691   */\n      add\n        /* \"#utility.yul\":10670:10721   */\n      mstore\n        /* \"#utility.yul\":10553:10728   */\n      pop\n      jump\t// out\n        /* \"#utility.yul\":10734:11100   */\n    tag_320:\n        /* \"#utility.yul\":10876:10879   */\n      0x00\n        /* \"#utility.yul\":10897:10964   */\n      tag_477\n        /* \"#utility.yul\":10961:10963   */\n      0x19\n        /* \"#utility.yul\":10956:10959   */\n      dup4\n        /* \"#utility.yul\":10897:10964   */\n      tag_318\n      jump\t// in\n    tag_477:\n        /* \"#utility.yul\":10890:10964   */\n      swap2\n      pop\n        /* \"#utility.yul\":10973:11066   */\n      tag_478\n        /* \"#utility.yul\":11062:11065   */\n      dup3\n        /* \"#utility.yul\":10973:11066   */\n      tag_319\n      jump\t// in\n    tag_478:\n        /* \"#utility.yul\":11091:11093   */\n      0x20\n        /* \"#utility.yul\":11086:11089   */\n      dup3\n        /* \"#utility.yul\":11082:11094   */\n      add\n        /* \"#utility.yul\":11075:11094   */\n      swap1\n      pop\n        /* \"#utility.yul\":10734:11100   */\n      swap2\n      swap1\n      pop\n      jump\t// out\n        /* \"#utility.yul\":11106:11525   */\n    tag_136:\n        /* \"#utility.yul\":11272:11276   */\n      0x00\n        /* \"#utility.yul\":11310:11312   */\n      0x20\n        /* \"#utility.yul\":11299:11308   */\n      dup3\n        /* \"#utility.yul\":11295:11313   */\n      add\n        /* \"#utility.yul\":11287:11313   */\n      swap1\n      pop\n        /* \"#utility.yul\":11359:11368   */\n      dup2\n        /* \"#utility.yul\":11353:11357   */\n      dup2\n        /* \"#utility.yul\":11349:11369   */\n      sub\n        /* \"#utility.yul\":11345:11346   */\n      0x00\n        /* \"#utility.yul\":11334:11343   */\n      dup4\n        /* \"#utility.yul\":11330:11347   */\n      add\n        /* \"#utility.yul\":11323:11370   */\n      mstore\n        /* \"#utility.yul\":11387:11518   */\n      tag_480\n        /* \"#utility.yul\":11513:11517   */\n      dup2\n        /* \"#utility.yul\":11387:11518   */\n      tag_320\n      jump\t// in\n    tag_480:\n        /* \"#utility.yul\":11379:11518   */\n      swap1\n      pop\n        /* \"#utility.yul\":11106:11525   */\n      swap2\n      swap1\n      pop\n      jump\t// out\n        /* \"#utility.yul\":11531:11703   */\n    tag_321:\n        /* \"#utility.yul\":11671:11695   */\n      0x43616c6c6572206973206e6f742067616d6520626f7400000000000000000000\n        /* \"#utility.yul\":11667:11668   */\n      0x00\n        /* \"#utility.yul\":11659:11665   */\n      dup3\n        /* \"#utility.yul\":11655:11669   */\n      add\n        /* \"#utility.yul\":11648:11696   */\n      mstore\n        /* \"#utility.yul\":11531:11703   */\n      pop\n      jump\t// out\n        /* \"#utility.yul\":11709:12075   */\n    tag_322:\n        /* \"#utility.yul\":11851:11854   */\n      0x00\n        /* \"#utility.yul\":11872:11939   */\n      tag_483\n        /* \"#utility.yul\":11936:11938   */\n      0x16\n        /* \"#utility.yul\":11931:11934   */\n      dup4\n        /* \"#utility.yul\":11872:11939   */\n      tag_318\n      jump\t// in\n    tag_483:\n        /* \"#utility.yul\":11865:11939   */\n      swap2\n      pop\n        /* \"#utility.yul\":11948:12041   */\n      tag_484\n        /* \"#utility.yul\":12037:12040   */\n      dup3\n        /* \"#utility.yul\":11948:12041   */\n      tag_321\n      jump\t// in\n    tag_484:\n        /* \"#utility.yul\":12066:12068   */\n      0x20\n        /* \"#utility.yul\":12061:12064   */\n      dup3\n        /* \"#utility.yul\":12057:12069   */\n      add\n        /* \"#utility.yul\":12050:12069   */\n      swap1\n      pop\n        /* \"#utility.yul\":11709:12075   */\n      swap2\n      swap1\n      pop\n      jump\t// out\n        /* \"#utility.yul\":12081:12500   */\n    tag_139:\n        /* \"#utility.yul\":12247:12251   */\n      0x00\n        /* \"#utility.yul\":12285:12287   */\n      0x20\n        /* \"#utility.yul\":12274:12283   */\n      dup3\n        /* \"#utility.yul\":12270:12288   */\n      add\n        /* \"#utility.yul\":12262:12288   */\n      swap1\n      pop\n        /* \"#utility.yul\":12334:12343   */\n      dup2\n        /* \"#utility.yul\":12328:12332   */\n      dup2\n        /* \"#utility.yul\":12324:12344   */\n      sub\n        /* \"#utility.yul\":12320:12321   */\n      0x00\n        /* \"#utility.yul\":12309:12318   */\n      dup4\n        /* \"#utility.yul\":12305:12322   */\n      add\n        /* \"#utility.yul\":12298:12345   */\n      mstore\n        /* \"#utility.yul\":12362:12493   */\n      tag_486\n        /* \"#utility.yul\":12488:12492   */\n      dup2\n        /* \"#utility.yul\":12362:12493   */\n      tag_322\n      jump\t// in\n    tag_486:\n        /* \"#utility.yul\":12354:12493   */\n      swap1\n      pop\n        /* \"#utility.yul\":12081:12500   */\n      swap2\n      swap1\n      pop\n      jump\t// out\n        /* \"#utility.yul\":12506:12686   */\n    tag_142:\n        /* \"#utility.yul\":12554:12631   */\n      0x4e487b7100000000000000000000000000000000000000000000000000000000\n        /* \"#utility.yul\":12551:12552   */\n      0x00\n        /* \"#utility.yul\":12544:12632   */\n      mstore\n        /* \"#utility.yul\":12651:12655   */\n      0x32\n        /* \"#utility.yul\":12648:12649   */\n      0x04\n        /* \"#utility.yul\":12641:12656   */\n      mstore\n        /* \"#utility.yul\":12675:12679   */\n      0x24\n        /* \"#utility.yul\":12672:12673   */\n      0x00\n        /* \"#utility.yul\":12665:12680   */\n      revert\n        /* \"#utility.yul\":12692:12872   */\n    tag_323:\n        /* \"#utility.yul\":12740:12817   */\n      0x4e487b7100000000000000000000000000000000000000000000000000000000\n        /* \"#utility.yul\":12737:12738   */\n      0x00\n        /* \"#utility.yul\":12730:12818   */\n      mstore\n        /* \"#utility.yul\":12837:12841   */\n      0x12\n        /* \"#utility.yul\":12834:12835   */\n      0x04\n        /* \"#utility.yul\":12827:12842   */\n      mstore\n        /* \"#utility.yul\":12861:12865   */\n      0x24\n        /* \"#utility.yul\":12858:12859   */\n      0x00\n        /* \"#utility.yul\":12851:12866   */\n      revert\n        /* \"#utility.yul\":12878:13054   */\n    tag_144:\n        /* \"#utility.yul\":12910:12911   */\n      0x00\n        /* \"#utility.yul\":12927:12947   */\n      tag_490\n        /* \"#utility.yul\":12945:12946   */\n      dup3\n        /* \"#utility.yul\":12927:12947   */\n      tag_289\n      jump\t// in\n    tag_490:\n        /* \"#utility.yul\":12922:12947   */\n      swap2\n      pop\n        /* \"#utility.yul\":12961:12981   */\n      tag_491\n        /* \"#utility.yul\":12979:12980   */\n      dup4\n        /* \"#utility.yul\":12961:12981   */\n      tag_289\n      jump\t// in\n    tag_491:\n        /* \"#utility.yul\":12956:12981   */\n      swap3\n      pop\n        /* \"#utility.yul\":13000:13001   */\n      dup3\n        /* \"#utility.yul\":12990:13025   */\n      tag_492\n      jumpi\n        /* \"#utility.yul\":13005:13023   */\n      tag_493\n      tag_323\n      jump\t// in\n    tag_493:\n        /* \"#utility.yul\":12990:13025   */\n    tag_492:\n        /* \"#utility.yul\":13046:13047   */\n      dup3\n        /* \"#utility.yul\":13043:13044   */\n      dup3\n        /* \"#utility.yul\":13039:13048   */\n      mod\n        /* \"#utility.yul\":13034:13048   */\n      swap1\n      pop\n        /* \"#utility.yul\":12878:13054   */\n      swap3\n      swap2\n      pop\n      pop\n      jump\t// out\n        /* \"#utility.yul\":13060:13229   */\n    tag_324:\n        /* \"#utility.yul\":13200:13221   */\n      0x47616d6520646f6573206e6f7420657869737400000000000000000000000000\n        /* \"#utility.yul\":13196:13197   */\n      0x00\n        /* \"#utility.yul\":13188:13194   */\n      dup3\n        /* \"#utility.yul\":13184:13198   */\n      add\n        /* \"#utility.yul\":13177:13222   */\n      mstore\n        /* \"#utility.yul\":13060:13229   */\n      pop\n      jump\t// out\n        /* \"#utility.yul\":13235:13601   */\n    tag_325:\n        /* \"#utility.yul\":13377:13380   */\n      0x00\n        /* \"#utility.yul\":13398:13465   */\n      tag_496\n        /* \"#utility.yul\":13462:13464   */\n      0x13\n        /* \"#utility.yul\":13457:13460   */\n      dup4\n        /* \"#utility.yul\":13398:13465   */\n      tag_318\n      jump\t// in\n    tag_496:\n        /* \"#utility.yul\":13391:13465   */\n      swap2\n      pop\n        /* \"#utility.yul\":13474:13567   */\n      tag_497\n        /* \"#utility.yul\":13563:13566   */\n      dup3\n        /* \"#utility.yul\":13474:13567   */\n      tag_324\n      jump\t// in\n    tag_497:\n        /* \"#utility.yul\":13592:13594   */\n      0x20\n        /* \"#utility.yul\":13587:13590   */\n      dup3\n        /* \"#utility.yul\":13583:13595   */\n      add\n        /* \"#utility.yul\":13576:13595   */\n      swap1\n      pop\n        /* \"#utility.yul\":13235:13601   */\n      swap2\n      swap1\n      pop\n      jump\t// out\n        /* \"#utility.yul\":13607:14026   */\n    tag_161:\n        /* \"#utility.yul\":13773:13777   */\n      0x00\n        /* \"#utility.yul\":13811:13813   */\n      0x20\n        /* \"#utility.yul\":13800:13809   */\n      dup3\n        /* \"#utility.yul\":13796:13814   */\n      add\n        /* \"#utility.yul\":13788:13814   */\n      swap1\n      pop\n        /* \"#utility.yul\":13860:13869   */\n      dup2\n        /* \"#utility.yul\":13854:13858   */\n      dup2\n        /* \"#utility.yul\":13850:13870   */\n      sub\n        /* \"#utility.yul\":13846:13847   */\n      0x00\n        /* \"#utility.yul\":13835:13844   */\n      dup4\n        /* \"#utility.yul\":13831:13848   */\n      add\n        /* \"#utility.yul\":13824:13871   */\n      mstore\n        /* \"#utility.yul\":13888:14019   */\n      tag_499\n        /* \"#utility.yul\":14014:14018   */\n      dup2\n        /* \"#utility.yul\":13888:14019   */\n      tag_325\n      jump\t// in\n    tag_499:\n        /* \"#utility.yul\":13880:14019   */\n      swap1\n      pop\n        /* \"#utility.yul\":13607:14026   */\n      swap2\n      swap1\n      pop\n      jump\t// out\n        /* \"#utility.yul\":14032:14199   */\n    tag_326:\n        /* \"#utility.yul\":14172:14191   */\n      0x47616d6520697320636f6d706c65746564000000000000000000000000000000\n        /* \"#utility.yul\":14168:14169   */\n      0x00\n        /* \"#utility.yul\":14160:14166   */\n      dup3\n        /* \"#utility.yul\":14156:14170   */\n      add\n        /* \"#utility.yul\":14149:14192   */\n      mstore\n        /* \"#utility.yul\":14032:14199   */\n      pop\n      jump\t// out\n        /* \"#utility.yul\":14205:14571   */\n    tag_327:\n        /* \"#utility.yul\":14347:14350   */\n      0x00\n        /* \"#utility.yul\":14368:14435   */\n      tag_502\n        /* \"#utility.yul\":14432:14434   */\n      0x11\n        /* \"#utility.yul\":14427:14430   */\n      dup4\n        /* \"#utility.yul\":14368:14435   */\n      tag_318\n      jump\t// in\n    tag_502:\n        /* \"#utility.yul\":14361:14435   */\n      swap2\n      pop\n        /* \"#utility.yul\":14444:14537   */\n      tag_503\n        /* \"#utility.yul\":14533:14536   */\n      dup3\n        /* \"#utility.yul\":14444:14537   */\n      tag_326\n      jump\t// in\n    tag_503:\n        /* \"#utility.yul\":14562:14564   */\n      0x20\n        /* \"#utility.yul\":14557:14560   */\n      dup3\n        /* \"#utility.yul\":14553:14565   */\n      add\n        /* \"#utility.yul\":14546:14565   */\n      swap1\n      pop\n        /* \"#utility.yul\":14205:14571   */\n      swap2\n      swap1\n      pop\n      jump\t// out\n        /* \"#utility.yul\":14577:14996   */\n    tag_164:\n        /* \"#utility.yul\":14743:14747   */\n      0x00\n        /* \"#utility.yul\":14781:14783   */\n      0x20\n        /* \"#utility.yul\":14770:14779   */\n      dup3\n        /* \"#utility.yul\":14766:14784   */\n      add\n        /* \"#utility.yul\":14758:14784   */\n      swap1\n      pop\n        /* \"#utility.yul\":14830:14839   */\n      dup2\n        /* \"#utility.yul\":14824:14828   */\n      dup2\n        /* \"#utility.yul\":14820:14840   */\n      sub\n        /* \"#utility.yul\":14816:14817   */\n      0x00\n        /* \"#utility.yul\":14805:14814   */\n      dup4\n        /* \"#utility.yul\":14801:14818   */\n      add\n        /* \"#utility.yul\":14794:14841   */\n      mstore\n        /* \"#utility.yul\":14858:14989   */\n      tag_505\n        /* \"#utility.yul\":14984:14988   */\n      dup2\n        /* \"#utility.yul\":14858:14989   */\n      tag_327\n      jump\t// in\n    tag_505:\n        /* \"#utility.yul\":14850:14989   */\n      swap1\n      pop\n        /* \"#utility.yul\":14577:14996   */\n      swap2\n      swap1\n      pop\n      jump\t// out\n        /* \"#utility.yul\":15002:15174   */\n    tag_328:\n        /* \"#utility.yul\":15142:15166   */\n      0x4d7573742062652070726f706f736564206f776e657200000000000000000000\n        /* \"#utility.yul\":15138:15139   */\n      0x00\n        /* \"#utility.yul\":15130:15136   */\n      dup3\n        /* \"#utility.yul\":15126:15140   */\n      add\n        /* \"#utility.yul\":15119:15167   */\n      mstore\n        /* \"#utility.yul\":15002:15174   */\n      pop\n      jump\t// out\n        /* \"#utility.yul\":15180:15546   */\n    tag_329:\n        /* \"#utility.yul\":15322:15325   */\n      0x00\n        /* \"#utility.yul\":15343:15410   */\n      tag_508\n        /* \"#utility.yul\":15407:15409   */\n      0x16\n        /* \"#utility.yul\":15402:15405   */\n      dup4\n        /* \"#utility.yul\":15343:15410   */\n      tag_318\n      jump\t// in\n    tag_508:\n        /* \"#utility.yul\":15336:15410   */\n      swap2\n      pop\n        /* \"#utility.yul\":15419:15512   */\n      tag_509\n        /* \"#utility.yul\":15508:15511   */\n      dup3\n        /* \"#utility.yul\":15419:15512   */\n      tag_328\n      jump\t// in\n    tag_509:\n        /* \"#utility.yul\":15537:15539   */\n      0x20\n        /* \"#utility.yul\":15532:15535   */\n      dup3\n        /* \"#utility.yul\":15528:15540   */\n      add\n        /* \"#utility.yul\":15521:15540   */\n      swap1\n      pop\n        /* \"#utility.yul\":15180:15546   */\n      swap2\n      swap1\n      pop\n      jump\t// out\n        /* \"#utility.yul\":15552:15971   */\n    tag_174:\n        /* \"#utility.yul\":15718:15722   */\n      0x00\n        /* \"#utility.yul\":15756:15758   */\n      0x20\n        /* \"#utility.yul\":15745:15754   */\n      dup3\n        /* \"#utility.yul\":15741:15759   */\n      add\n        /* \"#utility.yul\":15733:15759   */\n      swap1\n      pop\n        /* \"#utility.yul\":15805:15814   */\n      dup2\n        /* \"#utility.yul\":15799:15803   */\n      dup2\n        /* \"#utility.yul\":15795:15815   */\n      sub\n        /* \"#utility.yul\":15791:15792   */\n      0x00\n        /* \"#utility.yul\":15780:15789   */\n      dup4\n        /* \"#utility.yul\":15776:15793   */\n      add\n        /* \"#utility.yul\":15769:15816   */\n      mstore\n        /* \"#utility.yul\":15833:15964   */\n      tag_511\n        /* \"#utility.yul\":15959:15963   */\n      dup2\n        /* \"#utility.yul\":15833:15964   */\n      tag_329\n      jump\t// in\n    tag_511:\n        /* \"#utility.yul\":15825:15964   */\n      swap1\n      pop\n        /* \"#utility.yul\":15552:15971   */\n      swap2\n      swap1\n      pop\n      jump\t// out\n        /* \"#utility.yul\":15977:16144   */\n    tag_330:\n        /* \"#utility.yul\":16117:16136   */\n      0x72657175657374206e6f7420666f756e64000000000000000000000000000000\n        /* \"#utility.yul\":16113:16114   */\n      0x00\n        /* \"#utility.yul\":16105:16111   */\n      dup3\n        /* \"#utility.yul\":16101:16115   */\n      add\n        /* \"#utility.yul\":16094:16137   */\n      mstore\n        /* \"#utility.yul\":15977:16144   */\n      pop\n      jump\t// out\n        /* \"#utility.yul\":16150:16516   */\n    tag_331:\n        /* \"#utility.yul\":16292:16295   */\n      0x00\n        /* \"#utility.yul\":16313:16380   */\n      tag_514\n        /* \"#utility.yul\":16377:16379   */\n      0x11\n        /* \"#utility.yul\":16372:16375   */\n      dup4\n        /* \"#utility.yul\":16313:16380   */\n      tag_318\n      jump\t// in\n    tag_514:\n        /* \"#utility.yul\":16306:16380   */\n      swap2\n      pop\n        /* \"#utility.yul\":16389:16482   */\n      tag_515\n        /* \"#utility.yul\":16478:16481   */\n      dup3\n        /* \"#utility.yul\":16389:16482   */\n      tag_330\n      jump\t// in\n    tag_515:\n        /* \"#utility.yul\":16507:16509   */\n      0x20\n        /* \"#utility.yul\":16502:16505   */\n      dup3\n        /* \"#utility.yul\":16498:16510   */\n      add\n        /* \"#utility.yul\":16491:16510   */\n      swap1\n      pop\n        /* \"#utility.yul\":16150:16516   */\n      swap2\n      swap1\n      pop\n      jump\t// out\n        /* \"#utility.yul\":16522:16941   */\n    tag_189:\n        /* \"#utility.yul\":16688:16692   */\n      0x00\n        /* \"#utility.yul\":16726:16728   */\n      0x20\n        /* \"#utility.yul\":16715:16724   */\n      dup3\n        /* \"#utility.yul\":16711:16729   */\n      add\n        /* \"#utility.yul\":16703:16729   */\n      swap1\n      pop\n        /* \"#utility.yul\":16775:16784   */\n      dup2\n        /* \"#utility.yul\":16769:16773   */\n      dup2\n        /* \"#utility.yul\":16765:16785   */\n      sub\n        /* \"#utility.yul\":16761:16762   */\n      0x00\n        /* \"#utility.yul\":16750:16759   */\n      dup4\n        /* \"#utility.yul\":16746:16763   */\n      add\n        /* \"#utility.yul\":16739:16786   */\n      mstore\n        /* \"#utility.yul\":16803:16934   */\n      tag_517\n        /* \"#utility.yul\":16929:16933   */\n      dup2\n        /* \"#utility.yul\":16803:16934   */\n      tag_331\n      jump\t// in\n    tag_517:\n        /* \"#utility.yul\":16795:16934   */\n      swap1\n      pop\n        /* \"#utility.yul\":16522:16941   */\n      swap2\n      swap1\n      pop\n      jump\t// out\n        /* \"#utility.yul\":16947:17172   */\n    tag_332:\n        /* \"#utility.yul\":17087:17121   */\n      0x576167657220616d6f756e74206973206c657373207468616e206d696e696d75\n        /* \"#utility.yul\":17083:17084   */\n      0x00\n        /* \"#utility.yul\":17075:17081   */\n      dup3\n        /* \"#utility.yul\":17071:17085   */\n      add\n        /* \"#utility.yul\":17064:17122   */\n      mstore\n        /* \"#utility.yul\":17156:17164   */\n      0x6d57616765720000000000000000000000000000000000000000000000000000\n        /* \"#utility.yul\":17151:17153   */\n      0x20\n        /* \"#utility.yul\":17143:17149   */\n      dup3\n        /* \"#utility.yul\":17139:17154   */\n      add\n        /* \"#utility.yul\":17132:17165   */\n      mstore\n        /* \"#utility.yul\":16947:17172   */\n      pop\n      jump\t// out\n        /* \"#utility.yul\":17178:17544   */\n    tag_333:\n        /* \"#utility.yul\":17320:17323   */\n      0x00\n        /* \"#utility.yul\":17341:17408   */\n      tag_520\n        /* \"#utility.yul\":17405:17407   */\n      0x26\n        /* \"#utility.yul\":17400:17403   */\n      dup4\n        /* \"#utility.yul\":17341:17408   */\n      tag_318\n      jump\t// in\n    tag_520:\n        /* \"#utility.yul\":17334:17408   */\n      swap2\n      pop\n        /* \"#utility.yul\":17417:17510   */\n      tag_521\n        /* \"#utility.yul\":17506:17509   */\n      dup3\n        /* \"#utility.yul\":17417:17510   */\n      tag_332\n      jump\t// in\n    tag_521:\n        /* \"#utility.yul\":17535:17537   */\n      0x40\n        /* \"#utility.yul\":17530:17533   */\n      dup3\n        /* \"#utility.yul\":17526:17538   */\n      add\n        /* \"#utility.yul\":17519:17538   */\n      swap1\n      pop\n        /* \"#utility.yul\":17178:17544   */\n      swap2\n      swap1\n      pop\n      jump\t// out\n        /* \"#utility.yul\":17550:17969   */\n    tag_195:\n        /* \"#utility.yul\":17716:17720   */\n      0x00\n        /* \"#utility.yul\":17754:17756   */\n      0x20\n        /* \"#utility.yul\":17743:17752   */\n      dup3\n        /* \"#utility.yul\":17739:17757   */\n      add\n        /* \"#utility.yul\":17731:17757   */\n      swap1\n      pop\n        /* \"#utility.yul\":17803:17812   */\n      dup2\n        /* \"#utility.yul\":17797:17801   */\n      dup2\n        /* \"#utility.yul\":17793:17813   */\n      sub\n        /* \"#utility.yul\":17789:17790   */\n      0x00\n        /* \"#utility.yul\":17778:17787   */\n      dup4\n        /* \"#utility.yul\":17774:17791   */\n      add\n        /* \"#utility.yul\":17767:17814   */\n      mstore\n        /* \"#utility.yul\":17831:17962   */\n      tag_523\n        /* \"#utility.yul\":17957:17961   */\n      dup2\n        /* \"#utility.yul\":17831:17962   */\n      tag_333\n      jump\t// in\n    tag_523:\n        /* \"#utility.yul\":17823:17962   */\n      swap1\n      pop\n        /* \"#utility.yul\":17550:17969   */\n      swap2\n      swap1\n      pop\n      jump\t// out\n        /* \"#utility.yul\":17975:18147   */\n    tag_334:\n        /* \"#utility.yul\":18115:18139   */\n      0x47616d6520697320616c7265616479206a6f696e656400000000000000000000\n        /* \"#utility.yul\":18111:18112   */\n      0x00\n        /* \"#utility.yul\":18103:18109   */\n      dup3\n        /* \"#utility.yul\":18099:18113   */\n      add\n        /* \"#utility.yul\":18092:18140   */\n      mstore\n        /* \"#utility.yul\":17975:18147   */\n      pop\n      jump\t// out\n        /* \"#utility.yul\":18153:18519   */\n    tag_335:\n        /* \"#utility.yul\":18295:18298   */\n      0x00\n        /* \"#utility.yul\":18316:18383   */\n      tag_526\n        /* \"#utility.yul\":18380:18382   */\n      0x16\n        /* \"#utility.yul\":18375:18378   */\n      dup4\n        /* \"#utility.yul\":18316:18383   */\n      tag_318\n      jump\t// in\n    tag_526:\n        /* \"#utility.yul\":18309:18383   */\n      swap2\n      pop\n        /* \"#utility.yul\":18392:18485   */\n      tag_527\n        /* \"#utility.yul\":18481:18484   */\n      dup3\n        /* \"#utility.yul\":18392:18485   */\n      tag_334\n      jump\t// in\n    tag_527:\n        /* \"#utility.yul\":18510:18512   */\n      0x20\n        /* \"#utility.yul\":18505:18508   */\n      dup3\n        /* \"#utility.yul\":18501:18513   */\n      add\n        /* \"#utility.yul\":18494:18513   */\n      swap1\n      pop\n        /* \"#utility.yul\":18153:18519   */\n      swap2\n      swap1\n      pop\n      jump\t// out\n        /* \"#utility.yul\":18525:18944   */\n    tag_205:\n        /* \"#utility.yul\":18691:18695   */\n      0x00\n        /* \"#utility.yul\":18729:18731   */\n      0x20\n        /* \"#utility.yul\":18718:18727   */\n      dup3\n        /* \"#utility.yul\":18714:18732   */\n      add\n        /* \"#utility.yul\":18706:18732   */\n      swap1\n      pop\n        /* \"#utility.yul\":18778:18787   */\n      dup2\n        /* \"#utility.yul\":18772:18776   */\n      dup2\n        /* \"#utility.yul\":18768:18788   */\n      sub\n        /* \"#utility.yul\":18764:18765   */\n      0x00\n        /* \"#utility.yul\":18753:18762   */\n      dup4\n        /* \"#utility.yul\":18749:18766   */\n      add\n        /* \"#utility.yul\":18742:18789   */\n      mstore\n        /* \"#utility.yul\":18806:18937   */\n      tag_529\n        /* \"#utility.yul\":18932:18936   */\n      dup2\n        /* \"#utility.yul\":18806:18937   */\n      tag_335\n      jump\t// in\n    tag_529:\n        /* \"#utility.yul\":18798:18937   */\n      swap1\n      pop\n        /* \"#utility.yul\":18525:18944   */\n      swap2\n      swap1\n      pop\n      jump\t// out\n        /* \"#utility.yul\":18950:19121   */\n    tag_336:\n        /* \"#utility.yul\":19090:19113   */\n      0x496e636f727265637420616d6f756e742073656e740000000000000000000000\n        /* \"#utility.yul\":19086:19087   */\n      0x00\n        /* \"#utility.yul\":19078:19084   */\n      dup3\n        /* \"#utility.yul\":19074:19088   */\n      add\n        /* \"#utility.yul\":19067:19114   */\n      mstore\n        /* \"#utility.yul\":18950:19121   */\n      pop\n      jump\t// out\n        /* \"#utility.yul\":19127:19493   */\n    tag_337:\n        /* \"#utility.yul\":19269:19272   */\n      0x00\n        /* \"#utility.yul\":19290:19357   */\n      tag_532\n        /* \"#utility.yul\":19354:19356   */\n      0x15\n        /* \"#utility.yul\":19349:19352   */\n      dup4\n        /* \"#utility.yul\":19290:19357   */\n      tag_318\n      jump\t// in\n    tag_532:\n        /* \"#utility.yul\":19283:19357   */\n      swap2\n      pop\n        /* \"#utility.yul\":19366:19459   */\n      tag_533\n        /* \"#utility.yul\":19455:19458   */\n      dup3\n        /* \"#utility.yul\":19366:19459   */\n      tag_336\n      jump\t// in\n    tag_533:\n        /* \"#utility.yul\":19484:19486   */\n      0x20\n        /* \"#utility.yul\":19479:19482   */\n      dup3\n        /* \"#utility.yul\":19475:19487   */\n      add\n        /* \"#utility.yul\":19468:19487   */\n      swap1\n      pop\n        /* \"#utility.yul\":19127:19493   */\n      swap2\n      swap1\n      pop\n      jump\t// out\n        /* \"#utility.yul\":19499:19918   */\n    tag_208:\n        /* \"#utility.yul\":19665:19669   */\n      0x00\n        /* \"#utility.yul\":19703:19705   */\n      0x20\n        /* \"#utility.yul\":19692:19701   */\n      dup3\n        /* \"#utility.yul\":19688:19706   */\n      add\n        /* \"#utility.yul\":19680:19706   */\n      swap1\n      pop\n        /* \"#utility.yul\":19752:19761   */\n      dup2\n        /* \"#utility.yul\":19746:19750   */\n      dup2\n        /* \"#utility.yul\":19742:19762   */\n      sub\n        /* \"#utility.yul\":19738:19739   */\n      0x00\n        /* \"#utility.yul\":19727:19736   */\n      dup4\n        /* \"#utility.yul\":19723:19740   */\n      add\n        /* \"#utility.yul\":19716:19763   */\n      mstore\n        /* \"#utility.yul\":19780:19911   */\n      tag_535\n        /* \"#utility.yul\":19906:19910   */\n      dup2\n        /* \"#utility.yul\":19780:19911   */\n      tag_337\n      jump\t// in\n    tag_535:\n        /* \"#utility.yul\":19772:19911   */\n      swap1\n      pop\n        /* \"#utility.yul\":19499:19918   */\n      swap2\n      swap1\n      pop\n      jump\t// out\n        /* \"#utility.yul\":19924:20103   */\n    tag_338:\n        /* \"#utility.yul\":20064:20095   */\n      0x596f752063616e6e6f74206a6f696e20796f7572206f776e2067616d65000000\n        /* \"#utility.yul\":20060:20061   */\n      0x00\n        /* \"#utility.yul\":20052:20058   */\n      dup3\n        /* \"#utility.yul\":20048:20062   */\n      add\n        /* \"#utility.yul\":20041:20096   */\n      mstore\n        /* \"#utility.yul\":19924:20103   */\n      pop\n      jump\t// out\n        /* \"#utility.yul\":20109:20475   */\n    tag_339:\n        /* \"#utility.yul\":20251:20254   */\n      0x00\n        /* \"#utility.yul\":20272:20339   */\n      tag_538\n        /* \"#utility.yul\":20336:20338   */\n      0x1d\n        /* \"#utility.yul\":20331:20334   */\n      dup4\n        /* \"#utility.yul\":20272:20339   */\n      tag_318\n      jump\t// in\n    tag_538:\n        /* \"#utility.yul\":20265:20339   */\n      swap2\n      pop\n        /* \"#utility.yul\":20348:20441   */\n      tag_539\n        /* \"#utility.yul\":20437:20440   */\n      dup3\n        /* \"#utility.yul\":20348:20441   */\n      tag_338\n      jump\t// in\n    tag_539:\n        /* \"#utility.yul\":20466:20468   */\n      0x20\n        /* \"#utility.yul\":20461:20464   */\n      dup3\n        /* \"#utility.yul\":20457:20469   */\n      add\n        /* \"#utility.yul\":20450:20469   */\n      swap1\n      pop\n        /* \"#utility.yul\":20109:20475   */\n      swap2\n      swap1\n      pop\n      jump\t// out\n        /* \"#utility.yul\":20481:20900   */\n    tag_213:\n        /* \"#utility.yul\":20647:20651   */\n      0x00\n        /* \"#utility.yul\":20685:20687   */\n      0x20\n        /* \"#utility.yul\":20674:20683   */\n      dup3\n        /* \"#utility.yul\":20670:20688   */\n      add\n        /* \"#utility.yul\":20662:20688   */\n      swap1\n      pop\n        /* \"#utility.yul\":20734:20743   */\n      dup2\n        /* \"#utility.yul\":20728:20732   */\n      dup2\n        /* \"#utility.yul\":20724:20744   */\n      sub\n        /* \"#utility.yul\":20720:20721   */\n      0x00\n        /* \"#utility.yul\":20709:20718   */\n      dup4\n        /* \"#utility.yul\":20705:20722   */\n      add\n        /* \"#utility.yul\":20698:20745   */\n      mstore\n        /* \"#utility.yul\":20762:20893   */\n      tag_541\n        /* \"#utility.yul\":20888:20892   */\n      dup2\n        /* \"#utility.yul\":20762:20893   */\n      tag_339\n      jump\t// in\n    tag_541:\n        /* \"#utility.yul\":20754:20893   */\n      swap1\n      pop\n        /* \"#utility.yul\":20481:20900   */\n      swap2\n      swap1\n      pop\n      jump\t// out\n        /* \"#utility.yul\":20906:21389   */\n    tag_227:\n        /* \"#utility.yul\":21077:21081   */\n      0x00\n        /* \"#utility.yul\":21115:21117   */\n      0x40\n        /* \"#utility.yul\":21104:21113   */\n      dup3\n        /* \"#utility.yul\":21100:21118   */\n      add\n        /* \"#utility.yul\":21092:21118   */\n      swap1\n      pop\n        /* \"#utility.yul\":21128:21199   */\n      tag_543\n        /* \"#utility.yul\":21196:21197   */\n      0x00\n        /* \"#utility.yul\":21185:21194   */\n      dup4\n        /* \"#utility.yul\":21181:21198   */\n      add\n        /* \"#utility.yul\":21172:21178   */\n      dup6\n        /* \"#utility.yul\":21128:21199   */\n      tag_295\n      jump\t// in\n    tag_543:\n        /* \"#utility.yul\":21246:21255   */\n      dup2\n        /* \"#utility.yul\":21240:21244   */\n      dup2\n        /* \"#utility.yul\":21236:21256   */\n      sub\n        /* \"#utility.yul\":21231:21233   */\n      0x20\n        /* \"#utility.yul\":21220:21229   */\n      dup4\n        /* \"#utility.yul\":21216:21234   */\n      add\n        /* \"#utility.yul\":21209:21257   */\n      mstore\n        /* \"#utility.yul\":21274:21382   */\n      tag_544\n        /* \"#utility.yul\":21377:21381   */\n      dup2\n        /* \"#utility.yul\":21368:21374   */\n      dup5\n        /* \"#utility.yul\":21274:21382   */\n      tag_314\n      jump\t// in\n    tag_544:\n        /* \"#utility.yul\":21266:21382   */\n      swap1\n      pop\n        /* \"#utility.yul\":20906:21389   */\n      swap4\n      swap3\n      pop\n      pop\n      pop\n      jump\t// out\n        /* \"#utility.yul\":21395:21567   */\n    tag_340:\n        /* \"#utility.yul\":21535:21559   */\n      0x4f6e6c792063616c6c61626c65206279206f776e657200000000000000000000\n        /* \"#utility.yul\":21531:21532   */\n      0x00\n        /* \"#utility.yul\":21523:21529   */\n      dup3\n        /* \"#utility.yul\":21519:21533   */\n      add\n        /* \"#utility.yul\":21512:21560   */\n      mstore\n        /* \"#utility.yul\":21395:21567   */\n      pop\n      jump\t// out\n        /* \"#utility.yul\":21573:21939   */\n    tag_341:\n        /* \"#utility.yul\":21715:21718   */\n      0x00\n        /* \"#utility.yul\":21736:21803   */\n      tag_547\n        /* \"#utility.yul\":21800:21802   */\n      0x16\n        /* \"#utility.yul\":21795:21798   */\n      dup4\n        /* \"#utility.yul\":21736:21803   */\n      tag_318\n      jump\t// in\n    tag_547:\n        /* \"#utility.yul\":21729:21803   */\n      swap2\n      pop\n        /* \"#utility.yul\":21812:21905   */\n      tag_548\n        /* \"#utility.yul\":21901:21904   */\n      dup3\n        /* \"#utility.yul\":21812:21905   */\n      tag_340\n      jump\t// in\n    tag_548:\n        /* \"#utility.yul\":21930:21932   */\n      0x20\n        /* \"#utility.yul\":21925:21928   */\n      dup3\n        /* \"#utility.yul\":21921:21933   */\n      add\n        /* \"#utility.yul\":21914:21933   */\n      swap1\n      pop\n        /* \"#utility.yul\":21573:21939   */\n      swap2\n      swap1\n      pop\n      jump\t// out\n        /* \"#utility.yul\":21945:22364   */\n    tag_231:\n        /* \"#utility.yul\":22111:22115   */\n      0x00\n        /* \"#utility.yul\":22149:22151   */\n      0x20\n        /* \"#utility.yul\":22138:22147   */\n      dup3\n        /* \"#utility.yul\":22134:22152   */\n      add\n        /* \"#utility.yul\":22126:22152   */\n      swap1\n      pop\n        /* \"#utility.yul\":22198:22207   */\n      dup2\n        /* \"#utility.yul\":22192:22196   */\n      dup2\n        /* \"#utility.yul\":22188:22208   */\n      sub\n        /* \"#utility.yul\":22184:22185   */\n      0x00\n        /* \"#utility.yul\":22173:22182   */\n      dup4\n        /* \"#utility.yul\":22169:22186   */\n      add\n        /* \"#utility.yul\":22162:22209   */\n      mstore\n        /* \"#utility.yul\":22226:22357   */\n      tag_550\n        /* \"#utility.yul\":22352:22356   */\n      dup2\n        /* \"#utility.yul\":22226:22357   */\n      tag_341\n      jump\t// in\n    tag_550:\n        /* \"#utility.yul\":22218:22357   */\n      swap1\n      pop\n        /* \"#utility.yul\":21945:22364   */\n      swap2\n      swap1\n      pop\n      jump\t// out\n        /* \"#utility.yul\":22370:22550   */\n    tag_342:\n        /* \"#utility.yul\":22418:22495   */\n      0x4e487b7100000000000000000000000000000000000000000000000000000000\n        /* \"#utility.yul\":22415:22416   */\n      0x00\n        /* \"#utility.yul\":22408:22496   */\n      mstore\n        /* \"#utility.yul\":22515:22519   */\n      0x11\n        /* \"#utility.yul\":22512:22513   */\n      0x04\n        /* \"#utility.yul\":22505:22520   */\n      mstore\n        /* \"#utility.yul\":22539:22543   */\n      0x24\n        /* \"#utility.yul\":22536:22537   */\n      0x00\n        /* \"#utility.yul\":22529:22544   */\n      revert\n        /* \"#utility.yul\":22556:22966   */\n    tag_234:\n        /* \"#utility.yul\":22596:22603   */\n      0x00\n        /* \"#utility.yul\":22619:22639   */\n      tag_553\n        /* \"#utility.yul\":22637:22638   */\n      dup3\n        /* \"#utility.yul\":22619:22639   */\n      tag_289\n      jump\t// in\n    tag_553:\n        /* \"#utility.yul\":22614:22639   */\n      swap2\n      pop\n        /* \"#utility.yul\":22653:22673   */\n      tag_554\n        /* \"#utility.yul\":22671:22672   */\n      dup4\n        /* \"#utility.yul\":22653:22673   */\n      tag_289\n      jump\t// in\n    tag_554:\n        /* \"#utility.yul\":22648:22673   */\n      swap3\n      pop\n        /* \"#utility.yul\":22708:22709   */\n      dup3\n        /* \"#utility.yul\":22705:22706   */\n      dup3\n        /* \"#utility.yul\":22701:22710   */\n      mul\n        /* \"#utility.yul\":22730:22760   */\n      tag_555\n        /* \"#utility.yul\":22748:22759   */\n      dup2\n        /* \"#utility.yul\":22730:22760   */\n      tag_289\n      jump\t// in\n    tag_555:\n        /* \"#utility.yul\":22719:22760   */\n      swap2\n      pop\n        /* \"#utility.yul\":22909:22910   */\n      dup3\n        /* \"#utility.yul\":22900:22907   */\n      dup3\n        /* \"#utility.yul\":22896:22911   */\n      div\n        /* \"#utility.yul\":22893:22894   */\n      dup5\n        /* \"#utility.yul\":22890:22912   */\n      eq\n        /* \"#utility.yul\":22870:22871   */\n      dup4\n        /* \"#utility.yul\":22863:22872   */\n      iszero\n        /* \"#utility.yul\":22843:22926   */\n      or\n        /* \"#utility.yul\":22820:22959   */\n      tag_556\n      jumpi\n        /* \"#utility.yul\":22939:22957   */\n      tag_557\n      tag_342\n      jump\t// in\n    tag_557:\n        /* \"#utility.yul\":22820:22959   */\n    tag_556:\n        /* \"#utility.yul\":22604:22966   */\n      pop\n        /* \"#utility.yul\":22556:22966   */\n      swap3\n      swap2\n      pop\n      pop\n      jump\t// out\n        /* \"#utility.yul\":22972:23166   */\n    tag_244:\n        /* \"#utility.yul\":23012:23016   */\n      0x00\n        /* \"#utility.yul\":23032:23052   */\n      tag_559\n        /* \"#utility.yul\":23050:23051   */\n      dup3\n        /* \"#utility.yul\":23032:23052   */\n      tag_289\n      jump\t// in\n    tag_559:\n        /* \"#utility.yul\":23027:23052   */\n      swap2\n      pop\n        /* \"#utility.yul\":23066:23086   */\n      tag_560\n        /* \"#utility.yul\":23084:23085   */\n      dup4\n        /* \"#utility.yul\":23066:23086   */\n      tag_289\n      jump\t// in\n    tag_560:\n        /* \"#utility.yul\":23061:23086   */\n      swap3\n      pop\n        /* \"#utility.yul\":23110:23111   */\n      dup3\n        /* \"#utility.yul\":23107:23108   */\n      dup3\n        /* \"#utility.yul\":23103:23112   */\n      sub\n        /* \"#utility.yul\":23095:23112   */\n      swap1\n      pop\n        /* \"#utility.yul\":23134:23135   */\n      dup2\n        /* \"#utility.yul\":23128:23132   */\n      dup2\n        /* \"#utility.yul\":23125:23136   */\n      gt\n        /* \"#utility.yul\":23122:23159   */\n      iszero\n      tag_561\n      jumpi\n        /* \"#utility.yul\":23139:23157   */\n      tag_562\n      tag_342\n      jump\t// in\n    tag_562:\n        /* \"#utility.yul\":23122:23159   */\n    tag_561:\n        /* \"#utility.yul\":22972:23166   */\n      swap3\n      swap2\n      pop\n      pop\n      jump\t// out\n        /* \"#utility.yul\":23172:23352   */\n    tag_253:\n        /* \"#utility.yul\":23220:23297   */\n      0x4e487b7100000000000000000000000000000000000000000000000000000000\n        /* \"#utility.yul\":23217:23218   */\n      0x00\n        /* \"#utility.yul\":23210:23298   */\n      mstore\n        /* \"#utility.yul\":23317:23321   */\n      0x31\n        /* \"#utility.yul\":23314:23315   */\n      0x04\n        /* \"#utility.yul\":23307:23322   */\n      mstore\n        /* \"#utility.yul\":23341:23345   */\n      0x24\n        /* \"#utility.yul\":23338:23339   */\n      0x00\n        /* \"#utility.yul\":23331:23346   */\n      revert\n        /* \"#utility.yul\":23358:23591   */\n    tag_257:\n        /* \"#utility.yul\":23397:23400   */\n      0x00\n        /* \"#utility.yul\":23420:23444   */\n      tag_565\n        /* \"#utility.yul\":23438:23443   */\n      dup3\n        /* \"#utility.yul\":23420:23444   */\n      tag_289\n      jump\t// in\n    tag_565:\n        /* \"#utility.yul\":23411:23444   */\n      swap2\n      pop\n        /* \"#utility.yul\":23466:23532   */\n      0xffffffffffffffffffffffffffffffffffffffffffffffffffffffffffffffff\n        /* \"#utility.yul\":23459:23464   */\n      dup3\n        /* \"#utility.yul\":23456:23533   */\n      sub\n        /* \"#utility.yul\":23453:23556   */\n      tag_566\n      jumpi\n        /* \"#utility.yul\":23536:23554   */\n      tag_567\n      tag_342\n      jump\t// in\n    tag_567:\n        /* \"#utility.yul\":23453:23556   */\n    tag_566:\n        /* \"#utility.yul\":23583:23584   */\n      0x01\n        /* \"#utility.yul\":23576:23581   */\n      dup3\n        /* \"#utility.yul\":23572:23585   */\n      add\n        /* \"#utility.yul\":23565:23585   */\n      swap1\n      pop\n        /* \"#utility.yul\":23358:23591   */\n      swap2\n      swap1\n      pop\n      jump\t// out\n        /* \"#utility.yul\":23597:23676   */\n    tag_343:\n        /* \"#utility.yul\":23636:23643   */\n      0x00\n        /* \"#utility.yul\":23665:23670   */\n      dup2\n        /* \"#utility.yul\":23654:23670   */\n      swap1\n      pop\n        /* \"#utility.yul\":23597:23676   */\n      swap2\n      swap1\n      pop\n      jump\t// out\n        /* \"#utility.yul\":23682:23839   */\n    tag_344:\n        /* \"#utility.yul\":23787:23832   */\n      tag_570\n        /* \"#utility.yul\":23807:23831   */\n      tag_571\n        /* \"#utility.yul\":23825:23830   */\n      dup3\n        /* \"#utility.yul\":23807:23831   */\n      tag_289\n      jump\t// in\n    tag_571:\n        /* \"#utility.yul\":23787:23832   */\n      tag_343\n      jump\t// in\n    tag_570:\n        /* \"#utility.yul\":23782:23785   */\n      dup3\n        /* \"#utility.yul\":23775:23833   */\n      mstore\n        /* \"#utility.yul\":23682:23839   */\n      pop\n      pop\n      jump\t// out\n        /* \"#utility.yul\":23845:23939   */\n    tag_345:\n        /* \"#utility.yul\":23878:23886   */\n      0x00\n        /* \"#utility.yul\":23926:23931   */\n      dup2\n        /* \"#utility.yul\":23922:23924   */\n      0x60\n        /* \"#utility.yul\":23918:23932   */\n      shl\n        /* \"#utility.yul\":23897:23932   */\n      swap1\n      pop\n        /* \"#utility.yul\":23845:23939   */\n      swap2\n      swap1\n      pop\n      jump\t// out\n        /* \"#utility.yul\":23945:24039   */\n    tag_346:\n        /* \"#utility.yul\":23984:23991   */\n      0x00\n        /* \"#utility.yul\":24013:24033   */\n      tag_574\n        /* \"#utility.yul\":24027:24032   */\n      dup3\n        /* \"#utility.yul\":24013:24033   */\n      tag_345\n      jump\t// in\n    tag_574:\n        /* \"#utility.yul\":24002:24033   */\n      swap1\n      pop\n        /* \"#utility.yul\":23945:24039   */\n      swap2\n      swap1\n      pop\n      jump\t// out\n        /* \"#utility.yul\":24045:24145   */\n    tag_347:\n        /* \"#utility.yul\":24084:24091   */\n      0x00\n        /* \"#utility.yul\":24113:24139   */\n      tag_576\n        /* \"#utility.yul\":24133:24138   */\n      dup3\n        /* \"#utility.yul\":24113:24139   */\n      tag_346\n      jump\t// in\n    tag_576:\n        /* \"#utility.yul\":24102:24139   */\n      swap1\n      pop\n        /* \"#utility.yul\":24045:24145   */\n      swap2\n      swap1\n      pop\n      jump\t// out\n        /* \"#utility.yul\":24151:24308   */\n    tag_348:\n        /* \"#utility.yul\":24256:24301   */\n      tag_578\n        /* \"#utility.yul\":24276:24300   */\n      tag_579\n        /* \"#utility.yul\":24294:24299   */\n      dup3\n        /* \"#utility.yul\":24276:24300   */\n      tag_293\n      jump\t// in\n    tag_579:\n        /* \"#utility.yul\":24256:24301   */\n      tag_347\n      jump\t// in\n    tag_578:\n        /* \"#utility.yul\":24251:24254   */\n      dup3\n        /* \"#utility.yul\":24244:24302   */\n      mstore\n        /* \"#utility.yul\":24151:24308   */\n      pop\n      pop\n      jump\t// out\n        /* \"#utility.yul\":24314:24852   */\n    tag_259:\n        /* \"#utility.yul\":24482:24485   */\n      0x00\n        /* \"#utility.yul\":24497:24572   */\n      tag_581\n        /* \"#utility.yul\":24568:24571   */\n      dup3\n        /* \"#utility.yul\":24559:24565   */\n      dup7\n        /* \"#utility.yul\":24497:24572   */\n      tag_344\n      jump\t// in\n    tag_581:\n        /* \"#utility.yul\":24597:24599   */\n      0x20\n        /* \"#utility.yul\":24592:24595   */\n      dup3\n        /* \"#utility.yul\":24588:24600   */\n      add\n        /* \"#utility.yul\":24581:24600   */\n      swap2\n      pop\n        /* \"#utility.yul\":24610:24685   */\n      tag_582\n        /* \"#utility.yul\":24681:24684   */\n      dup3\n        /* \"#utility.yul\":24672:24678   */\n      dup6\n        /* \"#utility.yul\":24610:24685   */\n      tag_348\n      jump\t// in\n    tag_582:\n        /* \"#utility.yul\":24710:24712   */\n      0x14\n        /* \"#utility.yul\":24705:24708   */\n      dup3\n        /* \"#utility.yul\":24701:24713   */\n      add\n        /* \"#utility.yul\":24694:24713   */\n      swap2\n      pop\n        /* \"#utility.yul\":24723:24798   */\n      tag_583\n        /* \"#utility.yul\":24794:24797   */\n      dup3\n        /* \"#utility.yul\":24785:24791   */\n      dup5\n        /* \"#utility.yul\":24723:24798   */\n      tag_344\n      jump\t// in\n    tag_583:\n        /* \"#utility.yul\":24823:24825   */\n      0x20\n        /* \"#utility.yul\":24818:24821   */\n      dup3\n        /* \"#utility.yul\":24814:24826   */\n      add\n        /* \"#utility.yul\":24807:24826   */\n      swap2\n      pop\n        /* \"#utility.yul\":24843:24846   */\n      dup2\n        /* \"#utility.yul\":24836:24846   */\n      swap1\n      pop\n        /* \"#utility.yul\":24314:24852   */\n      swap5\n      swap4\n      pop\n      pop\n      pop\n      pop\n      jump\t// out\n        /* \"#utility.yul\":24858:24935   */\n    tag_349:\n        /* \"#utility.yul\":24895:24902   */\n      0x00\n        /* \"#utility.yul\":24924:24929   */\n      dup2\n        /* \"#utility.yul\":24913:24929   */\n      swap1\n      pop\n        /* \"#utility.yul\":24858:24935   */\n      swap2\n      swap1\n      pop\n      jump\t// out\n        /* \"#utility.yul\":24941:25059   */\n    tag_350:\n        /* \"#utility.yul\":25028:25052   */\n      tag_586\n        /* \"#utility.yul\":25046:25051   */\n      dup2\n        /* \"#utility.yul\":25028:25052   */\n      tag_349\n      jump\t// in\n    tag_586:\n        /* \"#utility.yul\":25023:25026   */\n      dup3\n        /* \"#utility.yul\":25016:25053   */\n      mstore\n        /* \"#utility.yul\":24941:25059   */\n      pop\n      pop\n      jump\t// out\n        /* \"#utility.yul\":25065:25166   */\n    tag_351:\n        /* \"#utility.yul\":25101:25108   */\n      0x00\n        /* \"#utility.yul\":25141:25159   */\n      0xffffffffffffffff\n        /* \"#utility.yul\":25134:25139   */\n      dup3\n        /* \"#utility.yul\":25130:25160   */\n      and\n        /* \"#utility.yul\":25119:25160   */\n      swap1\n      pop\n        /* \"#utility.yul\":25065:25166   */\n      swap2\n      swap1\n      pop\n      jump\t// out\n        /* \"#utility.yul\":25172:25287   */\n    tag_352:\n        /* \"#utility.yul\":25257:25280   */\n      tag_589\n        /* \"#utility.yul\":25274:25279   */\n      dup2\n        /* \"#utility.yul\":25257:25280   */\n      tag_351\n      jump\t// in\n    tag_589:\n        /* \"#utility.yul\":25252:25255   */\n      dup3\n        /* \"#utility.yul\":25245:25281   */\n      mstore\n        /* \"#utility.yul\":25172:25287   */\n      pop\n      pop\n      jump\t// out\n        /* \"#utility.yul\":25293:25382   */\n    tag_353:\n        /* \"#utility.yul\":25329:25336   */\n      0x00\n        /* \"#utility.yul\":25369:25375   */\n      0xffff\n        /* \"#utility.yul\":25362:25367   */\n      dup3\n        /* \"#utility.yul\":25358:25376   */\n      and\n        /* \"#utility.yul\":25347:25376   */\n      swap1\n      pop\n        /* \"#utility.yul\":25293:25382   */\n      swap2\n      swap1\n      pop\n      jump\t// out\n        /* \"#utility.yul\":25388:25503   */\n    tag_354:\n        /* \"#utility.yul\":25473:25496   */\n      tag_592\n        /* \"#utility.yul\":25490:25495   */\n      dup2\n        /* \"#utility.yul\":25473:25496   */\n      tag_353\n      jump\t// in\n    tag_592:\n        /* \"#utility.yul\":25468:25471   */\n      dup3\n        /* \"#utility.yul\":25461:25497   */\n      mstore\n        /* \"#utility.yul\":25388:25503   */\n      pop\n      pop\n      jump\t// out\n        /* \"#utility.yul\":25509:25624   */\n    tag_355:\n        /* \"#utility.yul\":25594:25617   */\n      tag_594\n        /* \"#utility.yul\":25611:25616   */\n      dup2\n        /* \"#utility.yul\":25594:25617   */\n      tag_315\n      jump\t// in\n    tag_594:\n        /* \"#utility.yul\":25589:25592   */\n      dup3\n        /* \"#utility.yul\":25582:25618   */\n      mstore\n        /* \"#utility.yul\":25509:25624   */\n      pop\n      pop\n      jump\t// out\n        /* \"#utility.yul\":25630:26278   */\n    tag_262:\n        /* \"#utility.yul\":25827:25831   */\n      0x00\n        /* \"#utility.yul\":25865:25868   */\n      0xa0\n        /* \"#utility.yul\":25854:25863   */\n      dup3\n        /* \"#utility.yul\":25850:25869   */\n      add\n        /* \"#utility.yul\":25842:25869   */\n      swap1\n      pop\n        /* \"#utility.yul\":25879:25950   */\n      tag_596\n        /* \"#utility.yul\":25947:25948   */\n      0x00\n        /* \"#utility.yul\":25936:25945   */\n      dup4\n        /* \"#utility.yul\":25932:25949   */\n      add\n        /* \"#utility.yul\":25923:25929   */\n      dup9\n        /* \"#utility.yul\":25879:25950   */\n      tag_350\n      jump\t// in\n    tag_596:\n        /* \"#utility.yul\":25960:26030   */\n      tag_597\n        /* \"#utility.yul\":26026:26028   */\n      0x20\n        /* \"#utility.yul\":26015:26024   */\n      dup4\n        /* \"#utility.yul\":26011:26029   */\n      add\n        /* \"#utility.yul\":26002:26008   */\n      dup8\n        /* \"#utility.yul\":25960:26030   */\n      tag_352\n      jump\t// in\n    tag_597:\n        /* \"#utility.yul\":26040:26110   */\n      tag_598\n        /* \"#utility.yul\":26106:26108   */\n      0x40\n        /* \"#utility.yul\":26095:26104   */\n      dup4\n        /* \"#utility.yul\":26091:26109   */\n      add\n        /* \"#utility.yul\":26082:26088   */\n      dup7\n        /* \"#utility.yul\":26040:26110   */\n      tag_354\n      jump\t// in\n    tag_598:\n        /* \"#utility.yul\":26120:26190   */\n      tag_599\n        /* \"#utility.yul\":26186:26188   */\n      0x60\n        /* \"#utility.yul\":26175:26184   */\n      dup4\n        /* \"#utility.yul\":26171:26189   */\n      add\n        /* \"#utility.yul\":26162:26168   */\n      dup6\n        /* \"#utility.yul\":26120:26190   */\n      tag_355\n      jump\t// in\n    tag_599:\n        /* \"#utility.yul\":26200:26271   */\n      tag_600\n        /* \"#utility.yul\":26266:26269   */\n      0x80\n        /* \"#utility.yul\":26255:26264   */\n      dup4\n        /* \"#utility.yul\":26251:26270   */\n      add\n        /* \"#utility.yul\":26242:26248   */\n      dup5\n        /* \"#utility.yul\":26200:26271   */\n      tag_355\n      jump\t// in\n    tag_600:\n        /* \"#utility.yul\":25630:26278   */\n      swap7\n      swap6\n      pop\n      pop\n      pop\n      pop\n      pop\n      pop\n      jump\t// out\n        /* \"#utility.yul\":26284:26427   */\n    tag_356:\n        /* \"#utility.yul\":26341:26346   */\n      0x00\n        /* \"#utility.yul\":26372:26378   */\n      dup2\n        /* \"#utility.yul\":26366:26379   */\n      mload\n        /* \"#utility.yul\":26357:26379   */\n      swap1\n      pop\n        /* \"#utility.yul\":26388:26421   */\n      tag_602\n        /* \"#utility.yul\":26415:26420   */\n      dup2\n        /* \"#utility.yul\":26388:26421   */\n      tag_290\n      jump\t// in\n    tag_602:\n        /* \"#utility.yul\":26284:26427   */\n      swap3\n      swap2\n      pop\n      pop\n      jump\t// out\n        /* \"#utility.yul\":26433:26784   */\n    tag_266:\n        /* \"#utility.yul\":26503:26509   */\n      0x00\n        /* \"#utility.yul\":26552:26554   */\n      0x20\n        /* \"#utility.yul\":26540:26549   */\n      dup3\n        /* \"#utility.yul\":26531:26538   */\n      dup5\n        /* \"#utility.yul\":26527:26550   */\n      sub\n        /* \"#utility.yul\":26523:26555   */\n      slt\n        /* \"#utility.yul\":26520:26639   */\n      iszero\n      tag_604\n      jumpi\n        /* \"#utility.yul\":26558:26637   */\n      tag_605\n      tag_287\n      jump\t// in\n    tag_605:\n        /* \"#utility.yul\":26520:26639   */\n    tag_604:\n        /* \"#utility.yul\":26678:26679   */\n      0x00\n        /* \"#utility.yul\":26703:26767   */\n      tag_606\n        /* \"#utility.yul\":26759:26766   */\n      dup5\n        /* \"#utility.yul\":26750:26756   */\n      dup3\n        /* \"#utility.yul\":26739:26748   */\n      dup6\n        /* \"#utility.yul\":26735:26757   */\n      add\n        /* \"#utility.yul\":26703:26767   */\n      tag_356\n      jump\t// in\n    tag_606:\n        /* \"#utility.yul\":26693:26767   */\n      swap2\n      pop\n        /* \"#utility.yul\":26649:26777   */\n      pop\n        /* \"#utility.yul\":26433:26784   */\n      swap3\n      swap2\n      pop\n      pop\n      jump\t// out\n        /* \"#utility.yul\":26790:27118   */\n    tag_274:\n        /* \"#utility.yul\":26909:26913   */\n      0x00\n        /* \"#utility.yul\":26947:26949   */\n      0x40\n        /* \"#utility.yul\":26936:26945   */\n      dup3\n        /* \"#utility.yul\":26932:26950   */\n      add\n        /* \"#utility.yul\":26924:26950   */\n      swap1\n      pop\n        /* \"#utility.yul\":26960:27031   */\n      tag_608\n        /* \"#utility.yul\":27028:27029   */\n      0x00\n        /* \"#utility.yul\":27017:27026   */\n      dup4\n        /* \"#utility.yul\":27013:27030   */\n      add\n        /* \"#utility.yul\":27004:27010   */\n      dup6\n        /* \"#utility.yul\":26960:27031   */\n      tag_295\n      jump\t// in\n    tag_608:\n        /* \"#utility.yul\":27041:27111   */\n      tag_609\n        /* \"#utility.yul\":27107:27109   */\n      0x20\n        /* \"#utility.yul\":27096:27105   */\n      dup4\n        /* \"#utility.yul\":27092:27110   */\n      add\n        /* \"#utility.yul\":27083:27089   */\n      dup5\n        /* \"#utility.yul\":27041:27111   */\n      tag_355\n      jump\t// in\n    tag_609:\n        /* \"#utility.yul\":26790:27118   */\n      swap4\n      swap3\n      pop\n      pop\n      pop\n      jump\t// out\n        /* \"#utility.yul\":27124:27297   */\n    tag_357:\n        /* \"#utility.yul\":27264:27289   */\n      0x43616e6e6f74207472616e7366657220746f2073656c66000000000000000000\n        /* \"#utility.yul\":27260:27261   */\n      0x00\n        /* \"#utility.yul\":27252:27258   */\n      dup3\n        /* \"#utility.yul\":27248:27262   */\n      add\n        /* \"#utility.yul\":27241:27290   */\n      mstore\n        /* \"#utility.yul\":27124:27297   */\n      pop\n      jump\t// out\n        /* \"#utility.yul\":27303:27669   */\n    tag_358:\n        /* \"#utility.yul\":27445:27448   */\n      0x00\n        /* \"#utility.yul\":27466:27533   */\n      tag_612\n        /* \"#utility.yul\":27530:27532   */\n      0x17\n        /* \"#utility.yul\":27525:27528   */\n      dup4\n        /* \"#utility.yul\":27466:27533   */\n      tag_318\n      jump\t// in\n    tag_612:\n        /* \"#utility.yul\":27459:27533   */\n      swap2\n      pop\n        /* \"#utility.yul\":27542:27635   */\n      tag_613\n        /* \"#utility.yul\":27631:27634   */\n      dup3\n        /* \"#utility.yul\":27542:27635   */\n      tag_357\n      jump\t// in\n    tag_613:\n        /* \"#utility.yul\":27660:27662   */\n      0x20\n        /* \"#utility.yul\":27655:27658   */\n      dup3\n        /* \"#utility.yul\":27651:27663   */\n      add\n        /* \"#utility.yul\":27644:27663   */\n      swap1\n      pop\n        /* \"#utility.yul\":27303:27669   */\n      swap2\n      swap1\n      pop\n      jump\t// out\n        /* \"#utility.yul\":27675:28094   */\n    tag_278:\n        /* \"#utility.yul\":27841:27845   */\n      0x00\n        /* \"#utility.yul\":27879:27881   */\n      0x20\n        /* \"#utility.yul\":27868:27877   */\n      dup3\n        /* \"#utility.yul\":27864:27882   */\n      add\n        /* \"#utility.yul\":27856:27882   */\n      swap1\n      pop\n        /* \"#utility.yul\":27928:27937   */\n      dup2\n        /* \"#utility.yul\":27922:27926   */\n      dup2\n        /* \"#utility.yul\":27918:27938   */\n      sub\n        /* \"#utility.yul\":27914:27915   */\n      0x00\n        /* \"#utility.yul\":27903:27912   */\n      dup4\n        /* \"#utility.yul\":27899:27916   */\n      add\n        /* \"#utility.yul\":27892:27939   */\n      mstore\n        /* \"#utility.yul\":27956:28087   */\n      tag_615\n        /* \"#utility.yul\":28082:28086   */\n      dup2\n        /* \"#utility.yul\":27956:28087   */\n      tag_358\n      jump\t// in\n    tag_615:\n        /* \"#utility.yul\":27948:28087   */\n      swap1\n      pop\n        /* \"#utility.yul\":27675:28094   */\n      swap2\n      swap1\n      pop\n      jump\t// out\n\n    auxdata: 0xa26469706673582212202d2c0f808283a4f46c37224f51ad8c2a7de9ab650138e14b2f38b1f65ae43c9a64736f6c63430008180033\n}\n",
				"bytecode": {
					"linkReferences": {},
					"object": "60a0604052600160025573c5b407677bfaf9f5a1523ac54e630c046afe3b49600560006101000a81548173ffffffffffffffffffffffffffffffffffffffff021916908373ffffffffffffffffffffffffffffffffffffffff1602179055507f354d2f95da55398f44b7cff77da56283d9c6c829a4bdf1bbcaf2ad6a4d081f6160001b600855620186a0600960006101000a81548163ffffffff021916908363ffffffff1602179055506003600960046101000a81548161ffff021916908361ffff1602179055506001600960066101000a81548163ffffffff021916908363ffffffff160217905550348015620000f657600080fd5b50604051620031083803806200310883398181016040528101906200011c919062000473565b33806000732ed832ba664535e5886b75d64c46eb9a228c26108073ffffffffffffffffffffffffffffffffffffffff1660808173ffffffffffffffffffffffffffffffffffffffff168152505050600073ffffffffffffffffffffffffffffffffffffffff168273ffffffffffffffffffffffffffffffffffffffff1603620001dc576040517f08c379a0000000000000000000000000000000000000000000000000000000008152600401620001d39062000506565b60405180910390fd5b816000806101000a81548173ffffffffffffffffffffffffffffffffffffffff021916908373ffffffffffffffffffffffffffffffffffffffff160217905550600073ffffffffffffffffffffffffffffffffffffffff168173ffffffffffffffffffffffffffffffffffffffff161462000263576200026281620002fa60201b60201c565b5b505050732ed832ba664535e5886b75d64c46eb9a228c2610600b60006101000a81548173ffffffffffffffffffffffffffffffffffffffff021916908373ffffffffffffffffffffffffffffffffffffffff16021790555080600560146101000a81548167ffffffffffffffff021916908367ffffffffffffffff16021790555067016345785d8a0000600481905550506200059a565b3373ffffffffffffffffffffffffffffffffffffffff168173ffffffffffffffffffffffffffffffffffffffff16036200036b576040517f08c379a0000000000000000000000000000000000000000000000000000000008152600401620003629062000578565b60405180910390fd5b80600160006101000a81548173ffffffffffffffffffffffffffffffffffffffff021916908373ffffffffffffffffffffffffffffffffffffffff1602179055508073ffffffffffffffffffffffffffffffffffffffff1660008054906101000a900473ffffffffffffffffffffffffffffffffffffffff1673ffffffffffffffffffffffffffffffffffffffff167fed8889f560326eb138920d842192f0eb3dd22b4f139c87a2c57538e05bae127860405160405180910390a350565b600080fd5b600067ffffffffffffffff82169050919050565b6200044d816200042e565b81146200045957600080fd5b50565b6000815190506200046d8162000442565b92915050565b6000602082840312156200048c576200048b62000429565b5b60006200049c848285016200045c565b91505092915050565b600082825260208201905092915050565b7f43616e6e6f7420736574206f776e657220746f207a65726f0000000000000000600082015250565b6000620004ee601883620004a5565b9150620004fb82620004b6565b602082019050919050565b600060208201905081810360008301526200052181620004df565b9050919050565b7f43616e6e6f74207472616e7366657220746f2073656c66000000000000000000600082015250565b600062000560601783620004a5565b91506200056d8262000528565b602082019050919050565b60006020820190508181036000830152620005938162000551565b9050919050565b608051612b4b620005bd6000396000818161058d01526105e10152612b4b6000f3fe60806040526004361061012a5760003560e01c80638da5cb5b116100ab578063b4a91e1e1161006f578063b4a91e1e146103e1578063d8a4676f1461041e578063e5ed1d591461045c578063efaa55a014610478578063f2fde38b14610494578063fc2a88c3146104bd5761012a565b80638da5cb5b146102e75780638ee6747214610312578063978fffb81461034f578063a168fa8914610378578063b19068c7146103b65761012a565b80636916c9b0116100f25780636916c9b01461021657806369958ab91461024157806379ba50971461026a5780637f7f8968146102815780638796ba8c146102aa5761012a565b8063117a5b901461012f5780631fe543e3146101705780632d4f40c6146101995780634bf4f423146101c25780635a758cb7146101ed575b600080fd5b34801561013b57600080fd5b5061015660048036038101906101519190611d2d565b6104e8565b604051610167959493929190611dc5565b60405180910390f35b34801561017c57600080fd5b5061019760048036038101906101929190611f71565b61058b565b005b3480156101a557600080fd5b506101c060048036038101906101bb9190611ff9565b61064b565b005b3480156101ce57600080fd5b506101d7610697565b6040516101e49190612026565b60405180910390f35b3480156101f957600080fd5b50610214600480360381019061020f9190611f71565b6106bd565b005b34801561022257600080fd5b5061022b61098c565b60405161023891906120ff565b60405180910390f35b34801561024d57600080fd5b5061026860048036038101906102639190611d2d565b6109e4565b005b34801561027657600080fd5b5061027f610d00565b005b34801561028d57600080fd5b506102a860048036038101906102a39190611d2d565b610e95565b005b3480156102b657600080fd5b506102d160048036038101906102cc9190611d2d565b610ea7565b6040516102de9190612121565b60405180910390f35b3480156102f357600080fd5b506102fc610ecb565b6040516103099190612026565b60405180910390f35b34801561031e57600080fd5b5061033960048036038101906103349190611d2d565b610ef4565b6040516103469190612121565b60405180910390f35b34801561035b57600080fd5b5061037660048036038101906103719190612178565b610f18565b005b34801561038457600080fd5b5061039f600480360381019061039a9190611d2d565b610f44565b6040516103ad9291906121a5565b60405180910390f35b3480156103c257600080fd5b506103cb610f82565b6040516103d89190612121565b60405180910390f35b3480156103ed57600080fd5b5061040860048036038101906104039190611d2d565b610f88565b6040516104159190612121565b60405180910390f35b34801561042a57600080fd5b5061044560048036038101906104409190611d2d565b610fa0565b6040516104539291906121ce565b60405180910390f35b61047660048036038101906104719190611d2d565b6110cb565b005b610492600480360381019061048d9190611d2d565b61131b565b005b3480156104a057600080fd5b506104bb60048036038101906104b69190611ff9565b611632565b005b3480156104c957600080fd5b506104d2611646565b6040516104df9190612121565b60405180910390f35b600c6020528060005260406000206000915090508060000160009054906101000a900473ffffffffffffffffffffffffffffffffffffffff16908060010160009054906101000a900473ffffffffffffffffffffffffffffffffffffffff16908060020154908060030160009054906101000a900460ff16908060030160019054906101000a900473ffffffffffffffffffffffffffffffffffffffff16905085565b7f000000000000000000000000000000000000000000000000000000000000000073ffffffffffffffffffffffffffffffffffffffff163373ffffffffffffffffffffffffffffffffffffffff161461063d57337f00000000000000000000000000000000000000000000000000000000000000006040517f1cf993f40000000000000000000000000000000000000000000000000000000081526004016106349291906121fe565b60405180910390fd5b610647828261164c565b5050565b610653611746565b80600560006101000a81548173ffffffffffffffffffffffffffffffffffffffff021916908373ffffffffffffffffffffffffffffffffffffffff16021790555050565b600560009054906101000a900473ffffffffffffffffffffffffffffffffffffffff1681565b6000600c600084815260200190815260200160002090508060030160009054906101000a900460ff1615610726576040517f08c379a000000000000000000000000000000000000000000000000000000000815260040161071d90612284565b60405180910390fd5b600560009054906101000a900473ffffffffffffffffffffffffffffffffffffffff1673ffffffffffffffffffffffffffffffffffffffff163373ffffffffffffffffffffffffffffffffffffffff16146107b6576040517f08c379a00000000000000000000000000000000000000000000000000000000081526004016107ad906122f0565b60405180910390fd5b60006002836000815181106107ce576107cd612310565b5b60200260200101516107e0919061236e565b1461080f578060010160009054906101000a900473ffffffffffffffffffffffffffffffffffffffff16610835565b8060000160009054906101000a900473ffffffffffffffffffffffffffffffffffffffff165b8160030160016101000a81548173ffffffffffffffffffffffffffffffffffffffff021916908373ffffffffffffffffffffffffffffffffffffffff16021790555060018160030160006101000a81548160ff0219169083151502179055508060030160019054906101000a900473ffffffffffffffffffffffffffffffffffffffff1673ffffffffffffffffffffffffffffffffffffffff166108fc6108ea600284600201546117d690919063ffffffff16565b9081150290604051600060405180830381858888f19350505050158015610915573d6000803e3d6000fd5b5061091f836117ec565b8060030160019054906101000a900473ffffffffffffffffffffffffffffffffffffffff1673ffffffffffffffffffffffffffffffffffffffff16837f7f40df5127524300187445e867486da572aab86769c0212e0b392bd87c4ca97f60405160405180910390a3505050565b606060038054806020026020016040519081016040528092919081815260200182805480156109da57602002820191906000526020600020905b8154815260200190600101908083116109c6575b5050505050905090565b6109ec611746565b6000600c60008381526020019081526020016000209050600073ffffffffffffffffffffffffffffffffffffffff168160000160009054906101000a900473ffffffffffffffffffffffffffffffffffffffff1673ffffffffffffffffffffffffffffffffffffffff1603610a96576040517f08c379a0000000000000000000000000000000000000000000000000000000008152600401610a8d906123eb565b60405180910390fd5b8060030160009054906101000a900460ff1615610ae8576040517f08c379a0000000000000000000000000000000000000000000000000000000008152600401610adf90612457565b60405180910390fd5b8060000160009054906101000a900473ffffffffffffffffffffffffffffffffffffffff1673ffffffffffffffffffffffffffffffffffffffff166108fc82600201549081150290604051600060405180830381858888f19350505050158015610b56573d6000803e3d6000fd5b50600073ffffffffffffffffffffffffffffffffffffffff168160010160009054906101000a900473ffffffffffffffffffffffffffffffffffffffff1673ffffffffffffffffffffffffffffffffffffffff1614610c1f578060010160009054906101000a900473ffffffffffffffffffffffffffffffffffffffff1673ffffffffffffffffffffffffffffffffffffffff166108fc82600201549081150290604051600060405180830381858888f19350505050158015610c1d573d6000803e3d6000fd5b505b610c28826117ec565b600c6000838152602001908152602001600020600080820160006101000a81549073ffffffffffffffffffffffffffffffffffffffff02191690556001820160006101000a81549073ffffffffffffffffffffffffffffffffffffffff021916905560028201600090556003820160006101000a81549060ff02191690556003820160016101000a81549073ffffffffffffffffffffffffffffffffffffffff02191690555050817f681705fdbd93dba3b679fd712577e9a86d57c5551c520f8c74857deb57f9623f60405160405180910390a25050565b600160009054906101000a900473ffffffffffffffffffffffffffffffffffffffff1673ffffffffffffffffffffffffffffffffffffffff163373ffffffffffffffffffffffffffffffffffffffff1614610d90576040517f08c379a0000000000000000000000000000000000000000000000000000000008152600401610d87906124c3565b60405180910390fd5b60008060009054906101000a900473ffffffffffffffffffffffffffffffffffffffff169050336000806101000a81548173ffffffffffffffffffffffffffffffffffffffff021916908373ffffffffffffffffffffffffffffffffffffffff1602179055506000600160006101000a81548173ffffffffffffffffffffffffffffffffffffffff021916908373ffffffffffffffffffffffffffffffffffffffff1602179055503373ffffffffffffffffffffffffffffffffffffffff168173ffffffffffffffffffffffffffffffffffffffff167f8be0079c531659141344cd1fd0a4f28419497f9722a3daafe3b4186f6b6457e060405160405180910390a350565b610e9d611746565b8060048190555050565b60068181548110610eb757600080fd5b906000526020600020016000915090505481565b60008060009054906101000a900473ffffffffffffffffffffffffffffffffffffffff16905090565b60038181548110610f0457600080fd5b906000526020600020016000915090505481565b610f20611746565b80600960006101000a81548163ffffffff021916908363ffffffff16021790555050565b600a6020528060005260406000206000915090508060000160009054906101000a900460ff16908060000160019054906101000a900460ff16905082565b60045481565b600d6020528060005260406000206000915090505481565b60006060600a600084815260200190815260200160002060000160019054906101000a900460ff16611007576040517f08c379a0000000000000000000000000000000000000000000000000000000008152600401610ffe9061252f565b60405180910390fd5b6000600a60008581526020019081526020016000206040518060600160405290816000820160009054906101000a900460ff161515151581526020016000820160019054906101000a900460ff16151515158152602001600182018054806020026020016040519081016040528092919081815260200182805480156110ac57602002820191906000526020600020905b815481526020019060010190808311611098575b5050505050815250509050806000015181604001519250925050915091565b600454341015611110576040517f08c379a0000000000000000000000000000000000000000000000000000000008152600401611107906125c1565b60405180910390fd5b600061111a6118b1565b90506040518060a001604052803373ffffffffffffffffffffffffffffffffffffffff168152602001600073ffffffffffffffffffffffffffffffffffffffff168152602001838152602001600015158152602001600073ffffffffffffffffffffffffffffffffffffffff16815250600c600083815260200190815260200160002060008201518160000160006101000a81548173ffffffffffffffffffffffffffffffffffffffff021916908373ffffffffffffffffffffffffffffffffffffffff16021790555060208201518160010160006101000a81548173ffffffffffffffffffffffffffffffffffffffff021916908373ffffffffffffffffffffffffffffffffffffffff1602179055506040820151816002015560608201518160030160006101000a81548160ff02191690831515021790555060808201518160030160016101000a81548173ffffffffffffffffffffffffffffffffffffffff021916908373ffffffffffffffffffffffffffffffffffffffff16021790555090505060038190806001815401808255809150506001900390600052602060002001600090919091909150553373ffffffffffffffffffffffffffffffffffffffff16817f0c82908456d66c43e9de63edd66f9faf875c8f3a12f936e162d675ec42c354448460405161130f9190612121565b60405180910390a35050565b6000600c600083815260200190815260200160002090508060030160009054906101000a900460ff1615611384576040517f08c379a000000000000000000000000000000000000000000000000000000000815260040161137b90612457565b60405180910390fd5b600073ffffffffffffffffffffffffffffffffffffffff168160010160009054906101000a900473ffffffffffffffffffffffffffffffffffffffff1673ffffffffffffffffffffffffffffffffffffffff1614611417576040517f08c379a000000000000000000000000000000000000000000000000000000000815260040161140e9061262d565b60405180910390fd5b8060020154341461145d576040517f08c379a000000000000000000000000000000000000000000000000000000000815260040161145490612699565b60405180910390fd5b600073ffffffffffffffffffffffffffffffffffffffff168160000160009054906101000a900473ffffffffffffffffffffffffffffffffffffffff1673ffffffffffffffffffffffffffffffffffffffff16036114f0576040517f08c379a00000000000000000000000000000000000000000000000000000000081526004016114e7906123eb565b60405180910390fd5b8060000160009054906101000a900473ffffffffffffffffffffffffffffffffffffffff1673ffffffffffffffffffffffffffffffffffffffff163373ffffffffffffffffffffffffffffffffffffffff1603611582576040517f08c379a000000000000000000000000000000000000000000000000000000000815260040161157990612705565b60405180910390fd5b338160010160006101000a81548173ffffffffffffffffffffffffffffffffffffffff021916908373ffffffffffffffffffffffffffffffffffffffff16021790555060006115cf6118fc565b905082600d6000838152602001908152602001600020819055503373ffffffffffffffffffffffffffffffffffffffff16837f87969bc7faf902221a147b95ceba76e011c5efb0339a0a8ee7a2bb82d9cfbbd660405160405180910390a3505050565b61163a611746565b61164381611b4d565b50565b60075481565b600a600083815260200190815260200160002060000160019054906101000a900460ff166116af576040517f08c379a00000000000000000000000000000000000000000000000000000000081526004016116a69061252f565b60405180910390fd5b6001600a600084815260200190815260200160002060000160006101000a81548160ff02191690831515021790555080600a60008481526020019081526020016000206001019080519060200190611708929190611c79565b507ffe2e2d779dba245964d4e3ef9b994be63856fd568bf7d3ca9e224755cb1bd54d828260405161173a929190612725565b60405180910390a15050565b60008054906101000a900473ffffffffffffffffffffffffffffffffffffffff1673ffffffffffffffffffffffffffffffffffffffff163373ffffffffffffffffffffffffffffffffffffffff16146117d4576040517f08c379a00000000000000000000000000000000000000000000000000000000081526004016117cb906127a1565b60405180910390fd5b565b600081836117e491906127f0565b905092915050565b60005b6003805490508110156118ad57816003828154811061181157611810612310565b5b9060005260206000200154036118a057600360016003805490506118359190612832565b8154811061184657611845612310565b5b90600052602060002001546003828154811061186557611864612310565b5b9060005260206000200181905550600380548061188557611884612866565b5b600190038181906000526020600020016000905590556118ad565b80806001019150506117ef565b5050565b60004233600260008154809291906118c890612895565b919050556040516020016118de93929190612946565b6040516020818303038152906040528051906020012060001c905090565b6000600b60009054906101000a900473ffffffffffffffffffffffffffffffffffffffff1673ffffffffffffffffffffffffffffffffffffffff16635d3b1d30600854600560149054906101000a900467ffffffffffffffff16600960049054906101000a900461ffff16600960009054906101000a900463ffffffff16600960069054906101000a900463ffffffff166040518663ffffffff1660e01b81526004016119ad9594939291906129eb565b6020604051808303816000875af11580156119cc573d6000803e3d6000fd5b505050506040513d601f19601f820116820180604052508101906119f09190612a53565b90506040518060600160405280600015158152602001600115158152602001600067ffffffffffffffff811115611a2a57611a29611e2e565b5b604051908082528060200260200182016040528015611a585781602001602082028036833780820191505090505b50815250600a600083815260200190815260200160002060008201518160000160006101000a81548160ff02191690831515021790555060208201518160000160016101000a81548160ff0219169083151502179055506040820151816001019080519060200190611acb929190611c79565b509050506006819080600181540180825580915050600190039060005260206000200160009091909190915055806007819055507fcc58b13ad3eab50626c6a6300b1d139cd6ebb1688a7cced9461c2f7e762665ee81600960069054906101000a900463ffffffff16604051611b42929190612a80565b60405180910390a190565b3373ffffffffffffffffffffffffffffffffffffffff168173ffffffffffffffffffffffffffffffffffffffff1603611bbb576040517f08c379a0000000000000000000000000000000000000000000000000000000008152600401611bb290612af5565b60405180910390fd5b80600160006101000a81548173ffffffffffffffffffffffffffffffffffffffff021916908373ffffffffffffffffffffffffffffffffffffffff1602179055508073ffffffffffffffffffffffffffffffffffffffff1660008054906101000a900473ffffffffffffffffffffffffffffffffffffffff1673ffffffffffffffffffffffffffffffffffffffff167fed8889f560326eb138920d842192f0eb3dd22b4f139c87a2c57538e05bae127860405160405180910390a350565b828054828255906000526020600020908101928215611cb5579160200282015b82811115611cb4578251825591602001919060010190611c99565b5b509050611cc29190611cc6565b5090565b5b80821115611cdf576000816000905550600101611cc7565b5090565b6000604051905090565b600080fd5b600080fd5b6000819050919050565b611d0a81611cf7565b8114611d1557600080fd5b50565b600081359050611d2781611d01565b92915050565b600060208284031215611d4357611d42611ced565b5b6000611d5184828501611d18565b91505092915050565b600073ffffffffffffffffffffffffffffffffffffffff82169050919050565b6000611d8582611d5a565b9050919050565b611d9581611d7a565b82525050565b611da481611cf7565b82525050565b60008115159050919050565b611dbf81611daa565b82525050565b600060a082019050611dda6000830188611d8c565b611de76020830187611d8c565b611df46040830186611d9b565b611e016060830185611db6565b611e0e6080830184611d8c565b9695505050505050565b600080fd5b6000601f19601f8301169050919050565b7f4e487b7100000000000000000000000000000000000000000000000000000000600052604160045260246000fd5b611e6682611e1d565b810181811067ffffffffffffffff82111715611e8557611e84611e2e565b5b80604052505050565b6000611e98611ce3565b9050611ea48282611e5d565b919050565b600067ffffffffffffffff821115611ec457611ec3611e2e565b5b602082029050602081019050919050565b600080fd5b6000611eed611ee884611ea9565b611e8e565b90508083825260208201905060208402830185811115611f1057611f0f611ed5565b5b835b81811015611f395780611f258882611d18565b845260208401935050602081019050611f12565b5050509392505050565b600082601f830112611f5857611f57611e18565b5b8135611f68848260208601611eda565b91505092915050565b60008060408385031215611f8857611f87611ced565b5b6000611f9685828601611d18565b925050602083013567ffffffffffffffff811115611fb757611fb6611cf2565b5b611fc385828601611f43565b9150509250929050565b611fd681611d7a565b8114611fe157600080fd5b50565b600081359050611ff381611fcd565b92915050565b60006020828403121561200f5761200e611ced565b5b600061201d84828501611fe4565b91505092915050565b600060208201905061203b6000830184611d8c565b92915050565b600081519050919050565b600082825260208201905092915050565b6000819050602082019050919050565b61207681611cf7565b82525050565b6000612088838361206d565b60208301905092915050565b6000602082019050919050565b60006120ac82612041565b6120b6818561204c565b93506120c18361205d565b8060005b838110156120f25781516120d9888261207c565b97506120e483612094565b9250506001810190506120c5565b5085935050505092915050565b6000602082019050818103600083015261211981846120a1565b905092915050565b60006020820190506121366000830184611d9b565b92915050565b600063ffffffff82169050919050565b6121558161213c565b811461216057600080fd5b50565b6000813590506121728161214c565b92915050565b60006020828403121561218e5761218d611ced565b5b600061219c84828501612163565b91505092915050565b60006040820190506121ba6000830185611db6565b6121c76020830184611db6565b9392505050565b60006040820190506121e36000830185611db6565b81810360208301526121f581846120a1565b90509392505050565b60006040820190506122136000830185611d8c565b6122206020830184611d8c565b9392505050565b600082825260208201905092915050565b7f47616d6520697320616c726561647920636f6d706c6574656400000000000000600082015250565b600061226e601983612227565b915061227982612238565b602082019050919050565b6000602082019050818103600083015261229d81612261565b9050919050565b7f43616c6c6572206973206e6f742067616d6520626f7400000000000000000000600082015250565b60006122da601683612227565b91506122e5826122a4565b602082019050919050565b60006020820190508181036000830152612309816122cd565b9050919050565b7f4e487b7100000000000000000000000000000000000000000000000000000000600052603260045260246000fd5b7f4e487b7100000000000000000000000000000000000000000000000000000000600052601260045260246000fd5b600061237982611cf7565b915061238483611cf7565b9250826123945761239361233f565b5b828206905092915050565b7f47616d6520646f6573206e6f7420657869737400000000000000000000000000600082015250565b60006123d5601383612227565b91506123e08261239f565b602082019050919050565b60006020820190508181036000830152612404816123c8565b9050919050565b7f47616d6520697320636f6d706c65746564000000000000000000000000000000600082015250565b6000612441601183612227565b915061244c8261240b565b602082019050919050565b6000602082019050818103600083015261247081612434565b9050919050565b7f4d7573742062652070726f706f736564206f776e657200000000000000000000600082015250565b60006124ad601683612227565b91506124b882612477565b602082019050919050565b600060208201905081810360008301526124dc816124a0565b9050919050565b7f72657175657374206e6f7420666f756e64000000000000000000000000000000600082015250565b6000612519601183612227565b9150612524826124e3565b602082019050919050565b600060208201905081810360008301526125488161250c565b9050919050565b7f576167657220616d6f756e74206973206c657373207468616e206d696e696d7560008201527f6d57616765720000000000000000000000000000000000000000000000000000602082015250565b60006125ab602683612227565b91506125b68261254f565b604082019050919050565b600060208201905081810360008301526125da8161259e565b9050919050565b7f47616d6520697320616c7265616479206a6f696e656400000000000000000000600082015250565b6000612617601683612227565b9150612622826125e1565b602082019050919050565b600060208201905081810360008301526126468161260a565b9050919050565b7f496e636f727265637420616d6f756e742073656e740000000000000000000000600082015250565b6000612683601583612227565b915061268e8261264d565b602082019050919050565b600060208201905081810360008301526126b281612676565b9050919050565b7f596f752063616e6e6f74206a6f696e20796f7572206f776e2067616d65000000600082015250565b60006126ef601d83612227565b91506126fa826126b9565b602082019050919050565b6000602082019050818103600083015261271e816126e2565b9050919050565b600060408201905061273a6000830185611d9b565b818103602083015261274c81846120a1565b90509392505050565b7f4f6e6c792063616c6c61626c65206279206f776e657200000000000000000000600082015250565b600061278b601683612227565b915061279682612755565b602082019050919050565b600060208201905081810360008301526127ba8161277e565b9050919050565b7f4e487b7100000000000000000000000000000000000000000000000000000000600052601160045260246000fd5b60006127fb82611cf7565b915061280683611cf7565b925082820261281481611cf7565b9150828204841483151761282b5761282a6127c1565b5b5092915050565b600061283d82611cf7565b915061284883611cf7565b92508282039050818111156128605761285f6127c1565b5b92915050565b7f4e487b7100000000000000000000000000000000000000000000000000000000600052603160045260246000fd5b60006128a082611cf7565b91507fffffffffffffffffffffffffffffffffffffffffffffffffffffffffffffffff82036128d2576128d16127c1565b5b600182019050919050565b6000819050919050565b6128f86128f382611cf7565b6128dd565b82525050565b60008160601b9050919050565b6000612916826128fe565b9050919050565b60006129288261290b565b9050919050565b61294061293b82611d7a565b61291d565b82525050565b600061295282866128e7565b602082019150612962828561292f565b60148201915061297282846128e7565b602082019150819050949350505050565b6000819050919050565b61299681612983565b82525050565b600067ffffffffffffffff82169050919050565b6129b98161299c565b82525050565b600061ffff82169050919050565b6129d6816129bf565b82525050565b6129e58161213c565b82525050565b600060a082019050612a00600083018861298d565b612a0d60208301876129b0565b612a1a60408301866129cd565b612a2760608301856129dc565b612a3460808301846129dc565b9695505050505050565b600081519050612a4d81611d01565b92915050565b600060208284031215612a6957612a68611ced565b5b6000612a7784828501612a3e565b91505092915050565b6000604082019050612a956000830185611d9b565b612aa260208301846129dc565b9392505050565b7f43616e6e6f74207472616e7366657220746f2073656c66000000000000000000600082015250565b6000612adf601783612227565b9150612aea82612aa9565b602082019050919050565b60006020820190508181036000830152612b0e81612ad2565b905091905056fea26469706673582212202d2c0f808283a4f46c37224f51ad8c2a7de9ab650138e14b2f38b1f65ae43c9a64736f6c63430008180033",
					"opcodes": "PUSH1 0xA0 PUSH1 0x40 MSTORE PUSH1 0x1 PUSH1 0x2 SSTORE PUSH20 0xC5B407677BFAF9F5A1523AC54E630C046AFE3B49 PUSH1 0x5 PUSH1 0x0 PUSH2 0x100 EXP DUP2 SLOAD DUP2 PUSH20 0xFFFFFFFFFFFFFFFFFFFFFFFFFFFFFFFFFFFFFFFF MUL NOT AND SWAP1 DUP4 PUSH20 0xFFFFFFFFFFFFFFFFFFFFFFFFFFFFFFFFFFFFFFFF AND MUL OR SWAP1 SSTORE POP PUSH32 0x354D2F95DA55398F44B7CFF77DA56283D9C6C829A4BDF1BBCAF2AD6A4D081F61 PUSH1 0x0 SHL PUSH1 0x8 SSTORE PUSH3 0x186A0 PUSH1 0x9 PUSH1 0x0 PUSH2 0x100 EXP DUP2 SLOAD DUP2 PUSH4 0xFFFFFFFF MUL NOT AND SWAP1 DUP4 PUSH4 0xFFFFFFFF AND MUL OR SWAP1 SSTORE POP PUSH1 0x3 PUSH1 0x9 PUSH1 0x4 PUSH2 0x100 EXP DUP2 SLOAD DUP2 PUSH2 0xFFFF MUL NOT AND SWAP1 DUP4 PUSH2 0xFFFF AND MUL OR SWAP1 SSTORE POP PUSH1 0x1 PUSH1 0x9 PUSH1 0x6 PUSH2 0x100 EXP DUP2 SLOAD DUP2 PUSH4 0xFFFFFFFF MUL NOT AND SWAP1 DUP4 PUSH4 0xFFFFFFFF AND MUL OR SWAP1 SSTORE POP CALLVALUE DUP1 ISZERO PUSH3 0xF6 JUMPI PUSH1 0x0 DUP1 REVERT JUMPDEST POP PUSH1 0x40 MLOAD PUSH3 0x3108 CODESIZE SUB DUP1 PUSH3 0x3108 DUP4 CODECOPY DUP2 DUP2 ADD PUSH1 0x40 MSTORE DUP2 ADD SWAP1 PUSH3 0x11C SWAP2 SWAP1 PUSH3 0x473 JUMP JUMPDEST CALLER DUP1 PUSH1 0x0 PUSH20 0x2ED832BA664535E5886B75D64C46EB9A228C2610 DUP1 PUSH20 0xFFFFFFFFFFFFFFFFFFFFFFFFFFFFFFFFFFFFFFFF AND PUSH1 0x80 DUP2 PUSH20 0xFFFFFFFFFFFFFFFFFFFFFFFFFFFFFFFFFFFFFFFF AND DUP2 MSTORE POP POP POP PUSH1 0x0 PUSH20 0xFFFFFFFFFFFFFFFFFFFFFFFFFFFFFFFFFFFFFFFF AND DUP3 PUSH20 0xFFFFFFFFFFFFFFFFFFFFFFFFFFFFFFFFFFFFFFFF AND SUB PUSH3 0x1DC JUMPI PUSH1 0x40 MLOAD PUSH32 0x8C379A000000000000000000000000000000000000000000000000000000000 DUP2 MSTORE PUSH1 0x4 ADD PUSH3 0x1D3 SWAP1 PUSH3 0x506 JUMP JUMPDEST PUSH1 0x40 MLOAD DUP1 SWAP2 SUB SWAP1 REVERT JUMPDEST DUP2 PUSH1 0x0 DUP1 PUSH2 0x100 EXP DUP2 SLOAD DUP2 PUSH20 0xFFFFFFFFFFFFFFFFFFFFFFFFFFFFFFFFFFFFFFFF MUL NOT AND SWAP1 DUP4 PUSH20 0xFFFFFFFFFFFFFFFFFFFFFFFFFFFFFFFFFFFFFFFF AND MUL OR SWAP1 SSTORE POP PUSH1 0x0 PUSH20 0xFFFFFFFFFFFFFFFFFFFFFFFFFFFFFFFFFFFFFFFF AND DUP2 PUSH20 0xFFFFFFFFFFFFFFFFFFFFFFFFFFFFFFFFFFFFFFFF AND EQ PUSH3 0x263 JUMPI PUSH3 0x262 DUP2 PUSH3 0x2FA PUSH1 0x20 SHL PUSH1 0x20 SHR JUMP JUMPDEST JUMPDEST POP POP POP PUSH20 0x2ED832BA664535E5886B75D64C46EB9A228C2610 PUSH1 0xB PUSH1 0x0 PUSH2 0x100 EXP DUP2 SLOAD DUP2 PUSH20 0xFFFFFFFFFFFFFFFFFFFFFFFFFFFFFFFFFFFFFFFF MUL NOT AND SWAP1 DUP4 PUSH20 0xFFFFFFFFFFFFFFFFFFFFFFFFFFFFFFFFFFFFFFFF AND MUL OR SWAP1 SSTORE POP DUP1 PUSH1 0x5 PUSH1 0x14 PUSH2 0x100 EXP DUP2 SLOAD DUP2 PUSH8 0xFFFFFFFFFFFFFFFF MUL NOT AND SWAP1 DUP4 PUSH8 0xFFFFFFFFFFFFFFFF AND MUL OR SWAP1 SSTORE POP PUSH8 0x16345785D8A0000 PUSH1 0x4 DUP2 SWAP1 SSTORE POP POP PUSH3 0x59A JUMP JUMPDEST CALLER PUSH20 0xFFFFFFFFFFFFFFFFFFFFFFFFFFFFFFFFFFFFFFFF AND DUP2 PUSH20 0xFFFFFFFFFFFFFFFFFFFFFFFFFFFFFFFFFFFFFFFF AND SUB PUSH3 0x36B JUMPI PUSH1 0x40 MLOAD PUSH32 0x8C379A000000000000000000000000000000000000000000000000000000000 DUP2 MSTORE PUSH1 0x4 ADD PUSH3 0x362 SWAP1 PUSH3 0x578 JUMP JUMPDEST PUSH1 0x40 MLOAD DUP1 SWAP2 SUB SWAP1 REVERT JUMPDEST DUP1 PUSH1 0x1 PUSH1 0x0 PUSH2 0x100 EXP DUP2 SLOAD DUP2 PUSH20 0xFFFFFFFFFFFFFFFFFFFFFFFFFFFFFFFFFFFFFFFF MUL NOT AND SWAP1 DUP4 PUSH20 0xFFFFFFFFFFFFFFFFFFFFFFFFFFFFFFFFFFFFFFFF AND MUL OR SWAP1 SSTORE POP DUP1 PUSH20 0xFFFFFFFFFFFFFFFFFFFFFFFFFFFFFFFFFFFFFFFF AND PUSH1 0x0 DUP1 SLOAD SWAP1 PUSH2 0x100 EXP SWAP1 DIV PUSH20 0xFFFFFFFFFFFFFFFFFFFFFFFFFFFFFFFFFFFFFFFF AND PUSH20 0xFFFFFFFFFFFFFFFFFFFFFFFFFFFFFFFFFFFFFFFF AND PUSH32 0xED8889F560326EB138920D842192F0EB3DD22B4F139C87A2C57538E05BAE1278 PUSH1 0x40 MLOAD PUSH1 0x40 MLOAD DUP1 SWAP2 SUB SWAP1 LOG3 POP JUMP JUMPDEST PUSH1 0x0 DUP1 REVERT JUMPDEST PUSH1 0x0 PUSH8 0xFFFFFFFFFFFFFFFF DUP3 AND SWAP1 POP SWAP2 SWAP1 POP JUMP JUMPDEST PUSH3 0x44D DUP2 PUSH3 0x42E JUMP JUMPDEST DUP2 EQ PUSH3 0x459 JUMPI PUSH1 0x0 DUP1 REVERT JUMPDEST POP JUMP JUMPDEST PUSH1 0x0 DUP2 MLOAD SWAP1 POP PUSH3 0x46D DUP2 PUSH3 0x442 JUMP JUMPDEST SWAP3 SWAP2 POP POP JUMP JUMPDEST PUSH1 0x0 PUSH1 0x20 DUP3 DUP5 SUB SLT ISZERO PUSH3 0x48C JUMPI PUSH3 0x48B PUSH3 0x429 JUMP JUMPDEST JUMPDEST PUSH1 0x0 PUSH3 0x49C DUP5 DUP3 DUP6 ADD PUSH3 0x45C JUMP JUMPDEST SWAP2 POP POP SWAP3 SWAP2 POP POP JUMP JUMPDEST PUSH1 0x0 DUP3 DUP3 MSTORE PUSH1 0x20 DUP3 ADD SWAP1 POP SWAP3 SWAP2 POP POP JUMP JUMPDEST PUSH32 0x43616E6E6F7420736574206F776E657220746F207A65726F0000000000000000 PUSH1 0x0 DUP3 ADD MSTORE POP JUMP JUMPDEST PUSH1 0x0 PUSH3 0x4EE PUSH1 0x18 DUP4 PUSH3 0x4A5 JUMP JUMPDEST SWAP2 POP PUSH3 0x4FB DUP3 PUSH3 0x4B6 JUMP JUMPDEST PUSH1 0x20 DUP3 ADD SWAP1 POP SWAP2 SWAP1 POP JUMP JUMPDEST PUSH1 0x0 PUSH1 0x20 DUP3 ADD SWAP1 POP DUP2 DUP2 SUB PUSH1 0x0 DUP4 ADD MSTORE PUSH3 0x521 DUP2 PUSH3 0x4DF JUMP JUMPDEST SWAP1 POP SWAP2 SWAP1 POP JUMP JUMPDEST PUSH32 0x43616E6E6F74207472616E7366657220746F2073656C66000000000000000000 PUSH1 0x0 DUP3 ADD MSTORE POP JUMP JUMPDEST PUSH1 0x0 PUSH3 0x560 PUSH1 0x17 DUP4 PUSH3 0x4A5 JUMP JUMPDEST SWAP2 POP PUSH3 0x56D DUP3 PUSH3 0x528 JUMP JUMPDEST PUSH1 0x20 DUP3 ADD SWAP1 POP SWAP2 SWAP1 POP JUMP JUMPDEST PUSH1 0x0 PUSH1 0x20 DUP3 ADD SWAP1 POP DUP2 DUP2 SUB PUSH1 0x0 DUP4 ADD MSTORE PUSH3 0x593 DUP2 PUSH3 0x551 JUMP JUMPDEST SWAP1 POP SWAP2 SWAP1 POP JUMP JUMPDEST PUSH1 0x80 MLOAD PUSH2 0x2B4B PUSH3 0x5BD PUSH1 0x0 CODECOPY PUSH1 0x0 DUP2 DUP2 PUSH2 0x58D ADD MSTORE PUSH2 0x5E1 ADD MSTORE PUSH2 0x2B4B PUSH1 0x0 RETURN INVALID PUSH1 0x80 PUSH1 0x40 MSTORE PUSH1 0x4 CALLDATASIZE LT PUSH2 0x12A JUMPI PUSH1 0x0 CALLDATALOAD PUSH1 0xE0 SHR DUP1 PUSH4 0x8DA5CB5B GT PUSH2 0xAB JUMPI DUP1 PUSH4 0xB4A91E1E GT PUSH2 0x6F JUMPI DUP1 PUSH4 0xB4A91E1E EQ PUSH2 0x3E1 JUMPI DUP1 PUSH4 0xD8A4676F EQ PUSH2 0x41E JUMPI DUP1 PUSH4 0xE5ED1D59 EQ PUSH2 0x45C JUMPI DUP1 PUSH4 0xEFAA55A0 EQ PUSH2 0x478 JUMPI DUP1 PUSH4 0xF2FDE38B EQ PUSH2 0x494 JUMPI DUP1 PUSH4 0xFC2A88C3 EQ PUSH2 0x4BD JUMPI PUSH2 0x12A JUMP JUMPDEST DUP1 PUSH4 0x8DA5CB5B EQ PUSH2 0x2E7 JUMPI DUP1 PUSH4 0x8EE67472 EQ PUSH2 0x312 JUMPI DUP1 PUSH4 0x978FFFB8 EQ PUSH2 0x34F JUMPI DUP1 PUSH4 0xA168FA89 EQ PUSH2 0x378 JUMPI DUP1 PUSH4 0xB19068C7 EQ PUSH2 0x3B6 JUMPI PUSH2 0x12A JUMP JUMPDEST DUP1 PUSH4 0x6916C9B0 GT PUSH2 0xF2 JUMPI DUP1 PUSH4 0x6916C9B0 EQ PUSH2 0x216 JUMPI DUP1 PUSH4 0x69958AB9 EQ PUSH2 0x241 JUMPI DUP1 PUSH4 0x79BA5097 EQ PUSH2 0x26A JUMPI DUP1 PUSH4 0x7F7F8968 EQ PUSH2 0x281 JUMPI DUP1 PUSH4 0x8796BA8C EQ PUSH2 0x2AA JUMPI PUSH2 0x12A JUMP JUMPDEST DUP1 PUSH4 0x117A5B90 EQ PUSH2 0x12F JUMPI DUP1 PUSH4 0x1FE543E3 EQ PUSH2 0x170 JUMPI DUP1 PUSH4 0x2D4F40C6 EQ PUSH2 0x199 JUMPI DUP1 PUSH4 0x4BF4F423 EQ PUSH2 0x1C2 JUMPI DUP1 PUSH4 0x5A758CB7 EQ PUSH2 0x1ED JUMPI JUMPDEST PUSH1 0x0 DUP1 REVERT JUMPDEST CALLVALUE DUP1 ISZERO PUSH2 0x13B JUMPI PUSH1 0x0 DUP1 REVERT JUMPDEST POP PUSH2 0x156 PUSH1 0x4 DUP1 CALLDATASIZE SUB DUP2 ADD SWAP1 PUSH2 0x151 SWAP2 SWAP1 PUSH2 0x1D2D JUMP JUMPDEST PUSH2 0x4E8 JUMP JUMPDEST PUSH1 0x40 MLOAD PUSH2 0x167 SWAP6 SWAP5 SWAP4 SWAP3 SWAP2 SWAP1 PUSH2 0x1DC5 JUMP JUMPDEST PUSH1 0x40 MLOAD DUP1 SWAP2 SUB SWAP1 RETURN JUMPDEST CALLVALUE DUP1 ISZERO PUSH2 0x17C JUMPI PUSH1 0x0 DUP1 REVERT JUMPDEST POP PUSH2 0x197 PUSH1 0x4 DUP1 CALLDATASIZE SUB DUP2 ADD SWAP1 PUSH2 0x192 SWAP2 SWAP1 PUSH2 0x1F71 JUMP JUMPDEST PUSH2 0x58B JUMP JUMPDEST STOP JUMPDEST CALLVALUE DUP1 ISZERO PUSH2 0x1A5 JUMPI PUSH1 0x0 DUP1 REVERT JUMPDEST POP PUSH2 0x1C0 PUSH1 0x4 DUP1 CALLDATASIZE SUB DUP2 ADD SWAP1 PUSH2 0x1BB SWAP2 SWAP1 PUSH2 0x1FF9 JUMP JUMPDEST PUSH2 0x64B JUMP JUMPDEST STOP JUMPDEST CALLVALUE DUP1 ISZERO PUSH2 0x1CE JUMPI PUSH1 0x0 DUP1 REVERT JUMPDEST POP PUSH2 0x1D7 PUSH2 0x697 JUMP JUMPDEST PUSH1 0x40 MLOAD PUSH2 0x1E4 SWAP2 SWAP1 PUSH2 0x2026 JUMP JUMPDEST PUSH1 0x40 MLOAD DUP1 SWAP2 SUB SWAP1 RETURN JUMPDEST CALLVALUE DUP1 ISZERO PUSH2 0x1F9 JUMPI PUSH1 0x0 DUP1 REVERT JUMPDEST POP PUSH2 0x214 PUSH1 0x4 DUP1 CALLDATASIZE SUB DUP2 ADD SWAP1 PUSH2 0x20F SWAP2 SWAP1 PUSH2 0x1F71 JUMP JUMPDEST PUSH2 0x6BD JUMP JUMPDEST STOP JUMPDEST CALLVALUE DUP1 ISZERO PUSH2 0x222 JUMPI PUSH1 0x0 DUP1 REVERT JUMPDEST POP PUSH2 0x22B PUSH2 0x98C JUMP JUMPDEST PUSH1 0x40 MLOAD PUSH2 0x238 SWAP2 SWAP1 PUSH2 0x20FF JUMP JUMPDEST PUSH1 0x40 MLOAD DUP1 SWAP2 SUB SWAP1 RETURN JUMPDEST CALLVALUE DUP1 ISZERO PUSH2 0x24D JUMPI PUSH1 0x0 DUP1 REVERT JUMPDEST POP PUSH2 0x268 PUSH1 0x4 DUP1 CALLDATASIZE SUB DUP2 ADD SWAP1 PUSH2 0x263 SWAP2 SWAP1 PUSH2 0x1D2D JUMP JUMPDEST PUSH2 0x9E4 JUMP JUMPDEST STOP JUMPDEST CALLVALUE DUP1 ISZERO PUSH2 0x276 JUMPI PUSH1 0x0 DUP1 REVERT JUMPDEST POP PUSH2 0x27F PUSH2 0xD00 JUMP JUMPDEST STOP JUMPDEST CALLVALUE DUP1 ISZERO PUSH2 0x28D JUMPI PUSH1 0x0 DUP1 REVERT JUMPDEST POP PUSH2 0x2A8 PUSH1 0x4 DUP1 CALLDATASIZE SUB DUP2 ADD SWAP1 PUSH2 0x2A3 SWAP2 SWAP1 PUSH2 0x1D2D JUMP JUMPDEST PUSH2 0xE95 JUMP JUMPDEST STOP JUMPDEST CALLVALUE DUP1 ISZERO PUSH2 0x2B6 JUMPI PUSH1 0x0 DUP1 REVERT JUMPDEST POP PUSH2 0x2D1 PUSH1 0x4 DUP1 CALLDATASIZE SUB DUP2 ADD SWAP1 PUSH2 0x2CC SWAP2 SWAP1 PUSH2 0x1D2D JUMP JUMPDEST PUSH2 0xEA7 JUMP JUMPDEST PUSH1 0x40 MLOAD PUSH2 0x2DE SWAP2 SWAP1 PUSH2 0x2121 JUMP JUMPDEST PUSH1 0x40 MLOAD DUP1 SWAP2 SUB SWAP1 RETURN JUMPDEST CALLVALUE DUP1 ISZERO PUSH2 0x2F3 JUMPI PUSH1 0x0 DUP1 REVERT JUMPDEST POP PUSH2 0x2FC PUSH2 0xECB JUMP JUMPDEST PUSH1 0x40 MLOAD PUSH2 0x309 SWAP2 SWAP1 PUSH2 0x2026 JUMP JUMPDEST PUSH1 0x40 MLOAD DUP1 SWAP2 SUB SWAP1 RETURN JUMPDEST CALLVALUE DUP1 ISZERO PUSH2 0x31E JUMPI PUSH1 0x0 DUP1 REVERT JUMPDEST POP PUSH2 0x339 PUSH1 0x4 DUP1 CALLDATASIZE SUB DUP2 ADD SWAP1 PUSH2 0x334 SWAP2 SWAP1 PUSH2 0x1D2D JUMP JUMPDEST PUSH2 0xEF4 JUMP JUMPDEST PUSH1 0x40 MLOAD PUSH2 0x346 SWAP2 SWAP1 PUSH2 0x2121 JUMP JUMPDEST PUSH1 0x40 MLOAD DUP1 SWAP2 SUB SWAP1 RETURN JUMPDEST CALLVALUE DUP1 ISZERO PUSH2 0x35B JUMPI PUSH1 0x0 DUP1 REVERT JUMPDEST POP PUSH2 0x376 PUSH1 0x4 DUP1 CALLDATASIZE SUB DUP2 ADD SWAP1 PUSH2 0x371 SWAP2 SWAP1 PUSH2 0x2178 JUMP JUMPDEST PUSH2 0xF18 JUMP JUMPDEST STOP JUMPDEST CALLVALUE DUP1 ISZERO PUSH2 0x384 JUMPI PUSH1 0x0 DUP1 REVERT JUMPDEST POP PUSH2 0x39F PUSH1 0x4 DUP1 CALLDATASIZE SUB DUP2 ADD SWAP1 PUSH2 0x39A SWAP2 SWAP1 PUSH2 0x1D2D JUMP JUMPDEST PUSH2 0xF44 JUMP JUMPDEST PUSH1 0x40 MLOAD PUSH2 0x3AD SWAP3 SWAP2 SWAP1 PUSH2 0x21A5 JUMP JUMPDEST PUSH1 0x40 MLOAD DUP1 SWAP2 SUB SWAP1 RETURN JUMPDEST CALLVALUE DUP1 ISZERO PUSH2 0x3C2 JUMPI PUSH1 0x0 DUP1 REVERT JUMPDEST POP PUSH2 0x3CB PUSH2 0xF82 JUMP JUMPDEST PUSH1 0x40 MLOAD PUSH2 0x3D8 SWAP2 SWAP1 PUSH2 0x2121 JUMP JUMPDEST PUSH1 0x40 MLOAD DUP1 SWAP2 SUB SWAP1 RETURN JUMPDEST CALLVALUE DUP1 ISZERO PUSH2 0x3ED JUMPI PUSH1 0x0 DUP1 REVERT JUMPDEST POP PUSH2 0x408 PUSH1 0x4 DUP1 CALLDATASIZE SUB DUP2 ADD SWAP1 PUSH2 0x403 SWAP2 SWAP1 PUSH2 0x1D2D JUMP JUMPDEST PUSH2 0xF88 JUMP JUMPDEST PUSH1 0x40 MLOAD PUSH2 0x415 SWAP2 SWAP1 PUSH2 0x2121 JUMP JUMPDEST PUSH1 0x40 MLOAD DUP1 SWAP2 SUB SWAP1 RETURN JUMPDEST CALLVALUE DUP1 ISZERO PUSH2 0x42A JUMPI PUSH1 0x0 DUP1 REVERT JUMPDEST POP PUSH2 0x445 PUSH1 0x4 DUP1 CALLDATASIZE SUB DUP2 ADD SWAP1 PUSH2 0x440 SWAP2 SWAP1 PUSH2 0x1D2D JUMP JUMPDEST PUSH2 0xFA0 JUMP JUMPDEST PUSH1 0x40 MLOAD PUSH2 0x453 SWAP3 SWAP2 SWAP1 PUSH2 0x21CE JUMP JUMPDEST PUSH1 0x40 MLOAD DUP1 SWAP2 SUB SWAP1 RETURN JUMPDEST PUSH2 0x476 PUSH1 0x4 DUP1 CALLDATASIZE SUB DUP2 ADD SWAP1 PUSH2 0x471 SWAP2 SWAP1 PUSH2 0x1D2D JUMP JUMPDEST PUSH2 0x10CB JUMP JUMPDEST STOP JUMPDEST PUSH2 0x492 PUSH1 0x4 DUP1 CALLDATASIZE SUB DUP2 ADD SWAP1 PUSH2 0x48D SWAP2 SWAP1 PUSH2 0x1D2D JUMP JUMPDEST PUSH2 0x131B JUMP JUMPDEST STOP JUMPDEST CALLVALUE DUP1 ISZERO PUSH2 0x4A0 JUMPI PUSH1 0x0 DUP1 REVERT JUMPDEST POP PUSH2 0x4BB PUSH1 0x4 DUP1 CALLDATASIZE SUB DUP2 ADD SWAP1 PUSH2 0x4B6 SWAP2 SWAP1 PUSH2 0x1FF9 JUMP JUMPDEST PUSH2 0x1632 JUMP JUMPDEST STOP JUMPDEST CALLVALUE DUP1 ISZERO PUSH2 0x4C9 JUMPI PUSH1 0x0 DUP1 REVERT JUMPDEST POP PUSH2 0x4D2 PUSH2 0x1646 JUMP JUMPDEST PUSH1 0x40 MLOAD PUSH2 0x4DF SWAP2 SWAP1 PUSH2 0x2121 JUMP JUMPDEST PUSH1 0x40 MLOAD DUP1 SWAP2 SUB SWAP1 RETURN JUMPDEST PUSH1 0xC PUSH1 0x20 MSTORE DUP1 PUSH1 0x0 MSTORE PUSH1 0x40 PUSH1 0x0 KECCAK256 PUSH1 0x0 SWAP2 POP SWAP1 POP DUP1 PUSH1 0x0 ADD PUSH1 0x0 SWAP1 SLOAD SWAP1 PUSH2 0x100 EXP SWAP1 DIV PUSH20 0xFFFFFFFFFFFFFFFFFFFFFFFFFFFFFFFFFFFFFFFF AND SWAP1 DUP1 PUSH1 0x1 ADD PUSH1 0x0 SWAP1 SLOAD SWAP1 PUSH2 0x100 EXP SWAP1 DIV PUSH20 0xFFFFFFFFFFFFFFFFFFFFFFFFFFFFFFFFFFFFFFFF AND SWAP1 DUP1 PUSH1 0x2 ADD SLOAD SWAP1 DUP1 PUSH1 0x3 ADD PUSH1 0x0 SWAP1 SLOAD SWAP1 PUSH2 0x100 EXP SWAP1 DIV PUSH1 0xFF AND SWAP1 DUP1 PUSH1 0x3 ADD PUSH1 0x1 SWAP1 SLOAD SWAP1 PUSH2 0x100 EXP SWAP1 DIV PUSH20 0xFFFFFFFFFFFFFFFFFFFFFFFFFFFFFFFFFFFFFFFF AND SWAP1 POP DUP6 JUMP JUMPDEST PUSH32 0x0 PUSH20 0xFFFFFFFFFFFFFFFFFFFFFFFFFFFFFFFFFFFFFFFF AND CALLER PUSH20 0xFFFFFFFFFFFFFFFFFFFFFFFFFFFFFFFFFFFFFFFF AND EQ PUSH2 0x63D JUMPI CALLER PUSH32 0x0 PUSH1 0x40 MLOAD PUSH32 0x1CF993F400000000000000000000000000000000000000000000000000000000 DUP2 MSTORE PUSH1 0x4 ADD PUSH2 0x634 SWAP3 SWAP2 SWAP1 PUSH2 0x21FE JUMP JUMPDEST PUSH1 0x40 MLOAD DUP1 SWAP2 SUB SWAP1 REVERT JUMPDEST PUSH2 0x647 DUP3 DUP3 PUSH2 0x164C JUMP JUMPDEST POP POP JUMP JUMPDEST PUSH2 0x653 PUSH2 0x1746 JUMP JUMPDEST DUP1 PUSH1 0x5 PUSH1 0x0 PUSH2 0x100 EXP DUP2 SLOAD DUP2 PUSH20 0xFFFFFFFFFFFFFFFFFFFFFFFFFFFFFFFFFFFFFFFF MUL NOT AND SWAP1 DUP4 PUSH20 0xFFFFFFFFFFFFFFFFFFFFFFFFFFFFFFFFFFFFFFFF AND MUL OR SWAP1 SSTORE POP POP JUMP JUMPDEST PUSH1 0x5 PUSH1 0x0 SWAP1 SLOAD SWAP1 PUSH2 0x100 EXP SWAP1 DIV PUSH20 0xFFFFFFFFFFFFFFFFFFFFFFFFFFFFFFFFFFFFFFFF AND DUP2 JUMP JUMPDEST PUSH1 0x0 PUSH1 0xC PUSH1 0x0 DUP5 DUP2 MSTORE PUSH1 0x20 ADD SWAP1 DUP2 MSTORE PUSH1 0x20 ADD PUSH1 0x0 KECCAK256 SWAP1 POP DUP1 PUSH1 0x3 ADD PUSH1 0x0 SWAP1 SLOAD SWAP1 PUSH2 0x100 EXP SWAP1 DIV PUSH1 0xFF AND ISZERO PUSH2 0x726 JUMPI PUSH1 0x40 MLOAD PUSH32 0x8C379A000000000000000000000000000000000000000000000000000000000 DUP2 MSTORE PUSH1 0x4 ADD PUSH2 0x71D SWAP1 PUSH2 0x2284 JUMP JUMPDEST PUSH1 0x40 MLOAD DUP1 SWAP2 SUB SWAP1 REVERT JUMPDEST PUSH1 0x5 PUSH1 0x0 SWAP1 SLOAD SWAP1 PUSH2 0x100 EXP SWAP1 DIV PUSH20 0xFFFFFFFFFFFFFFFFFFFFFFFFFFFFFFFFFFFFFFFF AND PUSH20 0xFFFFFFFFFFFFFFFFFFFFFFFFFFFFFFFFFFFFFFFF AND CALLER PUSH20 0xFFFFFFFFFFFFFFFFFFFFFFFFFFFFFFFFFFFFFFFF AND EQ PUSH2 0x7B6 JUMPI PUSH1 0x40 MLOAD PUSH32 0x8C379A000000000000000000000000000000000000000000000000000000000 DUP2 MSTORE PUSH1 0x4 ADD PUSH2 0x7AD SWAP1 PUSH2 0x22F0 JUMP JUMPDEST PUSH1 0x40 MLOAD DUP1 SWAP2 SUB SWAP1 REVERT JUMPDEST PUSH1 0x0 PUSH1 0x2 DUP4 PUSH1 0x0 DUP2 MLOAD DUP2 LT PUSH2 0x7CE JUMPI PUSH2 0x7CD PUSH2 0x2310 JUMP JUMPDEST JUMPDEST PUSH1 0x20 MUL PUSH1 0x20 ADD ADD MLOAD PUSH2 0x7E0 SWAP2 SWAP1 PUSH2 0x236E JUMP JUMPDEST EQ PUSH2 0x80F JUMPI DUP1 PUSH1 0x1 ADD PUSH1 0x0 SWAP1 SLOAD SWAP1 PUSH2 0x100 EXP SWAP1 DIV PUSH20 0xFFFFFFFFFFFFFFFFFFFFFFFFFFFFFFFFFFFFFFFF AND PUSH2 0x835 JUMP JUMPDEST DUP1 PUSH1 0x0 ADD PUSH1 0x0 SWAP1 SLOAD SWAP1 PUSH2 0x100 EXP SWAP1 DIV PUSH20 0xFFFFFFFFFFFFFFFFFFFFFFFFFFFFFFFFFFFFFFFF AND JUMPDEST DUP2 PUSH1 0x3 ADD PUSH1 0x1 PUSH2 0x100 EXP DUP2 SLOAD DUP2 PUSH20 0xFFFFFFFFFFFFFFFFFFFFFFFFFFFFFFFFFFFFFFFF MUL NOT AND SWAP1 DUP4 PUSH20 0xFFFFFFFFFFFFFFFFFFFFFFFFFFFFFFFFFFFFFFFF AND MUL OR SWAP1 SSTORE POP PUSH1 0x1 DUP2 PUSH1 0x3 ADD PUSH1 0x0 PUSH2 0x100 EXP DUP2 SLOAD DUP2 PUSH1 0xFF MUL NOT AND SWAP1 DUP4 ISZERO ISZERO MUL OR SWAP1 SSTORE POP DUP1 PUSH1 0x3 ADD PUSH1 0x1 SWAP1 SLOAD SWAP1 PUSH2 0x100 EXP SWAP1 DIV PUSH20 0xFFFFFFFFFFFFFFFFFFFFFFFFFFFFFFFFFFFFFFFF AND PUSH20 0xFFFFFFFFFFFFFFFFFFFFFFFFFFFFFFFFFFFFFFFF AND PUSH2 0x8FC PUSH2 0x8EA PUSH1 0x2 DUP5 PUSH1 0x2 ADD SLOAD PUSH2 0x17D6 SWAP1 SWAP2 SWAP1 PUSH4 0xFFFFFFFF AND JUMP JUMPDEST SWAP1 DUP2 ISZERO MUL SWAP1 PUSH1 0x40 MLOAD PUSH1 0x0 PUSH1 0x40 MLOAD DUP1 DUP4 SUB DUP2 DUP6 DUP9 DUP9 CALL SWAP4 POP POP POP POP ISZERO DUP1 ISZERO PUSH2 0x915 JUMPI RETURNDATASIZE PUSH1 0x0 DUP1 RETURNDATACOPY RETURNDATASIZE PUSH1 0x0 REVERT JUMPDEST POP PUSH2 0x91F DUP4 PUSH2 0x17EC JUMP JUMPDEST DUP1 PUSH1 0x3 ADD PUSH1 0x1 SWAP1 SLOAD SWAP1 PUSH2 0x100 EXP SWAP1 DIV PUSH20 0xFFFFFFFFFFFFFFFFFFFFFFFFFFFFFFFFFFFFFFFF AND PUSH20 0xFFFFFFFFFFFFFFFFFFFFFFFFFFFFFFFFFFFFFFFF AND DUP4 PUSH32 0x7F40DF5127524300187445E867486DA572AAB86769C0212E0B392BD87C4CA97F PUSH1 0x40 MLOAD PUSH1 0x40 MLOAD DUP1 SWAP2 SUB SWAP1 LOG3 POP POP POP JUMP JUMPDEST PUSH1 0x60 PUSH1 0x3 DUP1 SLOAD DUP1 PUSH1 0x20 MUL PUSH1 0x20 ADD PUSH1 0x40 MLOAD SWAP1 DUP2 ADD PUSH1 0x40 MSTORE DUP1 SWAP3 SWAP2 SWAP1 DUP2 DUP2 MSTORE PUSH1 0x20 ADD DUP3 DUP1 SLOAD DUP1 ISZERO PUSH2 0x9DA JUMPI PUSH1 0x20 MUL DUP3 ADD SWAP2 SWAP1 PUSH1 0x0 MSTORE PUSH1 0x20 PUSH1 0x0 KECCAK256 SWAP1 JUMPDEST DUP2 SLOAD DUP2 MSTORE PUSH1 0x20 ADD SWAP1 PUSH1 0x1 ADD SWAP1 DUP1 DUP4 GT PUSH2 0x9C6 JUMPI JUMPDEST POP POP POP POP POP SWAP1 POP SWAP1 JUMP JUMPDEST PUSH2 0x9EC PUSH2 0x1746 JUMP JUMPDEST PUSH1 0x0 PUSH1 0xC PUSH1 0x0 DUP4 DUP2 MSTORE PUSH1 0x20 ADD SWAP1 DUP2 MSTORE PUSH1 0x20 ADD PUSH1 0x0 KECCAK256 SWAP1 POP PUSH1 0x0 PUSH20 0xFFFFFFFFFFFFFFFFFFFFFFFFFFFFFFFFFFFFFFFF AND DUP2 PUSH1 0x0 ADD PUSH1 0x0 SWAP1 SLOAD SWAP1 PUSH2 0x100 EXP SWAP1 DIV PUSH20 0xFFFFFFFFFFFFFFFFFFFFFFFFFFFFFFFFFFFFFFFF AND PUSH20 0xFFFFFFFFFFFFFFFFFFFFFFFFFFFFFFFFFFFFFFFF AND SUB PUSH2 0xA96 JUMPI PUSH1 0x40 MLOAD PUSH32 0x8C379A000000000000000000000000000000000000000000000000000000000 DUP2 MSTORE PUSH1 0x4 ADD PUSH2 0xA8D SWAP1 PUSH2 0x23EB JUMP JUMPDEST PUSH1 0x40 MLOAD DUP1 SWAP2 SUB SWAP1 REVERT JUMPDEST DUP1 PUSH1 0x3 ADD PUSH1 0x0 SWAP1 SLOAD SWAP1 PUSH2 0x100 EXP SWAP1 DIV PUSH1 0xFF AND ISZERO PUSH2 0xAE8 JUMPI PUSH1 0x40 MLOAD PUSH32 0x8C379A000000000000000000000000000000000000000000000000000000000 DUP2 MSTORE PUSH1 0x4 ADD PUSH2 0xADF SWAP1 PUSH2 0x2457 JUMP JUMPDEST PUSH1 0x40 MLOAD DUP1 SWAP2 SUB SWAP1 REVERT JUMPDEST DUP1 PUSH1 0x0 ADD PUSH1 0x0 SWAP1 SLOAD SWAP1 PUSH2 0x100 EXP SWAP1 DIV PUSH20 0xFFFFFFFFFFFFFFFFFFFFFFFFFFFFFFFFFFFFFFFF AND PUSH20 0xFFFFFFFFFFFFFFFFFFFFFFFFFFFFFFFFFFFFFFFF AND PUSH2 0x8FC DUP3 PUSH1 0x2 ADD SLOAD SWAP1 DUP2 ISZERO MUL SWAP1 PUSH1 0x40 MLOAD PUSH1 0x0 PUSH1 0x40 MLOAD DUP1 DUP4 SUB DUP2 DUP6 DUP9 DUP9 CALL SWAP4 POP POP POP POP ISZERO DUP1 ISZERO PUSH2 0xB56 JUMPI RETURNDATASIZE PUSH1 0x0 DUP1 RETURNDATACOPY RETURNDATASIZE PUSH1 0x0 REVERT JUMPDEST POP PUSH1 0x0 PUSH20 0xFFFFFFFFFFFFFFFFFFFFFFFFFFFFFFFFFFFFFFFF AND DUP2 PUSH1 0x1 ADD PUSH1 0x0 SWAP1 SLOAD SWAP1 PUSH2 0x100 EXP SWAP1 DIV PUSH20 0xFFFFFFFFFFFFFFFFFFFFFFFFFFFFFFFFFFFFFFFF AND PUSH20 0xFFFFFFFFFFFFFFFFFFFFFFFFFFFFFFFFFFFFFFFF AND EQ PUSH2 0xC1F JUMPI DUP1 PUSH1 0x1 ADD PUSH1 0x0 SWAP1 SLOAD SWAP1 PUSH2 0x100 EXP SWAP1 DIV PUSH20 0xFFFFFFFFFFFFFFFFFFFFFFFFFFFFFFFFFFFFFFFF AND PUSH20 0xFFFFFFFFFFFFFFFFFFFFFFFFFFFFFFFFFFFFFFFF AND PUSH2 0x8FC DUP3 PUSH1 0x2 ADD SLOAD SWAP1 DUP2 ISZERO MUL SWAP1 PUSH1 0x40 MLOAD PUSH1 0x0 PUSH1 0x40 MLOAD DUP1 DUP4 SUB DUP2 DUP6 DUP9 DUP9 CALL SWAP4 POP POP POP POP ISZERO DUP1 ISZERO PUSH2 0xC1D JUMPI RETURNDATASIZE PUSH1 0x0 DUP1 RETURNDATACOPY RETURNDATASIZE PUSH1 0x0 REVERT JUMPDEST POP JUMPDEST PUSH2 0xC28 DUP3 PUSH2 0x17EC JUMP JUMPDEST PUSH1 0xC PUSH1 0x0 DUP4 DUP2 MSTORE PUSH1 0x20 ADD SWAP1 DUP2 MSTORE PUSH1 0x20 ADD PUSH1 0x0 KECCAK256 PUSH1 0x0 DUP1 DUP3 ADD PUSH1 0x0 PUSH2 0x100 EXP DUP2 SLOAD SWAP1 PUSH20 0xFFFFFFFFFFFFFFFFFFFFFFFFFFFFFFFFFFFFFFFF MUL NOT AND SWAP1 SSTORE PUSH1 0x1 DUP3 ADD PUSH1 0x0 PUSH2 0x100 EXP DUP2 SLOAD SWAP1 PUSH20 0xFFFFFFFFFFFFFFFFFFFFFFFFFFFFFFFFFFFFFFFF MUL NOT AND SWAP1 SSTORE PUSH1 0x2 DUP3 ADD PUSH1 0x0 SWAP1 SSTORE PUSH1 0x3 DUP3 ADD PUSH1 0x0 PUSH2 0x100 EXP DUP2 SLOAD SWAP1 PUSH1 0xFF MUL NOT AND SWAP1 SSTORE PUSH1 0x3 DUP3 ADD PUSH1 0x1 PUSH2 0x100 EXP DUP2 SLOAD SWAP1 PUSH20 0xFFFFFFFFFFFFFFFFFFFFFFFFFFFFFFFFFFFFFFFF MUL NOT AND SWAP1 SSTORE POP POP DUP2 PUSH32 0x681705FDBD93DBA3B679FD712577E9A86D57C5551C520F8C74857DEB57F9623F PUSH1 0x40 MLOAD PUSH1 0x40 MLOAD DUP1 SWAP2 SUB SWAP1 LOG2 POP POP JUMP JUMPDEST PUSH1 0x1 PUSH1 0x0 SWAP1 SLOAD SWAP1 PUSH2 0x100 EXP SWAP1 DIV PUSH20 0xFFFFFFFFFFFFFFFFFFFFFFFFFFFFFFFFFFFFFFFF AND PUSH20 0xFFFFFFFFFFFFFFFFFFFFFFFFFFFFFFFFFFFFFFFF AND CALLER PUSH20 0xFFFFFFFFFFFFFFFFFFFFFFFFFFFFFFFFFFFFFFFF AND EQ PUSH2 0xD90 JUMPI PUSH1 0x40 MLOAD PUSH32 0x8C379A000000000000000000000000000000000000000000000000000000000 DUP2 MSTORE PUSH1 0x4 ADD PUSH2 0xD87 SWAP1 PUSH2 0x24C3 JUMP JUMPDEST PUSH1 0x40 MLOAD DUP1 SWAP2 SUB SWAP1 REVERT JUMPDEST PUSH1 0x0 DUP1 PUSH1 0x0 SWAP1 SLOAD SWAP1 PUSH2 0x100 EXP SWAP1 DIV PUSH20 0xFFFFFFFFFFFFFFFFFFFFFFFFFFFFFFFFFFFFFFFF AND SWAP1 POP CALLER PUSH1 0x0 DUP1 PUSH2 0x100 EXP DUP2 SLOAD DUP2 PUSH20 0xFFFFFFFFFFFFFFFFFFFFFFFFFFFFFFFFFFFFFFFF MUL NOT AND SWAP1 DUP4 PUSH20 0xFFFFFFFFFFFFFFFFFFFFFFFFFFFFFFFFFFFFFFFF AND MUL OR SWAP1 SSTORE POP PUSH1 0x0 PUSH1 0x1 PUSH1 0x0 PUSH2 0x100 EXP DUP2 SLOAD DUP2 PUSH20 0xFFFFFFFFFFFFFFFFFFFFFFFFFFFFFFFFFFFFFFFF MUL NOT AND SWAP1 DUP4 PUSH20 0xFFFFFFFFFFFFFFFFFFFFFFFFFFFFFFFFFFFFFFFF AND MUL OR SWAP1 SSTORE POP CALLER PUSH20 0xFFFFFFFFFFFFFFFFFFFFFFFFFFFFFFFFFFFFFFFF AND DUP2 PUSH20 0xFFFFFFFFFFFFFFFFFFFFFFFFFFFFFFFFFFFFFFFF AND PUSH32 0x8BE0079C531659141344CD1FD0A4F28419497F9722A3DAAFE3B4186F6B6457E0 PUSH1 0x40 MLOAD PUSH1 0x40 MLOAD DUP1 SWAP2 SUB SWAP1 LOG3 POP JUMP JUMPDEST PUSH2 0xE9D PUSH2 0x1746 JUMP JUMPDEST DUP1 PUSH1 0x4 DUP2 SWAP1 SSTORE POP POP JUMP JUMPDEST PUSH1 0x6 DUP2 DUP2 SLOAD DUP2 LT PUSH2 0xEB7 JUMPI PUSH1 0x0 DUP1 REVERT JUMPDEST SWAP1 PUSH1 0x0 MSTORE PUSH1 0x20 PUSH1 0x0 KECCAK256 ADD PUSH1 0x0 SWAP2 POP SWAP1 POP SLOAD DUP2 JUMP JUMPDEST PUSH1 0x0 DUP1 PUSH1 0x0 SWAP1 SLOAD SWAP1 PUSH2 0x100 EXP SWAP1 DIV PUSH20 0xFFFFFFFFFFFFFFFFFFFFFFFFFFFFFFFFFFFFFFFF AND SWAP1 POP SWAP1 JUMP JUMPDEST PUSH1 0x3 DUP2 DUP2 SLOAD DUP2 LT PUSH2 0xF04 JUMPI PUSH1 0x0 DUP1 REVERT JUMPDEST SWAP1 PUSH1 0x0 MSTORE PUSH1 0x20 PUSH1 0x0 KECCAK256 ADD PUSH1 0x0 SWAP2 POP SWAP1 POP SLOAD DUP2 JUMP JUMPDEST PUSH2 0xF20 PUSH2 0x1746 JUMP JUMPDEST DUP1 PUSH1 0x9 PUSH1 0x0 PUSH2 0x100 EXP DUP2 SLOAD DUP2 PUSH4 0xFFFFFFFF MUL NOT AND SWAP1 DUP4 PUSH4 0xFFFFFFFF AND MUL OR SWAP1 SSTORE POP POP JUMP JUMPDEST PUSH1 0xA PUSH1 0x20 MSTORE DUP1 PUSH1 0x0 MSTORE PUSH1 0x40 PUSH1 0x0 KECCAK256 PUSH1 0x0 SWAP2 POP SWAP1 POP DUP1 PUSH1 0x0 ADD PUSH1 0x0 SWAP1 SLOAD SWAP1 PUSH2 0x100 EXP SWAP1 DIV PUSH1 0xFF AND SWAP1 DUP1 PUSH1 0x0 ADD PUSH1 0x1 SWAP1 SLOAD SWAP1 PUSH2 0x100 EXP SWAP1 DIV PUSH1 0xFF AND SWAP1 POP DUP3 JUMP JUMPDEST PUSH1 0x4 SLOAD DUP2 JUMP JUMPDEST PUSH1 0xD PUSH1 0x20 MSTORE DUP1 PUSH1 0x0 MSTORE PUSH1 0x40 PUSH1 0x0 KECCAK256 PUSH1 0x0 SWAP2 POP SWAP1 POP SLOAD DUP2 JUMP JUMPDEST PUSH1 0x0 PUSH1 0x60 PUSH1 0xA PUSH1 0x0 DUP5 DUP2 MSTORE PUSH1 0x20 ADD SWAP1 DUP2 MSTORE PUSH1 0x20 ADD PUSH1 0x0 KECCAK256 PUSH1 0x0 ADD PUSH1 0x1 SWAP1 SLOAD SWAP1 PUSH2 0x100 EXP SWAP1 DIV PUSH1 0xFF AND PUSH2 0x1007 JUMPI PUSH1 0x40 MLOAD PUSH32 0x8C379A000000000000000000000000000000000000000000000000000000000 DUP2 MSTORE PUSH1 0x4 ADD PUSH2 0xFFE SWAP1 PUSH2 0x252F JUMP JUMPDEST PUSH1 0x40 MLOAD DUP1 SWAP2 SUB SWAP1 REVERT JUMPDEST PUSH1 0x0 PUSH1 0xA PUSH1 0x0 DUP6 DUP2 MSTORE PUSH1 0x20 ADD SWAP1 DUP2 MSTORE PUSH1 0x20 ADD PUSH1 0x0 KECCAK256 PUSH1 0x40 MLOAD DUP1 PUSH1 0x60 ADD PUSH1 0x40 MSTORE SWAP1 DUP2 PUSH1 0x0 DUP3 ADD PUSH1 0x0 SWAP1 SLOAD SWAP1 PUSH2 0x100 EXP SWAP1 DIV PUSH1 0xFF AND ISZERO ISZERO ISZERO ISZERO DUP2 MSTORE PUSH1 0x20 ADD PUSH1 0x0 DUP3 ADD PUSH1 0x1 SWAP1 SLOAD SWAP1 PUSH2 0x100 EXP SWAP1 DIV PUSH1 0xFF AND ISZERO ISZERO ISZERO ISZERO DUP2 MSTORE PUSH1 0x20 ADD PUSH1 0x1 DUP3 ADD DUP1 SLOAD DUP1 PUSH1 0x20 MUL PUSH1 0x20 ADD PUSH1 0x40 MLOAD SWAP1 DUP2 ADD PUSH1 0x40 MSTORE DUP1 SWAP3 SWAP2 SWAP1 DUP2 DUP2 MSTORE PUSH1 0x20 ADD DUP3 DUP1 SLOAD DUP1 ISZERO PUSH2 0x10AC JUMPI PUSH1 0x20 MUL DUP3 ADD SWAP2 SWAP1 PUSH1 0x0 MSTORE PUSH1 0x20 PUSH1 0x0 KECCAK256 SWAP1 JUMPDEST DUP2 SLOAD DUP2 MSTORE PUSH1 0x20 ADD SWAP1 PUSH1 0x1 ADD SWAP1 DUP1 DUP4 GT PUSH2 0x1098 JUMPI JUMPDEST POP POP POP POP POP DUP2 MSTORE POP POP SWAP1 POP DUP1 PUSH1 0x0 ADD MLOAD DUP2 PUSH1 0x40 ADD MLOAD SWAP3 POP SWAP3 POP POP SWAP2 POP SWAP2 JUMP JUMPDEST PUSH1 0x4 SLOAD CALLVALUE LT ISZERO PUSH2 0x1110 JUMPI PUSH1 0x40 MLOAD PUSH32 0x8C379A000000000000000000000000000000000000000000000000000000000 DUP2 MSTORE PUSH1 0x4 ADD PUSH2 0x1107 SWAP1 PUSH2 0x25C1 JUMP JUMPDEST PUSH1 0x40 MLOAD DUP1 SWAP2 SUB SWAP1 REVERT JUMPDEST PUSH1 0x0 PUSH2 0x111A PUSH2 0x18B1 JUMP JUMPDEST SWAP1 POP PUSH1 0x40 MLOAD DUP1 PUSH1 0xA0 ADD PUSH1 0x40 MSTORE DUP1 CALLER PUSH20 0xFFFFFFFFFFFFFFFFFFFFFFFFFFFFFFFFFFFFFFFF AND DUP2 MSTORE PUSH1 0x20 ADD PUSH1 0x0 PUSH20 0xFFFFFFFFFFFFFFFFFFFFFFFFFFFFFFFFFFFFFFFF AND DUP2 MSTORE PUSH1 0x20 ADD DUP4 DUP2 MSTORE PUSH1 0x20 ADD PUSH1 0x0 ISZERO ISZERO DUP2 MSTORE PUSH1 0x20 ADD PUSH1 0x0 PUSH20 0xFFFFFFFFFFFFFFFFFFFFFFFFFFFFFFFFFFFFFFFF AND DUP2 MSTORE POP PUSH1 0xC PUSH1 0x0 DUP4 DUP2 MSTORE PUSH1 0x20 ADD SWAP1 DUP2 MSTORE PUSH1 0x20 ADD PUSH1 0x0 KECCAK256 PUSH1 0x0 DUP3 ADD MLOAD DUP2 PUSH1 0x0 ADD PUSH1 0x0 PUSH2 0x100 EXP DUP2 SLOAD DUP2 PUSH20 0xFFFFFFFFFFFFFFFFFFFFFFFFFFFFFFFFFFFFFFFF MUL NOT AND SWAP1 DUP4 PUSH20 0xFFFFFFFFFFFFFFFFFFFFFFFFFFFFFFFFFFFFFFFF AND MUL OR SWAP1 SSTORE POP PUSH1 0x20 DUP3 ADD MLOAD DUP2 PUSH1 0x1 ADD PUSH1 0x0 PUSH2 0x100 EXP DUP2 SLOAD DUP2 PUSH20 0xFFFFFFFFFFFFFFFFFFFFFFFFFFFFFFFFFFFFFFFF MUL NOT AND SWAP1 DUP4 PUSH20 0xFFFFFFFFFFFFFFFFFFFFFFFFFFFFFFFFFFFFFFFF AND MUL OR SWAP1 SSTORE POP PUSH1 0x40 DUP3 ADD MLOAD DUP2 PUSH1 0x2 ADD SSTORE PUSH1 0x60 DUP3 ADD MLOAD DUP2 PUSH1 0x3 ADD PUSH1 0x0 PUSH2 0x100 EXP DUP2 SLOAD DUP2 PUSH1 0xFF MUL NOT AND SWAP1 DUP4 ISZERO ISZERO MUL OR SWAP1 SSTORE POP PUSH1 0x80 DUP3 ADD MLOAD DUP2 PUSH1 0x3 ADD PUSH1 0x1 PUSH2 0x100 EXP DUP2 SLOAD DUP2 PUSH20 0xFFFFFFFFFFFFFFFFFFFFFFFFFFFFFFFFFFFFFFFF MUL NOT AND SWAP1 DUP4 PUSH20 0xFFFFFFFFFFFFFFFFFFFFFFFFFFFFFFFFFFFFFFFF AND MUL OR SWAP1 SSTORE POP SWAP1 POP POP PUSH1 0x3 DUP2 SWAP1 DUP1 PUSH1 0x1 DUP2 SLOAD ADD DUP1 DUP3 SSTORE DUP1 SWAP2 POP POP PUSH1 0x1 SWAP1 SUB SWAP1 PUSH1 0x0 MSTORE PUSH1 0x20 PUSH1 0x0 KECCAK256 ADD PUSH1 0x0 SWAP1 SWAP2 SWAP1 SWAP2 SWAP1 SWAP2 POP SSTORE CALLER PUSH20 0xFFFFFFFFFFFFFFFFFFFFFFFFFFFFFFFFFFFFFFFF AND DUP2 PUSH32 0xC82908456D66C43E9DE63EDD66F9FAF875C8F3A12F936E162D675EC42C35444 DUP5 PUSH1 0x40 MLOAD PUSH2 0x130F SWAP2 SWAP1 PUSH2 0x2121 JUMP JUMPDEST PUSH1 0x40 MLOAD DUP1 SWAP2 SUB SWAP1 LOG3 POP POP JUMP JUMPDEST PUSH1 0x0 PUSH1 0xC PUSH1 0x0 DUP4 DUP2 MSTORE PUSH1 0x20 ADD SWAP1 DUP2 MSTORE PUSH1 0x20 ADD PUSH1 0x0 KECCAK256 SWAP1 POP DUP1 PUSH1 0x3 ADD PUSH1 0x0 SWAP1 SLOAD SWAP1 PUSH2 0x100 EXP SWAP1 DIV PUSH1 0xFF AND ISZERO PUSH2 0x1384 JUMPI PUSH1 0x40 MLOAD PUSH32 0x8C379A000000000000000000000000000000000000000000000000000000000 DUP2 MSTORE PUSH1 0x4 ADD PUSH2 0x137B SWAP1 PUSH2 0x2457 JUMP JUMPDEST PUSH1 0x40 MLOAD DUP1 SWAP2 SUB SWAP1 REVERT JUMPDEST PUSH1 0x0 PUSH20 0xFFFFFFFFFFFFFFFFFFFFFFFFFFFFFFFFFFFFFFFF AND DUP2 PUSH1 0x1 ADD PUSH1 0x0 SWAP1 SLOAD SWAP1 PUSH2 0x100 EXP SWAP1 DIV PUSH20 0xFFFFFFFFFFFFFFFFFFFFFFFFFFFFFFFFFFFFFFFF AND PUSH20 0xFFFFFFFFFFFFFFFFFFFFFFFFFFFFFFFFFFFFFFFF AND EQ PUSH2 0x1417 JUMPI PUSH1 0x40 MLOAD PUSH32 0x8C379A000000000000000000000000000000000000000000000000000000000 DUP2 MSTORE PUSH1 0x4 ADD PUSH2 0x140E SWAP1 PUSH2 0x262D JUMP JUMPDEST PUSH1 0x40 MLOAD DUP1 SWAP2 SUB SWAP1 REVERT JUMPDEST DUP1 PUSH1 0x2 ADD SLOAD CALLVALUE EQ PUSH2 0x145D JUMPI PUSH1 0x40 MLOAD PUSH32 0x8C379A000000000000000000000000000000000000000000000000000000000 DUP2 MSTORE PUSH1 0x4 ADD PUSH2 0x1454 SWAP1 PUSH2 0x2699 JUMP JUMPDEST PUSH1 0x40 MLOAD DUP1 SWAP2 SUB SWAP1 REVERT JUMPDEST PUSH1 0x0 PUSH20 0xFFFFFFFFFFFFFFFFFFFFFFFFFFFFFFFFFFFFFFFF AND DUP2 PUSH1 0x0 ADD PUSH1 0x0 SWAP1 SLOAD SWAP1 PUSH2 0x100 EXP SWAP1 DIV PUSH20 0xFFFFFFFFFFFFFFFFFFFFFFFFFFFFFFFFFFFFFFFF AND PUSH20 0xFFFFFFFFFFFFFFFFFFFFFFFFFFFFFFFFFFFFFFFF AND SUB PUSH2 0x14F0 JUMPI PUSH1 0x40 MLOAD PUSH32 0x8C379A000000000000000000000000000000000000000000000000000000000 DUP2 MSTORE PUSH1 0x4 ADD PUSH2 0x14E7 SWAP1 PUSH2 0x23EB JUMP JUMPDEST PUSH1 0x40 MLOAD DUP1 SWAP2 SUB SWAP1 REVERT JUMPDEST DUP1 PUSH1 0x0 ADD PUSH1 0x0 SWAP1 SLOAD SWAP1 PUSH2 0x100 EXP SWAP1 DIV PUSH20 0xFFFFFFFFFFFFFFFFFFFFFFFFFFFFFFFFFFFFFFFF AND PUSH20 0xFFFFFFFFFFFFFFFFFFFFFFFFFFFFFFFFFFFFFFFF AND CALLER PUSH20 0xFFFFFFFFFFFFFFFFFFFFFFFFFFFFFFFFFFFFFFFF AND SUB PUSH2 0x1582 JUMPI PUSH1 0x40 MLOAD PUSH32 0x8C379A000000000000000000000000000000000000000000000000000000000 DUP2 MSTORE PUSH1 0x4 ADD PUSH2 0x1579 SWAP1 PUSH2 0x2705 JUMP JUMPDEST PUSH1 0x40 MLOAD DUP1 SWAP2 SUB SWAP1 REVERT JUMPDEST CALLER DUP2 PUSH1 0x1 ADD PUSH1 0x0 PUSH2 0x100 EXP DUP2 SLOAD DUP2 PUSH20 0xFFFFFFFFFFFFFFFFFFFFFFFFFFFFFFFFFFFFFFFF MUL NOT AND SWAP1 DUP4 PUSH20 0xFFFFFFFFFFFFFFFFFFFFFFFFFFFFFFFFFFFFFFFF AND MUL OR SWAP1 SSTORE POP PUSH1 0x0 PUSH2 0x15CF PUSH2 0x18FC JUMP JUMPDEST SWAP1 POP DUP3 PUSH1 0xD PUSH1 0x0 DUP4 DUP2 MSTORE PUSH1 0x20 ADD SWAP1 DUP2 MSTORE PUSH1 0x20 ADD PUSH1 0x0 KECCAK256 DUP2 SWAP1 SSTORE POP CALLER PUSH20 0xFFFFFFFFFFFFFFFFFFFFFFFFFFFFFFFFFFFFFFFF AND DUP4 PUSH32 0x87969BC7FAF902221A147B95CEBA76E011C5EFB0339A0A8EE7A2BB82D9CFBBD6 PUSH1 0x40 MLOAD PUSH1 0x40 MLOAD DUP1 SWAP2 SUB SWAP1 LOG3 POP POP POP JUMP JUMPDEST PUSH2 0x163A PUSH2 0x1746 JUMP JUMPDEST PUSH2 0x1643 DUP2 PUSH2 0x1B4D JUMP JUMPDEST POP JUMP JUMPDEST PUSH1 0x7 SLOAD DUP2 JUMP JUMPDEST PUSH1 0xA PUSH1 0x0 DUP4 DUP2 MSTORE PUSH1 0x20 ADD SWAP1 DUP2 MSTORE PUSH1 0x20 ADD PUSH1 0x0 KECCAK256 PUSH1 0x0 ADD PUSH1 0x1 SWAP1 SLOAD SWAP1 PUSH2 0x100 EXP SWAP1 DIV PUSH1 0xFF AND PUSH2 0x16AF JUMPI PUSH1 0x40 MLOAD PUSH32 0x8C379A000000000000000000000000000000000000000000000000000000000 DUP2 MSTORE PUSH1 0x4 ADD PUSH2 0x16A6 SWAP1 PUSH2 0x252F JUMP JUMPDEST PUSH1 0x40 MLOAD DUP1 SWAP2 SUB SWAP1 REVERT JUMPDEST PUSH1 0x1 PUSH1 0xA PUSH1 0x0 DUP5 DUP2 MSTORE PUSH1 0x20 ADD SWAP1 DUP2 MSTORE PUSH1 0x20 ADD PUSH1 0x0 KECCAK256 PUSH1 0x0 ADD PUSH1 0x0 PUSH2 0x100 EXP DUP2 SLOAD DUP2 PUSH1 0xFF MUL NOT AND SWAP1 DUP4 ISZERO ISZERO MUL OR SWAP1 SSTORE POP DUP1 PUSH1 0xA PUSH1 0x0 DUP5 DUP2 MSTORE PUSH1 0x20 ADD SWAP1 DUP2 MSTORE PUSH1 0x20 ADD PUSH1 0x0 KECCAK256 PUSH1 0x1 ADD SWAP1 DUP1 MLOAD SWAP1 PUSH1 0x20 ADD SWAP1 PUSH2 0x1708 SWAP3 SWAP2 SWAP1 PUSH2 0x1C79 JUMP JUMPDEST POP PUSH32 0xFE2E2D779DBA245964D4E3EF9B994BE63856FD568BF7D3CA9E224755CB1BD54D DUP3 DUP3 PUSH1 0x40 MLOAD PUSH2 0x173A SWAP3 SWAP2 SWAP1 PUSH2 0x2725 JUMP JUMPDEST PUSH1 0x40 MLOAD DUP1 SWAP2 SUB SWAP1 LOG1 POP POP JUMP JUMPDEST PUSH1 0x0 DUP1 SLOAD SWAP1 PUSH2 0x100 EXP SWAP1 DIV PUSH20 0xFFFFFFFFFFFFFFFFFFFFFFFFFFFFFFFFFFFFFFFF AND PUSH20 0xFFFFFFFFFFFFFFFFFFFFFFFFFFFFFFFFFFFFFFFF AND CALLER PUSH20 0xFFFFFFFFFFFFFFFFFFFFFFFFFFFFFFFFFFFFFFFF AND EQ PUSH2 0x17D4 JUMPI PUSH1 0x40 MLOAD PUSH32 0x8C379A000000000000000000000000000000000000000000000000000000000 DUP2 MSTORE PUSH1 0x4 ADD PUSH2 0x17CB SWAP1 PUSH2 0x27A1 JUMP JUMPDEST PUSH1 0x40 MLOAD DUP1 SWAP2 SUB SWAP1 REVERT JUMPDEST JUMP JUMPDEST PUSH1 0x0 DUP2 DUP4 PUSH2 0x17E4 SWAP2 SWAP1 PUSH2 0x27F0 JUMP JUMPDEST SWAP1 POP SWAP3 SWAP2 POP POP JUMP JUMPDEST PUSH1 0x0 JUMPDEST PUSH1 0x3 DUP1 SLOAD SWAP1 POP DUP2 LT ISZERO PUSH2 0x18AD JUMPI DUP2 PUSH1 0x3 DUP3 DUP2 SLOAD DUP2 LT PUSH2 0x1811 JUMPI PUSH2 0x1810 PUSH2 0x2310 JUMP JUMPDEST JUMPDEST SWAP1 PUSH1 0x0 MSTORE PUSH1 0x20 PUSH1 0x0 KECCAK256 ADD SLOAD SUB PUSH2 0x18A0 JUMPI PUSH1 0x3 PUSH1 0x1 PUSH1 0x3 DUP1 SLOAD SWAP1 POP PUSH2 0x1835 SWAP2 SWAP1 PUSH2 0x2832 JUMP JUMPDEST DUP2 SLOAD DUP2 LT PUSH2 0x1846 JUMPI PUSH2 0x1845 PUSH2 0x2310 JUMP JUMPDEST JUMPDEST SWAP1 PUSH1 0x0 MSTORE PUSH1 0x20 PUSH1 0x0 KECCAK256 ADD SLOAD PUSH1 0x3 DUP3 DUP2 SLOAD DUP2 LT PUSH2 0x1865 JUMPI PUSH2 0x1864 PUSH2 0x2310 JUMP JUMPDEST JUMPDEST SWAP1 PUSH1 0x0 MSTORE PUSH1 0x20 PUSH1 0x0 KECCAK256 ADD DUP2 SWAP1 SSTORE POP PUSH1 0x3 DUP1 SLOAD DUP1 PUSH2 0x1885 JUMPI PUSH2 0x1884 PUSH2 0x2866 JUMP JUMPDEST JUMPDEST PUSH1 0x1 SWAP1 SUB DUP2 DUP2 SWAP1 PUSH1 0x0 MSTORE PUSH1 0x20 PUSH1 0x0 KECCAK256 ADD PUSH1 0x0 SWAP1 SSTORE SWAP1 SSTORE PUSH2 0x18AD JUMP JUMPDEST DUP1 DUP1 PUSH1 0x1 ADD SWAP2 POP POP PUSH2 0x17EF JUMP JUMPDEST POP POP JUMP JUMPDEST PUSH1 0x0 TIMESTAMP CALLER PUSH1 0x2 PUSH1 0x0 DUP2 SLOAD DUP1 SWAP3 SWAP2 SWAP1 PUSH2 0x18C8 SWAP1 PUSH2 0x2895 JUMP JUMPDEST SWAP2 SWAP1 POP SSTORE PUSH1 0x40 MLOAD PUSH1 0x20 ADD PUSH2 0x18DE SWAP4 SWAP3 SWAP2 SWAP1 PUSH2 0x2946 JUMP JUMPDEST PUSH1 0x40 MLOAD PUSH1 0x20 DUP2 DUP4 SUB SUB DUP2 MSTORE SWAP1 PUSH1 0x40 MSTORE DUP1 MLOAD SWAP1 PUSH1 0x20 ADD KECCAK256 PUSH1 0x0 SHR SWAP1 POP SWAP1 JUMP JUMPDEST PUSH1 0x0 PUSH1 0xB PUSH1 0x0 SWAP1 SLOAD SWAP1 PUSH2 0x100 EXP SWAP1 DIV PUSH20 0xFFFFFFFFFFFFFFFFFFFFFFFFFFFFFFFFFFFFFFFF AND PUSH20 0xFFFFFFFFFFFFFFFFFFFFFFFFFFFFFFFFFFFFFFFF AND PUSH4 0x5D3B1D30 PUSH1 0x8 SLOAD PUSH1 0x5 PUSH1 0x14 SWAP1 SLOAD SWAP1 PUSH2 0x100 EXP SWAP1 DIV PUSH8 0xFFFFFFFFFFFFFFFF AND PUSH1 0x9 PUSH1 0x4 SWAP1 SLOAD SWAP1 PUSH2 0x100 EXP SWAP1 DIV PUSH2 0xFFFF AND PUSH1 0x9 PUSH1 0x0 SWAP1 SLOAD SWAP1 PUSH2 0x100 EXP SWAP1 DIV PUSH4 0xFFFFFFFF AND PUSH1 0x9 PUSH1 0x6 SWAP1 SLOAD SWAP1 PUSH2 0x100 EXP SWAP1 DIV PUSH4 0xFFFFFFFF AND PUSH1 0x40 MLOAD DUP7 PUSH4 0xFFFFFFFF AND PUSH1 0xE0 SHL DUP2 MSTORE PUSH1 0x4 ADD PUSH2 0x19AD SWAP6 SWAP5 SWAP4 SWAP3 SWAP2 SWAP1 PUSH2 0x29EB JUMP JUMPDEST PUSH1 0x20 PUSH1 0x40 MLOAD DUP1 DUP4 SUB DUP2 PUSH1 0x0 DUP8 GAS CALL ISZERO DUP1 ISZERO PUSH2 0x19CC JUMPI RETURNDATASIZE PUSH1 0x0 DUP1 RETURNDATACOPY RETURNDATASIZE PUSH1 0x0 REVERT JUMPDEST POP POP POP POP PUSH1 0x40 MLOAD RETURNDATASIZE PUSH1 0x1F NOT PUSH1 0x1F DUP3 ADD AND DUP3 ADD DUP1 PUSH1 0x40 MSTORE POP DUP2 ADD SWAP1 PUSH2 0x19F0 SWAP2 SWAP1 PUSH2 0x2A53 JUMP JUMPDEST SWAP1 POP PUSH1 0x40 MLOAD DUP1 PUSH1 0x60 ADD PUSH1 0x40 MSTORE DUP1 PUSH1 0x0 ISZERO ISZERO DUP2 MSTORE PUSH1 0x20 ADD PUSH1 0x1 ISZERO ISZERO DUP2 MSTORE PUSH1 0x20 ADD PUSH1 0x0 PUSH8 0xFFFFFFFFFFFFFFFF DUP2 GT ISZERO PUSH2 0x1A2A JUMPI PUSH2 0x1A29 PUSH2 0x1E2E JUMP JUMPDEST JUMPDEST PUSH1 0x40 MLOAD SWAP1 DUP1 DUP3 MSTORE DUP1 PUSH1 0x20 MUL PUSH1 0x20 ADD DUP3 ADD PUSH1 0x40 MSTORE DUP1 ISZERO PUSH2 0x1A58 JUMPI DUP2 PUSH1 0x20 ADD PUSH1 0x20 DUP3 MUL DUP1 CALLDATASIZE DUP4 CALLDATACOPY DUP1 DUP3 ADD SWAP2 POP POP SWAP1 POP JUMPDEST POP DUP2 MSTORE POP PUSH1 0xA PUSH1 0x0 DUP4 DUP2 MSTORE PUSH1 0x20 ADD SWAP1 DUP2 MSTORE PUSH1 0x20 ADD PUSH1 0x0 KECCAK256 PUSH1 0x0 DUP3 ADD MLOAD DUP2 PUSH1 0x0 ADD PUSH1 0x0 PUSH2 0x100 EXP DUP2 SLOAD DUP2 PUSH1 0xFF MUL NOT AND SWAP1 DUP4 ISZERO ISZERO MUL OR SWAP1 SSTORE POP PUSH1 0x20 DUP3 ADD MLOAD DUP2 PUSH1 0x0 ADD PUSH1 0x1 PUSH2 0x100 EXP DUP2 SLOAD DUP2 PUSH1 0xFF MUL NOT AND SWAP1 DUP4 ISZERO ISZERO MUL OR SWAP1 SSTORE POP PUSH1 0x40 DUP3 ADD MLOAD DUP2 PUSH1 0x1 ADD SWAP1 DUP1 MLOAD SWAP1 PUSH1 0x20 ADD SWAP1 PUSH2 0x1ACB SWAP3 SWAP2 SWAP1 PUSH2 0x1C79 JUMP JUMPDEST POP SWAP1 POP POP PUSH1 0x6 DUP2 SWAP1 DUP1 PUSH1 0x1 DUP2 SLOAD ADD DUP1 DUP3 SSTORE DUP1 SWAP2 POP POP PUSH1 0x1 SWAP1 SUB SWAP1 PUSH1 0x0 MSTORE PUSH1 0x20 PUSH1 0x0 KECCAK256 ADD PUSH1 0x0 SWAP1 SWAP2 SWAP1 SWAP2 SWAP1 SWAP2 POP SSTORE DUP1 PUSH1 0x7 DUP2 SWAP1 SSTORE POP PUSH32 0xCC58B13AD3EAB50626C6A6300B1D139CD6EBB1688A7CCED9461C2F7E762665EE DUP2 PUSH1 0x9 PUSH1 0x6 SWAP1 SLOAD SWAP1 PUSH2 0x100 EXP SWAP1 DIV PUSH4 0xFFFFFFFF AND PUSH1 0x40 MLOAD PUSH2 0x1B42 SWAP3 SWAP2 SWAP1 PUSH2 0x2A80 JUMP JUMPDEST PUSH1 0x40 MLOAD DUP1 SWAP2 SUB SWAP1 LOG1 SWAP1 JUMP JUMPDEST CALLER PUSH20 0xFFFFFFFFFFFFFFFFFFFFFFFFFFFFFFFFFFFFFFFF AND DUP2 PUSH20 0xFFFFFFFFFFFFFFFFFFFFFFFFFFFFFFFFFFFFFFFF AND SUB PUSH2 0x1BBB JUMPI PUSH1 0x40 MLOAD PUSH32 0x8C379A000000000000000000000000000000000000000000000000000000000 DUP2 MSTORE PUSH1 0x4 ADD PUSH2 0x1BB2 SWAP1 PUSH2 0x2AF5 JUMP JUMPDEST PUSH1 0x40 MLOAD DUP1 SWAP2 SUB SWAP1 REVERT JUMPDEST DUP1 PUSH1 0x1 PUSH1 0x0 PUSH2 0x100 EXP DUP2 SLOAD DUP2 PUSH20 0xFFFFFFFFFFFFFFFFFFFFFFFFFFFFFFFFFFFFFFFF MUL NOT AND SWAP1 DUP4 PUSH20 0xFFFFFFFFFFFFFFFFFFFFFFFFFFFFFFFFFFFFFFFF AND MUL OR SWAP1 SSTORE POP DUP1 PUSH20 0xFFFFFFFFFFFFFFFFFFFFFFFFFFFFFFFFFFFFFFFF AND PUSH1 0x0 DUP1 SLOAD SWAP1 PUSH2 0x100 EXP SWAP1 DIV PUSH20 0xFFFFFFFFFFFFFFFFFFFFFFFFFFFFFFFFFFFFFFFF AND PUSH20 0xFFFFFFFFFFFFFFFFFFFFFFFFFFFFFFFFFFFFFFFF AND PUSH32 0xED8889F560326EB138920D842192F0EB3DD22B4F139C87A2C57538E05BAE1278 PUSH1 0x40 MLOAD PUSH1 0x40 MLOAD DUP1 SWAP2 SUB SWAP1 LOG3 POP JUMP JUMPDEST DUP3 DUP1 SLOAD DUP3 DUP3 SSTORE SWAP1 PUSH1 0x0 MSTORE PUSH1 0x20 PUSH1 0x0 KECCAK256 SWAP1 DUP2 ADD SWAP3 DUP3 ISZERO PUSH2 0x1CB5 JUMPI SWAP2 PUSH1 0x20 MUL DUP3 ADD JUMPDEST DUP3 DUP2 GT ISZERO PUSH2 0x1CB4 JUMPI DUP3 MLOAD DUP3 SSTORE SWAP2 PUSH1 0x20 ADD SWAP2 SWAP1 PUSH1 0x1 ADD SWAP1 PUSH2 0x1C99 JUMP JUMPDEST JUMPDEST POP SWAP1 POP PUSH2 0x1CC2 SWAP2 SWAP1 PUSH2 0x1CC6 JUMP JUMPDEST POP SWAP1 JUMP JUMPDEST JUMPDEST DUP1 DUP3 GT ISZERO PUSH2 0x1CDF JUMPI PUSH1 0x0 DUP2 PUSH1 0x0 SWAP1 SSTORE POP PUSH1 0x1 ADD PUSH2 0x1CC7 JUMP JUMPDEST POP SWAP1 JUMP JUMPDEST PUSH1 0x0 PUSH1 0x40 MLOAD SWAP1 POP SWAP1 JUMP JUMPDEST PUSH1 0x0 DUP1 REVERT JUMPDEST PUSH1 0x0 DUP1 REVERT JUMPDEST PUSH1 0x0 DUP2 SWAP1 POP SWAP2 SWAP1 POP JUMP JUMPDEST PUSH2 0x1D0A DUP2 PUSH2 0x1CF7 JUMP JUMPDEST DUP2 EQ PUSH2 0x1D15 JUMPI PUSH1 0x0 DUP1 REVERT JUMPDEST POP JUMP JUMPDEST PUSH1 0x0 DUP2 CALLDATALOAD SWAP1 POP PUSH2 0x1D27 DUP2 PUSH2 0x1D01 JUMP JUMPDEST SWAP3 SWAP2 POP POP JUMP JUMPDEST PUSH1 0x0 PUSH1 0x20 DUP3 DUP5 SUB SLT ISZERO PUSH2 0x1D43 JUMPI PUSH2 0x1D42 PUSH2 0x1CED JUMP JUMPDEST JUMPDEST PUSH1 0x0 PUSH2 0x1D51 DUP5 DUP3 DUP6 ADD PUSH2 0x1D18 JUMP JUMPDEST SWAP2 POP POP SWAP3 SWAP2 POP POP JUMP JUMPDEST PUSH1 0x0 PUSH20 0xFFFFFFFFFFFFFFFFFFFFFFFFFFFFFFFFFFFFFFFF DUP3 AND SWAP1 POP SWAP2 SWAP1 POP JUMP JUMPDEST PUSH1 0x0 PUSH2 0x1D85 DUP3 PUSH2 0x1D5A JUMP JUMPDEST SWAP1 POP SWAP2 SWAP1 POP JUMP JUMPDEST PUSH2 0x1D95 DUP2 PUSH2 0x1D7A JUMP JUMPDEST DUP3 MSTORE POP POP JUMP JUMPDEST PUSH2 0x1DA4 DUP2 PUSH2 0x1CF7 JUMP JUMPDEST DUP3 MSTORE POP POP JUMP JUMPDEST PUSH1 0x0 DUP2 ISZERO ISZERO SWAP1 POP SWAP2 SWAP1 POP JUMP JUMPDEST PUSH2 0x1DBF DUP2 PUSH2 0x1DAA JUMP JUMPDEST DUP3 MSTORE POP POP JUMP JUMPDEST PUSH1 0x0 PUSH1 0xA0 DUP3 ADD SWAP1 POP PUSH2 0x1DDA PUSH1 0x0 DUP4 ADD DUP9 PUSH2 0x1D8C JUMP JUMPDEST PUSH2 0x1DE7 PUSH1 0x20 DUP4 ADD DUP8 PUSH2 0x1D8C JUMP JUMPDEST PUSH2 0x1DF4 PUSH1 0x40 DUP4 ADD DUP7 PUSH2 0x1D9B JUMP JUMPDEST PUSH2 0x1E01 PUSH1 0x60 DUP4 ADD DUP6 PUSH2 0x1DB6 JUMP JUMPDEST PUSH2 0x1E0E PUSH1 0x80 DUP4 ADD DUP5 PUSH2 0x1D8C JUMP JUMPDEST SWAP7 SWAP6 POP POP POP POP POP POP JUMP JUMPDEST PUSH1 0x0 DUP1 REVERT JUMPDEST PUSH1 0x0 PUSH1 0x1F NOT PUSH1 0x1F DUP4 ADD AND SWAP1 POP SWAP2 SWAP1 POP JUMP JUMPDEST PUSH32 0x4E487B7100000000000000000000000000000000000000000000000000000000 PUSH1 0x0 MSTORE PUSH1 0x41 PUSH1 0x4 MSTORE PUSH1 0x24 PUSH1 0x0 REVERT JUMPDEST PUSH2 0x1E66 DUP3 PUSH2 0x1E1D JUMP JUMPDEST DUP2 ADD DUP2 DUP2 LT PUSH8 0xFFFFFFFFFFFFFFFF DUP3 GT OR ISZERO PUSH2 0x1E85 JUMPI PUSH2 0x1E84 PUSH2 0x1E2E JUMP JUMPDEST JUMPDEST DUP1 PUSH1 0x40 MSTORE POP POP POP JUMP JUMPDEST PUSH1 0x0 PUSH2 0x1E98 PUSH2 0x1CE3 JUMP JUMPDEST SWAP1 POP PUSH2 0x1EA4 DUP3 DUP3 PUSH2 0x1E5D JUMP JUMPDEST SWAP2 SWAP1 POP JUMP JUMPDEST PUSH1 0x0 PUSH8 0xFFFFFFFFFFFFFFFF DUP3 GT ISZERO PUSH2 0x1EC4 JUMPI PUSH2 0x1EC3 PUSH2 0x1E2E JUMP JUMPDEST JUMPDEST PUSH1 0x20 DUP3 MUL SWAP1 POP PUSH1 0x20 DUP2 ADD SWAP1 POP SWAP2 SWAP1 POP JUMP JUMPDEST PUSH1 0x0 DUP1 REVERT JUMPDEST PUSH1 0x0 PUSH2 0x1EED PUSH2 0x1EE8 DUP5 PUSH2 0x1EA9 JUMP JUMPDEST PUSH2 0x1E8E JUMP JUMPDEST SWAP1 POP DUP1 DUP4 DUP3 MSTORE PUSH1 0x20 DUP3 ADD SWAP1 POP PUSH1 0x20 DUP5 MUL DUP4 ADD DUP6 DUP2 GT ISZERO PUSH2 0x1F10 JUMPI PUSH2 0x1F0F PUSH2 0x1ED5 JUMP JUMPDEST JUMPDEST DUP4 JUMPDEST DUP2 DUP2 LT ISZERO PUSH2 0x1F39 JUMPI DUP1 PUSH2 0x1F25 DUP9 DUP3 PUSH2 0x1D18 JUMP JUMPDEST DUP5 MSTORE PUSH1 0x20 DUP5 ADD SWAP4 POP POP PUSH1 0x20 DUP2 ADD SWAP1 POP PUSH2 0x1F12 JUMP JUMPDEST POP POP POP SWAP4 SWAP3 POP POP POP JUMP JUMPDEST PUSH1 0x0 DUP3 PUSH1 0x1F DUP4 ADD SLT PUSH2 0x1F58 JUMPI PUSH2 0x1F57 PUSH2 0x1E18 JUMP JUMPDEST JUMPDEST DUP2 CALLDATALOAD PUSH2 0x1F68 DUP5 DUP3 PUSH1 0x20 DUP7 ADD PUSH2 0x1EDA JUMP JUMPDEST SWAP2 POP POP SWAP3 SWAP2 POP POP JUMP JUMPDEST PUSH1 0x0 DUP1 PUSH1 0x40 DUP4 DUP6 SUB SLT ISZERO PUSH2 0x1F88 JUMPI PUSH2 0x1F87 PUSH2 0x1CED JUMP JUMPDEST JUMPDEST PUSH1 0x0 PUSH2 0x1F96 DUP6 DUP3 DUP7 ADD PUSH2 0x1D18 JUMP JUMPDEST SWAP3 POP POP PUSH1 0x20 DUP4 ADD CALLDATALOAD PUSH8 0xFFFFFFFFFFFFFFFF DUP2 GT ISZERO PUSH2 0x1FB7 JUMPI PUSH2 0x1FB6 PUSH2 0x1CF2 JUMP JUMPDEST JUMPDEST PUSH2 0x1FC3 DUP6 DUP3 DUP7 ADD PUSH2 0x1F43 JUMP JUMPDEST SWAP2 POP POP SWAP3 POP SWAP3 SWAP1 POP JUMP JUMPDEST PUSH2 0x1FD6 DUP2 PUSH2 0x1D7A JUMP JUMPDEST DUP2 EQ PUSH2 0x1FE1 JUMPI PUSH1 0x0 DUP1 REVERT JUMPDEST POP JUMP JUMPDEST PUSH1 0x0 DUP2 CALLDATALOAD SWAP1 POP PUSH2 0x1FF3 DUP2 PUSH2 0x1FCD JUMP JUMPDEST SWAP3 SWAP2 POP POP JUMP JUMPDEST PUSH1 0x0 PUSH1 0x20 DUP3 DUP5 SUB SLT ISZERO PUSH2 0x200F JUMPI PUSH2 0x200E PUSH2 0x1CED JUMP JUMPDEST JUMPDEST PUSH1 0x0 PUSH2 0x201D DUP5 DUP3 DUP6 ADD PUSH2 0x1FE4 JUMP JUMPDEST SWAP2 POP POP SWAP3 SWAP2 POP POP JUMP JUMPDEST PUSH1 0x0 PUSH1 0x20 DUP3 ADD SWAP1 POP PUSH2 0x203B PUSH1 0x0 DUP4 ADD DUP5 PUSH2 0x1D8C JUMP JUMPDEST SWAP3 SWAP2 POP POP JUMP JUMPDEST PUSH1 0x0 DUP2 MLOAD SWAP1 POP SWAP2 SWAP1 POP JUMP JUMPDEST PUSH1 0x0 DUP3 DUP3 MSTORE PUSH1 0x20 DUP3 ADD SWAP1 POP SWAP3 SWAP2 POP POP JUMP JUMPDEST PUSH1 0x0 DUP2 SWAP1 POP PUSH1 0x20 DUP3 ADD SWAP1 POP SWAP2 SWAP1 POP JUMP JUMPDEST PUSH2 0x2076 DUP2 PUSH2 0x1CF7 JUMP JUMPDEST DUP3 MSTORE POP POP JUMP JUMPDEST PUSH1 0x0 PUSH2 0x2088 DUP4 DUP4 PUSH2 0x206D JUMP JUMPDEST PUSH1 0x20 DUP4 ADD SWAP1 POP SWAP3 SWAP2 POP POP JUMP JUMPDEST PUSH1 0x0 PUSH1 0x20 DUP3 ADD SWAP1 POP SWAP2 SWAP1 POP JUMP JUMPDEST PUSH1 0x0 PUSH2 0x20AC DUP3 PUSH2 0x2041 JUMP JUMPDEST PUSH2 0x20B6 DUP2 DUP6 PUSH2 0x204C JUMP JUMPDEST SWAP4 POP PUSH2 0x20C1 DUP4 PUSH2 0x205D JUMP JUMPDEST DUP1 PUSH1 0x0 JUMPDEST DUP4 DUP2 LT ISZERO PUSH2 0x20F2 JUMPI DUP2 MLOAD PUSH2 0x20D9 DUP9 DUP3 PUSH2 0x207C JUMP JUMPDEST SWAP8 POP PUSH2 0x20E4 DUP4 PUSH2 0x2094 JUMP JUMPDEST SWAP3 POP POP PUSH1 0x1 DUP2 ADD SWAP1 POP PUSH2 0x20C5 JUMP JUMPDEST POP DUP6 SWAP4 POP POP POP POP SWAP3 SWAP2 POP POP JUMP JUMPDEST PUSH1 0x0 PUSH1 0x20 DUP3 ADD SWAP1 POP DUP2 DUP2 SUB PUSH1 0x0 DUP4 ADD MSTORE PUSH2 0x2119 DUP2 DUP5 PUSH2 0x20A1 JUMP JUMPDEST SWAP1 POP SWAP3 SWAP2 POP POP JUMP JUMPDEST PUSH1 0x0 PUSH1 0x20 DUP3 ADD SWAP1 POP PUSH2 0x2136 PUSH1 0x0 DUP4 ADD DUP5 PUSH2 0x1D9B JUMP JUMPDEST SWAP3 SWAP2 POP POP JUMP JUMPDEST PUSH1 0x0 PUSH4 0xFFFFFFFF DUP3 AND SWAP1 POP SWAP2 SWAP1 POP JUMP JUMPDEST PUSH2 0x2155 DUP2 PUSH2 0x213C JUMP JUMPDEST DUP2 EQ PUSH2 0x2160 JUMPI PUSH1 0x0 DUP1 REVERT JUMPDEST POP JUMP JUMPDEST PUSH1 0x0 DUP2 CALLDATALOAD SWAP1 POP PUSH2 0x2172 DUP2 PUSH2 0x214C JUMP JUMPDEST SWAP3 SWAP2 POP POP JUMP JUMPDEST PUSH1 0x0 PUSH1 0x20 DUP3 DUP5 SUB SLT ISZERO PUSH2 0x218E JUMPI PUSH2 0x218D PUSH2 0x1CED JUMP JUMPDEST JUMPDEST PUSH1 0x0 PUSH2 0x219C DUP5 DUP3 DUP6 ADD PUSH2 0x2163 JUMP JUMPDEST SWAP2 POP POP SWAP3 SWAP2 POP POP JUMP JUMPDEST PUSH1 0x0 PUSH1 0x40 DUP3 ADD SWAP1 POP PUSH2 0x21BA PUSH1 0x0 DUP4 ADD DUP6 PUSH2 0x1DB6 JUMP JUMPDEST PUSH2 0x21C7 PUSH1 0x20 DUP4 ADD DUP5 PUSH2 0x1DB6 JUMP JUMPDEST SWAP4 SWAP3 POP POP POP JUMP JUMPDEST PUSH1 0x0 PUSH1 0x40 DUP3 ADD SWAP1 POP PUSH2 0x21E3 PUSH1 0x0 DUP4 ADD DUP6 PUSH2 0x1DB6 JUMP JUMPDEST DUP2 DUP2 SUB PUSH1 0x20 DUP4 ADD MSTORE PUSH2 0x21F5 DUP2 DUP5 PUSH2 0x20A1 JUMP JUMPDEST SWAP1 POP SWAP4 SWAP3 POP POP POP JUMP JUMPDEST PUSH1 0x0 PUSH1 0x40 DUP3 ADD SWAP1 POP PUSH2 0x2213 PUSH1 0x0 DUP4 ADD DUP6 PUSH2 0x1D8C JUMP JUMPDEST PUSH2 0x2220 PUSH1 0x20 DUP4 ADD DUP5 PUSH2 0x1D8C JUMP JUMPDEST SWAP4 SWAP3 POP POP POP JUMP JUMPDEST PUSH1 0x0 DUP3 DUP3 MSTORE PUSH1 0x20 DUP3 ADD SWAP1 POP SWAP3 SWAP2 POP POP JUMP JUMPDEST PUSH32 0x47616D6520697320616C726561647920636F6D706C6574656400000000000000 PUSH1 0x0 DUP3 ADD MSTORE POP JUMP JUMPDEST PUSH1 0x0 PUSH2 0x226E PUSH1 0x19 DUP4 PUSH2 0x2227 JUMP JUMPDEST SWAP2 POP PUSH2 0x2279 DUP3 PUSH2 0x2238 JUMP JUMPDEST PUSH1 0x20 DUP3 ADD SWAP1 POP SWAP2 SWAP1 POP JUMP JUMPDEST PUSH1 0x0 PUSH1 0x20 DUP3 ADD SWAP1 POP DUP2 DUP2 SUB PUSH1 0x0 DUP4 ADD MSTORE PUSH2 0x229D DUP2 PUSH2 0x2261 JUMP JUMPDEST SWAP1 POP SWAP2 SWAP1 POP JUMP JUMPDEST PUSH32 0x43616C6C6572206973206E6F742067616D6520626F7400000000000000000000 PUSH1 0x0 DUP3 ADD MSTORE POP JUMP JUMPDEST PUSH1 0x0 PUSH2 0x22DA PUSH1 0x16 DUP4 PUSH2 0x2227 JUMP JUMPDEST SWAP2 POP PUSH2 0x22E5 DUP3 PUSH2 0x22A4 JUMP JUMPDEST PUSH1 0x20 DUP3 ADD SWAP1 POP SWAP2 SWAP1 POP JUMP JUMPDEST PUSH1 0x0 PUSH1 0x20 DUP3 ADD SWAP1 POP DUP2 DUP2 SUB PUSH1 0x0 DUP4 ADD MSTORE PUSH2 0x2309 DUP2 PUSH2 0x22CD JUMP JUMPDEST SWAP1 POP SWAP2 SWAP1 POP JUMP JUMPDEST PUSH32 0x4E487B7100000000000000000000000000000000000000000000000000000000 PUSH1 0x0 MSTORE PUSH1 0x32 PUSH1 0x4 MSTORE PUSH1 0x24 PUSH1 0x0 REVERT JUMPDEST PUSH32 0x4E487B7100000000000000000000000000000000000000000000000000000000 PUSH1 0x0 MSTORE PUSH1 0x12 PUSH1 0x4 MSTORE PUSH1 0x24 PUSH1 0x0 REVERT JUMPDEST PUSH1 0x0 PUSH2 0x2379 DUP3 PUSH2 0x1CF7 JUMP JUMPDEST SWAP2 POP PUSH2 0x2384 DUP4 PUSH2 0x1CF7 JUMP JUMPDEST SWAP3 POP DUP3 PUSH2 0x2394 JUMPI PUSH2 0x2393 PUSH2 0x233F JUMP JUMPDEST JUMPDEST DUP3 DUP3 MOD SWAP1 POP SWAP3 SWAP2 POP POP JUMP JUMPDEST PUSH32 0x47616D6520646F6573206E6F7420657869737400000000000000000000000000 PUSH1 0x0 DUP3 ADD MSTORE POP JUMP JUMPDEST PUSH1 0x0 PUSH2 0x23D5 PUSH1 0x13 DUP4 PUSH2 0x2227 JUMP JUMPDEST SWAP2 POP PUSH2 0x23E0 DUP3 PUSH2 0x239F JUMP JUMPDEST PUSH1 0x20 DUP3 ADD SWAP1 POP SWAP2 SWAP1 POP JUMP JUMPDEST PUSH1 0x0 PUSH1 0x20 DUP3 ADD SWAP1 POP DUP2 DUP2 SUB PUSH1 0x0 DUP4 ADD MSTORE PUSH2 0x2404 DUP2 PUSH2 0x23C8 JUMP JUMPDEST SWAP1 POP SWAP2 SWAP1 POP JUMP JUMPDEST PUSH32 0x47616D6520697320636F6D706C65746564000000000000000000000000000000 PUSH1 0x0 DUP3 ADD MSTORE POP JUMP JUMPDEST PUSH1 0x0 PUSH2 0x2441 PUSH1 0x11 DUP4 PUSH2 0x2227 JUMP JUMPDEST SWAP2 POP PUSH2 0x244C DUP3 PUSH2 0x240B JUMP JUMPDEST PUSH1 0x20 DUP3 ADD SWAP1 POP SWAP2 SWAP1 POP JUMP JUMPDEST PUSH1 0x0 PUSH1 0x20 DUP3 ADD SWAP1 POP DUP2 DUP2 SUB PUSH1 0x0 DUP4 ADD MSTORE PUSH2 0x2470 DUP2 PUSH2 0x2434 JUMP JUMPDEST SWAP1 POP SWAP2 SWAP1 POP JUMP JUMPDEST PUSH32 0x4D7573742062652070726F706F736564206F776E657200000000000000000000 PUSH1 0x0 DUP3 ADD MSTORE POP JUMP JUMPDEST PUSH1 0x0 PUSH2 0x24AD PUSH1 0x16 DUP4 PUSH2 0x2227 JUMP JUMPDEST SWAP2 POP PUSH2 0x24B8 DUP3 PUSH2 0x2477 JUMP JUMPDEST PUSH1 0x20 DUP3 ADD SWAP1 POP SWAP2 SWAP1 POP JUMP JUMPDEST PUSH1 0x0 PUSH1 0x20 DUP3 ADD SWAP1 POP DUP2 DUP2 SUB PUSH1 0x0 DUP4 ADD MSTORE PUSH2 0x24DC DUP2 PUSH2 0x24A0 JUMP JUMPDEST SWAP1 POP SWAP2 SWAP1 POP JUMP JUMPDEST PUSH32 0x72657175657374206E6F7420666F756E64000000000000000000000000000000 PUSH1 0x0 DUP3 ADD MSTORE POP JUMP JUMPDEST PUSH1 0x0 PUSH2 0x2519 PUSH1 0x11 DUP4 PUSH2 0x2227 JUMP JUMPDEST SWAP2 POP PUSH2 0x2524 DUP3 PUSH2 0x24E3 JUMP JUMPDEST PUSH1 0x20 DUP3 ADD SWAP1 POP SWAP2 SWAP1 POP JUMP JUMPDEST PUSH1 0x0 PUSH1 0x20 DUP3 ADD SWAP1 POP DUP2 DUP2 SUB PUSH1 0x0 DUP4 ADD MSTORE PUSH2 0x2548 DUP2 PUSH2 0x250C JUMP JUMPDEST SWAP1 POP SWAP2 SWAP1 POP JUMP JUMPDEST PUSH32 0x576167657220616D6F756E74206973206C657373207468616E206D696E696D75 PUSH1 0x0 DUP3 ADD MSTORE PUSH32 0x6D57616765720000000000000000000000000000000000000000000000000000 PUSH1 0x20 DUP3 ADD MSTORE POP JUMP JUMPDEST PUSH1 0x0 PUSH2 0x25AB PUSH1 0x26 DUP4 PUSH2 0x2227 JUMP JUMPDEST SWAP2 POP PUSH2 0x25B6 DUP3 PUSH2 0x254F JUMP JUMPDEST PUSH1 0x40 DUP3 ADD SWAP1 POP SWAP2 SWAP1 POP JUMP JUMPDEST PUSH1 0x0 PUSH1 0x20 DUP3 ADD SWAP1 POP DUP2 DUP2 SUB PUSH1 0x0 DUP4 ADD MSTORE PUSH2 0x25DA DUP2 PUSH2 0x259E JUMP JUMPDEST SWAP1 POP SWAP2 SWAP1 POP JUMP JUMPDEST PUSH32 0x47616D6520697320616C7265616479206A6F696E656400000000000000000000 PUSH1 0x0 DUP3 ADD MSTORE POP JUMP JUMPDEST PUSH1 0x0 PUSH2 0x2617 PUSH1 0x16 DUP4 PUSH2 0x2227 JUMP JUMPDEST SWAP2 POP PUSH2 0x2622 DUP3 PUSH2 0x25E1 JUMP JUMPDEST PUSH1 0x20 DUP3 ADD SWAP1 POP SWAP2 SWAP1 POP JUMP JUMPDEST PUSH1 0x0 PUSH1 0x20 DUP3 ADD SWAP1 POP DUP2 DUP2 SUB PUSH1 0x0 DUP4 ADD MSTORE PUSH2 0x2646 DUP2 PUSH2 0x260A JUMP JUMPDEST SWAP1 POP SWAP2 SWAP1 POP JUMP JUMPDEST PUSH32 0x496E636F727265637420616D6F756E742073656E740000000000000000000000 PUSH1 0x0 DUP3 ADD MSTORE POP JUMP JUMPDEST PUSH1 0x0 PUSH2 0x2683 PUSH1 0x15 DUP4 PUSH2 0x2227 JUMP JUMPDEST SWAP2 POP PUSH2 0x268E DUP3 PUSH2 0x264D JUMP JUMPDEST PUSH1 0x20 DUP3 ADD SWAP1 POP SWAP2 SWAP1 POP JUMP JUMPDEST PUSH1 0x0 PUSH1 0x20 DUP3 ADD SWAP1 POP DUP2 DUP2 SUB PUSH1 0x0 DUP4 ADD MSTORE PUSH2 0x26B2 DUP2 PUSH2 0x2676 JUMP JUMPDEST SWAP1 POP SWAP2 SWAP1 POP JUMP JUMPDEST PUSH32 0x596F752063616E6E6F74206A6F696E20796F7572206F776E2067616D65000000 PUSH1 0x0 DUP3 ADD MSTORE POP JUMP JUMPDEST PUSH1 0x0 PUSH2 0x26EF PUSH1 0x1D DUP4 PUSH2 0x2227 JUMP JUMPDEST SWAP2 POP PUSH2 0x26FA DUP3 PUSH2 0x26B9 JUMP JUMPDEST PUSH1 0x20 DUP3 ADD SWAP1 POP SWAP2 SWAP1 POP JUMP JUMPDEST PUSH1 0x0 PUSH1 0x20 DUP3 ADD SWAP1 POP DUP2 DUP2 SUB PUSH1 0x0 DUP4 ADD MSTORE PUSH2 0x271E DUP2 PUSH2 0x26E2 JUMP JUMPDEST SWAP1 POP SWAP2 SWAP1 POP JUMP JUMPDEST PUSH1 0x0 PUSH1 0x40 DUP3 ADD SWAP1 POP PUSH2 0x273A PUSH1 0x0 DUP4 ADD DUP6 PUSH2 0x1D9B JUMP JUMPDEST DUP2 DUP2 SUB PUSH1 0x20 DUP4 ADD MSTORE PUSH2 0x274C DUP2 DUP5 PUSH2 0x20A1 JUMP JUMPDEST SWAP1 POP SWAP4 SWAP3 POP POP POP JUMP JUMPDEST PUSH32 0x4F6E6C792063616C6C61626C65206279206F776E657200000000000000000000 PUSH1 0x0 DUP3 ADD MSTORE POP JUMP JUMPDEST PUSH1 0x0 PUSH2 0x278B PUSH1 0x16 DUP4 PUSH2 0x2227 JUMP JUMPDEST SWAP2 POP PUSH2 0x2796 DUP3 PUSH2 0x2755 JUMP JUMPDEST PUSH1 0x20 DUP3 ADD SWAP1 POP SWAP2 SWAP1 POP JUMP JUMPDEST PUSH1 0x0 PUSH1 0x20 DUP3 ADD SWAP1 POP DUP2 DUP2 SUB PUSH1 0x0 DUP4 ADD MSTORE PUSH2 0x27BA DUP2 PUSH2 0x277E JUMP JUMPDEST SWAP1 POP SWAP2 SWAP1 POP JUMP JUMPDEST PUSH32 0x4E487B7100000000000000000000000000000000000000000000000000000000 PUSH1 0x0 MSTORE PUSH1 0x11 PUSH1 0x4 MSTORE PUSH1 0x24 PUSH1 0x0 REVERT JUMPDEST PUSH1 0x0 PUSH2 0x27FB DUP3 PUSH2 0x1CF7 JUMP JUMPDEST SWAP2 POP PUSH2 0x2806 DUP4 PUSH2 0x1CF7 JUMP JUMPDEST SWAP3 POP DUP3 DUP3 MUL PUSH2 0x2814 DUP2 PUSH2 0x1CF7 JUMP JUMPDEST SWAP2 POP DUP3 DUP3 DIV DUP5 EQ DUP4 ISZERO OR PUSH2 0x282B JUMPI PUSH2 0x282A PUSH2 0x27C1 JUMP JUMPDEST JUMPDEST POP SWAP3 SWAP2 POP POP JUMP JUMPDEST PUSH1 0x0 PUSH2 0x283D DUP3 PUSH2 0x1CF7 JUMP JUMPDEST SWAP2 POP PUSH2 0x2848 DUP4 PUSH2 0x1CF7 JUMP JUMPDEST SWAP3 POP DUP3 DUP3 SUB SWAP1 POP DUP2 DUP2 GT ISZERO PUSH2 0x2860 JUMPI PUSH2 0x285F PUSH2 0x27C1 JUMP JUMPDEST JUMPDEST SWAP3 SWAP2 POP POP JUMP JUMPDEST PUSH32 0x4E487B7100000000000000000000000000000000000000000000000000000000 PUSH1 0x0 MSTORE PUSH1 0x31 PUSH1 0x4 MSTORE PUSH1 0x24 PUSH1 0x0 REVERT JUMPDEST PUSH1 0x0 PUSH2 0x28A0 DUP3 PUSH2 0x1CF7 JUMP JUMPDEST SWAP2 POP PUSH32 0xFFFFFFFFFFFFFFFFFFFFFFFFFFFFFFFFFFFFFFFFFFFFFFFFFFFFFFFFFFFFFFFF DUP3 SUB PUSH2 0x28D2 JUMPI PUSH2 0x28D1 PUSH2 0x27C1 JUMP JUMPDEST JUMPDEST PUSH1 0x1 DUP3 ADD SWAP1 POP SWAP2 SWAP1 POP JUMP JUMPDEST PUSH1 0x0 DUP2 SWAP1 POP SWAP2 SWAP1 POP JUMP JUMPDEST PUSH2 0x28F8 PUSH2 0x28F3 DUP3 PUSH2 0x1CF7 JUMP JUMPDEST PUSH2 0x28DD JUMP JUMPDEST DUP3 MSTORE POP POP JUMP JUMPDEST PUSH1 0x0 DUP2 PUSH1 0x60 SHL SWAP1 POP SWAP2 SWAP1 POP JUMP JUMPDEST PUSH1 0x0 PUSH2 0x2916 DUP3 PUSH2 0x28FE JUMP JUMPDEST SWAP1 POP SWAP2 SWAP1 POP JUMP JUMPDEST PUSH1 0x0 PUSH2 0x2928 DUP3 PUSH2 0x290B JUMP JUMPDEST SWAP1 POP SWAP2 SWAP1 POP JUMP JUMPDEST PUSH2 0x2940 PUSH2 0x293B DUP3 PUSH2 0x1D7A JUMP JUMPDEST PUSH2 0x291D JUMP JUMPDEST DUP3 MSTORE POP POP JUMP JUMPDEST PUSH1 0x0 PUSH2 0x2952 DUP3 DUP7 PUSH2 0x28E7 JUMP JUMPDEST PUSH1 0x20 DUP3 ADD SWAP2 POP PUSH2 0x2962 DUP3 DUP6 PUSH2 0x292F JUMP JUMPDEST PUSH1 0x14 DUP3 ADD SWAP2 POP PUSH2 0x2972 DUP3 DUP5 PUSH2 0x28E7 JUMP JUMPDEST PUSH1 0x20 DUP3 ADD SWAP2 POP DUP2 SWAP1 POP SWAP5 SWAP4 POP POP POP POP JUMP JUMPDEST PUSH1 0x0 DUP2 SWAP1 POP SWAP2 SWAP1 POP JUMP JUMPDEST PUSH2 0x2996 DUP2 PUSH2 0x2983 JUMP JUMPDEST DUP3 MSTORE POP POP JUMP JUMPDEST PUSH1 0x0 PUSH8 0xFFFFFFFFFFFFFFFF DUP3 AND SWAP1 POP SWAP2 SWAP1 POP JUMP JUMPDEST PUSH2 0x29B9 DUP2 PUSH2 0x299C JUMP JUMPDEST DUP3 MSTORE POP POP JUMP JUMPDEST PUSH1 0x0 PUSH2 0xFFFF DUP3 AND SWAP1 POP SWAP2 SWAP1 POP JUMP JUMPDEST PUSH2 0x29D6 DUP2 PUSH2 0x29BF JUMP JUMPDEST DUP3 MSTORE POP POP JUMP JUMPDEST PUSH2 0x29E5 DUP2 PUSH2 0x213C JUMP JUMPDEST DUP3 MSTORE POP POP JUMP JUMPDEST PUSH1 0x0 PUSH1 0xA0 DUP3 ADD SWAP1 POP PUSH2 0x2A00 PUSH1 0x0 DUP4 ADD DUP9 PUSH2 0x298D JUMP JUMPDEST PUSH2 0x2A0D PUSH1 0x20 DUP4 ADD DUP8 PUSH2 0x29B0 JUMP JUMPDEST PUSH2 0x2A1A PUSH1 0x40 DUP4 ADD DUP7 PUSH2 0x29CD JUMP JUMPDEST PUSH2 0x2A27 PUSH1 0x60 DUP4 ADD DUP6 PUSH2 0x29DC JUMP JUMPDEST PUSH2 0x2A34 PUSH1 0x80 DUP4 ADD DUP5 PUSH2 0x29DC JUMP JUMPDEST SWAP7 SWAP6 POP POP POP POP POP POP JUMP JUMPDEST PUSH1 0x0 DUP2 MLOAD SWAP1 POP PUSH2 0x2A4D DUP2 PUSH2 0x1D01 JUMP JUMPDEST SWAP3 SWAP2 POP POP JUMP JUMPDEST PUSH1 0x0 PUSH1 0x20 DUP3 DUP5 SUB SLT ISZERO PUSH2 0x2A69 JUMPI PUSH2 0x2A68 PUSH2 0x1CED JUMP JUMPDEST JUMPDEST PUSH1 0x0 PUSH2 0x2A77 DUP5 DUP3 DUP6 ADD PUSH2 0x2A3E JUMP JUMPDEST SWAP2 POP POP SWAP3 SWAP2 POP POP JUMP JUMPDEST PUSH1 0x0 PUSH1 0x40 DUP3 ADD SWAP1 POP PUSH2 0x2A95 PUSH1 0x0 DUP4 ADD DUP6 PUSH2 0x1D9B JUMP JUMPDEST PUSH2 0x2AA2 PUSH1 0x20 DUP4 ADD DUP5 PUSH2 0x29DC JUMP JUMPDEST SWAP4 SWAP3 POP POP POP JUMP JUMPDEST PUSH32 0x43616E6E6F74207472616E7366657220746F2073656C66000000000000000000 PUSH1 0x0 DUP3 ADD MSTORE POP JUMP JUMPDEST PUSH1 0x0 PUSH2 0x2ADF PUSH1 0x17 DUP4 PUSH2 0x2227 JUMP JUMPDEST SWAP2 POP PUSH2 0x2AEA DUP3 PUSH2 0x2AA9 JUMP JUMPDEST PUSH1 0x20 DUP3 ADD SWAP1 POP SWAP2 SWAP1 POP JUMP JUMPDEST PUSH1 0x0 PUSH1 0x20 DUP3 ADD SWAP1 POP DUP2 DUP2 SUB PUSH1 0x0 DUP4 ADD MSTORE PUSH2 0x2B0E DUP2 PUSH2 0x2AD2 JUMP JUMPDEST SWAP1 POP SWAP2 SWAP1 POP JUMP INVALID LOG2 PUSH5 0x6970667358 0x22 SLT KECCAK256 0x2D 0x2C 0xF DUP1 DUP3 DUP4 LOG4 DELEGATECALL PUSH13 0x37224F51AD8C2A7DE9AB650138 0xE1 0x4B 0x2F CODESIZE 0xB1 0xF6 GAS 0xE4 EXTCODECOPY SWAP11 PUSH5 0x736F6C6343 STOP ADDMOD XOR STOP CALLER "
				},
				"gasEstimates": {
					"creation": {
						"codeDepositCost": "2216600",
						"executionCost": "infinite",
						"totalCost": "infinite"
					},
					"external": {
						"acceptOwnership()": "54607",
						"activeGameIds(uint256)": "infinite",
						"botAddress()": "2604",
						"cancelGame(uint256)": "infinite",
						"completeGame(uint256,uint256[])": "infinite",
						"gameIdByRequestId(uint256)": "infinite",
						"games(uint256)": "infinite",
						"getActiveGameIds()": "infinite",
						"getRequestStatus(uint256)": "infinite",
						"joinGame(uint256)": "infinite",
						"lastRequestId()": "2561",
						"minimumWager()": "2540",
						"owner()": "2545",
						"rawFulfillRandomWords(uint256,uint256[])": "infinite",
						"requestIds(uint256)": "infinite",
						"s_requests(uint256)": "infinite",
						"setBotAddress(address)": "26981",
						"setCallback(uint32)": "26937",
						"setMinimumWager(uint256)": "24800",
						"startGame(uint256)": "infinite",
						"transferOwnership(address)": "30764"
					},
					"internal": {
						"_generateGameId()": "infinite",
						"_removeGameFromActiveList(uint256)": "infinite",
						"fulfillRandomWords(uint256,uint256[] memory)": "infinite",
						"requestRandomWords()": "infinite"
					}
				},
				"methodIdentifiers": {
					"acceptOwnership()": "79ba5097",
					"activeGameIds(uint256)": "8ee67472",
					"botAddress()": "4bf4f423",
					"cancelGame(uint256)": "69958ab9",
					"completeGame(uint256,uint256[])": "5a758cb7",
					"gameIdByRequestId(uint256)": "b4a91e1e",
					"games(uint256)": "117a5b90",
					"getActiveGameIds()": "6916c9b0",
					"getRequestStatus(uint256)": "d8a4676f",
					"joinGame(uint256)": "efaa55a0",
					"lastRequestId()": "fc2a88c3",
					"minimumWager()": "b19068c7",
					"owner()": "8da5cb5b",
					"rawFulfillRandomWords(uint256,uint256[])": "1fe543e3",
					"requestIds(uint256)": "8796ba8c",
					"s_requests(uint256)": "a168fa89",
					"setBotAddress(address)": "2d4f40c6",
					"setCallback(uint32)": "978fffb8",
					"setMinimumWager(uint256)": "7f7f8968",
					"startGame(uint256)": "e5ed1d59",
					"transferOwnership(address)": "f2fde38b"
				}
			},
			"storageLayout": {
				"storage": [
					{
						"astId": 123,
						"contract": "coqfighttestnet.sol:CoqFightTestnet",
						"label": "s_owner",
						"offset": 0,
						"slot": "0",
						"type": "t_address"
					},
					{
						"astId": 125,
						"contract": "coqfighttestnet.sol:CoqFightTestnet",
						"label": "s_pendingOwner",
						"offset": 0,
						"slot": "1",
						"type": "t_address"
					},
					{
						"astId": 758,
						"contract": "coqfighttestnet.sol:CoqFightTestnet",
						"label": "gameCounter",
						"offset": 0,
						"slot": "2",
						"type": "t_uint256"
					},
					{
						"astId": 761,
						"contract": "coqfighttestnet.sol:CoqFightTestnet",
						"label": "activeGameIds",
						"offset": 0,
						"slot": "3",
						"type": "t_array(t_uint256)dyn_storage"
					},
					{
						"astId": 763,
						"contract": "coqfighttestnet.sol:CoqFightTestnet",
						"label": "minimumWager",
						"offset": 0,
						"slot": "4",
						"type": "t_uint256"
					},
					{
						"astId": 766,
						"contract": "coqfighttestnet.sol:CoqFightTestnet",
						"label": "botAddress",
						"offset": 0,
						"slot": "5",
						"type": "t_address"
					},
					{
						"astId": 768,
						"contract": "coqfighttestnet.sol:CoqFightTestnet",
						"label": "s_subscriptionId",
						"offset": 20,
						"slot": "5",
						"type": "t_uint64"
					},
					{
						"astId": 771,
						"contract": "coqfighttestnet.sol:CoqFightTestnet",
						"label": "requestIds",
						"offset": 0,
						"slot": "6",
						"type": "t_array(t_uint256)dyn_storage"
					},
					{
						"astId": 773,
						"contract": "coqfighttestnet.sol:CoqFightTestnet",
						"label": "lastRequestId",
						"offset": 0,
						"slot": "7",
						"type": "t_uint256"
					},
					{
						"astId": 776,
						"contract": "coqfighttestnet.sol:CoqFightTestnet",
						"label": "keyHash",
						"offset": 0,
						"slot": "8",
						"type": "t_bytes32"
					},
					{
						"astId": 779,
						"contract": "coqfighttestnet.sol:CoqFightTestnet",
						"label": "callbackGasLimit",
						"offset": 0,
						"slot": "9",
						"type": "t_uint32"
					},
					{
						"astId": 782,
						"contract": "coqfighttestnet.sol:CoqFightTestnet",
						"label": "requestConfirmations",
						"offset": 4,
						"slot": "9",
						"type": "t_uint16"
					},
					{
						"astId": 785,
						"contract": "coqfighttestnet.sol:CoqFightTestnet",
						"label": "numWords",
						"offset": 6,
						"slot": "9",
						"type": "t_uint32"
					},
					{
						"astId": 809,
						"contract": "coqfighttestnet.sol:CoqFightTestnet",
						"label": "s_requests",
						"offset": 0,
						"slot": "10",
						"type": "t_mapping(t_uint256,t_struct(RequestStatus)804_storage)"
					},
					{
						"astId": 812,
						"contract": "coqfighttestnet.sol:CoqFightTestnet",
						"label": "COORDINATOR",
						"offset": 0,
						"slot": "11",
						"type": "t_contract(VRFCoordinatorV2Interface)95"
					},
					{
						"astId": 817,
						"contract": "coqfighttestnet.sol:CoqFightTestnet",
						"label": "games",
						"offset": 0,
						"slot": "12",
						"type": "t_mapping(t_uint256,t_struct(Game)796_storage)"
					},
					{
						"astId": 821,
						"contract": "coqfighttestnet.sol:CoqFightTestnet",
						"label": "gameIdByRequestId",
						"offset": 0,
						"slot": "13",
						"type": "t_mapping(t_uint256,t_uint256)"
					}
				],
				"types": {
					"t_address": {
						"encoding": "inplace",
						"label": "address",
						"numberOfBytes": "20"
					},
					"t_array(t_uint256)dyn_storage": {
						"base": "t_uint256",
						"encoding": "dynamic_array",
						"label": "uint256[]",
						"numberOfBytes": "32"
					},
					"t_bool": {
						"encoding": "inplace",
						"label": "bool",
						"numberOfBytes": "1"
					},
					"t_bytes32": {
						"encoding": "inplace",
						"label": "bytes32",
						"numberOfBytes": "32"
					},
					"t_contract(VRFCoordinatorV2Interface)95": {
						"encoding": "inplace",
						"label": "contract VRFCoordinatorV2Interface",
						"numberOfBytes": "20"
					},
					"t_mapping(t_uint256,t_struct(Game)796_storage)": {
						"encoding": "mapping",
						"key": "t_uint256",
						"label": "mapping(uint256 => struct CoqFightTestnet.Game)",
						"numberOfBytes": "32",
						"value": "t_struct(Game)796_storage"
					},
					"t_mapping(t_uint256,t_struct(RequestStatus)804_storage)": {
						"encoding": "mapping",
						"key": "t_uint256",
						"label": "mapping(uint256 => struct CoqFightTestnet.RequestStatus)",
						"numberOfBytes": "32",
						"value": "t_struct(RequestStatus)804_storage"
					},
					"t_mapping(t_uint256,t_uint256)": {
						"encoding": "mapping",
						"key": "t_uint256",
						"label": "mapping(uint256 => uint256)",
						"numberOfBytes": "32",
						"value": "t_uint256"
					},
					"t_struct(Game)796_storage": {
						"encoding": "inplace",
						"label": "struct CoqFightTestnet.Game",
						"members": [
							{
								"astId": 787,
								"contract": "coqfighttestnet.sol:CoqFightTestnet",
								"label": "player1",
								"offset": 0,
								"slot": "0",
								"type": "t_address"
							},
							{
								"astId": 789,
								"contract": "coqfighttestnet.sol:CoqFightTestnet",
								"label": "player2",
								"offset": 0,
								"slot": "1",
								"type": "t_address"
							},
							{
								"astId": 791,
								"contract": "coqfighttestnet.sol:CoqFightTestnet",
								"label": "wager",
								"offset": 0,
								"slot": "2",
								"type": "t_uint256"
							},
							{
								"astId": 793,
								"contract": "coqfighttestnet.sol:CoqFightTestnet",
								"label": "completed",
								"offset": 0,
								"slot": "3",
								"type": "t_bool"
							},
							{
								"astId": 795,
								"contract": "coqfighttestnet.sol:CoqFightTestnet",
								"label": "winner",
								"offset": 1,
								"slot": "3",
								"type": "t_address"
							}
						],
						"numberOfBytes": "128"
					},
					"t_struct(RequestStatus)804_storage": {
						"encoding": "inplace",
						"label": "struct CoqFightTestnet.RequestStatus",
						"members": [
							{
								"astId": 798,
								"contract": "coqfighttestnet.sol:CoqFightTestnet",
								"label": "fulfilled",
								"offset": 0,
								"slot": "0",
								"type": "t_bool"
							},
							{
								"astId": 800,
								"contract": "coqfighttestnet.sol:CoqFightTestnet",
								"label": "exists",
								"offset": 1,
								"slot": "0",
								"type": "t_bool"
							},
							{
								"astId": 803,
								"contract": "coqfighttestnet.sol:CoqFightTestnet",
								"label": "randomWords",
								"offset": 0,
								"slot": "1",
								"type": "t_array(t_uint256)dyn_storage"
							}
						],
						"numberOfBytes": "64"
					},
					"t_uint16": {
						"encoding": "inplace",
						"label": "uint16",
						"numberOfBytes": "2"
					},
					"t_uint256": {
						"encoding": "inplace",
						"label": "uint256",
						"numberOfBytes": "32"
					},
					"t_uint32": {
						"encoding": "inplace",
						"label": "uint32",
						"numberOfBytes": "4"
					},
					"t_uint64": {
						"encoding": "inplace",
						"label": "uint64",
						"numberOfBytes": "8"
					}
				}
			},
			"userdoc": {
				"kind": "user",
				"methods": {
					"acceptOwnership()": {
						"notice": "Allows an ownership transfer to be completed by the recipient."
					},
					"owner()": {
						"notice": "Get the current owner"
					},
					"transferOwnership(address)": {
						"notice": "Allows an owner to begin transferring ownership to a new address, pending."
					}
				},
				"version": 1
			}
		}
	}
}