{
	"coqfighttestnet.sol": {
		"CoqFightTestnet": {
			"abi": [
				{
					"inputs": [
						{
							"internalType": "uint64",
							"name": "subscriptionId",
							"type": "uint64"
						}
					],
					"stateMutability": "nonpayable",
					"type": "constructor"
				},
				{
					"inputs": [
						{
							"internalType": "address",
							"name": "have",
							"type": "address"
						},
						{
							"internalType": "address",
							"name": "want",
							"type": "address"
						}
					],
					"name": "OnlyCoordinatorCanFulfill",
					"type": "error"
				},
				{
					"anonymous": false,
					"inputs": [
						{
							"indexed": true,
							"internalType": "uint256",
							"name": "gameId",
							"type": "uint256"
						}
					],
					"name": "GameCancelled",
					"type": "event"
				},
				{
					"anonymous": false,
					"inputs": [
						{
							"indexed": true,
							"internalType": "uint256",
							"name": "gameId",
							"type": "uint256"
						},
						{
							"indexed": true,
							"internalType": "address",
							"name": "winner",
							"type": "address"
						}
					],
					"name": "GameCompleted",
					"type": "event"
				},
				{
					"anonymous": false,
					"inputs": [
						{
							"indexed": true,
							"internalType": "uint256",
							"name": "gameId",
							"type": "uint256"
						},
						{
							"indexed": true,
							"internalType": "address",
							"name": "player1",
							"type": "address"
						},
						{
							"indexed": false,
							"internalType": "uint256",
							"name": "wager",
							"type": "uint256"
						}
					],
					"name": "GameStarted",
					"type": "event"
				},
				{
					"anonymous": false,
					"inputs": [
						{
							"indexed": true,
							"internalType": "address",
							"name": "from",
							"type": "address"
						},
						{
							"indexed": true,
							"internalType": "address",
							"name": "to",
							"type": "address"
						}
					],
					"name": "OwnershipTransferRequested",
					"type": "event"
				},
				{
					"anonymous": false,
					"inputs": [
						{
							"indexed": true,
							"internalType": "address",
							"name": "from",
							"type": "address"
						},
						{
							"indexed": true,
							"internalType": "address",
							"name": "to",
							"type": "address"
						}
					],
					"name": "OwnershipTransferred",
					"type": "event"
				},
				{
					"anonymous": false,
					"inputs": [
						{
							"indexed": true,
							"internalType": "uint256",
							"name": "gameId",
							"type": "uint256"
						},
						{
							"indexed": true,
							"internalType": "address",
							"name": "player2",
							"type": "address"
						}
					],
					"name": "PlayerJoined",
					"type": "event"
				},
				{
					"anonymous": false,
					"inputs": [
						{
							"indexed": false,
							"internalType": "uint256",
							"name": "requestId",
							"type": "uint256"
						},
						{
							"indexed": false,
							"internalType": "uint256[]",
							"name": "randomWords",
							"type": "uint256[]"
						}
					],
					"name": "RequestFulfilled",
					"type": "event"
				},
				{
					"anonymous": false,
					"inputs": [
						{
							"indexed": false,
							"internalType": "uint256",
							"name": "requestId",
							"type": "uint256"
						},
						{
							"indexed": false,
							"internalType": "uint32",
							"name": "numWords",
							"type": "uint32"
						}
					],
					"name": "RequestSent",
					"type": "event"
				},
				{
					"inputs": [],
					"name": "acceptOwnership",
					"outputs": [],
					"stateMutability": "nonpayable",
					"type": "function"
				},
				{
					"inputs": [
						{
							"internalType": "uint256",
							"name": "",
							"type": "uint256"
						}
					],
					"name": "activeGameIds",
					"outputs": [
						{
							"internalType": "uint256",
							"name": "",
							"type": "uint256"
						}
					],
					"stateMutability": "view",
					"type": "function"
				},
				{
					"inputs": [
						{
							"internalType": "uint256",
							"name": "_gameId",
							"type": "uint256"
						}
					],
					"name": "cancelGame",
					"outputs": [],
					"stateMutability": "nonpayable",
					"type": "function"
				},
				{
					"inputs": [
						{
							"internalType": "uint256",
							"name": "",
							"type": "uint256"
						}
					],
					"name": "gameIdByRequestId",
					"outputs": [
						{
							"internalType": "uint256",
							"name": "",
							"type": "uint256"
						}
					],
					"stateMutability": "view",
					"type": "function"
				},
				{
					"inputs": [
						{
							"internalType": "uint256",
							"name": "",
							"type": "uint256"
						}
					],
					"name": "games",
					"outputs": [
						{
							"internalType": "address",
							"name": "player1",
							"type": "address"
						},
						{
							"internalType": "address",
							"name": "player2",
							"type": "address"
						},
						{
							"internalType": "uint256",
							"name": "wager",
							"type": "uint256"
						},
						{
							"internalType": "bool",
							"name": "completed",
							"type": "bool"
						},
						{
							"internalType": "address",
							"name": "winner",
							"type": "address"
						}
					],
					"stateMutability": "view",
					"type": "function"
				},
				{
					"inputs": [],
					"name": "getActiveGameIds",
					"outputs": [
						{
							"internalType": "uint256[]",
							"name": "",
							"type": "uint256[]"
						}
					],
					"stateMutability": "view",
					"type": "function"
				},
				{
					"inputs": [
						{
							"internalType": "uint256",
							"name": "_requestId",
							"type": "uint256"
						}
					],
					"name": "getRequestStatus",
					"outputs": [
						{
							"internalType": "bool",
							"name": "fulfilled",
							"type": "bool"
						},
						{
							"internalType": "uint256[]",
							"name": "randomWords",
							"type": "uint256[]"
						}
					],
					"stateMutability": "view",
					"type": "function"
				},
				{
					"inputs": [
						{
							"internalType": "uint256",
							"name": "_gameId",
							"type": "uint256"
						}
					],
					"name": "joinGame",
					"outputs": [],
					"stateMutability": "payable",
					"type": "function"
				},
				{
					"inputs": [],
					"name": "lastRequestId",
					"outputs": [
						{
							"internalType": "uint256",
							"name": "",
							"type": "uint256"
						}
					],
					"stateMutability": "view",
					"type": "function"
				},
				{
					"inputs": [],
					"name": "minimumWager",
					"outputs": [
						{
							"internalType": "uint256",
							"name": "",
							"type": "uint256"
						}
					],
					"stateMutability": "view",
					"type": "function"
				},
				{
					"inputs": [],
					"name": "owner",
					"outputs": [
						{
							"internalType": "address",
							"name": "",
							"type": "address"
						}
					],
					"stateMutability": "view",
					"type": "function"
				},
				{
					"inputs": [
						{
							"internalType": "uint256",
							"name": "requestId",
							"type": "uint256"
						},
						{
							"internalType": "uint256[]",
							"name": "randomWords",
							"type": "uint256[]"
						}
					],
					"name": "rawFulfillRandomWords",
					"outputs": [],
					"stateMutability": "nonpayable",
					"type": "function"
				},
				{
					"inputs": [
						{
							"internalType": "uint256",
							"name": "",
							"type": "uint256"
						}
					],
					"name": "requestIds",
					"outputs": [
						{
							"internalType": "uint256",
							"name": "",
							"type": "uint256"
						}
					],
					"stateMutability": "view",
					"type": "function"
				},
				{
					"inputs": [
						{
							"internalType": "uint256",
							"name": "",
							"type": "uint256"
						}
					],
					"name": "s_requests",
					"outputs": [
						{
							"internalType": "bool",
							"name": "fulfilled",
							"type": "bool"
						},
						{
							"internalType": "bool",
							"name": "exists",
							"type": "bool"
						}
					],
					"stateMutability": "view",
					"type": "function"
				},
				{
					"inputs": [
						{
							"internalType": "uint32",
							"name": "_callbackGasLimit",
							"type": "uint32"
						}
					],
					"name": "setCallback",
					"outputs": [],
					"stateMutability": "nonpayable",
					"type": "function"
				},
				{
					"inputs": [
						{
							"internalType": "uint256",
							"name": "_newMinimumWager",
							"type": "uint256"
						}
					],
					"name": "setMinimumWager",
					"outputs": [],
					"stateMutability": "nonpayable",
					"type": "function"
				},
				{
					"inputs": [
						{
							"internalType": "uint256",
							"name": "_wager",
							"type": "uint256"
						}
					],
					"name": "startGame",
					"outputs": [],
					"stateMutability": "payable",
					"type": "function"
				},
				{
					"inputs": [
						{
							"internalType": "address",
							"name": "to",
							"type": "address"
						}
					],
					"name": "transferOwnership",
					"outputs": [],
					"stateMutability": "nonpayable",
					"type": "function"
				}
			],
			"devdoc": {
				"kind": "dev",
				"methods": {},
				"version": 1
			},
			"evm": {
				"assembly": "    /* \"coqfighttestnet.sol\":393:12544  contract CoqFightTestnet is VRFConsumerBaseV2, ConfirmedOwner {... */\n  mstore(0x40, 0xa0)\n    /* \"coqfighttestnet.sol\":575:576  1 */\n  0x01\n    /* \"coqfighttestnet.sol\":545:576  uint256 private gameCounter = 1 */\n  0x02\n  sstore\n    /* \"coqfighttestnet.sol\":1577:1643  0x354d2f95da55398f44b7cff77da56283d9c6c829a4bdf1bbcaf2ad6a4d081f61 */\n  0x354d2f95da55398f44b7cff77da56283d9c6c829a4bdf1bbcaf2ad6a4d081f61\n    /* \"coqfighttestnet.sol\":1551:1643  bytes32 keyHash =... */\n  0x00\n  shl\n  0x08\n  sstore\n    /* \"coqfighttestnet.sol\":2199:2205  100000 */\n  0x0186a0\n    /* \"coqfighttestnet.sol\":2173:2205  uint32 callbackGasLimit = 100000 */\n  0x09\n  exp(0x0100, 0x00)\n  dup2\n  sload\n  dup2\n  0xffffffff\n  mul\n  not\n  and\n  swap1\n  dup4\n  0xffffffff\n  and\n  mul\n  or\n  swap1\n  sstore\n  pop\n    /* \"coqfighttestnet.sol\":2294:2295  3 */\n  0x03\n    /* \"coqfighttestnet.sol\":2264:2295  uint16 requestConfirmations = 3 */\n  0x09\n  exp(0x0100, 0x04)\n  dup2\n  sload\n  dup2\n  0xffff\n  mul\n  not\n  and\n  swap1\n  dup4\n  0xffff\n  and\n  mul\n  or\n  swap1\n  sstore\n  pop\n    /* \"coqfighttestnet.sol\":2361:2362  1 */\n  0x01\n    /* \"coqfighttestnet.sol\":2343:2362  uint32 numWords = 1 */\n  0x09\n  exp(0x0100, 0x06)\n  dup2\n  sload\n  dup2\n  0xffffffff\n  mul\n  not\n  and\n  swap1\n  dup4\n  0xffffffff\n  and\n  mul\n  or\n  swap1\n  sstore\n  pop\n    /* \"coqfighttestnet.sol\":3992:4640  constructor(... */\n  callvalue\n  dup1\n  iszero\n  tag_1\n  jumpi\n  0x00\n  dup1\n  revert\ntag_1:\n  pop\n  mload(0x40)\n  sub(codesize, bytecodeSize)\n  dup1\n  bytecodeSize\n  dup4\n  codecopy\n  dup2\n  dup2\n  add\n  0x40\n  mstore\n  dup2\n  add\n  swap1\n  tag_2\n  swap2\n  swap1\n  tag_3\n  jump\t// in\ntag_2:\n    /* \"coqfighttestnet.sol\":4134:4144  msg.sender */\n  caller\n    /* \"@chainlink/contracts/src/v0.8/shared/access/ConfirmedOwner.sol\":327:335  newOwner */\n  dup1\n    /* \"@chainlink/contracts/src/v0.8/shared/access/ConfirmedOwner.sol\":345:346  0 */\n  0x00\n    /* \"coqfighttestnet.sol\":4067:4109  0x2eD832Ba664535e5886b75D64C46EB9a228C2610 */\n  0x2ed832ba664535e5886b75d64c46eb9a228c2610\n    /* \"@chainlink/contracts/src/v0.8/vrf/VRFConsumerBaseV2.sol\":5616:5631  _vrfCoordinator */\n  dup1\n    /* \"@chainlink/contracts/src/v0.8/vrf/VRFConsumerBaseV2.sol\":5599:5631  vrfCoordinator = _vrfCoordinator */\n  0xffffffffffffffffffffffffffffffffffffffff\n  and\n  0x80\n  dup2\n  0xffffffffffffffffffffffffffffffffffffffff\n  and\n  dup2\n  mstore\n  pop\n  pop\n    /* \"@chainlink/contracts/src/v0.8/vrf/VRFConsumerBaseV2.sol\":5556:5636  constructor(address _vrfCoordinator) {... */\n  pop\n    /* \"@chainlink/contracts/src/v0.8/shared/access/ConfirmedOwnerWithProposal.sol\":557:558  0 */\n  0x00\n    /* \"@chainlink/contracts/src/v0.8/shared/access/ConfirmedOwnerWithProposal.sol\":537:559  newOwner != address(0) */\n  0xffffffffffffffffffffffffffffffffffffffff\n  and\n    /* \"@chainlink/contracts/src/v0.8/shared/access/ConfirmedOwnerWithProposal.sol\":537:545  newOwner */\n  dup3\n    /* \"@chainlink/contracts/src/v0.8/shared/access/ConfirmedOwnerWithProposal.sol\":537:559  newOwner != address(0) */\n  0xffffffffffffffffffffffffffffffffffffffff\n  and\n  sub\n    /* \"@chainlink/contracts/src/v0.8/shared/access/ConfirmedOwnerWithProposal.sol\":529:588  require(newOwner != address(0), \"Cannot set owner to zero\") */\n  tag_10\n  jumpi\n  mload(0x40)\n  0x08c379a000000000000000000000000000000000000000000000000000000000\n  dup2\n  mstore\n  0x04\n  add\n  tag_11\n  swap1\n  tag_12\n  jump\t// in\ntag_11:\n  mload(0x40)\n  dup1\n  swap2\n  sub\n  swap1\n  revert\ntag_10:\n    /* \"@chainlink/contracts/src/v0.8/shared/access/ConfirmedOwnerWithProposal.sol\":605:613  newOwner */\n  dup2\n    /* \"@chainlink/contracts/src/v0.8/shared/access/ConfirmedOwnerWithProposal.sol\":595:602  s_owner */\n  0x00\n  dup1\n    /* \"@chainlink/contracts/src/v0.8/shared/access/ConfirmedOwnerWithProposal.sol\":595:613  s_owner = newOwner */\n  0x0100\n  exp\n  dup2\n  sload\n  dup2\n  0xffffffffffffffffffffffffffffffffffffffff\n  mul\n  not\n  and\n  swap1\n  dup4\n  0xffffffffffffffffffffffffffffffffffffffff\n  and\n  mul\n  or\n  swap1\n  sstore\n  pop\n    /* \"@chainlink/contracts/src/v0.8/shared/access/ConfirmedOwnerWithProposal.sol\":647:648  0 */\n  0x00\n    /* \"@chainlink/contracts/src/v0.8/shared/access/ConfirmedOwnerWithProposal.sol\":623:649  pendingOwner != address(0) */\n  0xffffffffffffffffffffffffffffffffffffffff\n  and\n    /* \"@chainlink/contracts/src/v0.8/shared/access/ConfirmedOwnerWithProposal.sol\":623:635  pendingOwner */\n  dup2\n    /* \"@chainlink/contracts/src/v0.8/shared/access/ConfirmedOwnerWithProposal.sol\":623:649  pendingOwner != address(0) */\n  0xffffffffffffffffffffffffffffffffffffffff\n  and\n  eq\n    /* \"@chainlink/contracts/src/v0.8/shared/access/ConfirmedOwnerWithProposal.sol\":619:698  if (pendingOwner != address(0)) {... */\n  tag_13\n  jumpi\n    /* \"@chainlink/contracts/src/v0.8/shared/access/ConfirmedOwnerWithProposal.sol\":659:691  _transferOwnership(pendingOwner) */\n  tag_14\n    /* \"@chainlink/contracts/src/v0.8/shared/access/ConfirmedOwnerWithProposal.sol\":678:690  pendingOwner */\n  dup2\n    /* \"@chainlink/contracts/src/v0.8/shared/access/ConfirmedOwnerWithProposal.sol\":659:677  _transferOwnership */\n  shl(0x20, tag_15)\n    /* \"@chainlink/contracts/src/v0.8/shared/access/ConfirmedOwnerWithProposal.sol\":659:691  _transferOwnership(pendingOwner) */\n  0x20\n  shr\n  jump\t// in\ntag_14:\n    /* \"@chainlink/contracts/src/v0.8/shared/access/ConfirmedOwnerWithProposal.sol\":619:698  if (pendingOwner != address(0)) {... */\ntag_13:\n    /* \"@chainlink/contracts/src/v0.8/shared/access/ConfirmedOwnerWithProposal.sol\":471:702  constructor(address newOwner, address pendingOwner) {... */\n  pop\n  pop\n    /* \"@chainlink/contracts/src/v0.8/shared/access/ConfirmedOwner.sol\":270:351  constructor(address newOwner) ConfirmedOwnerWithProposal(newOwner, address(0)) {} */\n  pop\n    /* \"coqfighttestnet.sol\":4213:4255  0x2eD832Ba664535e5886b75D64C46EB9a228C2610 */\n  0x2ed832ba664535e5886b75d64c46eb9a228c2610\n    /* \"coqfighttestnet.sol\":4160:4171  COORDINATOR */\n  0x0b\n  0x00\n    /* \"coqfighttestnet.sol\":4160:4265  COORDINATOR = VRFCoordinatorV2Interface(... */\n  0x0100\n  exp\n  dup2\n  sload\n  dup2\n  0xffffffffffffffffffffffffffffffffffffffff\n  mul\n  not\n  and\n  swap1\n  dup4\n  0xffffffffffffffffffffffffffffffffffffffff\n  and\n  mul\n  or\n  swap1\n  sstore\n  pop\n    /* \"coqfighttestnet.sol\":4336:4350  subscriptionId */\n  dup1\n    /* \"coqfighttestnet.sol\":4317:4333  s_subscriptionId */\n  0x05\n  0x00\n    /* \"coqfighttestnet.sol\":4317:4350  s_subscriptionId = subscriptionId */\n  0x0100\n  exp\n  dup2\n  sload\n  dup2\n  0xffffffffffffffff\n  mul\n  not\n  and\n  swap1\n  dup4\n  0xffffffffffffffff\n  and\n  mul\n  or\n  swap1\n  sstore\n  pop\n    /* \"coqfighttestnet.sol\":4445:4463  100000000000000000 */\n  0x016345785d8a0000\n    /* \"coqfighttestnet.sol\":4430:4442  minimumWager */\n  0x04\n    /* \"coqfighttestnet.sol\":4430:4463  minimumWager = 100000000000000000 */\n  dup2\n  swap1\n  sstore\n  pop\n    /* \"coqfighttestnet.sol\":3992:4640  constructor(... */\n  pop\n    /* \"coqfighttestnet.sol\":393:12544  contract CoqFightTestnet is VRFConsumerBaseV2, ConfirmedOwner {... */\n  jump(tag_18)\n    /* \"@chainlink/contracts/src/v0.8/shared/access/ConfirmedOwnerWithProposal.sol\":1482:1670  function _transferOwnership(address to) private {... */\ntag_15:\n    /* \"@chainlink/contracts/src/v0.8/shared/access/ConfirmedOwnerWithProposal.sol\":1550:1560  msg.sender */\n  caller\n    /* \"@chainlink/contracts/src/v0.8/shared/access/ConfirmedOwnerWithProposal.sol\":1544:1560  to != msg.sender */\n  0xffffffffffffffffffffffffffffffffffffffff\n  and\n    /* \"@chainlink/contracts/src/v0.8/shared/access/ConfirmedOwnerWithProposal.sol\":1544:1546  to */\n  dup2\n    /* \"@chainlink/contracts/src/v0.8/shared/access/ConfirmedOwnerWithProposal.sol\":1544:1560  to != msg.sender */\n  0xffffffffffffffffffffffffffffffffffffffff\n  and\n  sub\n    /* \"@chainlink/contracts/src/v0.8/shared/access/ConfirmedOwnerWithProposal.sol\":1536:1588  require(to != msg.sender, \"Cannot transfer to self\") */\n  tag_20\n  jumpi\n  mload(0x40)\n  0x08c379a000000000000000000000000000000000000000000000000000000000\n  dup2\n  mstore\n  0x04\n  add\n  tag_21\n  swap1\n  tag_22\n  jump\t// in\ntag_21:\n  mload(0x40)\n  dup1\n  swap2\n  sub\n  swap1\n  revert\ntag_20:\n    /* \"@chainlink/contracts/src/v0.8/shared/access/ConfirmedOwnerWithProposal.sol\":1612:1614  to */\n  dup1\n    /* \"@chainlink/contracts/src/v0.8/shared/access/ConfirmedOwnerWithProposal.sol\":1595:1609  s_pendingOwner */\n  0x01\n  0x00\n    /* \"@chainlink/contracts/src/v0.8/shared/access/ConfirmedOwnerWithProposal.sol\":1595:1614  s_pendingOwner = to */\n  0x0100\n  exp\n  dup2\n  sload\n  dup2\n  0xffffffffffffffffffffffffffffffffffffffff\n  mul\n  not\n  and\n  swap1\n  dup4\n  0xffffffffffffffffffffffffffffffffffffffff\n  and\n  mul\n  or\n  swap1\n  sstore\n  pop\n    /* \"@chainlink/contracts/src/v0.8/shared/access/ConfirmedOwnerWithProposal.sol\":1662:1664  to */\n  dup1\n    /* \"@chainlink/contracts/src/v0.8/shared/access/ConfirmedOwnerWithProposal.sol\":1626:1665  OwnershipTransferRequested(s_owner, to) */\n  0xffffffffffffffffffffffffffffffffffffffff\n  and\n    /* \"@chainlink/contracts/src/v0.8/shared/access/ConfirmedOwnerWithProposal.sol\":1653:1660  s_owner */\n  0x00\n  dup1\n  sload\n  swap1\n  0x0100\n  exp\n  swap1\n  div\n  0xffffffffffffffffffffffffffffffffffffffff\n  and\n    /* \"@chainlink/contracts/src/v0.8/shared/access/ConfirmedOwnerWithProposal.sol\":1626:1665  OwnershipTransferRequested(s_owner, to) */\n  0xffffffffffffffffffffffffffffffffffffffff\n  and\n  0xed8889f560326eb138920d842192f0eb3dd22b4f139c87a2c57538e05bae1278\n  mload(0x40)\n  mload(0x40)\n  dup1\n  swap2\n  sub\n  swap1\n  log3\n    /* \"@chainlink/contracts/src/v0.8/shared/access/ConfirmedOwnerWithProposal.sol\":1482:1670  function _transferOwnership(address to) private {... */\n  pop\n  jump\t// out\n    /* \"#utility.yul\":88:205   */\ntag_24:\n    /* \"#utility.yul\":197:198   */\n  0x00\n    /* \"#utility.yul\":194:195   */\n  dup1\n    /* \"#utility.yul\":187:199   */\n  revert\n    /* \"#utility.yul\":334:435   */\ntag_26:\n    /* \"#utility.yul\":370:377   */\n  0x00\n    /* \"#utility.yul\":410:428   */\n  0xffffffffffffffff\n    /* \"#utility.yul\":403:408   */\n  dup3\n    /* \"#utility.yul\":399:429   */\n  and\n    /* \"#utility.yul\":388:429   */\n  swap1\n  pop\n    /* \"#utility.yul\":334:435   */\n  swap2\n  swap1\n  pop\n  jump\t// out\n    /* \"#utility.yul\":441:561   */\ntag_27:\n    /* \"#utility.yul\":513:536   */\n  tag_40\n    /* \"#utility.yul\":530:535   */\n  dup2\n    /* \"#utility.yul\":513:536   */\n  tag_26\n  jump\t// in\ntag_40:\n    /* \"#utility.yul\":506:511   */\n  dup2\n    /* \"#utility.yul\":503:537   */\n  eq\n    /* \"#utility.yul\":493:555   */\n  tag_41\n  jumpi\n    /* \"#utility.yul\":551:552   */\n  0x00\n    /* \"#utility.yul\":548:549   */\n  dup1\n    /* \"#utility.yul\":541:553   */\n  revert\n    /* \"#utility.yul\":493:555   */\ntag_41:\n    /* \"#utility.yul\":441:561   */\n  pop\n  jump\t// out\n    /* \"#utility.yul\":567:708   */\ntag_28:\n    /* \"#utility.yul\":623:628   */\n  0x00\n    /* \"#utility.yul\":654:660   */\n  dup2\n    /* \"#utility.yul\":648:661   */\n  mload\n    /* \"#utility.yul\":639:661   */\n  swap1\n  pop\n    /* \"#utility.yul\":670:702   */\n  tag_43\n    /* \"#utility.yul\":696:701   */\n  dup2\n    /* \"#utility.yul\":670:702   */\n  tag_27\n  jump\t// in\ntag_43:\n    /* \"#utility.yul\":567:708   */\n  swap3\n  swap2\n  pop\n  pop\n  jump\t// out\n    /* \"#utility.yul\":714:1063   */\ntag_3:\n    /* \"#utility.yul\":783:789   */\n  0x00\n    /* \"#utility.yul\":832:834   */\n  0x20\n    /* \"#utility.yul\":820:829   */\n  dup3\n    /* \"#utility.yul\":811:818   */\n  dup5\n    /* \"#utility.yul\":807:830   */\n  sub\n    /* \"#utility.yul\":803:835   */\n  slt\n    /* \"#utility.yul\":800:919   */\n  iszero\n  tag_45\n  jumpi\n    /* \"#utility.yul\":838:917   */\n  tag_46\n  tag_24\n  jump\t// in\ntag_46:\n    /* \"#utility.yul\":800:919   */\ntag_45:\n    /* \"#utility.yul\":958:959   */\n  0x00\n    /* \"#utility.yul\":983:1046   */\n  tag_47\n    /* \"#utility.yul\":1038:1045   */\n  dup5\n    /* \"#utility.yul\":1029:1035   */\n  dup3\n    /* \"#utility.yul\":1018:1027   */\n  dup6\n    /* \"#utility.yul\":1014:1036   */\n  add\n    /* \"#utility.yul\":983:1046   */\n  tag_28\n  jump\t// in\ntag_47:\n    /* \"#utility.yul\":973:1046   */\n  swap2\n  pop\n    /* \"#utility.yul\":929:1056   */\n  pop\n    /* \"#utility.yul\":714:1063   */\n  swap3\n  swap2\n  pop\n  pop\n  jump\t// out\n    /* \"#utility.yul\":1069:1238   */\ntag_29:\n    /* \"#utility.yul\":1153:1164   */\n  0x00\n    /* \"#utility.yul\":1187:1193   */\n  dup3\n    /* \"#utility.yul\":1182:1185   */\n  dup3\n    /* \"#utility.yul\":1175:1194   */\n  mstore\n    /* \"#utility.yul\":1227:1231   */\n  0x20\n    /* \"#utility.yul\":1222:1225   */\n  dup3\n    /* \"#utility.yul\":1218:1232   */\n  add\n    /* \"#utility.yul\":1203:1232   */\n  swap1\n  pop\n    /* \"#utility.yul\":1069:1238   */\n  swap3\n  swap2\n  pop\n  pop\n  jump\t// out\n    /* \"#utility.yul\":1244:1418   */\ntag_30:\n    /* \"#utility.yul\":1384:1410   */\n  0x43616e6e6f7420736574206f776e657220746f207a65726f0000000000000000\n    /* \"#utility.yul\":1380:1381   */\n  0x00\n    /* \"#utility.yul\":1372:1378   */\n  dup3\n    /* \"#utility.yul\":1368:1382   */\n  add\n    /* \"#utility.yul\":1361:1411   */\n  mstore\n    /* \"#utility.yul\":1244:1418   */\n  pop\n  jump\t// out\n    /* \"#utility.yul\":1424:1790   */\ntag_31:\n    /* \"#utility.yul\":1566:1569   */\n  0x00\n    /* \"#utility.yul\":1587:1654   */\n  tag_51\n    /* \"#utility.yul\":1651:1653   */\n  0x18\n    /* \"#utility.yul\":1646:1649   */\n  dup4\n    /* \"#utility.yul\":1587:1654   */\n  tag_29\n  jump\t// in\ntag_51:\n    /* \"#utility.yul\":1580:1654   */\n  swap2\n  pop\n    /* \"#utility.yul\":1663:1756   */\n  tag_52\n    /* \"#utility.yul\":1752:1755   */\n  dup3\n    /* \"#utility.yul\":1663:1756   */\n  tag_30\n  jump\t// in\ntag_52:\n    /* \"#utility.yul\":1781:1783   */\n  0x20\n    /* \"#utility.yul\":1776:1779   */\n  dup3\n    /* \"#utility.yul\":1772:1784   */\n  add\n    /* \"#utility.yul\":1765:1784   */\n  swap1\n  pop\n    /* \"#utility.yul\":1424:1790   */\n  swap2\n  swap1\n  pop\n  jump\t// out\n    /* \"#utility.yul\":1796:2215   */\ntag_12:\n    /* \"#utility.yul\":1962:1966   */\n  0x00\n    /* \"#utility.yul\":2000:2002   */\n  0x20\n    /* \"#utility.yul\":1989:1998   */\n  dup3\n    /* \"#utility.yul\":1985:2003   */\n  add\n    /* \"#utility.yul\":1977:2003   */\n  swap1\n  pop\n    /* \"#utility.yul\":2049:2058   */\n  dup2\n    /* \"#utility.yul\":2043:2047   */\n  dup2\n    /* \"#utility.yul\":2039:2059   */\n  sub\n    /* \"#utility.yul\":2035:2036   */\n  0x00\n    /* \"#utility.yul\":2024:2033   */\n  dup4\n    /* \"#utility.yul\":2020:2037   */\n  add\n    /* \"#utility.yul\":2013:2060   */\n  mstore\n    /* \"#utility.yul\":2077:2208   */\n  tag_54\n    /* \"#utility.yul\":2203:2207   */\n  dup2\n    /* \"#utility.yul\":2077:2208   */\n  tag_31\n  jump\t// in\ntag_54:\n    /* \"#utility.yul\":2069:2208   */\n  swap1\n  pop\n    /* \"#utility.yul\":1796:2215   */\n  swap2\n  swap1\n  pop\n  jump\t// out\n    /* \"#utility.yul\":2221:2394   */\ntag_32:\n    /* \"#utility.yul\":2361:2386   */\n  0x43616e6e6f74207472616e7366657220746f2073656c66000000000000000000\n    /* \"#utility.yul\":2357:2358   */\n  0x00\n    /* \"#utility.yul\":2349:2355   */\n  dup3\n    /* \"#utility.yul\":2345:2359   */\n  add\n    /* \"#utility.yul\":2338:2387   */\n  mstore\n    /* \"#utility.yul\":2221:2394   */\n  pop\n  jump\t// out\n    /* \"#utility.yul\":2400:2766   */\ntag_33:\n    /* \"#utility.yul\":2542:2545   */\n  0x00\n    /* \"#utility.yul\":2563:2630   */\n  tag_57\n    /* \"#utility.yul\":2627:2629   */\n  0x17\n    /* \"#utility.yul\":2622:2625   */\n  dup4\n    /* \"#utility.yul\":2563:2630   */\n  tag_29\n  jump\t// in\ntag_57:\n    /* \"#utility.yul\":2556:2630   */\n  swap2\n  pop\n    /* \"#utility.yul\":2639:2732   */\n  tag_58\n    /* \"#utility.yul\":2728:2731   */\n  dup3\n    /* \"#utility.yul\":2639:2732   */\n  tag_32\n  jump\t// in\ntag_58:\n    /* \"#utility.yul\":2757:2759   */\n  0x20\n    /* \"#utility.yul\":2752:2755   */\n  dup3\n    /* \"#utility.yul\":2748:2760   */\n  add\n    /* \"#utility.yul\":2741:2760   */\n  swap1\n  pop\n    /* \"#utility.yul\":2400:2766   */\n  swap2\n  swap1\n  pop\n  jump\t// out\n    /* \"#utility.yul\":2772:3191   */\ntag_22:\n    /* \"#utility.yul\":2938:2942   */\n  0x00\n    /* \"#utility.yul\":2976:2978   */\n  0x20\n    /* \"#utility.yul\":2965:2974   */\n  dup3\n    /* \"#utility.yul\":2961:2979   */\n  add\n    /* \"#utility.yul\":2953:2979   */\n  swap1\n  pop\n    /* \"#utility.yul\":3025:3034   */\n  dup2\n    /* \"#utility.yul\":3019:3023   */\n  dup2\n    /* \"#utility.yul\":3015:3035   */\n  sub\n    /* \"#utility.yul\":3011:3012   */\n  0x00\n    /* \"#utility.yul\":3000:3009   */\n  dup4\n    /* \"#utility.yul\":2996:3013   */\n  add\n    /* \"#utility.yul\":2989:3036   */\n  mstore\n    /* \"#utility.yul\":3053:3184   */\n  tag_60\n    /* \"#utility.yul\":3179:3183   */\n  dup2\n    /* \"#utility.yul\":3053:3184   */\n  tag_33\n  jump\t// in\ntag_60:\n    /* \"#utility.yul\":3045:3184   */\n  swap1\n  pop\n    /* \"#utility.yul\":2772:3191   */\n  swap2\n  swap1\n  pop\n  jump\t// out\n    /* \"coqfighttestnet.sol\":393:12544  contract CoqFightTestnet is VRFConsumerBaseV2, ConfirmedOwner {... */\ntag_18:\n  mload(0x80)\n  codecopy(0x00, dataOffset(sub_0), dataSize(sub_0))\n  0x00\n  assignImmutable(\"0x064aab4cf973af3102587bae83caeab28cf75517d40727c9b952f0d14fb521fa\")\n  return(0x00, dataSize(sub_0))\nstop\n\nsub_0: assembly {\n        /* \"coqfighttestnet.sol\":393:12544  contract CoqFightTestnet is VRFConsumerBaseV2, ConfirmedOwner {... */\n      mstore(0x40, 0x80)\n      jumpi(tag_1, lt(calldatasize, 0x04))\n      shr(0xe0, calldataload(0x00))\n      dup1\n      0x978fffb8\n      gt\n      tag_20\n      jumpi\n      dup1\n      0xd8a4676f\n      gt\n      tag_21\n      jumpi\n      dup1\n      0xd8a4676f\n      eq\n      tag_15\n      jumpi\n      dup1\n      0xe5ed1d59\n      eq\n      tag_16\n      jumpi\n      dup1\n      0xefaa55a0\n      eq\n      tag_17\n      jumpi\n      dup1\n      0xf2fde38b\n      eq\n      tag_18\n      jumpi\n      dup1\n      0xfc2a88c3\n      eq\n      tag_19\n      jumpi\n      jump(tag_1)\n    tag_21:\n      dup1\n      0x978fffb8\n      eq\n      tag_11\n      jumpi\n      dup1\n      0xa168fa89\n      eq\n      tag_12\n      jumpi\n      dup1\n      0xb19068c7\n      eq\n      tag_13\n      jumpi\n      dup1\n      0xb4a91e1e\n      eq\n      tag_14\n      jumpi\n      jump(tag_1)\n    tag_20:\n      dup1\n      0x79ba5097\n      gt\n      tag_22\n      jumpi\n      dup1\n      0x79ba5097\n      eq\n      tag_6\n      jumpi\n      dup1\n      0x7f7f8968\n      eq\n      tag_7\n      jumpi\n      dup1\n      0x8796ba8c\n      eq\n      tag_8\n      jumpi\n      dup1\n      0x8da5cb5b\n      eq\n      tag_9\n      jumpi\n      dup1\n      0x8ee67472\n      eq\n      tag_10\n      jumpi\n      jump(tag_1)\n    tag_22:\n      dup1\n      0x117a5b90\n      eq\n      tag_2\n      jumpi\n      dup1\n      0x1fe543e3\n      eq\n      tag_3\n      jumpi\n      dup1\n      0x6916c9b0\n      eq\n      tag_4\n      jumpi\n      dup1\n      0x69958ab9\n      eq\n      tag_5\n      jumpi\n    tag_1:\n      0x00\n      dup1\n      revert\n        /* \"coqfighttestnet.sol\":2958:2995  mapping(uint256 => Game) public games */\n    tag_2:\n      callvalue\n      dup1\n      iszero\n      tag_23\n      jumpi\n      0x00\n      dup1\n      revert\n    tag_23:\n      pop\n      tag_24\n      0x04\n      dup1\n      calldatasize\n      sub\n      dup2\n      add\n      swap1\n      tag_25\n      swap2\n      swap1\n      tag_26\n      jump\t// in\n    tag_25:\n      tag_27\n      jump\t// in\n    tag_24:\n      mload(0x40)\n      tag_28\n      swap6\n      swap5\n      swap4\n      swap3\n      swap2\n      swap1\n      tag_29\n      jump\t// in\n    tag_28:\n      mload(0x40)\n      dup1\n      swap2\n      sub\n      swap1\n      return\n        /* \"@chainlink/contracts/src/v0.8/vrf/VRFConsumerBaseV2.sol\":6618:6874  function rawFulfillRandomWords(uint256 requestId, uint256[] memory randomWords) external {... */\n    tag_3:\n      callvalue\n      dup1\n      iszero\n      tag_30\n      jumpi\n      0x00\n      dup1\n      revert\n    tag_30:\n      pop\n      tag_31\n      0x04\n      dup1\n      calldatasize\n      sub\n      dup2\n      add\n      swap1\n      tag_32\n      swap2\n      swap1\n      tag_33\n      jump\t// in\n    tag_32:\n      tag_34\n      jump\t// in\n    tag_31:\n      stop\n        /* \"coqfighttestnet.sol\":6313:6419  function getActiveGameIds() external view returns (uint256[] memory) {... */\n    tag_4:\n      callvalue\n      dup1\n      iszero\n      tag_35\n      jumpi\n      0x00\n      dup1\n      revert\n    tag_35:\n      pop\n      tag_36\n      tag_37\n      jump\t// in\n    tag_36:\n      mload(0x40)\n      tag_38\n      swap2\n      swap1\n      tag_39\n      jump\t// in\n    tag_38:\n      mload(0x40)\n      dup1\n      swap2\n      sub\n      swap1\n      return\n        /* \"coqfighttestnet.sol\":6576:7511  function cancelGame(uint256 _gameId) external onlyOwner {... */\n    tag_5:\n      callvalue\n      dup1\n      iszero\n      tag_40\n      jumpi\n      0x00\n      dup1\n      revert\n    tag_40:\n      pop\n      tag_41\n      0x04\n      dup1\n      calldatasize\n      sub\n      dup2\n      add\n      swap1\n      tag_42\n      swap2\n      swap1\n      tag_26\n      jump\t// in\n    tag_42:\n      tag_43\n      jump\t// in\n    tag_41:\n      stop\n        /* \"@chainlink/contracts/src/v0.8/shared/access/ConfirmedOwnerWithProposal.sol\":1001:1266  function acceptOwnership() external override {... */\n    tag_6:\n      callvalue\n      dup1\n      iszero\n      tag_44\n      jumpi\n      0x00\n      dup1\n      revert\n    tag_44:\n      pop\n      tag_45\n      tag_46\n      jump\t// in\n    tag_45:\n      stop\n        /* \"coqfighttestnet.sol\":9544:9662  function setMinimumWager(uint256 _newMinimumWager) external onlyOwner {... */\n    tag_7:\n      callvalue\n      dup1\n      iszero\n      tag_47\n      jumpi\n      0x00\n      dup1\n      revert\n    tag_47:\n      pop\n      tag_48\n      0x04\n      dup1\n      calldatasize\n      sub\n      dup2\n      add\n      swap1\n      tag_49\n      swap2\n      swap1\n      tag_26\n      jump\t// in\n    tag_49:\n      tag_50\n      jump\t// in\n    tag_48:\n      stop\n        /* \"coqfighttestnet.sol\":1177:1204  uint256[] public requestIds */\n    tag_8:\n      callvalue\n      dup1\n      iszero\n      tag_51\n      jumpi\n      0x00\n      dup1\n      revert\n    tag_51:\n      pop\n      tag_52\n      0x04\n      dup1\n      calldatasize\n      sub\n      dup2\n      add\n      swap1\n      tag_53\n      swap2\n      swap1\n      tag_26\n      jump\t// in\n    tag_53:\n      tag_54\n      jump\t// in\n    tag_52:\n      mload(0x40)\n      tag_55\n      swap2\n      swap1\n      tag_56\n      jump\t// in\n    tag_55:\n      mload(0x40)\n      dup1\n      swap2\n      sub\n      swap1\n      return\n        /* \"@chainlink/contracts/src/v0.8/shared/access/ConfirmedOwnerWithProposal.sol\":1317:1398  function owner() public view override returns (address) {... */\n    tag_9:\n      callvalue\n      dup1\n      iszero\n      tag_57\n      jumpi\n      0x00\n      dup1\n      revert\n    tag_57:\n      pop\n      tag_58\n      tag_59\n      jump\t// in\n    tag_58:\n      mload(0x40)\n      tag_60\n      swap2\n      swap1\n      tag_61\n      jump\t// in\n    tag_60:\n      mload(0x40)\n      dup1\n      swap2\n      sub\n      swap1\n      return\n        /* \"coqfighttestnet.sol\":639:669  uint256[] public activeGameIds */\n    tag_10:\n      callvalue\n      dup1\n      iszero\n      tag_62\n      jumpi\n      0x00\n      dup1\n      revert\n    tag_62:\n      pop\n      tag_63\n      0x04\n      dup1\n      calldatasize\n      sub\n      dup2\n      add\n      swap1\n      tag_64\n      swap2\n      swap1\n      tag_26\n      jump\t// in\n    tag_64:\n      tag_65\n      jump\t// in\n    tag_63:\n      mload(0x40)\n      tag_66\n      swap2\n      swap1\n      tag_56\n      jump\t// in\n    tag_66:\n      mload(0x40)\n      dup1\n      swap2\n      sub\n      swap1\n      return\n        /* \"coqfighttestnet.sol\":9762:9881  function setCallback(uint32 _callbackGasLimit) external onlyOwner {... */\n    tag_11:\n      callvalue\n      dup1\n      iszero\n      tag_67\n      jumpi\n      0x00\n      dup1\n      revert\n    tag_67:\n      pop\n      tag_68\n      0x04\n      dup1\n      calldatasize\n      sub\n      dup2\n      add\n      swap1\n      tag_69\n      swap2\n      swap1\n      tag_70\n      jump\t// in\n    tag_69:\n      tag_71\n      jump\t// in\n    tag_68:\n      stop\n        /* \"coqfighttestnet.sol\":2779:2838  mapping(uint256 => RequestStatus)... */\n    tag_12:\n      callvalue\n      dup1\n      iszero\n      tag_72\n      jumpi\n      0x00\n      dup1\n      revert\n    tag_72:\n      pop\n      tag_73\n      0x04\n      dup1\n      calldatasize\n      sub\n      dup2\n      add\n      swap1\n      tag_74\n      swap2\n      swap1\n      tag_26\n      jump\t// in\n    tag_74:\n      tag_75\n      jump\t// in\n    tag_73:\n      mload(0x40)\n      tag_76\n      swap3\n      swap2\n      swap1\n      tag_77\n      jump\t// in\n    tag_76:\n      mload(0x40)\n      dup1\n      swap2\n      sub\n      swap1\n      return\n        /* \"coqfighttestnet.sol\":844:871  uint256 public minimumWager */\n    tag_13:\n      callvalue\n      dup1\n      iszero\n      tag_78\n      jumpi\n      0x00\n      dup1\n      revert\n    tag_78:\n      pop\n      tag_79\n      tag_80\n      jump\t// in\n    tag_79:\n      mload(0x40)\n      tag_81\n      swap2\n      swap1\n      tag_56\n      jump\t// in\n    tag_81:\n      mload(0x40)\n      dup1\n      swap2\n      sub\n      swap1\n      return\n        /* \"coqfighttestnet.sol\":3043:3095  mapping(uint256 => uint256) public gameIdByRequestId */\n    tag_14:\n      callvalue\n      dup1\n      iszero\n      tag_82\n      jumpi\n      0x00\n      dup1\n      revert\n    tag_82:\n      pop\n      tag_83\n      0x04\n      dup1\n      calldatasize\n      sub\n      dup2\n      add\n      swap1\n      tag_84\n      swap2\n      swap1\n      tag_26\n      jump\t// in\n    tag_84:\n      tag_85\n      jump\t// in\n    tag_83:\n      mload(0x40)\n      tag_86\n      swap2\n      swap1\n      tag_56\n      jump\t// in\n    tag_86:\n      mload(0x40)\n      dup1\n      swap2\n      sub\n      swap1\n      return\n        /* \"coqfighttestnet.sol\":12217:12542  function getRequestStatus(... */\n    tag_15:\n      callvalue\n      dup1\n      iszero\n      tag_87\n      jumpi\n      0x00\n      dup1\n      revert\n    tag_87:\n      pop\n      tag_88\n      0x04\n      dup1\n      calldatasize\n      sub\n      dup2\n      add\n      swap1\n      tag_89\n      swap2\n      swap1\n      tag_26\n      jump\t// in\n    tag_89:\n      tag_90\n      jump\t// in\n    tag_88:\n      mload(0x40)\n      tag_91\n      swap3\n      swap2\n      swap1\n      tag_92\n      jump\t// in\n    tag_91:\n      mload(0x40)\n      dup1\n      swap2\n      sub\n      swap1\n      return\n        /* \"coqfighttestnet.sol\":4751:5312  function startGame(uint256 _wager) external payable {... */\n    tag_16:\n      tag_93\n      0x04\n      dup1\n      calldatasize\n      sub\n      dup2\n      add\n      swap1\n      tag_94\n      swap2\n      swap1\n      tag_26\n      jump\t// in\n    tag_94:\n      tag_95\n      jump\t// in\n    tag_93:\n      stop\n        /* \"coqfighttestnet.sol\":5359:6248  function joinGame(uint256 _gameId) external payable {... */\n    tag_17:\n      tag_96\n      0x04\n      dup1\n      calldatasize\n      sub\n      dup2\n      add\n      swap1\n      tag_97\n      swap2\n      swap1\n      tag_26\n      jump\t// in\n    tag_97:\n      tag_98\n      jump\t// in\n    tag_96:\n      stop\n        /* \"@chainlink/contracts/src/v0.8/shared/access/ConfirmedOwnerWithProposal.sol\":811:909  function transferOwnership(address to) public override onlyOwner {... */\n    tag_18:\n      callvalue\n      dup1\n      iszero\n      tag_99\n      jumpi\n      0x00\n      dup1\n      revert\n    tag_99:\n      pop\n      tag_100\n      0x04\n      dup1\n      calldatasize\n      sub\n      dup2\n      add\n      swap1\n      tag_101\n      swap2\n      swap1\n      tag_102\n      jump\t// in\n    tag_101:\n      tag_103\n      jump\t// in\n    tag_100:\n      stop\n        /* \"coqfighttestnet.sol\":1210:1238  uint256 public lastRequestId */\n    tag_19:\n      callvalue\n      dup1\n      iszero\n      tag_104\n      jumpi\n      0x00\n      dup1\n      revert\n    tag_104:\n      pop\n      tag_105\n      tag_106\n      jump\t// in\n    tag_105:\n      mload(0x40)\n      tag_107\n      swap2\n      swap1\n      tag_56\n      jump\t// in\n    tag_107:\n      mload(0x40)\n      dup1\n      swap2\n      sub\n      swap1\n      return\n        /* \"coqfighttestnet.sol\":2958:2995  mapping(uint256 => Game) public games */\n    tag_27:\n      mstore(0x20, 0x0c)\n      dup1\n      0x00\n      mstore\n      keccak256(0x00, 0x40)\n      0x00\n      swap2\n      pop\n      swap1\n      pop\n      dup1\n      0x00\n      add\n      0x00\n      swap1\n      sload\n      swap1\n      0x0100\n      exp\n      swap1\n      div\n      0xffffffffffffffffffffffffffffffffffffffff\n      and\n      swap1\n      dup1\n      0x01\n      add\n      0x00\n      swap1\n      sload\n      swap1\n      0x0100\n      exp\n      swap1\n      div\n      0xffffffffffffffffffffffffffffffffffffffff\n      and\n      swap1\n      dup1\n      0x02\n      add\n      sload\n      swap1\n      dup1\n      0x03\n      add\n      0x00\n      swap1\n      sload\n      swap1\n      0x0100\n      exp\n      swap1\n      div\n      0xff\n      and\n      swap1\n      dup1\n      0x03\n      add\n      0x01\n      swap1\n      sload\n      swap1\n      0x0100\n      exp\n      swap1\n      div\n      0xffffffffffffffffffffffffffffffffffffffff\n      and\n      swap1\n      pop\n      dup6\n      jump\t// out\n        /* \"@chainlink/contracts/src/v0.8/vrf/VRFConsumerBaseV2.sol\":6618:6874  function rawFulfillRandomWords(uint256 requestId, uint256[] memory randomWords) external {... */\n    tag_34:\n        /* \"@chainlink/contracts/src/v0.8/vrf/VRFConsumerBaseV2.sol\":6731:6745  vrfCoordinator */\n      immutable(\"0x064aab4cf973af3102587bae83caeab28cf75517d40727c9b952f0d14fb521fa\")\n        /* \"@chainlink/contracts/src/v0.8/vrf/VRFConsumerBaseV2.sol\":6717:6745  msg.sender != vrfCoordinator */\n      0xffffffffffffffffffffffffffffffffffffffff\n      and\n        /* \"@chainlink/contracts/src/v0.8/vrf/VRFConsumerBaseV2.sol\":6717:6727  msg.sender */\n      caller\n        /* \"@chainlink/contracts/src/v0.8/vrf/VRFConsumerBaseV2.sol\":6717:6745  msg.sender != vrfCoordinator */\n      0xffffffffffffffffffffffffffffffffffffffff\n      and\n      eq\n        /* \"@chainlink/contracts/src/v0.8/vrf/VRFConsumerBaseV2.sol\":6713:6822  if (msg.sender != vrfCoordinator) {... */\n      tag_109\n      jumpi\n        /* \"@chainlink/contracts/src/v0.8/vrf/VRFConsumerBaseV2.sol\":6788:6798  msg.sender */\n      caller\n        /* \"@chainlink/contracts/src/v0.8/vrf/VRFConsumerBaseV2.sol\":6800:6814  vrfCoordinator */\n      immutable(\"0x064aab4cf973af3102587bae83caeab28cf75517d40727c9b952f0d14fb521fa\")\n        /* \"@chainlink/contracts/src/v0.8/vrf/VRFConsumerBaseV2.sol\":6762:6815  OnlyCoordinatorCanFulfill(msg.sender, vrfCoordinator) */\n      mload(0x40)\n      0x1cf993f400000000000000000000000000000000000000000000000000000000\n      dup2\n      mstore\n      0x04\n      add\n      tag_110\n      swap3\n      swap2\n      swap1\n      tag_111\n      jump\t// in\n    tag_110:\n      mload(0x40)\n      dup1\n      swap2\n      sub\n      swap1\n      revert\n        /* \"@chainlink/contracts/src/v0.8/vrf/VRFConsumerBaseV2.sol\":6713:6822  if (msg.sender != vrfCoordinator) {... */\n    tag_109:\n        /* \"@chainlink/contracts/src/v0.8/vrf/VRFConsumerBaseV2.sol\":6827:6869  fulfillRandomWords(requestId, randomWords) */\n      tag_112\n        /* \"@chainlink/contracts/src/v0.8/vrf/VRFConsumerBaseV2.sol\":6846:6855  requestId */\n      dup3\n        /* \"@chainlink/contracts/src/v0.8/vrf/VRFConsumerBaseV2.sol\":6857:6868  randomWords */\n      dup3\n        /* \"@chainlink/contracts/src/v0.8/vrf/VRFConsumerBaseV2.sol\":6827:6845  fulfillRandomWords */\n      tag_113\n        /* \"@chainlink/contracts/src/v0.8/vrf/VRFConsumerBaseV2.sol\":6827:6869  fulfillRandomWords(requestId, randomWords) */\n      jump\t// in\n    tag_112:\n        /* \"@chainlink/contracts/src/v0.8/vrf/VRFConsumerBaseV2.sol\":6618:6874  function rawFulfillRandomWords(uint256 requestId, uint256[] memory randomWords) external {... */\n      pop\n      pop\n      jump\t// out\n        /* \"coqfighttestnet.sol\":6313:6419  function getActiveGameIds() external view returns (uint256[] memory) {... */\n    tag_37:\n        /* \"coqfighttestnet.sol\":6364:6380  uint256[] memory */\n      0x60\n        /* \"coqfighttestnet.sol\":6399:6412  activeGameIds */\n      0x03\n        /* \"coqfighttestnet.sol\":6392:6412  return activeGameIds */\n      dup1\n      sload\n      dup1\n      0x20\n      mul\n      0x20\n      add\n      mload(0x40)\n      swap1\n      dup2\n      add\n      0x40\n      mstore\n      dup1\n      swap3\n      swap2\n      swap1\n      dup2\n      dup2\n      mstore\n      0x20\n      add\n      dup3\n      dup1\n      sload\n      dup1\n      iszero\n      tag_115\n      jumpi\n      0x20\n      mul\n      dup3\n      add\n      swap2\n      swap1\n      0x00\n      mstore\n      keccak256(0x00, 0x20)\n      swap1\n    tag_116:\n      dup2\n      sload\n      dup2\n      mstore\n      0x20\n      add\n      swap1\n      0x01\n      add\n      swap1\n      dup1\n      dup4\n      gt\n      tag_116\n      jumpi\n    tag_115:\n      pop\n      pop\n      pop\n      pop\n      pop\n      swap1\n      pop\n        /* \"coqfighttestnet.sol\":6313:6419  function getActiveGameIds() external view returns (uint256[] memory) {... */\n      swap1\n      jump\t// out\n        /* \"coqfighttestnet.sol\":6576:7511  function cancelGame(uint256 _gameId) external onlyOwner {... */\n    tag_43:\n        /* \"@chainlink/contracts/src/v0.8/shared/access/ConfirmedOwnerWithProposal.sol\":1941:1961  _validateOwnership() */\n      tag_118\n        /* \"@chainlink/contracts/src/v0.8/shared/access/ConfirmedOwnerWithProposal.sol\":1941:1959  _validateOwnership */\n      tag_119\n        /* \"@chainlink/contracts/src/v0.8/shared/access/ConfirmedOwnerWithProposal.sol\":1941:1961  _validateOwnership() */\n      jump\t// in\n    tag_118:\n        /* \"coqfighttestnet.sol\":6642:6659  Game storage game */\n      0x00\n        /* \"coqfighttestnet.sol\":6662:6667  games */\n      0x0c\n        /* \"coqfighttestnet.sol\":6662:6676  games[_gameId] */\n      0x00\n        /* \"coqfighttestnet.sol\":6668:6675  _gameId */\n      dup4\n        /* \"coqfighttestnet.sol\":6662:6676  games[_gameId] */\n      dup2\n      mstore\n      0x20\n      add\n      swap1\n      dup2\n      mstore\n      0x20\n      add\n      0x00\n      keccak256\n        /* \"coqfighttestnet.sol\":6642:6676  Game storage game = games[_gameId] */\n      swap1\n      pop\n        /* \"coqfighttestnet.sol\":6718:6719  0 */\n      0x00\n        /* \"coqfighttestnet.sol\":6694:6720  game.player1 != address(0) */\n      0xffffffffffffffffffffffffffffffffffffffff\n      and\n        /* \"coqfighttestnet.sol\":6694:6698  game */\n      dup2\n        /* \"coqfighttestnet.sol\":6694:6706  game.player1 */\n      0x00\n      add\n      0x00\n      swap1\n      sload\n      swap1\n      0x0100\n      exp\n      swap1\n      div\n      0xffffffffffffffffffffffffffffffffffffffff\n      and\n        /* \"coqfighttestnet.sol\":6694:6720  game.player1 != address(0) */\n      0xffffffffffffffffffffffffffffffffffffffff\n      and\n      sub\n        /* \"coqfighttestnet.sol\":6686:6744  require(game.player1 != address(0), \"Game does not exist\") */\n      tag_121\n      jumpi\n      mload(0x40)\n      0x08c379a000000000000000000000000000000000000000000000000000000000\n      dup2\n      mstore\n      0x04\n      add\n      tag_122\n      swap1\n      tag_123\n      jump\t// in\n    tag_122:\n      mload(0x40)\n      dup1\n      swap2\n      sub\n      swap1\n      revert\n    tag_121:\n        /* \"coqfighttestnet.sol\":6764:6768  game */\n      dup1\n        /* \"coqfighttestnet.sol\":6764:6778  game.completed */\n      0x03\n      add\n      0x00\n      swap1\n      sload\n      swap1\n      0x0100\n      exp\n      swap1\n      div\n      0xff\n      and\n        /* \"coqfighttestnet.sol\":6763:6778  !game.completed */\n      iszero\n        /* \"coqfighttestnet.sol\":6755:6800  require(!game.completed, \"Game is completed\") */\n      tag_124\n      jumpi\n      mload(0x40)\n      0x08c379a000000000000000000000000000000000000000000000000000000000\n      dup2\n      mstore\n      0x04\n      add\n      tag_125\n      swap1\n      tag_126\n      jump\t// in\n    tag_125:\n      mload(0x40)\n      dup1\n      swap2\n      sub\n      swap1\n      revert\n    tag_124:\n        /* \"coqfighttestnet.sol\":7114:7118  game */\n      dup1\n        /* \"coqfighttestnet.sol\":7114:7126  game.player1 */\n      0x00\n      add\n      0x00\n      swap1\n      sload\n      swap1\n      0x0100\n      exp\n      swap1\n      div\n      0xffffffffffffffffffffffffffffffffffffffff\n      and\n        /* \"coqfighttestnet.sol\":7106:7136  payable(game.player1).transfer */\n      0xffffffffffffffffffffffffffffffffffffffff\n      and\n        /* \"coqfighttestnet.sol\":7106:7148  payable(game.player1).transfer(game.wager) */\n      0x08fc\n        /* \"coqfighttestnet.sol\":7137:7141  game */\n      dup3\n        /* \"coqfighttestnet.sol\":7137:7147  game.wager */\n      0x02\n      add\n      sload\n        /* \"coqfighttestnet.sol\":7106:7148  payable(game.player1).transfer(game.wager) */\n      swap1\n      dup2\n      iszero\n      mul\n      swap1\n      mload(0x40)\n      0x00\n      mload(0x40)\n      dup1\n      dup4\n      sub\n      dup2\n      dup6\n      dup9\n      dup9\n      call\n      swap4\n      pop\n      pop\n      pop\n      pop\n      iszero\n      dup1\n      iszero\n      tag_128\n      jumpi\n      returndatasize\n      0x00\n      dup1\n      returndatacopy\n      revert(0x00, returndatasize)\n    tag_128:\n      pop\n        /* \"coqfighttestnet.sol\":7264:7265  0 */\n      0x00\n        /* \"coqfighttestnet.sol\":7240:7266  game.player2 != address(0) */\n      0xffffffffffffffffffffffffffffffffffffffff\n      and\n        /* \"coqfighttestnet.sol\":7240:7244  game */\n      dup2\n        /* \"coqfighttestnet.sol\":7240:7252  game.player2 */\n      0x01\n      add\n      0x00\n      swap1\n      sload\n      swap1\n      0x0100\n      exp\n      swap1\n      div\n      0xffffffffffffffffffffffffffffffffffffffff\n      and\n        /* \"coqfighttestnet.sol\":7240:7266  game.player2 != address(0) */\n      0xffffffffffffffffffffffffffffffffffffffff\n      and\n      eq\n        /* \"coqfighttestnet.sol\":7237:7335  if(game.player2 != address(0)){... */\n      tag_129\n      jumpi\n        /* \"coqfighttestnet.sol\":7290:7294  game */\n      dup1\n        /* \"coqfighttestnet.sol\":7290:7302  game.player2 */\n      0x01\n      add\n      0x00\n      swap1\n      sload\n      swap1\n      0x0100\n      exp\n      swap1\n      div\n      0xffffffffffffffffffffffffffffffffffffffff\n      and\n        /* \"coqfighttestnet.sol\":7282:7312  payable(game.player2).transfer */\n      0xffffffffffffffffffffffffffffffffffffffff\n      and\n        /* \"coqfighttestnet.sol\":7282:7324  payable(game.player2).transfer(game.wager) */\n      0x08fc\n        /* \"coqfighttestnet.sol\":7313:7317  game */\n      dup3\n        /* \"coqfighttestnet.sol\":7313:7323  game.wager */\n      0x02\n      add\n      sload\n        /* \"coqfighttestnet.sol\":7282:7324  payable(game.player2).transfer(game.wager) */\n      swap1\n      dup2\n      iszero\n      mul\n      swap1\n      mload(0x40)\n      0x00\n      mload(0x40)\n      dup1\n      dup4\n      sub\n      dup2\n      dup6\n      dup9\n      dup9\n      call\n      swap4\n      pop\n      pop\n      pop\n      pop\n      iszero\n      dup1\n      iszero\n      tag_131\n      jumpi\n      returndatasize\n      0x00\n      dup1\n      returndatacopy\n      revert(0x00, returndatasize)\n    tag_131:\n      pop\n        /* \"coqfighttestnet.sol\":7237:7335  if(game.player2 != address(0)){... */\n    tag_129:\n        /* \"coqfighttestnet.sol\":7400:7434  _removeGameFromActiveList(_gameId) */\n      tag_132\n        /* \"coqfighttestnet.sol\":7426:7433  _gameId */\n      dup3\n        /* \"coqfighttestnet.sol\":7400:7425  _removeGameFromActiveList */\n      tag_133\n        /* \"coqfighttestnet.sol\":7400:7434  _removeGameFromActiveList(_gameId) */\n      jump\t// in\n    tag_132:\n        /* \"coqfighttestnet.sol\":7452:7457  games */\n      0x0c\n        /* \"coqfighttestnet.sol\":7452:7466  games[_gameId] */\n      0x00\n        /* \"coqfighttestnet.sol\":7458:7465  _gameId */\n      dup4\n        /* \"coqfighttestnet.sol\":7452:7466  games[_gameId] */\n      dup2\n      mstore\n      0x20\n      add\n      swap1\n      dup2\n      mstore\n      0x20\n      add\n      0x00\n      keccak256\n      0x00\n        /* \"coqfighttestnet.sol\":7445:7466  delete games[_gameId] */\n      dup1\n      dup3\n      add\n      exp(0x0100, 0x00)\n      dup2\n      sload\n      swap1\n      0xffffffffffffffffffffffffffffffffffffffff\n      mul\n      not\n      and\n      swap1\n      sstore\n      0x01\n      dup3\n      add\n      exp(0x0100, 0x00)\n      dup2\n      sload\n      swap1\n      0xffffffffffffffffffffffffffffffffffffffff\n      mul\n      not\n      and\n      swap1\n      sstore\n      0x02\n      dup3\n      add\n      0x00\n      swap1\n      sstore\n      0x03\n      dup3\n      add\n      exp(0x0100, 0x00)\n      dup2\n      sload\n      swap1\n      0xff\n      mul\n      not\n      and\n      swap1\n      sstore\n      0x03\n      dup3\n      add\n      exp(0x0100, 0x01)\n      dup2\n      sload\n      swap1\n      0xffffffffffffffffffffffffffffffffffffffff\n      mul\n      not\n      and\n      swap1\n      sstore\n      pop\n      pop\n        /* \"coqfighttestnet.sol\":7496:7503  _gameId */\n      dup2\n        /* \"coqfighttestnet.sol\":7482:7504  GameCancelled(_gameId) */\n      0x681705fdbd93dba3b679fd712577e9a86d57c5551c520f8c74857deb57f9623f\n      mload(0x40)\n      mload(0x40)\n      dup1\n      swap2\n      sub\n      swap1\n      log2\n        /* \"coqfighttestnet.sol\":6632:7511  {... */\n      pop\n        /* \"coqfighttestnet.sol\":6576:7511  function cancelGame(uint256 _gameId) external onlyOwner {... */\n      pop\n      jump\t// out\n        /* \"@chainlink/contracts/src/v0.8/shared/access/ConfirmedOwnerWithProposal.sol\":1001:1266  function acceptOwnership() external override {... */\n    tag_46:\n        /* \"@chainlink/contracts/src/v0.8/shared/access/ConfirmedOwnerWithProposal.sol\":1074:1088  s_pendingOwner */\n      0x01\n      0x00\n      swap1\n      sload\n      swap1\n      0x0100\n      exp\n      swap1\n      div\n      0xffffffffffffffffffffffffffffffffffffffff\n      and\n        /* \"@chainlink/contracts/src/v0.8/shared/access/ConfirmedOwnerWithProposal.sol\":1060:1088  msg.sender == s_pendingOwner */\n      0xffffffffffffffffffffffffffffffffffffffff\n      and\n        /* \"@chainlink/contracts/src/v0.8/shared/access/ConfirmedOwnerWithProposal.sol\":1060:1070  msg.sender */\n      caller\n        /* \"@chainlink/contracts/src/v0.8/shared/access/ConfirmedOwnerWithProposal.sol\":1060:1088  msg.sender == s_pendingOwner */\n      0xffffffffffffffffffffffffffffffffffffffff\n      and\n      eq\n        /* \"@chainlink/contracts/src/v0.8/shared/access/ConfirmedOwnerWithProposal.sol\":1052:1115  require(msg.sender == s_pendingOwner, \"Must be proposed owner\") */\n      tag_135\n      jumpi\n      mload(0x40)\n      0x08c379a000000000000000000000000000000000000000000000000000000000\n      dup2\n      mstore\n      0x04\n      add\n      tag_136\n      swap1\n      tag_137\n      jump\t// in\n    tag_136:\n      mload(0x40)\n      dup1\n      swap2\n      sub\n      swap1\n      revert\n    tag_135:\n        /* \"@chainlink/contracts/src/v0.8/shared/access/ConfirmedOwnerWithProposal.sol\":1122:1138  address oldOwner */\n      0x00\n        /* \"@chainlink/contracts/src/v0.8/shared/access/ConfirmedOwnerWithProposal.sol\":1141:1148  s_owner */\n      dup1\n      0x00\n      swap1\n      sload\n      swap1\n      0x0100\n      exp\n      swap1\n      div\n      0xffffffffffffffffffffffffffffffffffffffff\n      and\n        /* \"@chainlink/contracts/src/v0.8/shared/access/ConfirmedOwnerWithProposal.sol\":1122:1148  address oldOwner = s_owner */\n      swap1\n      pop\n        /* \"@chainlink/contracts/src/v0.8/shared/access/ConfirmedOwnerWithProposal.sol\":1164:1174  msg.sender */\n      caller\n        /* \"@chainlink/contracts/src/v0.8/shared/access/ConfirmedOwnerWithProposal.sol\":1154:1161  s_owner */\n      0x00\n      dup1\n        /* \"@chainlink/contracts/src/v0.8/shared/access/ConfirmedOwnerWithProposal.sol\":1154:1174  s_owner = msg.sender */\n      0x0100\n      exp\n      dup2\n      sload\n      dup2\n      0xffffffffffffffffffffffffffffffffffffffff\n      mul\n      not\n      and\n      swap1\n      dup4\n      0xffffffffffffffffffffffffffffffffffffffff\n      and\n      mul\n      or\n      swap1\n      sstore\n      pop\n        /* \"@chainlink/contracts/src/v0.8/shared/access/ConfirmedOwnerWithProposal.sol\":1205:1206  0 */\n      0x00\n        /* \"@chainlink/contracts/src/v0.8/shared/access/ConfirmedOwnerWithProposal.sol\":1180:1194  s_pendingOwner */\n      0x01\n      0x00\n        /* \"@chainlink/contracts/src/v0.8/shared/access/ConfirmedOwnerWithProposal.sol\":1180:1207  s_pendingOwner = address(0) */\n      0x0100\n      exp\n      dup2\n      sload\n      dup2\n      0xffffffffffffffffffffffffffffffffffffffff\n      mul\n      not\n      and\n      swap1\n      dup4\n      0xffffffffffffffffffffffffffffffffffffffff\n      and\n      mul\n      or\n      swap1\n      sstore\n      pop\n        /* \"@chainlink/contracts/src/v0.8/shared/access/ConfirmedOwnerWithProposal.sol\":1250:1260  msg.sender */\n      caller\n        /* \"@chainlink/contracts/src/v0.8/shared/access/ConfirmedOwnerWithProposal.sol\":1219:1261  OwnershipTransferred(oldOwner, msg.sender) */\n      0xffffffffffffffffffffffffffffffffffffffff\n      and\n        /* \"@chainlink/contracts/src/v0.8/shared/access/ConfirmedOwnerWithProposal.sol\":1240:1248  oldOwner */\n      dup2\n        /* \"@chainlink/contracts/src/v0.8/shared/access/ConfirmedOwnerWithProposal.sol\":1219:1261  OwnershipTransferred(oldOwner, msg.sender) */\n      0xffffffffffffffffffffffffffffffffffffffff\n      and\n      0x8be0079c531659141344cd1fd0a4f28419497f9722a3daafe3b4186f6b6457e0\n      mload(0x40)\n      mload(0x40)\n      dup1\n      swap2\n      sub\n      swap1\n      log3\n        /* \"@chainlink/contracts/src/v0.8/shared/access/ConfirmedOwnerWithProposal.sol\":1046:1266  {... */\n      pop\n        /* \"@chainlink/contracts/src/v0.8/shared/access/ConfirmedOwnerWithProposal.sol\":1001:1266  function acceptOwnership() external override {... */\n      jump\t// out\n        /* \"coqfighttestnet.sol\":9544:9662  function setMinimumWager(uint256 _newMinimumWager) external onlyOwner {... */\n    tag_50:\n        /* \"@chainlink/contracts/src/v0.8/shared/access/ConfirmedOwnerWithProposal.sol\":1941:1961  _validateOwnership() */\n      tag_139\n        /* \"@chainlink/contracts/src/v0.8/shared/access/ConfirmedOwnerWithProposal.sol\":1941:1959  _validateOwnership */\n      tag_119\n        /* \"@chainlink/contracts/src/v0.8/shared/access/ConfirmedOwnerWithProposal.sol\":1941:1961  _validateOwnership() */\n      jump\t// in\n    tag_139:\n        /* \"coqfighttestnet.sol\":9639:9655  _newMinimumWager */\n      dup1\n        /* \"coqfighttestnet.sol\":9624:9636  minimumWager */\n      0x04\n        /* \"coqfighttestnet.sol\":9624:9655  minimumWager = _newMinimumWager */\n      dup2\n      swap1\n      sstore\n      pop\n        /* \"coqfighttestnet.sol\":9544:9662  function setMinimumWager(uint256 _newMinimumWager) external onlyOwner {... */\n      pop\n      jump\t// out\n        /* \"coqfighttestnet.sol\":1177:1204  uint256[] public requestIds */\n    tag_54:\n      0x06\n      dup2\n      dup2\n      sload\n      dup2\n      lt\n      tag_141\n      jumpi\n      0x00\n      dup1\n      revert\n    tag_141:\n      swap1\n      0x00\n      mstore\n      keccak256(0x00, 0x20)\n      add\n      0x00\n      swap2\n      pop\n      swap1\n      pop\n      sload\n      dup2\n      jump\t// out\n        /* \"@chainlink/contracts/src/v0.8/shared/access/ConfirmedOwnerWithProposal.sol\":1317:1398  function owner() public view override returns (address) {... */\n    tag_59:\n        /* \"@chainlink/contracts/src/v0.8/shared/access/ConfirmedOwnerWithProposal.sol\":1364:1371  address */\n      0x00\n        /* \"@chainlink/contracts/src/v0.8/shared/access/ConfirmedOwnerWithProposal.sol\":1386:1393  s_owner */\n      dup1\n      0x00\n      swap1\n      sload\n      swap1\n      0x0100\n      exp\n      swap1\n      div\n      0xffffffffffffffffffffffffffffffffffffffff\n      and\n        /* \"@chainlink/contracts/src/v0.8/shared/access/ConfirmedOwnerWithProposal.sol\":1379:1393  return s_owner */\n      swap1\n      pop\n        /* \"@chainlink/contracts/src/v0.8/shared/access/ConfirmedOwnerWithProposal.sol\":1317:1398  function owner() public view override returns (address) {... */\n      swap1\n      jump\t// out\n        /* \"coqfighttestnet.sol\":639:669  uint256[] public activeGameIds */\n    tag_65:\n      0x03\n      dup2\n      dup2\n      sload\n      dup2\n      lt\n      tag_144\n      jumpi\n      0x00\n      dup1\n      revert\n    tag_144:\n      swap1\n      0x00\n      mstore\n      keccak256(0x00, 0x20)\n      add\n      0x00\n      swap2\n      pop\n      swap1\n      pop\n      sload\n      dup2\n      jump\t// out\n        /* \"coqfighttestnet.sol\":9762:9881  function setCallback(uint32 _callbackGasLimit) external onlyOwner {... */\n    tag_71:\n        /* \"@chainlink/contracts/src/v0.8/shared/access/ConfirmedOwnerWithProposal.sol\":1941:1961  _validateOwnership() */\n      tag_147\n        /* \"@chainlink/contracts/src/v0.8/shared/access/ConfirmedOwnerWithProposal.sol\":1941:1959  _validateOwnership */\n      tag_119\n        /* \"@chainlink/contracts/src/v0.8/shared/access/ConfirmedOwnerWithProposal.sol\":1941:1961  _validateOwnership() */\n      jump\t// in\n    tag_147:\n        /* \"coqfighttestnet.sol\":9857:9874  _callbackGasLimit */\n      dup1\n        /* \"coqfighttestnet.sol\":9838:9854  callbackGasLimit */\n      0x09\n      0x00\n        /* \"coqfighttestnet.sol\":9838:9874  callbackGasLimit = _callbackGasLimit */\n      0x0100\n      exp\n      dup2\n      sload\n      dup2\n      0xffffffff\n      mul\n      not\n      and\n      swap1\n      dup4\n      0xffffffff\n      and\n      mul\n      or\n      swap1\n      sstore\n      pop\n        /* \"coqfighttestnet.sol\":9762:9881  function setCallback(uint32 _callbackGasLimit) external onlyOwner {... */\n      pop\n      jump\t// out\n        /* \"coqfighttestnet.sol\":2779:2838  mapping(uint256 => RequestStatus)... */\n    tag_75:\n      mstore(0x20, 0x0a)\n      dup1\n      0x00\n      mstore\n      keccak256(0x00, 0x40)\n      0x00\n      swap2\n      pop\n      swap1\n      pop\n      dup1\n      0x00\n      add\n      0x00\n      swap1\n      sload\n      swap1\n      0x0100\n      exp\n      swap1\n      div\n      0xff\n      and\n      swap1\n      dup1\n      0x00\n      add\n      0x01\n      swap1\n      sload\n      swap1\n      0x0100\n      exp\n      swap1\n      div\n      0xff\n      and\n      swap1\n      pop\n      dup3\n      jump\t// out\n        /* \"coqfighttestnet.sol\":844:871  uint256 public minimumWager */\n    tag_80:\n      sload(0x04)\n      dup2\n      jump\t// out\n        /* \"coqfighttestnet.sol\":3043:3095  mapping(uint256 => uint256) public gameIdByRequestId */\n    tag_85:\n      mstore(0x20, 0x0d)\n      dup1\n      0x00\n      mstore\n      keccak256(0x00, 0x40)\n      0x00\n      swap2\n      pop\n      swap1\n      pop\n      sload\n      dup2\n      jump\t// out\n        /* \"coqfighttestnet.sol\":12217:12542  function getRequestStatus(... */\n    tag_90:\n        /* \"coqfighttestnet.sol\":12300:12314  bool fulfilled */\n      0x00\n        /* \"coqfighttestnet.sol\":12316:12344  uint256[] memory randomWords */\n      0x60\n        /* \"coqfighttestnet.sol\":12364:12374  s_requests */\n      0x0a\n        /* \"coqfighttestnet.sol\":12364:12386  s_requests[_requestId] */\n      0x00\n        /* \"coqfighttestnet.sol\":12375:12385  _requestId */\n      dup5\n        /* \"coqfighttestnet.sol\":12364:12386  s_requests[_requestId] */\n      dup2\n      mstore\n      0x20\n      add\n      swap1\n      dup2\n      mstore\n      0x20\n      add\n      0x00\n      keccak256\n        /* \"coqfighttestnet.sol\":12364:12393  s_requests[_requestId].exists */\n      0x00\n      add\n      0x01\n      swap1\n      sload\n      swap1\n      0x0100\n      exp\n      swap1\n      div\n      0xff\n      and\n        /* \"coqfighttestnet.sol\":12356:12415  require(s_requests[_requestId].exists, \"request not found\") */\n      tag_150\n      jumpi\n      mload(0x40)\n      0x08c379a000000000000000000000000000000000000000000000000000000000\n      dup2\n      mstore\n      0x04\n      add\n      tag_151\n      swap1\n      tag_152\n      jump\t// in\n    tag_151:\n      mload(0x40)\n      dup1\n      swap2\n      sub\n      swap1\n      revert\n    tag_150:\n        /* \"coqfighttestnet.sol\":12425:12453  RequestStatus memory request */\n      0x00\n        /* \"coqfighttestnet.sol\":12456:12466  s_requests */\n      0x0a\n        /* \"coqfighttestnet.sol\":12456:12478  s_requests[_requestId] */\n      0x00\n        /* \"coqfighttestnet.sol\":12467:12477  _requestId */\n      dup6\n        /* \"coqfighttestnet.sol\":12456:12478  s_requests[_requestId] */\n      dup2\n      mstore\n      0x20\n      add\n      swap1\n      dup2\n      mstore\n      0x20\n      add\n      0x00\n      keccak256\n        /* \"coqfighttestnet.sol\":12425:12478  RequestStatus memory request = s_requests[_requestId] */\n      mload(0x40)\n      dup1\n      0x60\n      add\n      0x40\n      mstore\n      swap1\n      dup2\n      0x00\n      dup3\n      add\n      0x00\n      swap1\n      sload\n      swap1\n      0x0100\n      exp\n      swap1\n      div\n      0xff\n      and\n      iszero\n      iszero\n      iszero\n      iszero\n      dup2\n      mstore\n      0x20\n      add\n      0x00\n      dup3\n      add\n      0x01\n      swap1\n      sload\n      swap1\n      0x0100\n      exp\n      swap1\n      div\n      0xff\n      and\n      iszero\n      iszero\n      iszero\n      iszero\n      dup2\n      mstore\n      0x20\n      add\n      0x01\n      dup3\n      add\n      dup1\n      sload\n      dup1\n      0x20\n      mul\n      0x20\n      add\n      mload(0x40)\n      swap1\n      dup2\n      add\n      0x40\n      mstore\n      dup1\n      swap3\n      swap2\n      swap1\n      dup2\n      dup2\n      mstore\n      0x20\n      add\n      dup3\n      dup1\n      sload\n      dup1\n      iszero\n      tag_153\n      jumpi\n      0x20\n      mul\n      dup3\n      add\n      swap2\n      swap1\n      0x00\n      mstore\n      keccak256(0x00, 0x20)\n      swap1\n    tag_154:\n      dup2\n      sload\n      dup2\n      mstore\n      0x20\n      add\n      swap1\n      0x01\n      add\n      swap1\n      dup1\n      dup4\n      gt\n      tag_154\n      jumpi\n    tag_153:\n      pop\n      pop\n      pop\n      pop\n      pop\n      dup2\n      mstore\n      pop\n      pop\n      swap1\n      pop\n        /* \"coqfighttestnet.sol\":12496:12503  request */\n      dup1\n        /* \"coqfighttestnet.sol\":12496:12513  request.fulfilled */\n      0x00\n      add\n      mload\n        /* \"coqfighttestnet.sol\":12515:12522  request */\n      dup2\n        /* \"coqfighttestnet.sol\":12515:12534  request.randomWords */\n      0x40\n      add\n      mload\n        /* \"coqfighttestnet.sol\":12488:12535  return (request.fulfilled, request.randomWords) */\n      swap3\n      pop\n      swap3\n      pop\n      pop\n        /* \"coqfighttestnet.sol\":12217:12542  function getRequestStatus(... */\n      swap2\n      pop\n      swap2\n      jump\t// out\n        /* \"coqfighttestnet.sol\":4751:5312  function startGame(uint256 _wager) external payable {... */\n    tag_95:\n        /* \"coqfighttestnet.sol\":4996:5008  minimumWager */\n      sload(0x04)\n        /* \"coqfighttestnet.sol\":4983:4992  msg.value */\n      callvalue\n        /* \"coqfighttestnet.sol\":4983:5008  msg.value >= minimumWager */\n      lt\n      iszero\n        /* \"coqfighttestnet.sol\":4975:5051  require(msg.value >= minimumWager, \"Wager amount is less than minimumWager\") */\n      tag_156\n      jumpi\n      mload(0x40)\n      0x08c379a000000000000000000000000000000000000000000000000000000000\n      dup2\n      mstore\n      0x04\n      add\n      tag_157\n      swap1\n      tag_158\n      jump\t// in\n    tag_157:\n      mload(0x40)\n      dup1\n      swap2\n      sub\n      swap1\n      revert\n    tag_156:\n        /* \"coqfighttestnet.sol\":5062:5076  uint256 gameId */\n      0x00\n        /* \"coqfighttestnet.sol\":5079:5096  _generateGameId() */\n      tag_159\n        /* \"coqfighttestnet.sol\":5079:5094  _generateGameId */\n      tag_160\n        /* \"coqfighttestnet.sol\":5079:5096  _generateGameId() */\n      jump\t// in\n    tag_159:\n        /* \"coqfighttestnet.sol\":5062:5096  uint256 gameId = _generateGameId() */\n      swap1\n      pop\n        /* \"coqfighttestnet.sol\":5122:5177  Game(msg.sender, address(0), _wager, false, address(0)) */\n      mload(0x40)\n      dup1\n      0xa0\n      add\n      0x40\n      mstore\n      dup1\n        /* \"coqfighttestnet.sol\":5127:5137  msg.sender */\n      caller\n        /* \"coqfighttestnet.sol\":5122:5177  Game(msg.sender, address(0), _wager, false, address(0)) */\n      0xffffffffffffffffffffffffffffffffffffffff\n      and\n      dup2\n      mstore\n      0x20\n      add\n        /* \"coqfighttestnet.sol\":5147:5148  0 */\n      0x00\n        /* \"coqfighttestnet.sol\":5122:5177  Game(msg.sender, address(0), _wager, false, address(0)) */\n      0xffffffffffffffffffffffffffffffffffffffff\n      and\n      dup2\n      mstore\n      0x20\n      add\n        /* \"coqfighttestnet.sol\":5151:5157  _wager */\n      dup4\n        /* \"coqfighttestnet.sol\":5122:5177  Game(msg.sender, address(0), _wager, false, address(0)) */\n      dup2\n      mstore\n      0x20\n      add\n        /* \"coqfighttestnet.sol\":5159:5164  false */\n      0x00\n        /* \"coqfighttestnet.sol\":5122:5177  Game(msg.sender, address(0), _wager, false, address(0)) */\n      iszero\n      iszero\n      dup2\n      mstore\n      0x20\n      add\n        /* \"coqfighttestnet.sol\":5174:5175  0 */\n      0x00\n        /* \"coqfighttestnet.sol\":5122:5177  Game(msg.sender, address(0), _wager, false, address(0)) */\n      0xffffffffffffffffffffffffffffffffffffffff\n      and\n      dup2\n      mstore\n      pop\n        /* \"coqfighttestnet.sol\":5106:5111  games */\n      0x0c\n        /* \"coqfighttestnet.sol\":5106:5119  games[gameId] */\n      0x00\n        /* \"coqfighttestnet.sol\":5112:5118  gameId */\n      dup4\n        /* \"coqfighttestnet.sol\":5106:5119  games[gameId] */\n      dup2\n      mstore\n      0x20\n      add\n      swap1\n      dup2\n      mstore\n      0x20\n      add\n      0x00\n      keccak256\n        /* \"coqfighttestnet.sol\":5106:5177  games[gameId] = Game(msg.sender, address(0), _wager, false, address(0)) */\n      0x00\n      dup3\n      add\n      mload\n      dup2\n      0x00\n      add\n      exp(0x0100, 0x00)\n      dup2\n      sload\n      dup2\n      0xffffffffffffffffffffffffffffffffffffffff\n      mul\n      not\n      and\n      swap1\n      dup4\n      0xffffffffffffffffffffffffffffffffffffffff\n      and\n      mul\n      or\n      swap1\n      sstore\n      pop\n      0x20\n      dup3\n      add\n      mload\n      dup2\n      0x01\n      add\n      exp(0x0100, 0x00)\n      dup2\n      sload\n      dup2\n      0xffffffffffffffffffffffffffffffffffffffff\n      mul\n      not\n      and\n      swap1\n      dup4\n      0xffffffffffffffffffffffffffffffffffffffff\n      and\n      mul\n      or\n      swap1\n      sstore\n      pop\n      0x40\n      dup3\n      add\n      mload\n      dup2\n      0x02\n      add\n      sstore\n      0x60\n      dup3\n      add\n      mload\n      dup2\n      0x03\n      add\n      exp(0x0100, 0x00)\n      dup2\n      sload\n      dup2\n      0xff\n      mul\n      not\n      and\n      swap1\n      dup4\n      iszero\n      iszero\n      mul\n      or\n      swap1\n      sstore\n      pop\n      0x80\n      dup3\n      add\n      mload\n      dup2\n      0x03\n      add\n      exp(0x0100, 0x01)\n      dup2\n      sload\n      dup2\n      0xffffffffffffffffffffffffffffffffffffffff\n      mul\n      not\n      and\n      swap1\n      dup4\n      0xffffffffffffffffffffffffffffffffffffffff\n      and\n      mul\n      or\n      swap1\n      sstore\n      pop\n      swap1\n      pop\n      pop\n        /* \"coqfighttestnet.sol\":5187:5200  activeGameIds */\n      0x03\n        /* \"coqfighttestnet.sol\":5206:5212  gameId */\n      dup2\n        /* \"coqfighttestnet.sol\":5187:5213  activeGameIds.push(gameId) */\n      swap1\n      dup1\n      0x01\n      dup2\n      sload\n      add\n      dup1\n      dup3\n      sstore\n      dup1\n      swap2\n      pop\n      pop\n      0x01\n      swap1\n      sub\n      swap1\n      0x00\n      mstore\n      keccak256(0x00, 0x20)\n      add\n      0x00\n      swap1\n      swap2\n      swap1\n      swap2\n      swap1\n      swap2\n      pop\n      sstore\n        /* \"coqfighttestnet.sol\":5286:5296  msg.sender */\n      caller\n        /* \"coqfighttestnet.sol\":5266:5305  GameStarted(gameId, msg.sender, _wager) */\n      0xffffffffffffffffffffffffffffffffffffffff\n      and\n        /* \"coqfighttestnet.sol\":5278:5284  gameId */\n      dup2\n        /* \"coqfighttestnet.sol\":5266:5305  GameStarted(gameId, msg.sender, _wager) */\n      0x0c82908456d66c43e9de63edd66f9faf875c8f3a12f936e162d675ec42c35444\n        /* \"coqfighttestnet.sol\":5298:5304  _wager */\n      dup5\n        /* \"coqfighttestnet.sol\":5266:5305  GameStarted(gameId, msg.sender, _wager) */\n      mload(0x40)\n      tag_162\n      swap2\n      swap1\n      tag_56\n      jump\t// in\n    tag_162:\n      mload(0x40)\n      dup1\n      swap2\n      sub\n      swap1\n      log3\n        /* \"coqfighttestnet.sol\":4803:5312  {... */\n      pop\n        /* \"coqfighttestnet.sol\":4751:5312  function startGame(uint256 _wager) external payable {... */\n      pop\n      jump\t// out\n        /* \"coqfighttestnet.sol\":5359:6248  function joinGame(uint256 _gameId) external payable {... */\n    tag_98:\n        /* \"coqfighttestnet.sol\":5421:5438  Game storage game */\n      0x00\n        /* \"coqfighttestnet.sol\":5441:5446  games */\n      0x0c\n        /* \"coqfighttestnet.sol\":5441:5455  games[_gameId] */\n      0x00\n        /* \"coqfighttestnet.sol\":5447:5454  _gameId */\n      dup4\n        /* \"coqfighttestnet.sol\":5441:5455  games[_gameId] */\n      dup2\n      mstore\n      0x20\n      add\n      swap1\n      dup2\n      mstore\n      0x20\n      add\n      0x00\n      keccak256\n        /* \"coqfighttestnet.sol\":5421:5455  Game storage game = games[_gameId] */\n      swap1\n      pop\n        /* \"coqfighttestnet.sol\":5474:5478  game */\n      dup1\n        /* \"coqfighttestnet.sol\":5474:5488  game.completed */\n      0x03\n      add\n      0x00\n      swap1\n      sload\n      swap1\n      0x0100\n      exp\n      swap1\n      div\n      0xff\n      and\n        /* \"coqfighttestnet.sol\":5473:5488  !game.completed */\n      iszero\n        /* \"coqfighttestnet.sol\":5465:5510  require(!game.completed, \"Game is completed\") */\n      tag_164\n      jumpi\n      mload(0x40)\n      0x08c379a000000000000000000000000000000000000000000000000000000000\n      dup2\n      mstore\n      0x04\n      add\n      tag_165\n      swap1\n      tag_126\n      jump\t// in\n    tag_165:\n      mload(0x40)\n      dup1\n      swap2\n      sub\n      swap1\n      revert\n    tag_164:\n        /* \"coqfighttestnet.sol\":5552:5553  0 */\n      0x00\n        /* \"coqfighttestnet.sol\":5528:5554  game.player2 == address(0) */\n      0xffffffffffffffffffffffffffffffffffffffff\n      and\n        /* \"coqfighttestnet.sol\":5528:5532  game */\n      dup2\n        /* \"coqfighttestnet.sol\":5528:5540  game.player2 */\n      0x01\n      add\n      0x00\n      swap1\n      sload\n      swap1\n      0x0100\n      exp\n      swap1\n      div\n      0xffffffffffffffffffffffffffffffffffffffff\n      and\n        /* \"coqfighttestnet.sol\":5528:5554  game.player2 == address(0) */\n      0xffffffffffffffffffffffffffffffffffffffff\n      and\n      eq\n        /* \"coqfighttestnet.sol\":5520:5581  require(game.player2 == address(0), \"Game is already joined\") */\n      tag_166\n      jumpi\n      mload(0x40)\n      0x08c379a000000000000000000000000000000000000000000000000000000000\n      dup2\n      mstore\n      0x04\n      add\n      tag_167\n      swap1\n      tag_168\n      jump\t// in\n    tag_167:\n      mload(0x40)\n      dup1\n      swap2\n      sub\n      swap1\n      revert\n    tag_166:\n        /* \"coqfighttestnet.sol\":5778:5782  game */\n      dup1\n        /* \"coqfighttestnet.sol\":5778:5788  game.wager */\n      0x02\n      add\n      sload\n        /* \"coqfighttestnet.sol\":5765:5774  msg.value */\n      callvalue\n        /* \"coqfighttestnet.sol\":5765:5788  msg.value == game.wager */\n      eq\n        /* \"coqfighttestnet.sol\":5757:5814  require(msg.value == game.wager, \"Incorrect amount sent\") */\n      tag_169\n      jumpi\n      mload(0x40)\n      0x08c379a000000000000000000000000000000000000000000000000000000000\n      dup2\n      mstore\n      0x04\n      add\n      tag_170\n      swap1\n      tag_171\n      jump\t// in\n    tag_170:\n      mload(0x40)\n      dup1\n      swap2\n      sub\n      swap1\n      revert\n    tag_169:\n        /* \"coqfighttestnet.sol\":5856:5857  0 */\n      0x00\n        /* \"coqfighttestnet.sol\":5832:5858  game.player1 != address(0) */\n      0xffffffffffffffffffffffffffffffffffffffff\n      and\n        /* \"coqfighttestnet.sol\":5832:5836  game */\n      dup2\n        /* \"coqfighttestnet.sol\":5832:5844  game.player1 */\n      0x00\n      add\n      0x00\n      swap1\n      sload\n      swap1\n      0x0100\n      exp\n      swap1\n      div\n      0xffffffffffffffffffffffffffffffffffffffff\n      and\n        /* \"coqfighttestnet.sol\":5832:5858  game.player1 != address(0) */\n      0xffffffffffffffffffffffffffffffffffffffff\n      and\n      sub\n        /* \"coqfighttestnet.sol\":5824:5882  require(game.player1 != address(0), \"Game does not exist\") */\n      tag_172\n      jumpi\n      mload(0x40)\n      0x08c379a000000000000000000000000000000000000000000000000000000000\n      dup2\n      mstore\n      0x04\n      add\n      tag_173\n      swap1\n      tag_123\n      jump\t// in\n    tag_173:\n      mload(0x40)\n      dup1\n      swap2\n      sub\n      swap1\n      revert\n    tag_172:\n        /* \"coqfighttestnet.sol\":5914:5918  game */\n      dup1\n        /* \"coqfighttestnet.sol\":5914:5926  game.player1 */\n      0x00\n      add\n      0x00\n      swap1\n      sload\n      swap1\n      0x0100\n      exp\n      swap1\n      div\n      0xffffffffffffffffffffffffffffffffffffffff\n      and\n        /* \"coqfighttestnet.sol\":5900:5926  msg.sender != game.player1 */\n      0xffffffffffffffffffffffffffffffffffffffff\n      and\n        /* \"coqfighttestnet.sol\":5900:5910  msg.sender */\n      caller\n        /* \"coqfighttestnet.sol\":5900:5926  msg.sender != game.player1 */\n      0xffffffffffffffffffffffffffffffffffffffff\n      and\n      sub\n        /* \"coqfighttestnet.sol\":5892:5960  require(msg.sender != game.player1, \"You cannot join your own game\") */\n      tag_174\n      jumpi\n      mload(0x40)\n      0x08c379a000000000000000000000000000000000000000000000000000000000\n      dup2\n      mstore\n      0x04\n      add\n      tag_175\n      swap1\n      tag_176\n      jump\t// in\n    tag_175:\n      mload(0x40)\n      dup1\n      swap2\n      sub\n      swap1\n      revert\n    tag_174:\n        /* \"coqfighttestnet.sol\":6028:6038  msg.sender */\n      caller\n        /* \"coqfighttestnet.sol\":6013:6017  game */\n      dup2\n        /* \"coqfighttestnet.sol\":6013:6025  game.player2 */\n      0x01\n      add\n      0x00\n        /* \"coqfighttestnet.sol\":6013:6038  game.player2 = msg.sender */\n      0x0100\n      exp\n      dup2\n      sload\n      dup2\n      0xffffffffffffffffffffffffffffffffffffffff\n      mul\n      not\n      and\n      swap1\n      dup4\n      0xffffffffffffffffffffffffffffffffffffffff\n      and\n      mul\n      or\n      swap1\n      sstore\n      pop\n        /* \"coqfighttestnet.sol\":6104:6121  uint256 requestId */\n      0x00\n        /* \"coqfighttestnet.sol\":6124:6144  requestRandomWords() */\n      tag_177\n        /* \"coqfighttestnet.sol\":6124:6142  requestRandomWords */\n      tag_178\n        /* \"coqfighttestnet.sol\":6124:6144  requestRandomWords() */\n      jump\t// in\n    tag_177:\n        /* \"coqfighttestnet.sol\":6104:6144  uint256 requestId = requestRandomWords() */\n      swap1\n      pop\n        /* \"coqfighttestnet.sol\":6185:6192  _gameId */\n      dup3\n        /* \"coqfighttestnet.sol\":6154:6171  gameIdByRequestId */\n      0x0d\n        /* \"coqfighttestnet.sol\":6154:6182  gameIdByRequestId[requestId] */\n      0x00\n        /* \"coqfighttestnet.sol\":6172:6181  requestId */\n      dup4\n        /* \"coqfighttestnet.sol\":6154:6182  gameIdByRequestId[requestId] */\n      dup2\n      mstore\n      0x20\n      add\n      swap1\n      dup2\n      mstore\n      0x20\n      add\n      0x00\n      keccak256\n        /* \"coqfighttestnet.sol\":6154:6192  gameIdByRequestId[requestId] = _gameId */\n      dup2\n      swap1\n      sstore\n      pop\n        /* \"coqfighttestnet.sol\":6230:6240  msg.sender */\n      caller\n        /* \"coqfighttestnet.sol\":6208:6241  PlayerJoined(_gameId, msg.sender) */\n      0xffffffffffffffffffffffffffffffffffffffff\n      and\n        /* \"coqfighttestnet.sol\":6221:6228  _gameId */\n      dup4\n        /* \"coqfighttestnet.sol\":6208:6241  PlayerJoined(_gameId, msg.sender) */\n      0x87969bc7faf902221a147b95ceba76e011c5efb0339a0a8ee7a2bb82d9cfbbd6\n      mload(0x40)\n      mload(0x40)\n      dup1\n      swap2\n      sub\n      swap1\n      log3\n        /* \"coqfighttestnet.sol\":5411:6248  {... */\n      pop\n      pop\n        /* \"coqfighttestnet.sol\":5359:6248  function joinGame(uint256 _gameId) external payable {... */\n      pop\n      jump\t// out\n        /* \"@chainlink/contracts/src/v0.8/shared/access/ConfirmedOwnerWithProposal.sol\":811:909  function transferOwnership(address to) public override onlyOwner {... */\n    tag_103:\n        /* \"@chainlink/contracts/src/v0.8/shared/access/ConfirmedOwnerWithProposal.sol\":1941:1961  _validateOwnership() */\n      tag_180\n        /* \"@chainlink/contracts/src/v0.8/shared/access/ConfirmedOwnerWithProposal.sol\":1941:1959  _validateOwnership */\n      tag_119\n        /* \"@chainlink/contracts/src/v0.8/shared/access/ConfirmedOwnerWithProposal.sol\":1941:1961  _validateOwnership() */\n      jump\t// in\n    tag_180:\n        /* \"@chainlink/contracts/src/v0.8/shared/access/ConfirmedOwnerWithProposal.sol\":882:904  _transferOwnership(to) */\n      tag_182\n        /* \"@chainlink/contracts/src/v0.8/shared/access/ConfirmedOwnerWithProposal.sol\":901:903  to */\n      dup2\n        /* \"@chainlink/contracts/src/v0.8/shared/access/ConfirmedOwnerWithProposal.sol\":882:900  _transferOwnership */\n      tag_183\n        /* \"@chainlink/contracts/src/v0.8/shared/access/ConfirmedOwnerWithProposal.sol\":882:904  _transferOwnership(to) */\n      jump\t// in\n    tag_182:\n        /* \"@chainlink/contracts/src/v0.8/shared/access/ConfirmedOwnerWithProposal.sol\":811:909  function transferOwnership(address to) public override onlyOwner {... */\n      pop\n      jump\t// out\n        /* \"coqfighttestnet.sol\":1210:1238  uint256 public lastRequestId */\n    tag_106:\n      sload(0x07)\n      dup2\n      jump\t// out\n        /* \"coqfighttestnet.sol\":11502:12211  function fulfillRandomWords(... */\n    tag_113:\n        /* \"coqfighttestnet.sol\":11639:11649  s_requests */\n      0x0a\n        /* \"coqfighttestnet.sol\":11639:11661  s_requests[_requestId] */\n      0x00\n        /* \"coqfighttestnet.sol\":11650:11660  _requestId */\n      dup4\n        /* \"coqfighttestnet.sol\":11639:11661  s_requests[_requestId] */\n      dup2\n      mstore\n      0x20\n      add\n      swap1\n      dup2\n      mstore\n      0x20\n      add\n      0x00\n      keccak256\n        /* \"coqfighttestnet.sol\":11639:11668  s_requests[_requestId].exists */\n      0x00\n      add\n      0x01\n      swap1\n      sload\n      swap1\n      0x0100\n      exp\n      swap1\n      div\n      0xff\n      and\n        /* \"coqfighttestnet.sol\":11631:11690  require(s_requests[_requestId].exists, \"request not found\") */\n      tag_185\n      jumpi\n      mload(0x40)\n      0x08c379a000000000000000000000000000000000000000000000000000000000\n      dup2\n      mstore\n      0x04\n      add\n      tag_186\n      swap1\n      tag_152\n      jump\t// in\n    tag_186:\n      mload(0x40)\n      dup1\n      swap2\n      sub\n      swap1\n      revert\n    tag_185:\n        /* \"coqfighttestnet.sol\":11735:11739  true */\n      0x01\n        /* \"coqfighttestnet.sol\":11700:11710  s_requests */\n      0x0a\n        /* \"coqfighttestnet.sol\":11700:11722  s_requests[_requestId] */\n      0x00\n        /* \"coqfighttestnet.sol\":11711:11721  _requestId */\n      dup5\n        /* \"coqfighttestnet.sol\":11700:11722  s_requests[_requestId] */\n      dup2\n      mstore\n      0x20\n      add\n      swap1\n      dup2\n      mstore\n      0x20\n      add\n      0x00\n      keccak256\n        /* \"coqfighttestnet.sol\":11700:11732  s_requests[_requestId].fulfilled */\n      0x00\n      add\n      0x00\n        /* \"coqfighttestnet.sol\":11700:11739  s_requests[_requestId].fulfilled = true */\n      0x0100\n      exp\n      dup2\n      sload\n      dup2\n      0xff\n      mul\n      not\n      and\n      swap1\n      dup4\n      iszero\n      iszero\n      mul\n      or\n      swap1\n      sstore\n      pop\n        /* \"coqfighttestnet.sol\":11786:11798  _randomWords */\n      dup1\n        /* \"coqfighttestnet.sol\":11749:11759  s_requests */\n      0x0a\n        /* \"coqfighttestnet.sol\":11749:11771  s_requests[_requestId] */\n      0x00\n        /* \"coqfighttestnet.sol\":11760:11770  _requestId */\n      dup5\n        /* \"coqfighttestnet.sol\":11749:11771  s_requests[_requestId] */\n      dup2\n      mstore\n      0x20\n      add\n      swap1\n      dup2\n      mstore\n      0x20\n      add\n      0x00\n      keccak256\n        /* \"coqfighttestnet.sol\":11749:11783  s_requests[_requestId].randomWords */\n      0x01\n      add\n        /* \"coqfighttestnet.sol\":11749:11798  s_requests[_requestId].randomWords = _randomWords */\n      swap1\n      dup1\n      mload\n      swap1\n      0x20\n      add\n      swap1\n      tag_187\n      swap3\n      swap2\n      swap1\n      tag_188\n      jump\t// in\n    tag_187:\n      pop\n        /* \"coqfighttestnet.sol\":11869:11883  uint256 gameId */\n      0x00\n        /* \"coqfighttestnet.sol\":11886:11903  gameIdByRequestId */\n      0x0d\n        /* \"coqfighttestnet.sol\":11886:11915  gameIdByRequestId[_requestId] */\n      0x00\n        /* \"coqfighttestnet.sol\":11904:11914  _requestId */\n      dup5\n        /* \"coqfighttestnet.sol\":11886:11915  gameIdByRequestId[_requestId] */\n      dup2\n      mstore\n      0x20\n      add\n      swap1\n      dup2\n      mstore\n      0x20\n      add\n      0x00\n      keccak256\n      sload\n        /* \"coqfighttestnet.sol\":11869:11915  uint256 gameId = gameIdByRequestId[_requestId] */\n      swap1\n      pop\n        /* \"coqfighttestnet.sol\":12111:12146  _completeGame(gameId, _randomWords) */\n      tag_189\n        /* \"coqfighttestnet.sol\":12125:12131  gameId */\n      dup2\n        /* \"coqfighttestnet.sol\":12133:12145  _randomWords */\n      dup4\n        /* \"coqfighttestnet.sol\":12111:12124  _completeGame */\n      tag_190\n        /* \"coqfighttestnet.sol\":12111:12146  _completeGame(gameId, _randomWords) */\n      jump\t// in\n    tag_189:\n        /* \"coqfighttestnet.sol\":12162:12204  RequestFulfilled(_requestId, _randomWords) */\n      0xfe2e2d779dba245964d4e3ef9b994be63856fd568bf7d3ca9e224755cb1bd54d\n        /* \"coqfighttestnet.sol\":12179:12189  _requestId */\n      dup4\n        /* \"coqfighttestnet.sol\":12191:12203  _randomWords */\n      dup4\n        /* \"coqfighttestnet.sol\":12162:12204  RequestFulfilled(_requestId, _randomWords) */\n      mload(0x40)\n      tag_191\n      swap3\n      swap2\n      swap1\n      tag_192\n      jump\t// in\n    tag_191:\n      mload(0x40)\n      dup1\n      swap2\n      sub\n      swap1\n      log1\n        /* \"coqfighttestnet.sol\":11621:12211  {... */\n      pop\n        /* \"coqfighttestnet.sol\":11502:12211  function fulfillRandomWords(... */\n      pop\n      pop\n      jump\t// out\n        /* \"@chainlink/contracts/src/v0.8/shared/access/ConfirmedOwnerWithProposal.sol\":1715:1826  function _validateOwnership() internal view {... */\n    tag_119:\n        /* \"@chainlink/contracts/src/v0.8/shared/access/ConfirmedOwnerWithProposal.sol\":1787:1794  s_owner */\n      0x00\n      dup1\n      sload\n      swap1\n      0x0100\n      exp\n      swap1\n      div\n      0xffffffffffffffffffffffffffffffffffffffff\n      and\n        /* \"@chainlink/contracts/src/v0.8/shared/access/ConfirmedOwnerWithProposal.sol\":1773:1794  msg.sender == s_owner */\n      0xffffffffffffffffffffffffffffffffffffffff\n      and\n        /* \"@chainlink/contracts/src/v0.8/shared/access/ConfirmedOwnerWithProposal.sol\":1773:1783  msg.sender */\n      caller\n        /* \"@chainlink/contracts/src/v0.8/shared/access/ConfirmedOwnerWithProposal.sol\":1773:1794  msg.sender == s_owner */\n      0xffffffffffffffffffffffffffffffffffffffff\n      and\n      eq\n        /* \"@chainlink/contracts/src/v0.8/shared/access/ConfirmedOwnerWithProposal.sol\":1765:1821  require(msg.sender == s_owner, \"Only callable by owner\") */\n      tag_194\n      jumpi\n      mload(0x40)\n      0x08c379a000000000000000000000000000000000000000000000000000000000\n      dup2\n      mstore\n      0x04\n      add\n      tag_195\n      swap1\n      tag_196\n      jump\t// in\n    tag_195:\n      mload(0x40)\n      dup1\n      swap2\n      sub\n      swap1\n      revert\n    tag_194:\n        /* \"@chainlink/contracts/src/v0.8/shared/access/ConfirmedOwnerWithProposal.sol\":1715:1826  function _validateOwnership() internal view {... */\n      jump\t// out\n        /* \"coqfighttestnet.sol\":8790:9233  function _removeGameFromActiveList(uint256 _gameId) internal {... */\n    tag_133:\n        /* \"coqfighttestnet.sol\":8866:8875  uint256 i */\n      0x00\n        /* \"coqfighttestnet.sol\":8861:9227  for (uint256 i = 0; i < activeGameIds.length; i++) {... */\n    tag_198:\n        /* \"coqfighttestnet.sol\":8885:8898  activeGameIds */\n      0x03\n        /* \"coqfighttestnet.sol\":8885:8905  activeGameIds.length */\n      dup1\n      sload\n      swap1\n      pop\n        /* \"coqfighttestnet.sol\":8881:8882  i */\n      dup2\n        /* \"coqfighttestnet.sol\":8881:8905  i < activeGameIds.length */\n      lt\n        /* \"coqfighttestnet.sol\":8861:9227  for (uint256 i = 0; i < activeGameIds.length; i++) {... */\n      iszero\n      tag_199\n      jumpi\n        /* \"coqfighttestnet.sol\":8950:8957  _gameId */\n      dup2\n        /* \"coqfighttestnet.sol\":8930:8943  activeGameIds */\n      0x03\n        /* \"coqfighttestnet.sol\":8944:8945  i */\n      dup3\n        /* \"coqfighttestnet.sol\":8930:8946  activeGameIds[i] */\n      dup2\n      sload\n      dup2\n      lt\n      tag_201\n      jumpi\n      tag_202\n      tag_203\n      jump\t// in\n    tag_202:\n    tag_201:\n      swap1\n      0x00\n      mstore\n      keccak256(0x00, 0x20)\n      add\n      sload\n        /* \"coqfighttestnet.sol\":8930:8957  activeGameIds[i] == _gameId */\n      sub\n        /* \"coqfighttestnet.sol\":8926:9217  if (activeGameIds[i] == _gameId) {... */\n      tag_205\n      jumpi\n        /* \"coqfighttestnet.sol\":9103:9116  activeGameIds */\n      0x03\n        /* \"coqfighttestnet.sol\":9140:9141  1 */\n      0x01\n        /* \"coqfighttestnet.sol\":9117:9130  activeGameIds */\n      0x03\n        /* \"coqfighttestnet.sol\":9117:9137  activeGameIds.length */\n      dup1\n      sload\n      swap1\n      pop\n        /* \"coqfighttestnet.sol\":9117:9141  activeGameIds.length - 1 */\n      tag_206\n      swap2\n      swap1\n      tag_207\n      jump\t// in\n    tag_206:\n        /* \"coqfighttestnet.sol\":9103:9142  activeGameIds[activeGameIds.length - 1] */\n      dup2\n      sload\n      dup2\n      lt\n      tag_208\n      jumpi\n      tag_209\n      tag_203\n      jump\t// in\n    tag_209:\n    tag_208:\n      swap1\n      0x00\n      mstore\n      keccak256(0x00, 0x20)\n      add\n      sload\n        /* \"coqfighttestnet.sol\":9084:9097  activeGameIds */\n      0x03\n        /* \"coqfighttestnet.sol\":9098:9099  i */\n      dup3\n        /* \"coqfighttestnet.sol\":9084:9100  activeGameIds[i] */\n      dup2\n      sload\n      dup2\n      lt\n      tag_211\n      jumpi\n      tag_212\n      tag_203\n      jump\t// in\n    tag_212:\n    tag_211:\n      swap1\n      0x00\n      mstore\n      keccak256(0x00, 0x20)\n      add\n        /* \"coqfighttestnet.sol\":9084:9142  activeGameIds[i] = activeGameIds[activeGameIds.length - 1] */\n      dup2\n      swap1\n      sstore\n      pop\n        /* \"coqfighttestnet.sol\":9160:9173  activeGameIds */\n      0x03\n        /* \"coqfighttestnet.sol\":9160:9179  activeGameIds.pop() */\n      dup1\n      sload\n      dup1\n      tag_214\n      jumpi\n      tag_215\n      tag_216\n      jump\t// in\n    tag_215:\n    tag_214:\n      0x01\n      swap1\n      sub\n      dup2\n      dup2\n      swap1\n      0x00\n      mstore\n      keccak256(0x00, 0x20)\n      add\n      0x00\n      swap1\n      sstore\n      swap1\n      sstore\n        /* \"coqfighttestnet.sol\":9197:9202  break */\n      jump(tag_199)\n        /* \"coqfighttestnet.sol\":8926:9217  if (activeGameIds[i] == _gameId) {... */\n    tag_205:\n        /* \"coqfighttestnet.sol\":8907:8910  i++ */\n      dup1\n      dup1\n      0x01\n      add\n      swap2\n      pop\n      pop\n        /* \"coqfighttestnet.sol\":8861:9227  for (uint256 i = 0; i < activeGameIds.length; i++) {... */\n      jump(tag_198)\n    tag_199:\n      pop\n        /* \"coqfighttestnet.sol\":8790:9233  function _removeGameFromActiveList(uint256 _gameId) internal {... */\n      pop\n      jump\t// out\n        /* \"coqfighttestnet.sol\":9318:9475  function _generateGameId() private returns (uint256) {... */\n    tag_160:\n        /* \"coqfighttestnet.sol\":9362:9369  uint256 */\n      0x00\n        /* \"coqfighttestnet.sol\":9423:9438  block.timestamp */\n      timestamp\n        /* \"coqfighttestnet.sol\":9440:9450  msg.sender */\n      caller\n        /* \"coqfighttestnet.sol\":9452:9463  gameCounter */\n      0x02\n      0x00\n        /* \"coqfighttestnet.sol\":9452:9465  gameCounter++ */\n      dup2\n      sload\n      dup1\n      swap3\n      swap2\n      swap1\n      tag_219\n      swap1\n      tag_220\n      jump\t// in\n    tag_219:\n      swap2\n      swap1\n      pop\n      sstore\n        /* \"coqfighttestnet.sol\":9406:9466  abi.encodePacked(block.timestamp, msg.sender, gameCounter++) */\n      add(0x20, mload(0x40))\n      tag_221\n      swap4\n      swap3\n      swap2\n      swap1\n      tag_222\n      jump\t// in\n    tag_221:\n      mload(0x40)\n      0x20\n      dup2\n      dup4\n      sub\n      sub\n      dup2\n      mstore\n      swap1\n      0x40\n      mstore\n        /* \"coqfighttestnet.sol\":9396:9467  keccak256(abi.encodePacked(block.timestamp, msg.sender, gameCounter++)) */\n      dup1\n      mload\n      swap1\n      0x20\n      add\n      keccak256\n        /* \"coqfighttestnet.sol\":9388:9468  uint256(keccak256(abi.encodePacked(block.timestamp, msg.sender, gameCounter++))) */\n      0x00\n      shr\n        /* \"coqfighttestnet.sol\":9381:9468  return uint256(keccak256(abi.encodePacked(block.timestamp, msg.sender, gameCounter++))) */\n      swap1\n      pop\n        /* \"coqfighttestnet.sol\":9318:9475  function _generateGameId() private returns (uint256) {... */\n      swap1\n      jump\t// out\n        /* \"coqfighttestnet.sol\":10855:11496  function requestRandomWords() internal returns (uint256 requestId)... */\n    tag_178:\n        /* \"coqfighttestnet.sol\":10903:10920  uint256 requestId */\n      0x00\n        /* \"coqfighttestnet.sol\":11010:11021  COORDINATOR */\n      0x0b\n      0x00\n      swap1\n      sload\n      swap1\n      0x0100\n      exp\n      swap1\n      div\n      0xffffffffffffffffffffffffffffffffffffffff\n      and\n        /* \"coqfighttestnet.sol\":11010:11040  COORDINATOR.requestRandomWords */\n      0xffffffffffffffffffffffffffffffffffffffff\n      and\n      0x5d3b1d30\n        /* \"coqfighttestnet.sol\":11054:11061  keyHash */\n      sload(0x08)\n        /* \"coqfighttestnet.sol\":11075:11091  s_subscriptionId */\n      0x05\n      0x00\n      swap1\n      sload\n      swap1\n      0x0100\n      exp\n      swap1\n      div\n      0xffffffffffffffff\n      and\n        /* \"coqfighttestnet.sol\":11105:11125  requestConfirmations */\n      0x09\n      0x04\n      swap1\n      sload\n      swap1\n      0x0100\n      exp\n      swap1\n      div\n      0xffff\n      and\n        /* \"coqfighttestnet.sol\":11139:11155  callbackGasLimit */\n      0x09\n      0x00\n      swap1\n      sload\n      swap1\n      0x0100\n      exp\n      swap1\n      div\n      0xffffffff\n      and\n        /* \"coqfighttestnet.sol\":11169:11177  numWords */\n      0x09\n      0x06\n      swap1\n      sload\n      swap1\n      0x0100\n      exp\n      swap1\n      div\n      0xffffffff\n      and\n        /* \"coqfighttestnet.sol\":11010:11187  COORDINATOR.requestRandomWords(... */\n      mload(0x40)\n      dup7\n      0xffffffff\n      and\n      0xe0\n      shl\n      dup2\n      mstore\n      0x04\n      add\n      tag_224\n      swap6\n      swap5\n      swap4\n      swap3\n      swap2\n      swap1\n      tag_225\n      jump\t// in\n    tag_224:\n      0x20\n      mload(0x40)\n      dup1\n      dup4\n      sub\n      dup2\n      0x00\n      dup8\n      gas\n      call\n      iszero\n      dup1\n      iszero\n      tag_227\n      jumpi\n      returndatasize\n      0x00\n      dup1\n      returndatacopy\n      revert(0x00, returndatasize)\n    tag_227:\n      pop\n      pop\n      pop\n      pop\n      mload(0x40)\n      returndatasize\n      not(0x1f)\n      0x1f\n      dup3\n      add\n      and\n      dup3\n      add\n      dup1\n      0x40\n      mstore\n      pop\n      dup2\n      add\n      swap1\n      tag_228\n      swap2\n      swap1\n      tag_229\n      jump\t// in\n    tag_228:\n        /* \"coqfighttestnet.sol\":10998:11187  requestId = COORDINATOR.requestRandomWords(... */\n      swap1\n      pop\n        /* \"coqfighttestnet.sol\":11221:11345  RequestStatus({... */\n      mload(0x40)\n      dup1\n      0x60\n      add\n      0x40\n      mstore\n      dup1\n        /* \"coqfighttestnet.sol\":11329:11334  false */\n      0x00\n        /* \"coqfighttestnet.sol\":11221:11345  RequestStatus({... */\n      iszero\n      iszero\n      dup2\n      mstore\n      0x20\n      add\n        /* \"coqfighttestnet.sol\":11300:11304  true */\n      0x01\n        /* \"coqfighttestnet.sol\":11221:11345  RequestStatus({... */\n      iszero\n      iszero\n      dup2\n      mstore\n      0x20\n      add\n        /* \"coqfighttestnet.sol\":11276:11277  0 */\n      0x00\n        /* \"coqfighttestnet.sol\":11262:11278  new uint256[](0) */\n      0xffffffffffffffff\n      dup2\n      gt\n      iszero\n      tag_230\n      jumpi\n      tag_231\n      tag_232\n      jump\t// in\n    tag_231:\n    tag_230:\n      mload(0x40)\n      swap1\n      dup1\n      dup3\n      mstore\n      dup1\n      0x20\n      mul\n      0x20\n      add\n      dup3\n      add\n      0x40\n      mstore\n      dup1\n      iszero\n      tag_233\n      jumpi\n      dup2\n      0x20\n      add\n      0x20\n      dup3\n      mul\n      dup1\n      calldatasize\n      dup4\n      calldatacopy\n      dup1\n      dup3\n      add\n      swap2\n      pop\n      pop\n      swap1\n      pop\n    tag_233:\n      pop\n        /* \"coqfighttestnet.sol\":11221:11345  RequestStatus({... */\n      dup2\n      mstore\n      pop\n        /* \"coqfighttestnet.sol\":11197:11207  s_requests */\n      0x0a\n        /* \"coqfighttestnet.sol\":11197:11218  s_requests[requestId] */\n      0x00\n        /* \"coqfighttestnet.sol\":11208:11217  requestId */\n      dup4\n        /* \"coqfighttestnet.sol\":11197:11218  s_requests[requestId] */\n      dup2\n      mstore\n      0x20\n      add\n      swap1\n      dup2\n      mstore\n      0x20\n      add\n      0x00\n      keccak256\n        /* \"coqfighttestnet.sol\":11197:11345  s_requests[requestId] = RequestStatus({... */\n      0x00\n      dup3\n      add\n      mload\n      dup2\n      0x00\n      add\n      exp(0x0100, 0x00)\n      dup2\n      sload\n      dup2\n      0xff\n      mul\n      not\n      and\n      swap1\n      dup4\n      iszero\n      iszero\n      mul\n      or\n      swap1\n      sstore\n      pop\n      0x20\n      dup3\n      add\n      mload\n      dup2\n      0x00\n      add\n      exp(0x0100, 0x01)\n      dup2\n      sload\n      dup2\n      0xff\n      mul\n      not\n      and\n      swap1\n      dup4\n      iszero\n      iszero\n      mul\n      or\n      swap1\n      sstore\n      pop\n      0x40\n      dup3\n      add\n      mload\n      dup2\n      0x01\n      add\n      swap1\n      dup1\n      mload\n      swap1\n      0x20\n      add\n      swap1\n      tag_234\n      swap3\n      swap2\n      swap1\n      tag_188\n      jump\t// in\n    tag_234:\n      pop\n      swap1\n      pop\n      pop\n        /* \"coqfighttestnet.sol\":11355:11365  requestIds */\n      0x06\n        /* \"coqfighttestnet.sol\":11371:11380  requestId */\n      dup2\n        /* \"coqfighttestnet.sol\":11355:11381  requestIds.push(requestId) */\n      swap1\n      dup1\n      0x01\n      dup2\n      sload\n      add\n      dup1\n      dup3\n      sstore\n      dup1\n      swap2\n      pop\n      pop\n      0x01\n      swap1\n      sub\n      swap1\n      0x00\n      mstore\n      keccak256(0x00, 0x20)\n      add\n      0x00\n      swap1\n      swap2\n      swap1\n      swap2\n      swap1\n      swap2\n      pop\n      sstore\n        /* \"coqfighttestnet.sol\":11407:11416  requestId */\n      dup1\n        /* \"coqfighttestnet.sol\":11391:11404  lastRequestId */\n      0x07\n        /* \"coqfighttestnet.sol\":11391:11416  lastRequestId = requestId */\n      dup2\n      swap1\n      sstore\n      pop\n        /* \"coqfighttestnet.sol\":11431:11463  RequestSent(requestId, numWords) */\n      0xcc58b13ad3eab50626c6a6300b1d139cd6ebb1688a7cced9461c2f7e762665ee\n        /* \"coqfighttestnet.sol\":11443:11452  requestId */\n      dup2\n        /* \"coqfighttestnet.sol\":11454:11462  numWords */\n      0x09\n      0x06\n      swap1\n      sload\n      swap1\n      0x0100\n      exp\n      swap1\n      div\n      0xffffffff\n      and\n        /* \"coqfighttestnet.sol\":11431:11463  RequestSent(requestId, numWords) */\n      mload(0x40)\n      tag_236\n      swap3\n      swap2\n      swap1\n      tag_237\n      jump\t// in\n    tag_236:\n      mload(0x40)\n      dup1\n      swap2\n      sub\n      swap1\n      log1\n        /* \"coqfighttestnet.sol\":10855:11496  function requestRandomWords() internal returns (uint256 requestId)... */\n      swap1\n      jump\t// out\n        /* \"@chainlink/contracts/src/v0.8/shared/access/ConfirmedOwnerWithProposal.sol\":1482:1670  function _transferOwnership(address to) private {... */\n    tag_183:\n        /* \"@chainlink/contracts/src/v0.8/shared/access/ConfirmedOwnerWithProposal.sol\":1550:1560  msg.sender */\n      caller\n        /* \"@chainlink/contracts/src/v0.8/shared/access/ConfirmedOwnerWithProposal.sol\":1544:1560  to != msg.sender */\n      0xffffffffffffffffffffffffffffffffffffffff\n      and\n        /* \"@chainlink/contracts/src/v0.8/shared/access/ConfirmedOwnerWithProposal.sol\":1544:1546  to */\n      dup2\n        /* \"@chainlink/contracts/src/v0.8/shared/access/ConfirmedOwnerWithProposal.sol\":1544:1560  to != msg.sender */\n      0xffffffffffffffffffffffffffffffffffffffff\n      and\n      sub\n        /* \"@chainlink/contracts/src/v0.8/shared/access/ConfirmedOwnerWithProposal.sol\":1536:1588  require(to != msg.sender, \"Cannot transfer to self\") */\n      tag_239\n      jumpi\n      mload(0x40)\n      0x08c379a000000000000000000000000000000000000000000000000000000000\n      dup2\n      mstore\n      0x04\n      add\n      tag_240\n      swap1\n      tag_241\n      jump\t// in\n    tag_240:\n      mload(0x40)\n      dup1\n      swap2\n      sub\n      swap1\n      revert\n    tag_239:\n        /* \"@chainlink/contracts/src/v0.8/shared/access/ConfirmedOwnerWithProposal.sol\":1612:1614  to */\n      dup1\n        /* \"@chainlink/contracts/src/v0.8/shared/access/ConfirmedOwnerWithProposal.sol\":1595:1609  s_pendingOwner */\n      0x01\n      0x00\n        /* \"@chainlink/contracts/src/v0.8/shared/access/ConfirmedOwnerWithProposal.sol\":1595:1614  s_pendingOwner = to */\n      0x0100\n      exp\n      dup2\n      sload\n      dup2\n      0xffffffffffffffffffffffffffffffffffffffff\n      mul\n      not\n      and\n      swap1\n      dup4\n      0xffffffffffffffffffffffffffffffffffffffff\n      and\n      mul\n      or\n      swap1\n      sstore\n      pop\n        /* \"@chainlink/contracts/src/v0.8/shared/access/ConfirmedOwnerWithProposal.sol\":1662:1664  to */\n      dup1\n        /* \"@chainlink/contracts/src/v0.8/shared/access/ConfirmedOwnerWithProposal.sol\":1626:1665  OwnershipTransferRequested(s_owner, to) */\n      0xffffffffffffffffffffffffffffffffffffffff\n      and\n        /* \"@chainlink/contracts/src/v0.8/shared/access/ConfirmedOwnerWithProposal.sol\":1653:1660  s_owner */\n      0x00\n      dup1\n      sload\n      swap1\n      0x0100\n      exp\n      swap1\n      div\n      0xffffffffffffffffffffffffffffffffffffffff\n      and\n        /* \"@chainlink/contracts/src/v0.8/shared/access/ConfirmedOwnerWithProposal.sol\":1626:1665  OwnershipTransferRequested(s_owner, to) */\n      0xffffffffffffffffffffffffffffffffffffffff\n      and\n      0xed8889f560326eb138920d842192f0eb3dd22b4f139c87a2c57538e05bae1278\n      mload(0x40)\n      mload(0x40)\n      dup1\n      swap2\n      sub\n      swap1\n      log3\n        /* \"@chainlink/contracts/src/v0.8/shared/access/ConfirmedOwnerWithProposal.sol\":1482:1670  function _transferOwnership(address to) private {... */\n      pop\n      jump\t// out\n        /* \"coqfighttestnet.sol\":7608:8722  function _completeGame(uint256 _gameId, uint256[] memory _randomWords) internal {... */\n    tag_190:\n        /* \"coqfighttestnet.sol\":7698:7715  Game storage game */\n      0x00\n        /* \"coqfighttestnet.sol\":7718:7723  games */\n      0x0c\n        /* \"coqfighttestnet.sol\":7718:7732  games[_gameId] */\n      0x00\n        /* \"coqfighttestnet.sol\":7724:7731  _gameId */\n      dup5\n        /* \"coqfighttestnet.sol\":7718:7732  games[_gameId] */\n      dup2\n      mstore\n      0x20\n      add\n      swap1\n      dup2\n      mstore\n      0x20\n      add\n      0x00\n      keccak256\n        /* \"coqfighttestnet.sol\":7698:7732  Game storage game = games[_gameId] */\n      swap1\n      pop\n        /* \"coqfighttestnet.sol\":7751:7755  game */\n      dup1\n        /* \"coqfighttestnet.sol\":7751:7765  game.completed */\n      0x03\n      add\n      0x00\n      swap1\n      sload\n      swap1\n      0x0100\n      exp\n      swap1\n      div\n      0xff\n      and\n        /* \"coqfighttestnet.sol\":7750:7765  !game.completed */\n      iszero\n        /* \"coqfighttestnet.sol\":7742:7795  require(!game.completed, \"Game is already completed\") */\n      tag_243\n      jumpi\n      mload(0x40)\n      0x08c379a000000000000000000000000000000000000000000000000000000000\n      dup2\n      mstore\n      0x04\n      add\n      tag_244\n      swap1\n      tag_245\n      jump\t// in\n    tag_244:\n      mload(0x40)\n      dup1\n      swap2\n      sub\n      swap1\n      revert\n    tag_243:\n        /* \"coqfighttestnet.sol\":7862:7881  uint256 randomValue */\n      0x00\n        /* \"coqfighttestnet.sol\":7919:7931  _randomWords */\n      dup3\n        /* \"coqfighttestnet.sol\":7902:7932  abi.encodePacked(_randomWords) */\n      add(0x20, mload(0x40))\n      tag_246\n      swap2\n      swap1\n      tag_247\n      jump\t// in\n    tag_246:\n      mload(0x40)\n      0x20\n      dup2\n      dup4\n      sub\n      sub\n      dup2\n      mstore\n      swap1\n      0x40\n      mstore\n        /* \"coqfighttestnet.sol\":7892:7933  keccak256(abi.encodePacked(_randomWords)) */\n      dup1\n      mload\n      swap1\n      0x20\n      add\n      keccak256\n        /* \"coqfighttestnet.sol\":7884:7934  uint256(keccak256(abi.encodePacked(_randomWords))) */\n      0x00\n      shr\n        /* \"coqfighttestnet.sol\":7862:7934  uint256 randomValue = uint256(keccak256(abi.encodePacked(_randomWords))) */\n      swap1\n      pop\n        /* \"coqfighttestnet.sol\":7978:7979  0 */\n      0x00\n        /* \"coqfighttestnet.sol\":7973:7974  2 */\n      0x02\n        /* \"coqfighttestnet.sol\":7959:7970  randomValue */\n      dup3\n        /* \"coqfighttestnet.sol\":7959:7974  randomValue % 2 */\n      tag_248\n      swap2\n      swap1\n      tag_249\n      jump\t// in\n    tag_248:\n        /* \"coqfighttestnet.sol\":7959:7979  randomValue % 2 == 0 */\n      eq\n        /* \"coqfighttestnet.sol\":7958:8010  (randomValue % 2 == 0) ? game.player1 : game.player2 */\n      tag_250\n      jumpi\n        /* \"coqfighttestnet.sol\":7998:8002  game */\n      dup2\n        /* \"coqfighttestnet.sol\":7998:8010  game.player2 */\n      0x01\n      add\n      0x00\n      swap1\n      sload\n      swap1\n      0x0100\n      exp\n      swap1\n      div\n      0xffffffffffffffffffffffffffffffffffffffff\n      and\n        /* \"coqfighttestnet.sol\":7958:8010  (randomValue % 2 == 0) ? game.player1 : game.player2 */\n      jump(tag_251)\n    tag_250:\n        /* \"coqfighttestnet.sol\":7983:7987  game */\n      dup2\n        /* \"coqfighttestnet.sol\":7983:7995  game.player1 */\n      0x00\n      add\n      0x00\n      swap1\n      sload\n      swap1\n      0x0100\n      exp\n      swap1\n      div\n      0xffffffffffffffffffffffffffffffffffffffff\n      and\n        /* \"coqfighttestnet.sol\":7958:8010  (randomValue % 2 == 0) ? game.player1 : game.player2 */\n    tag_251:\n        /* \"coqfighttestnet.sol\":7944:7948  game */\n      dup3\n        /* \"coqfighttestnet.sol\":7944:7955  game.winner */\n      0x03\n      add\n      0x01\n        /* \"coqfighttestnet.sol\":7944:8010  game.winner = (randomValue % 2 == 0) ? game.player1 : game.player2 */\n      0x0100\n      exp\n      dup2\n      sload\n      dup2\n      0xffffffffffffffffffffffffffffffffffffffff\n      mul\n      not\n      and\n      swap1\n      dup4\n      0xffffffffffffffffffffffffffffffffffffffff\n      and\n      mul\n      or\n      swap1\n      sstore\n      pop\n        /* \"coqfighttestnet.sol\":8037:8041  true */\n      0x01\n        /* \"coqfighttestnet.sol\":8020:8024  game */\n      dup3\n        /* \"coqfighttestnet.sol\":8020:8034  game.completed */\n      0x03\n      add\n      0x00\n        /* \"coqfighttestnet.sol\":8020:8041  game.completed = true */\n      0x0100\n      exp\n      dup2\n      sload\n      dup2\n      0xff\n      mul\n      not\n      and\n      swap1\n      dup4\n      iszero\n      iszero\n      mul\n      or\n      swap1\n      sstore\n      pop\n        /* \"coqfighttestnet.sol\":8523:8527  game */\n      dup2\n        /* \"coqfighttestnet.sol\":8523:8534  game.winner */\n      0x03\n      add\n      0x01\n      swap1\n      sload\n      swap1\n      0x0100\n      exp\n      swap1\n      div\n      0xffffffffffffffffffffffffffffffffffffffff\n      and\n        /* \"coqfighttestnet.sol\":8515:8544  payable(game.winner).transfer */\n      0xffffffffffffffffffffffffffffffffffffffff\n      and\n        /* \"coqfighttestnet.sol\":8515:8563  payable(game.winner).transfer(game.wager.mul(2)) */\n      0x08fc\n        /* \"coqfighttestnet.sol\":8545:8562  game.wager.mul(2) */\n      tag_252\n        /* \"coqfighttestnet.sol\":8560:8561  2 */\n      0x02\n        /* \"coqfighttestnet.sol\":8545:8549  game */\n      dup6\n        /* \"coqfighttestnet.sol\":8545:8555  game.wager */\n      0x02\n      add\n      sload\n        /* \"coqfighttestnet.sol\":8545:8559  game.wager.mul */\n      tag_253\n      swap1\n        /* \"coqfighttestnet.sol\":8545:8562  game.wager.mul(2) */\n      swap2\n      swap1\n      0xffffffff\n      and\n      jump\t// in\n    tag_252:\n        /* \"coqfighttestnet.sol\":8515:8563  payable(game.winner).transfer(game.wager.mul(2)) */\n      swap1\n      dup2\n      iszero\n      mul\n      swap1\n      mload(0x40)\n      0x00\n      mload(0x40)\n      dup1\n      dup4\n      sub\n      dup2\n      dup6\n      dup9\n      dup9\n      call\n      swap4\n      pop\n      pop\n      pop\n      pop\n      iszero\n      dup1\n      iszero\n      tag_255\n      jumpi\n      returndatasize\n      0x00\n      dup1\n      returndatacopy\n      revert(0x00, returndatasize)\n    tag_255:\n      pop\n        /* \"coqfighttestnet.sol\":8630:8664  _removeGameFromActiveList(_gameId) */\n      tag_256\n        /* \"coqfighttestnet.sol\":8656:8663  _gameId */\n      dup5\n        /* \"coqfighttestnet.sol\":8630:8655  _removeGameFromActiveList */\n      tag_133\n        /* \"coqfighttestnet.sol\":8630:8664  _removeGameFromActiveList(_gameId) */\n      jump\t// in\n    tag_256:\n        /* \"coqfighttestnet.sol\":8703:8707  game */\n      dup2\n        /* \"coqfighttestnet.sol\":8703:8714  game.winner */\n      0x03\n      add\n      0x01\n      swap1\n      sload\n      swap1\n      0x0100\n      exp\n      swap1\n      div\n      0xffffffffffffffffffffffffffffffffffffffff\n      and\n        /* \"coqfighttestnet.sol\":8680:8715  GameCompleted(_gameId, game.winner) */\n      0xffffffffffffffffffffffffffffffffffffffff\n      and\n        /* \"coqfighttestnet.sol\":8694:8701  _gameId */\n      dup5\n        /* \"coqfighttestnet.sol\":8680:8715  GameCompleted(_gameId, game.winner) */\n      0x7f40df5127524300187445e867486da572aab86769c0212e0b392bd87c4ca97f\n      mload(0x40)\n      mload(0x40)\n      dup1\n      swap2\n      sub\n      swap1\n      log3\n        /* \"coqfighttestnet.sol\":7688:8722  {... */\n      pop\n      pop\n        /* \"coqfighttestnet.sol\":7608:8722  function _completeGame(uint256 _gameId, uint256[] memory _randomWords) internal {... */\n      pop\n      pop\n      jump\t// out\n        /* \"@openzeppelin/contracts/utils/math/SafeMath.sol\":3465:3561  function mul(uint256 a, uint256 b) internal pure returns (uint256) {... */\n    tag_253:\n        /* \"@openzeppelin/contracts/utils/math/SafeMath.sol\":3523:3530  uint256 */\n      0x00\n        /* \"@openzeppelin/contracts/utils/math/SafeMath.sol\":3553:3554  b */\n      dup2\n        /* \"@openzeppelin/contracts/utils/math/SafeMath.sol\":3549:3550  a */\n      dup4\n        /* \"@openzeppelin/contracts/utils/math/SafeMath.sol\":3549:3554  a * b */\n      tag_258\n      swap2\n      swap1\n      tag_259\n      jump\t// in\n    tag_258:\n        /* \"@openzeppelin/contracts/utils/math/SafeMath.sol\":3542:3554  return a * b */\n      swap1\n      pop\n        /* \"@openzeppelin/contracts/utils/math/SafeMath.sol\":3465:3561  function mul(uint256 a, uint256 b) internal pure returns (uint256) {... */\n      swap3\n      swap2\n      pop\n      pop\n      jump\t// out\n    tag_188:\n      dup3\n      dup1\n      sload\n      dup3\n      dup3\n      sstore\n      swap1\n      0x00\n      mstore\n      keccak256(0x00, 0x20)\n      swap1\n      dup2\n      add\n      swap3\n      dup3\n      iszero\n      tag_260\n      jumpi\n      swap2\n      0x20\n      mul\n      dup3\n      add\n    tag_261:\n      dup3\n      dup2\n      gt\n      iszero\n      tag_262\n      jumpi\n      dup3\n      mload\n      dup3\n      sstore\n      swap2\n      0x20\n      add\n      swap2\n      swap1\n      0x01\n      add\n      swap1\n      jump(tag_261)\n    tag_262:\n    tag_260:\n      pop\n      swap1\n      pop\n      tag_263\n      swap2\n      swap1\n      tag_264\n      jump\t// in\n    tag_263:\n      pop\n      swap1\n      jump\t// out\n    tag_264:\n    tag_265:\n      dup1\n      dup3\n      gt\n      iszero\n      tag_266\n      jumpi\n      0x00\n      dup2\n      0x00\n      swap1\n      sstore\n      pop\n      0x01\n      add\n      jump(tag_265)\n    tag_266:\n      pop\n      swap1\n      jump\t// out\n        /* \"#utility.yul\":7:82   */\n    tag_267:\n        /* \"#utility.yul\":40:46   */\n      0x00\n        /* \"#utility.yul\":73:75   */\n      0x40\n        /* \"#utility.yul\":67:76   */\n      mload\n        /* \"#utility.yul\":57:76   */\n      swap1\n      pop\n        /* \"#utility.yul\":7:82   */\n      swap1\n      jump\t// out\n        /* \"#utility.yul\":88:205   */\n    tag_268:\n        /* \"#utility.yul\":197:198   */\n      0x00\n        /* \"#utility.yul\":194:195   */\n      dup1\n        /* \"#utility.yul\":187:199   */\n      revert\n        /* \"#utility.yul\":211:328   */\n    tag_269:\n        /* \"#utility.yul\":320:321   */\n      0x00\n        /* \"#utility.yul\":317:318   */\n      dup1\n        /* \"#utility.yul\":310:322   */\n      revert\n        /* \"#utility.yul\":334:411   */\n    tag_270:\n        /* \"#utility.yul\":371:378   */\n      0x00\n        /* \"#utility.yul\":400:405   */\n      dup2\n        /* \"#utility.yul\":389:405   */\n      swap1\n      pop\n        /* \"#utility.yul\":334:411   */\n      swap2\n      swap1\n      pop\n      jump\t// out\n        /* \"#utility.yul\":417:539   */\n    tag_271:\n        /* \"#utility.yul\":490:514   */\n      tag_348\n        /* \"#utility.yul\":508:513   */\n      dup2\n        /* \"#utility.yul\":490:514   */\n      tag_270\n      jump\t// in\n    tag_348:\n        /* \"#utility.yul\":483:488   */\n      dup2\n        /* \"#utility.yul\":480:515   */\n      eq\n        /* \"#utility.yul\":470:533   */\n      tag_349\n      jumpi\n        /* \"#utility.yul\":529:530   */\n      0x00\n        /* \"#utility.yul\":526:527   */\n      dup1\n        /* \"#utility.yul\":519:531   */\n      revert\n        /* \"#utility.yul\":470:533   */\n    tag_349:\n        /* \"#utility.yul\":417:539   */\n      pop\n      jump\t// out\n        /* \"#utility.yul\":545:684   */\n    tag_272:\n        /* \"#utility.yul\":591:596   */\n      0x00\n        /* \"#utility.yul\":629:635   */\n      dup2\n        /* \"#utility.yul\":616:636   */\n      calldataload\n        /* \"#utility.yul\":607:636   */\n      swap1\n      pop\n        /* \"#utility.yul\":645:678   */\n      tag_351\n        /* \"#utility.yul\":672:677   */\n      dup2\n        /* \"#utility.yul\":645:678   */\n      tag_271\n      jump\t// in\n    tag_351:\n        /* \"#utility.yul\":545:684   */\n      swap3\n      swap2\n      pop\n      pop\n      jump\t// out\n        /* \"#utility.yul\":690:1019   */\n    tag_26:\n        /* \"#utility.yul\":749:755   */\n      0x00\n        /* \"#utility.yul\":798:800   */\n      0x20\n        /* \"#utility.yul\":786:795   */\n      dup3\n        /* \"#utility.yul\":777:784   */\n      dup5\n        /* \"#utility.yul\":773:796   */\n      sub\n        /* \"#utility.yul\":769:801   */\n      slt\n        /* \"#utility.yul\":766:885   */\n      iszero\n      tag_353\n      jumpi\n        /* \"#utility.yul\":804:883   */\n      tag_354\n      tag_268\n      jump\t// in\n    tag_354:\n        /* \"#utility.yul\":766:885   */\n    tag_353:\n        /* \"#utility.yul\":924:925   */\n      0x00\n        /* \"#utility.yul\":949:1002   */\n      tag_355\n        /* \"#utility.yul\":994:1001   */\n      dup5\n        /* \"#utility.yul\":985:991   */\n      dup3\n        /* \"#utility.yul\":974:983   */\n      dup6\n        /* \"#utility.yul\":970:992   */\n      add\n        /* \"#utility.yul\":949:1002   */\n      tag_272\n      jump\t// in\n    tag_355:\n        /* \"#utility.yul\":939:1002   */\n      swap2\n      pop\n        /* \"#utility.yul\":895:1012   */\n      pop\n        /* \"#utility.yul\":690:1019   */\n      swap3\n      swap2\n      pop\n      pop\n      jump\t// out\n        /* \"#utility.yul\":1025:1151   */\n    tag_273:\n        /* \"#utility.yul\":1062:1069   */\n      0x00\n        /* \"#utility.yul\":1102:1144   */\n      0xffffffffffffffffffffffffffffffffffffffff\n        /* \"#utility.yul\":1095:1100   */\n      dup3\n        /* \"#utility.yul\":1091:1145   */\n      and\n        /* \"#utility.yul\":1080:1145   */\n      swap1\n      pop\n        /* \"#utility.yul\":1025:1151   */\n      swap2\n      swap1\n      pop\n      jump\t// out\n        /* \"#utility.yul\":1157:1253   */\n    tag_274:\n        /* \"#utility.yul\":1194:1201   */\n      0x00\n        /* \"#utility.yul\":1223:1247   */\n      tag_358\n        /* \"#utility.yul\":1241:1246   */\n      dup3\n        /* \"#utility.yul\":1223:1247   */\n      tag_273\n      jump\t// in\n    tag_358:\n        /* \"#utility.yul\":1212:1247   */\n      swap1\n      pop\n        /* \"#utility.yul\":1157:1253   */\n      swap2\n      swap1\n      pop\n      jump\t// out\n        /* \"#utility.yul\":1259:1377   */\n    tag_275:\n        /* \"#utility.yul\":1346:1370   */\n      tag_360\n        /* \"#utility.yul\":1364:1369   */\n      dup2\n        /* \"#utility.yul\":1346:1370   */\n      tag_274\n      jump\t// in\n    tag_360:\n        /* \"#utility.yul\":1341:1344   */\n      dup3\n        /* \"#utility.yul\":1334:1371   */\n      mstore\n        /* \"#utility.yul\":1259:1377   */\n      pop\n      pop\n      jump\t// out\n        /* \"#utility.yul\":1383:1501   */\n    tag_276:\n        /* \"#utility.yul\":1470:1494   */\n      tag_362\n        /* \"#utility.yul\":1488:1493   */\n      dup2\n        /* \"#utility.yul\":1470:1494   */\n      tag_270\n      jump\t// in\n    tag_362:\n        /* \"#utility.yul\":1465:1468   */\n      dup3\n        /* \"#utility.yul\":1458:1495   */\n      mstore\n        /* \"#utility.yul\":1383:1501   */\n      pop\n      pop\n      jump\t// out\n        /* \"#utility.yul\":1507:1597   */\n    tag_277:\n        /* \"#utility.yul\":1541:1548   */\n      0x00\n        /* \"#utility.yul\":1584:1589   */\n      dup2\n        /* \"#utility.yul\":1577:1590   */\n      iszero\n        /* \"#utility.yul\":1570:1591   */\n      iszero\n        /* \"#utility.yul\":1559:1591   */\n      swap1\n      pop\n        /* \"#utility.yul\":1507:1597   */\n      swap2\n      swap1\n      pop\n      jump\t// out\n        /* \"#utility.yul\":1603:1712   */\n    tag_278:\n        /* \"#utility.yul\":1684:1705   */\n      tag_365\n        /* \"#utility.yul\":1699:1704   */\n      dup2\n        /* \"#utility.yul\":1684:1705   */\n      tag_277\n      jump\t// in\n    tag_365:\n        /* \"#utility.yul\":1679:1682   */\n      dup3\n        /* \"#utility.yul\":1672:1706   */\n      mstore\n        /* \"#utility.yul\":1603:1712   */\n      pop\n      pop\n      jump\t// out\n        /* \"#utility.yul\":1718:2370   */\n    tag_29:\n        /* \"#utility.yul\":1917:1921   */\n      0x00\n        /* \"#utility.yul\":1955:1958   */\n      0xa0\n        /* \"#utility.yul\":1944:1953   */\n      dup3\n        /* \"#utility.yul\":1940:1959   */\n      add\n        /* \"#utility.yul\":1932:1959   */\n      swap1\n      pop\n        /* \"#utility.yul\":1969:2040   */\n      tag_367\n        /* \"#utility.yul\":2037:2038   */\n      0x00\n        /* \"#utility.yul\":2026:2035   */\n      dup4\n        /* \"#utility.yul\":2022:2039   */\n      add\n        /* \"#utility.yul\":2013:2019   */\n      dup9\n        /* \"#utility.yul\":1969:2040   */\n      tag_275\n      jump\t// in\n    tag_367:\n        /* \"#utility.yul\":2050:2122   */\n      tag_368\n        /* \"#utility.yul\":2118:2120   */\n      0x20\n        /* \"#utility.yul\":2107:2116   */\n      dup4\n        /* \"#utility.yul\":2103:2121   */\n      add\n        /* \"#utility.yul\":2094:2100   */\n      dup8\n        /* \"#utility.yul\":2050:2122   */\n      tag_275\n      jump\t// in\n    tag_368:\n        /* \"#utility.yul\":2132:2204   */\n      tag_369\n        /* \"#utility.yul\":2200:2202   */\n      0x40\n        /* \"#utility.yul\":2189:2198   */\n      dup4\n        /* \"#utility.yul\":2185:2203   */\n      add\n        /* \"#utility.yul\":2176:2182   */\n      dup7\n        /* \"#utility.yul\":2132:2204   */\n      tag_276\n      jump\t// in\n    tag_369:\n        /* \"#utility.yul\":2214:2280   */\n      tag_370\n        /* \"#utility.yul\":2276:2278   */\n      0x60\n        /* \"#utility.yul\":2265:2274   */\n      dup4\n        /* \"#utility.yul\":2261:2279   */\n      add\n        /* \"#utility.yul\":2252:2258   */\n      dup6\n        /* \"#utility.yul\":2214:2280   */\n      tag_278\n      jump\t// in\n    tag_370:\n        /* \"#utility.yul\":2290:2363   */\n      tag_371\n        /* \"#utility.yul\":2358:2361   */\n      0x80\n        /* \"#utility.yul\":2347:2356   */\n      dup4\n        /* \"#utility.yul\":2343:2362   */\n      add\n        /* \"#utility.yul\":2334:2340   */\n      dup5\n        /* \"#utility.yul\":2290:2363   */\n      tag_275\n      jump\t// in\n    tag_371:\n        /* \"#utility.yul\":1718:2370   */\n      swap7\n      swap6\n      pop\n      pop\n      pop\n      pop\n      pop\n      pop\n      jump\t// out\n        /* \"#utility.yul\":2376:2493   */\n    tag_279:\n        /* \"#utility.yul\":2485:2486   */\n      0x00\n        /* \"#utility.yul\":2482:2483   */\n      dup1\n        /* \"#utility.yul\":2475:2487   */\n      revert\n        /* \"#utility.yul\":2499:2601   */\n    tag_280:\n        /* \"#utility.yul\":2540:2546   */\n      0x00\n        /* \"#utility.yul\":2591:2593   */\n      0x1f\n        /* \"#utility.yul\":2587:2594   */\n      not\n        /* \"#utility.yul\":2582:2584   */\n      0x1f\n        /* \"#utility.yul\":2575:2580   */\n      dup4\n        /* \"#utility.yul\":2571:2585   */\n      add\n        /* \"#utility.yul\":2567:2595   */\n      and\n        /* \"#utility.yul\":2557:2595   */\n      swap1\n      pop\n        /* \"#utility.yul\":2499:2601   */\n      swap2\n      swap1\n      pop\n      jump\t// out\n        /* \"#utility.yul\":2607:2787   */\n    tag_232:\n        /* \"#utility.yul\":2655:2732   */\n      0x4e487b7100000000000000000000000000000000000000000000000000000000\n        /* \"#utility.yul\":2652:2653   */\n      0x00\n        /* \"#utility.yul\":2645:2733   */\n      mstore\n        /* \"#utility.yul\":2752:2756   */\n      0x41\n        /* \"#utility.yul\":2749:2750   */\n      0x04\n        /* \"#utility.yul\":2742:2757   */\n      mstore\n        /* \"#utility.yul\":2776:2780   */\n      0x24\n        /* \"#utility.yul\":2773:2774   */\n      0x00\n        /* \"#utility.yul\":2766:2781   */\n      revert\n        /* \"#utility.yul\":2793:3074   */\n    tag_281:\n        /* \"#utility.yul\":2876:2903   */\n      tag_376\n        /* \"#utility.yul\":2898:2902   */\n      dup3\n        /* \"#utility.yul\":2876:2903   */\n      tag_280\n      jump\t// in\n    tag_376:\n        /* \"#utility.yul\":2868:2874   */\n      dup2\n        /* \"#utility.yul\":2864:2904   */\n      add\n        /* \"#utility.yul\":3006:3012   */\n      dup2\n        /* \"#utility.yul\":2994:3004   */\n      dup2\n        /* \"#utility.yul\":2991:3013   */\n      lt\n        /* \"#utility.yul\":2970:2988   */\n      0xffffffffffffffff\n        /* \"#utility.yul\":2958:2968   */\n      dup3\n        /* \"#utility.yul\":2955:2989   */\n      gt\n        /* \"#utility.yul\":2952:3014   */\n      or\n        /* \"#utility.yul\":2949:3037   */\n      iszero\n      tag_377\n      jumpi\n        /* \"#utility.yul\":3017:3035   */\n      tag_378\n      tag_232\n      jump\t// in\n    tag_378:\n        /* \"#utility.yul\":2949:3037   */\n    tag_377:\n        /* \"#utility.yul\":3057:3067   */\n      dup1\n        /* \"#utility.yul\":3053:3055   */\n      0x40\n        /* \"#utility.yul\":3046:3068   */\n      mstore\n        /* \"#utility.yul\":2836:3074   */\n      pop\n        /* \"#utility.yul\":2793:3074   */\n      pop\n      pop\n      jump\t// out\n        /* \"#utility.yul\":3080:3209   */\n    tag_282:\n        /* \"#utility.yul\":3114:3120   */\n      0x00\n        /* \"#utility.yul\":3141:3161   */\n      tag_380\n      tag_267\n      jump\t// in\n    tag_380:\n        /* \"#utility.yul\":3131:3161   */\n      swap1\n      pop\n        /* \"#utility.yul\":3170:3203   */\n      tag_381\n        /* \"#utility.yul\":3198:3202   */\n      dup3\n        /* \"#utility.yul\":3190:3196   */\n      dup3\n        /* \"#utility.yul\":3170:3203   */\n      tag_281\n      jump\t// in\n    tag_381:\n        /* \"#utility.yul\":3080:3209   */\n      swap2\n      swap1\n      pop\n      jump\t// out\n        /* \"#utility.yul\":3215:3526   */\n    tag_283:\n        /* \"#utility.yul\":3292:3296   */\n      0x00\n        /* \"#utility.yul\":3382:3400   */\n      0xffffffffffffffff\n        /* \"#utility.yul\":3374:3380   */\n      dup3\n        /* \"#utility.yul\":3371:3401   */\n      gt\n        /* \"#utility.yul\":3368:3424   */\n      iszero\n      tag_383\n      jumpi\n        /* \"#utility.yul\":3404:3422   */\n      tag_384\n      tag_232\n      jump\t// in\n    tag_384:\n        /* \"#utility.yul\":3368:3424   */\n    tag_383:\n        /* \"#utility.yul\":3454:3458   */\n      0x20\n        /* \"#utility.yul\":3446:3452   */\n      dup3\n        /* \"#utility.yul\":3442:3459   */\n      mul\n        /* \"#utility.yul\":3434:3459   */\n      swap1\n      pop\n        /* \"#utility.yul\":3514:3518   */\n      0x20\n        /* \"#utility.yul\":3508:3512   */\n      dup2\n        /* \"#utility.yul\":3504:3519   */\n      add\n        /* \"#utility.yul\":3496:3519   */\n      swap1\n      pop\n        /* \"#utility.yul\":3215:3526   */\n      swap2\n      swap1\n      pop\n      jump\t// out\n        /* \"#utility.yul\":3532:3649   */\n    tag_284:\n        /* \"#utility.yul\":3641:3642   */\n      0x00\n        /* \"#utility.yul\":3638:3639   */\n      dup1\n        /* \"#utility.yul\":3631:3643   */\n      revert\n        /* \"#utility.yul\":3672:4382   */\n    tag_285:\n        /* \"#utility.yul\":3768:3773   */\n      0x00\n        /* \"#utility.yul\":3793:3874   */\n      tag_387\n        /* \"#utility.yul\":3809:3873   */\n      tag_388\n        /* \"#utility.yul\":3866:3872   */\n      dup5\n        /* \"#utility.yul\":3809:3873   */\n      tag_283\n      jump\t// in\n    tag_388:\n        /* \"#utility.yul\":3793:3874   */\n      tag_282\n      jump\t// in\n    tag_387:\n        /* \"#utility.yul\":3784:3874   */\n      swap1\n      pop\n        /* \"#utility.yul\":3894:3899   */\n      dup1\n        /* \"#utility.yul\":3923:3929   */\n      dup4\n        /* \"#utility.yul\":3916:3921   */\n      dup3\n        /* \"#utility.yul\":3909:3930   */\n      mstore\n        /* \"#utility.yul\":3957:3961   */\n      0x20\n        /* \"#utility.yul\":3950:3955   */\n      dup3\n        /* \"#utility.yul\":3946:3962   */\n      add\n        /* \"#utility.yul\":3939:3962   */\n      swap1\n      pop\n        /* \"#utility.yul\":4010:4014   */\n      0x20\n        /* \"#utility.yul\":4002:4008   */\n      dup5\n        /* \"#utility.yul\":3998:4015   */\n      mul\n        /* \"#utility.yul\":3990:3996   */\n      dup4\n        /* \"#utility.yul\":3986:4016   */\n      add\n        /* \"#utility.yul\":4039:4042   */\n      dup6\n        /* \"#utility.yul\":4031:4037   */\n      dup2\n        /* \"#utility.yul\":4028:4043   */\n      gt\n        /* \"#utility.yul\":4025:4147   */\n      iszero\n      tag_389\n      jumpi\n        /* \"#utility.yul\":4058:4137   */\n      tag_390\n      tag_284\n      jump\t// in\n    tag_390:\n        /* \"#utility.yul\":4025:4147   */\n    tag_389:\n        /* \"#utility.yul\":4173:4179   */\n      dup4\n        /* \"#utility.yul\":4156:4376   */\n    tag_391:\n        /* \"#utility.yul\":4190:4196   */\n      dup2\n        /* \"#utility.yul\":4185:4188   */\n      dup2\n        /* \"#utility.yul\":4182:4197   */\n      lt\n        /* \"#utility.yul\":4156:4376   */\n      iszero\n      tag_393\n      jumpi\n        /* \"#utility.yul\":4265:4268   */\n      dup1\n        /* \"#utility.yul\":4294:4331   */\n      tag_394\n        /* \"#utility.yul\":4327:4330   */\n      dup9\n        /* \"#utility.yul\":4315:4325   */\n      dup3\n        /* \"#utility.yul\":4294:4331   */\n      tag_272\n      jump\t// in\n    tag_394:\n        /* \"#utility.yul\":4289:4292   */\n      dup5\n        /* \"#utility.yul\":4282:4332   */\n      mstore\n        /* \"#utility.yul\":4361:4365   */\n      0x20\n        /* \"#utility.yul\":4356:4359   */\n      dup5\n        /* \"#utility.yul\":4352:4366   */\n      add\n        /* \"#utility.yul\":4345:4366   */\n      swap4\n      pop\n        /* \"#utility.yul\":4232:4376   */\n      pop\n        /* \"#utility.yul\":4216:4220   */\n      0x20\n        /* \"#utility.yul\":4211:4214   */\n      dup2\n        /* \"#utility.yul\":4207:4221   */\n      add\n        /* \"#utility.yul\":4200:4221   */\n      swap1\n      pop\n        /* \"#utility.yul\":4156:4376   */\n      jump(tag_391)\n    tag_393:\n        /* \"#utility.yul\":4160:4181   */\n      pop\n        /* \"#utility.yul\":3774:4382   */\n      pop\n      pop\n        /* \"#utility.yul\":3672:4382   */\n      swap4\n      swap3\n      pop\n      pop\n      pop\n      jump\t// out\n        /* \"#utility.yul\":4405:4775   */\n    tag_286:\n        /* \"#utility.yul\":4476:4481   */\n      0x00\n        /* \"#utility.yul\":4525:4528   */\n      dup3\n        /* \"#utility.yul\":4518:4522   */\n      0x1f\n        /* \"#utility.yul\":4510:4516   */\n      dup4\n        /* \"#utility.yul\":4506:4523   */\n      add\n        /* \"#utility.yul\":4502:4529   */\n      slt\n        /* \"#utility.yul\":4492:4614   */\n      tag_396\n      jumpi\n        /* \"#utility.yul\":4533:4612   */\n      tag_397\n      tag_279\n      jump\t// in\n    tag_397:\n        /* \"#utility.yul\":4492:4614   */\n    tag_396:\n        /* \"#utility.yul\":4650:4656   */\n      dup2\n        /* \"#utility.yul\":4637:4657   */\n      calldataload\n        /* \"#utility.yul\":4675:4769   */\n      tag_398\n        /* \"#utility.yul\":4765:4768   */\n      dup5\n        /* \"#utility.yul\":4757:4763   */\n      dup3\n        /* \"#utility.yul\":4750:4754   */\n      0x20\n        /* \"#utility.yul\":4742:4748   */\n      dup7\n        /* \"#utility.yul\":4738:4755   */\n      add\n        /* \"#utility.yul\":4675:4769   */\n      tag_285\n      jump\t// in\n    tag_398:\n        /* \"#utility.yul\":4666:4769   */\n      swap2\n      pop\n        /* \"#utility.yul\":4482:4775   */\n      pop\n        /* \"#utility.yul\":4405:4775   */\n      swap3\n      swap2\n      pop\n      pop\n      jump\t// out\n        /* \"#utility.yul\":4781:5465   */\n    tag_33:\n        /* \"#utility.yul\":4874:4880   */\n      0x00\n        /* \"#utility.yul\":4882:4888   */\n      dup1\n        /* \"#utility.yul\":4931:4933   */\n      0x40\n        /* \"#utility.yul\":4919:4928   */\n      dup4\n        /* \"#utility.yul\":4910:4917   */\n      dup6\n        /* \"#utility.yul\":4906:4929   */\n      sub\n        /* \"#utility.yul\":4902:4934   */\n      slt\n        /* \"#utility.yul\":4899:5018   */\n      iszero\n      tag_400\n      jumpi\n        /* \"#utility.yul\":4937:5016   */\n      tag_401\n      tag_268\n      jump\t// in\n    tag_401:\n        /* \"#utility.yul\":4899:5018   */\n    tag_400:\n        /* \"#utility.yul\":5057:5058   */\n      0x00\n        /* \"#utility.yul\":5082:5135   */\n      tag_402\n        /* \"#utility.yul\":5127:5134   */\n      dup6\n        /* \"#utility.yul\":5118:5124   */\n      dup3\n        /* \"#utility.yul\":5107:5116   */\n      dup7\n        /* \"#utility.yul\":5103:5125   */\n      add\n        /* \"#utility.yul\":5082:5135   */\n      tag_272\n      jump\t// in\n    tag_402:\n        /* \"#utility.yul\":5072:5135   */\n      swap3\n      pop\n        /* \"#utility.yul\":5028:5145   */\n      pop\n        /* \"#utility.yul\":5212:5214   */\n      0x20\n        /* \"#utility.yul\":5201:5210   */\n      dup4\n        /* \"#utility.yul\":5197:5215   */\n      add\n        /* \"#utility.yul\":5184:5216   */\n      calldataload\n        /* \"#utility.yul\":5243:5261   */\n      0xffffffffffffffff\n        /* \"#utility.yul\":5235:5241   */\n      dup2\n        /* \"#utility.yul\":5232:5262   */\n      gt\n        /* \"#utility.yul\":5229:5346   */\n      iszero\n      tag_403\n      jumpi\n        /* \"#utility.yul\":5265:5344   */\n      tag_404\n      tag_269\n      jump\t// in\n    tag_404:\n        /* \"#utility.yul\":5229:5346   */\n    tag_403:\n        /* \"#utility.yul\":5370:5448   */\n      tag_405\n        /* \"#utility.yul\":5440:5447   */\n      dup6\n        /* \"#utility.yul\":5431:5437   */\n      dup3\n        /* \"#utility.yul\":5420:5429   */\n      dup7\n        /* \"#utility.yul\":5416:5438   */\n      add\n        /* \"#utility.yul\":5370:5448   */\n      tag_286\n      jump\t// in\n    tag_405:\n        /* \"#utility.yul\":5360:5448   */\n      swap2\n      pop\n        /* \"#utility.yul\":5155:5458   */\n      pop\n        /* \"#utility.yul\":4781:5465   */\n      swap3\n      pop\n      swap3\n      swap1\n      pop\n      jump\t// out\n        /* \"#utility.yul\":5471:5585   */\n    tag_287:\n        /* \"#utility.yul\":5538:5544   */\n      0x00\n        /* \"#utility.yul\":5572:5577   */\n      dup2\n        /* \"#utility.yul\":5566:5578   */\n      mload\n        /* \"#utility.yul\":5556:5578   */\n      swap1\n      pop\n        /* \"#utility.yul\":5471:5585   */\n      swap2\n      swap1\n      pop\n      jump\t// out\n        /* \"#utility.yul\":5591:5775   */\n    tag_288:\n        /* \"#utility.yul\":5690:5701   */\n      0x00\n        /* \"#utility.yul\":5724:5730   */\n      dup3\n        /* \"#utility.yul\":5719:5722   */\n      dup3\n        /* \"#utility.yul\":5712:5731   */\n      mstore\n        /* \"#utility.yul\":5764:5768   */\n      0x20\n        /* \"#utility.yul\":5759:5762   */\n      dup3\n        /* \"#utility.yul\":5755:5769   */\n      add\n        /* \"#utility.yul\":5740:5769   */\n      swap1\n      pop\n        /* \"#utility.yul\":5591:5775   */\n      swap3\n      swap2\n      pop\n      pop\n      jump\t// out\n        /* \"#utility.yul\":5781:5913   */\n    tag_289:\n        /* \"#utility.yul\":5848:5852   */\n      0x00\n        /* \"#utility.yul\":5871:5874   */\n      dup2\n        /* \"#utility.yul\":5863:5874   */\n      swap1\n      pop\n        /* \"#utility.yul\":5901:5905   */\n      0x20\n        /* \"#utility.yul\":5896:5899   */\n      dup3\n        /* \"#utility.yul\":5892:5906   */\n      add\n        /* \"#utility.yul\":5884:5906   */\n      swap1\n      pop\n        /* \"#utility.yul\":5781:5913   */\n      swap2\n      swap1\n      pop\n      jump\t// out\n        /* \"#utility.yul\":5919:6027   */\n    tag_290:\n        /* \"#utility.yul\":5996:6020   */\n      tag_410\n        /* \"#utility.yul\":6014:6019   */\n      dup2\n        /* \"#utility.yul\":5996:6020   */\n      tag_270\n      jump\t// in\n    tag_410:\n        /* \"#utility.yul\":5991:5994   */\n      dup3\n        /* \"#utility.yul\":5984:6021   */\n      mstore\n        /* \"#utility.yul\":5919:6027   */\n      pop\n      pop\n      jump\t// out\n        /* \"#utility.yul\":6033:6212   */\n    tag_291:\n        /* \"#utility.yul\":6102:6112   */\n      0x00\n        /* \"#utility.yul\":6123:6169   */\n      tag_412\n        /* \"#utility.yul\":6165:6168   */\n      dup4\n        /* \"#utility.yul\":6157:6163   */\n      dup4\n        /* \"#utility.yul\":6123:6169   */\n      tag_290\n      jump\t// in\n    tag_412:\n        /* \"#utility.yul\":6201:6205   */\n      0x20\n        /* \"#utility.yul\":6196:6199   */\n      dup4\n        /* \"#utility.yul\":6192:6206   */\n      add\n        /* \"#utility.yul\":6178:6206   */\n      swap1\n      pop\n        /* \"#utility.yul\":6033:6212   */\n      swap3\n      swap2\n      pop\n      pop\n      jump\t// out\n        /* \"#utility.yul\":6218:6331   */\n    tag_292:\n        /* \"#utility.yul\":6288:6292   */\n      0x00\n        /* \"#utility.yul\":6320:6324   */\n      0x20\n        /* \"#utility.yul\":6315:6318   */\n      dup3\n        /* \"#utility.yul\":6311:6325   */\n      add\n        /* \"#utility.yul\":6303:6325   */\n      swap1\n      pop\n        /* \"#utility.yul\":6218:6331   */\n      swap2\n      swap1\n      pop\n      jump\t// out\n        /* \"#utility.yul\":6367:7099   */\n    tag_293:\n        /* \"#utility.yul\":6486:6489   */\n      0x00\n        /* \"#utility.yul\":6515:6569   */\n      tag_415\n        /* \"#utility.yul\":6563:6568   */\n      dup3\n        /* \"#utility.yul\":6515:6569   */\n      tag_287\n      jump\t// in\n    tag_415:\n        /* \"#utility.yul\":6585:6671   */\n      tag_416\n        /* \"#utility.yul\":6664:6670   */\n      dup2\n        /* \"#utility.yul\":6659:6662   */\n      dup6\n        /* \"#utility.yul\":6585:6671   */\n      tag_288\n      jump\t// in\n    tag_416:\n        /* \"#utility.yul\":6578:6671   */\n      swap4\n      pop\n        /* \"#utility.yul\":6695:6751   */\n      tag_417\n        /* \"#utility.yul\":6745:6750   */\n      dup4\n        /* \"#utility.yul\":6695:6751   */\n      tag_289\n      jump\t// in\n    tag_417:\n        /* \"#utility.yul\":6774:6781   */\n      dup1\n        /* \"#utility.yul\":6805:6806   */\n      0x00\n        /* \"#utility.yul\":6790:7074   */\n    tag_418:\n        /* \"#utility.yul\":6815:6821   */\n      dup4\n        /* \"#utility.yul\":6812:6813   */\n      dup2\n        /* \"#utility.yul\":6809:6822   */\n      lt\n        /* \"#utility.yul\":6790:7074   */\n      iszero\n      tag_420\n      jumpi\n        /* \"#utility.yul\":6891:6897   */\n      dup2\n        /* \"#utility.yul\":6885:6898   */\n      mload\n        /* \"#utility.yul\":6918:6981   */\n      tag_421\n        /* \"#utility.yul\":6977:6980   */\n      dup9\n        /* \"#utility.yul\":6962:6975   */\n      dup3\n        /* \"#utility.yul\":6918:6981   */\n      tag_291\n      jump\t// in\n    tag_421:\n        /* \"#utility.yul\":6911:6981   */\n      swap8\n      pop\n        /* \"#utility.yul\":7004:7064   */\n      tag_422\n        /* \"#utility.yul\":7057:7063   */\n      dup4\n        /* \"#utility.yul\":7004:7064   */\n      tag_292\n      jump\t// in\n    tag_422:\n        /* \"#utility.yul\":6994:7064   */\n      swap3\n      pop\n        /* \"#utility.yul\":6850:7074   */\n      pop\n        /* \"#utility.yul\":6837:6838   */\n      0x01\n        /* \"#utility.yul\":6834:6835   */\n      dup2\n        /* \"#utility.yul\":6830:6839   */\n      add\n        /* \"#utility.yul\":6825:6839   */\n      swap1\n      pop\n        /* \"#utility.yul\":6790:7074   */\n      jump(tag_418)\n    tag_420:\n        /* \"#utility.yul\":6794:6808   */\n      pop\n        /* \"#utility.yul\":7090:7093   */\n      dup6\n        /* \"#utility.yul\":7083:7093   */\n      swap4\n      pop\n        /* \"#utility.yul\":6491:7099   */\n      pop\n      pop\n      pop\n        /* \"#utility.yul\":6367:7099   */\n      swap3\n      swap2\n      pop\n      pop\n      jump\t// out\n        /* \"#utility.yul\":7105:7478   */\n    tag_39:\n        /* \"#utility.yul\":7248:7252   */\n      0x00\n        /* \"#utility.yul\":7286:7288   */\n      0x20\n        /* \"#utility.yul\":7275:7284   */\n      dup3\n        /* \"#utility.yul\":7271:7289   */\n      add\n        /* \"#utility.yul\":7263:7289   */\n      swap1\n      pop\n        /* \"#utility.yul\":7335:7344   */\n      dup2\n        /* \"#utility.yul\":7329:7333   */\n      dup2\n        /* \"#utility.yul\":7325:7345   */\n      sub\n        /* \"#utility.yul\":7321:7322   */\n      0x00\n        /* \"#utility.yul\":7310:7319   */\n      dup4\n        /* \"#utility.yul\":7306:7323   */\n      add\n        /* \"#utility.yul\":7299:7346   */\n      mstore\n        /* \"#utility.yul\":7363:7471   */\n      tag_424\n        /* \"#utility.yul\":7466:7470   */\n      dup2\n        /* \"#utility.yul\":7457:7463   */\n      dup5\n        /* \"#utility.yul\":7363:7471   */\n      tag_293\n      jump\t// in\n    tag_424:\n        /* \"#utility.yul\":7355:7471   */\n      swap1\n      pop\n        /* \"#utility.yul\":7105:7478   */\n      swap3\n      swap2\n      pop\n      pop\n      jump\t// out\n        /* \"#utility.yul\":7484:7706   */\n    tag_56:\n        /* \"#utility.yul\":7577:7581   */\n      0x00\n        /* \"#utility.yul\":7615:7617   */\n      0x20\n        /* \"#utility.yul\":7604:7613   */\n      dup3\n        /* \"#utility.yul\":7600:7618   */\n      add\n        /* \"#utility.yul\":7592:7618   */\n      swap1\n      pop\n        /* \"#utility.yul\":7628:7699   */\n      tag_426\n        /* \"#utility.yul\":7696:7697   */\n      0x00\n        /* \"#utility.yul\":7685:7694   */\n      dup4\n        /* \"#utility.yul\":7681:7698   */\n      add\n        /* \"#utility.yul\":7672:7678   */\n      dup5\n        /* \"#utility.yul\":7628:7699   */\n      tag_276\n      jump\t// in\n    tag_426:\n        /* \"#utility.yul\":7484:7706   */\n      swap3\n      swap2\n      pop\n      pop\n      jump\t// out\n        /* \"#utility.yul\":7712:7934   */\n    tag_61:\n        /* \"#utility.yul\":7805:7809   */\n      0x00\n        /* \"#utility.yul\":7843:7845   */\n      0x20\n        /* \"#utility.yul\":7832:7841   */\n      dup3\n        /* \"#utility.yul\":7828:7846   */\n      add\n        /* \"#utility.yul\":7820:7846   */\n      swap1\n      pop\n        /* \"#utility.yul\":7856:7927   */\n      tag_428\n        /* \"#utility.yul\":7924:7925   */\n      0x00\n        /* \"#utility.yul\":7913:7922   */\n      dup4\n        /* \"#utility.yul\":7909:7926   */\n      add\n        /* \"#utility.yul\":7900:7906   */\n      dup5\n        /* \"#utility.yul\":7856:7927   */\n      tag_275\n      jump\t// in\n    tag_428:\n        /* \"#utility.yul\":7712:7934   */\n      swap3\n      swap2\n      pop\n      pop\n      jump\t// out\n        /* \"#utility.yul\":7940:8033   */\n    tag_294:\n        /* \"#utility.yul\":7976:7983   */\n      0x00\n        /* \"#utility.yul\":8016:8026   */\n      0xffffffff\n        /* \"#utility.yul\":8009:8014   */\n      dup3\n        /* \"#utility.yul\":8005:8027   */\n      and\n        /* \"#utility.yul\":7994:8027   */\n      swap1\n      pop\n        /* \"#utility.yul\":7940:8033   */\n      swap2\n      swap1\n      pop\n      jump\t// out\n        /* \"#utility.yul\":8039:8159   */\n    tag_295:\n        /* \"#utility.yul\":8111:8134   */\n      tag_431\n        /* \"#utility.yul\":8128:8133   */\n      dup2\n        /* \"#utility.yul\":8111:8134   */\n      tag_294\n      jump\t// in\n    tag_431:\n        /* \"#utility.yul\":8104:8109   */\n      dup2\n        /* \"#utility.yul\":8101:8135   */\n      eq\n        /* \"#utility.yul\":8091:8153   */\n      tag_432\n      jumpi\n        /* \"#utility.yul\":8149:8150   */\n      0x00\n        /* \"#utility.yul\":8146:8147   */\n      dup1\n        /* \"#utility.yul\":8139:8151   */\n      revert\n        /* \"#utility.yul\":8091:8153   */\n    tag_432:\n        /* \"#utility.yul\":8039:8159   */\n      pop\n      jump\t// out\n        /* \"#utility.yul\":8165:8302   */\n    tag_296:\n        /* \"#utility.yul\":8210:8215   */\n      0x00\n        /* \"#utility.yul\":8248:8254   */\n      dup2\n        /* \"#utility.yul\":8235:8255   */\n      calldataload\n        /* \"#utility.yul\":8226:8255   */\n      swap1\n      pop\n        /* \"#utility.yul\":8264:8296   */\n      tag_434\n        /* \"#utility.yul\":8290:8295   */\n      dup2\n        /* \"#utility.yul\":8264:8296   */\n      tag_295\n      jump\t// in\n    tag_434:\n        /* \"#utility.yul\":8165:8302   */\n      swap3\n      swap2\n      pop\n      pop\n      jump\t// out\n        /* \"#utility.yul\":8308:8635   */\n    tag_70:\n        /* \"#utility.yul\":8366:8372   */\n      0x00\n        /* \"#utility.yul\":8415:8417   */\n      0x20\n        /* \"#utility.yul\":8403:8412   */\n      dup3\n        /* \"#utility.yul\":8394:8401   */\n      dup5\n        /* \"#utility.yul\":8390:8413   */\n      sub\n        /* \"#utility.yul\":8386:8418   */\n      slt\n        /* \"#utility.yul\":8383:8502   */\n      iszero\n      tag_436\n      jumpi\n        /* \"#utility.yul\":8421:8500   */\n      tag_437\n      tag_268\n      jump\t// in\n    tag_437:\n        /* \"#utility.yul\":8383:8502   */\n    tag_436:\n        /* \"#utility.yul\":8541:8542   */\n      0x00\n        /* \"#utility.yul\":8566:8618   */\n      tag_438\n        /* \"#utility.yul\":8610:8617   */\n      dup5\n        /* \"#utility.yul\":8601:8607   */\n      dup3\n        /* \"#utility.yul\":8590:8599   */\n      dup6\n        /* \"#utility.yul\":8586:8608   */\n      add\n        /* \"#utility.yul\":8566:8618   */\n      tag_296\n      jump\t// in\n    tag_438:\n        /* \"#utility.yul\":8556:8618   */\n      swap2\n      pop\n        /* \"#utility.yul\":8512:8628   */\n      pop\n        /* \"#utility.yul\":8308:8635   */\n      swap3\n      swap2\n      pop\n      pop\n      jump\t// out\n        /* \"#utility.yul\":8641:8949   */\n    tag_77:\n        /* \"#utility.yul\":8750:8754   */\n      0x00\n        /* \"#utility.yul\":8788:8790   */\n      0x40\n        /* \"#utility.yul\":8777:8786   */\n      dup3\n        /* \"#utility.yul\":8773:8791   */\n      add\n        /* \"#utility.yul\":8765:8791   */\n      swap1\n      pop\n        /* \"#utility.yul\":8801:8866   */\n      tag_440\n        /* \"#utility.yul\":8863:8864   */\n      0x00\n        /* \"#utility.yul\":8852:8861   */\n      dup4\n        /* \"#utility.yul\":8848:8865   */\n      add\n        /* \"#utility.yul\":8839:8845   */\n      dup6\n        /* \"#utility.yul\":8801:8866   */\n      tag_278\n      jump\t// in\n    tag_440:\n        /* \"#utility.yul\":8876:8942   */\n      tag_441\n        /* \"#utility.yul\":8938:8940   */\n      0x20\n        /* \"#utility.yul\":8927:8936   */\n      dup4\n        /* \"#utility.yul\":8923:8941   */\n      add\n        /* \"#utility.yul\":8914:8920   */\n      dup5\n        /* \"#utility.yul\":8876:8942   */\n      tag_278\n      jump\t// in\n    tag_441:\n        /* \"#utility.yul\":8641:8949   */\n      swap4\n      swap3\n      pop\n      pop\n      pop\n      jump\t// out\n        /* \"#utility.yul\":8955:9426   */\n    tag_92:\n        /* \"#utility.yul\":9120:9124   */\n      0x00\n        /* \"#utility.yul\":9158:9160   */\n      0x40\n        /* \"#utility.yul\":9147:9156   */\n      dup3\n        /* \"#utility.yul\":9143:9161   */\n      add\n        /* \"#utility.yul\":9135:9161   */\n      swap1\n      pop\n        /* \"#utility.yul\":9171:9236   */\n      tag_443\n        /* \"#utility.yul\":9233:9234   */\n      0x00\n        /* \"#utility.yul\":9222:9231   */\n      dup4\n        /* \"#utility.yul\":9218:9235   */\n      add\n        /* \"#utility.yul\":9209:9215   */\n      dup6\n        /* \"#utility.yul\":9171:9236   */\n      tag_278\n      jump\t// in\n    tag_443:\n        /* \"#utility.yul\":9283:9292   */\n      dup2\n        /* \"#utility.yul\":9277:9281   */\n      dup2\n        /* \"#utility.yul\":9273:9293   */\n      sub\n        /* \"#utility.yul\":9268:9270   */\n      0x20\n        /* \"#utility.yul\":9257:9266   */\n      dup4\n        /* \"#utility.yul\":9253:9271   */\n      add\n        /* \"#utility.yul\":9246:9294   */\n      mstore\n        /* \"#utility.yul\":9311:9419   */\n      tag_444\n        /* \"#utility.yul\":9414:9418   */\n      dup2\n        /* \"#utility.yul\":9405:9411   */\n      dup5\n        /* \"#utility.yul\":9311:9419   */\n      tag_293\n      jump\t// in\n    tag_444:\n        /* \"#utility.yul\":9303:9419   */\n      swap1\n      pop\n        /* \"#utility.yul\":8955:9426   */\n      swap4\n      swap3\n      pop\n      pop\n      pop\n      jump\t// out\n        /* \"#utility.yul\":9432:9554   */\n    tag_297:\n        /* \"#utility.yul\":9505:9529   */\n      tag_446\n        /* \"#utility.yul\":9523:9528   */\n      dup2\n        /* \"#utility.yul\":9505:9529   */\n      tag_274\n      jump\t// in\n    tag_446:\n        /* \"#utility.yul\":9498:9503   */\n      dup2\n        /* \"#utility.yul\":9495:9530   */\n      eq\n        /* \"#utility.yul\":9485:9548   */\n      tag_447\n      jumpi\n        /* \"#utility.yul\":9544:9545   */\n      0x00\n        /* \"#utility.yul\":9541:9542   */\n      dup1\n        /* \"#utility.yul\":9534:9546   */\n      revert\n        /* \"#utility.yul\":9485:9548   */\n    tag_447:\n        /* \"#utility.yul\":9432:9554   */\n      pop\n      jump\t// out\n        /* \"#utility.yul\":9560:9699   */\n    tag_298:\n        /* \"#utility.yul\":9606:9611   */\n      0x00\n        /* \"#utility.yul\":9644:9650   */\n      dup2\n        /* \"#utility.yul\":9631:9651   */\n      calldataload\n        /* \"#utility.yul\":9622:9651   */\n      swap1\n      pop\n        /* \"#utility.yul\":9660:9693   */\n      tag_449\n        /* \"#utility.yul\":9687:9692   */\n      dup2\n        /* \"#utility.yul\":9660:9693   */\n      tag_297\n      jump\t// in\n    tag_449:\n        /* \"#utility.yul\":9560:9699   */\n      swap3\n      swap2\n      pop\n      pop\n      jump\t// out\n        /* \"#utility.yul\":9705:10034   */\n    tag_102:\n        /* \"#utility.yul\":9764:9770   */\n      0x00\n        /* \"#utility.yul\":9813:9815   */\n      0x20\n        /* \"#utility.yul\":9801:9810   */\n      dup3\n        /* \"#utility.yul\":9792:9799   */\n      dup5\n        /* \"#utility.yul\":9788:9811   */\n      sub\n        /* \"#utility.yul\":9784:9816   */\n      slt\n        /* \"#utility.yul\":9781:9900   */\n      iszero\n      tag_451\n      jumpi\n        /* \"#utility.yul\":9819:9898   */\n      tag_452\n      tag_268\n      jump\t// in\n    tag_452:\n        /* \"#utility.yul\":9781:9900   */\n    tag_451:\n        /* \"#utility.yul\":9939:9940   */\n      0x00\n        /* \"#utility.yul\":9964:10017   */\n      tag_453\n        /* \"#utility.yul\":10009:10016   */\n      dup5\n        /* \"#utility.yul\":10000:10006   */\n      dup3\n        /* \"#utility.yul\":9989:9998   */\n      dup6\n        /* \"#utility.yul\":9985:10007   */\n      add\n        /* \"#utility.yul\":9964:10017   */\n      tag_298\n      jump\t// in\n    tag_453:\n        /* \"#utility.yul\":9954:10017   */\n      swap2\n      pop\n        /* \"#utility.yul\":9910:10027   */\n      pop\n        /* \"#utility.yul\":9705:10034   */\n      swap3\n      swap2\n      pop\n      pop\n      jump\t// out\n        /* \"#utility.yul\":10040:10372   */\n    tag_111:\n        /* \"#utility.yul\":10161:10165   */\n      0x00\n        /* \"#utility.yul\":10199:10201   */\n      0x40\n        /* \"#utility.yul\":10188:10197   */\n      dup3\n        /* \"#utility.yul\":10184:10202   */\n      add\n        /* \"#utility.yul\":10176:10202   */\n      swap1\n      pop\n        /* \"#utility.yul\":10212:10283   */\n      tag_455\n        /* \"#utility.yul\":10280:10281   */\n      0x00\n        /* \"#utility.yul\":10269:10278   */\n      dup4\n        /* \"#utility.yul\":10265:10282   */\n      add\n        /* \"#utility.yul\":10256:10262   */\n      dup6\n        /* \"#utility.yul\":10212:10283   */\n      tag_275\n      jump\t// in\n    tag_455:\n        /* \"#utility.yul\":10293:10365   */\n      tag_456\n        /* \"#utility.yul\":10361:10363   */\n      0x20\n        /* \"#utility.yul\":10350:10359   */\n      dup4\n        /* \"#utility.yul\":10346:10364   */\n      add\n        /* \"#utility.yul\":10337:10343   */\n      dup5\n        /* \"#utility.yul\":10293:10365   */\n      tag_275\n      jump\t// in\n    tag_456:\n        /* \"#utility.yul\":10040:10372   */\n      swap4\n      swap3\n      pop\n      pop\n      pop\n      jump\t// out\n        /* \"#utility.yul\":10378:10547   */\n    tag_299:\n        /* \"#utility.yul\":10462:10473   */\n      0x00\n        /* \"#utility.yul\":10496:10502   */\n      dup3\n        /* \"#utility.yul\":10491:10494   */\n      dup3\n        /* \"#utility.yul\":10484:10503   */\n      mstore\n        /* \"#utility.yul\":10536:10540   */\n      0x20\n        /* \"#utility.yul\":10531:10534   */\n      dup3\n        /* \"#utility.yul\":10527:10541   */\n      add\n        /* \"#utility.yul\":10512:10541   */\n      swap1\n      pop\n        /* \"#utility.yul\":10378:10547   */\n      swap3\n      swap2\n      pop\n      pop\n      jump\t// out\n        /* \"#utility.yul\":10553:10722   */\n    tag_300:\n        /* \"#utility.yul\":10693:10714   */\n      0x47616d6520646f6573206e6f7420657869737400000000000000000000000000\n        /* \"#utility.yul\":10689:10690   */\n      0x00\n        /* \"#utility.yul\":10681:10687   */\n      dup3\n        /* \"#utility.yul\":10677:10691   */\n      add\n        /* \"#utility.yul\":10670:10715   */\n      mstore\n        /* \"#utility.yul\":10553:10722   */\n      pop\n      jump\t// out\n        /* \"#utility.yul\":10728:11094   */\n    tag_301:\n        /* \"#utility.yul\":10870:10873   */\n      0x00\n        /* \"#utility.yul\":10891:10958   */\n      tag_460\n        /* \"#utility.yul\":10955:10957   */\n      0x13\n        /* \"#utility.yul\":10950:10953   */\n      dup4\n        /* \"#utility.yul\":10891:10958   */\n      tag_299\n      jump\t// in\n    tag_460:\n        /* \"#utility.yul\":10884:10958   */\n      swap2\n      pop\n        /* \"#utility.yul\":10967:11060   */\n      tag_461\n        /* \"#utility.yul\":11056:11059   */\n      dup3\n        /* \"#utility.yul\":10967:11060   */\n      tag_300\n      jump\t// in\n    tag_461:\n        /* \"#utility.yul\":11085:11087   */\n      0x20\n        /* \"#utility.yul\":11080:11083   */\n      dup3\n        /* \"#utility.yul\":11076:11088   */\n      add\n        /* \"#utility.yul\":11069:11088   */\n      swap1\n      pop\n        /* \"#utility.yul\":10728:11094   */\n      swap2\n      swap1\n      pop\n      jump\t// out\n        /* \"#utility.yul\":11100:11519   */\n    tag_123:\n        /* \"#utility.yul\":11266:11270   */\n      0x00\n        /* \"#utility.yul\":11304:11306   */\n      0x20\n        /* \"#utility.yul\":11293:11302   */\n      dup3\n        /* \"#utility.yul\":11289:11307   */\n      add\n        /* \"#utility.yul\":11281:11307   */\n      swap1\n      pop\n        /* \"#utility.yul\":11353:11362   */\n      dup2\n        /* \"#utility.yul\":11347:11351   */\n      dup2\n        /* \"#utility.yul\":11343:11363   */\n      sub\n        /* \"#utility.yul\":11339:11340   */\n      0x00\n        /* \"#utility.yul\":11328:11337   */\n      dup4\n        /* \"#utility.yul\":11324:11341   */\n      add\n        /* \"#utility.yul\":11317:11364   */\n      mstore\n        /* \"#utility.yul\":11381:11512   */\n      tag_463\n        /* \"#utility.yul\":11507:11511   */\n      dup2\n        /* \"#utility.yul\":11381:11512   */\n      tag_301\n      jump\t// in\n    tag_463:\n        /* \"#utility.yul\":11373:11512   */\n      swap1\n      pop\n        /* \"#utility.yul\":11100:11519   */\n      swap2\n      swap1\n      pop\n      jump\t// out\n        /* \"#utility.yul\":11525:11692   */\n    tag_302:\n        /* \"#utility.yul\":11665:11684   */\n      0x47616d6520697320636f6d706c65746564000000000000000000000000000000\n        /* \"#utility.yul\":11661:11662   */\n      0x00\n        /* \"#utility.yul\":11653:11659   */\n      dup3\n        /* \"#utility.yul\":11649:11663   */\n      add\n        /* \"#utility.yul\":11642:11685   */\n      mstore\n        /* \"#utility.yul\":11525:11692   */\n      pop\n      jump\t// out\n        /* \"#utility.yul\":11698:12064   */\n    tag_303:\n        /* \"#utility.yul\":11840:11843   */\n      0x00\n        /* \"#utility.yul\":11861:11928   */\n      tag_466\n        /* \"#utility.yul\":11925:11927   */\n      0x11\n        /* \"#utility.yul\":11920:11923   */\n      dup4\n        /* \"#utility.yul\":11861:11928   */\n      tag_299\n      jump\t// in\n    tag_466:\n        /* \"#utility.yul\":11854:11928   */\n      swap2\n      pop\n        /* \"#utility.yul\":11937:12030   */\n      tag_467\n        /* \"#utility.yul\":12026:12029   */\n      dup3\n        /* \"#utility.yul\":11937:12030   */\n      tag_302\n      jump\t// in\n    tag_467:\n        /* \"#utility.yul\":12055:12057   */\n      0x20\n        /* \"#utility.yul\":12050:12053   */\n      dup3\n        /* \"#utility.yul\":12046:12058   */\n      add\n        /* \"#utility.yul\":12039:12058   */\n      swap1\n      pop\n        /* \"#utility.yul\":11698:12064   */\n      swap2\n      swap1\n      pop\n      jump\t// out\n        /* \"#utility.yul\":12070:12489   */\n    tag_126:\n        /* \"#utility.yul\":12236:12240   */\n      0x00\n        /* \"#utility.yul\":12274:12276   */\n      0x20\n        /* \"#utility.yul\":12263:12272   */\n      dup3\n        /* \"#utility.yul\":12259:12277   */\n      add\n        /* \"#utility.yul\":12251:12277   */\n      swap1\n      pop\n        /* \"#utility.yul\":12323:12332   */\n      dup2\n        /* \"#utility.yul\":12317:12321   */\n      dup2\n        /* \"#utility.yul\":12313:12333   */\n      sub\n        /* \"#utility.yul\":12309:12310   */\n      0x00\n        /* \"#utility.yul\":12298:12307   */\n      dup4\n        /* \"#utility.yul\":12294:12311   */\n      add\n        /* \"#utility.yul\":12287:12334   */\n      mstore\n        /* \"#utility.yul\":12351:12482   */\n      tag_469\n        /* \"#utility.yul\":12477:12481   */\n      dup2\n        /* \"#utility.yul\":12351:12482   */\n      tag_303\n      jump\t// in\n    tag_469:\n        /* \"#utility.yul\":12343:12482   */\n      swap1\n      pop\n        /* \"#utility.yul\":12070:12489   */\n      swap2\n      swap1\n      pop\n      jump\t// out\n        /* \"#utility.yul\":12495:12667   */\n    tag_304:\n        /* \"#utility.yul\":12635:12659   */\n      0x4d7573742062652070726f706f736564206f776e657200000000000000000000\n        /* \"#utility.yul\":12631:12632   */\n      0x00\n        /* \"#utility.yul\":12623:12629   */\n      dup3\n        /* \"#utility.yul\":12619:12633   */\n      add\n        /* \"#utility.yul\":12612:12660   */\n      mstore\n        /* \"#utility.yul\":12495:12667   */\n      pop\n      jump\t// out\n        /* \"#utility.yul\":12673:13039   */\n    tag_305:\n        /* \"#utility.yul\":12815:12818   */\n      0x00\n        /* \"#utility.yul\":12836:12903   */\n      tag_472\n        /* \"#utility.yul\":12900:12902   */\n      0x16\n        /* \"#utility.yul\":12895:12898   */\n      dup4\n        /* \"#utility.yul\":12836:12903   */\n      tag_299\n      jump\t// in\n    tag_472:\n        /* \"#utility.yul\":12829:12903   */\n      swap2\n      pop\n        /* \"#utility.yul\":12912:13005   */\n      tag_473\n        /* \"#utility.yul\":13001:13004   */\n      dup3\n        /* \"#utility.yul\":12912:13005   */\n      tag_304\n      jump\t// in\n    tag_473:\n        /* \"#utility.yul\":13030:13032   */\n      0x20\n        /* \"#utility.yul\":13025:13028   */\n      dup3\n        /* \"#utility.yul\":13021:13033   */\n      add\n        /* \"#utility.yul\":13014:13033   */\n      swap1\n      pop\n        /* \"#utility.yul\":12673:13039   */\n      swap2\n      swap1\n      pop\n      jump\t// out\n        /* \"#utility.yul\":13045:13464   */\n    tag_137:\n        /* \"#utility.yul\":13211:13215   */\n      0x00\n        /* \"#utility.yul\":13249:13251   */\n      0x20\n        /* \"#utility.yul\":13238:13247   */\n      dup3\n        /* \"#utility.yul\":13234:13252   */\n      add\n        /* \"#utility.yul\":13226:13252   */\n      swap1\n      pop\n        /* \"#utility.yul\":13298:13307   */\n      dup2\n        /* \"#utility.yul\":13292:13296   */\n      dup2\n        /* \"#utility.yul\":13288:13308   */\n      sub\n        /* \"#utility.yul\":13284:13285   */\n      0x00\n        /* \"#utility.yul\":13273:13282   */\n      dup4\n        /* \"#utility.yul\":13269:13286   */\n      add\n        /* \"#utility.yul\":13262:13309   */\n      mstore\n        /* \"#utility.yul\":13326:13457   */\n      tag_475\n        /* \"#utility.yul\":13452:13456   */\n      dup2\n        /* \"#utility.yul\":13326:13457   */\n      tag_305\n      jump\t// in\n    tag_475:\n        /* \"#utility.yul\":13318:13457   */\n      swap1\n      pop\n        /* \"#utility.yul\":13045:13464   */\n      swap2\n      swap1\n      pop\n      jump\t// out\n        /* \"#utility.yul\":13470:13637   */\n    tag_306:\n        /* \"#utility.yul\":13610:13629   */\n      0x72657175657374206e6f7420666f756e64000000000000000000000000000000\n        /* \"#utility.yul\":13606:13607   */\n      0x00\n        /* \"#utility.yul\":13598:13604   */\n      dup3\n        /* \"#utility.yul\":13594:13608   */\n      add\n        /* \"#utility.yul\":13587:13630   */\n      mstore\n        /* \"#utility.yul\":13470:13637   */\n      pop\n      jump\t// out\n        /* \"#utility.yul\":13643:14009   */\n    tag_307:\n        /* \"#utility.yul\":13785:13788   */\n      0x00\n        /* \"#utility.yul\":13806:13873   */\n      tag_478\n        /* \"#utility.yul\":13870:13872   */\n      0x11\n        /* \"#utility.yul\":13865:13868   */\n      dup4\n        /* \"#utility.yul\":13806:13873   */\n      tag_299\n      jump\t// in\n    tag_478:\n        /* \"#utility.yul\":13799:13873   */\n      swap2\n      pop\n        /* \"#utility.yul\":13882:13975   */\n      tag_479\n        /* \"#utility.yul\":13971:13974   */\n      dup3\n        /* \"#utility.yul\":13882:13975   */\n      tag_306\n      jump\t// in\n    tag_479:\n        /* \"#utility.yul\":14000:14002   */\n      0x20\n        /* \"#utility.yul\":13995:13998   */\n      dup3\n        /* \"#utility.yul\":13991:14003   */\n      add\n        /* \"#utility.yul\":13984:14003   */\n      swap1\n      pop\n        /* \"#utility.yul\":13643:14009   */\n      swap2\n      swap1\n      pop\n      jump\t// out\n        /* \"#utility.yul\":14015:14434   */\n    tag_152:\n        /* \"#utility.yul\":14181:14185   */\n      0x00\n        /* \"#utility.yul\":14219:14221   */\n      0x20\n        /* \"#utility.yul\":14208:14217   */\n      dup3\n        /* \"#utility.yul\":14204:14222   */\n      add\n        /* \"#utility.yul\":14196:14222   */\n      swap1\n      pop\n        /* \"#utility.yul\":14268:14277   */\n      dup2\n        /* \"#utility.yul\":14262:14266   */\n      dup2\n        /* \"#utility.yul\":14258:14278   */\n      sub\n        /* \"#utility.yul\":14254:14255   */\n      0x00\n        /* \"#utility.yul\":14243:14252   */\n      dup4\n        /* \"#utility.yul\":14239:14256   */\n      add\n        /* \"#utility.yul\":14232:14279   */\n      mstore\n        /* \"#utility.yul\":14296:14427   */\n      tag_481\n        /* \"#utility.yul\":14422:14426   */\n      dup2\n        /* \"#utility.yul\":14296:14427   */\n      tag_307\n      jump\t// in\n    tag_481:\n        /* \"#utility.yul\":14288:14427   */\n      swap1\n      pop\n        /* \"#utility.yul\":14015:14434   */\n      swap2\n      swap1\n      pop\n      jump\t// out\n        /* \"#utility.yul\":14440:14665   */\n    tag_308:\n        /* \"#utility.yul\":14580:14614   */\n      0x576167657220616d6f756e74206973206c657373207468616e206d696e696d75\n        /* \"#utility.yul\":14576:14577   */\n      0x00\n        /* \"#utility.yul\":14568:14574   */\n      dup3\n        /* \"#utility.yul\":14564:14578   */\n      add\n        /* \"#utility.yul\":14557:14615   */\n      mstore\n        /* \"#utility.yul\":14649:14657   */\n      0x6d57616765720000000000000000000000000000000000000000000000000000\n        /* \"#utility.yul\":14644:14646   */\n      0x20\n        /* \"#utility.yul\":14636:14642   */\n      dup3\n        /* \"#utility.yul\":14632:14647   */\n      add\n        /* \"#utility.yul\":14625:14658   */\n      mstore\n        /* \"#utility.yul\":14440:14665   */\n      pop\n      jump\t// out\n        /* \"#utility.yul\":14671:15037   */\n    tag_309:\n        /* \"#utility.yul\":14813:14816   */\n      0x00\n        /* \"#utility.yul\":14834:14901   */\n      tag_484\n        /* \"#utility.yul\":14898:14900   */\n      0x26\n        /* \"#utility.yul\":14893:14896   */\n      dup4\n        /* \"#utility.yul\":14834:14901   */\n      tag_299\n      jump\t// in\n    tag_484:\n        /* \"#utility.yul\":14827:14901   */\n      swap2\n      pop\n        /* \"#utility.yul\":14910:15003   */\n      tag_485\n        /* \"#utility.yul\":14999:15002   */\n      dup3\n        /* \"#utility.yul\":14910:15003   */\n      tag_308\n      jump\t// in\n    tag_485:\n        /* \"#utility.yul\":15028:15030   */\n      0x40\n        /* \"#utility.yul\":15023:15026   */\n      dup3\n        /* \"#utility.yul\":15019:15031   */\n      add\n        /* \"#utility.yul\":15012:15031   */\n      swap1\n      pop\n        /* \"#utility.yul\":14671:15037   */\n      swap2\n      swap1\n      pop\n      jump\t// out\n        /* \"#utility.yul\":15043:15462   */\n    tag_158:\n        /* \"#utility.yul\":15209:15213   */\n      0x00\n        /* \"#utility.yul\":15247:15249   */\n      0x20\n        /* \"#utility.yul\":15236:15245   */\n      dup3\n        /* \"#utility.yul\":15232:15250   */\n      add\n        /* \"#utility.yul\":15224:15250   */\n      swap1\n      pop\n        /* \"#utility.yul\":15296:15305   */\n      dup2\n        /* \"#utility.yul\":15290:15294   */\n      dup2\n        /* \"#utility.yul\":15286:15306   */\n      sub\n        /* \"#utility.yul\":15282:15283   */\n      0x00\n        /* \"#utility.yul\":15271:15280   */\n      dup4\n        /* \"#utility.yul\":15267:15284   */\n      add\n        /* \"#utility.yul\":15260:15307   */\n      mstore\n        /* \"#utility.yul\":15324:15455   */\n      tag_487\n        /* \"#utility.yul\":15450:15454   */\n      dup2\n        /* \"#utility.yul\":15324:15455   */\n      tag_309\n      jump\t// in\n    tag_487:\n        /* \"#utility.yul\":15316:15455   */\n      swap1\n      pop\n        /* \"#utility.yul\":15043:15462   */\n      swap2\n      swap1\n      pop\n      jump\t// out\n        /* \"#utility.yul\":15468:15640   */\n    tag_310:\n        /* \"#utility.yul\":15608:15632   */\n      0x47616d6520697320616c7265616479206a6f696e656400000000000000000000\n        /* \"#utility.yul\":15604:15605   */\n      0x00\n        /* \"#utility.yul\":15596:15602   */\n      dup3\n        /* \"#utility.yul\":15592:15606   */\n      add\n        /* \"#utility.yul\":15585:15633   */\n      mstore\n        /* \"#utility.yul\":15468:15640   */\n      pop\n      jump\t// out\n        /* \"#utility.yul\":15646:16012   */\n    tag_311:\n        /* \"#utility.yul\":15788:15791   */\n      0x00\n        /* \"#utility.yul\":15809:15876   */\n      tag_490\n        /* \"#utility.yul\":15873:15875   */\n      0x16\n        /* \"#utility.yul\":15868:15871   */\n      dup4\n        /* \"#utility.yul\":15809:15876   */\n      tag_299\n      jump\t// in\n    tag_490:\n        /* \"#utility.yul\":15802:15876   */\n      swap2\n      pop\n        /* \"#utility.yul\":15885:15978   */\n      tag_491\n        /* \"#utility.yul\":15974:15977   */\n      dup3\n        /* \"#utility.yul\":15885:15978   */\n      tag_310\n      jump\t// in\n    tag_491:\n        /* \"#utility.yul\":16003:16005   */\n      0x20\n        /* \"#utility.yul\":15998:16001   */\n      dup3\n        /* \"#utility.yul\":15994:16006   */\n      add\n        /* \"#utility.yul\":15987:16006   */\n      swap1\n      pop\n        /* \"#utility.yul\":15646:16012   */\n      swap2\n      swap1\n      pop\n      jump\t// out\n        /* \"#utility.yul\":16018:16437   */\n    tag_168:\n        /* \"#utility.yul\":16184:16188   */\n      0x00\n        /* \"#utility.yul\":16222:16224   */\n      0x20\n        /* \"#utility.yul\":16211:16220   */\n      dup3\n        /* \"#utility.yul\":16207:16225   */\n      add\n        /* \"#utility.yul\":16199:16225   */\n      swap1\n      pop\n        /* \"#utility.yul\":16271:16280   */\n      dup2\n        /* \"#utility.yul\":16265:16269   */\n      dup2\n        /* \"#utility.yul\":16261:16281   */\n      sub\n        /* \"#utility.yul\":16257:16258   */\n      0x00\n        /* \"#utility.yul\":16246:16255   */\n      dup4\n        /* \"#utility.yul\":16242:16259   */\n      add\n        /* \"#utility.yul\":16235:16282   */\n      mstore\n        /* \"#utility.yul\":16299:16430   */\n      tag_493\n        /* \"#utility.yul\":16425:16429   */\n      dup2\n        /* \"#utility.yul\":16299:16430   */\n      tag_311\n      jump\t// in\n    tag_493:\n        /* \"#utility.yul\":16291:16430   */\n      swap1\n      pop\n        /* \"#utility.yul\":16018:16437   */\n      swap2\n      swap1\n      pop\n      jump\t// out\n        /* \"#utility.yul\":16443:16614   */\n    tag_312:\n        /* \"#utility.yul\":16583:16606   */\n      0x496e636f727265637420616d6f756e742073656e740000000000000000000000\n        /* \"#utility.yul\":16579:16580   */\n      0x00\n        /* \"#utility.yul\":16571:16577   */\n      dup3\n        /* \"#utility.yul\":16567:16581   */\n      add\n        /* \"#utility.yul\":16560:16607   */\n      mstore\n        /* \"#utility.yul\":16443:16614   */\n      pop\n      jump\t// out\n        /* \"#utility.yul\":16620:16986   */\n    tag_313:\n        /* \"#utility.yul\":16762:16765   */\n      0x00\n        /* \"#utility.yul\":16783:16850   */\n      tag_496\n        /* \"#utility.yul\":16847:16849   */\n      0x15\n        /* \"#utility.yul\":16842:16845   */\n      dup4\n        /* \"#utility.yul\":16783:16850   */\n      tag_299\n      jump\t// in\n    tag_496:\n        /* \"#utility.yul\":16776:16850   */\n      swap2\n      pop\n        /* \"#utility.yul\":16859:16952   */\n      tag_497\n        /* \"#utility.yul\":16948:16951   */\n      dup3\n        /* \"#utility.yul\":16859:16952   */\n      tag_312\n      jump\t// in\n    tag_497:\n        /* \"#utility.yul\":16977:16979   */\n      0x20\n        /* \"#utility.yul\":16972:16975   */\n      dup3\n        /* \"#utility.yul\":16968:16980   */\n      add\n        /* \"#utility.yul\":16961:16980   */\n      swap1\n      pop\n        /* \"#utility.yul\":16620:16986   */\n      swap2\n      swap1\n      pop\n      jump\t// out\n        /* \"#utility.yul\":16992:17411   */\n    tag_171:\n        /* \"#utility.yul\":17158:17162   */\n      0x00\n        /* \"#utility.yul\":17196:17198   */\n      0x20\n        /* \"#utility.yul\":17185:17194   */\n      dup3\n        /* \"#utility.yul\":17181:17199   */\n      add\n        /* \"#utility.yul\":17173:17199   */\n      swap1\n      pop\n        /* \"#utility.yul\":17245:17254   */\n      dup2\n        /* \"#utility.yul\":17239:17243   */\n      dup2\n        /* \"#utility.yul\":17235:17255   */\n      sub\n        /* \"#utility.yul\":17231:17232   */\n      0x00\n        /* \"#utility.yul\":17220:17229   */\n      dup4\n        /* \"#utility.yul\":17216:17233   */\n      add\n        /* \"#utility.yul\":17209:17256   */\n      mstore\n        /* \"#utility.yul\":17273:17404   */\n      tag_499\n        /* \"#utility.yul\":17399:17403   */\n      dup2\n        /* \"#utility.yul\":17273:17404   */\n      tag_313\n      jump\t// in\n    tag_499:\n        /* \"#utility.yul\":17265:17404   */\n      swap1\n      pop\n        /* \"#utility.yul\":16992:17411   */\n      swap2\n      swap1\n      pop\n      jump\t// out\n        /* \"#utility.yul\":17417:17596   */\n    tag_314:\n        /* \"#utility.yul\":17557:17588   */\n      0x596f752063616e6e6f74206a6f696e20796f7572206f776e2067616d65000000\n        /* \"#utility.yul\":17553:17554   */\n      0x00\n        /* \"#utility.yul\":17545:17551   */\n      dup3\n        /* \"#utility.yul\":17541:17555   */\n      add\n        /* \"#utility.yul\":17534:17589   */\n      mstore\n        /* \"#utility.yul\":17417:17596   */\n      pop\n      jump\t// out\n        /* \"#utility.yul\":17602:17968   */\n    tag_315:\n        /* \"#utility.yul\":17744:17747   */\n      0x00\n        /* \"#utility.yul\":17765:17832   */\n      tag_502\n        /* \"#utility.yul\":17829:17831   */\n      0x1d\n        /* \"#utility.yul\":17824:17827   */\n      dup4\n        /* \"#utility.yul\":17765:17832   */\n      tag_299\n      jump\t// in\n    tag_502:\n        /* \"#utility.yul\":17758:17832   */\n      swap2\n      pop\n        /* \"#utility.yul\":17841:17934   */\n      tag_503\n        /* \"#utility.yul\":17930:17933   */\n      dup3\n        /* \"#utility.yul\":17841:17934   */\n      tag_314\n      jump\t// in\n    tag_503:\n        /* \"#utility.yul\":17959:17961   */\n      0x20\n        /* \"#utility.yul\":17954:17957   */\n      dup3\n        /* \"#utility.yul\":17950:17962   */\n      add\n        /* \"#utility.yul\":17943:17962   */\n      swap1\n      pop\n        /* \"#utility.yul\":17602:17968   */\n      swap2\n      swap1\n      pop\n      jump\t// out\n        /* \"#utility.yul\":17974:18393   */\n    tag_176:\n        /* \"#utility.yul\":18140:18144   */\n      0x00\n        /* \"#utility.yul\":18178:18180   */\n      0x20\n        /* \"#utility.yul\":18167:18176   */\n      dup3\n        /* \"#utility.yul\":18163:18181   */\n      add\n        /* \"#utility.yul\":18155:18181   */\n      swap1\n      pop\n        /* \"#utility.yul\":18227:18236   */\n      dup2\n        /* \"#utility.yul\":18221:18225   */\n      dup2\n        /* \"#utility.yul\":18217:18237   */\n      sub\n        /* \"#utility.yul\":18213:18214   */\n      0x00\n        /* \"#utility.yul\":18202:18211   */\n      dup4\n        /* \"#utility.yul\":18198:18215   */\n      add\n        /* \"#utility.yul\":18191:18238   */\n      mstore\n        /* \"#utility.yul\":18255:18386   */\n      tag_505\n        /* \"#utility.yul\":18381:18385   */\n      dup2\n        /* \"#utility.yul\":18255:18386   */\n      tag_315\n      jump\t// in\n    tag_505:\n        /* \"#utility.yul\":18247:18386   */\n      swap1\n      pop\n        /* \"#utility.yul\":17974:18393   */\n      swap2\n      swap1\n      pop\n      jump\t// out\n        /* \"#utility.yul\":18399:18882   */\n    tag_192:\n        /* \"#utility.yul\":18570:18574   */\n      0x00\n        /* \"#utility.yul\":18608:18610   */\n      0x40\n        /* \"#utility.yul\":18597:18606   */\n      dup3\n        /* \"#utility.yul\":18593:18611   */\n      add\n        /* \"#utility.yul\":18585:18611   */\n      swap1\n      pop\n        /* \"#utility.yul\":18621:18692   */\n      tag_507\n        /* \"#utility.yul\":18689:18690   */\n      0x00\n        /* \"#utility.yul\":18678:18687   */\n      dup4\n        /* \"#utility.yul\":18674:18691   */\n      add\n        /* \"#utility.yul\":18665:18671   */\n      dup6\n        /* \"#utility.yul\":18621:18692   */\n      tag_276\n      jump\t// in\n    tag_507:\n        /* \"#utility.yul\":18739:18748   */\n      dup2\n        /* \"#utility.yul\":18733:18737   */\n      dup2\n        /* \"#utility.yul\":18729:18749   */\n      sub\n        /* \"#utility.yul\":18724:18726   */\n      0x20\n        /* \"#utility.yul\":18713:18722   */\n      dup4\n        /* \"#utility.yul\":18709:18727   */\n      add\n        /* \"#utility.yul\":18702:18750   */\n      mstore\n        /* \"#utility.yul\":18767:18875   */\n      tag_508\n        /* \"#utility.yul\":18870:18874   */\n      dup2\n        /* \"#utility.yul\":18861:18867   */\n      dup5\n        /* \"#utility.yul\":18767:18875   */\n      tag_293\n      jump\t// in\n    tag_508:\n        /* \"#utility.yul\":18759:18875   */\n      swap1\n      pop\n        /* \"#utility.yul\":18399:18882   */\n      swap4\n      swap3\n      pop\n      pop\n      pop\n      jump\t// out\n        /* \"#utility.yul\":18888:19060   */\n    tag_316:\n        /* \"#utility.yul\":19028:19052   */\n      0x4f6e6c792063616c6c61626c65206279206f776e657200000000000000000000\n        /* \"#utility.yul\":19024:19025   */\n      0x00\n        /* \"#utility.yul\":19016:19022   */\n      dup3\n        /* \"#utility.yul\":19012:19026   */\n      add\n        /* \"#utility.yul\":19005:19053   */\n      mstore\n        /* \"#utility.yul\":18888:19060   */\n      pop\n      jump\t// out\n        /* \"#utility.yul\":19066:19432   */\n    tag_317:\n        /* \"#utility.yul\":19208:19211   */\n      0x00\n        /* \"#utility.yul\":19229:19296   */\n      tag_511\n        /* \"#utility.yul\":19293:19295   */\n      0x16\n        /* \"#utility.yul\":19288:19291   */\n      dup4\n        /* \"#utility.yul\":19229:19296   */\n      tag_299\n      jump\t// in\n    tag_511:\n        /* \"#utility.yul\":19222:19296   */\n      swap2\n      pop\n        /* \"#utility.yul\":19305:19398   */\n      tag_512\n        /* \"#utility.yul\":19394:19397   */\n      dup3\n        /* \"#utility.yul\":19305:19398   */\n      tag_316\n      jump\t// in\n    tag_512:\n        /* \"#utility.yul\":19423:19425   */\n      0x20\n        /* \"#utility.yul\":19418:19421   */\n      dup3\n        /* \"#utility.yul\":19414:19426   */\n      add\n        /* \"#utility.yul\":19407:19426   */\n      swap1\n      pop\n        /* \"#utility.yul\":19066:19432   */\n      swap2\n      swap1\n      pop\n      jump\t// out\n        /* \"#utility.yul\":19438:19857   */\n    tag_196:\n        /* \"#utility.yul\":19604:19608   */\n      0x00\n        /* \"#utility.yul\":19642:19644   */\n      0x20\n        /* \"#utility.yul\":19631:19640   */\n      dup3\n        /* \"#utility.yul\":19627:19645   */\n      add\n        /* \"#utility.yul\":19619:19645   */\n      swap1\n      pop\n        /* \"#utility.yul\":19691:19700   */\n      dup2\n        /* \"#utility.yul\":19685:19689   */\n      dup2\n        /* \"#utility.yul\":19681:19701   */\n      sub\n        /* \"#utility.yul\":19677:19678   */\n      0x00\n        /* \"#utility.yul\":19666:19675   */\n      dup4\n        /* \"#utility.yul\":19662:19679   */\n      add\n        /* \"#utility.yul\":19655:19702   */\n      mstore\n        /* \"#utility.yul\":19719:19850   */\n      tag_514\n        /* \"#utility.yul\":19845:19849   */\n      dup2\n        /* \"#utility.yul\":19719:19850   */\n      tag_317\n      jump\t// in\n    tag_514:\n        /* \"#utility.yul\":19711:19850   */\n      swap1\n      pop\n        /* \"#utility.yul\":19438:19857   */\n      swap2\n      swap1\n      pop\n      jump\t// out\n        /* \"#utility.yul\":19863:20043   */\n    tag_203:\n        /* \"#utility.yul\":19911:19988   */\n      0x4e487b7100000000000000000000000000000000000000000000000000000000\n        /* \"#utility.yul\":19908:19909   */\n      0x00\n        /* \"#utility.yul\":19901:19989   */\n      mstore\n        /* \"#utility.yul\":20008:20012   */\n      0x32\n        /* \"#utility.yul\":20005:20006   */\n      0x04\n        /* \"#utility.yul\":19998:20013   */\n      mstore\n        /* \"#utility.yul\":20032:20036   */\n      0x24\n        /* \"#utility.yul\":20029:20030   */\n      0x00\n        /* \"#utility.yul\":20022:20037   */\n      revert\n        /* \"#utility.yul\":20049:20229   */\n    tag_318:\n        /* \"#utility.yul\":20097:20174   */\n      0x4e487b7100000000000000000000000000000000000000000000000000000000\n        /* \"#utility.yul\":20094:20095   */\n      0x00\n        /* \"#utility.yul\":20087:20175   */\n      mstore\n        /* \"#utility.yul\":20194:20198   */\n      0x11\n        /* \"#utility.yul\":20191:20192   */\n      0x04\n        /* \"#utility.yul\":20184:20199   */\n      mstore\n        /* \"#utility.yul\":20218:20222   */\n      0x24\n        /* \"#utility.yul\":20215:20216   */\n      0x00\n        /* \"#utility.yul\":20208:20223   */\n      revert\n        /* \"#utility.yul\":20235:20429   */\n    tag_207:\n        /* \"#utility.yul\":20275:20279   */\n      0x00\n        /* \"#utility.yul\":20295:20315   */\n      tag_518\n        /* \"#utility.yul\":20313:20314   */\n      dup3\n        /* \"#utility.yul\":20295:20315   */\n      tag_270\n      jump\t// in\n    tag_518:\n        /* \"#utility.yul\":20290:20315   */\n      swap2\n      pop\n        /* \"#utility.yul\":20329:20349   */\n      tag_519\n        /* \"#utility.yul\":20347:20348   */\n      dup4\n        /* \"#utility.yul\":20329:20349   */\n      tag_270\n      jump\t// in\n    tag_519:\n        /* \"#utility.yul\":20324:20349   */\n      swap3\n      pop\n        /* \"#utility.yul\":20373:20374   */\n      dup3\n        /* \"#utility.yul\":20370:20371   */\n      dup3\n        /* \"#utility.yul\":20366:20375   */\n      sub\n        /* \"#utility.yul\":20358:20375   */\n      swap1\n      pop\n        /* \"#utility.yul\":20397:20398   */\n      dup2\n        /* \"#utility.yul\":20391:20395   */\n      dup2\n        /* \"#utility.yul\":20388:20399   */\n      gt\n        /* \"#utility.yul\":20385:20422   */\n      iszero\n      tag_520\n      jumpi\n        /* \"#utility.yul\":20402:20420   */\n      tag_521\n      tag_318\n      jump\t// in\n    tag_521:\n        /* \"#utility.yul\":20385:20422   */\n    tag_520:\n        /* \"#utility.yul\":20235:20429   */\n      swap3\n      swap2\n      pop\n      pop\n      jump\t// out\n        /* \"#utility.yul\":20435:20615   */\n    tag_216:\n        /* \"#utility.yul\":20483:20560   */\n      0x4e487b7100000000000000000000000000000000000000000000000000000000\n        /* \"#utility.yul\":20480:20481   */\n      0x00\n        /* \"#utility.yul\":20473:20561   */\n      mstore\n        /* \"#utility.yul\":20580:20584   */\n      0x31\n        /* \"#utility.yul\":20577:20578   */\n      0x04\n        /* \"#utility.yul\":20570:20585   */\n      mstore\n        /* \"#utility.yul\":20604:20608   */\n      0x24\n        /* \"#utility.yul\":20601:20602   */\n      0x00\n        /* \"#utility.yul\":20594:20609   */\n      revert\n        /* \"#utility.yul\":20621:20854   */\n    tag_220:\n        /* \"#utility.yul\":20660:20663   */\n      0x00\n        /* \"#utility.yul\":20683:20707   */\n      tag_524\n        /* \"#utility.yul\":20701:20706   */\n      dup3\n        /* \"#utility.yul\":20683:20707   */\n      tag_270\n      jump\t// in\n    tag_524:\n        /* \"#utility.yul\":20674:20707   */\n      swap2\n      pop\n        /* \"#utility.yul\":20729:20795   */\n      0xffffffffffffffffffffffffffffffffffffffffffffffffffffffffffffffff\n        /* \"#utility.yul\":20722:20727   */\n      dup3\n        /* \"#utility.yul\":20719:20796   */\n      sub\n        /* \"#utility.yul\":20716:20819   */\n      tag_525\n      jumpi\n        /* \"#utility.yul\":20799:20817   */\n      tag_526\n      tag_318\n      jump\t// in\n    tag_526:\n        /* \"#utility.yul\":20716:20819   */\n    tag_525:\n        /* \"#utility.yul\":20846:20847   */\n      0x01\n        /* \"#utility.yul\":20839:20844   */\n      dup3\n        /* \"#utility.yul\":20835:20848   */\n      add\n        /* \"#utility.yul\":20828:20848   */\n      swap1\n      pop\n        /* \"#utility.yul\":20621:20854   */\n      swap2\n      swap1\n      pop\n      jump\t// out\n        /* \"#utility.yul\":20860:20939   */\n    tag_319:\n        /* \"#utility.yul\":20899:20906   */\n      0x00\n        /* \"#utility.yul\":20928:20933   */\n      dup2\n        /* \"#utility.yul\":20917:20933   */\n      swap1\n      pop\n        /* \"#utility.yul\":20860:20939   */\n      swap2\n      swap1\n      pop\n      jump\t// out\n        /* \"#utility.yul\":20945:21102   */\n    tag_320:\n        /* \"#utility.yul\":21050:21095   */\n      tag_529\n        /* \"#utility.yul\":21070:21094   */\n      tag_530\n        /* \"#utility.yul\":21088:21093   */\n      dup3\n        /* \"#utility.yul\":21070:21094   */\n      tag_270\n      jump\t// in\n    tag_530:\n        /* \"#utility.yul\":21050:21095   */\n      tag_319\n      jump\t// in\n    tag_529:\n        /* \"#utility.yul\":21045:21048   */\n      dup3\n        /* \"#utility.yul\":21038:21096   */\n      mstore\n        /* \"#utility.yul\":20945:21102   */\n      pop\n      pop\n      jump\t// out\n        /* \"#utility.yul\":21108:21202   */\n    tag_321:\n        /* \"#utility.yul\":21141:21149   */\n      0x00\n        /* \"#utility.yul\":21189:21194   */\n      dup2\n        /* \"#utility.yul\":21185:21187   */\n      0x60\n        /* \"#utility.yul\":21181:21195   */\n      shl\n        /* \"#utility.yul\":21160:21195   */\n      swap1\n      pop\n        /* \"#utility.yul\":21108:21202   */\n      swap2\n      swap1\n      pop\n      jump\t// out\n        /* \"#utility.yul\":21208:21302   */\n    tag_322:\n        /* \"#utility.yul\":21247:21254   */\n      0x00\n        /* \"#utility.yul\":21276:21296   */\n      tag_533\n        /* \"#utility.yul\":21290:21295   */\n      dup3\n        /* \"#utility.yul\":21276:21296   */\n      tag_321\n      jump\t// in\n    tag_533:\n        /* \"#utility.yul\":21265:21296   */\n      swap1\n      pop\n        /* \"#utility.yul\":21208:21302   */\n      swap2\n      swap1\n      pop\n      jump\t// out\n        /* \"#utility.yul\":21308:21408   */\n    tag_323:\n        /* \"#utility.yul\":21347:21354   */\n      0x00\n        /* \"#utility.yul\":21376:21402   */\n      tag_535\n        /* \"#utility.yul\":21396:21401   */\n      dup3\n        /* \"#utility.yul\":21376:21402   */\n      tag_322\n      jump\t// in\n    tag_535:\n        /* \"#utility.yul\":21365:21402   */\n      swap1\n      pop\n        /* \"#utility.yul\":21308:21408   */\n      swap2\n      swap1\n      pop\n      jump\t// out\n        /* \"#utility.yul\":21414:21571   */\n    tag_324:\n        /* \"#utility.yul\":21519:21564   */\n      tag_537\n        /* \"#utility.yul\":21539:21563   */\n      tag_538\n        /* \"#utility.yul\":21557:21562   */\n      dup3\n        /* \"#utility.yul\":21539:21563   */\n      tag_274\n      jump\t// in\n    tag_538:\n        /* \"#utility.yul\":21519:21564   */\n      tag_323\n      jump\t// in\n    tag_537:\n        /* \"#utility.yul\":21514:21517   */\n      dup3\n        /* \"#utility.yul\":21507:21565   */\n      mstore\n        /* \"#utility.yul\":21414:21571   */\n      pop\n      pop\n      jump\t// out\n        /* \"#utility.yul\":21577:22115   */\n    tag_222:\n        /* \"#utility.yul\":21745:21748   */\n      0x00\n        /* \"#utility.yul\":21760:21835   */\n      tag_540\n        /* \"#utility.yul\":21831:21834   */\n      dup3\n        /* \"#utility.yul\":21822:21828   */\n      dup7\n        /* \"#utility.yul\":21760:21835   */\n      tag_320\n      jump\t// in\n    tag_540:\n        /* \"#utility.yul\":21860:21862   */\n      0x20\n        /* \"#utility.yul\":21855:21858   */\n      dup3\n        /* \"#utility.yul\":21851:21863   */\n      add\n        /* \"#utility.yul\":21844:21863   */\n      swap2\n      pop\n        /* \"#utility.yul\":21873:21948   */\n      tag_541\n        /* \"#utility.yul\":21944:21947   */\n      dup3\n        /* \"#utility.yul\":21935:21941   */\n      dup6\n        /* \"#utility.yul\":21873:21948   */\n      tag_324\n      jump\t// in\n    tag_541:\n        /* \"#utility.yul\":21973:21975   */\n      0x14\n        /* \"#utility.yul\":21968:21971   */\n      dup3\n        /* \"#utility.yul\":21964:21976   */\n      add\n        /* \"#utility.yul\":21957:21976   */\n      swap2\n      pop\n        /* \"#utility.yul\":21986:22061   */\n      tag_542\n        /* \"#utility.yul\":22057:22060   */\n      dup3\n        /* \"#utility.yul\":22048:22054   */\n      dup5\n        /* \"#utility.yul\":21986:22061   */\n      tag_320\n      jump\t// in\n    tag_542:\n        /* \"#utility.yul\":22086:22088   */\n      0x20\n        /* \"#utility.yul\":22081:22084   */\n      dup3\n        /* \"#utility.yul\":22077:22089   */\n      add\n        /* \"#utility.yul\":22070:22089   */\n      swap2\n      pop\n        /* \"#utility.yul\":22106:22109   */\n      dup2\n        /* \"#utility.yul\":22099:22109   */\n      swap1\n      pop\n        /* \"#utility.yul\":21577:22115   */\n      swap5\n      swap4\n      pop\n      pop\n      pop\n      pop\n      jump\t// out\n        /* \"#utility.yul\":22121:22198   */\n    tag_325:\n        /* \"#utility.yul\":22158:22165   */\n      0x00\n        /* \"#utility.yul\":22187:22192   */\n      dup2\n        /* \"#utility.yul\":22176:22192   */\n      swap1\n      pop\n        /* \"#utility.yul\":22121:22198   */\n      swap2\n      swap1\n      pop\n      jump\t// out\n        /* \"#utility.yul\":22204:22322   */\n    tag_326:\n        /* \"#utility.yul\":22291:22315   */\n      tag_545\n        /* \"#utility.yul\":22309:22314   */\n      dup2\n        /* \"#utility.yul\":22291:22315   */\n      tag_325\n      jump\t// in\n    tag_545:\n        /* \"#utility.yul\":22286:22289   */\n      dup3\n        /* \"#utility.yul\":22279:22316   */\n      mstore\n        /* \"#utility.yul\":22204:22322   */\n      pop\n      pop\n      jump\t// out\n        /* \"#utility.yul\":22328:22429   */\n    tag_327:\n        /* \"#utility.yul\":22364:22371   */\n      0x00\n        /* \"#utility.yul\":22404:22422   */\n      0xffffffffffffffff\n        /* \"#utility.yul\":22397:22402   */\n      dup3\n        /* \"#utility.yul\":22393:22423   */\n      and\n        /* \"#utility.yul\":22382:22423   */\n      swap1\n      pop\n        /* \"#utility.yul\":22328:22429   */\n      swap2\n      swap1\n      pop\n      jump\t// out\n        /* \"#utility.yul\":22435:22550   */\n    tag_328:\n        /* \"#utility.yul\":22520:22543   */\n      tag_548\n        /* \"#utility.yul\":22537:22542   */\n      dup2\n        /* \"#utility.yul\":22520:22543   */\n      tag_327\n      jump\t// in\n    tag_548:\n        /* \"#utility.yul\":22515:22518   */\n      dup3\n        /* \"#utility.yul\":22508:22544   */\n      mstore\n        /* \"#utility.yul\":22435:22550   */\n      pop\n      pop\n      jump\t// out\n        /* \"#utility.yul\":22556:22645   */\n    tag_329:\n        /* \"#utility.yul\":22592:22599   */\n      0x00\n        /* \"#utility.yul\":22632:22638   */\n      0xffff\n        /* \"#utility.yul\":22625:22630   */\n      dup3\n        /* \"#utility.yul\":22621:22639   */\n      and\n        /* \"#utility.yul\":22610:22639   */\n      swap1\n      pop\n        /* \"#utility.yul\":22556:22645   */\n      swap2\n      swap1\n      pop\n      jump\t// out\n        /* \"#utility.yul\":22651:22766   */\n    tag_330:\n        /* \"#utility.yul\":22736:22759   */\n      tag_551\n        /* \"#utility.yul\":22753:22758   */\n      dup2\n        /* \"#utility.yul\":22736:22759   */\n      tag_329\n      jump\t// in\n    tag_551:\n        /* \"#utility.yul\":22731:22734   */\n      dup3\n        /* \"#utility.yul\":22724:22760   */\n      mstore\n        /* \"#utility.yul\":22651:22766   */\n      pop\n      pop\n      jump\t// out\n        /* \"#utility.yul\":22772:22887   */\n    tag_331:\n        /* \"#utility.yul\":22857:22880   */\n      tag_553\n        /* \"#utility.yul\":22874:22879   */\n      dup2\n        /* \"#utility.yul\":22857:22880   */\n      tag_294\n      jump\t// in\n    tag_553:\n        /* \"#utility.yul\":22852:22855   */\n      dup3\n        /* \"#utility.yul\":22845:22881   */\n      mstore\n        /* \"#utility.yul\":22772:22887   */\n      pop\n      pop\n      jump\t// out\n        /* \"#utility.yul\":22893:23541   */\n    tag_225:\n        /* \"#utility.yul\":23090:23094   */\n      0x00\n        /* \"#utility.yul\":23128:23131   */\n      0xa0\n        /* \"#utility.yul\":23117:23126   */\n      dup3\n        /* \"#utility.yul\":23113:23132   */\n      add\n        /* \"#utility.yul\":23105:23132   */\n      swap1\n      pop\n        /* \"#utility.yul\":23142:23213   */\n      tag_555\n        /* \"#utility.yul\":23210:23211   */\n      0x00\n        /* \"#utility.yul\":23199:23208   */\n      dup4\n        /* \"#utility.yul\":23195:23212   */\n      add\n        /* \"#utility.yul\":23186:23192   */\n      dup9\n        /* \"#utility.yul\":23142:23213   */\n      tag_326\n      jump\t// in\n    tag_555:\n        /* \"#utility.yul\":23223:23293   */\n      tag_556\n        /* \"#utility.yul\":23289:23291   */\n      0x20\n        /* \"#utility.yul\":23278:23287   */\n      dup4\n        /* \"#utility.yul\":23274:23292   */\n      add\n        /* \"#utility.yul\":23265:23271   */\n      dup8\n        /* \"#utility.yul\":23223:23293   */\n      tag_328\n      jump\t// in\n    tag_556:\n        /* \"#utility.yul\":23303:23373   */\n      tag_557\n        /* \"#utility.yul\":23369:23371   */\n      0x40\n        /* \"#utility.yul\":23358:23367   */\n      dup4\n        /* \"#utility.yul\":23354:23372   */\n      add\n        /* \"#utility.yul\":23345:23351   */\n      dup7\n        /* \"#utility.yul\":23303:23373   */\n      tag_330\n      jump\t// in\n    tag_557:\n        /* \"#utility.yul\":23383:23453   */\n      tag_558\n        /* \"#utility.yul\":23449:23451   */\n      0x60\n        /* \"#utility.yul\":23438:23447   */\n      dup4\n        /* \"#utility.yul\":23434:23452   */\n      add\n        /* \"#utility.yul\":23425:23431   */\n      dup6\n        /* \"#utility.yul\":23383:23453   */\n      tag_331\n      jump\t// in\n    tag_558:\n        /* \"#utility.yul\":23463:23534   */\n      tag_559\n        /* \"#utility.yul\":23529:23532   */\n      0x80\n        /* \"#utility.yul\":23518:23527   */\n      dup4\n        /* \"#utility.yul\":23514:23533   */\n      add\n        /* \"#utility.yul\":23505:23511   */\n      dup5\n        /* \"#utility.yul\":23463:23534   */\n      tag_331\n      jump\t// in\n    tag_559:\n        /* \"#utility.yul\":22893:23541   */\n      swap7\n      swap6\n      pop\n      pop\n      pop\n      pop\n      pop\n      pop\n      jump\t// out\n        /* \"#utility.yul\":23547:23690   */\n    tag_332:\n        /* \"#utility.yul\":23604:23609   */\n      0x00\n        /* \"#utility.yul\":23635:23641   */\n      dup2\n        /* \"#utility.yul\":23629:23642   */\n      mload\n        /* \"#utility.yul\":23620:23642   */\n      swap1\n      pop\n        /* \"#utility.yul\":23651:23684   */\n      tag_561\n        /* \"#utility.yul\":23678:23683   */\n      dup2\n        /* \"#utility.yul\":23651:23684   */\n      tag_271\n      jump\t// in\n    tag_561:\n        /* \"#utility.yul\":23547:23690   */\n      swap3\n      swap2\n      pop\n      pop\n      jump\t// out\n        /* \"#utility.yul\":23696:24047   */\n    tag_229:\n        /* \"#utility.yul\":23766:23772   */\n      0x00\n        /* \"#utility.yul\":23815:23817   */\n      0x20\n        /* \"#utility.yul\":23803:23812   */\n      dup3\n        /* \"#utility.yul\":23794:23801   */\n      dup5\n        /* \"#utility.yul\":23790:23813   */\n      sub\n        /* \"#utility.yul\":23786:23818   */\n      slt\n        /* \"#utility.yul\":23783:23902   */\n      iszero\n      tag_563\n      jumpi\n        /* \"#utility.yul\":23821:23900   */\n      tag_564\n      tag_268\n      jump\t// in\n    tag_564:\n        /* \"#utility.yul\":23783:23902   */\n    tag_563:\n        /* \"#utility.yul\":23941:23942   */\n      0x00\n        /* \"#utility.yul\":23966:24030   */\n      tag_565\n        /* \"#utility.yul\":24022:24029   */\n      dup5\n        /* \"#utility.yul\":24013:24019   */\n      dup3\n        /* \"#utility.yul\":24002:24011   */\n      dup6\n        /* \"#utility.yul\":23998:24020   */\n      add\n        /* \"#utility.yul\":23966:24030   */\n      tag_332\n      jump\t// in\n    tag_565:\n        /* \"#utility.yul\":23956:24030   */\n      swap2\n      pop\n        /* \"#utility.yul\":23912:24040   */\n      pop\n        /* \"#utility.yul\":23696:24047   */\n      swap3\n      swap2\n      pop\n      pop\n      jump\t// out\n        /* \"#utility.yul\":24053:24381   */\n    tag_237:\n        /* \"#utility.yul\":24172:24176   */\n      0x00\n        /* \"#utility.yul\":24210:24212   */\n      0x40\n        /* \"#utility.yul\":24199:24208   */\n      dup3\n        /* \"#utility.yul\":24195:24213   */\n      add\n        /* \"#utility.yul\":24187:24213   */\n      swap1\n      pop\n        /* \"#utility.yul\":24223:24294   */\n      tag_567\n        /* \"#utility.yul\":24291:24292   */\n      0x00\n        /* \"#utility.yul\":24280:24289   */\n      dup4\n        /* \"#utility.yul\":24276:24293   */\n      add\n        /* \"#utility.yul\":24267:24273   */\n      dup6\n        /* \"#utility.yul\":24223:24294   */\n      tag_276\n      jump\t// in\n    tag_567:\n        /* \"#utility.yul\":24304:24374   */\n      tag_568\n        /* \"#utility.yul\":24370:24372   */\n      0x20\n        /* \"#utility.yul\":24359:24368   */\n      dup4\n        /* \"#utility.yul\":24355:24373   */\n      add\n        /* \"#utility.yul\":24346:24352   */\n      dup5\n        /* \"#utility.yul\":24304:24374   */\n      tag_331\n      jump\t// in\n    tag_568:\n        /* \"#utility.yul\":24053:24381   */\n      swap4\n      swap3\n      pop\n      pop\n      pop\n      jump\t// out\n        /* \"#utility.yul\":24387:24560   */\n    tag_333:\n        /* \"#utility.yul\":24527:24552   */\n      0x43616e6e6f74207472616e7366657220746f2073656c66000000000000000000\n        /* \"#utility.yul\":24523:24524   */\n      0x00\n        /* \"#utility.yul\":24515:24521   */\n      dup3\n        /* \"#utility.yul\":24511:24525   */\n      add\n        /* \"#utility.yul\":24504:24553   */\n      mstore\n        /* \"#utility.yul\":24387:24560   */\n      pop\n      jump\t// out\n        /* \"#utility.yul\":24566:24932   */\n    tag_334:\n        /* \"#utility.yul\":24708:24711   */\n      0x00\n        /* \"#utility.yul\":24729:24796   */\n      tag_571\n        /* \"#utility.yul\":24793:24795   */\n      0x17\n        /* \"#utility.yul\":24788:24791   */\n      dup4\n        /* \"#utility.yul\":24729:24796   */\n      tag_299\n      jump\t// in\n    tag_571:\n        /* \"#utility.yul\":24722:24796   */\n      swap2\n      pop\n        /* \"#utility.yul\":24805:24898   */\n      tag_572\n        /* \"#utility.yul\":24894:24897   */\n      dup3\n        /* \"#utility.yul\":24805:24898   */\n      tag_333\n      jump\t// in\n    tag_572:\n        /* \"#utility.yul\":24923:24925   */\n      0x20\n        /* \"#utility.yul\":24918:24921   */\n      dup3\n        /* \"#utility.yul\":24914:24926   */\n      add\n        /* \"#utility.yul\":24907:24926   */\n      swap1\n      pop\n        /* \"#utility.yul\":24566:24932   */\n      swap2\n      swap1\n      pop\n      jump\t// out\n        /* \"#utility.yul\":24938:25357   */\n    tag_241:\n        /* \"#utility.yul\":25104:25108   */\n      0x00\n        /* \"#utility.yul\":25142:25144   */\n      0x20\n        /* \"#utility.yul\":25131:25140   */\n      dup3\n        /* \"#utility.yul\":25127:25145   */\n      add\n        /* \"#utility.yul\":25119:25145   */\n      swap1\n      pop\n        /* \"#utility.yul\":25191:25200   */\n      dup2\n        /* \"#utility.yul\":25185:25189   */\n      dup2\n        /* \"#utility.yul\":25181:25201   */\n      sub\n        /* \"#utility.yul\":25177:25178   */\n      0x00\n        /* \"#utility.yul\":25166:25175   */\n      dup4\n        /* \"#utility.yul\":25162:25179   */\n      add\n        /* \"#utility.yul\":25155:25202   */\n      mstore\n        /* \"#utility.yul\":25219:25350   */\n      tag_574\n        /* \"#utility.yul\":25345:25349   */\n      dup2\n        /* \"#utility.yul\":25219:25350   */\n      tag_334\n      jump\t// in\n    tag_574:\n        /* \"#utility.yul\":25211:25350   */\n      swap1\n      pop\n        /* \"#utility.yul\":24938:25357   */\n      swap2\n      swap1\n      pop\n      jump\t// out\n        /* \"#utility.yul\":25363:25538   */\n    tag_335:\n        /* \"#utility.yul\":25503:25530   */\n      0x47616d6520697320616c726561647920636f6d706c6574656400000000000000\n        /* \"#utility.yul\":25499:25500   */\n      0x00\n        /* \"#utility.yul\":25491:25497   */\n      dup3\n        /* \"#utility.yul\":25487:25501   */\n      add\n        /* \"#utility.yul\":25480:25531   */\n      mstore\n        /* \"#utility.yul\":25363:25538   */\n      pop\n      jump\t// out\n        /* \"#utility.yul\":25544:25910   */\n    tag_336:\n        /* \"#utility.yul\":25686:25689   */\n      0x00\n        /* \"#utility.yul\":25707:25774   */\n      tag_577\n        /* \"#utility.yul\":25771:25773   */\n      0x19\n        /* \"#utility.yul\":25766:25769   */\n      dup4\n        /* \"#utility.yul\":25707:25774   */\n      tag_299\n      jump\t// in\n    tag_577:\n        /* \"#utility.yul\":25700:25774   */\n      swap2\n      pop\n        /* \"#utility.yul\":25783:25876   */\n      tag_578\n        /* \"#utility.yul\":25872:25875   */\n      dup3\n        /* \"#utility.yul\":25783:25876   */\n      tag_335\n      jump\t// in\n    tag_578:\n        /* \"#utility.yul\":25901:25903   */\n      0x20\n        /* \"#utility.yul\":25896:25899   */\n      dup3\n        /* \"#utility.yul\":25892:25904   */\n      add\n        /* \"#utility.yul\":25885:25904   */\n      swap1\n      pop\n        /* \"#utility.yul\":25544:25910   */\n      swap2\n      swap1\n      pop\n      jump\t// out\n        /* \"#utility.yul\":25916:26335   */\n    tag_245:\n        /* \"#utility.yul\":26082:26086   */\n      0x00\n        /* \"#utility.yul\":26120:26122   */\n      0x20\n        /* \"#utility.yul\":26109:26118   */\n      dup3\n        /* \"#utility.yul\":26105:26123   */\n      add\n        /* \"#utility.yul\":26097:26123   */\n      swap1\n      pop\n        /* \"#utility.yul\":26169:26178   */\n      dup2\n        /* \"#utility.yul\":26163:26167   */\n      dup2\n        /* \"#utility.yul\":26159:26179   */\n      sub\n        /* \"#utility.yul\":26155:26156   */\n      0x00\n        /* \"#utility.yul\":26144:26153   */\n      dup4\n        /* \"#utility.yul\":26140:26157   */\n      add\n        /* \"#utility.yul\":26133:26180   */\n      mstore\n        /* \"#utility.yul\":26197:26328   */\n      tag_580\n        /* \"#utility.yul\":26323:26327   */\n      dup2\n        /* \"#utility.yul\":26197:26328   */\n      tag_336\n      jump\t// in\n    tag_580:\n        /* \"#utility.yul\":26189:26328   */\n      swap1\n      pop\n        /* \"#utility.yul\":25916:26335   */\n      swap2\n      swap1\n      pop\n      jump\t// out\n        /* \"#utility.yul\":26341:26504   */\n    tag_337:\n        /* \"#utility.yul\":26458:26469   */\n      0x00\n        /* \"#utility.yul\":26495:26498   */\n      dup2\n        /* \"#utility.yul\":26480:26498   */\n      swap1\n      pop\n        /* \"#utility.yul\":26341:26504   */\n      swap3\n      swap2\n      pop\n      pop\n      jump\t// out\n        /* \"#utility.yul\":26510:26626   */\n    tag_338:\n        /* \"#utility.yul\":26595:26619   */\n      tag_583\n        /* \"#utility.yul\":26613:26618   */\n      dup2\n        /* \"#utility.yul\":26595:26619   */\n      tag_270\n      jump\t// in\n    tag_583:\n        /* \"#utility.yul\":26590:26593   */\n      dup3\n        /* \"#utility.yul\":26583:26620   */\n      mstore\n        /* \"#utility.yul\":26510:26626   */\n      pop\n      pop\n      jump\t// out\n        /* \"#utility.yul\":26632:26827   */\n    tag_339:\n        /* \"#utility.yul\":26709:26719   */\n      0x00\n        /* \"#utility.yul\":26730:26784   */\n      tag_585\n        /* \"#utility.yul\":26780:26783   */\n      dup4\n        /* \"#utility.yul\":26772:26778   */\n      dup4\n        /* \"#utility.yul\":26730:26784   */\n      tag_338\n      jump\t// in\n    tag_585:\n        /* \"#utility.yul\":26816:26820   */\n      0x20\n        /* \"#utility.yul\":26811:26814   */\n      dup4\n        /* \"#utility.yul\":26807:26821   */\n      add\n        /* \"#utility.yul\":26793:26821   */\n      swap1\n      pop\n        /* \"#utility.yul\":26632:26827   */\n      swap3\n      swap2\n      pop\n      pop\n      jump\t// out\n        /* \"#utility.yul\":26863:27639   */\n    tag_340:\n        /* \"#utility.yul\":27000:27003   */\n      0x00\n        /* \"#utility.yul\":27029:27083   */\n      tag_587\n        /* \"#utility.yul\":27077:27082   */\n      dup3\n        /* \"#utility.yul\":27029:27083   */\n      tag_287\n      jump\t// in\n    tag_587:\n        /* \"#utility.yul\":27099:27203   */\n      tag_588\n        /* \"#utility.yul\":27196:27202   */\n      dup2\n        /* \"#utility.yul\":27191:27194   */\n      dup6\n        /* \"#utility.yul\":27099:27203   */\n      tag_337\n      jump\t// in\n    tag_588:\n        /* \"#utility.yul\":27092:27203   */\n      swap4\n      pop\n        /* \"#utility.yul\":27227:27283   */\n      tag_589\n        /* \"#utility.yul\":27277:27282   */\n      dup4\n        /* \"#utility.yul\":27227:27283   */\n      tag_289\n      jump\t// in\n    tag_589:\n        /* \"#utility.yul\":27306:27313   */\n      dup1\n        /* \"#utility.yul\":27337:27338   */\n      0x00\n        /* \"#utility.yul\":27322:27614   */\n    tag_590:\n        /* \"#utility.yul\":27347:27353   */\n      dup4\n        /* \"#utility.yul\":27344:27345   */\n      dup2\n        /* \"#utility.yul\":27341:27354   */\n      lt\n        /* \"#utility.yul\":27322:27614   */\n      iszero\n      tag_592\n      jumpi\n        /* \"#utility.yul\":27423:27429   */\n      dup2\n        /* \"#utility.yul\":27417:27430   */\n      mload\n        /* \"#utility.yul\":27450:27521   */\n      tag_593\n        /* \"#utility.yul\":27517:27520   */\n      dup9\n        /* \"#utility.yul\":27502:27515   */\n      dup3\n        /* \"#utility.yul\":27450:27521   */\n      tag_339\n      jump\t// in\n    tag_593:\n        /* \"#utility.yul\":27443:27521   */\n      swap8\n      pop\n        /* \"#utility.yul\":27544:27604   */\n      tag_594\n        /* \"#utility.yul\":27597:27603   */\n      dup4\n        /* \"#utility.yul\":27544:27604   */\n      tag_292\n      jump\t// in\n    tag_594:\n        /* \"#utility.yul\":27534:27604   */\n      swap3\n      pop\n        /* \"#utility.yul\":27382:27614   */\n      pop\n        /* \"#utility.yul\":27369:27370   */\n      0x01\n        /* \"#utility.yul\":27366:27367   */\n      dup2\n        /* \"#utility.yul\":27362:27371   */\n      add\n        /* \"#utility.yul\":27357:27371   */\n      swap1\n      pop\n        /* \"#utility.yul\":27322:27614   */\n      jump(tag_590)\n    tag_592:\n        /* \"#utility.yul\":27326:27340   */\n      pop\n        /* \"#utility.yul\":27630:27633   */\n      dup6\n        /* \"#utility.yul\":27623:27633   */\n      swap4\n      pop\n        /* \"#utility.yul\":27005:27639   */\n      pop\n      pop\n      pop\n        /* \"#utility.yul\":26863:27639   */\n      swap3\n      swap2\n      pop\n      pop\n      jump\t// out\n        /* \"#utility.yul\":27645:27980   */\n    tag_247:\n        /* \"#utility.yul\":27807:27810   */\n      0x00\n        /* \"#utility.yul\":27829:27954   */\n      tag_596\n        /* \"#utility.yul\":27950:27953   */\n      dup3\n        /* \"#utility.yul\":27941:27947   */\n      dup5\n        /* \"#utility.yul\":27829:27954   */\n      tag_340\n      jump\t// in\n    tag_596:\n        /* \"#utility.yul\":27822:27954   */\n      swap2\n      pop\n        /* \"#utility.yul\":27971:27974   */\n      dup2\n        /* \"#utility.yul\":27964:27974   */\n      swap1\n      pop\n        /* \"#utility.yul\":27645:27980   */\n      swap3\n      swap2\n      pop\n      pop\n      jump\t// out\n        /* \"#utility.yul\":27986:28166   */\n    tag_341:\n        /* \"#utility.yul\":28034:28111   */\n      0x4e487b7100000000000000000000000000000000000000000000000000000000\n        /* \"#utility.yul\":28031:28032   */\n      0x00\n        /* \"#utility.yul\":28024:28112   */\n      mstore\n        /* \"#utility.yul\":28131:28135   */\n      0x12\n        /* \"#utility.yul\":28128:28129   */\n      0x04\n        /* \"#utility.yul\":28121:28136   */\n      mstore\n        /* \"#utility.yul\":28155:28159   */\n      0x24\n        /* \"#utility.yul\":28152:28153   */\n      0x00\n        /* \"#utility.yul\":28145:28160   */\n      revert\n        /* \"#utility.yul\":28172:28348   */\n    tag_249:\n        /* \"#utility.yul\":28204:28205   */\n      0x00\n        /* \"#utility.yul\":28221:28241   */\n      tag_599\n        /* \"#utility.yul\":28239:28240   */\n      dup3\n        /* \"#utility.yul\":28221:28241   */\n      tag_270\n      jump\t// in\n    tag_599:\n        /* \"#utility.yul\":28216:28241   */\n      swap2\n      pop\n        /* \"#utility.yul\":28255:28275   */\n      tag_600\n        /* \"#utility.yul\":28273:28274   */\n      dup4\n        /* \"#utility.yul\":28255:28275   */\n      tag_270\n      jump\t// in\n    tag_600:\n        /* \"#utility.yul\":28250:28275   */\n      swap3\n      pop\n        /* \"#utility.yul\":28294:28295   */\n      dup3\n        /* \"#utility.yul\":28284:28319   */\n      tag_601\n      jumpi\n        /* \"#utility.yul\":28299:28317   */\n      tag_602\n      tag_341\n      jump\t// in\n    tag_602:\n        /* \"#utility.yul\":28284:28319   */\n    tag_601:\n        /* \"#utility.yul\":28340:28341   */\n      dup3\n        /* \"#utility.yul\":28337:28338   */\n      dup3\n        /* \"#utility.yul\":28333:28342   */\n      mod\n        /* \"#utility.yul\":28328:28342   */\n      swap1\n      pop\n        /* \"#utility.yul\":28172:28348   */\n      swap3\n      swap2\n      pop\n      pop\n      jump\t// out\n        /* \"#utility.yul\":28354:28764   */\n    tag_259:\n        /* \"#utility.yul\":28394:28401   */\n      0x00\n        /* \"#utility.yul\":28417:28437   */\n      tag_604\n        /* \"#utility.yul\":28435:28436   */\n      dup3\n        /* \"#utility.yul\":28417:28437   */\n      tag_270\n      jump\t// in\n    tag_604:\n        /* \"#utility.yul\":28412:28437   */\n      swap2\n      pop\n        /* \"#utility.yul\":28451:28471   */\n      tag_605\n        /* \"#utility.yul\":28469:28470   */\n      dup4\n        /* \"#utility.yul\":28451:28471   */\n      tag_270\n      jump\t// in\n    tag_605:\n        /* \"#utility.yul\":28446:28471   */\n      swap3\n      pop\n        /* \"#utility.yul\":28506:28507   */\n      dup3\n        /* \"#utility.yul\":28503:28504   */\n      dup3\n        /* \"#utility.yul\":28499:28508   */\n      mul\n        /* \"#utility.yul\":28528:28558   */\n      tag_606\n        /* \"#utility.yul\":28546:28557   */\n      dup2\n        /* \"#utility.yul\":28528:28558   */\n      tag_270\n      jump\t// in\n    tag_606:\n        /* \"#utility.yul\":28517:28558   */\n      swap2\n      pop\n        /* \"#utility.yul\":28707:28708   */\n      dup3\n        /* \"#utility.yul\":28698:28705   */\n      dup3\n        /* \"#utility.yul\":28694:28709   */\n      div\n        /* \"#utility.yul\":28691:28692   */\n      dup5\n        /* \"#utility.yul\":28688:28710   */\n      eq\n        /* \"#utility.yul\":28668:28669   */\n      dup4\n        /* \"#utility.yul\":28661:28670   */\n      iszero\n        /* \"#utility.yul\":28641:28724   */\n      or\n        /* \"#utility.yul\":28618:28757   */\n      tag_607\n      jumpi\n        /* \"#utility.yul\":28737:28755   */\n      tag_608\n      tag_318\n      jump\t// in\n    tag_608:\n        /* \"#utility.yul\":28618:28757   */\n    tag_607:\n        /* \"#utility.yul\":28402:28764   */\n      pop\n        /* \"#utility.yul\":28354:28764   */\n      swap3\n      swap2\n      pop\n      pop\n      jump\t// out\n\n    auxdata: 0xa2646970667358221220e25ada549ad7200601bf744e42055ef2a099ddf6d54c00f5df382b187d80c08864736f6c63430008160033\n}\n",
				"bytecode": {
					"linkReferences": {},
					"object": "60a060405260016002557f354d2f95da55398f44b7cff77da56283d9c6c829a4bdf1bbcaf2ad6a4d081f6160001b600855620186a0600960006101000a81548163ffffffff021916908363ffffffff1602179055506003600960046101000a81548161ffff021916908361ffff1602179055506001600960066101000a81548163ffffffff021916908363ffffffff160217905550348015620000a157600080fd5b5060405162002f8538038062002f858339818101604052810190620000c791906200041e565b33806000732ed832ba664535e5886b75d64c46eb9a228c26108073ffffffffffffffffffffffffffffffffffffffff1660808173ffffffffffffffffffffffffffffffffffffffff168152505050600073ffffffffffffffffffffffffffffffffffffffff168273ffffffffffffffffffffffffffffffffffffffff160362000187576040517f08c379a00000000000000000000000000000000000000000000000000000000081526004016200017e90620004b1565b60405180910390fd5b816000806101000a81548173ffffffffffffffffffffffffffffffffffffffff021916908373ffffffffffffffffffffffffffffffffffffffff160217905550600073ffffffffffffffffffffffffffffffffffffffff168173ffffffffffffffffffffffffffffffffffffffff16146200020e576200020d81620002a560201b60201c565b5b505050732ed832ba664535e5886b75d64c46eb9a228c2610600b60006101000a81548173ffffffffffffffffffffffffffffffffffffffff021916908373ffffffffffffffffffffffffffffffffffffffff16021790555080600560006101000a81548167ffffffffffffffff021916908367ffffffffffffffff16021790555067016345785d8a00006004819055505062000545565b3373ffffffffffffffffffffffffffffffffffffffff168173ffffffffffffffffffffffffffffffffffffffff160362000316576040517f08c379a00000000000000000000000000000000000000000000000000000000081526004016200030d9062000523565b60405180910390fd5b80600160006101000a81548173ffffffffffffffffffffffffffffffffffffffff021916908373ffffffffffffffffffffffffffffffffffffffff1602179055508073ffffffffffffffffffffffffffffffffffffffff1660008054906101000a900473ffffffffffffffffffffffffffffffffffffffff1673ffffffffffffffffffffffffffffffffffffffff167fed8889f560326eb138920d842192f0eb3dd22b4f139c87a2c57538e05bae127860405160405180910390a350565b600080fd5b600067ffffffffffffffff82169050919050565b620003f881620003d9565b81146200040457600080fd5b50565b6000815190506200041881620003ed565b92915050565b600060208284031215620004375762000436620003d4565b5b6000620004478482850162000407565b91505092915050565b600082825260208201905092915050565b7f43616e6e6f7420736574206f776e657220746f207a65726f0000000000000000600082015250565b60006200049960188362000450565b9150620004a68262000461565b602082019050919050565b60006020820190508181036000830152620004cc816200048a565b9050919050565b7f43616e6e6f74207472616e7366657220746f2073656c66000000000000000000600082015250565b60006200050b60178362000450565b91506200051882620004d3565b602082019050919050565b600060208201905081810360008301526200053e81620004fc565b9050919050565b608051612a1d62000568600039600081816104ef01526105430152612a1d6000f3fe6080604052600436106101095760003560e01c8063978fffb811610095578063d8a4676f11610064578063d8a4676f14610380578063e5ed1d59146103be578063efaa55a0146103da578063f2fde38b146103f6578063fc2a88c31461041f57610109565b8063978fffb8146102b1578063a168fa89146102da578063b19068c714610318578063b4a91e1e1461034357610109565b806379ba5097116100dc57806379ba5097146101cc5780637f7f8968146101e35780638796ba8c1461020c5780638da5cb5b146102495780638ee674721461027457610109565b8063117a5b901461010e5780631fe543e31461014f5780636916c9b01461017857806369958ab9146101a3575b600080fd5b34801561011a57600080fd5b5061013560048036038101906101309190611bc4565b61044a565b604051610146959493929190611c5c565b60405180910390f35b34801561015b57600080fd5b5061017660048036038101906101719190611e08565b6104ed565b005b34801561018457600080fd5b5061018d6105ad565b60405161019a9190611f22565b60405180910390f35b3480156101af57600080fd5b506101ca60048036038101906101c59190611bc4565b610605565b005b3480156101d857600080fd5b506101e1610921565b005b3480156101ef57600080fd5b5061020a60048036038101906102059190611bc4565b610ab6565b005b34801561021857600080fd5b50610233600480360381019061022e9190611bc4565b610ac8565b6040516102409190611f44565b60405180910390f35b34801561025557600080fd5b5061025e610aec565b60405161026b9190611f5f565b60405180910390f35b34801561028057600080fd5b5061029b60048036038101906102969190611bc4565b610b15565b6040516102a89190611f44565b60405180910390f35b3480156102bd57600080fd5b506102d860048036038101906102d39190611fb6565b610b39565b005b3480156102e657600080fd5b5061030160048036038101906102fc9190611bc4565b610b65565b60405161030f929190611fe3565b60405180910390f35b34801561032457600080fd5b5061032d610ba3565b60405161033a9190611f44565b60405180910390f35b34801561034f57600080fd5b5061036a60048036038101906103659190611bc4565b610ba9565b6040516103779190611f44565b60405180910390f35b34801561038c57600080fd5b506103a760048036038101906103a29190611bc4565b610bc1565b6040516103b592919061200c565b60405180910390f35b6103d860048036038101906103d39190611bc4565b610cec565b005b6103f460048036038101906103ef9190611bc4565b610f3c565b005b34801561040257600080fd5b5061041d60048036038101906104189190612068565b611253565b005b34801561042b57600080fd5b50610434611267565b6040516104419190611f44565b60405180910390f35b600c6020528060005260406000206000915090508060000160009054906101000a900473ffffffffffffffffffffffffffffffffffffffff16908060010160009054906101000a900473ffffffffffffffffffffffffffffffffffffffff16908060020154908060030160009054906101000a900460ff16908060030160019054906101000a900473ffffffffffffffffffffffffffffffffffffffff16905085565b7f000000000000000000000000000000000000000000000000000000000000000073ffffffffffffffffffffffffffffffffffffffff163373ffffffffffffffffffffffffffffffffffffffff161461059f57337f00000000000000000000000000000000000000000000000000000000000000006040517f1cf993f4000000000000000000000000000000000000000000000000000000008152600401610596929190612095565b60405180910390fd5b6105a9828261126d565b5050565b606060038054806020026020016040519081016040528092919081815260200182805480156105fb57602002820191906000526020600020905b8154815260200190600101908083116105e7575b5050505050905090565b61060d61138a565b6000600c60008381526020019081526020016000209050600073ffffffffffffffffffffffffffffffffffffffff168160000160009054906101000a900473ffffffffffffffffffffffffffffffffffffffff1673ffffffffffffffffffffffffffffffffffffffff16036106b7576040517f08c379a00000000000000000000000000000000000000000000000000000000081526004016106ae9061211b565b60405180910390fd5b8060030160009054906101000a900460ff1615610709576040517f08c379a000000000000000000000000000000000000000000000000000000000815260040161070090612187565b60405180910390fd5b8060000160009054906101000a900473ffffffffffffffffffffffffffffffffffffffff1673ffffffffffffffffffffffffffffffffffffffff166108fc82600201549081150290604051600060405180830381858888f19350505050158015610777573d6000803e3d6000fd5b50600073ffffffffffffffffffffffffffffffffffffffff168160010160009054906101000a900473ffffffffffffffffffffffffffffffffffffffff1673ffffffffffffffffffffffffffffffffffffffff1614610840578060010160009054906101000a900473ffffffffffffffffffffffffffffffffffffffff1673ffffffffffffffffffffffffffffffffffffffff166108fc82600201549081150290604051600060405180830381858888f1935050505015801561083e573d6000803e3d6000fd5b505b6108498261141a565b600c6000838152602001908152602001600020600080820160006101000a81549073ffffffffffffffffffffffffffffffffffffffff02191690556001820160006101000a81549073ffffffffffffffffffffffffffffffffffffffff021916905560028201600090556003820160006101000a81549060ff02191690556003820160016101000a81549073ffffffffffffffffffffffffffffffffffffffff02191690555050817f681705fdbd93dba3b679fd712577e9a86d57c5551c520f8c74857deb57f9623f60405160405180910390a25050565b600160009054906101000a900473ffffffffffffffffffffffffffffffffffffffff1673ffffffffffffffffffffffffffffffffffffffff163373ffffffffffffffffffffffffffffffffffffffff16146109b1576040517f08c379a00000000000000000000000000000000000000000000000000000000081526004016109a8906121f3565b60405180910390fd5b60008060009054906101000a900473ffffffffffffffffffffffffffffffffffffffff169050336000806101000a81548173ffffffffffffffffffffffffffffffffffffffff021916908373ffffffffffffffffffffffffffffffffffffffff1602179055506000600160006101000a81548173ffffffffffffffffffffffffffffffffffffffff021916908373ffffffffffffffffffffffffffffffffffffffff1602179055503373ffffffffffffffffffffffffffffffffffffffff168173ffffffffffffffffffffffffffffffffffffffff167f8be0079c531659141344cd1fd0a4f28419497f9722a3daafe3b4186f6b6457e060405160405180910390a350565b610abe61138a565b8060048190555050565b60068181548110610ad857600080fd5b906000526020600020016000915090505481565b60008060009054906101000a900473ffffffffffffffffffffffffffffffffffffffff16905090565b60038181548110610b2557600080fd5b906000526020600020016000915090505481565b610b4161138a565b80600960006101000a81548163ffffffff021916908363ffffffff16021790555050565b600a6020528060005260406000206000915090508060000160009054906101000a900460ff16908060000160019054906101000a900460ff16905082565b60045481565b600d6020528060005260406000206000915090505481565b60006060600a600084815260200190815260200160002060000160019054906101000a900460ff16610c28576040517f08c379a0000000000000000000000000000000000000000000000000000000008152600401610c1f9061225f565b60405180910390fd5b6000600a60008581526020019081526020016000206040518060600160405290816000820160009054906101000a900460ff161515151581526020016000820160019054906101000a900460ff1615151515815260200160018201805480602002602001604051908101604052809291908181526020018280548015610ccd57602002820191906000526020600020905b815481526020019060010190808311610cb9575b5050505050815250509050806000015181604001519250925050915091565b600454341015610d31576040517f08c379a0000000000000000000000000000000000000000000000000000000008152600401610d28906122f1565b60405180910390fd5b6000610d3b6114df565b90506040518060a001604052803373ffffffffffffffffffffffffffffffffffffffff168152602001600073ffffffffffffffffffffffffffffffffffffffff168152602001838152602001600015158152602001600073ffffffffffffffffffffffffffffffffffffffff16815250600c600083815260200190815260200160002060008201518160000160006101000a81548173ffffffffffffffffffffffffffffffffffffffff021916908373ffffffffffffffffffffffffffffffffffffffff16021790555060208201518160010160006101000a81548173ffffffffffffffffffffffffffffffffffffffff021916908373ffffffffffffffffffffffffffffffffffffffff1602179055506040820151816002015560608201518160030160006101000a81548160ff02191690831515021790555060808201518160030160016101000a81548173ffffffffffffffffffffffffffffffffffffffff021916908373ffffffffffffffffffffffffffffffffffffffff16021790555090505060038190806001815401808255809150506001900390600052602060002001600090919091909150553373ffffffffffffffffffffffffffffffffffffffff16817f0c82908456d66c43e9de63edd66f9faf875c8f3a12f936e162d675ec42c3544484604051610f309190611f44565b60405180910390a35050565b6000600c600083815260200190815260200160002090508060030160009054906101000a900460ff1615610fa5576040517f08c379a0000000000000000000000000000000000000000000000000000000008152600401610f9c90612187565b60405180910390fd5b600073ffffffffffffffffffffffffffffffffffffffff168160010160009054906101000a900473ffffffffffffffffffffffffffffffffffffffff1673ffffffffffffffffffffffffffffffffffffffff1614611038576040517f08c379a000000000000000000000000000000000000000000000000000000000815260040161102f9061235d565b60405180910390fd5b8060020154341461107e576040517f08c379a0000000000000000000000000000000000000000000000000000000008152600401611075906123c9565b60405180910390fd5b600073ffffffffffffffffffffffffffffffffffffffff168160000160009054906101000a900473ffffffffffffffffffffffffffffffffffffffff1673ffffffffffffffffffffffffffffffffffffffff1603611111576040517f08c379a00000000000000000000000000000000000000000000000000000000081526004016111089061211b565b60405180910390fd5b8060000160009054906101000a900473ffffffffffffffffffffffffffffffffffffffff1673ffffffffffffffffffffffffffffffffffffffff163373ffffffffffffffffffffffffffffffffffffffff16036111a3576040517f08c379a000000000000000000000000000000000000000000000000000000000815260040161119a90612435565b60405180910390fd5b338160010160006101000a81548173ffffffffffffffffffffffffffffffffffffffff021916908373ffffffffffffffffffffffffffffffffffffffff16021790555060006111f061152a565b905082600d6000838152602001908152602001600020819055503373ffffffffffffffffffffffffffffffffffffffff16837f87969bc7faf902221a147b95ceba76e011c5efb0339a0a8ee7a2bb82d9cfbbd660405160405180910390a3505050565b61125b61138a565b6112648161177b565b50565b60075481565b600a600083815260200190815260200160002060000160019054906101000a900460ff166112d0576040517f08c379a00000000000000000000000000000000000000000000000000000000081526004016112c79061225f565b60405180910390fd5b6001600a600084815260200190815260200160002060000160006101000a81548160ff02191690831515021790555080600a60008481526020019081526020016000206001019080519060200190611329929190611b10565b506000600d600084815260200190815260200160002054905061134c81836118a7565b7ffe2e2d779dba245964d4e3ef9b994be63856fd568bf7d3ca9e224755cb1bd54d838360405161137d929190612455565b60405180910390a1505050565b60008054906101000a900473ffffffffffffffffffffffffffffffffffffffff1673ffffffffffffffffffffffffffffffffffffffff163373ffffffffffffffffffffffffffffffffffffffff1614611418576040517f08c379a000000000000000000000000000000000000000000000000000000000815260040161140f906124d1565b60405180910390fd5b565b60005b6003805490508110156114db57816003828154811061143f5761143e6124f1565b5b9060005260206000200154036114ce5760036001600380549050611463919061254f565b81548110611474576114736124f1565b5b906000526020600020015460038281548110611493576114926124f1565b5b906000526020600020018190555060038054806114b3576114b2612583565b5b600190038181906000526020600020016000905590556114db565b808060010191505061141d565b5050565b60004233600260008154809291906114f6906125b2565b9190505560405160200161150c93929190612663565b6040516020818303038152906040528051906020012060001c905090565b6000600b60009054906101000a900473ffffffffffffffffffffffffffffffffffffffff1673ffffffffffffffffffffffffffffffffffffffff16635d3b1d30600854600560009054906101000a900467ffffffffffffffff16600960049054906101000a900461ffff16600960009054906101000a900463ffffffff16600960069054906101000a900463ffffffff166040518663ffffffff1660e01b81526004016115db959493929190612708565b6020604051808303816000875af11580156115fa573d6000803e3d6000fd5b505050506040513d601f19601f8201168201806040525081019061161e9190612770565b90506040518060600160405280600015158152602001600115158152602001600067ffffffffffffffff81111561165857611657611cc5565b5b6040519080825280602002602001820160405280156116865781602001602082028036833780820191505090505b50815250600a600083815260200190815260200160002060008201518160000160006101000a81548160ff02191690831515021790555060208201518160000160016101000a81548160ff02191690831515021790555060408201518160010190805190602001906116f9929190611b10565b509050506006819080600181540180825580915050600190039060005260206000200160009091909190915055806007819055507fcc58b13ad3eab50626c6a6300b1d139cd6ebb1688a7cced9461c2f7e762665ee81600960069054906101000a900463ffffffff1660405161177092919061279d565b60405180910390a190565b3373ffffffffffffffffffffffffffffffffffffffff168173ffffffffffffffffffffffffffffffffffffffff16036117e9576040517f08c379a00000000000000000000000000000000000000000000000000000000081526004016117e090612812565b60405180910390fd5b80600160006101000a81548173ffffffffffffffffffffffffffffffffffffffff021916908373ffffffffffffffffffffffffffffffffffffffff1602179055508073ffffffffffffffffffffffffffffffffffffffff1660008054906101000a900473ffffffffffffffffffffffffffffffffffffffff1673ffffffffffffffffffffffffffffffffffffffff167fed8889f560326eb138920d842192f0eb3dd22b4f139c87a2c57538e05bae127860405160405180910390a350565b6000600c600084815260200190815260200160002090508060030160009054906101000a900460ff1615611910576040517f08c379a00000000000000000000000000000000000000000000000000000000081526004016119079061287e565b60405180910390fd5b600082604051602001611923919061292e565b6040516020818303038152906040528051906020012060001c9050600060028261194d9190612974565b1461197c578160010160009054906101000a900473ffffffffffffffffffffffffffffffffffffffff166119a2565b8160000160009054906101000a900473ffffffffffffffffffffffffffffffffffffffff165b8260030160016101000a81548173ffffffffffffffffffffffffffffffffffffffff021916908373ffffffffffffffffffffffffffffffffffffffff16021790555060018260030160006101000a81548160ff0219169083151502179055508160030160019054906101000a900473ffffffffffffffffffffffffffffffffffffffff1673ffffffffffffffffffffffffffffffffffffffff166108fc611a5760028560020154611afa90919063ffffffff16565b9081150290604051600060405180830381858888f19350505050158015611a82573d6000803e3d6000fd5b50611a8c8461141a565b8160030160019054906101000a900473ffffffffffffffffffffffffffffffffffffffff1673ffffffffffffffffffffffffffffffffffffffff16847f7f40df5127524300187445e867486da572aab86769c0212e0b392bd87c4ca97f60405160405180910390a350505050565b60008183611b0891906129a5565b905092915050565b828054828255906000526020600020908101928215611b4c579160200282015b82811115611b4b578251825591602001919060010190611b30565b5b509050611b599190611b5d565b5090565b5b80821115611b76576000816000905550600101611b5e565b5090565b6000604051905090565b600080fd5b600080fd5b6000819050919050565b611ba181611b8e565b8114611bac57600080fd5b50565b600081359050611bbe81611b98565b92915050565b600060208284031215611bda57611bd9611b84565b5b6000611be884828501611baf565b91505092915050565b600073ffffffffffffffffffffffffffffffffffffffff82169050919050565b6000611c1c82611bf1565b9050919050565b611c2c81611c11565b82525050565b611c3b81611b8e565b82525050565b60008115159050919050565b611c5681611c41565b82525050565b600060a082019050611c716000830188611c23565b611c7e6020830187611c23565b611c8b6040830186611c32565b611c986060830185611c4d565b611ca56080830184611c23565b9695505050505050565b600080fd5b6000601f19601f8301169050919050565b7f4e487b7100000000000000000000000000000000000000000000000000000000600052604160045260246000fd5b611cfd82611cb4565b810181811067ffffffffffffffff82111715611d1c57611d1b611cc5565b5b80604052505050565b6000611d2f611b7a565b9050611d3b8282611cf4565b919050565b600067ffffffffffffffff821115611d5b57611d5a611cc5565b5b602082029050602081019050919050565b600080fd5b6000611d84611d7f84611d40565b611d25565b90508083825260208201905060208402830185811115611da757611da6611d6c565b5b835b81811015611dd05780611dbc8882611baf565b845260208401935050602081019050611da9565b5050509392505050565b600082601f830112611def57611dee611caf565b5b8135611dff848260208601611d71565b91505092915050565b60008060408385031215611e1f57611e1e611b84565b5b6000611e2d85828601611baf565b925050602083013567ffffffffffffffff811115611e4e57611e4d611b89565b5b611e5a85828601611dda565b9150509250929050565b600081519050919050565b600082825260208201905092915050565b6000819050602082019050919050565b611e9981611b8e565b82525050565b6000611eab8383611e90565b60208301905092915050565b6000602082019050919050565b6000611ecf82611e64565b611ed98185611e6f565b9350611ee483611e80565b8060005b83811015611f15578151611efc8882611e9f565b9750611f0783611eb7565b925050600181019050611ee8565b5085935050505092915050565b60006020820190508181036000830152611f3c8184611ec4565b905092915050565b6000602082019050611f596000830184611c32565b92915050565b6000602082019050611f746000830184611c23565b92915050565b600063ffffffff82169050919050565b611f9381611f7a565b8114611f9e57600080fd5b50565b600081359050611fb081611f8a565b92915050565b600060208284031215611fcc57611fcb611b84565b5b6000611fda84828501611fa1565b91505092915050565b6000604082019050611ff86000830185611c4d565b6120056020830184611c4d565b9392505050565b60006040820190506120216000830185611c4d565b81810360208301526120338184611ec4565b90509392505050565b61204581611c11565b811461205057600080fd5b50565b6000813590506120628161203c565b92915050565b60006020828403121561207e5761207d611b84565b5b600061208c84828501612053565b91505092915050565b60006040820190506120aa6000830185611c23565b6120b76020830184611c23565b9392505050565b600082825260208201905092915050565b7f47616d6520646f6573206e6f7420657869737400000000000000000000000000600082015250565b60006121056013836120be565b9150612110826120cf565b602082019050919050565b60006020820190508181036000830152612134816120f8565b9050919050565b7f47616d6520697320636f6d706c65746564000000000000000000000000000000600082015250565b60006121716011836120be565b915061217c8261213b565b602082019050919050565b600060208201905081810360008301526121a081612164565b9050919050565b7f4d7573742062652070726f706f736564206f776e657200000000000000000000600082015250565b60006121dd6016836120be565b91506121e8826121a7565b602082019050919050565b6000602082019050818103600083015261220c816121d0565b9050919050565b7f72657175657374206e6f7420666f756e64000000000000000000000000000000600082015250565b60006122496011836120be565b915061225482612213565b602082019050919050565b600060208201905081810360008301526122788161223c565b9050919050565b7f576167657220616d6f756e74206973206c657373207468616e206d696e696d7560008201527f6d57616765720000000000000000000000000000000000000000000000000000602082015250565b60006122db6026836120be565b91506122e68261227f565b604082019050919050565b6000602082019050818103600083015261230a816122ce565b9050919050565b7f47616d6520697320616c7265616479206a6f696e656400000000000000000000600082015250565b60006123476016836120be565b915061235282612311565b602082019050919050565b600060208201905081810360008301526123768161233a565b9050919050565b7f496e636f727265637420616d6f756e742073656e740000000000000000000000600082015250565b60006123b36015836120be565b91506123be8261237d565b602082019050919050565b600060208201905081810360008301526123e2816123a6565b9050919050565b7f596f752063616e6e6f74206a6f696e20796f7572206f776e2067616d65000000600082015250565b600061241f601d836120be565b915061242a826123e9565b602082019050919050565b6000602082019050818103600083015261244e81612412565b9050919050565b600060408201905061246a6000830185611c32565b818103602083015261247c8184611ec4565b90509392505050565b7f4f6e6c792063616c6c61626c65206279206f776e657200000000000000000000600082015250565b60006124bb6016836120be565b91506124c682612485565b602082019050919050565b600060208201905081810360008301526124ea816124ae565b9050919050565b7f4e487b7100000000000000000000000000000000000000000000000000000000600052603260045260246000fd5b7f4e487b7100000000000000000000000000000000000000000000000000000000600052601160045260246000fd5b600061255a82611b8e565b915061256583611b8e565b925082820390508181111561257d5761257c612520565b5b92915050565b7f4e487b7100000000000000000000000000000000000000000000000000000000600052603160045260246000fd5b60006125bd82611b8e565b91507fffffffffffffffffffffffffffffffffffffffffffffffffffffffffffffffff82036125ef576125ee612520565b5b600182019050919050565b6000819050919050565b61261561261082611b8e565b6125fa565b82525050565b60008160601b9050919050565b60006126338261261b565b9050919050565b600061264582612628565b9050919050565b61265d61265882611c11565b61263a565b82525050565b600061266f8286612604565b60208201915061267f828561264c565b60148201915061268f8284612604565b602082019150819050949350505050565b6000819050919050565b6126b3816126a0565b82525050565b600067ffffffffffffffff82169050919050565b6126d6816126b9565b82525050565b600061ffff82169050919050565b6126f3816126dc565b82525050565b61270281611f7a565b82525050565b600060a08201905061271d60008301886126aa565b61272a60208301876126cd565b61273760408301866126ea565b61274460608301856126f9565b61275160808301846126f9565b9695505050505050565b60008151905061276a81611b98565b92915050565b60006020828403121561278657612785611b84565b5b60006127948482850161275b565b91505092915050565b60006040820190506127b26000830185611c32565b6127bf60208301846126f9565b9392505050565b7f43616e6e6f74207472616e7366657220746f2073656c66000000000000000000600082015250565b60006127fc6017836120be565b9150612807826127c6565b602082019050919050565b6000602082019050818103600083015261282b816127ef565b9050919050565b7f47616d6520697320616c726561647920636f6d706c6574656400000000000000600082015250565b60006128686019836120be565b915061287382612832565b602082019050919050565b600060208201905081810360008301526128978161285b565b9050919050565b600081905092915050565b6128b281611b8e565b82525050565b60006128c483836128a9565b60208301905092915050565b60006128db82611e64565b6128e5818561289e565b93506128f083611e80565b8060005b8381101561292157815161290888826128b8565b975061291383611eb7565b9250506001810190506128f4565b5085935050505092915050565b600061293a82846128d0565b915081905092915050565b7f4e487b7100000000000000000000000000000000000000000000000000000000600052601260045260246000fd5b600061297f82611b8e565b915061298a83611b8e565b92508261299a57612999612945565b5b828206905092915050565b60006129b082611b8e565b91506129bb83611b8e565b92508282026129c981611b8e565b915082820484148315176129e0576129df612520565b5b509291505056fea2646970667358221220e25ada549ad7200601bf744e42055ef2a099ddf6d54c00f5df382b187d80c08864736f6c63430008160033",
					"opcodes": "PUSH1 0xA0 PUSH1 0x40 MSTORE PUSH1 0x1 PUSH1 0x2 SSTORE PUSH32 0x354D2F95DA55398F44B7CFF77DA56283D9C6C829A4BDF1BBCAF2AD6A4D081F61 PUSH1 0x0 SHL PUSH1 0x8 SSTORE PUSH3 0x186A0 PUSH1 0x9 PUSH1 0x0 PUSH2 0x100 EXP DUP2 SLOAD DUP2 PUSH4 0xFFFFFFFF MUL NOT AND SWAP1 DUP4 PUSH4 0xFFFFFFFF AND MUL OR SWAP1 SSTORE POP PUSH1 0x3 PUSH1 0x9 PUSH1 0x4 PUSH2 0x100 EXP DUP2 SLOAD DUP2 PUSH2 0xFFFF MUL NOT AND SWAP1 DUP4 PUSH2 0xFFFF AND MUL OR SWAP1 SSTORE POP PUSH1 0x1 PUSH1 0x9 PUSH1 0x6 PUSH2 0x100 EXP DUP2 SLOAD DUP2 PUSH4 0xFFFFFFFF MUL NOT AND SWAP1 DUP4 PUSH4 0xFFFFFFFF AND MUL OR SWAP1 SSTORE POP CALLVALUE DUP1 ISZERO PUSH3 0xA1 JUMPI PUSH1 0x0 DUP1 REVERT JUMPDEST POP PUSH1 0x40 MLOAD PUSH3 0x2F85 CODESIZE SUB DUP1 PUSH3 0x2F85 DUP4 CODECOPY DUP2 DUP2 ADD PUSH1 0x40 MSTORE DUP2 ADD SWAP1 PUSH3 0xC7 SWAP2 SWAP1 PUSH3 0x41E JUMP JUMPDEST CALLER DUP1 PUSH1 0x0 PUSH20 0x2ED832BA664535E5886B75D64C46EB9A228C2610 DUP1 PUSH20 0xFFFFFFFFFFFFFFFFFFFFFFFFFFFFFFFFFFFFFFFF AND PUSH1 0x80 DUP2 PUSH20 0xFFFFFFFFFFFFFFFFFFFFFFFFFFFFFFFFFFFFFFFF AND DUP2 MSTORE POP POP POP PUSH1 0x0 PUSH20 0xFFFFFFFFFFFFFFFFFFFFFFFFFFFFFFFFFFFFFFFF AND DUP3 PUSH20 0xFFFFFFFFFFFFFFFFFFFFFFFFFFFFFFFFFFFFFFFF AND SUB PUSH3 0x187 JUMPI PUSH1 0x40 MLOAD PUSH32 0x8C379A000000000000000000000000000000000000000000000000000000000 DUP2 MSTORE PUSH1 0x4 ADD PUSH3 0x17E SWAP1 PUSH3 0x4B1 JUMP JUMPDEST PUSH1 0x40 MLOAD DUP1 SWAP2 SUB SWAP1 REVERT JUMPDEST DUP2 PUSH1 0x0 DUP1 PUSH2 0x100 EXP DUP2 SLOAD DUP2 PUSH20 0xFFFFFFFFFFFFFFFFFFFFFFFFFFFFFFFFFFFFFFFF MUL NOT AND SWAP1 DUP4 PUSH20 0xFFFFFFFFFFFFFFFFFFFFFFFFFFFFFFFFFFFFFFFF AND MUL OR SWAP1 SSTORE POP PUSH1 0x0 PUSH20 0xFFFFFFFFFFFFFFFFFFFFFFFFFFFFFFFFFFFFFFFF AND DUP2 PUSH20 0xFFFFFFFFFFFFFFFFFFFFFFFFFFFFFFFFFFFFFFFF AND EQ PUSH3 0x20E JUMPI PUSH3 0x20D DUP2 PUSH3 0x2A5 PUSH1 0x20 SHL PUSH1 0x20 SHR JUMP JUMPDEST JUMPDEST POP POP POP PUSH20 0x2ED832BA664535E5886B75D64C46EB9A228C2610 PUSH1 0xB PUSH1 0x0 PUSH2 0x100 EXP DUP2 SLOAD DUP2 PUSH20 0xFFFFFFFFFFFFFFFFFFFFFFFFFFFFFFFFFFFFFFFF MUL NOT AND SWAP1 DUP4 PUSH20 0xFFFFFFFFFFFFFFFFFFFFFFFFFFFFFFFFFFFFFFFF AND MUL OR SWAP1 SSTORE POP DUP1 PUSH1 0x5 PUSH1 0x0 PUSH2 0x100 EXP DUP2 SLOAD DUP2 PUSH8 0xFFFFFFFFFFFFFFFF MUL NOT AND SWAP1 DUP4 PUSH8 0xFFFFFFFFFFFFFFFF AND MUL OR SWAP1 SSTORE POP PUSH8 0x16345785D8A0000 PUSH1 0x4 DUP2 SWAP1 SSTORE POP POP PUSH3 0x545 JUMP JUMPDEST CALLER PUSH20 0xFFFFFFFFFFFFFFFFFFFFFFFFFFFFFFFFFFFFFFFF AND DUP2 PUSH20 0xFFFFFFFFFFFFFFFFFFFFFFFFFFFFFFFFFFFFFFFF AND SUB PUSH3 0x316 JUMPI PUSH1 0x40 MLOAD PUSH32 0x8C379A000000000000000000000000000000000000000000000000000000000 DUP2 MSTORE PUSH1 0x4 ADD PUSH3 0x30D SWAP1 PUSH3 0x523 JUMP JUMPDEST PUSH1 0x40 MLOAD DUP1 SWAP2 SUB SWAP1 REVERT JUMPDEST DUP1 PUSH1 0x1 PUSH1 0x0 PUSH2 0x100 EXP DUP2 SLOAD DUP2 PUSH20 0xFFFFFFFFFFFFFFFFFFFFFFFFFFFFFFFFFFFFFFFF MUL NOT AND SWAP1 DUP4 PUSH20 0xFFFFFFFFFFFFFFFFFFFFFFFFFFFFFFFFFFFFFFFF AND MUL OR SWAP1 SSTORE POP DUP1 PUSH20 0xFFFFFFFFFFFFFFFFFFFFFFFFFFFFFFFFFFFFFFFF AND PUSH1 0x0 DUP1 SLOAD SWAP1 PUSH2 0x100 EXP SWAP1 DIV PUSH20 0xFFFFFFFFFFFFFFFFFFFFFFFFFFFFFFFFFFFFFFFF AND PUSH20 0xFFFFFFFFFFFFFFFFFFFFFFFFFFFFFFFFFFFFFFFF AND PUSH32 0xED8889F560326EB138920D842192F0EB3DD22B4F139C87A2C57538E05BAE1278 PUSH1 0x40 MLOAD PUSH1 0x40 MLOAD DUP1 SWAP2 SUB SWAP1 LOG3 POP JUMP JUMPDEST PUSH1 0x0 DUP1 REVERT JUMPDEST PUSH1 0x0 PUSH8 0xFFFFFFFFFFFFFFFF DUP3 AND SWAP1 POP SWAP2 SWAP1 POP JUMP JUMPDEST PUSH3 0x3F8 DUP2 PUSH3 0x3D9 JUMP JUMPDEST DUP2 EQ PUSH3 0x404 JUMPI PUSH1 0x0 DUP1 REVERT JUMPDEST POP JUMP JUMPDEST PUSH1 0x0 DUP2 MLOAD SWAP1 POP PUSH3 0x418 DUP2 PUSH3 0x3ED JUMP JUMPDEST SWAP3 SWAP2 POP POP JUMP JUMPDEST PUSH1 0x0 PUSH1 0x20 DUP3 DUP5 SUB SLT ISZERO PUSH3 0x437 JUMPI PUSH3 0x436 PUSH3 0x3D4 JUMP JUMPDEST JUMPDEST PUSH1 0x0 PUSH3 0x447 DUP5 DUP3 DUP6 ADD PUSH3 0x407 JUMP JUMPDEST SWAP2 POP POP SWAP3 SWAP2 POP POP JUMP JUMPDEST PUSH1 0x0 DUP3 DUP3 MSTORE PUSH1 0x20 DUP3 ADD SWAP1 POP SWAP3 SWAP2 POP POP JUMP JUMPDEST PUSH32 0x43616E6E6F7420736574206F776E657220746F207A65726F0000000000000000 PUSH1 0x0 DUP3 ADD MSTORE POP JUMP JUMPDEST PUSH1 0x0 PUSH3 0x499 PUSH1 0x18 DUP4 PUSH3 0x450 JUMP JUMPDEST SWAP2 POP PUSH3 0x4A6 DUP3 PUSH3 0x461 JUMP JUMPDEST PUSH1 0x20 DUP3 ADD SWAP1 POP SWAP2 SWAP1 POP JUMP JUMPDEST PUSH1 0x0 PUSH1 0x20 DUP3 ADD SWAP1 POP DUP2 DUP2 SUB PUSH1 0x0 DUP4 ADD MSTORE PUSH3 0x4CC DUP2 PUSH3 0x48A JUMP JUMPDEST SWAP1 POP SWAP2 SWAP1 POP JUMP JUMPDEST PUSH32 0x43616E6E6F74207472616E7366657220746F2073656C66000000000000000000 PUSH1 0x0 DUP3 ADD MSTORE POP JUMP JUMPDEST PUSH1 0x0 PUSH3 0x50B PUSH1 0x17 DUP4 PUSH3 0x450 JUMP JUMPDEST SWAP2 POP PUSH3 0x518 DUP3 PUSH3 0x4D3 JUMP JUMPDEST PUSH1 0x20 DUP3 ADD SWAP1 POP SWAP2 SWAP1 POP JUMP JUMPDEST PUSH1 0x0 PUSH1 0x20 DUP3 ADD SWAP1 POP DUP2 DUP2 SUB PUSH1 0x0 DUP4 ADD MSTORE PUSH3 0x53E DUP2 PUSH3 0x4FC JUMP JUMPDEST SWAP1 POP SWAP2 SWAP1 POP JUMP JUMPDEST PUSH1 0x80 MLOAD PUSH2 0x2A1D PUSH3 0x568 PUSH1 0x0 CODECOPY PUSH1 0x0 DUP2 DUP2 PUSH2 0x4EF ADD MSTORE PUSH2 0x543 ADD MSTORE PUSH2 0x2A1D PUSH1 0x0 RETURN INVALID PUSH1 0x80 PUSH1 0x40 MSTORE PUSH1 0x4 CALLDATASIZE LT PUSH2 0x109 JUMPI PUSH1 0x0 CALLDATALOAD PUSH1 0xE0 SHR DUP1 PUSH4 0x978FFFB8 GT PUSH2 0x95 JUMPI DUP1 PUSH4 0xD8A4676F GT PUSH2 0x64 JUMPI DUP1 PUSH4 0xD8A4676F EQ PUSH2 0x380 JUMPI DUP1 PUSH4 0xE5ED1D59 EQ PUSH2 0x3BE JUMPI DUP1 PUSH4 0xEFAA55A0 EQ PUSH2 0x3DA JUMPI DUP1 PUSH4 0xF2FDE38B EQ PUSH2 0x3F6 JUMPI DUP1 PUSH4 0xFC2A88C3 EQ PUSH2 0x41F JUMPI PUSH2 0x109 JUMP JUMPDEST DUP1 PUSH4 0x978FFFB8 EQ PUSH2 0x2B1 JUMPI DUP1 PUSH4 0xA168FA89 EQ PUSH2 0x2DA JUMPI DUP1 PUSH4 0xB19068C7 EQ PUSH2 0x318 JUMPI DUP1 PUSH4 0xB4A91E1E EQ PUSH2 0x343 JUMPI PUSH2 0x109 JUMP JUMPDEST DUP1 PUSH4 0x79BA5097 GT PUSH2 0xDC JUMPI DUP1 PUSH4 0x79BA5097 EQ PUSH2 0x1CC JUMPI DUP1 PUSH4 0x7F7F8968 EQ PUSH2 0x1E3 JUMPI DUP1 PUSH4 0x8796BA8C EQ PUSH2 0x20C JUMPI DUP1 PUSH4 0x8DA5CB5B EQ PUSH2 0x249 JUMPI DUP1 PUSH4 0x8EE67472 EQ PUSH2 0x274 JUMPI PUSH2 0x109 JUMP JUMPDEST DUP1 PUSH4 0x117A5B90 EQ PUSH2 0x10E JUMPI DUP1 PUSH4 0x1FE543E3 EQ PUSH2 0x14F JUMPI DUP1 PUSH4 0x6916C9B0 EQ PUSH2 0x178 JUMPI DUP1 PUSH4 0x69958AB9 EQ PUSH2 0x1A3 JUMPI JUMPDEST PUSH1 0x0 DUP1 REVERT JUMPDEST CALLVALUE DUP1 ISZERO PUSH2 0x11A JUMPI PUSH1 0x0 DUP1 REVERT JUMPDEST POP PUSH2 0x135 PUSH1 0x4 DUP1 CALLDATASIZE SUB DUP2 ADD SWAP1 PUSH2 0x130 SWAP2 SWAP1 PUSH2 0x1BC4 JUMP JUMPDEST PUSH2 0x44A JUMP JUMPDEST PUSH1 0x40 MLOAD PUSH2 0x146 SWAP6 SWAP5 SWAP4 SWAP3 SWAP2 SWAP1 PUSH2 0x1C5C JUMP JUMPDEST PUSH1 0x40 MLOAD DUP1 SWAP2 SUB SWAP1 RETURN JUMPDEST CALLVALUE DUP1 ISZERO PUSH2 0x15B JUMPI PUSH1 0x0 DUP1 REVERT JUMPDEST POP PUSH2 0x176 PUSH1 0x4 DUP1 CALLDATASIZE SUB DUP2 ADD SWAP1 PUSH2 0x171 SWAP2 SWAP1 PUSH2 0x1E08 JUMP JUMPDEST PUSH2 0x4ED JUMP JUMPDEST STOP JUMPDEST CALLVALUE DUP1 ISZERO PUSH2 0x184 JUMPI PUSH1 0x0 DUP1 REVERT JUMPDEST POP PUSH2 0x18D PUSH2 0x5AD JUMP JUMPDEST PUSH1 0x40 MLOAD PUSH2 0x19A SWAP2 SWAP1 PUSH2 0x1F22 JUMP JUMPDEST PUSH1 0x40 MLOAD DUP1 SWAP2 SUB SWAP1 RETURN JUMPDEST CALLVALUE DUP1 ISZERO PUSH2 0x1AF JUMPI PUSH1 0x0 DUP1 REVERT JUMPDEST POP PUSH2 0x1CA PUSH1 0x4 DUP1 CALLDATASIZE SUB DUP2 ADD SWAP1 PUSH2 0x1C5 SWAP2 SWAP1 PUSH2 0x1BC4 JUMP JUMPDEST PUSH2 0x605 JUMP JUMPDEST STOP JUMPDEST CALLVALUE DUP1 ISZERO PUSH2 0x1D8 JUMPI PUSH1 0x0 DUP1 REVERT JUMPDEST POP PUSH2 0x1E1 PUSH2 0x921 JUMP JUMPDEST STOP JUMPDEST CALLVALUE DUP1 ISZERO PUSH2 0x1EF JUMPI PUSH1 0x0 DUP1 REVERT JUMPDEST POP PUSH2 0x20A PUSH1 0x4 DUP1 CALLDATASIZE SUB DUP2 ADD SWAP1 PUSH2 0x205 SWAP2 SWAP1 PUSH2 0x1BC4 JUMP JUMPDEST PUSH2 0xAB6 JUMP JUMPDEST STOP JUMPDEST CALLVALUE DUP1 ISZERO PUSH2 0x218 JUMPI PUSH1 0x0 DUP1 REVERT JUMPDEST POP PUSH2 0x233 PUSH1 0x4 DUP1 CALLDATASIZE SUB DUP2 ADD SWAP1 PUSH2 0x22E SWAP2 SWAP1 PUSH2 0x1BC4 JUMP JUMPDEST PUSH2 0xAC8 JUMP JUMPDEST PUSH1 0x40 MLOAD PUSH2 0x240 SWAP2 SWAP1 PUSH2 0x1F44 JUMP JUMPDEST PUSH1 0x40 MLOAD DUP1 SWAP2 SUB SWAP1 RETURN JUMPDEST CALLVALUE DUP1 ISZERO PUSH2 0x255 JUMPI PUSH1 0x0 DUP1 REVERT JUMPDEST POP PUSH2 0x25E PUSH2 0xAEC JUMP JUMPDEST PUSH1 0x40 MLOAD PUSH2 0x26B SWAP2 SWAP1 PUSH2 0x1F5F JUMP JUMPDEST PUSH1 0x40 MLOAD DUP1 SWAP2 SUB SWAP1 RETURN JUMPDEST CALLVALUE DUP1 ISZERO PUSH2 0x280 JUMPI PUSH1 0x0 DUP1 REVERT JUMPDEST POP PUSH2 0x29B PUSH1 0x4 DUP1 CALLDATASIZE SUB DUP2 ADD SWAP1 PUSH2 0x296 SWAP2 SWAP1 PUSH2 0x1BC4 JUMP JUMPDEST PUSH2 0xB15 JUMP JUMPDEST PUSH1 0x40 MLOAD PUSH2 0x2A8 SWAP2 SWAP1 PUSH2 0x1F44 JUMP JUMPDEST PUSH1 0x40 MLOAD DUP1 SWAP2 SUB SWAP1 RETURN JUMPDEST CALLVALUE DUP1 ISZERO PUSH2 0x2BD JUMPI PUSH1 0x0 DUP1 REVERT JUMPDEST POP PUSH2 0x2D8 PUSH1 0x4 DUP1 CALLDATASIZE SUB DUP2 ADD SWAP1 PUSH2 0x2D3 SWAP2 SWAP1 PUSH2 0x1FB6 JUMP JUMPDEST PUSH2 0xB39 JUMP JUMPDEST STOP JUMPDEST CALLVALUE DUP1 ISZERO PUSH2 0x2E6 JUMPI PUSH1 0x0 DUP1 REVERT JUMPDEST POP PUSH2 0x301 PUSH1 0x4 DUP1 CALLDATASIZE SUB DUP2 ADD SWAP1 PUSH2 0x2FC SWAP2 SWAP1 PUSH2 0x1BC4 JUMP JUMPDEST PUSH2 0xB65 JUMP JUMPDEST PUSH1 0x40 MLOAD PUSH2 0x30F SWAP3 SWAP2 SWAP1 PUSH2 0x1FE3 JUMP JUMPDEST PUSH1 0x40 MLOAD DUP1 SWAP2 SUB SWAP1 RETURN JUMPDEST CALLVALUE DUP1 ISZERO PUSH2 0x324 JUMPI PUSH1 0x0 DUP1 REVERT JUMPDEST POP PUSH2 0x32D PUSH2 0xBA3 JUMP JUMPDEST PUSH1 0x40 MLOAD PUSH2 0x33A SWAP2 SWAP1 PUSH2 0x1F44 JUMP JUMPDEST PUSH1 0x40 MLOAD DUP1 SWAP2 SUB SWAP1 RETURN JUMPDEST CALLVALUE DUP1 ISZERO PUSH2 0x34F JUMPI PUSH1 0x0 DUP1 REVERT JUMPDEST POP PUSH2 0x36A PUSH1 0x4 DUP1 CALLDATASIZE SUB DUP2 ADD SWAP1 PUSH2 0x365 SWAP2 SWAP1 PUSH2 0x1BC4 JUMP JUMPDEST PUSH2 0xBA9 JUMP JUMPDEST PUSH1 0x40 MLOAD PUSH2 0x377 SWAP2 SWAP1 PUSH2 0x1F44 JUMP JUMPDEST PUSH1 0x40 MLOAD DUP1 SWAP2 SUB SWAP1 RETURN JUMPDEST CALLVALUE DUP1 ISZERO PUSH2 0x38C JUMPI PUSH1 0x0 DUP1 REVERT JUMPDEST POP PUSH2 0x3A7 PUSH1 0x4 DUP1 CALLDATASIZE SUB DUP2 ADD SWAP1 PUSH2 0x3A2 SWAP2 SWAP1 PUSH2 0x1BC4 JUMP JUMPDEST PUSH2 0xBC1 JUMP JUMPDEST PUSH1 0x40 MLOAD PUSH2 0x3B5 SWAP3 SWAP2 SWAP1 PUSH2 0x200C JUMP JUMPDEST PUSH1 0x40 MLOAD DUP1 SWAP2 SUB SWAP1 RETURN JUMPDEST PUSH2 0x3D8 PUSH1 0x4 DUP1 CALLDATASIZE SUB DUP2 ADD SWAP1 PUSH2 0x3D3 SWAP2 SWAP1 PUSH2 0x1BC4 JUMP JUMPDEST PUSH2 0xCEC JUMP JUMPDEST STOP JUMPDEST PUSH2 0x3F4 PUSH1 0x4 DUP1 CALLDATASIZE SUB DUP2 ADD SWAP1 PUSH2 0x3EF SWAP2 SWAP1 PUSH2 0x1BC4 JUMP JUMPDEST PUSH2 0xF3C JUMP JUMPDEST STOP JUMPDEST CALLVALUE DUP1 ISZERO PUSH2 0x402 JUMPI PUSH1 0x0 DUP1 REVERT JUMPDEST POP PUSH2 0x41D PUSH1 0x4 DUP1 CALLDATASIZE SUB DUP2 ADD SWAP1 PUSH2 0x418 SWAP2 SWAP1 PUSH2 0x2068 JUMP JUMPDEST PUSH2 0x1253 JUMP JUMPDEST STOP JUMPDEST CALLVALUE DUP1 ISZERO PUSH2 0x42B JUMPI PUSH1 0x0 DUP1 REVERT JUMPDEST POP PUSH2 0x434 PUSH2 0x1267 JUMP JUMPDEST PUSH1 0x40 MLOAD PUSH2 0x441 SWAP2 SWAP1 PUSH2 0x1F44 JUMP JUMPDEST PUSH1 0x40 MLOAD DUP1 SWAP2 SUB SWAP1 RETURN JUMPDEST PUSH1 0xC PUSH1 0x20 MSTORE DUP1 PUSH1 0x0 MSTORE PUSH1 0x40 PUSH1 0x0 KECCAK256 PUSH1 0x0 SWAP2 POP SWAP1 POP DUP1 PUSH1 0x0 ADD PUSH1 0x0 SWAP1 SLOAD SWAP1 PUSH2 0x100 EXP SWAP1 DIV PUSH20 0xFFFFFFFFFFFFFFFFFFFFFFFFFFFFFFFFFFFFFFFF AND SWAP1 DUP1 PUSH1 0x1 ADD PUSH1 0x0 SWAP1 SLOAD SWAP1 PUSH2 0x100 EXP SWAP1 DIV PUSH20 0xFFFFFFFFFFFFFFFFFFFFFFFFFFFFFFFFFFFFFFFF AND SWAP1 DUP1 PUSH1 0x2 ADD SLOAD SWAP1 DUP1 PUSH1 0x3 ADD PUSH1 0x0 SWAP1 SLOAD SWAP1 PUSH2 0x100 EXP SWAP1 DIV PUSH1 0xFF AND SWAP1 DUP1 PUSH1 0x3 ADD PUSH1 0x1 SWAP1 SLOAD SWAP1 PUSH2 0x100 EXP SWAP1 DIV PUSH20 0xFFFFFFFFFFFFFFFFFFFFFFFFFFFFFFFFFFFFFFFF AND SWAP1 POP DUP6 JUMP JUMPDEST PUSH32 0x0 PUSH20 0xFFFFFFFFFFFFFFFFFFFFFFFFFFFFFFFFFFFFFFFF AND CALLER PUSH20 0xFFFFFFFFFFFFFFFFFFFFFFFFFFFFFFFFFFFFFFFF AND EQ PUSH2 0x59F JUMPI CALLER PUSH32 0x0 PUSH1 0x40 MLOAD PUSH32 0x1CF993F400000000000000000000000000000000000000000000000000000000 DUP2 MSTORE PUSH1 0x4 ADD PUSH2 0x596 SWAP3 SWAP2 SWAP1 PUSH2 0x2095 JUMP JUMPDEST PUSH1 0x40 MLOAD DUP1 SWAP2 SUB SWAP1 REVERT JUMPDEST PUSH2 0x5A9 DUP3 DUP3 PUSH2 0x126D JUMP JUMPDEST POP POP JUMP JUMPDEST PUSH1 0x60 PUSH1 0x3 DUP1 SLOAD DUP1 PUSH1 0x20 MUL PUSH1 0x20 ADD PUSH1 0x40 MLOAD SWAP1 DUP2 ADD PUSH1 0x40 MSTORE DUP1 SWAP3 SWAP2 SWAP1 DUP2 DUP2 MSTORE PUSH1 0x20 ADD DUP3 DUP1 SLOAD DUP1 ISZERO PUSH2 0x5FB JUMPI PUSH1 0x20 MUL DUP3 ADD SWAP2 SWAP1 PUSH1 0x0 MSTORE PUSH1 0x20 PUSH1 0x0 KECCAK256 SWAP1 JUMPDEST DUP2 SLOAD DUP2 MSTORE PUSH1 0x20 ADD SWAP1 PUSH1 0x1 ADD SWAP1 DUP1 DUP4 GT PUSH2 0x5E7 JUMPI JUMPDEST POP POP POP POP POP SWAP1 POP SWAP1 JUMP JUMPDEST PUSH2 0x60D PUSH2 0x138A JUMP JUMPDEST PUSH1 0x0 PUSH1 0xC PUSH1 0x0 DUP4 DUP2 MSTORE PUSH1 0x20 ADD SWAP1 DUP2 MSTORE PUSH1 0x20 ADD PUSH1 0x0 KECCAK256 SWAP1 POP PUSH1 0x0 PUSH20 0xFFFFFFFFFFFFFFFFFFFFFFFFFFFFFFFFFFFFFFFF AND DUP2 PUSH1 0x0 ADD PUSH1 0x0 SWAP1 SLOAD SWAP1 PUSH2 0x100 EXP SWAP1 DIV PUSH20 0xFFFFFFFFFFFFFFFFFFFFFFFFFFFFFFFFFFFFFFFF AND PUSH20 0xFFFFFFFFFFFFFFFFFFFFFFFFFFFFFFFFFFFFFFFF AND SUB PUSH2 0x6B7 JUMPI PUSH1 0x40 MLOAD PUSH32 0x8C379A000000000000000000000000000000000000000000000000000000000 DUP2 MSTORE PUSH1 0x4 ADD PUSH2 0x6AE SWAP1 PUSH2 0x211B JUMP JUMPDEST PUSH1 0x40 MLOAD DUP1 SWAP2 SUB SWAP1 REVERT JUMPDEST DUP1 PUSH1 0x3 ADD PUSH1 0x0 SWAP1 SLOAD SWAP1 PUSH2 0x100 EXP SWAP1 DIV PUSH1 0xFF AND ISZERO PUSH2 0x709 JUMPI PUSH1 0x40 MLOAD PUSH32 0x8C379A000000000000000000000000000000000000000000000000000000000 DUP2 MSTORE PUSH1 0x4 ADD PUSH2 0x700 SWAP1 PUSH2 0x2187 JUMP JUMPDEST PUSH1 0x40 MLOAD DUP1 SWAP2 SUB SWAP1 REVERT JUMPDEST DUP1 PUSH1 0x0 ADD PUSH1 0x0 SWAP1 SLOAD SWAP1 PUSH2 0x100 EXP SWAP1 DIV PUSH20 0xFFFFFFFFFFFFFFFFFFFFFFFFFFFFFFFFFFFFFFFF AND PUSH20 0xFFFFFFFFFFFFFFFFFFFFFFFFFFFFFFFFFFFFFFFF AND PUSH2 0x8FC DUP3 PUSH1 0x2 ADD SLOAD SWAP1 DUP2 ISZERO MUL SWAP1 PUSH1 0x40 MLOAD PUSH1 0x0 PUSH1 0x40 MLOAD DUP1 DUP4 SUB DUP2 DUP6 DUP9 DUP9 CALL SWAP4 POP POP POP POP ISZERO DUP1 ISZERO PUSH2 0x777 JUMPI RETURNDATASIZE PUSH1 0x0 DUP1 RETURNDATACOPY RETURNDATASIZE PUSH1 0x0 REVERT JUMPDEST POP PUSH1 0x0 PUSH20 0xFFFFFFFFFFFFFFFFFFFFFFFFFFFFFFFFFFFFFFFF AND DUP2 PUSH1 0x1 ADD PUSH1 0x0 SWAP1 SLOAD SWAP1 PUSH2 0x100 EXP SWAP1 DIV PUSH20 0xFFFFFFFFFFFFFFFFFFFFFFFFFFFFFFFFFFFFFFFF AND PUSH20 0xFFFFFFFFFFFFFFFFFFFFFFFFFFFFFFFFFFFFFFFF AND EQ PUSH2 0x840 JUMPI DUP1 PUSH1 0x1 ADD PUSH1 0x0 SWAP1 SLOAD SWAP1 PUSH2 0x100 EXP SWAP1 DIV PUSH20 0xFFFFFFFFFFFFFFFFFFFFFFFFFFFFFFFFFFFFFFFF AND PUSH20 0xFFFFFFFFFFFFFFFFFFFFFFFFFFFFFFFFFFFFFFFF AND PUSH2 0x8FC DUP3 PUSH1 0x2 ADD SLOAD SWAP1 DUP2 ISZERO MUL SWAP1 PUSH1 0x40 MLOAD PUSH1 0x0 PUSH1 0x40 MLOAD DUP1 DUP4 SUB DUP2 DUP6 DUP9 DUP9 CALL SWAP4 POP POP POP POP ISZERO DUP1 ISZERO PUSH2 0x83E JUMPI RETURNDATASIZE PUSH1 0x0 DUP1 RETURNDATACOPY RETURNDATASIZE PUSH1 0x0 REVERT JUMPDEST POP JUMPDEST PUSH2 0x849 DUP3 PUSH2 0x141A JUMP JUMPDEST PUSH1 0xC PUSH1 0x0 DUP4 DUP2 MSTORE PUSH1 0x20 ADD SWAP1 DUP2 MSTORE PUSH1 0x20 ADD PUSH1 0x0 KECCAK256 PUSH1 0x0 DUP1 DUP3 ADD PUSH1 0x0 PUSH2 0x100 EXP DUP2 SLOAD SWAP1 PUSH20 0xFFFFFFFFFFFFFFFFFFFFFFFFFFFFFFFFFFFFFFFF MUL NOT AND SWAP1 SSTORE PUSH1 0x1 DUP3 ADD PUSH1 0x0 PUSH2 0x100 EXP DUP2 SLOAD SWAP1 PUSH20 0xFFFFFFFFFFFFFFFFFFFFFFFFFFFFFFFFFFFFFFFF MUL NOT AND SWAP1 SSTORE PUSH1 0x2 DUP3 ADD PUSH1 0x0 SWAP1 SSTORE PUSH1 0x3 DUP3 ADD PUSH1 0x0 PUSH2 0x100 EXP DUP2 SLOAD SWAP1 PUSH1 0xFF MUL NOT AND SWAP1 SSTORE PUSH1 0x3 DUP3 ADD PUSH1 0x1 PUSH2 0x100 EXP DUP2 SLOAD SWAP1 PUSH20 0xFFFFFFFFFFFFFFFFFFFFFFFFFFFFFFFFFFFFFFFF MUL NOT AND SWAP1 SSTORE POP POP DUP2 PUSH32 0x681705FDBD93DBA3B679FD712577E9A86D57C5551C520F8C74857DEB57F9623F PUSH1 0x40 MLOAD PUSH1 0x40 MLOAD DUP1 SWAP2 SUB SWAP1 LOG2 POP POP JUMP JUMPDEST PUSH1 0x1 PUSH1 0x0 SWAP1 SLOAD SWAP1 PUSH2 0x100 EXP SWAP1 DIV PUSH20 0xFFFFFFFFFFFFFFFFFFFFFFFFFFFFFFFFFFFFFFFF AND PUSH20 0xFFFFFFFFFFFFFFFFFFFFFFFFFFFFFFFFFFFFFFFF AND CALLER PUSH20 0xFFFFFFFFFFFFFFFFFFFFFFFFFFFFFFFFFFFFFFFF AND EQ PUSH2 0x9B1 JUMPI PUSH1 0x40 MLOAD PUSH32 0x8C379A000000000000000000000000000000000000000000000000000000000 DUP2 MSTORE PUSH1 0x4 ADD PUSH2 0x9A8 SWAP1 PUSH2 0x21F3 JUMP JUMPDEST PUSH1 0x40 MLOAD DUP1 SWAP2 SUB SWAP1 REVERT JUMPDEST PUSH1 0x0 DUP1 PUSH1 0x0 SWAP1 SLOAD SWAP1 PUSH2 0x100 EXP SWAP1 DIV PUSH20 0xFFFFFFFFFFFFFFFFFFFFFFFFFFFFFFFFFFFFFFFF AND SWAP1 POP CALLER PUSH1 0x0 DUP1 PUSH2 0x100 EXP DUP2 SLOAD DUP2 PUSH20 0xFFFFFFFFFFFFFFFFFFFFFFFFFFFFFFFFFFFFFFFF MUL NOT AND SWAP1 DUP4 PUSH20 0xFFFFFFFFFFFFFFFFFFFFFFFFFFFFFFFFFFFFFFFF AND MUL OR SWAP1 SSTORE POP PUSH1 0x0 PUSH1 0x1 PUSH1 0x0 PUSH2 0x100 EXP DUP2 SLOAD DUP2 PUSH20 0xFFFFFFFFFFFFFFFFFFFFFFFFFFFFFFFFFFFFFFFF MUL NOT AND SWAP1 DUP4 PUSH20 0xFFFFFFFFFFFFFFFFFFFFFFFFFFFFFFFFFFFFFFFF AND MUL OR SWAP1 SSTORE POP CALLER PUSH20 0xFFFFFFFFFFFFFFFFFFFFFFFFFFFFFFFFFFFFFFFF AND DUP2 PUSH20 0xFFFFFFFFFFFFFFFFFFFFFFFFFFFFFFFFFFFFFFFF AND PUSH32 0x8BE0079C531659141344CD1FD0A4F28419497F9722A3DAAFE3B4186F6B6457E0 PUSH1 0x40 MLOAD PUSH1 0x40 MLOAD DUP1 SWAP2 SUB SWAP1 LOG3 POP JUMP JUMPDEST PUSH2 0xABE PUSH2 0x138A JUMP JUMPDEST DUP1 PUSH1 0x4 DUP2 SWAP1 SSTORE POP POP JUMP JUMPDEST PUSH1 0x6 DUP2 DUP2 SLOAD DUP2 LT PUSH2 0xAD8 JUMPI PUSH1 0x0 DUP1 REVERT JUMPDEST SWAP1 PUSH1 0x0 MSTORE PUSH1 0x20 PUSH1 0x0 KECCAK256 ADD PUSH1 0x0 SWAP2 POP SWAP1 POP SLOAD DUP2 JUMP JUMPDEST PUSH1 0x0 DUP1 PUSH1 0x0 SWAP1 SLOAD SWAP1 PUSH2 0x100 EXP SWAP1 DIV PUSH20 0xFFFFFFFFFFFFFFFFFFFFFFFFFFFFFFFFFFFFFFFF AND SWAP1 POP SWAP1 JUMP JUMPDEST PUSH1 0x3 DUP2 DUP2 SLOAD DUP2 LT PUSH2 0xB25 JUMPI PUSH1 0x0 DUP1 REVERT JUMPDEST SWAP1 PUSH1 0x0 MSTORE PUSH1 0x20 PUSH1 0x0 KECCAK256 ADD PUSH1 0x0 SWAP2 POP SWAP1 POP SLOAD DUP2 JUMP JUMPDEST PUSH2 0xB41 PUSH2 0x138A JUMP JUMPDEST DUP1 PUSH1 0x9 PUSH1 0x0 PUSH2 0x100 EXP DUP2 SLOAD DUP2 PUSH4 0xFFFFFFFF MUL NOT AND SWAP1 DUP4 PUSH4 0xFFFFFFFF AND MUL OR SWAP1 SSTORE POP POP JUMP JUMPDEST PUSH1 0xA PUSH1 0x20 MSTORE DUP1 PUSH1 0x0 MSTORE PUSH1 0x40 PUSH1 0x0 KECCAK256 PUSH1 0x0 SWAP2 POP SWAP1 POP DUP1 PUSH1 0x0 ADD PUSH1 0x0 SWAP1 SLOAD SWAP1 PUSH2 0x100 EXP SWAP1 DIV PUSH1 0xFF AND SWAP1 DUP1 PUSH1 0x0 ADD PUSH1 0x1 SWAP1 SLOAD SWAP1 PUSH2 0x100 EXP SWAP1 DIV PUSH1 0xFF AND SWAP1 POP DUP3 JUMP JUMPDEST PUSH1 0x4 SLOAD DUP2 JUMP JUMPDEST PUSH1 0xD PUSH1 0x20 MSTORE DUP1 PUSH1 0x0 MSTORE PUSH1 0x40 PUSH1 0x0 KECCAK256 PUSH1 0x0 SWAP2 POP SWAP1 POP SLOAD DUP2 JUMP JUMPDEST PUSH1 0x0 PUSH1 0x60 PUSH1 0xA PUSH1 0x0 DUP5 DUP2 MSTORE PUSH1 0x20 ADD SWAP1 DUP2 MSTORE PUSH1 0x20 ADD PUSH1 0x0 KECCAK256 PUSH1 0x0 ADD PUSH1 0x1 SWAP1 SLOAD SWAP1 PUSH2 0x100 EXP SWAP1 DIV PUSH1 0xFF AND PUSH2 0xC28 JUMPI PUSH1 0x40 MLOAD PUSH32 0x8C379A000000000000000000000000000000000000000000000000000000000 DUP2 MSTORE PUSH1 0x4 ADD PUSH2 0xC1F SWAP1 PUSH2 0x225F JUMP JUMPDEST PUSH1 0x40 MLOAD DUP1 SWAP2 SUB SWAP1 REVERT JUMPDEST PUSH1 0x0 PUSH1 0xA PUSH1 0x0 DUP6 DUP2 MSTORE PUSH1 0x20 ADD SWAP1 DUP2 MSTORE PUSH1 0x20 ADD PUSH1 0x0 KECCAK256 PUSH1 0x40 MLOAD DUP1 PUSH1 0x60 ADD PUSH1 0x40 MSTORE SWAP1 DUP2 PUSH1 0x0 DUP3 ADD PUSH1 0x0 SWAP1 SLOAD SWAP1 PUSH2 0x100 EXP SWAP1 DIV PUSH1 0xFF AND ISZERO ISZERO ISZERO ISZERO DUP2 MSTORE PUSH1 0x20 ADD PUSH1 0x0 DUP3 ADD PUSH1 0x1 SWAP1 SLOAD SWAP1 PUSH2 0x100 EXP SWAP1 DIV PUSH1 0xFF AND ISZERO ISZERO ISZERO ISZERO DUP2 MSTORE PUSH1 0x20 ADD PUSH1 0x1 DUP3 ADD DUP1 SLOAD DUP1 PUSH1 0x20 MUL PUSH1 0x20 ADD PUSH1 0x40 MLOAD SWAP1 DUP2 ADD PUSH1 0x40 MSTORE DUP1 SWAP3 SWAP2 SWAP1 DUP2 DUP2 MSTORE PUSH1 0x20 ADD DUP3 DUP1 SLOAD DUP1 ISZERO PUSH2 0xCCD JUMPI PUSH1 0x20 MUL DUP3 ADD SWAP2 SWAP1 PUSH1 0x0 MSTORE PUSH1 0x20 PUSH1 0x0 KECCAK256 SWAP1 JUMPDEST DUP2 SLOAD DUP2 MSTORE PUSH1 0x20 ADD SWAP1 PUSH1 0x1 ADD SWAP1 DUP1 DUP4 GT PUSH2 0xCB9 JUMPI JUMPDEST POP POP POP POP POP DUP2 MSTORE POP POP SWAP1 POP DUP1 PUSH1 0x0 ADD MLOAD DUP2 PUSH1 0x40 ADD MLOAD SWAP3 POP SWAP3 POP POP SWAP2 POP SWAP2 JUMP JUMPDEST PUSH1 0x4 SLOAD CALLVALUE LT ISZERO PUSH2 0xD31 JUMPI PUSH1 0x40 MLOAD PUSH32 0x8C379A000000000000000000000000000000000000000000000000000000000 DUP2 MSTORE PUSH1 0x4 ADD PUSH2 0xD28 SWAP1 PUSH2 0x22F1 JUMP JUMPDEST PUSH1 0x40 MLOAD DUP1 SWAP2 SUB SWAP1 REVERT JUMPDEST PUSH1 0x0 PUSH2 0xD3B PUSH2 0x14DF JUMP JUMPDEST SWAP1 POP PUSH1 0x40 MLOAD DUP1 PUSH1 0xA0 ADD PUSH1 0x40 MSTORE DUP1 CALLER PUSH20 0xFFFFFFFFFFFFFFFFFFFFFFFFFFFFFFFFFFFFFFFF AND DUP2 MSTORE PUSH1 0x20 ADD PUSH1 0x0 PUSH20 0xFFFFFFFFFFFFFFFFFFFFFFFFFFFFFFFFFFFFFFFF AND DUP2 MSTORE PUSH1 0x20 ADD DUP4 DUP2 MSTORE PUSH1 0x20 ADD PUSH1 0x0 ISZERO ISZERO DUP2 MSTORE PUSH1 0x20 ADD PUSH1 0x0 PUSH20 0xFFFFFFFFFFFFFFFFFFFFFFFFFFFFFFFFFFFFFFFF AND DUP2 MSTORE POP PUSH1 0xC PUSH1 0x0 DUP4 DUP2 MSTORE PUSH1 0x20 ADD SWAP1 DUP2 MSTORE PUSH1 0x20 ADD PUSH1 0x0 KECCAK256 PUSH1 0x0 DUP3 ADD MLOAD DUP2 PUSH1 0x0 ADD PUSH1 0x0 PUSH2 0x100 EXP DUP2 SLOAD DUP2 PUSH20 0xFFFFFFFFFFFFFFFFFFFFFFFFFFFFFFFFFFFFFFFF MUL NOT AND SWAP1 DUP4 PUSH20 0xFFFFFFFFFFFFFFFFFFFFFFFFFFFFFFFFFFFFFFFF AND MUL OR SWAP1 SSTORE POP PUSH1 0x20 DUP3 ADD MLOAD DUP2 PUSH1 0x1 ADD PUSH1 0x0 PUSH2 0x100 EXP DUP2 SLOAD DUP2 PUSH20 0xFFFFFFFFFFFFFFFFFFFFFFFFFFFFFFFFFFFFFFFF MUL NOT AND SWAP1 DUP4 PUSH20 0xFFFFFFFFFFFFFFFFFFFFFFFFFFFFFFFFFFFFFFFF AND MUL OR SWAP1 SSTORE POP PUSH1 0x40 DUP3 ADD MLOAD DUP2 PUSH1 0x2 ADD SSTORE PUSH1 0x60 DUP3 ADD MLOAD DUP2 PUSH1 0x3 ADD PUSH1 0x0 PUSH2 0x100 EXP DUP2 SLOAD DUP2 PUSH1 0xFF MUL NOT AND SWAP1 DUP4 ISZERO ISZERO MUL OR SWAP1 SSTORE POP PUSH1 0x80 DUP3 ADD MLOAD DUP2 PUSH1 0x3 ADD PUSH1 0x1 PUSH2 0x100 EXP DUP2 SLOAD DUP2 PUSH20 0xFFFFFFFFFFFFFFFFFFFFFFFFFFFFFFFFFFFFFFFF MUL NOT AND SWAP1 DUP4 PUSH20 0xFFFFFFFFFFFFFFFFFFFFFFFFFFFFFFFFFFFFFFFF AND MUL OR SWAP1 SSTORE POP SWAP1 POP POP PUSH1 0x3 DUP2 SWAP1 DUP1 PUSH1 0x1 DUP2 SLOAD ADD DUP1 DUP3 SSTORE DUP1 SWAP2 POP POP PUSH1 0x1 SWAP1 SUB SWAP1 PUSH1 0x0 MSTORE PUSH1 0x20 PUSH1 0x0 KECCAK256 ADD PUSH1 0x0 SWAP1 SWAP2 SWAP1 SWAP2 SWAP1 SWAP2 POP SSTORE CALLER PUSH20 0xFFFFFFFFFFFFFFFFFFFFFFFFFFFFFFFFFFFFFFFF AND DUP2 PUSH32 0xC82908456D66C43E9DE63EDD66F9FAF875C8F3A12F936E162D675EC42C35444 DUP5 PUSH1 0x40 MLOAD PUSH2 0xF30 SWAP2 SWAP1 PUSH2 0x1F44 JUMP JUMPDEST PUSH1 0x40 MLOAD DUP1 SWAP2 SUB SWAP1 LOG3 POP POP JUMP JUMPDEST PUSH1 0x0 PUSH1 0xC PUSH1 0x0 DUP4 DUP2 MSTORE PUSH1 0x20 ADD SWAP1 DUP2 MSTORE PUSH1 0x20 ADD PUSH1 0x0 KECCAK256 SWAP1 POP DUP1 PUSH1 0x3 ADD PUSH1 0x0 SWAP1 SLOAD SWAP1 PUSH2 0x100 EXP SWAP1 DIV PUSH1 0xFF AND ISZERO PUSH2 0xFA5 JUMPI PUSH1 0x40 MLOAD PUSH32 0x8C379A000000000000000000000000000000000000000000000000000000000 DUP2 MSTORE PUSH1 0x4 ADD PUSH2 0xF9C SWAP1 PUSH2 0x2187 JUMP JUMPDEST PUSH1 0x40 MLOAD DUP1 SWAP2 SUB SWAP1 REVERT JUMPDEST PUSH1 0x0 PUSH20 0xFFFFFFFFFFFFFFFFFFFFFFFFFFFFFFFFFFFFFFFF AND DUP2 PUSH1 0x1 ADD PUSH1 0x0 SWAP1 SLOAD SWAP1 PUSH2 0x100 EXP SWAP1 DIV PUSH20 0xFFFFFFFFFFFFFFFFFFFFFFFFFFFFFFFFFFFFFFFF AND PUSH20 0xFFFFFFFFFFFFFFFFFFFFFFFFFFFFFFFFFFFFFFFF AND EQ PUSH2 0x1038 JUMPI PUSH1 0x40 MLOAD PUSH32 0x8C379A000000000000000000000000000000000000000000000000000000000 DUP2 MSTORE PUSH1 0x4 ADD PUSH2 0x102F SWAP1 PUSH2 0x235D JUMP JUMPDEST PUSH1 0x40 MLOAD DUP1 SWAP2 SUB SWAP1 REVERT JUMPDEST DUP1 PUSH1 0x2 ADD SLOAD CALLVALUE EQ PUSH2 0x107E JUMPI PUSH1 0x40 MLOAD PUSH32 0x8C379A000000000000000000000000000000000000000000000000000000000 DUP2 MSTORE PUSH1 0x4 ADD PUSH2 0x1075 SWAP1 PUSH2 0x23C9 JUMP JUMPDEST PUSH1 0x40 MLOAD DUP1 SWAP2 SUB SWAP1 REVERT JUMPDEST PUSH1 0x0 PUSH20 0xFFFFFFFFFFFFFFFFFFFFFFFFFFFFFFFFFFFFFFFF AND DUP2 PUSH1 0x0 ADD PUSH1 0x0 SWAP1 SLOAD SWAP1 PUSH2 0x100 EXP SWAP1 DIV PUSH20 0xFFFFFFFFFFFFFFFFFFFFFFFFFFFFFFFFFFFFFFFF AND PUSH20 0xFFFFFFFFFFFFFFFFFFFFFFFFFFFFFFFFFFFFFFFF AND SUB PUSH2 0x1111 JUMPI PUSH1 0x40 MLOAD PUSH32 0x8C379A000000000000000000000000000000000000000000000000000000000 DUP2 MSTORE PUSH1 0x4 ADD PUSH2 0x1108 SWAP1 PUSH2 0x211B JUMP JUMPDEST PUSH1 0x40 MLOAD DUP1 SWAP2 SUB SWAP1 REVERT JUMPDEST DUP1 PUSH1 0x0 ADD PUSH1 0x0 SWAP1 SLOAD SWAP1 PUSH2 0x100 EXP SWAP1 DIV PUSH20 0xFFFFFFFFFFFFFFFFFFFFFFFFFFFFFFFFFFFFFFFF AND PUSH20 0xFFFFFFFFFFFFFFFFFFFFFFFFFFFFFFFFFFFFFFFF AND CALLER PUSH20 0xFFFFFFFFFFFFFFFFFFFFFFFFFFFFFFFFFFFFFFFF AND SUB PUSH2 0x11A3 JUMPI PUSH1 0x40 MLOAD PUSH32 0x8C379A000000000000000000000000000000000000000000000000000000000 DUP2 MSTORE PUSH1 0x4 ADD PUSH2 0x119A SWAP1 PUSH2 0x2435 JUMP JUMPDEST PUSH1 0x40 MLOAD DUP1 SWAP2 SUB SWAP1 REVERT JUMPDEST CALLER DUP2 PUSH1 0x1 ADD PUSH1 0x0 PUSH2 0x100 EXP DUP2 SLOAD DUP2 PUSH20 0xFFFFFFFFFFFFFFFFFFFFFFFFFFFFFFFFFFFFFFFF MUL NOT AND SWAP1 DUP4 PUSH20 0xFFFFFFFFFFFFFFFFFFFFFFFFFFFFFFFFFFFFFFFF AND MUL OR SWAP1 SSTORE POP PUSH1 0x0 PUSH2 0x11F0 PUSH2 0x152A JUMP JUMPDEST SWAP1 POP DUP3 PUSH1 0xD PUSH1 0x0 DUP4 DUP2 MSTORE PUSH1 0x20 ADD SWAP1 DUP2 MSTORE PUSH1 0x20 ADD PUSH1 0x0 KECCAK256 DUP2 SWAP1 SSTORE POP CALLER PUSH20 0xFFFFFFFFFFFFFFFFFFFFFFFFFFFFFFFFFFFFFFFF AND DUP4 PUSH32 0x87969BC7FAF902221A147B95CEBA76E011C5EFB0339A0A8EE7A2BB82D9CFBBD6 PUSH1 0x40 MLOAD PUSH1 0x40 MLOAD DUP1 SWAP2 SUB SWAP1 LOG3 POP POP POP JUMP JUMPDEST PUSH2 0x125B PUSH2 0x138A JUMP JUMPDEST PUSH2 0x1264 DUP2 PUSH2 0x177B JUMP JUMPDEST POP JUMP JUMPDEST PUSH1 0x7 SLOAD DUP2 JUMP JUMPDEST PUSH1 0xA PUSH1 0x0 DUP4 DUP2 MSTORE PUSH1 0x20 ADD SWAP1 DUP2 MSTORE PUSH1 0x20 ADD PUSH1 0x0 KECCAK256 PUSH1 0x0 ADD PUSH1 0x1 SWAP1 SLOAD SWAP1 PUSH2 0x100 EXP SWAP1 DIV PUSH1 0xFF AND PUSH2 0x12D0 JUMPI PUSH1 0x40 MLOAD PUSH32 0x8C379A000000000000000000000000000000000000000000000000000000000 DUP2 MSTORE PUSH1 0x4 ADD PUSH2 0x12C7 SWAP1 PUSH2 0x225F JUMP JUMPDEST PUSH1 0x40 MLOAD DUP1 SWAP2 SUB SWAP1 REVERT JUMPDEST PUSH1 0x1 PUSH1 0xA PUSH1 0x0 DUP5 DUP2 MSTORE PUSH1 0x20 ADD SWAP1 DUP2 MSTORE PUSH1 0x20 ADD PUSH1 0x0 KECCAK256 PUSH1 0x0 ADD PUSH1 0x0 PUSH2 0x100 EXP DUP2 SLOAD DUP2 PUSH1 0xFF MUL NOT AND SWAP1 DUP4 ISZERO ISZERO MUL OR SWAP1 SSTORE POP DUP1 PUSH1 0xA PUSH1 0x0 DUP5 DUP2 MSTORE PUSH1 0x20 ADD SWAP1 DUP2 MSTORE PUSH1 0x20 ADD PUSH1 0x0 KECCAK256 PUSH1 0x1 ADD SWAP1 DUP1 MLOAD SWAP1 PUSH1 0x20 ADD SWAP1 PUSH2 0x1329 SWAP3 SWAP2 SWAP1 PUSH2 0x1B10 JUMP JUMPDEST POP PUSH1 0x0 PUSH1 0xD PUSH1 0x0 DUP5 DUP2 MSTORE PUSH1 0x20 ADD SWAP1 DUP2 MSTORE PUSH1 0x20 ADD PUSH1 0x0 KECCAK256 SLOAD SWAP1 POP PUSH2 0x134C DUP2 DUP4 PUSH2 0x18A7 JUMP JUMPDEST PUSH32 0xFE2E2D779DBA245964D4E3EF9B994BE63856FD568BF7D3CA9E224755CB1BD54D DUP4 DUP4 PUSH1 0x40 MLOAD PUSH2 0x137D SWAP3 SWAP2 SWAP1 PUSH2 0x2455 JUMP JUMPDEST PUSH1 0x40 MLOAD DUP1 SWAP2 SUB SWAP1 LOG1 POP POP POP JUMP JUMPDEST PUSH1 0x0 DUP1 SLOAD SWAP1 PUSH2 0x100 EXP SWAP1 DIV PUSH20 0xFFFFFFFFFFFFFFFFFFFFFFFFFFFFFFFFFFFFFFFF AND PUSH20 0xFFFFFFFFFFFFFFFFFFFFFFFFFFFFFFFFFFFFFFFF AND CALLER PUSH20 0xFFFFFFFFFFFFFFFFFFFFFFFFFFFFFFFFFFFFFFFF AND EQ PUSH2 0x1418 JUMPI PUSH1 0x40 MLOAD PUSH32 0x8C379A000000000000000000000000000000000000000000000000000000000 DUP2 MSTORE PUSH1 0x4 ADD PUSH2 0x140F SWAP1 PUSH2 0x24D1 JUMP JUMPDEST PUSH1 0x40 MLOAD DUP1 SWAP2 SUB SWAP1 REVERT JUMPDEST JUMP JUMPDEST PUSH1 0x0 JUMPDEST PUSH1 0x3 DUP1 SLOAD SWAP1 POP DUP2 LT ISZERO PUSH2 0x14DB JUMPI DUP2 PUSH1 0x3 DUP3 DUP2 SLOAD DUP2 LT PUSH2 0x143F JUMPI PUSH2 0x143E PUSH2 0x24F1 JUMP JUMPDEST JUMPDEST SWAP1 PUSH1 0x0 MSTORE PUSH1 0x20 PUSH1 0x0 KECCAK256 ADD SLOAD SUB PUSH2 0x14CE JUMPI PUSH1 0x3 PUSH1 0x1 PUSH1 0x3 DUP1 SLOAD SWAP1 POP PUSH2 0x1463 SWAP2 SWAP1 PUSH2 0x254F JUMP JUMPDEST DUP2 SLOAD DUP2 LT PUSH2 0x1474 JUMPI PUSH2 0x1473 PUSH2 0x24F1 JUMP JUMPDEST JUMPDEST SWAP1 PUSH1 0x0 MSTORE PUSH1 0x20 PUSH1 0x0 KECCAK256 ADD SLOAD PUSH1 0x3 DUP3 DUP2 SLOAD DUP2 LT PUSH2 0x1493 JUMPI PUSH2 0x1492 PUSH2 0x24F1 JUMP JUMPDEST JUMPDEST SWAP1 PUSH1 0x0 MSTORE PUSH1 0x20 PUSH1 0x0 KECCAK256 ADD DUP2 SWAP1 SSTORE POP PUSH1 0x3 DUP1 SLOAD DUP1 PUSH2 0x14B3 JUMPI PUSH2 0x14B2 PUSH2 0x2583 JUMP JUMPDEST JUMPDEST PUSH1 0x1 SWAP1 SUB DUP2 DUP2 SWAP1 PUSH1 0x0 MSTORE PUSH1 0x20 PUSH1 0x0 KECCAK256 ADD PUSH1 0x0 SWAP1 SSTORE SWAP1 SSTORE PUSH2 0x14DB JUMP JUMPDEST DUP1 DUP1 PUSH1 0x1 ADD SWAP2 POP POP PUSH2 0x141D JUMP JUMPDEST POP POP JUMP JUMPDEST PUSH1 0x0 TIMESTAMP CALLER PUSH1 0x2 PUSH1 0x0 DUP2 SLOAD DUP1 SWAP3 SWAP2 SWAP1 PUSH2 0x14F6 SWAP1 PUSH2 0x25B2 JUMP JUMPDEST SWAP2 SWAP1 POP SSTORE PUSH1 0x40 MLOAD PUSH1 0x20 ADD PUSH2 0x150C SWAP4 SWAP3 SWAP2 SWAP1 PUSH2 0x2663 JUMP JUMPDEST PUSH1 0x40 MLOAD PUSH1 0x20 DUP2 DUP4 SUB SUB DUP2 MSTORE SWAP1 PUSH1 0x40 MSTORE DUP1 MLOAD SWAP1 PUSH1 0x20 ADD KECCAK256 PUSH1 0x0 SHR SWAP1 POP SWAP1 JUMP JUMPDEST PUSH1 0x0 PUSH1 0xB PUSH1 0x0 SWAP1 SLOAD SWAP1 PUSH2 0x100 EXP SWAP1 DIV PUSH20 0xFFFFFFFFFFFFFFFFFFFFFFFFFFFFFFFFFFFFFFFF AND PUSH20 0xFFFFFFFFFFFFFFFFFFFFFFFFFFFFFFFFFFFFFFFF AND PUSH4 0x5D3B1D30 PUSH1 0x8 SLOAD PUSH1 0x5 PUSH1 0x0 SWAP1 SLOAD SWAP1 PUSH2 0x100 EXP SWAP1 DIV PUSH8 0xFFFFFFFFFFFFFFFF AND PUSH1 0x9 PUSH1 0x4 SWAP1 SLOAD SWAP1 PUSH2 0x100 EXP SWAP1 DIV PUSH2 0xFFFF AND PUSH1 0x9 PUSH1 0x0 SWAP1 SLOAD SWAP1 PUSH2 0x100 EXP SWAP1 DIV PUSH4 0xFFFFFFFF AND PUSH1 0x9 PUSH1 0x6 SWAP1 SLOAD SWAP1 PUSH2 0x100 EXP SWAP1 DIV PUSH4 0xFFFFFFFF AND PUSH1 0x40 MLOAD DUP7 PUSH4 0xFFFFFFFF AND PUSH1 0xE0 SHL DUP2 MSTORE PUSH1 0x4 ADD PUSH2 0x15DB SWAP6 SWAP5 SWAP4 SWAP3 SWAP2 SWAP1 PUSH2 0x2708 JUMP JUMPDEST PUSH1 0x20 PUSH1 0x40 MLOAD DUP1 DUP4 SUB DUP2 PUSH1 0x0 DUP8 GAS CALL ISZERO DUP1 ISZERO PUSH2 0x15FA JUMPI RETURNDATASIZE PUSH1 0x0 DUP1 RETURNDATACOPY RETURNDATASIZE PUSH1 0x0 REVERT JUMPDEST POP POP POP POP PUSH1 0x40 MLOAD RETURNDATASIZE PUSH1 0x1F NOT PUSH1 0x1F DUP3 ADD AND DUP3 ADD DUP1 PUSH1 0x40 MSTORE POP DUP2 ADD SWAP1 PUSH2 0x161E SWAP2 SWAP1 PUSH2 0x2770 JUMP JUMPDEST SWAP1 POP PUSH1 0x40 MLOAD DUP1 PUSH1 0x60 ADD PUSH1 0x40 MSTORE DUP1 PUSH1 0x0 ISZERO ISZERO DUP2 MSTORE PUSH1 0x20 ADD PUSH1 0x1 ISZERO ISZERO DUP2 MSTORE PUSH1 0x20 ADD PUSH1 0x0 PUSH8 0xFFFFFFFFFFFFFFFF DUP2 GT ISZERO PUSH2 0x1658 JUMPI PUSH2 0x1657 PUSH2 0x1CC5 JUMP JUMPDEST JUMPDEST PUSH1 0x40 MLOAD SWAP1 DUP1 DUP3 MSTORE DUP1 PUSH1 0x20 MUL PUSH1 0x20 ADD DUP3 ADD PUSH1 0x40 MSTORE DUP1 ISZERO PUSH2 0x1686 JUMPI DUP2 PUSH1 0x20 ADD PUSH1 0x20 DUP3 MUL DUP1 CALLDATASIZE DUP4 CALLDATACOPY DUP1 DUP3 ADD SWAP2 POP POP SWAP1 POP JUMPDEST POP DUP2 MSTORE POP PUSH1 0xA PUSH1 0x0 DUP4 DUP2 MSTORE PUSH1 0x20 ADD SWAP1 DUP2 MSTORE PUSH1 0x20 ADD PUSH1 0x0 KECCAK256 PUSH1 0x0 DUP3 ADD MLOAD DUP2 PUSH1 0x0 ADD PUSH1 0x0 PUSH2 0x100 EXP DUP2 SLOAD DUP2 PUSH1 0xFF MUL NOT AND SWAP1 DUP4 ISZERO ISZERO MUL OR SWAP1 SSTORE POP PUSH1 0x20 DUP3 ADD MLOAD DUP2 PUSH1 0x0 ADD PUSH1 0x1 PUSH2 0x100 EXP DUP2 SLOAD DUP2 PUSH1 0xFF MUL NOT AND SWAP1 DUP4 ISZERO ISZERO MUL OR SWAP1 SSTORE POP PUSH1 0x40 DUP3 ADD MLOAD DUP2 PUSH1 0x1 ADD SWAP1 DUP1 MLOAD SWAP1 PUSH1 0x20 ADD SWAP1 PUSH2 0x16F9 SWAP3 SWAP2 SWAP1 PUSH2 0x1B10 JUMP JUMPDEST POP SWAP1 POP POP PUSH1 0x6 DUP2 SWAP1 DUP1 PUSH1 0x1 DUP2 SLOAD ADD DUP1 DUP3 SSTORE DUP1 SWAP2 POP POP PUSH1 0x1 SWAP1 SUB SWAP1 PUSH1 0x0 MSTORE PUSH1 0x20 PUSH1 0x0 KECCAK256 ADD PUSH1 0x0 SWAP1 SWAP2 SWAP1 SWAP2 SWAP1 SWAP2 POP SSTORE DUP1 PUSH1 0x7 DUP2 SWAP1 SSTORE POP PUSH32 0xCC58B13AD3EAB50626C6A6300B1D139CD6EBB1688A7CCED9461C2F7E762665EE DUP2 PUSH1 0x9 PUSH1 0x6 SWAP1 SLOAD SWAP1 PUSH2 0x100 EXP SWAP1 DIV PUSH4 0xFFFFFFFF AND PUSH1 0x40 MLOAD PUSH2 0x1770 SWAP3 SWAP2 SWAP1 PUSH2 0x279D JUMP JUMPDEST PUSH1 0x40 MLOAD DUP1 SWAP2 SUB SWAP1 LOG1 SWAP1 JUMP JUMPDEST CALLER PUSH20 0xFFFFFFFFFFFFFFFFFFFFFFFFFFFFFFFFFFFFFFFF AND DUP2 PUSH20 0xFFFFFFFFFFFFFFFFFFFFFFFFFFFFFFFFFFFFFFFF AND SUB PUSH2 0x17E9 JUMPI PUSH1 0x40 MLOAD PUSH32 0x8C379A000000000000000000000000000000000000000000000000000000000 DUP2 MSTORE PUSH1 0x4 ADD PUSH2 0x17E0 SWAP1 PUSH2 0x2812 JUMP JUMPDEST PUSH1 0x40 MLOAD DUP1 SWAP2 SUB SWAP1 REVERT JUMPDEST DUP1 PUSH1 0x1 PUSH1 0x0 PUSH2 0x100 EXP DUP2 SLOAD DUP2 PUSH20 0xFFFFFFFFFFFFFFFFFFFFFFFFFFFFFFFFFFFFFFFF MUL NOT AND SWAP1 DUP4 PUSH20 0xFFFFFFFFFFFFFFFFFFFFFFFFFFFFFFFFFFFFFFFF AND MUL OR SWAP1 SSTORE POP DUP1 PUSH20 0xFFFFFFFFFFFFFFFFFFFFFFFFFFFFFFFFFFFFFFFF AND PUSH1 0x0 DUP1 SLOAD SWAP1 PUSH2 0x100 EXP SWAP1 DIV PUSH20 0xFFFFFFFFFFFFFFFFFFFFFFFFFFFFFFFFFFFFFFFF AND PUSH20 0xFFFFFFFFFFFFFFFFFFFFFFFFFFFFFFFFFFFFFFFF AND PUSH32 0xED8889F560326EB138920D842192F0EB3DD22B4F139C87A2C57538E05BAE1278 PUSH1 0x40 MLOAD PUSH1 0x40 MLOAD DUP1 SWAP2 SUB SWAP1 LOG3 POP JUMP JUMPDEST PUSH1 0x0 PUSH1 0xC PUSH1 0x0 DUP5 DUP2 MSTORE PUSH1 0x20 ADD SWAP1 DUP2 MSTORE PUSH1 0x20 ADD PUSH1 0x0 KECCAK256 SWAP1 POP DUP1 PUSH1 0x3 ADD PUSH1 0x0 SWAP1 SLOAD SWAP1 PUSH2 0x100 EXP SWAP1 DIV PUSH1 0xFF AND ISZERO PUSH2 0x1910 JUMPI PUSH1 0x40 MLOAD PUSH32 0x8C379A000000000000000000000000000000000000000000000000000000000 DUP2 MSTORE PUSH1 0x4 ADD PUSH2 0x1907 SWAP1 PUSH2 0x287E JUMP JUMPDEST PUSH1 0x40 MLOAD DUP1 SWAP2 SUB SWAP1 REVERT JUMPDEST PUSH1 0x0 DUP3 PUSH1 0x40 MLOAD PUSH1 0x20 ADD PUSH2 0x1923 SWAP2 SWAP1 PUSH2 0x292E JUMP JUMPDEST PUSH1 0x40 MLOAD PUSH1 0x20 DUP2 DUP4 SUB SUB DUP2 MSTORE SWAP1 PUSH1 0x40 MSTORE DUP1 MLOAD SWAP1 PUSH1 0x20 ADD KECCAK256 PUSH1 0x0 SHR SWAP1 POP PUSH1 0x0 PUSH1 0x2 DUP3 PUSH2 0x194D SWAP2 SWAP1 PUSH2 0x2974 JUMP JUMPDEST EQ PUSH2 0x197C JUMPI DUP2 PUSH1 0x1 ADD PUSH1 0x0 SWAP1 SLOAD SWAP1 PUSH2 0x100 EXP SWAP1 DIV PUSH20 0xFFFFFFFFFFFFFFFFFFFFFFFFFFFFFFFFFFFFFFFF AND PUSH2 0x19A2 JUMP JUMPDEST DUP2 PUSH1 0x0 ADD PUSH1 0x0 SWAP1 SLOAD SWAP1 PUSH2 0x100 EXP SWAP1 DIV PUSH20 0xFFFFFFFFFFFFFFFFFFFFFFFFFFFFFFFFFFFFFFFF AND JUMPDEST DUP3 PUSH1 0x3 ADD PUSH1 0x1 PUSH2 0x100 EXP DUP2 SLOAD DUP2 PUSH20 0xFFFFFFFFFFFFFFFFFFFFFFFFFFFFFFFFFFFFFFFF MUL NOT AND SWAP1 DUP4 PUSH20 0xFFFFFFFFFFFFFFFFFFFFFFFFFFFFFFFFFFFFFFFF AND MUL OR SWAP1 SSTORE POP PUSH1 0x1 DUP3 PUSH1 0x3 ADD PUSH1 0x0 PUSH2 0x100 EXP DUP2 SLOAD DUP2 PUSH1 0xFF MUL NOT AND SWAP1 DUP4 ISZERO ISZERO MUL OR SWAP1 SSTORE POP DUP2 PUSH1 0x3 ADD PUSH1 0x1 SWAP1 SLOAD SWAP1 PUSH2 0x100 EXP SWAP1 DIV PUSH20 0xFFFFFFFFFFFFFFFFFFFFFFFFFFFFFFFFFFFFFFFF AND PUSH20 0xFFFFFFFFFFFFFFFFFFFFFFFFFFFFFFFFFFFFFFFF AND PUSH2 0x8FC PUSH2 0x1A57 PUSH1 0x2 DUP6 PUSH1 0x2 ADD SLOAD PUSH2 0x1AFA SWAP1 SWAP2 SWAP1 PUSH4 0xFFFFFFFF AND JUMP JUMPDEST SWAP1 DUP2 ISZERO MUL SWAP1 PUSH1 0x40 MLOAD PUSH1 0x0 PUSH1 0x40 MLOAD DUP1 DUP4 SUB DUP2 DUP6 DUP9 DUP9 CALL SWAP4 POP POP POP POP ISZERO DUP1 ISZERO PUSH2 0x1A82 JUMPI RETURNDATASIZE PUSH1 0x0 DUP1 RETURNDATACOPY RETURNDATASIZE PUSH1 0x0 REVERT JUMPDEST POP PUSH2 0x1A8C DUP5 PUSH2 0x141A JUMP JUMPDEST DUP2 PUSH1 0x3 ADD PUSH1 0x1 SWAP1 SLOAD SWAP1 PUSH2 0x100 EXP SWAP1 DIV PUSH20 0xFFFFFFFFFFFFFFFFFFFFFFFFFFFFFFFFFFFFFFFF AND PUSH20 0xFFFFFFFFFFFFFFFFFFFFFFFFFFFFFFFFFFFFFFFF AND DUP5 PUSH32 0x7F40DF5127524300187445E867486DA572AAB86769C0212E0B392BD87C4CA97F PUSH1 0x40 MLOAD PUSH1 0x40 MLOAD DUP1 SWAP2 SUB SWAP1 LOG3 POP POP POP POP JUMP JUMPDEST PUSH1 0x0 DUP2 DUP4 PUSH2 0x1B08 SWAP2 SWAP1 PUSH2 0x29A5 JUMP JUMPDEST SWAP1 POP SWAP3 SWAP2 POP POP JUMP JUMPDEST DUP3 DUP1 SLOAD DUP3 DUP3 SSTORE SWAP1 PUSH1 0x0 MSTORE PUSH1 0x20 PUSH1 0x0 KECCAK256 SWAP1 DUP2 ADD SWAP3 DUP3 ISZERO PUSH2 0x1B4C JUMPI SWAP2 PUSH1 0x20 MUL DUP3 ADD JUMPDEST DUP3 DUP2 GT ISZERO PUSH2 0x1B4B JUMPI DUP3 MLOAD DUP3 SSTORE SWAP2 PUSH1 0x20 ADD SWAP2 SWAP1 PUSH1 0x1 ADD SWAP1 PUSH2 0x1B30 JUMP JUMPDEST JUMPDEST POP SWAP1 POP PUSH2 0x1B59 SWAP2 SWAP1 PUSH2 0x1B5D JUMP JUMPDEST POP SWAP1 JUMP JUMPDEST JUMPDEST DUP1 DUP3 GT ISZERO PUSH2 0x1B76 JUMPI PUSH1 0x0 DUP2 PUSH1 0x0 SWAP1 SSTORE POP PUSH1 0x1 ADD PUSH2 0x1B5E JUMP JUMPDEST POP SWAP1 JUMP JUMPDEST PUSH1 0x0 PUSH1 0x40 MLOAD SWAP1 POP SWAP1 JUMP JUMPDEST PUSH1 0x0 DUP1 REVERT JUMPDEST PUSH1 0x0 DUP1 REVERT JUMPDEST PUSH1 0x0 DUP2 SWAP1 POP SWAP2 SWAP1 POP JUMP JUMPDEST PUSH2 0x1BA1 DUP2 PUSH2 0x1B8E JUMP JUMPDEST DUP2 EQ PUSH2 0x1BAC JUMPI PUSH1 0x0 DUP1 REVERT JUMPDEST POP JUMP JUMPDEST PUSH1 0x0 DUP2 CALLDATALOAD SWAP1 POP PUSH2 0x1BBE DUP2 PUSH2 0x1B98 JUMP JUMPDEST SWAP3 SWAP2 POP POP JUMP JUMPDEST PUSH1 0x0 PUSH1 0x20 DUP3 DUP5 SUB SLT ISZERO PUSH2 0x1BDA JUMPI PUSH2 0x1BD9 PUSH2 0x1B84 JUMP JUMPDEST JUMPDEST PUSH1 0x0 PUSH2 0x1BE8 DUP5 DUP3 DUP6 ADD PUSH2 0x1BAF JUMP JUMPDEST SWAP2 POP POP SWAP3 SWAP2 POP POP JUMP JUMPDEST PUSH1 0x0 PUSH20 0xFFFFFFFFFFFFFFFFFFFFFFFFFFFFFFFFFFFFFFFF DUP3 AND SWAP1 POP SWAP2 SWAP1 POP JUMP JUMPDEST PUSH1 0x0 PUSH2 0x1C1C DUP3 PUSH2 0x1BF1 JUMP JUMPDEST SWAP1 POP SWAP2 SWAP1 POP JUMP JUMPDEST PUSH2 0x1C2C DUP2 PUSH2 0x1C11 JUMP JUMPDEST DUP3 MSTORE POP POP JUMP JUMPDEST PUSH2 0x1C3B DUP2 PUSH2 0x1B8E JUMP JUMPDEST DUP3 MSTORE POP POP JUMP JUMPDEST PUSH1 0x0 DUP2 ISZERO ISZERO SWAP1 POP SWAP2 SWAP1 POP JUMP JUMPDEST PUSH2 0x1C56 DUP2 PUSH2 0x1C41 JUMP JUMPDEST DUP3 MSTORE POP POP JUMP JUMPDEST PUSH1 0x0 PUSH1 0xA0 DUP3 ADD SWAP1 POP PUSH2 0x1C71 PUSH1 0x0 DUP4 ADD DUP9 PUSH2 0x1C23 JUMP JUMPDEST PUSH2 0x1C7E PUSH1 0x20 DUP4 ADD DUP8 PUSH2 0x1C23 JUMP JUMPDEST PUSH2 0x1C8B PUSH1 0x40 DUP4 ADD DUP7 PUSH2 0x1C32 JUMP JUMPDEST PUSH2 0x1C98 PUSH1 0x60 DUP4 ADD DUP6 PUSH2 0x1C4D JUMP JUMPDEST PUSH2 0x1CA5 PUSH1 0x80 DUP4 ADD DUP5 PUSH2 0x1C23 JUMP JUMPDEST SWAP7 SWAP6 POP POP POP POP POP POP JUMP JUMPDEST PUSH1 0x0 DUP1 REVERT JUMPDEST PUSH1 0x0 PUSH1 0x1F NOT PUSH1 0x1F DUP4 ADD AND SWAP1 POP SWAP2 SWAP1 POP JUMP JUMPDEST PUSH32 0x4E487B7100000000000000000000000000000000000000000000000000000000 PUSH1 0x0 MSTORE PUSH1 0x41 PUSH1 0x4 MSTORE PUSH1 0x24 PUSH1 0x0 REVERT JUMPDEST PUSH2 0x1CFD DUP3 PUSH2 0x1CB4 JUMP JUMPDEST DUP2 ADD DUP2 DUP2 LT PUSH8 0xFFFFFFFFFFFFFFFF DUP3 GT OR ISZERO PUSH2 0x1D1C JUMPI PUSH2 0x1D1B PUSH2 0x1CC5 JUMP JUMPDEST JUMPDEST DUP1 PUSH1 0x40 MSTORE POP POP POP JUMP JUMPDEST PUSH1 0x0 PUSH2 0x1D2F PUSH2 0x1B7A JUMP JUMPDEST SWAP1 POP PUSH2 0x1D3B DUP3 DUP3 PUSH2 0x1CF4 JUMP JUMPDEST SWAP2 SWAP1 POP JUMP JUMPDEST PUSH1 0x0 PUSH8 0xFFFFFFFFFFFFFFFF DUP3 GT ISZERO PUSH2 0x1D5B JUMPI PUSH2 0x1D5A PUSH2 0x1CC5 JUMP JUMPDEST JUMPDEST PUSH1 0x20 DUP3 MUL SWAP1 POP PUSH1 0x20 DUP2 ADD SWAP1 POP SWAP2 SWAP1 POP JUMP JUMPDEST PUSH1 0x0 DUP1 REVERT JUMPDEST PUSH1 0x0 PUSH2 0x1D84 PUSH2 0x1D7F DUP5 PUSH2 0x1D40 JUMP JUMPDEST PUSH2 0x1D25 JUMP JUMPDEST SWAP1 POP DUP1 DUP4 DUP3 MSTORE PUSH1 0x20 DUP3 ADD SWAP1 POP PUSH1 0x20 DUP5 MUL DUP4 ADD DUP6 DUP2 GT ISZERO PUSH2 0x1DA7 JUMPI PUSH2 0x1DA6 PUSH2 0x1D6C JUMP JUMPDEST JUMPDEST DUP4 JUMPDEST DUP2 DUP2 LT ISZERO PUSH2 0x1DD0 JUMPI DUP1 PUSH2 0x1DBC DUP9 DUP3 PUSH2 0x1BAF JUMP JUMPDEST DUP5 MSTORE PUSH1 0x20 DUP5 ADD SWAP4 POP POP PUSH1 0x20 DUP2 ADD SWAP1 POP PUSH2 0x1DA9 JUMP JUMPDEST POP POP POP SWAP4 SWAP3 POP POP POP JUMP JUMPDEST PUSH1 0x0 DUP3 PUSH1 0x1F DUP4 ADD SLT PUSH2 0x1DEF JUMPI PUSH2 0x1DEE PUSH2 0x1CAF JUMP JUMPDEST JUMPDEST DUP2 CALLDATALOAD PUSH2 0x1DFF DUP5 DUP3 PUSH1 0x20 DUP7 ADD PUSH2 0x1D71 JUMP JUMPDEST SWAP2 POP POP SWAP3 SWAP2 POP POP JUMP JUMPDEST PUSH1 0x0 DUP1 PUSH1 0x40 DUP4 DUP6 SUB SLT ISZERO PUSH2 0x1E1F JUMPI PUSH2 0x1E1E PUSH2 0x1B84 JUMP JUMPDEST JUMPDEST PUSH1 0x0 PUSH2 0x1E2D DUP6 DUP3 DUP7 ADD PUSH2 0x1BAF JUMP JUMPDEST SWAP3 POP POP PUSH1 0x20 DUP4 ADD CALLDATALOAD PUSH8 0xFFFFFFFFFFFFFFFF DUP2 GT ISZERO PUSH2 0x1E4E JUMPI PUSH2 0x1E4D PUSH2 0x1B89 JUMP JUMPDEST JUMPDEST PUSH2 0x1E5A DUP6 DUP3 DUP7 ADD PUSH2 0x1DDA JUMP JUMPDEST SWAP2 POP POP SWAP3 POP SWAP3 SWAP1 POP JUMP JUMPDEST PUSH1 0x0 DUP2 MLOAD SWAP1 POP SWAP2 SWAP1 POP JUMP JUMPDEST PUSH1 0x0 DUP3 DUP3 MSTORE PUSH1 0x20 DUP3 ADD SWAP1 POP SWAP3 SWAP2 POP POP JUMP JUMPDEST PUSH1 0x0 DUP2 SWAP1 POP PUSH1 0x20 DUP3 ADD SWAP1 POP SWAP2 SWAP1 POP JUMP JUMPDEST PUSH2 0x1E99 DUP2 PUSH2 0x1B8E JUMP JUMPDEST DUP3 MSTORE POP POP JUMP JUMPDEST PUSH1 0x0 PUSH2 0x1EAB DUP4 DUP4 PUSH2 0x1E90 JUMP JUMPDEST PUSH1 0x20 DUP4 ADD SWAP1 POP SWAP3 SWAP2 POP POP JUMP JUMPDEST PUSH1 0x0 PUSH1 0x20 DUP3 ADD SWAP1 POP SWAP2 SWAP1 POP JUMP JUMPDEST PUSH1 0x0 PUSH2 0x1ECF DUP3 PUSH2 0x1E64 JUMP JUMPDEST PUSH2 0x1ED9 DUP2 DUP6 PUSH2 0x1E6F JUMP JUMPDEST SWAP4 POP PUSH2 0x1EE4 DUP4 PUSH2 0x1E80 JUMP JUMPDEST DUP1 PUSH1 0x0 JUMPDEST DUP4 DUP2 LT ISZERO PUSH2 0x1F15 JUMPI DUP2 MLOAD PUSH2 0x1EFC DUP9 DUP3 PUSH2 0x1E9F JUMP JUMPDEST SWAP8 POP PUSH2 0x1F07 DUP4 PUSH2 0x1EB7 JUMP JUMPDEST SWAP3 POP POP PUSH1 0x1 DUP2 ADD SWAP1 POP PUSH2 0x1EE8 JUMP JUMPDEST POP DUP6 SWAP4 POP POP POP POP SWAP3 SWAP2 POP POP JUMP JUMPDEST PUSH1 0x0 PUSH1 0x20 DUP3 ADD SWAP1 POP DUP2 DUP2 SUB PUSH1 0x0 DUP4 ADD MSTORE PUSH2 0x1F3C DUP2 DUP5 PUSH2 0x1EC4 JUMP JUMPDEST SWAP1 POP SWAP3 SWAP2 POP POP JUMP JUMPDEST PUSH1 0x0 PUSH1 0x20 DUP3 ADD SWAP1 POP PUSH2 0x1F59 PUSH1 0x0 DUP4 ADD DUP5 PUSH2 0x1C32 JUMP JUMPDEST SWAP3 SWAP2 POP POP JUMP JUMPDEST PUSH1 0x0 PUSH1 0x20 DUP3 ADD SWAP1 POP PUSH2 0x1F74 PUSH1 0x0 DUP4 ADD DUP5 PUSH2 0x1C23 JUMP JUMPDEST SWAP3 SWAP2 POP POP JUMP JUMPDEST PUSH1 0x0 PUSH4 0xFFFFFFFF DUP3 AND SWAP1 POP SWAP2 SWAP1 POP JUMP JUMPDEST PUSH2 0x1F93 DUP2 PUSH2 0x1F7A JUMP JUMPDEST DUP2 EQ PUSH2 0x1F9E JUMPI PUSH1 0x0 DUP1 REVERT JUMPDEST POP JUMP JUMPDEST PUSH1 0x0 DUP2 CALLDATALOAD SWAP1 POP PUSH2 0x1FB0 DUP2 PUSH2 0x1F8A JUMP JUMPDEST SWAP3 SWAP2 POP POP JUMP JUMPDEST PUSH1 0x0 PUSH1 0x20 DUP3 DUP5 SUB SLT ISZERO PUSH2 0x1FCC JUMPI PUSH2 0x1FCB PUSH2 0x1B84 JUMP JUMPDEST JUMPDEST PUSH1 0x0 PUSH2 0x1FDA DUP5 DUP3 DUP6 ADD PUSH2 0x1FA1 JUMP JUMPDEST SWAP2 POP POP SWAP3 SWAP2 POP POP JUMP JUMPDEST PUSH1 0x0 PUSH1 0x40 DUP3 ADD SWAP1 POP PUSH2 0x1FF8 PUSH1 0x0 DUP4 ADD DUP6 PUSH2 0x1C4D JUMP JUMPDEST PUSH2 0x2005 PUSH1 0x20 DUP4 ADD DUP5 PUSH2 0x1C4D JUMP JUMPDEST SWAP4 SWAP3 POP POP POP JUMP JUMPDEST PUSH1 0x0 PUSH1 0x40 DUP3 ADD SWAP1 POP PUSH2 0x2021 PUSH1 0x0 DUP4 ADD DUP6 PUSH2 0x1C4D JUMP JUMPDEST DUP2 DUP2 SUB PUSH1 0x20 DUP4 ADD MSTORE PUSH2 0x2033 DUP2 DUP5 PUSH2 0x1EC4 JUMP JUMPDEST SWAP1 POP SWAP4 SWAP3 POP POP POP JUMP JUMPDEST PUSH2 0x2045 DUP2 PUSH2 0x1C11 JUMP JUMPDEST DUP2 EQ PUSH2 0x2050 JUMPI PUSH1 0x0 DUP1 REVERT JUMPDEST POP JUMP JUMPDEST PUSH1 0x0 DUP2 CALLDATALOAD SWAP1 POP PUSH2 0x2062 DUP2 PUSH2 0x203C JUMP JUMPDEST SWAP3 SWAP2 POP POP JUMP JUMPDEST PUSH1 0x0 PUSH1 0x20 DUP3 DUP5 SUB SLT ISZERO PUSH2 0x207E JUMPI PUSH2 0x207D PUSH2 0x1B84 JUMP JUMPDEST JUMPDEST PUSH1 0x0 PUSH2 0x208C DUP5 DUP3 DUP6 ADD PUSH2 0x2053 JUMP JUMPDEST SWAP2 POP POP SWAP3 SWAP2 POP POP JUMP JUMPDEST PUSH1 0x0 PUSH1 0x40 DUP3 ADD SWAP1 POP PUSH2 0x20AA PUSH1 0x0 DUP4 ADD DUP6 PUSH2 0x1C23 JUMP JUMPDEST PUSH2 0x20B7 PUSH1 0x20 DUP4 ADD DUP5 PUSH2 0x1C23 JUMP JUMPDEST SWAP4 SWAP3 POP POP POP JUMP JUMPDEST PUSH1 0x0 DUP3 DUP3 MSTORE PUSH1 0x20 DUP3 ADD SWAP1 POP SWAP3 SWAP2 POP POP JUMP JUMPDEST PUSH32 0x47616D6520646F6573206E6F7420657869737400000000000000000000000000 PUSH1 0x0 DUP3 ADD MSTORE POP JUMP JUMPDEST PUSH1 0x0 PUSH2 0x2105 PUSH1 0x13 DUP4 PUSH2 0x20BE JUMP JUMPDEST SWAP2 POP PUSH2 0x2110 DUP3 PUSH2 0x20CF JUMP JUMPDEST PUSH1 0x20 DUP3 ADD SWAP1 POP SWAP2 SWAP1 POP JUMP JUMPDEST PUSH1 0x0 PUSH1 0x20 DUP3 ADD SWAP1 POP DUP2 DUP2 SUB PUSH1 0x0 DUP4 ADD MSTORE PUSH2 0x2134 DUP2 PUSH2 0x20F8 JUMP JUMPDEST SWAP1 POP SWAP2 SWAP1 POP JUMP JUMPDEST PUSH32 0x47616D6520697320636F6D706C65746564000000000000000000000000000000 PUSH1 0x0 DUP3 ADD MSTORE POP JUMP JUMPDEST PUSH1 0x0 PUSH2 0x2171 PUSH1 0x11 DUP4 PUSH2 0x20BE JUMP JUMPDEST SWAP2 POP PUSH2 0x217C DUP3 PUSH2 0x213B JUMP JUMPDEST PUSH1 0x20 DUP3 ADD SWAP1 POP SWAP2 SWAP1 POP JUMP JUMPDEST PUSH1 0x0 PUSH1 0x20 DUP3 ADD SWAP1 POP DUP2 DUP2 SUB PUSH1 0x0 DUP4 ADD MSTORE PUSH2 0x21A0 DUP2 PUSH2 0x2164 JUMP JUMPDEST SWAP1 POP SWAP2 SWAP1 POP JUMP JUMPDEST PUSH32 0x4D7573742062652070726F706F736564206F776E657200000000000000000000 PUSH1 0x0 DUP3 ADD MSTORE POP JUMP JUMPDEST PUSH1 0x0 PUSH2 0x21DD PUSH1 0x16 DUP4 PUSH2 0x20BE JUMP JUMPDEST SWAP2 POP PUSH2 0x21E8 DUP3 PUSH2 0x21A7 JUMP JUMPDEST PUSH1 0x20 DUP3 ADD SWAP1 POP SWAP2 SWAP1 POP JUMP JUMPDEST PUSH1 0x0 PUSH1 0x20 DUP3 ADD SWAP1 POP DUP2 DUP2 SUB PUSH1 0x0 DUP4 ADD MSTORE PUSH2 0x220C DUP2 PUSH2 0x21D0 JUMP JUMPDEST SWAP1 POP SWAP2 SWAP1 POP JUMP JUMPDEST PUSH32 0x72657175657374206E6F7420666F756E64000000000000000000000000000000 PUSH1 0x0 DUP3 ADD MSTORE POP JUMP JUMPDEST PUSH1 0x0 PUSH2 0x2249 PUSH1 0x11 DUP4 PUSH2 0x20BE JUMP JUMPDEST SWAP2 POP PUSH2 0x2254 DUP3 PUSH2 0x2213 JUMP JUMPDEST PUSH1 0x20 DUP3 ADD SWAP1 POP SWAP2 SWAP1 POP JUMP JUMPDEST PUSH1 0x0 PUSH1 0x20 DUP3 ADD SWAP1 POP DUP2 DUP2 SUB PUSH1 0x0 DUP4 ADD MSTORE PUSH2 0x2278 DUP2 PUSH2 0x223C JUMP JUMPDEST SWAP1 POP SWAP2 SWAP1 POP JUMP JUMPDEST PUSH32 0x576167657220616D6F756E74206973206C657373207468616E206D696E696D75 PUSH1 0x0 DUP3 ADD MSTORE PUSH32 0x6D57616765720000000000000000000000000000000000000000000000000000 PUSH1 0x20 DUP3 ADD MSTORE POP JUMP JUMPDEST PUSH1 0x0 PUSH2 0x22DB PUSH1 0x26 DUP4 PUSH2 0x20BE JUMP JUMPDEST SWAP2 POP PUSH2 0x22E6 DUP3 PUSH2 0x227F JUMP JUMPDEST PUSH1 0x40 DUP3 ADD SWAP1 POP SWAP2 SWAP1 POP JUMP JUMPDEST PUSH1 0x0 PUSH1 0x20 DUP3 ADD SWAP1 POP DUP2 DUP2 SUB PUSH1 0x0 DUP4 ADD MSTORE PUSH2 0x230A DUP2 PUSH2 0x22CE JUMP JUMPDEST SWAP1 POP SWAP2 SWAP1 POP JUMP JUMPDEST PUSH32 0x47616D6520697320616C7265616479206A6F696E656400000000000000000000 PUSH1 0x0 DUP3 ADD MSTORE POP JUMP JUMPDEST PUSH1 0x0 PUSH2 0x2347 PUSH1 0x16 DUP4 PUSH2 0x20BE JUMP JUMPDEST SWAP2 POP PUSH2 0x2352 DUP3 PUSH2 0x2311 JUMP JUMPDEST PUSH1 0x20 DUP3 ADD SWAP1 POP SWAP2 SWAP1 POP JUMP JUMPDEST PUSH1 0x0 PUSH1 0x20 DUP3 ADD SWAP1 POP DUP2 DUP2 SUB PUSH1 0x0 DUP4 ADD MSTORE PUSH2 0x2376 DUP2 PUSH2 0x233A JUMP JUMPDEST SWAP1 POP SWAP2 SWAP1 POP JUMP JUMPDEST PUSH32 0x496E636F727265637420616D6F756E742073656E740000000000000000000000 PUSH1 0x0 DUP3 ADD MSTORE POP JUMP JUMPDEST PUSH1 0x0 PUSH2 0x23B3 PUSH1 0x15 DUP4 PUSH2 0x20BE JUMP JUMPDEST SWAP2 POP PUSH2 0x23BE DUP3 PUSH2 0x237D JUMP JUMPDEST PUSH1 0x20 DUP3 ADD SWAP1 POP SWAP2 SWAP1 POP JUMP JUMPDEST PUSH1 0x0 PUSH1 0x20 DUP3 ADD SWAP1 POP DUP2 DUP2 SUB PUSH1 0x0 DUP4 ADD MSTORE PUSH2 0x23E2 DUP2 PUSH2 0x23A6 JUMP JUMPDEST SWAP1 POP SWAP2 SWAP1 POP JUMP JUMPDEST PUSH32 0x596F752063616E6E6F74206A6F696E20796F7572206F776E2067616D65000000 PUSH1 0x0 DUP3 ADD MSTORE POP JUMP JUMPDEST PUSH1 0x0 PUSH2 0x241F PUSH1 0x1D DUP4 PUSH2 0x20BE JUMP JUMPDEST SWAP2 POP PUSH2 0x242A DUP3 PUSH2 0x23E9 JUMP JUMPDEST PUSH1 0x20 DUP3 ADD SWAP1 POP SWAP2 SWAP1 POP JUMP JUMPDEST PUSH1 0x0 PUSH1 0x20 DUP3 ADD SWAP1 POP DUP2 DUP2 SUB PUSH1 0x0 DUP4 ADD MSTORE PUSH2 0x244E DUP2 PUSH2 0x2412 JUMP JUMPDEST SWAP1 POP SWAP2 SWAP1 POP JUMP JUMPDEST PUSH1 0x0 PUSH1 0x40 DUP3 ADD SWAP1 POP PUSH2 0x246A PUSH1 0x0 DUP4 ADD DUP6 PUSH2 0x1C32 JUMP JUMPDEST DUP2 DUP2 SUB PUSH1 0x20 DUP4 ADD MSTORE PUSH2 0x247C DUP2 DUP5 PUSH2 0x1EC4 JUMP JUMPDEST SWAP1 POP SWAP4 SWAP3 POP POP POP JUMP JUMPDEST PUSH32 0x4F6E6C792063616C6C61626C65206279206F776E657200000000000000000000 PUSH1 0x0 DUP3 ADD MSTORE POP JUMP JUMPDEST PUSH1 0x0 PUSH2 0x24BB PUSH1 0x16 DUP4 PUSH2 0x20BE JUMP JUMPDEST SWAP2 POP PUSH2 0x24C6 DUP3 PUSH2 0x2485 JUMP JUMPDEST PUSH1 0x20 DUP3 ADD SWAP1 POP SWAP2 SWAP1 POP JUMP JUMPDEST PUSH1 0x0 PUSH1 0x20 DUP3 ADD SWAP1 POP DUP2 DUP2 SUB PUSH1 0x0 DUP4 ADD MSTORE PUSH2 0x24EA DUP2 PUSH2 0x24AE JUMP JUMPDEST SWAP1 POP SWAP2 SWAP1 POP JUMP JUMPDEST PUSH32 0x4E487B7100000000000000000000000000000000000000000000000000000000 PUSH1 0x0 MSTORE PUSH1 0x32 PUSH1 0x4 MSTORE PUSH1 0x24 PUSH1 0x0 REVERT JUMPDEST PUSH32 0x4E487B7100000000000000000000000000000000000000000000000000000000 PUSH1 0x0 MSTORE PUSH1 0x11 PUSH1 0x4 MSTORE PUSH1 0x24 PUSH1 0x0 REVERT JUMPDEST PUSH1 0x0 PUSH2 0x255A DUP3 PUSH2 0x1B8E JUMP JUMPDEST SWAP2 POP PUSH2 0x2565 DUP4 PUSH2 0x1B8E JUMP JUMPDEST SWAP3 POP DUP3 DUP3 SUB SWAP1 POP DUP2 DUP2 GT ISZERO PUSH2 0x257D JUMPI PUSH2 0x257C PUSH2 0x2520 JUMP JUMPDEST JUMPDEST SWAP3 SWAP2 POP POP JUMP JUMPDEST PUSH32 0x4E487B7100000000000000000000000000000000000000000000000000000000 PUSH1 0x0 MSTORE PUSH1 0x31 PUSH1 0x4 MSTORE PUSH1 0x24 PUSH1 0x0 REVERT JUMPDEST PUSH1 0x0 PUSH2 0x25BD DUP3 PUSH2 0x1B8E JUMP JUMPDEST SWAP2 POP PUSH32 0xFFFFFFFFFFFFFFFFFFFFFFFFFFFFFFFFFFFFFFFFFFFFFFFFFFFFFFFFFFFFFFFF DUP3 SUB PUSH2 0x25EF JUMPI PUSH2 0x25EE PUSH2 0x2520 JUMP JUMPDEST JUMPDEST PUSH1 0x1 DUP3 ADD SWAP1 POP SWAP2 SWAP1 POP JUMP JUMPDEST PUSH1 0x0 DUP2 SWAP1 POP SWAP2 SWAP1 POP JUMP JUMPDEST PUSH2 0x2615 PUSH2 0x2610 DUP3 PUSH2 0x1B8E JUMP JUMPDEST PUSH2 0x25FA JUMP JUMPDEST DUP3 MSTORE POP POP JUMP JUMPDEST PUSH1 0x0 DUP2 PUSH1 0x60 SHL SWAP1 POP SWAP2 SWAP1 POP JUMP JUMPDEST PUSH1 0x0 PUSH2 0x2633 DUP3 PUSH2 0x261B JUMP JUMPDEST SWAP1 POP SWAP2 SWAP1 POP JUMP JUMPDEST PUSH1 0x0 PUSH2 0x2645 DUP3 PUSH2 0x2628 JUMP JUMPDEST SWAP1 POP SWAP2 SWAP1 POP JUMP JUMPDEST PUSH2 0x265D PUSH2 0x2658 DUP3 PUSH2 0x1C11 JUMP JUMPDEST PUSH2 0x263A JUMP JUMPDEST DUP3 MSTORE POP POP JUMP JUMPDEST PUSH1 0x0 PUSH2 0x266F DUP3 DUP7 PUSH2 0x2604 JUMP JUMPDEST PUSH1 0x20 DUP3 ADD SWAP2 POP PUSH2 0x267F DUP3 DUP6 PUSH2 0x264C JUMP JUMPDEST PUSH1 0x14 DUP3 ADD SWAP2 POP PUSH2 0x268F DUP3 DUP5 PUSH2 0x2604 JUMP JUMPDEST PUSH1 0x20 DUP3 ADD SWAP2 POP DUP2 SWAP1 POP SWAP5 SWAP4 POP POP POP POP JUMP JUMPDEST PUSH1 0x0 DUP2 SWAP1 POP SWAP2 SWAP1 POP JUMP JUMPDEST PUSH2 0x26B3 DUP2 PUSH2 0x26A0 JUMP JUMPDEST DUP3 MSTORE POP POP JUMP JUMPDEST PUSH1 0x0 PUSH8 0xFFFFFFFFFFFFFFFF DUP3 AND SWAP1 POP SWAP2 SWAP1 POP JUMP JUMPDEST PUSH2 0x26D6 DUP2 PUSH2 0x26B9 JUMP JUMPDEST DUP3 MSTORE POP POP JUMP JUMPDEST PUSH1 0x0 PUSH2 0xFFFF DUP3 AND SWAP1 POP SWAP2 SWAP1 POP JUMP JUMPDEST PUSH2 0x26F3 DUP2 PUSH2 0x26DC JUMP JUMPDEST DUP3 MSTORE POP POP JUMP JUMPDEST PUSH2 0x2702 DUP2 PUSH2 0x1F7A JUMP JUMPDEST DUP3 MSTORE POP POP JUMP JUMPDEST PUSH1 0x0 PUSH1 0xA0 DUP3 ADD SWAP1 POP PUSH2 0x271D PUSH1 0x0 DUP4 ADD DUP9 PUSH2 0x26AA JUMP JUMPDEST PUSH2 0x272A PUSH1 0x20 DUP4 ADD DUP8 PUSH2 0x26CD JUMP JUMPDEST PUSH2 0x2737 PUSH1 0x40 DUP4 ADD DUP7 PUSH2 0x26EA JUMP JUMPDEST PUSH2 0x2744 PUSH1 0x60 DUP4 ADD DUP6 PUSH2 0x26F9 JUMP JUMPDEST PUSH2 0x2751 PUSH1 0x80 DUP4 ADD DUP5 PUSH2 0x26F9 JUMP JUMPDEST SWAP7 SWAP6 POP POP POP POP POP POP JUMP JUMPDEST PUSH1 0x0 DUP2 MLOAD SWAP1 POP PUSH2 0x276A DUP2 PUSH2 0x1B98 JUMP JUMPDEST SWAP3 SWAP2 POP POP JUMP JUMPDEST PUSH1 0x0 PUSH1 0x20 DUP3 DUP5 SUB SLT ISZERO PUSH2 0x2786 JUMPI PUSH2 0x2785 PUSH2 0x1B84 JUMP JUMPDEST JUMPDEST PUSH1 0x0 PUSH2 0x2794 DUP5 DUP3 DUP6 ADD PUSH2 0x275B JUMP JUMPDEST SWAP2 POP POP SWAP3 SWAP2 POP POP JUMP JUMPDEST PUSH1 0x0 PUSH1 0x40 DUP3 ADD SWAP1 POP PUSH2 0x27B2 PUSH1 0x0 DUP4 ADD DUP6 PUSH2 0x1C32 JUMP JUMPDEST PUSH2 0x27BF PUSH1 0x20 DUP4 ADD DUP5 PUSH2 0x26F9 JUMP JUMPDEST SWAP4 SWAP3 POP POP POP JUMP JUMPDEST PUSH32 0x43616E6E6F74207472616E7366657220746F2073656C66000000000000000000 PUSH1 0x0 DUP3 ADD MSTORE POP JUMP JUMPDEST PUSH1 0x0 PUSH2 0x27FC PUSH1 0x17 DUP4 PUSH2 0x20BE JUMP JUMPDEST SWAP2 POP PUSH2 0x2807 DUP3 PUSH2 0x27C6 JUMP JUMPDEST PUSH1 0x20 DUP3 ADD SWAP1 POP SWAP2 SWAP1 POP JUMP JUMPDEST PUSH1 0x0 PUSH1 0x20 DUP3 ADD SWAP1 POP DUP2 DUP2 SUB PUSH1 0x0 DUP4 ADD MSTORE PUSH2 0x282B DUP2 PUSH2 0x27EF JUMP JUMPDEST SWAP1 POP SWAP2 SWAP1 POP JUMP JUMPDEST PUSH32 0x47616D6520697320616C726561647920636F6D706C6574656400000000000000 PUSH1 0x0 DUP3 ADD MSTORE POP JUMP JUMPDEST PUSH1 0x0 PUSH2 0x2868 PUSH1 0x19 DUP4 PUSH2 0x20BE JUMP JUMPDEST SWAP2 POP PUSH2 0x2873 DUP3 PUSH2 0x2832 JUMP JUMPDEST PUSH1 0x20 DUP3 ADD SWAP1 POP SWAP2 SWAP1 POP JUMP JUMPDEST PUSH1 0x0 PUSH1 0x20 DUP3 ADD SWAP1 POP DUP2 DUP2 SUB PUSH1 0x0 DUP4 ADD MSTORE PUSH2 0x2897 DUP2 PUSH2 0x285B JUMP JUMPDEST SWAP1 POP SWAP2 SWAP1 POP JUMP JUMPDEST PUSH1 0x0 DUP2 SWAP1 POP SWAP3 SWAP2 POP POP JUMP JUMPDEST PUSH2 0x28B2 DUP2 PUSH2 0x1B8E JUMP JUMPDEST DUP3 MSTORE POP POP JUMP JUMPDEST PUSH1 0x0 PUSH2 0x28C4 DUP4 DUP4 PUSH2 0x28A9 JUMP JUMPDEST PUSH1 0x20 DUP4 ADD SWAP1 POP SWAP3 SWAP2 POP POP JUMP JUMPDEST PUSH1 0x0 PUSH2 0x28DB DUP3 PUSH2 0x1E64 JUMP JUMPDEST PUSH2 0x28E5 DUP2 DUP6 PUSH2 0x289E JUMP JUMPDEST SWAP4 POP PUSH2 0x28F0 DUP4 PUSH2 0x1E80 JUMP JUMPDEST DUP1 PUSH1 0x0 JUMPDEST DUP4 DUP2 LT ISZERO PUSH2 0x2921 JUMPI DUP2 MLOAD PUSH2 0x2908 DUP9 DUP3 PUSH2 0x28B8 JUMP JUMPDEST SWAP8 POP PUSH2 0x2913 DUP4 PUSH2 0x1EB7 JUMP JUMPDEST SWAP3 POP POP PUSH1 0x1 DUP2 ADD SWAP1 POP PUSH2 0x28F4 JUMP JUMPDEST POP DUP6 SWAP4 POP POP POP POP SWAP3 SWAP2 POP POP JUMP JUMPDEST PUSH1 0x0 PUSH2 0x293A DUP3 DUP5 PUSH2 0x28D0 JUMP JUMPDEST SWAP2 POP DUP2 SWAP1 POP SWAP3 SWAP2 POP POP JUMP JUMPDEST PUSH32 0x4E487B7100000000000000000000000000000000000000000000000000000000 PUSH1 0x0 MSTORE PUSH1 0x12 PUSH1 0x4 MSTORE PUSH1 0x24 PUSH1 0x0 REVERT JUMPDEST PUSH1 0x0 PUSH2 0x297F DUP3 PUSH2 0x1B8E JUMP JUMPDEST SWAP2 POP PUSH2 0x298A DUP4 PUSH2 0x1B8E JUMP JUMPDEST SWAP3 POP DUP3 PUSH2 0x299A JUMPI PUSH2 0x2999 PUSH2 0x2945 JUMP JUMPDEST JUMPDEST DUP3 DUP3 MOD SWAP1 POP SWAP3 SWAP2 POP POP JUMP JUMPDEST PUSH1 0x0 PUSH2 0x29B0 DUP3 PUSH2 0x1B8E JUMP JUMPDEST SWAP2 POP PUSH2 0x29BB DUP4 PUSH2 0x1B8E JUMP JUMPDEST SWAP3 POP DUP3 DUP3 MUL PUSH2 0x29C9 DUP2 PUSH2 0x1B8E JUMP JUMPDEST SWAP2 POP DUP3 DUP3 DIV DUP5 EQ DUP4 ISZERO OR PUSH2 0x29E0 JUMPI PUSH2 0x29DF PUSH2 0x2520 JUMP JUMPDEST JUMPDEST POP SWAP3 SWAP2 POP POP JUMP INVALID LOG2 PUSH5 0x6970667358 0x22 SLT KECCAK256 0xE2 GAS 0xDA SLOAD SWAP11 0xD7 KECCAK256 MOD ADD 0xBF PUSH21 0x4E42055EF2A099DDF6D54C00F5DF382B187D80C088 PUSH5 0x736F6C6343 STOP ADDMOD AND STOP CALLER "
				},
				"gasEstimates": {
					"creation": {
						"codeDepositCost": "2156200",
						"executionCost": "infinite",
						"totalCost": "infinite"
					},
					"external": {
						"acceptOwnership()": "54563",
						"activeGameIds(uint256)": "infinite",
						"cancelGame(uint256)": "infinite",
						"gameIdByRequestId(uint256)": "infinite",
						"games(uint256)": "infinite",
						"getActiveGameIds()": "infinite",
						"getRequestStatus(uint256)": "infinite",
						"joinGame(uint256)": "infinite",
						"lastRequestId()": "2539",
						"minimumWager()": "2496",
						"owner()": "2611",
						"rawFulfillRandomWords(uint256,uint256[])": "infinite",
						"requestIds(uint256)": "infinite",
						"s_requests(uint256)": "infinite",
						"setCallback(uint32)": "26893",
						"setMinimumWager(uint256)": "24756",
						"startGame(uint256)": "infinite",
						"transferOwnership(address)": "30742"
					},
					"internal": {
						"_completeGame(uint256,uint256[] memory)": "infinite",
						"_generateGameId()": "infinite",
						"_removeGameFromActiveList(uint256)": "infinite",
						"fulfillRandomWords(uint256,uint256[] memory)": "infinite",
						"requestRandomWords()": "infinite"
					}
				},
				"methodIdentifiers": {
					"acceptOwnership()": "79ba5097",
					"activeGameIds(uint256)": "8ee67472",
					"cancelGame(uint256)": "69958ab9",
					"gameIdByRequestId(uint256)": "b4a91e1e",
					"games(uint256)": "117a5b90",
					"getActiveGameIds()": "6916c9b0",
					"getRequestStatus(uint256)": "d8a4676f",
					"joinGame(uint256)": "efaa55a0",
					"lastRequestId()": "fc2a88c3",
					"minimumWager()": "b19068c7",
					"owner()": "8da5cb5b",
					"rawFulfillRandomWords(uint256,uint256[])": "1fe543e3",
					"requestIds(uint256)": "8796ba8c",
					"s_requests(uint256)": "a168fa89",
					"setCallback(uint32)": "978fffb8",
					"setMinimumWager(uint256)": "7f7f8968",
					"startGame(uint256)": "e5ed1d59",
					"transferOwnership(address)": "f2fde38b"
				}
			},
			"storageLayout": {
				"storage": [
					{
						"astId": 123,
						"contract": "coqfighttestnet.sol:CoqFightTestnet",
						"label": "s_owner",
						"offset": 0,
						"slot": "0",
						"type": "t_address"
					},
					{
						"astId": 125,
						"contract": "coqfighttestnet.sol:CoqFightTestnet",
						"label": "s_pendingOwner",
						"offset": 0,
						"slot": "1",
						"type": "t_address"
					},
					{
						"astId": 758,
						"contract": "coqfighttestnet.sol:CoqFightTestnet",
						"label": "gameCounter",
						"offset": 0,
						"slot": "2",
						"type": "t_uint256"
					},
					{
						"astId": 761,
						"contract": "coqfighttestnet.sol:CoqFightTestnet",
						"label": "activeGameIds",
						"offset": 0,
						"slot": "3",
						"type": "t_array(t_uint256)dyn_storage"
					},
					{
						"astId": 763,
						"contract": "coqfighttestnet.sol:CoqFightTestnet",
						"label": "minimumWager",
						"offset": 0,
						"slot": "4",
						"type": "t_uint256"
					},
					{
						"astId": 765,
						"contract": "coqfighttestnet.sol:CoqFightTestnet",
						"label": "s_subscriptionId",
						"offset": 0,
						"slot": "5",
						"type": "t_uint64"
					},
					{
						"astId": 768,
						"contract": "coqfighttestnet.sol:CoqFightTestnet",
						"label": "requestIds",
						"offset": 0,
						"slot": "6",
						"type": "t_array(t_uint256)dyn_storage"
					},
					{
						"astId": 770,
						"contract": "coqfighttestnet.sol:CoqFightTestnet",
						"label": "lastRequestId",
						"offset": 0,
						"slot": "7",
						"type": "t_uint256"
					},
					{
						"astId": 773,
						"contract": "coqfighttestnet.sol:CoqFightTestnet",
						"label": "keyHash",
						"offset": 0,
						"slot": "8",
						"type": "t_bytes32"
					},
					{
						"astId": 776,
						"contract": "coqfighttestnet.sol:CoqFightTestnet",
						"label": "callbackGasLimit",
						"offset": 0,
						"slot": "9",
						"type": "t_uint32"
					},
					{
						"astId": 779,
						"contract": "coqfighttestnet.sol:CoqFightTestnet",
						"label": "requestConfirmations",
						"offset": 4,
						"slot": "9",
						"type": "t_uint16"
					},
					{
						"astId": 782,
						"contract": "coqfighttestnet.sol:CoqFightTestnet",
						"label": "numWords",
						"offset": 6,
						"slot": "9",
						"type": "t_uint32"
					},
					{
						"astId": 806,
						"contract": "coqfighttestnet.sol:CoqFightTestnet",
						"label": "s_requests",
						"offset": 0,
						"slot": "10",
						"type": "t_mapping(t_uint256,t_struct(RequestStatus)801_storage)"
					},
					{
						"astId": 809,
						"contract": "coqfighttestnet.sol:CoqFightTestnet",
						"label": "COORDINATOR",
						"offset": 0,
						"slot": "11",
						"type": "t_contract(VRFCoordinatorV2Interface)95"
					},
					{
						"astId": 814,
						"contract": "coqfighttestnet.sol:CoqFightTestnet",
						"label": "games",
						"offset": 0,
						"slot": "12",
						"type": "t_mapping(t_uint256,t_struct(Game)793_storage)"
					},
					{
						"astId": 818,
						"contract": "coqfighttestnet.sol:CoqFightTestnet",
						"label": "gameIdByRequestId",
						"offset": 0,
						"slot": "13",
						"type": "t_mapping(t_uint256,t_uint256)"
					}
				],
				"types": {
					"t_address": {
						"encoding": "inplace",
						"label": "address",
						"numberOfBytes": "20"
					},
					"t_array(t_uint256)dyn_storage": {
						"base": "t_uint256",
						"encoding": "dynamic_array",
						"label": "uint256[]",
						"numberOfBytes": "32"
					},
					"t_bool": {
						"encoding": "inplace",
						"label": "bool",
						"numberOfBytes": "1"
					},
					"t_bytes32": {
						"encoding": "inplace",
						"label": "bytes32",
						"numberOfBytes": "32"
					},
					"t_contract(VRFCoordinatorV2Interface)95": {
						"encoding": "inplace",
						"label": "contract VRFCoordinatorV2Interface",
						"numberOfBytes": "20"
					},
					"t_mapping(t_uint256,t_struct(Game)793_storage)": {
						"encoding": "mapping",
						"key": "t_uint256",
						"label": "mapping(uint256 => struct CoqFightTestnet.Game)",
						"numberOfBytes": "32",
						"value": "t_struct(Game)793_storage"
					},
					"t_mapping(t_uint256,t_struct(RequestStatus)801_storage)": {
						"encoding": "mapping",
						"key": "t_uint256",
						"label": "mapping(uint256 => struct CoqFightTestnet.RequestStatus)",
						"numberOfBytes": "32",
						"value": "t_struct(RequestStatus)801_storage"
					},
					"t_mapping(t_uint256,t_uint256)": {
						"encoding": "mapping",
						"key": "t_uint256",
						"label": "mapping(uint256 => uint256)",
						"numberOfBytes": "32",
						"value": "t_uint256"
					},
					"t_struct(Game)793_storage": {
						"encoding": "inplace",
						"label": "struct CoqFightTestnet.Game",
						"members": [
							{
								"astId": 784,
								"contract": "coqfighttestnet.sol:CoqFightTestnet",
								"label": "player1",
								"offset": 0,
								"slot": "0",
								"type": "t_address"
							},
							{
								"astId": 786,
								"contract": "coqfighttestnet.sol:CoqFightTestnet",
								"label": "player2",
								"offset": 0,
								"slot": "1",
								"type": "t_address"
							},
							{
								"astId": 788,
								"contract": "coqfighttestnet.sol:CoqFightTestnet",
								"label": "wager",
								"offset": 0,
								"slot": "2",
								"type": "t_uint256"
							},
							{
								"astId": 790,
								"contract": "coqfighttestnet.sol:CoqFightTestnet",
								"label": "completed",
								"offset": 0,
								"slot": "3",
								"type": "t_bool"
							},
							{
								"astId": 792,
								"contract": "coqfighttestnet.sol:CoqFightTestnet",
								"label": "winner",
								"offset": 1,
								"slot": "3",
								"type": "t_address"
							}
						],
						"numberOfBytes": "128"
					},
					"t_struct(RequestStatus)801_storage": {
						"encoding": "inplace",
						"label": "struct CoqFightTestnet.RequestStatus",
						"members": [
							{
								"astId": 795,
								"contract": "coqfighttestnet.sol:CoqFightTestnet",
								"label": "fulfilled",
								"offset": 0,
								"slot": "0",
								"type": "t_bool"
							},
							{
								"astId": 797,
								"contract": "coqfighttestnet.sol:CoqFightTestnet",
								"label": "exists",
								"offset": 1,
								"slot": "0",
								"type": "t_bool"
							},
							{
								"astId": 800,
								"contract": "coqfighttestnet.sol:CoqFightTestnet",
								"label": "randomWords",
								"offset": 0,
								"slot": "1",
								"type": "t_array(t_uint256)dyn_storage"
							}
						],
						"numberOfBytes": "64"
					},
					"t_uint16": {
						"encoding": "inplace",
						"label": "uint16",
						"numberOfBytes": "2"
					},
					"t_uint256": {
						"encoding": "inplace",
						"label": "uint256",
						"numberOfBytes": "32"
					},
					"t_uint32": {
						"encoding": "inplace",
						"label": "uint32",
						"numberOfBytes": "4"
					},
					"t_uint64": {
						"encoding": "inplace",
						"label": "uint64",
						"numberOfBytes": "8"
					}
				}
			},
			"userdoc": {
				"kind": "user",
				"methods": {
					"acceptOwnership()": {
						"notice": "Allows an ownership transfer to be completed by the recipient."
					},
					"owner()": {
						"notice": "Get the current owner"
					},
					"transferOwnership(address)": {
						"notice": "Allows an owner to begin transferring ownership to a new address, pending."
					}
				},
				"version": 1
			}
		}
	}
}