{
	"coqtesting.sol": {
		"CoqFightTestnet": {
			"abi": [
				{
					"inputs": [
						{
							"internalType": "uint64",
							"name": "subscriptionId",
							"type": "uint64"
						}
					],
					"stateMutability": "nonpayable",
					"type": "constructor"
				},
				{
					"inputs": [
						{
							"internalType": "address",
							"name": "have",
							"type": "address"
						},
						{
							"internalType": "address",
							"name": "want",
							"type": "address"
						}
					],
					"name": "OnlyCoordinatorCanFulfill",
					"type": "error"
				},
				{
					"anonymous": false,
					"inputs": [
						{
							"indexed": true,
							"internalType": "uint256",
							"name": "gameId",
							"type": "uint256"
						}
					],
					"name": "GameCancelled",
					"type": "event"
				},
				{
					"anonymous": false,
					"inputs": [
						{
							"indexed": true,
							"internalType": "uint256",
							"name": "gameId",
							"type": "uint256"
						},
						{
							"indexed": true,
							"internalType": "address",
							"name": "winner",
							"type": "address"
						}
					],
					"name": "GameCompleted",
					"type": "event"
				},
				{
					"anonymous": false,
					"inputs": [
						{
							"indexed": true,
							"internalType": "uint256",
							"name": "gameId",
							"type": "uint256"
						},
						{
							"indexed": true,
							"internalType": "address",
							"name": "player1",
							"type": "address"
						},
						{
							"indexed": false,
							"internalType": "uint256",
							"name": "wager",
							"type": "uint256"
						}
					],
					"name": "GameStarted",
					"type": "event"
				},
				{
					"anonymous": false,
					"inputs": [
						{
							"indexed": true,
							"internalType": "address",
							"name": "from",
							"type": "address"
						},
						{
							"indexed": true,
							"internalType": "address",
							"name": "to",
							"type": "address"
						}
					],
					"name": "OwnershipTransferRequested",
					"type": "event"
				},
				{
					"anonymous": false,
					"inputs": [
						{
							"indexed": true,
							"internalType": "address",
							"name": "from",
							"type": "address"
						},
						{
							"indexed": true,
							"internalType": "address",
							"name": "to",
							"type": "address"
						}
					],
					"name": "OwnershipTransferred",
					"type": "event"
				},
				{
					"anonymous": false,
					"inputs": [
						{
							"indexed": true,
							"internalType": "uint256",
							"name": "gameId",
							"type": "uint256"
						},
						{
							"indexed": true,
							"internalType": "address",
							"name": "player2",
							"type": "address"
						}
					],
					"name": "PlayerJoined",
					"type": "event"
				},
				{
					"anonymous": false,
					"inputs": [
						{
							"indexed": false,
							"internalType": "uint256",
							"name": "requestId",
							"type": "uint256"
						},
						{
							"indexed": false,
							"internalType": "uint256[]",
							"name": "randomWords",
							"type": "uint256[]"
						}
					],
					"name": "RequestFulfilled",
					"type": "event"
				},
				{
					"anonymous": false,
					"inputs": [
						{
							"indexed": false,
							"internalType": "uint256",
							"name": "requestId",
							"type": "uint256"
						},
						{
							"indexed": false,
							"internalType": "uint32",
							"name": "numWords",
							"type": "uint32"
						}
					],
					"name": "RequestSent",
					"type": "event"
				},
				{
					"inputs": [],
					"name": "acceptOwnership",
					"outputs": [],
					"stateMutability": "nonpayable",
					"type": "function"
				},
				{
					"inputs": [
						{
							"internalType": "uint256",
							"name": "",
							"type": "uint256"
						}
					],
					"name": "activeGameIds",
					"outputs": [
						{
							"internalType": "uint256",
							"name": "",
							"type": "uint256"
						}
					],
					"stateMutability": "view",
					"type": "function"
				},
				{
					"inputs": [
						{
							"internalType": "uint256",
							"name": "_gameId",
							"type": "uint256"
						}
					],
					"name": "cancelGame",
					"outputs": [],
					"stateMutability": "nonpayable",
					"type": "function"
				},
				{
					"inputs": [
						{
							"internalType": "uint256",
							"name": "",
							"type": "uint256"
						}
					],
					"name": "gameIdByRequestId",
					"outputs": [
						{
							"internalType": "uint256",
							"name": "",
							"type": "uint256"
						}
					],
					"stateMutability": "view",
					"type": "function"
				},
				{
					"inputs": [
						{
							"internalType": "uint256",
							"name": "",
							"type": "uint256"
						}
					],
					"name": "games",
					"outputs": [
						{
							"internalType": "address",
							"name": "player1",
							"type": "address"
						},
						{
							"internalType": "address",
							"name": "player2",
							"type": "address"
						},
						{
							"internalType": "uint256",
							"name": "wager",
							"type": "uint256"
						},
						{
							"internalType": "bool",
							"name": "completed",
							"type": "bool"
						},
						{
							"internalType": "address",
							"name": "winner",
							"type": "address"
						}
					],
					"stateMutability": "view",
					"type": "function"
				},
				{
					"inputs": [],
					"name": "getActiveGameIds",
					"outputs": [
						{
							"internalType": "uint256[]",
							"name": "",
							"type": "uint256[]"
						}
					],
					"stateMutability": "view",
					"type": "function"
				},
				{
					"inputs": [
						{
							"internalType": "uint256",
							"name": "_requestId",
							"type": "uint256"
						}
					],
					"name": "getRequestStatus",
					"outputs": [
						{
							"internalType": "bool",
							"name": "fulfilled",
							"type": "bool"
						},
						{
							"internalType": "uint256[]",
							"name": "randomWords",
							"type": "uint256[]"
						}
					],
					"stateMutability": "view",
					"type": "function"
				},
				{
					"inputs": [
						{
							"internalType": "uint256",
							"name": "_gameId",
							"type": "uint256"
						}
					],
					"name": "joinGame",
					"outputs": [],
					"stateMutability": "payable",
					"type": "function"
				},
				{
					"inputs": [],
					"name": "lastRequestId",
					"outputs": [
						{
							"internalType": "uint256",
							"name": "",
							"type": "uint256"
						}
					],
					"stateMutability": "view",
					"type": "function"
				},
				{
					"inputs": [],
					"name": "minimumWager",
					"outputs": [
						{
							"internalType": "uint256",
							"name": "",
							"type": "uint256"
						}
					],
					"stateMutability": "view",
					"type": "function"
				},
				{
					"inputs": [],
					"name": "owner",
					"outputs": [
						{
							"internalType": "address",
							"name": "",
							"type": "address"
						}
					],
					"stateMutability": "view",
					"type": "function"
				},
				{
					"inputs": [
						{
							"internalType": "uint256",
							"name": "requestId",
							"type": "uint256"
						},
						{
							"internalType": "uint256[]",
							"name": "randomWords",
							"type": "uint256[]"
						}
					],
					"name": "rawFulfillRandomWords",
					"outputs": [],
					"stateMutability": "nonpayable",
					"type": "function"
				},
				{
					"inputs": [
						{
							"internalType": "uint256",
							"name": "",
							"type": "uint256"
						}
					],
					"name": "requestIds",
					"outputs": [
						{
							"internalType": "uint256",
							"name": "",
							"type": "uint256"
						}
					],
					"stateMutability": "view",
					"type": "function"
				},
				{
					"inputs": [
						{
							"internalType": "uint256",
							"name": "",
							"type": "uint256"
						}
					],
					"name": "s_requests",
					"outputs": [
						{
							"internalType": "bool",
							"name": "fulfilled",
							"type": "bool"
						},
						{
							"internalType": "bool",
							"name": "exists",
							"type": "bool"
						}
					],
					"stateMutability": "view",
					"type": "function"
				},
				{
					"inputs": [
						{
							"internalType": "uint256",
							"name": "_newMinimumWager",
							"type": "uint256"
						}
					],
					"name": "setMinimumWager",
					"outputs": [],
					"stateMutability": "nonpayable",
					"type": "function"
				},
				{
					"inputs": [
						{
							"internalType": "uint256",
							"name": "_wager",
							"type": "uint256"
						}
					],
					"name": "startGame",
					"outputs": [],
					"stateMutability": "payable",
					"type": "function"
				},
				{
					"inputs": [
						{
							"internalType": "address",
							"name": "to",
							"type": "address"
						}
					],
					"name": "transferOwnership",
					"outputs": [],
					"stateMutability": "nonpayable",
					"type": "function"
				}
			],
			"devdoc": {
				"kind": "dev",
				"methods": {},
				"version": 1
			},
			"evm": {
				"assembly": "    /* \"coqtesting.sol\":393:10083  contract CoqFightTestnet is VRFConsumerBaseV2, ConfirmedOwner {... */\n  mstore(0x40, 0xa0)\n    /* \"coqtesting.sol\":523:524  1 */\n  0x01\n    /* \"coqtesting.sol\":493:524  uint256 private gameCounter = 1 */\n  0x02\n  sstore\n    /* \"coqtesting.sol\":970:1036  0x354d2f95da55398f44b7cff77da56283d9c6c829a4bdf1bbcaf2ad6a4d081f61 */\n  0x354d2f95da55398f44b7cff77da56283d9c6c829a4bdf1bbcaf2ad6a4d081f61\n    /* \"coqtesting.sol\":944:1036  bytes32 keyHash =... */\n  0x00\n  shl\n  0x06\n  sstore\n    /* \"coqtesting.sol\":1464:1470  100000 */\n  0x0186a0\n    /* \"coqtesting.sol\":1438:1470  uint32 callbackGasLimit = 100000 */\n  0x07\n  exp(0x0100, 0x00)\n  dup2\n  sload\n  dup2\n  0xffffffff\n  mul\n  not\n  and\n  swap1\n  dup4\n  0xffffffff\n  and\n  mul\n  or\n  swap1\n  sstore\n  pop\n    /* \"coqtesting.sol\":1559:1560  3 */\n  0x03\n    /* \"coqtesting.sol\":1529:1560  uint16 requestConfirmations = 3 */\n  0x07\n  exp(0x0100, 0x04)\n  dup2\n  sload\n  dup2\n  0xffff\n  mul\n  not\n  and\n  swap1\n  dup4\n  0xffff\n  and\n  mul\n  or\n  swap1\n  sstore\n  pop\n    /* \"coqtesting.sol\":1626:1627  1 */\n  0x01\n    /* \"coqtesting.sol\":1608:1627  uint32 numWords = 1 */\n  0x07\n  exp(0x0100, 0x06)\n  dup2\n  sload\n  dup2\n  0xffffffff\n  mul\n  not\n  and\n  swap1\n  dup4\n  0xffffffff\n  and\n  mul\n  or\n  swap1\n  sstore\n  pop\n    /* \"coqtesting.sol\":3550:4016  constructor(... */\n  callvalue\n  dup1\n  iszero\n  tag_1\n  jumpi\n  0x00\n  dup1\n  revert\ntag_1:\n  pop\n  mload(0x40)\n  sub(codesize, bytecodeSize)\n  dup1\n  bytecodeSize\n  dup4\n  codecopy\n  dup2\n  dup2\n  add\n  0x40\n  mstore\n  dup2\n  add\n  swap1\n  tag_2\n  swap2\n  swap1\n  tag_3\n  jump\t// in\ntag_2:\n    /* \"coqtesting.sol\":3692:3702  msg.sender */\n  caller\n    /* \"@chainlink/contracts/src/v0.8/shared/access/ConfirmedOwner.sol\":327:335  newOwner */\n  dup1\n    /* \"@chainlink/contracts/src/v0.8/shared/access/ConfirmedOwner.sol\":345:346  0 */\n  0x00\n    /* \"coqtesting.sol\":3625:3667  0x2eD832Ba664535e5886b75D64C46EB9a228C2610 */\n  0x2ed832ba664535e5886b75d64c46eb9a228c2610\n    /* \"@chainlink/contracts/src/v0.8/vrf/VRFConsumerBaseV2.sol\":5616:5631  _vrfCoordinator */\n  dup1\n    /* \"@chainlink/contracts/src/v0.8/vrf/VRFConsumerBaseV2.sol\":5599:5631  vrfCoordinator = _vrfCoordinator */\n  0xffffffffffffffffffffffffffffffffffffffff\n  and\n  0x80\n  dup2\n  0xffffffffffffffffffffffffffffffffffffffff\n  and\n  dup2\n  mstore\n  pop\n  pop\n    /* \"@chainlink/contracts/src/v0.8/vrf/VRFConsumerBaseV2.sol\":5556:5636  constructor(address _vrfCoordinator) {... */\n  pop\n    /* \"@chainlink/contracts/src/v0.8/shared/access/ConfirmedOwnerWithProposal.sol\":557:558  0 */\n  0x00\n    /* \"@chainlink/contracts/src/v0.8/shared/access/ConfirmedOwnerWithProposal.sol\":537:559  newOwner != address(0) */\n  0xffffffffffffffffffffffffffffffffffffffff\n  and\n    /* \"@chainlink/contracts/src/v0.8/shared/access/ConfirmedOwnerWithProposal.sol\":537:545  newOwner */\n  dup3\n    /* \"@chainlink/contracts/src/v0.8/shared/access/ConfirmedOwnerWithProposal.sol\":537:559  newOwner != address(0) */\n  0xffffffffffffffffffffffffffffffffffffffff\n  and\n  sub\n    /* \"@chainlink/contracts/src/v0.8/shared/access/ConfirmedOwnerWithProposal.sol\":529:588  require(newOwner != address(0), \"Cannot set owner to zero\") */\n  tag_10\n  jumpi\n  mload(0x40)\n  0x08c379a000000000000000000000000000000000000000000000000000000000\n  dup2\n  mstore\n  0x04\n  add\n  tag_11\n  swap1\n  tag_12\n  jump\t// in\ntag_11:\n  mload(0x40)\n  dup1\n  swap2\n  sub\n  swap1\n  revert\ntag_10:\n    /* \"@chainlink/contracts/src/v0.8/shared/access/ConfirmedOwnerWithProposal.sol\":605:613  newOwner */\n  dup2\n    /* \"@chainlink/contracts/src/v0.8/shared/access/ConfirmedOwnerWithProposal.sol\":595:602  s_owner */\n  0x00\n  dup1\n    /* \"@chainlink/contracts/src/v0.8/shared/access/ConfirmedOwnerWithProposal.sol\":595:613  s_owner = newOwner */\n  0x0100\n  exp\n  dup2\n  sload\n  dup2\n  0xffffffffffffffffffffffffffffffffffffffff\n  mul\n  not\n  and\n  swap1\n  dup4\n  0xffffffffffffffffffffffffffffffffffffffff\n  and\n  mul\n  or\n  swap1\n  sstore\n  pop\n    /* \"@chainlink/contracts/src/v0.8/shared/access/ConfirmedOwnerWithProposal.sol\":647:648  0 */\n  0x00\n    /* \"@chainlink/contracts/src/v0.8/shared/access/ConfirmedOwnerWithProposal.sol\":623:649  pendingOwner != address(0) */\n  0xffffffffffffffffffffffffffffffffffffffff\n  and\n    /* \"@chainlink/contracts/src/v0.8/shared/access/ConfirmedOwnerWithProposal.sol\":623:635  pendingOwner */\n  dup2\n    /* \"@chainlink/contracts/src/v0.8/shared/access/ConfirmedOwnerWithProposal.sol\":623:649  pendingOwner != address(0) */\n  0xffffffffffffffffffffffffffffffffffffffff\n  and\n  eq\n    /* \"@chainlink/contracts/src/v0.8/shared/access/ConfirmedOwnerWithProposal.sol\":619:698  if (pendingOwner != address(0)) {... */\n  tag_13\n  jumpi\n    /* \"@chainlink/contracts/src/v0.8/shared/access/ConfirmedOwnerWithProposal.sol\":659:691  _transferOwnership(pendingOwner) */\n  tag_14\n    /* \"@chainlink/contracts/src/v0.8/shared/access/ConfirmedOwnerWithProposal.sol\":678:690  pendingOwner */\n  dup2\n    /* \"@chainlink/contracts/src/v0.8/shared/access/ConfirmedOwnerWithProposal.sol\":659:677  _transferOwnership */\n  shl(0x20, tag_15)\n    /* \"@chainlink/contracts/src/v0.8/shared/access/ConfirmedOwnerWithProposal.sol\":659:691  _transferOwnership(pendingOwner) */\n  0x20\n  shr\n  jump\t// in\ntag_14:\n    /* \"@chainlink/contracts/src/v0.8/shared/access/ConfirmedOwnerWithProposal.sol\":619:698  if (pendingOwner != address(0)) {... */\ntag_13:\n    /* \"@chainlink/contracts/src/v0.8/shared/access/ConfirmedOwnerWithProposal.sol\":471:702  constructor(address newOwner, address pendingOwner) {... */\n  pop\n  pop\n    /* \"@chainlink/contracts/src/v0.8/shared/access/ConfirmedOwner.sol\":270:351  constructor(address newOwner) ConfirmedOwnerWithProposal(newOwner, address(0)) {} */\n  pop\n    /* \"coqtesting.sol\":3771:3813  0x2eD832Ba664535e5886b75D64C46EB9a228C2610 */\n  0x2ed832ba664535e5886b75d64c46eb9a228c2610\n    /* \"coqtesting.sol\":3718:3729  COORDINATOR */\n  0x09\n  0x00\n    /* \"coqtesting.sol\":3718:3823  COORDINATOR = VRFCoordinatorV2Interface(... */\n  0x0100\n  exp\n  dup2\n  sload\n  dup2\n  0xffffffffffffffffffffffffffffffffffffffff\n  mul\n  not\n  and\n  swap1\n  dup4\n  0xffffffffffffffffffffffffffffffffffffffff\n  and\n  mul\n  or\n  swap1\n  sstore\n  pop\n    /* \"coqtesting.sol\":3852:3866  subscriptionId */\n  dup1\n    /* \"coqtesting.sol\":3833:3849  s_subscriptionId */\n  0x03\n  0x00\n    /* \"coqtesting.sol\":3833:3866  s_subscriptionId = subscriptionId */\n  0x0100\n  exp\n  dup2\n  sload\n  dup2\n  0xffffffffffffffff\n  mul\n  not\n  and\n  swap1\n  dup4\n  0xffffffffffffffff\n  and\n  mul\n  or\n  swap1\n  sstore\n  pop\n    /* \"coqtesting.sol\":3961:3979  100000000000000000 */\n  0x016345785d8a0000\n    /* \"coqtesting.sol\":3946:3958  minimumWager */\n  0x0d\n    /* \"coqtesting.sol\":3946:3979  minimumWager = 100000000000000000 */\n  dup2\n  swap1\n  sstore\n  pop\n    /* \"coqtesting.sol\":3550:4016  constructor(... */\n  pop\n    /* \"coqtesting.sol\":393:10083  contract CoqFightTestnet is VRFConsumerBaseV2, ConfirmedOwner {... */\n  jump(tag_18)\n    /* \"@chainlink/contracts/src/v0.8/shared/access/ConfirmedOwnerWithProposal.sol\":1482:1670  function _transferOwnership(address to) private {... */\ntag_15:\n    /* \"@chainlink/contracts/src/v0.8/shared/access/ConfirmedOwnerWithProposal.sol\":1550:1560  msg.sender */\n  caller\n    /* \"@chainlink/contracts/src/v0.8/shared/access/ConfirmedOwnerWithProposal.sol\":1544:1560  to != msg.sender */\n  0xffffffffffffffffffffffffffffffffffffffff\n  and\n    /* \"@chainlink/contracts/src/v0.8/shared/access/ConfirmedOwnerWithProposal.sol\":1544:1546  to */\n  dup2\n    /* \"@chainlink/contracts/src/v0.8/shared/access/ConfirmedOwnerWithProposal.sol\":1544:1560  to != msg.sender */\n  0xffffffffffffffffffffffffffffffffffffffff\n  and\n  sub\n    /* \"@chainlink/contracts/src/v0.8/shared/access/ConfirmedOwnerWithProposal.sol\":1536:1588  require(to != msg.sender, \"Cannot transfer to self\") */\n  tag_20\n  jumpi\n  mload(0x40)\n  0x08c379a000000000000000000000000000000000000000000000000000000000\n  dup2\n  mstore\n  0x04\n  add\n  tag_21\n  swap1\n  tag_22\n  jump\t// in\ntag_21:\n  mload(0x40)\n  dup1\n  swap2\n  sub\n  swap1\n  revert\ntag_20:\n    /* \"@chainlink/contracts/src/v0.8/shared/access/ConfirmedOwnerWithProposal.sol\":1612:1614  to */\n  dup1\n    /* \"@chainlink/contracts/src/v0.8/shared/access/ConfirmedOwnerWithProposal.sol\":1595:1609  s_pendingOwner */\n  0x01\n  0x00\n    /* \"@chainlink/contracts/src/v0.8/shared/access/ConfirmedOwnerWithProposal.sol\":1595:1614  s_pendingOwner = to */\n  0x0100\n  exp\n  dup2\n  sload\n  dup2\n  0xffffffffffffffffffffffffffffffffffffffff\n  mul\n  not\n  and\n  swap1\n  dup4\n  0xffffffffffffffffffffffffffffffffffffffff\n  and\n  mul\n  or\n  swap1\n  sstore\n  pop\n    /* \"@chainlink/contracts/src/v0.8/shared/access/ConfirmedOwnerWithProposal.sol\":1662:1664  to */\n  dup1\n    /* \"@chainlink/contracts/src/v0.8/shared/access/ConfirmedOwnerWithProposal.sol\":1626:1665  OwnershipTransferRequested(s_owner, to) */\n  0xffffffffffffffffffffffffffffffffffffffff\n  and\n    /* \"@chainlink/contracts/src/v0.8/shared/access/ConfirmedOwnerWithProposal.sol\":1653:1660  s_owner */\n  0x00\n  dup1\n  sload\n  swap1\n  0x0100\n  exp\n  swap1\n  div\n  0xffffffffffffffffffffffffffffffffffffffff\n  and\n    /* \"@chainlink/contracts/src/v0.8/shared/access/ConfirmedOwnerWithProposal.sol\":1626:1665  OwnershipTransferRequested(s_owner, to) */\n  0xffffffffffffffffffffffffffffffffffffffff\n  and\n  0xed8889f560326eb138920d842192f0eb3dd22b4f139c87a2c57538e05bae1278\n  mload(0x40)\n  mload(0x40)\n  dup1\n  swap2\n  sub\n  swap1\n  log3\n    /* \"@chainlink/contracts/src/v0.8/shared/access/ConfirmedOwnerWithProposal.sol\":1482:1670  function _transferOwnership(address to) private {... */\n  pop\n  jump\t// out\n    /* \"#utility.yul\":88:205   */\ntag_24:\n    /* \"#utility.yul\":197:198   */\n  0x00\n    /* \"#utility.yul\":194:195   */\n  dup1\n    /* \"#utility.yul\":187:199   */\n  revert\n    /* \"#utility.yul\":334:435   */\ntag_26:\n    /* \"#utility.yul\":370:377   */\n  0x00\n    /* \"#utility.yul\":410:428   */\n  0xffffffffffffffff\n    /* \"#utility.yul\":403:408   */\n  dup3\n    /* \"#utility.yul\":399:429   */\n  and\n    /* \"#utility.yul\":388:429   */\n  swap1\n  pop\n    /* \"#utility.yul\":334:435   */\n  swap2\n  swap1\n  pop\n  jump\t// out\n    /* \"#utility.yul\":441:561   */\ntag_27:\n    /* \"#utility.yul\":513:536   */\n  tag_40\n    /* \"#utility.yul\":530:535   */\n  dup2\n    /* \"#utility.yul\":513:536   */\n  tag_26\n  jump\t// in\ntag_40:\n    /* \"#utility.yul\":506:511   */\n  dup2\n    /* \"#utility.yul\":503:537   */\n  eq\n    /* \"#utility.yul\":493:555   */\n  tag_41\n  jumpi\n    /* \"#utility.yul\":551:552   */\n  0x00\n    /* \"#utility.yul\":548:549   */\n  dup1\n    /* \"#utility.yul\":541:553   */\n  revert\n    /* \"#utility.yul\":493:555   */\ntag_41:\n    /* \"#utility.yul\":441:561   */\n  pop\n  jump\t// out\n    /* \"#utility.yul\":567:708   */\ntag_28:\n    /* \"#utility.yul\":623:628   */\n  0x00\n    /* \"#utility.yul\":654:660   */\n  dup2\n    /* \"#utility.yul\":648:661   */\n  mload\n    /* \"#utility.yul\":639:661   */\n  swap1\n  pop\n    /* \"#utility.yul\":670:702   */\n  tag_43\n    /* \"#utility.yul\":696:701   */\n  dup2\n    /* \"#utility.yul\":670:702   */\n  tag_27\n  jump\t// in\ntag_43:\n    /* \"#utility.yul\":567:708   */\n  swap3\n  swap2\n  pop\n  pop\n  jump\t// out\n    /* \"#utility.yul\":714:1063   */\ntag_3:\n    /* \"#utility.yul\":783:789   */\n  0x00\n    /* \"#utility.yul\":832:834   */\n  0x20\n    /* \"#utility.yul\":820:829   */\n  dup3\n    /* \"#utility.yul\":811:818   */\n  dup5\n    /* \"#utility.yul\":807:830   */\n  sub\n    /* \"#utility.yul\":803:835   */\n  slt\n    /* \"#utility.yul\":800:919   */\n  iszero\n  tag_45\n  jumpi\n    /* \"#utility.yul\":838:917   */\n  tag_46\n  tag_24\n  jump\t// in\ntag_46:\n    /* \"#utility.yul\":800:919   */\ntag_45:\n    /* \"#utility.yul\":958:959   */\n  0x00\n    /* \"#utility.yul\":983:1046   */\n  tag_47\n    /* \"#utility.yul\":1038:1045   */\n  dup5\n    /* \"#utility.yul\":1029:1035   */\n  dup3\n    /* \"#utility.yul\":1018:1027   */\n  dup6\n    /* \"#utility.yul\":1014:1036   */\n  add\n    /* \"#utility.yul\":983:1046   */\n  tag_28\n  jump\t// in\ntag_47:\n    /* \"#utility.yul\":973:1046   */\n  swap2\n  pop\n    /* \"#utility.yul\":929:1056   */\n  pop\n    /* \"#utility.yul\":714:1063   */\n  swap3\n  swap2\n  pop\n  pop\n  jump\t// out\n    /* \"#utility.yul\":1069:1238   */\ntag_29:\n    /* \"#utility.yul\":1153:1164   */\n  0x00\n    /* \"#utility.yul\":1187:1193   */\n  dup3\n    /* \"#utility.yul\":1182:1185   */\n  dup3\n    /* \"#utility.yul\":1175:1194   */\n  mstore\n    /* \"#utility.yul\":1227:1231   */\n  0x20\n    /* \"#utility.yul\":1222:1225   */\n  dup3\n    /* \"#utility.yul\":1218:1232   */\n  add\n    /* \"#utility.yul\":1203:1232   */\n  swap1\n  pop\n    /* \"#utility.yul\":1069:1238   */\n  swap3\n  swap2\n  pop\n  pop\n  jump\t// out\n    /* \"#utility.yul\":1244:1418   */\ntag_30:\n    /* \"#utility.yul\":1384:1410   */\n  0x43616e6e6f7420736574206f776e657220746f207a65726f0000000000000000\n    /* \"#utility.yul\":1380:1381   */\n  0x00\n    /* \"#utility.yul\":1372:1378   */\n  dup3\n    /* \"#utility.yul\":1368:1382   */\n  add\n    /* \"#utility.yul\":1361:1411   */\n  mstore\n    /* \"#utility.yul\":1244:1418   */\n  pop\n  jump\t// out\n    /* \"#utility.yul\":1424:1790   */\ntag_31:\n    /* \"#utility.yul\":1566:1569   */\n  0x00\n    /* \"#utility.yul\":1587:1654   */\n  tag_51\n    /* \"#utility.yul\":1651:1653   */\n  0x18\n    /* \"#utility.yul\":1646:1649   */\n  dup4\n    /* \"#utility.yul\":1587:1654   */\n  tag_29\n  jump\t// in\ntag_51:\n    /* \"#utility.yul\":1580:1654   */\n  swap2\n  pop\n    /* \"#utility.yul\":1663:1756   */\n  tag_52\n    /* \"#utility.yul\":1752:1755   */\n  dup3\n    /* \"#utility.yul\":1663:1756   */\n  tag_30\n  jump\t// in\ntag_52:\n    /* \"#utility.yul\":1781:1783   */\n  0x20\n    /* \"#utility.yul\":1776:1779   */\n  dup3\n    /* \"#utility.yul\":1772:1784   */\n  add\n    /* \"#utility.yul\":1765:1784   */\n  swap1\n  pop\n    /* \"#utility.yul\":1424:1790   */\n  swap2\n  swap1\n  pop\n  jump\t// out\n    /* \"#utility.yul\":1796:2215   */\ntag_12:\n    /* \"#utility.yul\":1962:1966   */\n  0x00\n    /* \"#utility.yul\":2000:2002   */\n  0x20\n    /* \"#utility.yul\":1989:1998   */\n  dup3\n    /* \"#utility.yul\":1985:2003   */\n  add\n    /* \"#utility.yul\":1977:2003   */\n  swap1\n  pop\n    /* \"#utility.yul\":2049:2058   */\n  dup2\n    /* \"#utility.yul\":2043:2047   */\n  dup2\n    /* \"#utility.yul\":2039:2059   */\n  sub\n    /* \"#utility.yul\":2035:2036   */\n  0x00\n    /* \"#utility.yul\":2024:2033   */\n  dup4\n    /* \"#utility.yul\":2020:2037   */\n  add\n    /* \"#utility.yul\":2013:2060   */\n  mstore\n    /* \"#utility.yul\":2077:2208   */\n  tag_54\n    /* \"#utility.yul\":2203:2207   */\n  dup2\n    /* \"#utility.yul\":2077:2208   */\n  tag_31\n  jump\t// in\ntag_54:\n    /* \"#utility.yul\":2069:2208   */\n  swap1\n  pop\n    /* \"#utility.yul\":1796:2215   */\n  swap2\n  swap1\n  pop\n  jump\t// out\n    /* \"#utility.yul\":2221:2394   */\ntag_32:\n    /* \"#utility.yul\":2361:2386   */\n  0x43616e6e6f74207472616e7366657220746f2073656c66000000000000000000\n    /* \"#utility.yul\":2357:2358   */\n  0x00\n    /* \"#utility.yul\":2349:2355   */\n  dup3\n    /* \"#utility.yul\":2345:2359   */\n  add\n    /* \"#utility.yul\":2338:2387   */\n  mstore\n    /* \"#utility.yul\":2221:2394   */\n  pop\n  jump\t// out\n    /* \"#utility.yul\":2400:2766   */\ntag_33:\n    /* \"#utility.yul\":2542:2545   */\n  0x00\n    /* \"#utility.yul\":2563:2630   */\n  tag_57\n    /* \"#utility.yul\":2627:2629   */\n  0x17\n    /* \"#utility.yul\":2622:2625   */\n  dup4\n    /* \"#utility.yul\":2563:2630   */\n  tag_29\n  jump\t// in\ntag_57:\n    /* \"#utility.yul\":2556:2630   */\n  swap2\n  pop\n    /* \"#utility.yul\":2639:2732   */\n  tag_58\n    /* \"#utility.yul\":2728:2731   */\n  dup3\n    /* \"#utility.yul\":2639:2732   */\n  tag_32\n  jump\t// in\ntag_58:\n    /* \"#utility.yul\":2757:2759   */\n  0x20\n    /* \"#utility.yul\":2752:2755   */\n  dup3\n    /* \"#utility.yul\":2748:2760   */\n  add\n    /* \"#utility.yul\":2741:2760   */\n  swap1\n  pop\n    /* \"#utility.yul\":2400:2766   */\n  swap2\n  swap1\n  pop\n  jump\t// out\n    /* \"#utility.yul\":2772:3191   */\ntag_22:\n    /* \"#utility.yul\":2938:2942   */\n  0x00\n    /* \"#utility.yul\":2976:2978   */\n  0x20\n    /* \"#utility.yul\":2965:2974   */\n  dup3\n    /* \"#utility.yul\":2961:2979   */\n  add\n    /* \"#utility.yul\":2953:2979   */\n  swap1\n  pop\n    /* \"#utility.yul\":3025:3034   */\n  dup2\n    /* \"#utility.yul\":3019:3023   */\n  dup2\n    /* \"#utility.yul\":3015:3035   */\n  sub\n    /* \"#utility.yul\":3011:3012   */\n  0x00\n    /* \"#utility.yul\":3000:3009   */\n  dup4\n    /* \"#utility.yul\":2996:3013   */\n  add\n    /* \"#utility.yul\":2989:3036   */\n  mstore\n    /* \"#utility.yul\":3053:3184   */\n  tag_60\n    /* \"#utility.yul\":3179:3183   */\n  dup2\n    /* \"#utility.yul\":3053:3184   */\n  tag_33\n  jump\t// in\ntag_60:\n    /* \"#utility.yul\":3045:3184   */\n  swap1\n  pop\n    /* \"#utility.yul\":2772:3191   */\n  swap2\n  swap1\n  pop\n  jump\t// out\n    /* \"coqtesting.sol\":393:10083  contract CoqFightTestnet is VRFConsumerBaseV2, ConfirmedOwner {... */\ntag_18:\n  mload(0x80)\n  codecopy(0x00, dataOffset(sub_0), dataSize(sub_0))\n  0x00\n  assignImmutable(\"0x064aab4cf973af3102587bae83caeab28cf75517d40727c9b952f0d14fb521fa\")\n  return(0x00, dataSize(sub_0))\nstop\n\nsub_0: assembly {\n        /* \"coqtesting.sol\":393:10083  contract CoqFightTestnet is VRFConsumerBaseV2, ConfirmedOwner {... */\n      mstore(0x40, 0x80)\n      jumpi(tag_1, lt(calldatasize, 0x04))\n      shr(0xe0, calldataload(0x00))\n      dup1\n      0x8ee67472\n      gt\n      tag_19\n      jumpi\n      dup1\n      0xd8a4676f\n      gt\n      tag_20\n      jumpi\n      dup1\n      0xd8a4676f\n      eq\n      tag_14\n      jumpi\n      dup1\n      0xe5ed1d59\n      eq\n      tag_15\n      jumpi\n      dup1\n      0xefaa55a0\n      eq\n      tag_16\n      jumpi\n      dup1\n      0xf2fde38b\n      eq\n      tag_17\n      jumpi\n      dup1\n      0xfc2a88c3\n      eq\n      tag_18\n      jumpi\n      jump(tag_1)\n    tag_20:\n      dup1\n      0x8ee67472\n      eq\n      tag_10\n      jumpi\n      dup1\n      0xa168fa89\n      eq\n      tag_11\n      jumpi\n      dup1\n      0xb19068c7\n      eq\n      tag_12\n      jumpi\n      dup1\n      0xb4a91e1e\n      eq\n      tag_13\n      jumpi\n      jump(tag_1)\n    tag_19:\n      dup1\n      0x79ba5097\n      gt\n      tag_21\n      jumpi\n      dup1\n      0x79ba5097\n      eq\n      tag_6\n      jumpi\n      dup1\n      0x7f7f8968\n      eq\n      tag_7\n      jumpi\n      dup1\n      0x8796ba8c\n      eq\n      tag_8\n      jumpi\n      dup1\n      0x8da5cb5b\n      eq\n      tag_9\n      jumpi\n      jump(tag_1)\n    tag_21:\n      dup1\n      0x117a5b90\n      eq\n      tag_2\n      jumpi\n      dup1\n      0x1fe543e3\n      eq\n      tag_3\n      jumpi\n      dup1\n      0x6916c9b0\n      eq\n      tag_4\n      jumpi\n      dup1\n      0x69958ab9\n      eq\n      tag_5\n      jumpi\n    tag_1:\n      0x00\n      dup1\n      revert\n        /* \"coqtesting.sol\":2223:2260  mapping(uint256 => Game) public games */\n    tag_2:\n      callvalue\n      dup1\n      iszero\n      tag_22\n      jumpi\n      0x00\n      dup1\n      revert\n    tag_22:\n      pop\n      tag_23\n      0x04\n      dup1\n      calldatasize\n      sub\n      dup2\n      add\n      swap1\n      tag_24\n      swap2\n      swap1\n      tag_25\n      jump\t// in\n    tag_24:\n      tag_26\n      jump\t// in\n    tag_23:\n      mload(0x40)\n      tag_27\n      swap6\n      swap5\n      swap4\n      swap3\n      swap2\n      swap1\n      tag_28\n      jump\t// in\n    tag_27:\n      mload(0x40)\n      dup1\n      swap2\n      sub\n      swap1\n      return\n        /* \"@chainlink/contracts/src/v0.8/vrf/VRFConsumerBaseV2.sol\":6618:6874  function rawFulfillRandomWords(uint256 requestId, uint256[] memory randomWords) external {... */\n    tag_3:\n      callvalue\n      dup1\n      iszero\n      tag_29\n      jumpi\n      0x00\n      dup1\n      revert\n    tag_29:\n      pop\n      tag_30\n      0x04\n      dup1\n      calldatasize\n      sub\n      dup2\n      add\n      swap1\n      tag_31\n      swap2\n      swap1\n      tag_32\n      jump\t// in\n    tag_31:\n      tag_33\n      jump\t// in\n    tag_30:\n      stop\n        /* \"coqtesting.sol\":5826:5932  function getActiveGameIds() external view returns (uint256[] memory) {... */\n    tag_4:\n      callvalue\n      dup1\n      iszero\n      tag_34\n      jumpi\n      0x00\n      dup1\n      revert\n    tag_34:\n      pop\n      tag_35\n      tag_36\n      jump\t// in\n    tag_35:\n      mload(0x40)\n      tag_37\n      swap2\n      swap1\n      tag_38\n      jump\t// in\n    tag_37:\n      mload(0x40)\n      dup1\n      swap2\n      sub\n      swap1\n      return\n        /* \"coqtesting.sol\":5987:6633  function cancelGame(uint256 _gameId) external onlyOwner {... */\n    tag_5:\n      callvalue\n      dup1\n      iszero\n      tag_39\n      jumpi\n      0x00\n      dup1\n      revert\n    tag_39:\n      pop\n      tag_40\n      0x04\n      dup1\n      calldatasize\n      sub\n      dup2\n      add\n      swap1\n      tag_41\n      swap2\n      swap1\n      tag_25\n      jump\t// in\n    tag_41:\n      tag_42\n      jump\t// in\n    tag_40:\n      stop\n        /* \"@chainlink/contracts/src/v0.8/shared/access/ConfirmedOwnerWithProposal.sol\":1001:1266  function acceptOwnership() external override {... */\n    tag_6:\n      callvalue\n      dup1\n      iszero\n      tag_43\n      jumpi\n      0x00\n      dup1\n      revert\n    tag_43:\n      pop\n      tag_44\n      tag_45\n      jump\t// in\n    tag_44:\n      stop\n        /* \"coqtesting.sol\":8246:8364  function setMinimumWager(uint256 _newMinimumWager) external onlyOwner {... */\n    tag_7:\n      callvalue\n      dup1\n      iszero\n      tag_46\n      jumpi\n      0x00\n      dup1\n      revert\n    tag_46:\n      pop\n      tag_47\n      0x04\n      dup1\n      calldatasize\n      sub\n      dup2\n      add\n      swap1\n      tag_48\n      swap2\n      swap1\n      tag_25\n      jump\t// in\n    tag_48:\n      tag_49\n      jump\t// in\n    tag_47:\n      stop\n        /* \"coqtesting.sol\":645:672  uint256[] public requestIds */\n    tag_8:\n      callvalue\n      dup1\n      iszero\n      tag_50\n      jumpi\n      0x00\n      dup1\n      revert\n    tag_50:\n      pop\n      tag_51\n      0x04\n      dup1\n      calldatasize\n      sub\n      dup2\n      add\n      swap1\n      tag_52\n      swap2\n      swap1\n      tag_25\n      jump\t// in\n    tag_52:\n      tag_53\n      jump\t// in\n    tag_51:\n      mload(0x40)\n      tag_54\n      swap2\n      swap1\n      tag_55\n      jump\t// in\n    tag_54:\n      mload(0x40)\n      dup1\n      swap2\n      sub\n      swap1\n      return\n        /* \"@chainlink/contracts/src/v0.8/shared/access/ConfirmedOwnerWithProposal.sol\":1317:1398  function owner() public view override returns (address) {... */\n    tag_9:\n      callvalue\n      dup1\n      iszero\n      tag_56\n      jumpi\n      0x00\n      dup1\n      revert\n    tag_56:\n      pop\n      tag_57\n      tag_58\n      jump\t// in\n    tag_57:\n      mload(0x40)\n      tag_59\n      swap2\n      swap1\n      tag_60\n      jump\t// in\n    tag_59:\n      mload(0x40)\n      dup1\n      swap2\n      sub\n      swap1\n      return\n        /* \"coqtesting.sol\":2421:2451  uint256[] public activeGameIds */\n    tag_10:\n      callvalue\n      dup1\n      iszero\n      tag_61\n      jumpi\n      0x00\n      dup1\n      revert\n    tag_61:\n      pop\n      tag_62\n      0x04\n      dup1\n      calldatasize\n      sub\n      dup2\n      add\n      swap1\n      tag_63\n      swap2\n      swap1\n      tag_25\n      jump\t// in\n    tag_63:\n      tag_64\n      jump\t// in\n    tag_62:\n      mload(0x40)\n      tag_65\n      swap2\n      swap1\n      tag_55\n      jump\t// in\n    tag_65:\n      mload(0x40)\n      dup1\n      swap2\n      sub\n      swap1\n      return\n        /* \"coqtesting.sol\":2044:2103  mapping(uint256 => RequestStatus)... */\n    tag_11:\n      callvalue\n      dup1\n      iszero\n      tag_66\n      jumpi\n      0x00\n      dup1\n      revert\n    tag_66:\n      pop\n      tag_67\n      0x04\n      dup1\n      calldatasize\n      sub\n      dup2\n      add\n      swap1\n      tag_68\n      swap2\n      swap1\n      tag_25\n      jump\t// in\n    tag_68:\n      tag_69\n      jump\t// in\n    tag_67:\n      mload(0x40)\n      tag_70\n      swap3\n      swap2\n      swap1\n      tag_71\n      jump\t// in\n    tag_70:\n      mload(0x40)\n      dup1\n      swap2\n      sub\n      swap1\n      return\n        /* \"coqtesting.sol\":2626:2653  uint256 public minimumWager */\n    tag_12:\n      callvalue\n      dup1\n      iszero\n      tag_72\n      jumpi\n      0x00\n      dup1\n      revert\n    tag_72:\n      pop\n      tag_73\n      tag_74\n      jump\t// in\n    tag_73:\n      mload(0x40)\n      tag_75\n      swap2\n      swap1\n      tag_55\n      jump\t// in\n    tag_75:\n      mload(0x40)\n      dup1\n      swap2\n      sub\n      swap1\n      return\n        /* \"coqtesting.sol\":2308:2360  mapping(uint256 => uint256) public gameIdByRequestId */\n    tag_13:\n      callvalue\n      dup1\n      iszero\n      tag_76\n      jumpi\n      0x00\n      dup1\n      revert\n    tag_76:\n      pop\n      tag_77\n      0x04\n      dup1\n      calldatasize\n      sub\n      dup2\n      add\n      swap1\n      tag_78\n      swap2\n      swap1\n      tag_25\n      jump\t// in\n    tag_78:\n      tag_79\n      jump\t// in\n    tag_77:\n      mload(0x40)\n      tag_80\n      swap2\n      swap1\n      tag_55\n      jump\t// in\n    tag_80:\n      mload(0x40)\n      dup1\n      swap2\n      sub\n      swap1\n      return\n        /* \"coqtesting.sol\":9756:10081  function getRequestStatus(... */\n    tag_14:\n      callvalue\n      dup1\n      iszero\n      tag_81\n      jumpi\n      0x00\n      dup1\n      revert\n    tag_81:\n      pop\n      tag_82\n      0x04\n      dup1\n      calldatasize\n      sub\n      dup2\n      add\n      swap1\n      tag_83\n      swap2\n      swap1\n      tag_25\n      jump\t// in\n    tag_83:\n      tag_84\n      jump\t// in\n    tag_82:\n      mload(0x40)\n      tag_85\n      swap3\n      swap2\n      swap1\n      tag_86\n      jump\t// in\n    tag_85:\n      mload(0x40)\n      dup1\n      swap2\n      sub\n      swap1\n      return\n        /* \"coqtesting.sol\":4127:4688  function startGame(uint256 _wager) external payable {... */\n    tag_15:\n      tag_87\n      0x04\n      dup1\n      calldatasize\n      sub\n      dup2\n      add\n      swap1\n      tag_88\n      swap2\n      swap1\n      tag_25\n      jump\t// in\n    tag_88:\n      tag_89\n      jump\t// in\n    tag_87:\n      stop\n        /* \"coqtesting.sol\":4735:5761  function joinGame(uint256 _gameId) external payable {... */\n    tag_16:\n      tag_90\n      0x04\n      dup1\n      calldatasize\n      sub\n      dup2\n      add\n      swap1\n      tag_91\n      swap2\n      swap1\n      tag_25\n      jump\t// in\n    tag_91:\n      tag_92\n      jump\t// in\n    tag_90:\n      stop\n        /* \"@chainlink/contracts/src/v0.8/shared/access/ConfirmedOwnerWithProposal.sol\":811:909  function transferOwnership(address to) public override onlyOwner {... */\n    tag_17:\n      callvalue\n      dup1\n      iszero\n      tag_93\n      jumpi\n      0x00\n      dup1\n      revert\n    tag_93:\n      pop\n      tag_94\n      0x04\n      dup1\n      calldatasize\n      sub\n      dup2\n      add\n      swap1\n      tag_95\n      swap2\n      swap1\n      tag_96\n      jump\t// in\n    tag_95:\n      tag_97\n      jump\t// in\n    tag_94:\n      stop\n        /* \"coqtesting.sol\":678:706  uint256 public lastRequestId */\n    tag_18:\n      callvalue\n      dup1\n      iszero\n      tag_98\n      jumpi\n      0x00\n      dup1\n      revert\n    tag_98:\n      pop\n      tag_99\n      tag_100\n      jump\t// in\n    tag_99:\n      mload(0x40)\n      tag_101\n      swap2\n      swap1\n      tag_55\n      jump\t// in\n    tag_101:\n      mload(0x40)\n      dup1\n      swap2\n      sub\n      swap1\n      return\n        /* \"coqtesting.sol\":2223:2260  mapping(uint256 => Game) public games */\n    tag_26:\n      mstore(0x20, 0x0a)\n      dup1\n      0x00\n      mstore\n      keccak256(0x00, 0x40)\n      0x00\n      swap2\n      pop\n      swap1\n      pop\n      dup1\n      0x00\n      add\n      0x00\n      swap1\n      sload\n      swap1\n      0x0100\n      exp\n      swap1\n      div\n      0xffffffffffffffffffffffffffffffffffffffff\n      and\n      swap1\n      dup1\n      0x01\n      add\n      0x00\n      swap1\n      sload\n      swap1\n      0x0100\n      exp\n      swap1\n      div\n      0xffffffffffffffffffffffffffffffffffffffff\n      and\n      swap1\n      dup1\n      0x02\n      add\n      sload\n      swap1\n      dup1\n      0x03\n      add\n      0x00\n      swap1\n      sload\n      swap1\n      0x0100\n      exp\n      swap1\n      div\n      0xff\n      and\n      swap1\n      dup1\n      0x03\n      add\n      0x01\n      swap1\n      sload\n      swap1\n      0x0100\n      exp\n      swap1\n      div\n      0xffffffffffffffffffffffffffffffffffffffff\n      and\n      swap1\n      pop\n      dup6\n      jump\t// out\n        /* \"@chainlink/contracts/src/v0.8/vrf/VRFConsumerBaseV2.sol\":6618:6874  function rawFulfillRandomWords(uint256 requestId, uint256[] memory randomWords) external {... */\n    tag_33:\n        /* \"@chainlink/contracts/src/v0.8/vrf/VRFConsumerBaseV2.sol\":6731:6745  vrfCoordinator */\n      immutable(\"0x064aab4cf973af3102587bae83caeab28cf75517d40727c9b952f0d14fb521fa\")\n        /* \"@chainlink/contracts/src/v0.8/vrf/VRFConsumerBaseV2.sol\":6717:6745  msg.sender != vrfCoordinator */\n      0xffffffffffffffffffffffffffffffffffffffff\n      and\n        /* \"@chainlink/contracts/src/v0.8/vrf/VRFConsumerBaseV2.sol\":6717:6727  msg.sender */\n      caller\n        /* \"@chainlink/contracts/src/v0.8/vrf/VRFConsumerBaseV2.sol\":6717:6745  msg.sender != vrfCoordinator */\n      0xffffffffffffffffffffffffffffffffffffffff\n      and\n      eq\n        /* \"@chainlink/contracts/src/v0.8/vrf/VRFConsumerBaseV2.sol\":6713:6822  if (msg.sender != vrfCoordinator) {... */\n      tag_103\n      jumpi\n        /* \"@chainlink/contracts/src/v0.8/vrf/VRFConsumerBaseV2.sol\":6788:6798  msg.sender */\n      caller\n        /* \"@chainlink/contracts/src/v0.8/vrf/VRFConsumerBaseV2.sol\":6800:6814  vrfCoordinator */\n      immutable(\"0x064aab4cf973af3102587bae83caeab28cf75517d40727c9b952f0d14fb521fa\")\n        /* \"@chainlink/contracts/src/v0.8/vrf/VRFConsumerBaseV2.sol\":6762:6815  OnlyCoordinatorCanFulfill(msg.sender, vrfCoordinator) */\n      mload(0x40)\n      0x1cf993f400000000000000000000000000000000000000000000000000000000\n      dup2\n      mstore\n      0x04\n      add\n      tag_104\n      swap3\n      swap2\n      swap1\n      tag_105\n      jump\t// in\n    tag_104:\n      mload(0x40)\n      dup1\n      swap2\n      sub\n      swap1\n      revert\n        /* \"@chainlink/contracts/src/v0.8/vrf/VRFConsumerBaseV2.sol\":6713:6822  if (msg.sender != vrfCoordinator) {... */\n    tag_103:\n        /* \"@chainlink/contracts/src/v0.8/vrf/VRFConsumerBaseV2.sol\":6827:6869  fulfillRandomWords(requestId, randomWords) */\n      tag_106\n        /* \"@chainlink/contracts/src/v0.8/vrf/VRFConsumerBaseV2.sol\":6846:6855  requestId */\n      dup3\n        /* \"@chainlink/contracts/src/v0.8/vrf/VRFConsumerBaseV2.sol\":6857:6868  randomWords */\n      dup3\n        /* \"@chainlink/contracts/src/v0.8/vrf/VRFConsumerBaseV2.sol\":6827:6845  fulfillRandomWords */\n      tag_107\n        /* \"@chainlink/contracts/src/v0.8/vrf/VRFConsumerBaseV2.sol\":6827:6869  fulfillRandomWords(requestId, randomWords) */\n      jump\t// in\n    tag_106:\n        /* \"@chainlink/contracts/src/v0.8/vrf/VRFConsumerBaseV2.sol\":6618:6874  function rawFulfillRandomWords(uint256 requestId, uint256[] memory randomWords) external {... */\n      pop\n      pop\n      jump\t// out\n        /* \"coqtesting.sol\":5826:5932  function getActiveGameIds() external view returns (uint256[] memory) {... */\n    tag_36:\n        /* \"coqtesting.sol\":5877:5893  uint256[] memory */\n      0x60\n        /* \"coqtesting.sol\":5912:5925  activeGameIds */\n      0x0c\n        /* \"coqtesting.sol\":5905:5925  return activeGameIds */\n      dup1\n      sload\n      dup1\n      0x20\n      mul\n      0x20\n      add\n      mload(0x40)\n      swap1\n      dup2\n      add\n      0x40\n      mstore\n      dup1\n      swap3\n      swap2\n      swap1\n      dup2\n      dup2\n      mstore\n      0x20\n      add\n      dup3\n      dup1\n      sload\n      dup1\n      iszero\n      tag_109\n      jumpi\n      0x20\n      mul\n      dup3\n      add\n      swap2\n      swap1\n      0x00\n      mstore\n      keccak256(0x00, 0x20)\n      swap1\n    tag_110:\n      dup2\n      sload\n      dup2\n      mstore\n      0x20\n      add\n      swap1\n      0x01\n      add\n      swap1\n      dup1\n      dup4\n      gt\n      tag_110\n      jumpi\n    tag_109:\n      pop\n      pop\n      pop\n      pop\n      pop\n      swap1\n      pop\n        /* \"coqtesting.sol\":5826:5932  function getActiveGameIds() external view returns (uint256[] memory) {... */\n      swap1\n      jump\t// out\n        /* \"coqtesting.sol\":5987:6633  function cancelGame(uint256 _gameId) external onlyOwner {... */\n    tag_42:\n        /* \"@chainlink/contracts/src/v0.8/shared/access/ConfirmedOwnerWithProposal.sol\":1941:1961  _validateOwnership() */\n      tag_112\n        /* \"@chainlink/contracts/src/v0.8/shared/access/ConfirmedOwnerWithProposal.sol\":1941:1959  _validateOwnership */\n      tag_113\n        /* \"@chainlink/contracts/src/v0.8/shared/access/ConfirmedOwnerWithProposal.sol\":1941:1961  _validateOwnership() */\n      jump\t// in\n    tag_112:\n        /* \"coqtesting.sol\":6053:6070  Game storage game */\n      0x00\n        /* \"coqtesting.sol\":6073:6078  games */\n      0x0a\n        /* \"coqtesting.sol\":6073:6087  games[_gameId] */\n      0x00\n        /* \"coqtesting.sol\":6079:6086  _gameId */\n      dup4\n        /* \"coqtesting.sol\":6073:6087  games[_gameId] */\n      dup2\n      mstore\n      0x20\n      add\n      swap1\n      dup2\n      mstore\n      0x20\n      add\n      0x00\n      keccak256\n        /* \"coqtesting.sol\":6053:6087  Game storage game = games[_gameId] */\n      swap1\n      pop\n        /* \"coqtesting.sol\":6129:6130  0 */\n      0x00\n        /* \"coqtesting.sol\":6105:6131  game.player1 != address(0) */\n      0xffffffffffffffffffffffffffffffffffffffff\n      and\n        /* \"coqtesting.sol\":6105:6109  game */\n      dup2\n        /* \"coqtesting.sol\":6105:6117  game.player1 */\n      0x00\n      add\n      0x00\n      swap1\n      sload\n      swap1\n      0x0100\n      exp\n      swap1\n      div\n      0xffffffffffffffffffffffffffffffffffffffff\n      and\n        /* \"coqtesting.sol\":6105:6131  game.player1 != address(0) */\n      0xffffffffffffffffffffffffffffffffffffffff\n      and\n      sub\n        /* \"coqtesting.sol\":6097:6155  require(game.player1 != address(0), \"Game does not exist\") */\n      tag_115\n      jumpi\n      mload(0x40)\n      0x08c379a000000000000000000000000000000000000000000000000000000000\n      dup2\n      mstore\n      0x04\n      add\n      tag_116\n      swap1\n      tag_117\n      jump\t// in\n    tag_116:\n      mload(0x40)\n      dup1\n      swap2\n      sub\n      swap1\n      revert\n    tag_115:\n        /* \"coqtesting.sol\":6175:6179  game */\n      dup1\n        /* \"coqtesting.sol\":6175:6189  game.completed */\n      0x03\n      add\n      0x00\n      swap1\n      sload\n      swap1\n      0x0100\n      exp\n      swap1\n      div\n      0xff\n      and\n        /* \"coqtesting.sol\":6174:6189  !game.completed */\n      iszero\n        /* \"coqtesting.sol\":6166:6211  require(!game.completed, \"Game is completed\") */\n      tag_118\n      jumpi\n      mload(0x40)\n      0x08c379a000000000000000000000000000000000000000000000000000000000\n      dup2\n      mstore\n      0x04\n      add\n      tag_119\n      swap1\n      tag_120\n      jump\t// in\n    tag_119:\n      mload(0x40)\n      dup1\n      swap2\n      sub\n      swap1\n      revert\n    tag_118:\n        /* \"coqtesting.sol\":6253:6254  0 */\n      0x00\n        /* \"coqtesting.sol\":6229:6255  game.player2 == address(0) */\n      0xffffffffffffffffffffffffffffffffffffffff\n      and\n        /* \"coqtesting.sol\":6229:6233  game */\n      dup2\n        /* \"coqtesting.sol\":6229:6241  game.player2 */\n      0x01\n      add\n      0x00\n      swap1\n      sload\n      swap1\n      0x0100\n      exp\n      swap1\n      div\n      0xffffffffffffffffffffffffffffffffffffffff\n      and\n        /* \"coqtesting.sol\":6229:6255  game.player2 == address(0) */\n      0xffffffffffffffffffffffffffffffffffffffff\n      and\n      eq\n        /* \"coqtesting.sol\":6221:6282  require(game.player2 == address(0), \"Game is already joined\") */\n      tag_121\n      jumpi\n      mload(0x40)\n      0x08c379a000000000000000000000000000000000000000000000000000000000\n      dup2\n      mstore\n      0x04\n      add\n      tag_122\n      swap1\n      tag_123\n      jump\t// in\n    tag_122:\n      mload(0x40)\n      dup1\n      swap2\n      sub\n      swap1\n      revert\n    tag_121:\n        /* \"coqtesting.sol\":6422:6426  game */\n      dup1\n        /* \"coqtesting.sol\":6422:6434  game.player1 */\n      0x00\n      add\n      0x00\n      swap1\n      sload\n      swap1\n      0x0100\n      exp\n      swap1\n      div\n      0xffffffffffffffffffffffffffffffffffffffff\n      and\n        /* \"coqtesting.sol\":6414:6444  payable(game.player1).transfer */\n      0xffffffffffffffffffffffffffffffffffffffff\n      and\n        /* \"coqtesting.sol\":6414:6456  payable(game.player1).transfer(game.wager) */\n      0x08fc\n        /* \"coqtesting.sol\":6445:6449  game */\n      dup3\n        /* \"coqtesting.sol\":6445:6455  game.wager */\n      0x02\n      add\n      sload\n        /* \"coqtesting.sol\":6414:6456  payable(game.player1).transfer(game.wager) */\n      swap1\n      dup2\n      iszero\n      mul\n      swap1\n      mload(0x40)\n      0x00\n      mload(0x40)\n      dup1\n      dup4\n      sub\n      dup2\n      dup6\n      dup9\n      dup9\n      call\n      swap4\n      pop\n      pop\n      pop\n      pop\n      iszero\n      dup1\n      iszero\n      tag_125\n      jumpi\n      returndatasize\n      0x00\n      dup1\n      returndatacopy\n      revert(0x00, returndatasize)\n    tag_125:\n      pop\n        /* \"coqtesting.sol\":6522:6556  _removeGameFromActiveList(_gameId) */\n      tag_126\n        /* \"coqtesting.sol\":6548:6555  _gameId */\n      dup3\n        /* \"coqtesting.sol\":6522:6547  _removeGameFromActiveList */\n      tag_127\n        /* \"coqtesting.sol\":6522:6556  _removeGameFromActiveList(_gameId) */\n      jump\t// in\n    tag_126:\n        /* \"coqtesting.sol\":6574:6579  games */\n      0x0a\n        /* \"coqtesting.sol\":6574:6588  games[_gameId] */\n      0x00\n        /* \"coqtesting.sol\":6580:6587  _gameId */\n      dup4\n        /* \"coqtesting.sol\":6574:6588  games[_gameId] */\n      dup2\n      mstore\n      0x20\n      add\n      swap1\n      dup2\n      mstore\n      0x20\n      add\n      0x00\n      keccak256\n      0x00\n        /* \"coqtesting.sol\":6567:6588  delete games[_gameId] */\n      dup1\n      dup3\n      add\n      exp(0x0100, 0x00)\n      dup2\n      sload\n      swap1\n      0xffffffffffffffffffffffffffffffffffffffff\n      mul\n      not\n      and\n      swap1\n      sstore\n      0x01\n      dup3\n      add\n      exp(0x0100, 0x00)\n      dup2\n      sload\n      swap1\n      0xffffffffffffffffffffffffffffffffffffffff\n      mul\n      not\n      and\n      swap1\n      sstore\n      0x02\n      dup3\n      add\n      0x00\n      swap1\n      sstore\n      0x03\n      dup3\n      add\n      exp(0x0100, 0x00)\n      dup2\n      sload\n      swap1\n      0xff\n      mul\n      not\n      and\n      swap1\n      sstore\n      0x03\n      dup3\n      add\n      exp(0x0100, 0x01)\n      dup2\n      sload\n      swap1\n      0xffffffffffffffffffffffffffffffffffffffff\n      mul\n      not\n      and\n      swap1\n      sstore\n      pop\n      pop\n        /* \"coqtesting.sol\":6618:6625  _gameId */\n      dup2\n        /* \"coqtesting.sol\":6604:6626  GameCancelled(_gameId) */\n      0x681705fdbd93dba3b679fd712577e9a86d57c5551c520f8c74857deb57f9623f\n      mload(0x40)\n      mload(0x40)\n      dup1\n      swap2\n      sub\n      swap1\n      log2\n        /* \"coqtesting.sol\":6043:6633  {... */\n      pop\n        /* \"coqtesting.sol\":5987:6633  function cancelGame(uint256 _gameId) external onlyOwner {... */\n      pop\n      jump\t// out\n        /* \"@chainlink/contracts/src/v0.8/shared/access/ConfirmedOwnerWithProposal.sol\":1001:1266  function acceptOwnership() external override {... */\n    tag_45:\n        /* \"@chainlink/contracts/src/v0.8/shared/access/ConfirmedOwnerWithProposal.sol\":1074:1088  s_pendingOwner */\n      0x01\n      0x00\n      swap1\n      sload\n      swap1\n      0x0100\n      exp\n      swap1\n      div\n      0xffffffffffffffffffffffffffffffffffffffff\n      and\n        /* \"@chainlink/contracts/src/v0.8/shared/access/ConfirmedOwnerWithProposal.sol\":1060:1088  msg.sender == s_pendingOwner */\n      0xffffffffffffffffffffffffffffffffffffffff\n      and\n        /* \"@chainlink/contracts/src/v0.8/shared/access/ConfirmedOwnerWithProposal.sol\":1060:1070  msg.sender */\n      caller\n        /* \"@chainlink/contracts/src/v0.8/shared/access/ConfirmedOwnerWithProposal.sol\":1060:1088  msg.sender == s_pendingOwner */\n      0xffffffffffffffffffffffffffffffffffffffff\n      and\n      eq\n        /* \"@chainlink/contracts/src/v0.8/shared/access/ConfirmedOwnerWithProposal.sol\":1052:1115  require(msg.sender == s_pendingOwner, \"Must be proposed owner\") */\n      tag_129\n      jumpi\n      mload(0x40)\n      0x08c379a000000000000000000000000000000000000000000000000000000000\n      dup2\n      mstore\n      0x04\n      add\n      tag_130\n      swap1\n      tag_131\n      jump\t// in\n    tag_130:\n      mload(0x40)\n      dup1\n      swap2\n      sub\n      swap1\n      revert\n    tag_129:\n        /* \"@chainlink/contracts/src/v0.8/shared/access/ConfirmedOwnerWithProposal.sol\":1122:1138  address oldOwner */\n      0x00\n        /* \"@chainlink/contracts/src/v0.8/shared/access/ConfirmedOwnerWithProposal.sol\":1141:1148  s_owner */\n      dup1\n      0x00\n      swap1\n      sload\n      swap1\n      0x0100\n      exp\n      swap1\n      div\n      0xffffffffffffffffffffffffffffffffffffffff\n      and\n        /* \"@chainlink/contracts/src/v0.8/shared/access/ConfirmedOwnerWithProposal.sol\":1122:1148  address oldOwner = s_owner */\n      swap1\n      pop\n        /* \"@chainlink/contracts/src/v0.8/shared/access/ConfirmedOwnerWithProposal.sol\":1164:1174  msg.sender */\n      caller\n        /* \"@chainlink/contracts/src/v0.8/shared/access/ConfirmedOwnerWithProposal.sol\":1154:1161  s_owner */\n      0x00\n      dup1\n        /* \"@chainlink/contracts/src/v0.8/shared/access/ConfirmedOwnerWithProposal.sol\":1154:1174  s_owner = msg.sender */\n      0x0100\n      exp\n      dup2\n      sload\n      dup2\n      0xffffffffffffffffffffffffffffffffffffffff\n      mul\n      not\n      and\n      swap1\n      dup4\n      0xffffffffffffffffffffffffffffffffffffffff\n      and\n      mul\n      or\n      swap1\n      sstore\n      pop\n        /* \"@chainlink/contracts/src/v0.8/shared/access/ConfirmedOwnerWithProposal.sol\":1205:1206  0 */\n      0x00\n        /* \"@chainlink/contracts/src/v0.8/shared/access/ConfirmedOwnerWithProposal.sol\":1180:1194  s_pendingOwner */\n      0x01\n      0x00\n        /* \"@chainlink/contracts/src/v0.8/shared/access/ConfirmedOwnerWithProposal.sol\":1180:1207  s_pendingOwner = address(0) */\n      0x0100\n      exp\n      dup2\n      sload\n      dup2\n      0xffffffffffffffffffffffffffffffffffffffff\n      mul\n      not\n      and\n      swap1\n      dup4\n      0xffffffffffffffffffffffffffffffffffffffff\n      and\n      mul\n      or\n      swap1\n      sstore\n      pop\n        /* \"@chainlink/contracts/src/v0.8/shared/access/ConfirmedOwnerWithProposal.sol\":1250:1260  msg.sender */\n      caller\n        /* \"@chainlink/contracts/src/v0.8/shared/access/ConfirmedOwnerWithProposal.sol\":1219:1261  OwnershipTransferred(oldOwner, msg.sender) */\n      0xffffffffffffffffffffffffffffffffffffffff\n      and\n        /* \"@chainlink/contracts/src/v0.8/shared/access/ConfirmedOwnerWithProposal.sol\":1240:1248  oldOwner */\n      dup2\n        /* \"@chainlink/contracts/src/v0.8/shared/access/ConfirmedOwnerWithProposal.sol\":1219:1261  OwnershipTransferred(oldOwner, msg.sender) */\n      0xffffffffffffffffffffffffffffffffffffffff\n      and\n      0x8be0079c531659141344cd1fd0a4f28419497f9722a3daafe3b4186f6b6457e0\n      mload(0x40)\n      mload(0x40)\n      dup1\n      swap2\n      sub\n      swap1\n      log3\n        /* \"@chainlink/contracts/src/v0.8/shared/access/ConfirmedOwnerWithProposal.sol\":1046:1266  {... */\n      pop\n        /* \"@chainlink/contracts/src/v0.8/shared/access/ConfirmedOwnerWithProposal.sol\":1001:1266  function acceptOwnership() external override {... */\n      jump\t// out\n        /* \"coqtesting.sol\":8246:8364  function setMinimumWager(uint256 _newMinimumWager) external onlyOwner {... */\n    tag_49:\n        /* \"@chainlink/contracts/src/v0.8/shared/access/ConfirmedOwnerWithProposal.sol\":1941:1961  _validateOwnership() */\n      tag_133\n        /* \"@chainlink/contracts/src/v0.8/shared/access/ConfirmedOwnerWithProposal.sol\":1941:1959  _validateOwnership */\n      tag_113\n        /* \"@chainlink/contracts/src/v0.8/shared/access/ConfirmedOwnerWithProposal.sol\":1941:1961  _validateOwnership() */\n      jump\t// in\n    tag_133:\n        /* \"coqtesting.sol\":8341:8357  _newMinimumWager */\n      dup1\n        /* \"coqtesting.sol\":8326:8338  minimumWager */\n      0x0d\n        /* \"coqtesting.sol\":8326:8357  minimumWager = _newMinimumWager */\n      dup2\n      swap1\n      sstore\n      pop\n        /* \"coqtesting.sol\":8246:8364  function setMinimumWager(uint256 _newMinimumWager) external onlyOwner {... */\n      pop\n      jump\t// out\n        /* \"coqtesting.sol\":645:672  uint256[] public requestIds */\n    tag_53:\n      0x04\n      dup2\n      dup2\n      sload\n      dup2\n      lt\n      tag_135\n      jumpi\n      0x00\n      dup1\n      revert\n    tag_135:\n      swap1\n      0x00\n      mstore\n      keccak256(0x00, 0x20)\n      add\n      0x00\n      swap2\n      pop\n      swap1\n      pop\n      sload\n      dup2\n      jump\t// out\n        /* \"@chainlink/contracts/src/v0.8/shared/access/ConfirmedOwnerWithProposal.sol\":1317:1398  function owner() public view override returns (address) {... */\n    tag_58:\n        /* \"@chainlink/contracts/src/v0.8/shared/access/ConfirmedOwnerWithProposal.sol\":1364:1371  address */\n      0x00\n        /* \"@chainlink/contracts/src/v0.8/shared/access/ConfirmedOwnerWithProposal.sol\":1386:1393  s_owner */\n      dup1\n      0x00\n      swap1\n      sload\n      swap1\n      0x0100\n      exp\n      swap1\n      div\n      0xffffffffffffffffffffffffffffffffffffffff\n      and\n        /* \"@chainlink/contracts/src/v0.8/shared/access/ConfirmedOwnerWithProposal.sol\":1379:1393  return s_owner */\n      swap1\n      pop\n        /* \"@chainlink/contracts/src/v0.8/shared/access/ConfirmedOwnerWithProposal.sol\":1317:1398  function owner() public view override returns (address) {... */\n      swap1\n      jump\t// out\n        /* \"coqtesting.sol\":2421:2451  uint256[] public activeGameIds */\n    tag_64:\n      0x0c\n      dup2\n      dup2\n      sload\n      dup2\n      lt\n      tag_138\n      jumpi\n      0x00\n      dup1\n      revert\n    tag_138:\n      swap1\n      0x00\n      mstore\n      keccak256(0x00, 0x20)\n      add\n      0x00\n      swap2\n      pop\n      swap1\n      pop\n      sload\n      dup2\n      jump\t// out\n        /* \"coqtesting.sol\":2044:2103  mapping(uint256 => RequestStatus)... */\n    tag_69:\n      mstore(0x20, 0x08)\n      dup1\n      0x00\n      mstore\n      keccak256(0x00, 0x40)\n      0x00\n      swap2\n      pop\n      swap1\n      pop\n      dup1\n      0x00\n      add\n      0x00\n      swap1\n      sload\n      swap1\n      0x0100\n      exp\n      swap1\n      div\n      0xff\n      and\n      swap1\n      dup1\n      0x00\n      add\n      0x01\n      swap1\n      sload\n      swap1\n      0x0100\n      exp\n      swap1\n      div\n      0xff\n      and\n      swap1\n      pop\n      dup3\n      jump\t// out\n        /* \"coqtesting.sol\":2626:2653  uint256 public minimumWager */\n    tag_74:\n      sload(0x0d)\n      dup2\n      jump\t// out\n        /* \"coqtesting.sol\":2308:2360  mapping(uint256 => uint256) public gameIdByRequestId */\n    tag_79:\n      mstore(0x20, 0x0b)\n      dup1\n      0x00\n      mstore\n      keccak256(0x00, 0x40)\n      0x00\n      swap2\n      pop\n      swap1\n      pop\n      sload\n      dup2\n      jump\t// out\n        /* \"coqtesting.sol\":9756:10081  function getRequestStatus(... */\n    tag_84:\n        /* \"coqtesting.sol\":9839:9853  bool fulfilled */\n      0x00\n        /* \"coqtesting.sol\":9855:9883  uint256[] memory randomWords */\n      0x60\n        /* \"coqtesting.sol\":9903:9913  s_requests */\n      0x08\n        /* \"coqtesting.sol\":9903:9925  s_requests[_requestId] */\n      0x00\n        /* \"coqtesting.sol\":9914:9924  _requestId */\n      dup5\n        /* \"coqtesting.sol\":9903:9925  s_requests[_requestId] */\n      dup2\n      mstore\n      0x20\n      add\n      swap1\n      dup2\n      mstore\n      0x20\n      add\n      0x00\n      keccak256\n        /* \"coqtesting.sol\":9903:9932  s_requests[_requestId].exists */\n      0x00\n      add\n      0x01\n      swap1\n      sload\n      swap1\n      0x0100\n      exp\n      swap1\n      div\n      0xff\n      and\n        /* \"coqtesting.sol\":9895:9954  require(s_requests[_requestId].exists, \"request not found\") */\n      tag_141\n      jumpi\n      mload(0x40)\n      0x08c379a000000000000000000000000000000000000000000000000000000000\n      dup2\n      mstore\n      0x04\n      add\n      tag_142\n      swap1\n      tag_143\n      jump\t// in\n    tag_142:\n      mload(0x40)\n      dup1\n      swap2\n      sub\n      swap1\n      revert\n    tag_141:\n        /* \"coqtesting.sol\":9964:9992  RequestStatus memory request */\n      0x00\n        /* \"coqtesting.sol\":9995:10005  s_requests */\n      0x08\n        /* \"coqtesting.sol\":9995:10017  s_requests[_requestId] */\n      0x00\n        /* \"coqtesting.sol\":10006:10016  _requestId */\n      dup6\n        /* \"coqtesting.sol\":9995:10017  s_requests[_requestId] */\n      dup2\n      mstore\n      0x20\n      add\n      swap1\n      dup2\n      mstore\n      0x20\n      add\n      0x00\n      keccak256\n        /* \"coqtesting.sol\":9964:10017  RequestStatus memory request = s_requests[_requestId] */\n      mload(0x40)\n      dup1\n      0x60\n      add\n      0x40\n      mstore\n      swap1\n      dup2\n      0x00\n      dup3\n      add\n      0x00\n      swap1\n      sload\n      swap1\n      0x0100\n      exp\n      swap1\n      div\n      0xff\n      and\n      iszero\n      iszero\n      iszero\n      iszero\n      dup2\n      mstore\n      0x20\n      add\n      0x00\n      dup3\n      add\n      0x01\n      swap1\n      sload\n      swap1\n      0x0100\n      exp\n      swap1\n      div\n      0xff\n      and\n      iszero\n      iszero\n      iszero\n      iszero\n      dup2\n      mstore\n      0x20\n      add\n      0x01\n      dup3\n      add\n      dup1\n      sload\n      dup1\n      0x20\n      mul\n      0x20\n      add\n      mload(0x40)\n      swap1\n      dup2\n      add\n      0x40\n      mstore\n      dup1\n      swap3\n      swap2\n      swap1\n      dup2\n      dup2\n      mstore\n      0x20\n      add\n      dup3\n      dup1\n      sload\n      dup1\n      iszero\n      tag_144\n      jumpi\n      0x20\n      mul\n      dup3\n      add\n      swap2\n      swap1\n      0x00\n      mstore\n      keccak256(0x00, 0x20)\n      swap1\n    tag_145:\n      dup2\n      sload\n      dup2\n      mstore\n      0x20\n      add\n      swap1\n      0x01\n      add\n      swap1\n      dup1\n      dup4\n      gt\n      tag_145\n      jumpi\n    tag_144:\n      pop\n      pop\n      pop\n      pop\n      pop\n      dup2\n      mstore\n      pop\n      pop\n      swap1\n      pop\n        /* \"coqtesting.sol\":10035:10042  request */\n      dup1\n        /* \"coqtesting.sol\":10035:10052  request.fulfilled */\n      0x00\n      add\n      mload\n        /* \"coqtesting.sol\":10054:10061  request */\n      dup2\n        /* \"coqtesting.sol\":10054:10073  request.randomWords */\n      0x40\n      add\n      mload\n        /* \"coqtesting.sol\":10027:10074  return (request.fulfilled, request.randomWords) */\n      swap3\n      pop\n      swap3\n      pop\n      pop\n        /* \"coqtesting.sol\":9756:10081  function getRequestStatus(... */\n      swap2\n      pop\n      swap2\n      jump\t// out\n        /* \"coqtesting.sol\":4127:4688  function startGame(uint256 _wager) external payable {... */\n    tag_89:\n        /* \"coqtesting.sol\":4372:4384  minimumWager */\n      sload(0x0d)\n        /* \"coqtesting.sol\":4359:4368  msg.value */\n      callvalue\n        /* \"coqtesting.sol\":4359:4384  msg.value >= minimumWager */\n      lt\n      iszero\n        /* \"coqtesting.sol\":4351:4427  require(msg.value >= minimumWager, \"Wager amount is less than minimumWager\") */\n      tag_147\n      jumpi\n      mload(0x40)\n      0x08c379a000000000000000000000000000000000000000000000000000000000\n      dup2\n      mstore\n      0x04\n      add\n      tag_148\n      swap1\n      tag_149\n      jump\t// in\n    tag_148:\n      mload(0x40)\n      dup1\n      swap2\n      sub\n      swap1\n      revert\n    tag_147:\n        /* \"coqtesting.sol\":4438:4452  uint256 gameId */\n      0x00\n        /* \"coqtesting.sol\":4455:4472  _generateGameId() */\n      tag_150\n        /* \"coqtesting.sol\":4455:4470  _generateGameId */\n      tag_151\n        /* \"coqtesting.sol\":4455:4472  _generateGameId() */\n      jump\t// in\n    tag_150:\n        /* \"coqtesting.sol\":4438:4472  uint256 gameId = _generateGameId() */\n      swap1\n      pop\n        /* \"coqtesting.sol\":4498:4553  Game(msg.sender, address(0), _wager, false, address(0)) */\n      mload(0x40)\n      dup1\n      0xa0\n      add\n      0x40\n      mstore\n      dup1\n        /* \"coqtesting.sol\":4503:4513  msg.sender */\n      caller\n        /* \"coqtesting.sol\":4498:4553  Game(msg.sender, address(0), _wager, false, address(0)) */\n      0xffffffffffffffffffffffffffffffffffffffff\n      and\n      dup2\n      mstore\n      0x20\n      add\n        /* \"coqtesting.sol\":4523:4524  0 */\n      0x00\n        /* \"coqtesting.sol\":4498:4553  Game(msg.sender, address(0), _wager, false, address(0)) */\n      0xffffffffffffffffffffffffffffffffffffffff\n      and\n      dup2\n      mstore\n      0x20\n      add\n        /* \"coqtesting.sol\":4527:4533  _wager */\n      dup4\n        /* \"coqtesting.sol\":4498:4553  Game(msg.sender, address(0), _wager, false, address(0)) */\n      dup2\n      mstore\n      0x20\n      add\n        /* \"coqtesting.sol\":4535:4540  false */\n      0x00\n        /* \"coqtesting.sol\":4498:4553  Game(msg.sender, address(0), _wager, false, address(0)) */\n      iszero\n      iszero\n      dup2\n      mstore\n      0x20\n      add\n        /* \"coqtesting.sol\":4550:4551  0 */\n      0x00\n        /* \"coqtesting.sol\":4498:4553  Game(msg.sender, address(0), _wager, false, address(0)) */\n      0xffffffffffffffffffffffffffffffffffffffff\n      and\n      dup2\n      mstore\n      pop\n        /* \"coqtesting.sol\":4482:4487  games */\n      0x0a\n        /* \"coqtesting.sol\":4482:4495  games[gameId] */\n      0x00\n        /* \"coqtesting.sol\":4488:4494  gameId */\n      dup4\n        /* \"coqtesting.sol\":4482:4495  games[gameId] */\n      dup2\n      mstore\n      0x20\n      add\n      swap1\n      dup2\n      mstore\n      0x20\n      add\n      0x00\n      keccak256\n        /* \"coqtesting.sol\":4482:4553  games[gameId] = Game(msg.sender, address(0), _wager, false, address(0)) */\n      0x00\n      dup3\n      add\n      mload\n      dup2\n      0x00\n      add\n      exp(0x0100, 0x00)\n      dup2\n      sload\n      dup2\n      0xffffffffffffffffffffffffffffffffffffffff\n      mul\n      not\n      and\n      swap1\n      dup4\n      0xffffffffffffffffffffffffffffffffffffffff\n      and\n      mul\n      or\n      swap1\n      sstore\n      pop\n      0x20\n      dup3\n      add\n      mload\n      dup2\n      0x01\n      add\n      exp(0x0100, 0x00)\n      dup2\n      sload\n      dup2\n      0xffffffffffffffffffffffffffffffffffffffff\n      mul\n      not\n      and\n      swap1\n      dup4\n      0xffffffffffffffffffffffffffffffffffffffff\n      and\n      mul\n      or\n      swap1\n      sstore\n      pop\n      0x40\n      dup3\n      add\n      mload\n      dup2\n      0x02\n      add\n      sstore\n      0x60\n      dup3\n      add\n      mload\n      dup2\n      0x03\n      add\n      exp(0x0100, 0x00)\n      dup2\n      sload\n      dup2\n      0xff\n      mul\n      not\n      and\n      swap1\n      dup4\n      iszero\n      iszero\n      mul\n      or\n      swap1\n      sstore\n      pop\n      0x80\n      dup3\n      add\n      mload\n      dup2\n      0x03\n      add\n      exp(0x0100, 0x01)\n      dup2\n      sload\n      dup2\n      0xffffffffffffffffffffffffffffffffffffffff\n      mul\n      not\n      and\n      swap1\n      dup4\n      0xffffffffffffffffffffffffffffffffffffffff\n      and\n      mul\n      or\n      swap1\n      sstore\n      pop\n      swap1\n      pop\n      pop\n        /* \"coqtesting.sol\":4563:4576  activeGameIds */\n      0x0c\n        /* \"coqtesting.sol\":4582:4588  gameId */\n      dup2\n        /* \"coqtesting.sol\":4563:4589  activeGameIds.push(gameId) */\n      swap1\n      dup1\n      0x01\n      dup2\n      sload\n      add\n      dup1\n      dup3\n      sstore\n      dup1\n      swap2\n      pop\n      pop\n      0x01\n      swap1\n      sub\n      swap1\n      0x00\n      mstore\n      keccak256(0x00, 0x20)\n      add\n      0x00\n      swap1\n      swap2\n      swap1\n      swap2\n      swap1\n      swap2\n      pop\n      sstore\n        /* \"coqtesting.sol\":4662:4672  msg.sender */\n      caller\n        /* \"coqtesting.sol\":4642:4681  GameStarted(gameId, msg.sender, _wager) */\n      0xffffffffffffffffffffffffffffffffffffffff\n      and\n        /* \"coqtesting.sol\":4654:4660  gameId */\n      dup2\n        /* \"coqtesting.sol\":4642:4681  GameStarted(gameId, msg.sender, _wager) */\n      0x0c82908456d66c43e9de63edd66f9faf875c8f3a12f936e162d675ec42c35444\n        /* \"coqtesting.sol\":4674:4680  _wager */\n      dup5\n        /* \"coqtesting.sol\":4642:4681  GameStarted(gameId, msg.sender, _wager) */\n      mload(0x40)\n      tag_153\n      swap2\n      swap1\n      tag_55\n      jump\t// in\n    tag_153:\n      mload(0x40)\n      dup1\n      swap2\n      sub\n      swap1\n      log3\n        /* \"coqtesting.sol\":4179:4688  {... */\n      pop\n        /* \"coqtesting.sol\":4127:4688  function startGame(uint256 _wager) external payable {... */\n      pop\n      jump\t// out\n        /* \"coqtesting.sol\":4735:5761  function joinGame(uint256 _gameId) external payable {... */\n    tag_92:\n        /* \"coqtesting.sol\":4797:4814  Game storage game */\n      0x00\n        /* \"coqtesting.sol\":4817:4822  games */\n      0x0a\n        /* \"coqtesting.sol\":4817:4831  games[_gameId] */\n      0x00\n        /* \"coqtesting.sol\":4823:4830  _gameId */\n      dup4\n        /* \"coqtesting.sol\":4817:4831  games[_gameId] */\n      dup2\n      mstore\n      0x20\n      add\n      swap1\n      dup2\n      mstore\n      0x20\n      add\n      0x00\n      keccak256\n        /* \"coqtesting.sol\":4797:4831  Game storage game = games[_gameId] */\n      swap1\n      pop\n        /* \"coqtesting.sol\":4850:4854  game */\n      dup1\n        /* \"coqtesting.sol\":4850:4864  game.completed */\n      0x03\n      add\n      0x00\n      swap1\n      sload\n      swap1\n      0x0100\n      exp\n      swap1\n      div\n      0xff\n      and\n        /* \"coqtesting.sol\":4849:4864  !game.completed */\n      iszero\n        /* \"coqtesting.sol\":4841:4886  require(!game.completed, \"Game is completed\") */\n      tag_155\n      jumpi\n      mload(0x40)\n      0x08c379a000000000000000000000000000000000000000000000000000000000\n      dup2\n      mstore\n      0x04\n      add\n      tag_156\n      swap1\n      tag_120\n      jump\t// in\n    tag_156:\n      mload(0x40)\n      dup1\n      swap2\n      sub\n      swap1\n      revert\n    tag_155:\n        /* \"coqtesting.sol\":4928:4929  0 */\n      0x00\n        /* \"coqtesting.sol\":4904:4930  game.player2 == address(0) */\n      0xffffffffffffffffffffffffffffffffffffffff\n      and\n        /* \"coqtesting.sol\":4904:4908  game */\n      dup2\n        /* \"coqtesting.sol\":4904:4916  game.player2 */\n      0x01\n      add\n      0x00\n      swap1\n      sload\n      swap1\n      0x0100\n      exp\n      swap1\n      div\n      0xffffffffffffffffffffffffffffffffffffffff\n      and\n        /* \"coqtesting.sol\":4904:4930  game.player2 == address(0) */\n      0xffffffffffffffffffffffffffffffffffffffff\n      and\n      eq\n        /* \"coqtesting.sol\":4896:4957  require(game.player2 == address(0), \"Game is already joined\") */\n      tag_157\n      jumpi\n      mload(0x40)\n      0x08c379a000000000000000000000000000000000000000000000000000000000\n      dup2\n      mstore\n      0x04\n      add\n      tag_158\n      swap1\n      tag_123\n      jump\t// in\n    tag_158:\n      mload(0x40)\n      dup1\n      swap2\n      sub\n      swap1\n      revert\n    tag_157:\n        /* \"coqtesting.sol\":5154:5158  game */\n      dup1\n        /* \"coqtesting.sol\":5154:5164  game.wager */\n      0x02\n      add\n      sload\n        /* \"coqtesting.sol\":5141:5150  msg.value */\n      callvalue\n        /* \"coqtesting.sol\":5141:5164  msg.value == game.wager */\n      eq\n        /* \"coqtesting.sol\":5133:5190  require(msg.value == game.wager, \"Incorrect amount sent\") */\n      tag_159\n      jumpi\n      mload(0x40)\n      0x08c379a000000000000000000000000000000000000000000000000000000000\n      dup2\n      mstore\n      0x04\n      add\n      tag_160\n      swap1\n      tag_161\n      jump\t// in\n    tag_160:\n      mload(0x40)\n      dup1\n      swap2\n      sub\n      swap1\n      revert\n    tag_159:\n        /* \"coqtesting.sol\":5232:5233  0 */\n      0x00\n        /* \"coqtesting.sol\":5208:5234  game.player1 != address(0) */\n      0xffffffffffffffffffffffffffffffffffffffff\n      and\n        /* \"coqtesting.sol\":5208:5212  game */\n      dup2\n        /* \"coqtesting.sol\":5208:5220  game.player1 */\n      0x00\n      add\n      0x00\n      swap1\n      sload\n      swap1\n      0x0100\n      exp\n      swap1\n      div\n      0xffffffffffffffffffffffffffffffffffffffff\n      and\n        /* \"coqtesting.sol\":5208:5234  game.player1 != address(0) */\n      0xffffffffffffffffffffffffffffffffffffffff\n      and\n      sub\n        /* \"coqtesting.sol\":5200:5258  require(game.player1 != address(0), \"Game does not exist\") */\n      tag_162\n      jumpi\n      mload(0x40)\n      0x08c379a000000000000000000000000000000000000000000000000000000000\n      dup2\n      mstore\n      0x04\n      add\n      tag_163\n      swap1\n      tag_117\n      jump\t// in\n    tag_163:\n      mload(0x40)\n      dup1\n      swap2\n      sub\n      swap1\n      revert\n    tag_162:\n        /* \"coqtesting.sol\":5290:5294  game */\n      dup1\n        /* \"coqtesting.sol\":5290:5302  game.player1 */\n      0x00\n      add\n      0x00\n      swap1\n      sload\n      swap1\n      0x0100\n      exp\n      swap1\n      div\n      0xffffffffffffffffffffffffffffffffffffffff\n      and\n        /* \"coqtesting.sol\":5276:5302  msg.sender != game.player1 */\n      0xffffffffffffffffffffffffffffffffffffffff\n      and\n        /* \"coqtesting.sol\":5276:5286  msg.sender */\n      caller\n        /* \"coqtesting.sol\":5276:5302  msg.sender != game.player1 */\n      0xffffffffffffffffffffffffffffffffffffffff\n      and\n      sub\n        /* \"coqtesting.sol\":5268:5336  require(msg.sender != game.player1, \"You cannot join your own game\") */\n      tag_164\n      jumpi\n      mload(0x40)\n      0x08c379a000000000000000000000000000000000000000000000000000000000\n      dup2\n      mstore\n      0x04\n      add\n      tag_165\n      swap1\n      tag_166\n      jump\t// in\n    tag_165:\n      mload(0x40)\n      dup1\n      swap2\n      sub\n      swap1\n      revert\n    tag_164:\n        /* \"coqtesting.sol\":5404:5414  msg.sender */\n      caller\n        /* \"coqtesting.sol\":5389:5393  game */\n      dup2\n        /* \"coqtesting.sol\":5389:5401  game.player2 */\n      0x01\n      add\n      0x00\n        /* \"coqtesting.sol\":5389:5414  game.player2 = msg.sender */\n      0x0100\n      exp\n      dup2\n      sload\n      dup2\n      0xffffffffffffffffffffffffffffffffffffffff\n      mul\n      not\n      and\n      swap1\n      dup4\n      0xffffffffffffffffffffffffffffffffffffffff\n      and\n      mul\n      or\n      swap1\n      sstore\n      pop\n        /* \"coqtesting.sol\":5480:5497  uint256 requestId */\n      0x00\n        /* \"coqtesting.sol\":5500:5520  requestRandomWords() */\n      tag_167\n        /* \"coqtesting.sol\":5500:5518  requestRandomWords */\n      tag_168\n        /* \"coqtesting.sol\":5500:5520  requestRandomWords() */\n      jump\t// in\n    tag_167:\n        /* \"coqtesting.sol\":5480:5520  uint256 requestId = requestRandomWords() */\n      swap1\n      pop\n        /* \"coqtesting.sol\":5561:5568  _gameId */\n      dup3\n        /* \"coqtesting.sol\":5530:5547  gameIdByRequestId */\n      0x0b\n        /* \"coqtesting.sol\":5530:5558  gameIdByRequestId[requestId] */\n      0x00\n        /* \"coqtesting.sol\":5548:5557  requestId */\n      dup4\n        /* \"coqtesting.sol\":5530:5558  gameIdByRequestId[requestId] */\n      dup2\n      mstore\n      0x20\n      add\n      swap1\n      dup2\n      mstore\n      0x20\n      add\n      0x00\n      keccak256\n        /* \"coqtesting.sol\":5530:5568  gameIdByRequestId[requestId] = _gameId */\n      dup2\n      swap1\n      sstore\n      pop\n        /* \"coqtesting.sol\":5606:5616  msg.sender */\n      caller\n        /* \"coqtesting.sol\":5584:5617  PlayerJoined(_gameId, msg.sender) */\n      0xffffffffffffffffffffffffffffffffffffffff\n      and\n        /* \"coqtesting.sol\":5597:5604  _gameId */\n      dup4\n        /* \"coqtesting.sol\":5584:5617  PlayerJoined(_gameId, msg.sender) */\n      0x87969bc7faf902221a147b95ceba76e011c5efb0339a0a8ee7a2bb82d9cfbbd6\n      mload(0x40)\n      mload(0x40)\n      dup1\n      swap2\n      sub\n      swap1\n      log3\n        /* \"coqtesting.sol\":4787:5761  {... */\n      pop\n      pop\n        /* \"coqtesting.sol\":4735:5761  function joinGame(uint256 _gameId) external payable {... */\n      pop\n      jump\t// out\n        /* \"@chainlink/contracts/src/v0.8/shared/access/ConfirmedOwnerWithProposal.sol\":811:909  function transferOwnership(address to) public override onlyOwner {... */\n    tag_97:\n        /* \"@chainlink/contracts/src/v0.8/shared/access/ConfirmedOwnerWithProposal.sol\":1941:1961  _validateOwnership() */\n      tag_170\n        /* \"@chainlink/contracts/src/v0.8/shared/access/ConfirmedOwnerWithProposal.sol\":1941:1959  _validateOwnership */\n      tag_113\n        /* \"@chainlink/contracts/src/v0.8/shared/access/ConfirmedOwnerWithProposal.sol\":1941:1961  _validateOwnership() */\n      jump\t// in\n    tag_170:\n        /* \"@chainlink/contracts/src/v0.8/shared/access/ConfirmedOwnerWithProposal.sol\":882:904  _transferOwnership(to) */\n      tag_172\n        /* \"@chainlink/contracts/src/v0.8/shared/access/ConfirmedOwnerWithProposal.sol\":901:903  to */\n      dup2\n        /* \"@chainlink/contracts/src/v0.8/shared/access/ConfirmedOwnerWithProposal.sol\":882:900  _transferOwnership */\n      tag_173\n        /* \"@chainlink/contracts/src/v0.8/shared/access/ConfirmedOwnerWithProposal.sol\":882:904  _transferOwnership(to) */\n      jump\t// in\n    tag_172:\n        /* \"@chainlink/contracts/src/v0.8/shared/access/ConfirmedOwnerWithProposal.sol\":811:909  function transferOwnership(address to) public override onlyOwner {... */\n      pop\n      jump\t// out\n        /* \"coqtesting.sol\":678:706  uint256 public lastRequestId */\n    tag_100:\n      sload(0x05)\n      dup2\n      jump\t// out\n        /* \"coqtesting.sol\":9143:9750  function fulfillRandomWords(... */\n    tag_107:\n        /* \"coqtesting.sol\":9280:9290  s_requests */\n      0x08\n        /* \"coqtesting.sol\":9280:9302  s_requests[_requestId] */\n      0x00\n        /* \"coqtesting.sol\":9291:9301  _requestId */\n      dup4\n        /* \"coqtesting.sol\":9280:9302  s_requests[_requestId] */\n      dup2\n      mstore\n      0x20\n      add\n      swap1\n      dup2\n      mstore\n      0x20\n      add\n      0x00\n      keccak256\n        /* \"coqtesting.sol\":9280:9309  s_requests[_requestId].exists */\n      0x00\n      add\n      0x01\n      swap1\n      sload\n      swap1\n      0x0100\n      exp\n      swap1\n      div\n      0xff\n      and\n        /* \"coqtesting.sol\":9272:9331  require(s_requests[_requestId].exists, \"request not found\") */\n      tag_175\n      jumpi\n      mload(0x40)\n      0x08c379a000000000000000000000000000000000000000000000000000000000\n      dup2\n      mstore\n      0x04\n      add\n      tag_176\n      swap1\n      tag_143\n      jump\t// in\n    tag_176:\n      mload(0x40)\n      dup1\n      swap2\n      sub\n      swap1\n      revert\n    tag_175:\n        /* \"coqtesting.sol\":9376:9380  true */\n      0x01\n        /* \"coqtesting.sol\":9341:9351  s_requests */\n      0x08\n        /* \"coqtesting.sol\":9341:9363  s_requests[_requestId] */\n      0x00\n        /* \"coqtesting.sol\":9352:9362  _requestId */\n      dup5\n        /* \"coqtesting.sol\":9341:9363  s_requests[_requestId] */\n      dup2\n      mstore\n      0x20\n      add\n      swap1\n      dup2\n      mstore\n      0x20\n      add\n      0x00\n      keccak256\n        /* \"coqtesting.sol\":9341:9373  s_requests[_requestId].fulfilled */\n      0x00\n      add\n      0x00\n        /* \"coqtesting.sol\":9341:9380  s_requests[_requestId].fulfilled = true */\n      0x0100\n      exp\n      dup2\n      sload\n      dup2\n      0xff\n      mul\n      not\n      and\n      swap1\n      dup4\n      iszero\n      iszero\n      mul\n      or\n      swap1\n      sstore\n      pop\n        /* \"coqtesting.sol\":9427:9439  _randomWords */\n      dup1\n        /* \"coqtesting.sol\":9390:9400  s_requests */\n      0x08\n        /* \"coqtesting.sol\":9390:9412  s_requests[_requestId] */\n      0x00\n        /* \"coqtesting.sol\":9401:9411  _requestId */\n      dup5\n        /* \"coqtesting.sol\":9390:9412  s_requests[_requestId] */\n      dup2\n      mstore\n      0x20\n      add\n      swap1\n      dup2\n      mstore\n      0x20\n      add\n      0x00\n      keccak256\n        /* \"coqtesting.sol\":9390:9424  s_requests[_requestId].randomWords */\n      0x01\n      add\n        /* \"coqtesting.sol\":9390:9439  s_requests[_requestId].randomWords = _randomWords */\n      swap1\n      dup1\n      mload\n      swap1\n      0x20\n      add\n      swap1\n      tag_177\n      swap3\n      swap2\n      swap1\n      tag_178\n      jump\t// in\n    tag_177:\n      pop\n        /* \"coqtesting.sol\":9510:9524  uint256 gameId */\n      0x00\n        /* \"coqtesting.sol\":9527:9544  gameIdByRequestId */\n      0x0b\n        /* \"coqtesting.sol\":9527:9556  gameIdByRequestId[_requestId] */\n      0x00\n        /* \"coqtesting.sol\":9545:9555  _requestId */\n      dup5\n        /* \"coqtesting.sol\":9527:9556  gameIdByRequestId[_requestId] */\n      dup2\n      mstore\n      0x20\n      add\n      swap1\n      dup2\n      mstore\n      0x20\n      add\n      0x00\n      keccak256\n      sload\n        /* \"coqtesting.sol\":9510:9556  uint256 gameId = gameIdByRequestId[_requestId] */\n      swap1\n      pop\n        /* \"coqtesting.sol\":9650:9685  _completeGame(gameId, _randomWords) */\n      tag_179\n        /* \"coqtesting.sol\":9664:9670  gameId */\n      dup2\n        /* \"coqtesting.sol\":9672:9684  _randomWords */\n      dup4\n        /* \"coqtesting.sol\":9650:9663  _completeGame */\n      tag_180\n        /* \"coqtesting.sol\":9650:9685  _completeGame(gameId, _randomWords) */\n      jump\t// in\n    tag_179:\n        /* \"coqtesting.sol\":9701:9743  RequestFulfilled(_requestId, _randomWords) */\n      0xfe2e2d779dba245964d4e3ef9b994be63856fd568bf7d3ca9e224755cb1bd54d\n        /* \"coqtesting.sol\":9718:9728  _requestId */\n      dup4\n        /* \"coqtesting.sol\":9730:9742  _randomWords */\n      dup4\n        /* \"coqtesting.sol\":9701:9743  RequestFulfilled(_requestId, _randomWords) */\n      mload(0x40)\n      tag_181\n      swap3\n      swap2\n      swap1\n      tag_182\n      jump\t// in\n    tag_181:\n      mload(0x40)\n      dup1\n      swap2\n      sub\n      swap1\n      log1\n        /* \"coqtesting.sol\":9262:9750  {... */\n      pop\n        /* \"coqtesting.sol\":9143:9750  function fulfillRandomWords(... */\n      pop\n      pop\n      jump\t// out\n        /* \"@chainlink/contracts/src/v0.8/shared/access/ConfirmedOwnerWithProposal.sol\":1715:1826  function _validateOwnership() internal view {... */\n    tag_113:\n        /* \"@chainlink/contracts/src/v0.8/shared/access/ConfirmedOwnerWithProposal.sol\":1787:1794  s_owner */\n      0x00\n      dup1\n      sload\n      swap1\n      0x0100\n      exp\n      swap1\n      div\n      0xffffffffffffffffffffffffffffffffffffffff\n      and\n        /* \"@chainlink/contracts/src/v0.8/shared/access/ConfirmedOwnerWithProposal.sol\":1773:1794  msg.sender == s_owner */\n      0xffffffffffffffffffffffffffffffffffffffff\n      and\n        /* \"@chainlink/contracts/src/v0.8/shared/access/ConfirmedOwnerWithProposal.sol\":1773:1783  msg.sender */\n      caller\n        /* \"@chainlink/contracts/src/v0.8/shared/access/ConfirmedOwnerWithProposal.sol\":1773:1794  msg.sender == s_owner */\n      0xffffffffffffffffffffffffffffffffffffffff\n      and\n      eq\n        /* \"@chainlink/contracts/src/v0.8/shared/access/ConfirmedOwnerWithProposal.sol\":1765:1821  require(msg.sender == s_owner, \"Only callable by owner\") */\n      tag_184\n      jumpi\n      mload(0x40)\n      0x08c379a000000000000000000000000000000000000000000000000000000000\n      dup2\n      mstore\n      0x04\n      add\n      tag_185\n      swap1\n      tag_186\n      jump\t// in\n    tag_185:\n      mload(0x40)\n      dup1\n      swap2\n      sub\n      swap1\n      revert\n    tag_184:\n        /* \"@chainlink/contracts/src/v0.8/shared/access/ConfirmedOwnerWithProposal.sol\":1715:1826  function _validateOwnership() internal view {... */\n      jump\t// out\n        /* \"coqtesting.sol\":7492:7935  function _removeGameFromActiveList(uint256 _gameId) internal {... */\n    tag_127:\n        /* \"coqtesting.sol\":7568:7577  uint256 i */\n      0x00\n        /* \"coqtesting.sol\":7563:7929  for (uint256 i = 0; i < activeGameIds.length; i++) {... */\n    tag_188:\n        /* \"coqtesting.sol\":7587:7600  activeGameIds */\n      0x0c\n        /* \"coqtesting.sol\":7587:7607  activeGameIds.length */\n      dup1\n      sload\n      swap1\n      pop\n        /* \"coqtesting.sol\":7583:7584  i */\n      dup2\n        /* \"coqtesting.sol\":7583:7607  i < activeGameIds.length */\n      lt\n        /* \"coqtesting.sol\":7563:7929  for (uint256 i = 0; i < activeGameIds.length; i++) {... */\n      iszero\n      tag_189\n      jumpi\n        /* \"coqtesting.sol\":7652:7659  _gameId */\n      dup2\n        /* \"coqtesting.sol\":7632:7645  activeGameIds */\n      0x0c\n        /* \"coqtesting.sol\":7646:7647  i */\n      dup3\n        /* \"coqtesting.sol\":7632:7648  activeGameIds[i] */\n      dup2\n      sload\n      dup2\n      lt\n      tag_191\n      jumpi\n      tag_192\n      tag_193\n      jump\t// in\n    tag_192:\n    tag_191:\n      swap1\n      0x00\n      mstore\n      keccak256(0x00, 0x20)\n      add\n      sload\n        /* \"coqtesting.sol\":7632:7659  activeGameIds[i] == _gameId */\n      sub\n        /* \"coqtesting.sol\":7628:7919  if (activeGameIds[i] == _gameId) {... */\n      tag_195\n      jumpi\n        /* \"coqtesting.sol\":7805:7818  activeGameIds */\n      0x0c\n        /* \"coqtesting.sol\":7842:7843  1 */\n      0x01\n        /* \"coqtesting.sol\":7819:7832  activeGameIds */\n      0x0c\n        /* \"coqtesting.sol\":7819:7839  activeGameIds.length */\n      dup1\n      sload\n      swap1\n      pop\n        /* \"coqtesting.sol\":7819:7843  activeGameIds.length - 1 */\n      tag_196\n      swap2\n      swap1\n      tag_197\n      jump\t// in\n    tag_196:\n        /* \"coqtesting.sol\":7805:7844  activeGameIds[activeGameIds.length - 1] */\n      dup2\n      sload\n      dup2\n      lt\n      tag_198\n      jumpi\n      tag_199\n      tag_193\n      jump\t// in\n    tag_199:\n    tag_198:\n      swap1\n      0x00\n      mstore\n      keccak256(0x00, 0x20)\n      add\n      sload\n        /* \"coqtesting.sol\":7786:7799  activeGameIds */\n      0x0c\n        /* \"coqtesting.sol\":7800:7801  i */\n      dup3\n        /* \"coqtesting.sol\":7786:7802  activeGameIds[i] */\n      dup2\n      sload\n      dup2\n      lt\n      tag_201\n      jumpi\n      tag_202\n      tag_193\n      jump\t// in\n    tag_202:\n    tag_201:\n      swap1\n      0x00\n      mstore\n      keccak256(0x00, 0x20)\n      add\n        /* \"coqtesting.sol\":7786:7844  activeGameIds[i] = activeGameIds[activeGameIds.length - 1] */\n      dup2\n      swap1\n      sstore\n      pop\n        /* \"coqtesting.sol\":7862:7875  activeGameIds */\n      0x0c\n        /* \"coqtesting.sol\":7862:7881  activeGameIds.pop() */\n      dup1\n      sload\n      dup1\n      tag_204\n      jumpi\n      tag_205\n      tag_206\n      jump\t// in\n    tag_205:\n    tag_204:\n      0x01\n      swap1\n      sub\n      dup2\n      dup2\n      swap1\n      0x00\n      mstore\n      keccak256(0x00, 0x20)\n      add\n      0x00\n      swap1\n      sstore\n      swap1\n      sstore\n        /* \"coqtesting.sol\":7899:7904  break */\n      jump(tag_189)\n        /* \"coqtesting.sol\":7628:7919  if (activeGameIds[i] == _gameId) {... */\n    tag_195:\n        /* \"coqtesting.sol\":7609:7612  i++ */\n      dup1\n      dup1\n      0x01\n      add\n      swap2\n      pop\n      pop\n        /* \"coqtesting.sol\":7563:7929  for (uint256 i = 0; i < activeGameIds.length; i++) {... */\n      jump(tag_188)\n    tag_189:\n      pop\n        /* \"coqtesting.sol\":7492:7935  function _removeGameFromActiveList(uint256 _gameId) internal {... */\n      pop\n      jump\t// out\n        /* \"coqtesting.sol\":8020:8177  function _generateGameId() private returns (uint256) {... */\n    tag_151:\n        /* \"coqtesting.sol\":8064:8071  uint256 */\n      0x00\n        /* \"coqtesting.sol\":8125:8140  block.timestamp */\n      timestamp\n        /* \"coqtesting.sol\":8142:8152  msg.sender */\n      caller\n        /* \"coqtesting.sol\":8154:8165  gameCounter */\n      0x02\n      0x00\n        /* \"coqtesting.sol\":8154:8167  gameCounter++ */\n      dup2\n      sload\n      dup1\n      swap3\n      swap2\n      swap1\n      tag_209\n      swap1\n      tag_210\n      jump\t// in\n    tag_209:\n      swap2\n      swap1\n      pop\n      sstore\n        /* \"coqtesting.sol\":8108:8168  abi.encodePacked(block.timestamp, msg.sender, gameCounter++) */\n      add(0x20, mload(0x40))\n      tag_211\n      swap4\n      swap3\n      swap2\n      swap1\n      tag_212\n      jump\t// in\n    tag_211:\n      mload(0x40)\n      0x20\n      dup2\n      dup4\n      sub\n      sub\n      dup2\n      mstore\n      swap1\n      0x40\n      mstore\n        /* \"coqtesting.sol\":8098:8169  keccak256(abi.encodePacked(block.timestamp, msg.sender, gameCounter++)) */\n      dup1\n      mload\n      swap1\n      0x20\n      add\n      keccak256\n        /* \"coqtesting.sol\":8090:8170  uint256(keccak256(abi.encodePacked(block.timestamp, msg.sender, gameCounter++))) */\n      0x00\n      shr\n        /* \"coqtesting.sol\":8083:8170  return uint256(keccak256(abi.encodePacked(block.timestamp, msg.sender, gameCounter++))) */\n      swap1\n      pop\n        /* \"coqtesting.sol\":8020:8177  function _generateGameId() private returns (uint256) {... */\n      swap1\n      jump\t// out\n        /* \"coqtesting.sol\":8496:9137  function requestRandomWords() internal returns (uint256 requestId)... */\n    tag_168:\n        /* \"coqtesting.sol\":8544:8561  uint256 requestId */\n      0x00\n        /* \"coqtesting.sol\":8651:8662  COORDINATOR */\n      0x09\n      0x00\n      swap1\n      sload\n      swap1\n      0x0100\n      exp\n      swap1\n      div\n      0xffffffffffffffffffffffffffffffffffffffff\n      and\n        /* \"coqtesting.sol\":8651:8681  COORDINATOR.requestRandomWords */\n      0xffffffffffffffffffffffffffffffffffffffff\n      and\n      0x5d3b1d30\n        /* \"coqtesting.sol\":8695:8702  keyHash */\n      sload(0x06)\n        /* \"coqtesting.sol\":8716:8732  s_subscriptionId */\n      0x03\n      0x00\n      swap1\n      sload\n      swap1\n      0x0100\n      exp\n      swap1\n      div\n      0xffffffffffffffff\n      and\n        /* \"coqtesting.sol\":8746:8766  requestConfirmations */\n      0x07\n      0x04\n      swap1\n      sload\n      swap1\n      0x0100\n      exp\n      swap1\n      div\n      0xffff\n      and\n        /* \"coqtesting.sol\":8780:8796  callbackGasLimit */\n      0x07\n      0x00\n      swap1\n      sload\n      swap1\n      0x0100\n      exp\n      swap1\n      div\n      0xffffffff\n      and\n        /* \"coqtesting.sol\":8810:8818  numWords */\n      0x07\n      0x06\n      swap1\n      sload\n      swap1\n      0x0100\n      exp\n      swap1\n      div\n      0xffffffff\n      and\n        /* \"coqtesting.sol\":8651:8828  COORDINATOR.requestRandomWords(... */\n      mload(0x40)\n      dup7\n      0xffffffff\n      and\n      0xe0\n      shl\n      dup2\n      mstore\n      0x04\n      add\n      tag_214\n      swap6\n      swap5\n      swap4\n      swap3\n      swap2\n      swap1\n      tag_215\n      jump\t// in\n    tag_214:\n      0x20\n      mload(0x40)\n      dup1\n      dup4\n      sub\n      dup2\n      0x00\n      dup8\n      gas\n      call\n      iszero\n      dup1\n      iszero\n      tag_217\n      jumpi\n      returndatasize\n      0x00\n      dup1\n      returndatacopy\n      revert(0x00, returndatasize)\n    tag_217:\n      pop\n      pop\n      pop\n      pop\n      mload(0x40)\n      returndatasize\n      not(0x1f)\n      0x1f\n      dup3\n      add\n      and\n      dup3\n      add\n      dup1\n      0x40\n      mstore\n      pop\n      dup2\n      add\n      swap1\n      tag_218\n      swap2\n      swap1\n      tag_219\n      jump\t// in\n    tag_218:\n        /* \"coqtesting.sol\":8639:8828  requestId = COORDINATOR.requestRandomWords(... */\n      swap1\n      pop\n        /* \"coqtesting.sol\":8862:8986  RequestStatus({... */\n      mload(0x40)\n      dup1\n      0x60\n      add\n      0x40\n      mstore\n      dup1\n        /* \"coqtesting.sol\":8970:8975  false */\n      0x00\n        /* \"coqtesting.sol\":8862:8986  RequestStatus({... */\n      iszero\n      iszero\n      dup2\n      mstore\n      0x20\n      add\n        /* \"coqtesting.sol\":8941:8945  true */\n      0x01\n        /* \"coqtesting.sol\":8862:8986  RequestStatus({... */\n      iszero\n      iszero\n      dup2\n      mstore\n      0x20\n      add\n        /* \"coqtesting.sol\":8917:8918  0 */\n      0x00\n        /* \"coqtesting.sol\":8903:8919  new uint256[](0) */\n      0xffffffffffffffff\n      dup2\n      gt\n      iszero\n      tag_220\n      jumpi\n      tag_221\n      tag_222\n      jump\t// in\n    tag_221:\n    tag_220:\n      mload(0x40)\n      swap1\n      dup1\n      dup3\n      mstore\n      dup1\n      0x20\n      mul\n      0x20\n      add\n      dup3\n      add\n      0x40\n      mstore\n      dup1\n      iszero\n      tag_223\n      jumpi\n      dup2\n      0x20\n      add\n      0x20\n      dup3\n      mul\n      dup1\n      calldatasize\n      dup4\n      calldatacopy\n      dup1\n      dup3\n      add\n      swap2\n      pop\n      pop\n      swap1\n      pop\n    tag_223:\n      pop\n        /* \"coqtesting.sol\":8862:8986  RequestStatus({... */\n      dup2\n      mstore\n      pop\n        /* \"coqtesting.sol\":8838:8848  s_requests */\n      0x08\n        /* \"coqtesting.sol\":8838:8859  s_requests[requestId] */\n      0x00\n        /* \"coqtesting.sol\":8849:8858  requestId */\n      dup4\n        /* \"coqtesting.sol\":8838:8859  s_requests[requestId] */\n      dup2\n      mstore\n      0x20\n      add\n      swap1\n      dup2\n      mstore\n      0x20\n      add\n      0x00\n      keccak256\n        /* \"coqtesting.sol\":8838:8986  s_requests[requestId] = RequestStatus({... */\n      0x00\n      dup3\n      add\n      mload\n      dup2\n      0x00\n      add\n      exp(0x0100, 0x00)\n      dup2\n      sload\n      dup2\n      0xff\n      mul\n      not\n      and\n      swap1\n      dup4\n      iszero\n      iszero\n      mul\n      or\n      swap1\n      sstore\n      pop\n      0x20\n      dup3\n      add\n      mload\n      dup2\n      0x00\n      add\n      exp(0x0100, 0x01)\n      dup2\n      sload\n      dup2\n      0xff\n      mul\n      not\n      and\n      swap1\n      dup4\n      iszero\n      iszero\n      mul\n      or\n      swap1\n      sstore\n      pop\n      0x40\n      dup3\n      add\n      mload\n      dup2\n      0x01\n      add\n      swap1\n      dup1\n      mload\n      swap1\n      0x20\n      add\n      swap1\n      tag_224\n      swap3\n      swap2\n      swap1\n      tag_178\n      jump\t// in\n    tag_224:\n      pop\n      swap1\n      pop\n      pop\n        /* \"coqtesting.sol\":8996:9006  requestIds */\n      0x04\n        /* \"coqtesting.sol\":9012:9021  requestId */\n      dup2\n        /* \"coqtesting.sol\":8996:9022  requestIds.push(requestId) */\n      swap1\n      dup1\n      0x01\n      dup2\n      sload\n      add\n      dup1\n      dup3\n      sstore\n      dup1\n      swap2\n      pop\n      pop\n      0x01\n      swap1\n      sub\n      swap1\n      0x00\n      mstore\n      keccak256(0x00, 0x20)\n      add\n      0x00\n      swap1\n      swap2\n      swap1\n      swap2\n      swap1\n      swap2\n      pop\n      sstore\n        /* \"coqtesting.sol\":9048:9057  requestId */\n      dup1\n        /* \"coqtesting.sol\":9032:9045  lastRequestId */\n      0x05\n        /* \"coqtesting.sol\":9032:9057  lastRequestId = requestId */\n      dup2\n      swap1\n      sstore\n      pop\n        /* \"coqtesting.sol\":9072:9104  RequestSent(requestId, numWords) */\n      0xcc58b13ad3eab50626c6a6300b1d139cd6ebb1688a7cced9461c2f7e762665ee\n        /* \"coqtesting.sol\":9084:9093  requestId */\n      dup2\n        /* \"coqtesting.sol\":9095:9103  numWords */\n      0x07\n      0x06\n      swap1\n      sload\n      swap1\n      0x0100\n      exp\n      swap1\n      div\n      0xffffffff\n      and\n        /* \"coqtesting.sol\":9072:9104  RequestSent(requestId, numWords) */\n      mload(0x40)\n      tag_226\n      swap3\n      swap2\n      swap1\n      tag_227\n      jump\t// in\n    tag_226:\n      mload(0x40)\n      dup1\n      swap2\n      sub\n      swap1\n      log1\n        /* \"coqtesting.sol\":8496:9137  function requestRandomWords() internal returns (uint256 requestId)... */\n      swap1\n      jump\t// out\n        /* \"@chainlink/contracts/src/v0.8/shared/access/ConfirmedOwnerWithProposal.sol\":1482:1670  function _transferOwnership(address to) private {... */\n    tag_173:\n        /* \"@chainlink/contracts/src/v0.8/shared/access/ConfirmedOwnerWithProposal.sol\":1550:1560  msg.sender */\n      caller\n        /* \"@chainlink/contracts/src/v0.8/shared/access/ConfirmedOwnerWithProposal.sol\":1544:1560  to != msg.sender */\n      0xffffffffffffffffffffffffffffffffffffffff\n      and\n        /* \"@chainlink/contracts/src/v0.8/shared/access/ConfirmedOwnerWithProposal.sol\":1544:1546  to */\n      dup2\n        /* \"@chainlink/contracts/src/v0.8/shared/access/ConfirmedOwnerWithProposal.sol\":1544:1560  to != msg.sender */\n      0xffffffffffffffffffffffffffffffffffffffff\n      and\n      sub\n        /* \"@chainlink/contracts/src/v0.8/shared/access/ConfirmedOwnerWithProposal.sol\":1536:1588  require(to != msg.sender, \"Cannot transfer to self\") */\n      tag_229\n      jumpi\n      mload(0x40)\n      0x08c379a000000000000000000000000000000000000000000000000000000000\n      dup2\n      mstore\n      0x04\n      add\n      tag_230\n      swap1\n      tag_231\n      jump\t// in\n    tag_230:\n      mload(0x40)\n      dup1\n      swap2\n      sub\n      swap1\n      revert\n    tag_229:\n        /* \"@chainlink/contracts/src/v0.8/shared/access/ConfirmedOwnerWithProposal.sol\":1612:1614  to */\n      dup1\n        /* \"@chainlink/contracts/src/v0.8/shared/access/ConfirmedOwnerWithProposal.sol\":1595:1609  s_pendingOwner */\n      0x01\n      0x00\n        /* \"@chainlink/contracts/src/v0.8/shared/access/ConfirmedOwnerWithProposal.sol\":1595:1614  s_pendingOwner = to */\n      0x0100\n      exp\n      dup2\n      sload\n      dup2\n      0xffffffffffffffffffffffffffffffffffffffff\n      mul\n      not\n      and\n      swap1\n      dup4\n      0xffffffffffffffffffffffffffffffffffffffff\n      and\n      mul\n      or\n      swap1\n      sstore\n      pop\n        /* \"@chainlink/contracts/src/v0.8/shared/access/ConfirmedOwnerWithProposal.sol\":1662:1664  to */\n      dup1\n        /* \"@chainlink/contracts/src/v0.8/shared/access/ConfirmedOwnerWithProposal.sol\":1626:1665  OwnershipTransferRequested(s_owner, to) */\n      0xffffffffffffffffffffffffffffffffffffffff\n      and\n        /* \"@chainlink/contracts/src/v0.8/shared/access/ConfirmedOwnerWithProposal.sol\":1653:1660  s_owner */\n      0x00\n      dup1\n      sload\n      swap1\n      0x0100\n      exp\n      swap1\n      div\n      0xffffffffffffffffffffffffffffffffffffffff\n      and\n        /* \"@chainlink/contracts/src/v0.8/shared/access/ConfirmedOwnerWithProposal.sol\":1626:1665  OwnershipTransferRequested(s_owner, to) */\n      0xffffffffffffffffffffffffffffffffffffffff\n      and\n      0xed8889f560326eb138920d842192f0eb3dd22b4f139c87a2c57538e05bae1278\n      mload(0x40)\n      mload(0x40)\n      dup1\n      swap2\n      sub\n      swap1\n      log3\n        /* \"@chainlink/contracts/src/v0.8/shared/access/ConfirmedOwnerWithProposal.sol\":1482:1670  function _transferOwnership(address to) private {... */\n      pop\n      jump\t// out\n        /* \"coqtesting.sol\":6730:7424  function _completeGame(uint256 _gameId, uint256[] memory _randomWords) internal {... */\n    tag_180:\n        /* \"coqtesting.sol\":6820:6837  Game storage game */\n      0x00\n        /* \"coqtesting.sol\":6840:6845  games */\n      0x0a\n        /* \"coqtesting.sol\":6840:6854  games[_gameId] */\n      0x00\n        /* \"coqtesting.sol\":6846:6853  _gameId */\n      dup5\n        /* \"coqtesting.sol\":6840:6854  games[_gameId] */\n      dup2\n      mstore\n      0x20\n      add\n      swap1\n      dup2\n      mstore\n      0x20\n      add\n      0x00\n      keccak256\n        /* \"coqtesting.sol\":6820:6854  Game storage game = games[_gameId] */\n      swap1\n      pop\n        /* \"coqtesting.sol\":6873:6877  game */\n      dup1\n        /* \"coqtesting.sol\":6873:6887  game.completed */\n      0x03\n      add\n      0x00\n      swap1\n      sload\n      swap1\n      0x0100\n      exp\n      swap1\n      div\n      0xff\n      and\n        /* \"coqtesting.sol\":6872:6887  !game.completed */\n      iszero\n        /* \"coqtesting.sol\":6864:6917  require(!game.completed, \"Game is already completed\") */\n      tag_233\n      jumpi\n      mload(0x40)\n      0x08c379a000000000000000000000000000000000000000000000000000000000\n      dup2\n      mstore\n      0x04\n      add\n      tag_234\n      swap1\n      tag_235\n      jump\t// in\n    tag_234:\n      mload(0x40)\n      dup1\n      swap2\n      sub\n      swap1\n      revert\n    tag_233:\n        /* \"coqtesting.sol\":6984:7003  uint256 randomValue */\n      0x00\n        /* \"coqtesting.sol\":7041:7053  _randomWords */\n      dup3\n        /* \"coqtesting.sol\":7024:7054  abi.encodePacked(_randomWords) */\n      add(0x20, mload(0x40))\n      tag_236\n      swap2\n      swap1\n      tag_237\n      jump\t// in\n    tag_236:\n      mload(0x40)\n      0x20\n      dup2\n      dup4\n      sub\n      sub\n      dup2\n      mstore\n      swap1\n      0x40\n      mstore\n        /* \"coqtesting.sol\":7014:7055  keccak256(abi.encodePacked(_randomWords)) */\n      dup1\n      mload\n      swap1\n      0x20\n      add\n      keccak256\n        /* \"coqtesting.sol\":7006:7056  uint256(keccak256(abi.encodePacked(_randomWords))) */\n      0x00\n      shr\n        /* \"coqtesting.sol\":6984:7056  uint256 randomValue = uint256(keccak256(abi.encodePacked(_randomWords))) */\n      swap1\n      pop\n        /* \"coqtesting.sol\":7100:7101  0 */\n      0x00\n        /* \"coqtesting.sol\":7095:7096  2 */\n      0x02\n        /* \"coqtesting.sol\":7081:7092  randomValue */\n      dup3\n        /* \"coqtesting.sol\":7081:7096  randomValue % 2 */\n      tag_238\n      swap2\n      swap1\n      tag_239\n      jump\t// in\n    tag_238:\n        /* \"coqtesting.sol\":7081:7101  randomValue % 2 == 0 */\n      eq\n        /* \"coqtesting.sol\":7080:7132  (randomValue % 2 == 0) ? game.player1 : game.player2 */\n      tag_240\n      jumpi\n        /* \"coqtesting.sol\":7120:7124  game */\n      dup2\n        /* \"coqtesting.sol\":7120:7132  game.player2 */\n      0x01\n      add\n      0x00\n      swap1\n      sload\n      swap1\n      0x0100\n      exp\n      swap1\n      div\n      0xffffffffffffffffffffffffffffffffffffffff\n      and\n        /* \"coqtesting.sol\":7080:7132  (randomValue % 2 == 0) ? game.player1 : game.player2 */\n      jump(tag_241)\n    tag_240:\n        /* \"coqtesting.sol\":7105:7109  game */\n      dup2\n        /* \"coqtesting.sol\":7105:7117  game.player1 */\n      0x00\n      add\n      0x00\n      swap1\n      sload\n      swap1\n      0x0100\n      exp\n      swap1\n      div\n      0xffffffffffffffffffffffffffffffffffffffff\n      and\n        /* \"coqtesting.sol\":7080:7132  (randomValue % 2 == 0) ? game.player1 : game.player2 */\n    tag_241:\n        /* \"coqtesting.sol\":7066:7070  game */\n      dup3\n        /* \"coqtesting.sol\":7066:7077  game.winner */\n      0x03\n      add\n      0x01\n        /* \"coqtesting.sol\":7066:7132  game.winner = (randomValue % 2 == 0) ? game.player1 : game.player2 */\n      0x0100\n      exp\n      dup2\n      sload\n      dup2\n      0xffffffffffffffffffffffffffffffffffffffff\n      mul\n      not\n      and\n      swap1\n      dup4\n      0xffffffffffffffffffffffffffffffffffffffff\n      and\n      mul\n      or\n      swap1\n      sstore\n      pop\n        /* \"coqtesting.sol\":7159:7163  true */\n      0x01\n        /* \"coqtesting.sol\":7142:7146  game */\n      dup3\n        /* \"coqtesting.sol\":7142:7156  game.completed */\n      0x03\n      add\n      0x00\n        /* \"coqtesting.sol\":7142:7163  game.completed = true */\n      0x0100\n      exp\n      dup2\n      sload\n      dup2\n      0xff\n      mul\n      not\n      and\n      swap1\n      dup4\n      iszero\n      iszero\n      mul\n      or\n      swap1\n      sstore\n      pop\n        /* \"coqtesting.sol\":7225:7229  game */\n      dup2\n        /* \"coqtesting.sol\":7225:7236  game.winner */\n      0x03\n      add\n      0x01\n      swap1\n      sload\n      swap1\n      0x0100\n      exp\n      swap1\n      div\n      0xffffffffffffffffffffffffffffffffffffffff\n      and\n        /* \"coqtesting.sol\":7217:7246  payable(game.winner).transfer */\n      0xffffffffffffffffffffffffffffffffffffffff\n      and\n        /* \"coqtesting.sol\":7217:7265  payable(game.winner).transfer(game.wager.mul(2)) */\n      0x08fc\n        /* \"coqtesting.sol\":7247:7264  game.wager.mul(2) */\n      tag_242\n        /* \"coqtesting.sol\":7262:7263  2 */\n      0x02\n        /* \"coqtesting.sol\":7247:7251  game */\n      dup6\n        /* \"coqtesting.sol\":7247:7257  game.wager */\n      0x02\n      add\n      sload\n        /* \"coqtesting.sol\":7247:7261  game.wager.mul */\n      tag_243\n      swap1\n        /* \"coqtesting.sol\":7247:7264  game.wager.mul(2) */\n      swap2\n      swap1\n      0xffffffff\n      and\n      jump\t// in\n    tag_242:\n        /* \"coqtesting.sol\":7217:7265  payable(game.winner).transfer(game.wager.mul(2)) */\n      swap1\n      dup2\n      iszero\n      mul\n      swap1\n      mload(0x40)\n      0x00\n      mload(0x40)\n      dup1\n      dup4\n      sub\n      dup2\n      dup6\n      dup9\n      dup9\n      call\n      swap4\n      pop\n      pop\n      pop\n      pop\n      iszero\n      dup1\n      iszero\n      tag_245\n      jumpi\n      returndatasize\n      0x00\n      dup1\n      returndatacopy\n      revert(0x00, returndatasize)\n    tag_245:\n      pop\n        /* \"coqtesting.sol\":7332:7366  _removeGameFromActiveList(_gameId) */\n      tag_246\n        /* \"coqtesting.sol\":7358:7365  _gameId */\n      dup5\n        /* \"coqtesting.sol\":7332:7357  _removeGameFromActiveList */\n      tag_127\n        /* \"coqtesting.sol\":7332:7366  _removeGameFromActiveList(_gameId) */\n      jump\t// in\n    tag_246:\n        /* \"coqtesting.sol\":7405:7409  game */\n      dup2\n        /* \"coqtesting.sol\":7405:7416  game.winner */\n      0x03\n      add\n      0x01\n      swap1\n      sload\n      swap1\n      0x0100\n      exp\n      swap1\n      div\n      0xffffffffffffffffffffffffffffffffffffffff\n      and\n        /* \"coqtesting.sol\":7382:7417  GameCompleted(_gameId, game.winner) */\n      0xffffffffffffffffffffffffffffffffffffffff\n      and\n        /* \"coqtesting.sol\":7396:7403  _gameId */\n      dup5\n        /* \"coqtesting.sol\":7382:7417  GameCompleted(_gameId, game.winner) */\n      0x7f40df5127524300187445e867486da572aab86769c0212e0b392bd87c4ca97f\n      mload(0x40)\n      mload(0x40)\n      dup1\n      swap2\n      sub\n      swap1\n      log3\n        /* \"coqtesting.sol\":6810:7424  {... */\n      pop\n      pop\n        /* \"coqtesting.sol\":6730:7424  function _completeGame(uint256 _gameId, uint256[] memory _randomWords) internal {... */\n      pop\n      pop\n      jump\t// out\n        /* \"@openzeppelin/contracts/utils/math/SafeMath.sol\":3465:3561  function mul(uint256 a, uint256 b) internal pure returns (uint256) {... */\n    tag_243:\n        /* \"@openzeppelin/contracts/utils/math/SafeMath.sol\":3523:3530  uint256 */\n      0x00\n        /* \"@openzeppelin/contracts/utils/math/SafeMath.sol\":3553:3554  b */\n      dup2\n        /* \"@openzeppelin/contracts/utils/math/SafeMath.sol\":3549:3550  a */\n      dup4\n        /* \"@openzeppelin/contracts/utils/math/SafeMath.sol\":3549:3554  a * b */\n      tag_248\n      swap2\n      swap1\n      tag_249\n      jump\t// in\n    tag_248:\n        /* \"@openzeppelin/contracts/utils/math/SafeMath.sol\":3542:3554  return a * b */\n      swap1\n      pop\n        /* \"@openzeppelin/contracts/utils/math/SafeMath.sol\":3465:3561  function mul(uint256 a, uint256 b) internal pure returns (uint256) {... */\n      swap3\n      swap2\n      pop\n      pop\n      jump\t// out\n    tag_178:\n      dup3\n      dup1\n      sload\n      dup3\n      dup3\n      sstore\n      swap1\n      0x00\n      mstore\n      keccak256(0x00, 0x20)\n      swap1\n      dup2\n      add\n      swap3\n      dup3\n      iszero\n      tag_250\n      jumpi\n      swap2\n      0x20\n      mul\n      dup3\n      add\n    tag_251:\n      dup3\n      dup2\n      gt\n      iszero\n      tag_252\n      jumpi\n      dup3\n      mload\n      dup3\n      sstore\n      swap2\n      0x20\n      add\n      swap2\n      swap1\n      0x01\n      add\n      swap1\n      jump(tag_251)\n    tag_252:\n    tag_250:\n      pop\n      swap1\n      pop\n      tag_253\n      swap2\n      swap1\n      tag_254\n      jump\t// in\n    tag_253:\n      pop\n      swap1\n      jump\t// out\n    tag_254:\n    tag_255:\n      dup1\n      dup3\n      gt\n      iszero\n      tag_256\n      jumpi\n      0x00\n      dup2\n      0x00\n      swap1\n      sstore\n      pop\n      0x01\n      add\n      jump(tag_255)\n    tag_256:\n      pop\n      swap1\n      jump\t// out\n        /* \"#utility.yul\":7:82   */\n    tag_257:\n        /* \"#utility.yul\":40:46   */\n      0x00\n        /* \"#utility.yul\":73:75   */\n      0x40\n        /* \"#utility.yul\":67:76   */\n      mload\n        /* \"#utility.yul\":57:76   */\n      swap1\n      pop\n        /* \"#utility.yul\":7:82   */\n      swap1\n      jump\t// out\n        /* \"#utility.yul\":88:205   */\n    tag_258:\n        /* \"#utility.yul\":197:198   */\n      0x00\n        /* \"#utility.yul\":194:195   */\n      dup1\n        /* \"#utility.yul\":187:199   */\n      revert\n        /* \"#utility.yul\":211:328   */\n    tag_259:\n        /* \"#utility.yul\":320:321   */\n      0x00\n        /* \"#utility.yul\":317:318   */\n      dup1\n        /* \"#utility.yul\":310:322   */\n      revert\n        /* \"#utility.yul\":334:411   */\n    tag_260:\n        /* \"#utility.yul\":371:378   */\n      0x00\n        /* \"#utility.yul\":400:405   */\n      dup2\n        /* \"#utility.yul\":389:405   */\n      swap1\n      pop\n        /* \"#utility.yul\":334:411   */\n      swap2\n      swap1\n      pop\n      jump\t// out\n        /* \"#utility.yul\":417:539   */\n    tag_261:\n        /* \"#utility.yul\":490:514   */\n      tag_336\n        /* \"#utility.yul\":508:513   */\n      dup2\n        /* \"#utility.yul\":490:514   */\n      tag_260\n      jump\t// in\n    tag_336:\n        /* \"#utility.yul\":483:488   */\n      dup2\n        /* \"#utility.yul\":480:515   */\n      eq\n        /* \"#utility.yul\":470:533   */\n      tag_337\n      jumpi\n        /* \"#utility.yul\":529:530   */\n      0x00\n        /* \"#utility.yul\":526:527   */\n      dup1\n        /* \"#utility.yul\":519:531   */\n      revert\n        /* \"#utility.yul\":470:533   */\n    tag_337:\n        /* \"#utility.yul\":417:539   */\n      pop\n      jump\t// out\n        /* \"#utility.yul\":545:684   */\n    tag_262:\n        /* \"#utility.yul\":591:596   */\n      0x00\n        /* \"#utility.yul\":629:635   */\n      dup2\n        /* \"#utility.yul\":616:636   */\n      calldataload\n        /* \"#utility.yul\":607:636   */\n      swap1\n      pop\n        /* \"#utility.yul\":645:678   */\n      tag_339\n        /* \"#utility.yul\":672:677   */\n      dup2\n        /* \"#utility.yul\":645:678   */\n      tag_261\n      jump\t// in\n    tag_339:\n        /* \"#utility.yul\":545:684   */\n      swap3\n      swap2\n      pop\n      pop\n      jump\t// out\n        /* \"#utility.yul\":690:1019   */\n    tag_25:\n        /* \"#utility.yul\":749:755   */\n      0x00\n        /* \"#utility.yul\":798:800   */\n      0x20\n        /* \"#utility.yul\":786:795   */\n      dup3\n        /* \"#utility.yul\":777:784   */\n      dup5\n        /* \"#utility.yul\":773:796   */\n      sub\n        /* \"#utility.yul\":769:801   */\n      slt\n        /* \"#utility.yul\":766:885   */\n      iszero\n      tag_341\n      jumpi\n        /* \"#utility.yul\":804:883   */\n      tag_342\n      tag_258\n      jump\t// in\n    tag_342:\n        /* \"#utility.yul\":766:885   */\n    tag_341:\n        /* \"#utility.yul\":924:925   */\n      0x00\n        /* \"#utility.yul\":949:1002   */\n      tag_343\n        /* \"#utility.yul\":994:1001   */\n      dup5\n        /* \"#utility.yul\":985:991   */\n      dup3\n        /* \"#utility.yul\":974:983   */\n      dup6\n        /* \"#utility.yul\":970:992   */\n      add\n        /* \"#utility.yul\":949:1002   */\n      tag_262\n      jump\t// in\n    tag_343:\n        /* \"#utility.yul\":939:1002   */\n      swap2\n      pop\n        /* \"#utility.yul\":895:1012   */\n      pop\n        /* \"#utility.yul\":690:1019   */\n      swap3\n      swap2\n      pop\n      pop\n      jump\t// out\n        /* \"#utility.yul\":1025:1151   */\n    tag_263:\n        /* \"#utility.yul\":1062:1069   */\n      0x00\n        /* \"#utility.yul\":1102:1144   */\n      0xffffffffffffffffffffffffffffffffffffffff\n        /* \"#utility.yul\":1095:1100   */\n      dup3\n        /* \"#utility.yul\":1091:1145   */\n      and\n        /* \"#utility.yul\":1080:1145   */\n      swap1\n      pop\n        /* \"#utility.yul\":1025:1151   */\n      swap2\n      swap1\n      pop\n      jump\t// out\n        /* \"#utility.yul\":1157:1253   */\n    tag_264:\n        /* \"#utility.yul\":1194:1201   */\n      0x00\n        /* \"#utility.yul\":1223:1247   */\n      tag_346\n        /* \"#utility.yul\":1241:1246   */\n      dup3\n        /* \"#utility.yul\":1223:1247   */\n      tag_263\n      jump\t// in\n    tag_346:\n        /* \"#utility.yul\":1212:1247   */\n      swap1\n      pop\n        /* \"#utility.yul\":1157:1253   */\n      swap2\n      swap1\n      pop\n      jump\t// out\n        /* \"#utility.yul\":1259:1377   */\n    tag_265:\n        /* \"#utility.yul\":1346:1370   */\n      tag_348\n        /* \"#utility.yul\":1364:1369   */\n      dup2\n        /* \"#utility.yul\":1346:1370   */\n      tag_264\n      jump\t// in\n    tag_348:\n        /* \"#utility.yul\":1341:1344   */\n      dup3\n        /* \"#utility.yul\":1334:1371   */\n      mstore\n        /* \"#utility.yul\":1259:1377   */\n      pop\n      pop\n      jump\t// out\n        /* \"#utility.yul\":1383:1501   */\n    tag_266:\n        /* \"#utility.yul\":1470:1494   */\n      tag_350\n        /* \"#utility.yul\":1488:1493   */\n      dup2\n        /* \"#utility.yul\":1470:1494   */\n      tag_260\n      jump\t// in\n    tag_350:\n        /* \"#utility.yul\":1465:1468   */\n      dup3\n        /* \"#utility.yul\":1458:1495   */\n      mstore\n        /* \"#utility.yul\":1383:1501   */\n      pop\n      pop\n      jump\t// out\n        /* \"#utility.yul\":1507:1597   */\n    tag_267:\n        /* \"#utility.yul\":1541:1548   */\n      0x00\n        /* \"#utility.yul\":1584:1589   */\n      dup2\n        /* \"#utility.yul\":1577:1590   */\n      iszero\n        /* \"#utility.yul\":1570:1591   */\n      iszero\n        /* \"#utility.yul\":1559:1591   */\n      swap1\n      pop\n        /* \"#utility.yul\":1507:1597   */\n      swap2\n      swap1\n      pop\n      jump\t// out\n        /* \"#utility.yul\":1603:1712   */\n    tag_268:\n        /* \"#utility.yul\":1684:1705   */\n      tag_353\n        /* \"#utility.yul\":1699:1704   */\n      dup2\n        /* \"#utility.yul\":1684:1705   */\n      tag_267\n      jump\t// in\n    tag_353:\n        /* \"#utility.yul\":1679:1682   */\n      dup3\n        /* \"#utility.yul\":1672:1706   */\n      mstore\n        /* \"#utility.yul\":1603:1712   */\n      pop\n      pop\n      jump\t// out\n        /* \"#utility.yul\":1718:2370   */\n    tag_28:\n        /* \"#utility.yul\":1917:1921   */\n      0x00\n        /* \"#utility.yul\":1955:1958   */\n      0xa0\n        /* \"#utility.yul\":1944:1953   */\n      dup3\n        /* \"#utility.yul\":1940:1959   */\n      add\n        /* \"#utility.yul\":1932:1959   */\n      swap1\n      pop\n        /* \"#utility.yul\":1969:2040   */\n      tag_355\n        /* \"#utility.yul\":2037:2038   */\n      0x00\n        /* \"#utility.yul\":2026:2035   */\n      dup4\n        /* \"#utility.yul\":2022:2039   */\n      add\n        /* \"#utility.yul\":2013:2019   */\n      dup9\n        /* \"#utility.yul\":1969:2040   */\n      tag_265\n      jump\t// in\n    tag_355:\n        /* \"#utility.yul\":2050:2122   */\n      tag_356\n        /* \"#utility.yul\":2118:2120   */\n      0x20\n        /* \"#utility.yul\":2107:2116   */\n      dup4\n        /* \"#utility.yul\":2103:2121   */\n      add\n        /* \"#utility.yul\":2094:2100   */\n      dup8\n        /* \"#utility.yul\":2050:2122   */\n      tag_265\n      jump\t// in\n    tag_356:\n        /* \"#utility.yul\":2132:2204   */\n      tag_357\n        /* \"#utility.yul\":2200:2202   */\n      0x40\n        /* \"#utility.yul\":2189:2198   */\n      dup4\n        /* \"#utility.yul\":2185:2203   */\n      add\n        /* \"#utility.yul\":2176:2182   */\n      dup7\n        /* \"#utility.yul\":2132:2204   */\n      tag_266\n      jump\t// in\n    tag_357:\n        /* \"#utility.yul\":2214:2280   */\n      tag_358\n        /* \"#utility.yul\":2276:2278   */\n      0x60\n        /* \"#utility.yul\":2265:2274   */\n      dup4\n        /* \"#utility.yul\":2261:2279   */\n      add\n        /* \"#utility.yul\":2252:2258   */\n      dup6\n        /* \"#utility.yul\":2214:2280   */\n      tag_268\n      jump\t// in\n    tag_358:\n        /* \"#utility.yul\":2290:2363   */\n      tag_359\n        /* \"#utility.yul\":2358:2361   */\n      0x80\n        /* \"#utility.yul\":2347:2356   */\n      dup4\n        /* \"#utility.yul\":2343:2362   */\n      add\n        /* \"#utility.yul\":2334:2340   */\n      dup5\n        /* \"#utility.yul\":2290:2363   */\n      tag_265\n      jump\t// in\n    tag_359:\n        /* \"#utility.yul\":1718:2370   */\n      swap7\n      swap6\n      pop\n      pop\n      pop\n      pop\n      pop\n      pop\n      jump\t// out\n        /* \"#utility.yul\":2376:2493   */\n    tag_269:\n        /* \"#utility.yul\":2485:2486   */\n      0x00\n        /* \"#utility.yul\":2482:2483   */\n      dup1\n        /* \"#utility.yul\":2475:2487   */\n      revert\n        /* \"#utility.yul\":2499:2601   */\n    tag_270:\n        /* \"#utility.yul\":2540:2546   */\n      0x00\n        /* \"#utility.yul\":2591:2593   */\n      0x1f\n        /* \"#utility.yul\":2587:2594   */\n      not\n        /* \"#utility.yul\":2582:2584   */\n      0x1f\n        /* \"#utility.yul\":2575:2580   */\n      dup4\n        /* \"#utility.yul\":2571:2585   */\n      add\n        /* \"#utility.yul\":2567:2595   */\n      and\n        /* \"#utility.yul\":2557:2595   */\n      swap1\n      pop\n        /* \"#utility.yul\":2499:2601   */\n      swap2\n      swap1\n      pop\n      jump\t// out\n        /* \"#utility.yul\":2607:2787   */\n    tag_222:\n        /* \"#utility.yul\":2655:2732   */\n      0x4e487b7100000000000000000000000000000000000000000000000000000000\n        /* \"#utility.yul\":2652:2653   */\n      0x00\n        /* \"#utility.yul\":2645:2733   */\n      mstore\n        /* \"#utility.yul\":2752:2756   */\n      0x41\n        /* \"#utility.yul\":2749:2750   */\n      0x04\n        /* \"#utility.yul\":2742:2757   */\n      mstore\n        /* \"#utility.yul\":2776:2780   */\n      0x24\n        /* \"#utility.yul\":2773:2774   */\n      0x00\n        /* \"#utility.yul\":2766:2781   */\n      revert\n        /* \"#utility.yul\":2793:3074   */\n    tag_271:\n        /* \"#utility.yul\":2876:2903   */\n      tag_364\n        /* \"#utility.yul\":2898:2902   */\n      dup3\n        /* \"#utility.yul\":2876:2903   */\n      tag_270\n      jump\t// in\n    tag_364:\n        /* \"#utility.yul\":2868:2874   */\n      dup2\n        /* \"#utility.yul\":2864:2904   */\n      add\n        /* \"#utility.yul\":3006:3012   */\n      dup2\n        /* \"#utility.yul\":2994:3004   */\n      dup2\n        /* \"#utility.yul\":2991:3013   */\n      lt\n        /* \"#utility.yul\":2970:2988   */\n      0xffffffffffffffff\n        /* \"#utility.yul\":2958:2968   */\n      dup3\n        /* \"#utility.yul\":2955:2989   */\n      gt\n        /* \"#utility.yul\":2952:3014   */\n      or\n        /* \"#utility.yul\":2949:3037   */\n      iszero\n      tag_365\n      jumpi\n        /* \"#utility.yul\":3017:3035   */\n      tag_366\n      tag_222\n      jump\t// in\n    tag_366:\n        /* \"#utility.yul\":2949:3037   */\n    tag_365:\n        /* \"#utility.yul\":3057:3067   */\n      dup1\n        /* \"#utility.yul\":3053:3055   */\n      0x40\n        /* \"#utility.yul\":3046:3068   */\n      mstore\n        /* \"#utility.yul\":2836:3074   */\n      pop\n        /* \"#utility.yul\":2793:3074   */\n      pop\n      pop\n      jump\t// out\n        /* \"#utility.yul\":3080:3209   */\n    tag_272:\n        /* \"#utility.yul\":3114:3120   */\n      0x00\n        /* \"#utility.yul\":3141:3161   */\n      tag_368\n      tag_257\n      jump\t// in\n    tag_368:\n        /* \"#utility.yul\":3131:3161   */\n      swap1\n      pop\n        /* \"#utility.yul\":3170:3203   */\n      tag_369\n        /* \"#utility.yul\":3198:3202   */\n      dup3\n        /* \"#utility.yul\":3190:3196   */\n      dup3\n        /* \"#utility.yul\":3170:3203   */\n      tag_271\n      jump\t// in\n    tag_369:\n        /* \"#utility.yul\":3080:3209   */\n      swap2\n      swap1\n      pop\n      jump\t// out\n        /* \"#utility.yul\":3215:3526   */\n    tag_273:\n        /* \"#utility.yul\":3292:3296   */\n      0x00\n        /* \"#utility.yul\":3382:3400   */\n      0xffffffffffffffff\n        /* \"#utility.yul\":3374:3380   */\n      dup3\n        /* \"#utility.yul\":3371:3401   */\n      gt\n        /* \"#utility.yul\":3368:3424   */\n      iszero\n      tag_371\n      jumpi\n        /* \"#utility.yul\":3404:3422   */\n      tag_372\n      tag_222\n      jump\t// in\n    tag_372:\n        /* \"#utility.yul\":3368:3424   */\n    tag_371:\n        /* \"#utility.yul\":3454:3458   */\n      0x20\n        /* \"#utility.yul\":3446:3452   */\n      dup3\n        /* \"#utility.yul\":3442:3459   */\n      mul\n        /* \"#utility.yul\":3434:3459   */\n      swap1\n      pop\n        /* \"#utility.yul\":3514:3518   */\n      0x20\n        /* \"#utility.yul\":3508:3512   */\n      dup2\n        /* \"#utility.yul\":3504:3519   */\n      add\n        /* \"#utility.yul\":3496:3519   */\n      swap1\n      pop\n        /* \"#utility.yul\":3215:3526   */\n      swap2\n      swap1\n      pop\n      jump\t// out\n        /* \"#utility.yul\":3532:3649   */\n    tag_274:\n        /* \"#utility.yul\":3641:3642   */\n      0x00\n        /* \"#utility.yul\":3638:3639   */\n      dup1\n        /* \"#utility.yul\":3631:3643   */\n      revert\n        /* \"#utility.yul\":3672:4382   */\n    tag_275:\n        /* \"#utility.yul\":3768:3773   */\n      0x00\n        /* \"#utility.yul\":3793:3874   */\n      tag_375\n        /* \"#utility.yul\":3809:3873   */\n      tag_376\n        /* \"#utility.yul\":3866:3872   */\n      dup5\n        /* \"#utility.yul\":3809:3873   */\n      tag_273\n      jump\t// in\n    tag_376:\n        /* \"#utility.yul\":3793:3874   */\n      tag_272\n      jump\t// in\n    tag_375:\n        /* \"#utility.yul\":3784:3874   */\n      swap1\n      pop\n        /* \"#utility.yul\":3894:3899   */\n      dup1\n        /* \"#utility.yul\":3923:3929   */\n      dup4\n        /* \"#utility.yul\":3916:3921   */\n      dup3\n        /* \"#utility.yul\":3909:3930   */\n      mstore\n        /* \"#utility.yul\":3957:3961   */\n      0x20\n        /* \"#utility.yul\":3950:3955   */\n      dup3\n        /* \"#utility.yul\":3946:3962   */\n      add\n        /* \"#utility.yul\":3939:3962   */\n      swap1\n      pop\n        /* \"#utility.yul\":4010:4014   */\n      0x20\n        /* \"#utility.yul\":4002:4008   */\n      dup5\n        /* \"#utility.yul\":3998:4015   */\n      mul\n        /* \"#utility.yul\":3990:3996   */\n      dup4\n        /* \"#utility.yul\":3986:4016   */\n      add\n        /* \"#utility.yul\":4039:4042   */\n      dup6\n        /* \"#utility.yul\":4031:4037   */\n      dup2\n        /* \"#utility.yul\":4028:4043   */\n      gt\n        /* \"#utility.yul\":4025:4147   */\n      iszero\n      tag_377\n      jumpi\n        /* \"#utility.yul\":4058:4137   */\n      tag_378\n      tag_274\n      jump\t// in\n    tag_378:\n        /* \"#utility.yul\":4025:4147   */\n    tag_377:\n        /* \"#utility.yul\":4173:4179   */\n      dup4\n        /* \"#utility.yul\":4156:4376   */\n    tag_379:\n        /* \"#utility.yul\":4190:4196   */\n      dup2\n        /* \"#utility.yul\":4185:4188   */\n      dup2\n        /* \"#utility.yul\":4182:4197   */\n      lt\n        /* \"#utility.yul\":4156:4376   */\n      iszero\n      tag_381\n      jumpi\n        /* \"#utility.yul\":4265:4268   */\n      dup1\n        /* \"#utility.yul\":4294:4331   */\n      tag_382\n        /* \"#utility.yul\":4327:4330   */\n      dup9\n        /* \"#utility.yul\":4315:4325   */\n      dup3\n        /* \"#utility.yul\":4294:4331   */\n      tag_262\n      jump\t// in\n    tag_382:\n        /* \"#utility.yul\":4289:4292   */\n      dup5\n        /* \"#utility.yul\":4282:4332   */\n      mstore\n        /* \"#utility.yul\":4361:4365   */\n      0x20\n        /* \"#utility.yul\":4356:4359   */\n      dup5\n        /* \"#utility.yul\":4352:4366   */\n      add\n        /* \"#utility.yul\":4345:4366   */\n      swap4\n      pop\n        /* \"#utility.yul\":4232:4376   */\n      pop\n        /* \"#utility.yul\":4216:4220   */\n      0x20\n        /* \"#utility.yul\":4211:4214   */\n      dup2\n        /* \"#utility.yul\":4207:4221   */\n      add\n        /* \"#utility.yul\":4200:4221   */\n      swap1\n      pop\n        /* \"#utility.yul\":4156:4376   */\n      jump(tag_379)\n    tag_381:\n        /* \"#utility.yul\":4160:4181   */\n      pop\n        /* \"#utility.yul\":3774:4382   */\n      pop\n      pop\n        /* \"#utility.yul\":3672:4382   */\n      swap4\n      swap3\n      pop\n      pop\n      pop\n      jump\t// out\n        /* \"#utility.yul\":4405:4775   */\n    tag_276:\n        /* \"#utility.yul\":4476:4481   */\n      0x00\n        /* \"#utility.yul\":4525:4528   */\n      dup3\n        /* \"#utility.yul\":4518:4522   */\n      0x1f\n        /* \"#utility.yul\":4510:4516   */\n      dup4\n        /* \"#utility.yul\":4506:4523   */\n      add\n        /* \"#utility.yul\":4502:4529   */\n      slt\n        /* \"#utility.yul\":4492:4614   */\n      tag_384\n      jumpi\n        /* \"#utility.yul\":4533:4612   */\n      tag_385\n      tag_269\n      jump\t// in\n    tag_385:\n        /* \"#utility.yul\":4492:4614   */\n    tag_384:\n        /* \"#utility.yul\":4650:4656   */\n      dup2\n        /* \"#utility.yul\":4637:4657   */\n      calldataload\n        /* \"#utility.yul\":4675:4769   */\n      tag_386\n        /* \"#utility.yul\":4765:4768   */\n      dup5\n        /* \"#utility.yul\":4757:4763   */\n      dup3\n        /* \"#utility.yul\":4750:4754   */\n      0x20\n        /* \"#utility.yul\":4742:4748   */\n      dup7\n        /* \"#utility.yul\":4738:4755   */\n      add\n        /* \"#utility.yul\":4675:4769   */\n      tag_275\n      jump\t// in\n    tag_386:\n        /* \"#utility.yul\":4666:4769   */\n      swap2\n      pop\n        /* \"#utility.yul\":4482:4775   */\n      pop\n        /* \"#utility.yul\":4405:4775   */\n      swap3\n      swap2\n      pop\n      pop\n      jump\t// out\n        /* \"#utility.yul\":4781:5465   */\n    tag_32:\n        /* \"#utility.yul\":4874:4880   */\n      0x00\n        /* \"#utility.yul\":4882:4888   */\n      dup1\n        /* \"#utility.yul\":4931:4933   */\n      0x40\n        /* \"#utility.yul\":4919:4928   */\n      dup4\n        /* \"#utility.yul\":4910:4917   */\n      dup6\n        /* \"#utility.yul\":4906:4929   */\n      sub\n        /* \"#utility.yul\":4902:4934   */\n      slt\n        /* \"#utility.yul\":4899:5018   */\n      iszero\n      tag_388\n      jumpi\n        /* \"#utility.yul\":4937:5016   */\n      tag_389\n      tag_258\n      jump\t// in\n    tag_389:\n        /* \"#utility.yul\":4899:5018   */\n    tag_388:\n        /* \"#utility.yul\":5057:5058   */\n      0x00\n        /* \"#utility.yul\":5082:5135   */\n      tag_390\n        /* \"#utility.yul\":5127:5134   */\n      dup6\n        /* \"#utility.yul\":5118:5124   */\n      dup3\n        /* \"#utility.yul\":5107:5116   */\n      dup7\n        /* \"#utility.yul\":5103:5125   */\n      add\n        /* \"#utility.yul\":5082:5135   */\n      tag_262\n      jump\t// in\n    tag_390:\n        /* \"#utility.yul\":5072:5135   */\n      swap3\n      pop\n        /* \"#utility.yul\":5028:5145   */\n      pop\n        /* \"#utility.yul\":5212:5214   */\n      0x20\n        /* \"#utility.yul\":5201:5210   */\n      dup4\n        /* \"#utility.yul\":5197:5215   */\n      add\n        /* \"#utility.yul\":5184:5216   */\n      calldataload\n        /* \"#utility.yul\":5243:5261   */\n      0xffffffffffffffff\n        /* \"#utility.yul\":5235:5241   */\n      dup2\n        /* \"#utility.yul\":5232:5262   */\n      gt\n        /* \"#utility.yul\":5229:5346   */\n      iszero\n      tag_391\n      jumpi\n        /* \"#utility.yul\":5265:5344   */\n      tag_392\n      tag_259\n      jump\t// in\n    tag_392:\n        /* \"#utility.yul\":5229:5346   */\n    tag_391:\n        /* \"#utility.yul\":5370:5448   */\n      tag_393\n        /* \"#utility.yul\":5440:5447   */\n      dup6\n        /* \"#utility.yul\":5431:5437   */\n      dup3\n        /* \"#utility.yul\":5420:5429   */\n      dup7\n        /* \"#utility.yul\":5416:5438   */\n      add\n        /* \"#utility.yul\":5370:5448   */\n      tag_276\n      jump\t// in\n    tag_393:\n        /* \"#utility.yul\":5360:5448   */\n      swap2\n      pop\n        /* \"#utility.yul\":5155:5458   */\n      pop\n        /* \"#utility.yul\":4781:5465   */\n      swap3\n      pop\n      swap3\n      swap1\n      pop\n      jump\t// out\n        /* \"#utility.yul\":5471:5585   */\n    tag_277:\n        /* \"#utility.yul\":5538:5544   */\n      0x00\n        /* \"#utility.yul\":5572:5577   */\n      dup2\n        /* \"#utility.yul\":5566:5578   */\n      mload\n        /* \"#utility.yul\":5556:5578   */\n      swap1\n      pop\n        /* \"#utility.yul\":5471:5585   */\n      swap2\n      swap1\n      pop\n      jump\t// out\n        /* \"#utility.yul\":5591:5775   */\n    tag_278:\n        /* \"#utility.yul\":5690:5701   */\n      0x00\n        /* \"#utility.yul\":5724:5730   */\n      dup3\n        /* \"#utility.yul\":5719:5722   */\n      dup3\n        /* \"#utility.yul\":5712:5731   */\n      mstore\n        /* \"#utility.yul\":5764:5768   */\n      0x20\n        /* \"#utility.yul\":5759:5762   */\n      dup3\n        /* \"#utility.yul\":5755:5769   */\n      add\n        /* \"#utility.yul\":5740:5769   */\n      swap1\n      pop\n        /* \"#utility.yul\":5591:5775   */\n      swap3\n      swap2\n      pop\n      pop\n      jump\t// out\n        /* \"#utility.yul\":5781:5913   */\n    tag_279:\n        /* \"#utility.yul\":5848:5852   */\n      0x00\n        /* \"#utility.yul\":5871:5874   */\n      dup2\n        /* \"#utility.yul\":5863:5874   */\n      swap1\n      pop\n        /* \"#utility.yul\":5901:5905   */\n      0x20\n        /* \"#utility.yul\":5896:5899   */\n      dup3\n        /* \"#utility.yul\":5892:5906   */\n      add\n        /* \"#utility.yul\":5884:5906   */\n      swap1\n      pop\n        /* \"#utility.yul\":5781:5913   */\n      swap2\n      swap1\n      pop\n      jump\t// out\n        /* \"#utility.yul\":5919:6027   */\n    tag_280:\n        /* \"#utility.yul\":5996:6020   */\n      tag_398\n        /* \"#utility.yul\":6014:6019   */\n      dup2\n        /* \"#utility.yul\":5996:6020   */\n      tag_260\n      jump\t// in\n    tag_398:\n        /* \"#utility.yul\":5991:5994   */\n      dup3\n        /* \"#utility.yul\":5984:6021   */\n      mstore\n        /* \"#utility.yul\":5919:6027   */\n      pop\n      pop\n      jump\t// out\n        /* \"#utility.yul\":6033:6212   */\n    tag_281:\n        /* \"#utility.yul\":6102:6112   */\n      0x00\n        /* \"#utility.yul\":6123:6169   */\n      tag_400\n        /* \"#utility.yul\":6165:6168   */\n      dup4\n        /* \"#utility.yul\":6157:6163   */\n      dup4\n        /* \"#utility.yul\":6123:6169   */\n      tag_280\n      jump\t// in\n    tag_400:\n        /* \"#utility.yul\":6201:6205   */\n      0x20\n        /* \"#utility.yul\":6196:6199   */\n      dup4\n        /* \"#utility.yul\":6192:6206   */\n      add\n        /* \"#utility.yul\":6178:6206   */\n      swap1\n      pop\n        /* \"#utility.yul\":6033:6212   */\n      swap3\n      swap2\n      pop\n      pop\n      jump\t// out\n        /* \"#utility.yul\":6218:6331   */\n    tag_282:\n        /* \"#utility.yul\":6288:6292   */\n      0x00\n        /* \"#utility.yul\":6320:6324   */\n      0x20\n        /* \"#utility.yul\":6315:6318   */\n      dup3\n        /* \"#utility.yul\":6311:6325   */\n      add\n        /* \"#utility.yul\":6303:6325   */\n      swap1\n      pop\n        /* \"#utility.yul\":6218:6331   */\n      swap2\n      swap1\n      pop\n      jump\t// out\n        /* \"#utility.yul\":6367:7099   */\n    tag_283:\n        /* \"#utility.yul\":6486:6489   */\n      0x00\n        /* \"#utility.yul\":6515:6569   */\n      tag_403\n        /* \"#utility.yul\":6563:6568   */\n      dup3\n        /* \"#utility.yul\":6515:6569   */\n      tag_277\n      jump\t// in\n    tag_403:\n        /* \"#utility.yul\":6585:6671   */\n      tag_404\n        /* \"#utility.yul\":6664:6670   */\n      dup2\n        /* \"#utility.yul\":6659:6662   */\n      dup6\n        /* \"#utility.yul\":6585:6671   */\n      tag_278\n      jump\t// in\n    tag_404:\n        /* \"#utility.yul\":6578:6671   */\n      swap4\n      pop\n        /* \"#utility.yul\":6695:6751   */\n      tag_405\n        /* \"#utility.yul\":6745:6750   */\n      dup4\n        /* \"#utility.yul\":6695:6751   */\n      tag_279\n      jump\t// in\n    tag_405:\n        /* \"#utility.yul\":6774:6781   */\n      dup1\n        /* \"#utility.yul\":6805:6806   */\n      0x00\n        /* \"#utility.yul\":6790:7074   */\n    tag_406:\n        /* \"#utility.yul\":6815:6821   */\n      dup4\n        /* \"#utility.yul\":6812:6813   */\n      dup2\n        /* \"#utility.yul\":6809:6822   */\n      lt\n        /* \"#utility.yul\":6790:7074   */\n      iszero\n      tag_408\n      jumpi\n        /* \"#utility.yul\":6891:6897   */\n      dup2\n        /* \"#utility.yul\":6885:6898   */\n      mload\n        /* \"#utility.yul\":6918:6981   */\n      tag_409\n        /* \"#utility.yul\":6977:6980   */\n      dup9\n        /* \"#utility.yul\":6962:6975   */\n      dup3\n        /* \"#utility.yul\":6918:6981   */\n      tag_281\n      jump\t// in\n    tag_409:\n        /* \"#utility.yul\":6911:6981   */\n      swap8\n      pop\n        /* \"#utility.yul\":7004:7064   */\n      tag_410\n        /* \"#utility.yul\":7057:7063   */\n      dup4\n        /* \"#utility.yul\":7004:7064   */\n      tag_282\n      jump\t// in\n    tag_410:\n        /* \"#utility.yul\":6994:7064   */\n      swap3\n      pop\n        /* \"#utility.yul\":6850:7074   */\n      pop\n        /* \"#utility.yul\":6837:6838   */\n      0x01\n        /* \"#utility.yul\":6834:6835   */\n      dup2\n        /* \"#utility.yul\":6830:6839   */\n      add\n        /* \"#utility.yul\":6825:6839   */\n      swap1\n      pop\n        /* \"#utility.yul\":6790:7074   */\n      jump(tag_406)\n    tag_408:\n        /* \"#utility.yul\":6794:6808   */\n      pop\n        /* \"#utility.yul\":7090:7093   */\n      dup6\n        /* \"#utility.yul\":7083:7093   */\n      swap4\n      pop\n        /* \"#utility.yul\":6491:7099   */\n      pop\n      pop\n      pop\n        /* \"#utility.yul\":6367:7099   */\n      swap3\n      swap2\n      pop\n      pop\n      jump\t// out\n        /* \"#utility.yul\":7105:7478   */\n    tag_38:\n        /* \"#utility.yul\":7248:7252   */\n      0x00\n        /* \"#utility.yul\":7286:7288   */\n      0x20\n        /* \"#utility.yul\":7275:7284   */\n      dup3\n        /* \"#utility.yul\":7271:7289   */\n      add\n        /* \"#utility.yul\":7263:7289   */\n      swap1\n      pop\n        /* \"#utility.yul\":7335:7344   */\n      dup2\n        /* \"#utility.yul\":7329:7333   */\n      dup2\n        /* \"#utility.yul\":7325:7345   */\n      sub\n        /* \"#utility.yul\":7321:7322   */\n      0x00\n        /* \"#utility.yul\":7310:7319   */\n      dup4\n        /* \"#utility.yul\":7306:7323   */\n      add\n        /* \"#utility.yul\":7299:7346   */\n      mstore\n        /* \"#utility.yul\":7363:7471   */\n      tag_412\n        /* \"#utility.yul\":7466:7470   */\n      dup2\n        /* \"#utility.yul\":7457:7463   */\n      dup5\n        /* \"#utility.yul\":7363:7471   */\n      tag_283\n      jump\t// in\n    tag_412:\n        /* \"#utility.yul\":7355:7471   */\n      swap1\n      pop\n        /* \"#utility.yul\":7105:7478   */\n      swap3\n      swap2\n      pop\n      pop\n      jump\t// out\n        /* \"#utility.yul\":7484:7706   */\n    tag_55:\n        /* \"#utility.yul\":7577:7581   */\n      0x00\n        /* \"#utility.yul\":7615:7617   */\n      0x20\n        /* \"#utility.yul\":7604:7613   */\n      dup3\n        /* \"#utility.yul\":7600:7618   */\n      add\n        /* \"#utility.yul\":7592:7618   */\n      swap1\n      pop\n        /* \"#utility.yul\":7628:7699   */\n      tag_414\n        /* \"#utility.yul\":7696:7697   */\n      0x00\n        /* \"#utility.yul\":7685:7694   */\n      dup4\n        /* \"#utility.yul\":7681:7698   */\n      add\n        /* \"#utility.yul\":7672:7678   */\n      dup5\n        /* \"#utility.yul\":7628:7699   */\n      tag_266\n      jump\t// in\n    tag_414:\n        /* \"#utility.yul\":7484:7706   */\n      swap3\n      swap2\n      pop\n      pop\n      jump\t// out\n        /* \"#utility.yul\":7712:7934   */\n    tag_60:\n        /* \"#utility.yul\":7805:7809   */\n      0x00\n        /* \"#utility.yul\":7843:7845   */\n      0x20\n        /* \"#utility.yul\":7832:7841   */\n      dup3\n        /* \"#utility.yul\":7828:7846   */\n      add\n        /* \"#utility.yul\":7820:7846   */\n      swap1\n      pop\n        /* \"#utility.yul\":7856:7927   */\n      tag_416\n        /* \"#utility.yul\":7924:7925   */\n      0x00\n        /* \"#utility.yul\":7913:7922   */\n      dup4\n        /* \"#utility.yul\":7909:7926   */\n      add\n        /* \"#utility.yul\":7900:7906   */\n      dup5\n        /* \"#utility.yul\":7856:7927   */\n      tag_265\n      jump\t// in\n    tag_416:\n        /* \"#utility.yul\":7712:7934   */\n      swap3\n      swap2\n      pop\n      pop\n      jump\t// out\n        /* \"#utility.yul\":7940:8248   */\n    tag_71:\n        /* \"#utility.yul\":8049:8053   */\n      0x00\n        /* \"#utility.yul\":8087:8089   */\n      0x40\n        /* \"#utility.yul\":8076:8085   */\n      dup3\n        /* \"#utility.yul\":8072:8090   */\n      add\n        /* \"#utility.yul\":8064:8090   */\n      swap1\n      pop\n        /* \"#utility.yul\":8100:8165   */\n      tag_418\n        /* \"#utility.yul\":8162:8163   */\n      0x00\n        /* \"#utility.yul\":8151:8160   */\n      dup4\n        /* \"#utility.yul\":8147:8164   */\n      add\n        /* \"#utility.yul\":8138:8144   */\n      dup6\n        /* \"#utility.yul\":8100:8165   */\n      tag_268\n      jump\t// in\n    tag_418:\n        /* \"#utility.yul\":8175:8241   */\n      tag_419\n        /* \"#utility.yul\":8237:8239   */\n      0x20\n        /* \"#utility.yul\":8226:8235   */\n      dup4\n        /* \"#utility.yul\":8222:8240   */\n      add\n        /* \"#utility.yul\":8213:8219   */\n      dup5\n        /* \"#utility.yul\":8175:8241   */\n      tag_268\n      jump\t// in\n    tag_419:\n        /* \"#utility.yul\":7940:8248   */\n      swap4\n      swap3\n      pop\n      pop\n      pop\n      jump\t// out\n        /* \"#utility.yul\":8254:8725   */\n    tag_86:\n        /* \"#utility.yul\":8419:8423   */\n      0x00\n        /* \"#utility.yul\":8457:8459   */\n      0x40\n        /* \"#utility.yul\":8446:8455   */\n      dup3\n        /* \"#utility.yul\":8442:8460   */\n      add\n        /* \"#utility.yul\":8434:8460   */\n      swap1\n      pop\n        /* \"#utility.yul\":8470:8535   */\n      tag_421\n        /* \"#utility.yul\":8532:8533   */\n      0x00\n        /* \"#utility.yul\":8521:8530   */\n      dup4\n        /* \"#utility.yul\":8517:8534   */\n      add\n        /* \"#utility.yul\":8508:8514   */\n      dup6\n        /* \"#utility.yul\":8470:8535   */\n      tag_268\n      jump\t// in\n    tag_421:\n        /* \"#utility.yul\":8582:8591   */\n      dup2\n        /* \"#utility.yul\":8576:8580   */\n      dup2\n        /* \"#utility.yul\":8572:8592   */\n      sub\n        /* \"#utility.yul\":8567:8569   */\n      0x20\n        /* \"#utility.yul\":8556:8565   */\n      dup4\n        /* \"#utility.yul\":8552:8570   */\n      add\n        /* \"#utility.yul\":8545:8593   */\n      mstore\n        /* \"#utility.yul\":8610:8718   */\n      tag_422\n        /* \"#utility.yul\":8713:8717   */\n      dup2\n        /* \"#utility.yul\":8704:8710   */\n      dup5\n        /* \"#utility.yul\":8610:8718   */\n      tag_283\n      jump\t// in\n    tag_422:\n        /* \"#utility.yul\":8602:8718   */\n      swap1\n      pop\n        /* \"#utility.yul\":8254:8725   */\n      swap4\n      swap3\n      pop\n      pop\n      pop\n      jump\t// out\n        /* \"#utility.yul\":8731:8853   */\n    tag_284:\n        /* \"#utility.yul\":8804:8828   */\n      tag_424\n        /* \"#utility.yul\":8822:8827   */\n      dup2\n        /* \"#utility.yul\":8804:8828   */\n      tag_264\n      jump\t// in\n    tag_424:\n        /* \"#utility.yul\":8797:8802   */\n      dup2\n        /* \"#utility.yul\":8794:8829   */\n      eq\n        /* \"#utility.yul\":8784:8847   */\n      tag_425\n      jumpi\n        /* \"#utility.yul\":8843:8844   */\n      0x00\n        /* \"#utility.yul\":8840:8841   */\n      dup1\n        /* \"#utility.yul\":8833:8845   */\n      revert\n        /* \"#utility.yul\":8784:8847   */\n    tag_425:\n        /* \"#utility.yul\":8731:8853   */\n      pop\n      jump\t// out\n        /* \"#utility.yul\":8859:8998   */\n    tag_285:\n        /* \"#utility.yul\":8905:8910   */\n      0x00\n        /* \"#utility.yul\":8943:8949   */\n      dup2\n        /* \"#utility.yul\":8930:8950   */\n      calldataload\n        /* \"#utility.yul\":8921:8950   */\n      swap1\n      pop\n        /* \"#utility.yul\":8959:8992   */\n      tag_427\n        /* \"#utility.yul\":8986:8991   */\n      dup2\n        /* \"#utility.yul\":8959:8992   */\n      tag_284\n      jump\t// in\n    tag_427:\n        /* \"#utility.yul\":8859:8998   */\n      swap3\n      swap2\n      pop\n      pop\n      jump\t// out\n        /* \"#utility.yul\":9004:9333   */\n    tag_96:\n        /* \"#utility.yul\":9063:9069   */\n      0x00\n        /* \"#utility.yul\":9112:9114   */\n      0x20\n        /* \"#utility.yul\":9100:9109   */\n      dup3\n        /* \"#utility.yul\":9091:9098   */\n      dup5\n        /* \"#utility.yul\":9087:9110   */\n      sub\n        /* \"#utility.yul\":9083:9115   */\n      slt\n        /* \"#utility.yul\":9080:9199   */\n      iszero\n      tag_429\n      jumpi\n        /* \"#utility.yul\":9118:9197   */\n      tag_430\n      tag_258\n      jump\t// in\n    tag_430:\n        /* \"#utility.yul\":9080:9199   */\n    tag_429:\n        /* \"#utility.yul\":9238:9239   */\n      0x00\n        /* \"#utility.yul\":9263:9316   */\n      tag_431\n        /* \"#utility.yul\":9308:9315   */\n      dup5\n        /* \"#utility.yul\":9299:9305   */\n      dup3\n        /* \"#utility.yul\":9288:9297   */\n      dup6\n        /* \"#utility.yul\":9284:9306   */\n      add\n        /* \"#utility.yul\":9263:9316   */\n      tag_285\n      jump\t// in\n    tag_431:\n        /* \"#utility.yul\":9253:9316   */\n      swap2\n      pop\n        /* \"#utility.yul\":9209:9326   */\n      pop\n        /* \"#utility.yul\":9004:9333   */\n      swap3\n      swap2\n      pop\n      pop\n      jump\t// out\n        /* \"#utility.yul\":9339:9671   */\n    tag_105:\n        /* \"#utility.yul\":9460:9464   */\n      0x00\n        /* \"#utility.yul\":9498:9500   */\n      0x40\n        /* \"#utility.yul\":9487:9496   */\n      dup3\n        /* \"#utility.yul\":9483:9501   */\n      add\n        /* \"#utility.yul\":9475:9501   */\n      swap1\n      pop\n        /* \"#utility.yul\":9511:9582   */\n      tag_433\n        /* \"#utility.yul\":9579:9580   */\n      0x00\n        /* \"#utility.yul\":9568:9577   */\n      dup4\n        /* \"#utility.yul\":9564:9581   */\n      add\n        /* \"#utility.yul\":9555:9561   */\n      dup6\n        /* \"#utility.yul\":9511:9582   */\n      tag_265\n      jump\t// in\n    tag_433:\n        /* \"#utility.yul\":9592:9664   */\n      tag_434\n        /* \"#utility.yul\":9660:9662   */\n      0x20\n        /* \"#utility.yul\":9649:9658   */\n      dup4\n        /* \"#utility.yul\":9645:9663   */\n      add\n        /* \"#utility.yul\":9636:9642   */\n      dup5\n        /* \"#utility.yul\":9592:9664   */\n      tag_265\n      jump\t// in\n    tag_434:\n        /* \"#utility.yul\":9339:9671   */\n      swap4\n      swap3\n      pop\n      pop\n      pop\n      jump\t// out\n        /* \"#utility.yul\":9677:9846   */\n    tag_286:\n        /* \"#utility.yul\":9761:9772   */\n      0x00\n        /* \"#utility.yul\":9795:9801   */\n      dup3\n        /* \"#utility.yul\":9790:9793   */\n      dup3\n        /* \"#utility.yul\":9783:9802   */\n      mstore\n        /* \"#utility.yul\":9835:9839   */\n      0x20\n        /* \"#utility.yul\":9830:9833   */\n      dup3\n        /* \"#utility.yul\":9826:9840   */\n      add\n        /* \"#utility.yul\":9811:9840   */\n      swap1\n      pop\n        /* \"#utility.yul\":9677:9846   */\n      swap3\n      swap2\n      pop\n      pop\n      jump\t// out\n        /* \"#utility.yul\":9852:10021   */\n    tag_287:\n        /* \"#utility.yul\":9992:10013   */\n      0x47616d6520646f6573206e6f7420657869737400000000000000000000000000\n        /* \"#utility.yul\":9988:9989   */\n      0x00\n        /* \"#utility.yul\":9980:9986   */\n      dup3\n        /* \"#utility.yul\":9976:9990   */\n      add\n        /* \"#utility.yul\":9969:10014   */\n      mstore\n        /* \"#utility.yul\":9852:10021   */\n      pop\n      jump\t// out\n        /* \"#utility.yul\":10027:10393   */\n    tag_288:\n        /* \"#utility.yul\":10169:10172   */\n      0x00\n        /* \"#utility.yul\":10190:10257   */\n      tag_438\n        /* \"#utility.yul\":10254:10256   */\n      0x13\n        /* \"#utility.yul\":10249:10252   */\n      dup4\n        /* \"#utility.yul\":10190:10257   */\n      tag_286\n      jump\t// in\n    tag_438:\n        /* \"#utility.yul\":10183:10257   */\n      swap2\n      pop\n        /* \"#utility.yul\":10266:10359   */\n      tag_439\n        /* \"#utility.yul\":10355:10358   */\n      dup3\n        /* \"#utility.yul\":10266:10359   */\n      tag_287\n      jump\t// in\n    tag_439:\n        /* \"#utility.yul\":10384:10386   */\n      0x20\n        /* \"#utility.yul\":10379:10382   */\n      dup3\n        /* \"#utility.yul\":10375:10387   */\n      add\n        /* \"#utility.yul\":10368:10387   */\n      swap1\n      pop\n        /* \"#utility.yul\":10027:10393   */\n      swap2\n      swap1\n      pop\n      jump\t// out\n        /* \"#utility.yul\":10399:10818   */\n    tag_117:\n        /* \"#utility.yul\":10565:10569   */\n      0x00\n        /* \"#utility.yul\":10603:10605   */\n      0x20\n        /* \"#utility.yul\":10592:10601   */\n      dup3\n        /* \"#utility.yul\":10588:10606   */\n      add\n        /* \"#utility.yul\":10580:10606   */\n      swap1\n      pop\n        /* \"#utility.yul\":10652:10661   */\n      dup2\n        /* \"#utility.yul\":10646:10650   */\n      dup2\n        /* \"#utility.yul\":10642:10662   */\n      sub\n        /* \"#utility.yul\":10638:10639   */\n      0x00\n        /* \"#utility.yul\":10627:10636   */\n      dup4\n        /* \"#utility.yul\":10623:10640   */\n      add\n        /* \"#utility.yul\":10616:10663   */\n      mstore\n        /* \"#utility.yul\":10680:10811   */\n      tag_441\n        /* \"#utility.yul\":10806:10810   */\n      dup2\n        /* \"#utility.yul\":10680:10811   */\n      tag_288\n      jump\t// in\n    tag_441:\n        /* \"#utility.yul\":10672:10811   */\n      swap1\n      pop\n        /* \"#utility.yul\":10399:10818   */\n      swap2\n      swap1\n      pop\n      jump\t// out\n        /* \"#utility.yul\":10824:10991   */\n    tag_289:\n        /* \"#utility.yul\":10964:10983   */\n      0x47616d6520697320636f6d706c65746564000000000000000000000000000000\n        /* \"#utility.yul\":10960:10961   */\n      0x00\n        /* \"#utility.yul\":10952:10958   */\n      dup3\n        /* \"#utility.yul\":10948:10962   */\n      add\n        /* \"#utility.yul\":10941:10984   */\n      mstore\n        /* \"#utility.yul\":10824:10991   */\n      pop\n      jump\t// out\n        /* \"#utility.yul\":10997:11363   */\n    tag_290:\n        /* \"#utility.yul\":11139:11142   */\n      0x00\n        /* \"#utility.yul\":11160:11227   */\n      tag_444\n        /* \"#utility.yul\":11224:11226   */\n      0x11\n        /* \"#utility.yul\":11219:11222   */\n      dup4\n        /* \"#utility.yul\":11160:11227   */\n      tag_286\n      jump\t// in\n    tag_444:\n        /* \"#utility.yul\":11153:11227   */\n      swap2\n      pop\n        /* \"#utility.yul\":11236:11329   */\n      tag_445\n        /* \"#utility.yul\":11325:11328   */\n      dup3\n        /* \"#utility.yul\":11236:11329   */\n      tag_289\n      jump\t// in\n    tag_445:\n        /* \"#utility.yul\":11354:11356   */\n      0x20\n        /* \"#utility.yul\":11349:11352   */\n      dup3\n        /* \"#utility.yul\":11345:11357   */\n      add\n        /* \"#utility.yul\":11338:11357   */\n      swap1\n      pop\n        /* \"#utility.yul\":10997:11363   */\n      swap2\n      swap1\n      pop\n      jump\t// out\n        /* \"#utility.yul\":11369:11788   */\n    tag_120:\n        /* \"#utility.yul\":11535:11539   */\n      0x00\n        /* \"#utility.yul\":11573:11575   */\n      0x20\n        /* \"#utility.yul\":11562:11571   */\n      dup3\n        /* \"#utility.yul\":11558:11576   */\n      add\n        /* \"#utility.yul\":11550:11576   */\n      swap1\n      pop\n        /* \"#utility.yul\":11622:11631   */\n      dup2\n        /* \"#utility.yul\":11616:11620   */\n      dup2\n        /* \"#utility.yul\":11612:11632   */\n      sub\n        /* \"#utility.yul\":11608:11609   */\n      0x00\n        /* \"#utility.yul\":11597:11606   */\n      dup4\n        /* \"#utility.yul\":11593:11610   */\n      add\n        /* \"#utility.yul\":11586:11633   */\n      mstore\n        /* \"#utility.yul\":11650:11781   */\n      tag_447\n        /* \"#utility.yul\":11776:11780   */\n      dup2\n        /* \"#utility.yul\":11650:11781   */\n      tag_290\n      jump\t// in\n    tag_447:\n        /* \"#utility.yul\":11642:11781   */\n      swap1\n      pop\n        /* \"#utility.yul\":11369:11788   */\n      swap2\n      swap1\n      pop\n      jump\t// out\n        /* \"#utility.yul\":11794:11966   */\n    tag_291:\n        /* \"#utility.yul\":11934:11958   */\n      0x47616d6520697320616c7265616479206a6f696e656400000000000000000000\n        /* \"#utility.yul\":11930:11931   */\n      0x00\n        /* \"#utility.yul\":11922:11928   */\n      dup3\n        /* \"#utility.yul\":11918:11932   */\n      add\n        /* \"#utility.yul\":11911:11959   */\n      mstore\n        /* \"#utility.yul\":11794:11966   */\n      pop\n      jump\t// out\n        /* \"#utility.yul\":11972:12338   */\n    tag_292:\n        /* \"#utility.yul\":12114:12117   */\n      0x00\n        /* \"#utility.yul\":12135:12202   */\n      tag_450\n        /* \"#utility.yul\":12199:12201   */\n      0x16\n        /* \"#utility.yul\":12194:12197   */\n      dup4\n        /* \"#utility.yul\":12135:12202   */\n      tag_286\n      jump\t// in\n    tag_450:\n        /* \"#utility.yul\":12128:12202   */\n      swap2\n      pop\n        /* \"#utility.yul\":12211:12304   */\n      tag_451\n        /* \"#utility.yul\":12300:12303   */\n      dup3\n        /* \"#utility.yul\":12211:12304   */\n      tag_291\n      jump\t// in\n    tag_451:\n        /* \"#utility.yul\":12329:12331   */\n      0x20\n        /* \"#utility.yul\":12324:12327   */\n      dup3\n        /* \"#utility.yul\":12320:12332   */\n      add\n        /* \"#utility.yul\":12313:12332   */\n      swap1\n      pop\n        /* \"#utility.yul\":11972:12338   */\n      swap2\n      swap1\n      pop\n      jump\t// out\n        /* \"#utility.yul\":12344:12763   */\n    tag_123:\n        /* \"#utility.yul\":12510:12514   */\n      0x00\n        /* \"#utility.yul\":12548:12550   */\n      0x20\n        /* \"#utility.yul\":12537:12546   */\n      dup3\n        /* \"#utility.yul\":12533:12551   */\n      add\n        /* \"#utility.yul\":12525:12551   */\n      swap1\n      pop\n        /* \"#utility.yul\":12597:12606   */\n      dup2\n        /* \"#utility.yul\":12591:12595   */\n      dup2\n        /* \"#utility.yul\":12587:12607   */\n      sub\n        /* \"#utility.yul\":12583:12584   */\n      0x00\n        /* \"#utility.yul\":12572:12581   */\n      dup4\n        /* \"#utility.yul\":12568:12585   */\n      add\n        /* \"#utility.yul\":12561:12608   */\n      mstore\n        /* \"#utility.yul\":12625:12756   */\n      tag_453\n        /* \"#utility.yul\":12751:12755   */\n      dup2\n        /* \"#utility.yul\":12625:12756   */\n      tag_292\n      jump\t// in\n    tag_453:\n        /* \"#utility.yul\":12617:12756   */\n      swap1\n      pop\n        /* \"#utility.yul\":12344:12763   */\n      swap2\n      swap1\n      pop\n      jump\t// out\n        /* \"#utility.yul\":12769:12941   */\n    tag_293:\n        /* \"#utility.yul\":12909:12933   */\n      0x4d7573742062652070726f706f736564206f776e657200000000000000000000\n        /* \"#utility.yul\":12905:12906   */\n      0x00\n        /* \"#utility.yul\":12897:12903   */\n      dup3\n        /* \"#utility.yul\":12893:12907   */\n      add\n        /* \"#utility.yul\":12886:12934   */\n      mstore\n        /* \"#utility.yul\":12769:12941   */\n      pop\n      jump\t// out\n        /* \"#utility.yul\":12947:13313   */\n    tag_294:\n        /* \"#utility.yul\":13089:13092   */\n      0x00\n        /* \"#utility.yul\":13110:13177   */\n      tag_456\n        /* \"#utility.yul\":13174:13176   */\n      0x16\n        /* \"#utility.yul\":13169:13172   */\n      dup4\n        /* \"#utility.yul\":13110:13177   */\n      tag_286\n      jump\t// in\n    tag_456:\n        /* \"#utility.yul\":13103:13177   */\n      swap2\n      pop\n        /* \"#utility.yul\":13186:13279   */\n      tag_457\n        /* \"#utility.yul\":13275:13278   */\n      dup3\n        /* \"#utility.yul\":13186:13279   */\n      tag_293\n      jump\t// in\n    tag_457:\n        /* \"#utility.yul\":13304:13306   */\n      0x20\n        /* \"#utility.yul\":13299:13302   */\n      dup3\n        /* \"#utility.yul\":13295:13307   */\n      add\n        /* \"#utility.yul\":13288:13307   */\n      swap1\n      pop\n        /* \"#utility.yul\":12947:13313   */\n      swap2\n      swap1\n      pop\n      jump\t// out\n        /* \"#utility.yul\":13319:13738   */\n    tag_131:\n        /* \"#utility.yul\":13485:13489   */\n      0x00\n        /* \"#utility.yul\":13523:13525   */\n      0x20\n        /* \"#utility.yul\":13512:13521   */\n      dup3\n        /* \"#utility.yul\":13508:13526   */\n      add\n        /* \"#utility.yul\":13500:13526   */\n      swap1\n      pop\n        /* \"#utility.yul\":13572:13581   */\n      dup2\n        /* \"#utility.yul\":13566:13570   */\n      dup2\n        /* \"#utility.yul\":13562:13582   */\n      sub\n        /* \"#utility.yul\":13558:13559   */\n      0x00\n        /* \"#utility.yul\":13547:13556   */\n      dup4\n        /* \"#utility.yul\":13543:13560   */\n      add\n        /* \"#utility.yul\":13536:13583   */\n      mstore\n        /* \"#utility.yul\":13600:13731   */\n      tag_459\n        /* \"#utility.yul\":13726:13730   */\n      dup2\n        /* \"#utility.yul\":13600:13731   */\n      tag_294\n      jump\t// in\n    tag_459:\n        /* \"#utility.yul\":13592:13731   */\n      swap1\n      pop\n        /* \"#utility.yul\":13319:13738   */\n      swap2\n      swap1\n      pop\n      jump\t// out\n        /* \"#utility.yul\":13744:13911   */\n    tag_295:\n        /* \"#utility.yul\":13884:13903   */\n      0x72657175657374206e6f7420666f756e64000000000000000000000000000000\n        /* \"#utility.yul\":13880:13881   */\n      0x00\n        /* \"#utility.yul\":13872:13878   */\n      dup3\n        /* \"#utility.yul\":13868:13882   */\n      add\n        /* \"#utility.yul\":13861:13904   */\n      mstore\n        /* \"#utility.yul\":13744:13911   */\n      pop\n      jump\t// out\n        /* \"#utility.yul\":13917:14283   */\n    tag_296:\n        /* \"#utility.yul\":14059:14062   */\n      0x00\n        /* \"#utility.yul\":14080:14147   */\n      tag_462\n        /* \"#utility.yul\":14144:14146   */\n      0x11\n        /* \"#utility.yul\":14139:14142   */\n      dup4\n        /* \"#utility.yul\":14080:14147   */\n      tag_286\n      jump\t// in\n    tag_462:\n        /* \"#utility.yul\":14073:14147   */\n      swap2\n      pop\n        /* \"#utility.yul\":14156:14249   */\n      tag_463\n        /* \"#utility.yul\":14245:14248   */\n      dup3\n        /* \"#utility.yul\":14156:14249   */\n      tag_295\n      jump\t// in\n    tag_463:\n        /* \"#utility.yul\":14274:14276   */\n      0x20\n        /* \"#utility.yul\":14269:14272   */\n      dup3\n        /* \"#utility.yul\":14265:14277   */\n      add\n        /* \"#utility.yul\":14258:14277   */\n      swap1\n      pop\n        /* \"#utility.yul\":13917:14283   */\n      swap2\n      swap1\n      pop\n      jump\t// out\n        /* \"#utility.yul\":14289:14708   */\n    tag_143:\n        /* \"#utility.yul\":14455:14459   */\n      0x00\n        /* \"#utility.yul\":14493:14495   */\n      0x20\n        /* \"#utility.yul\":14482:14491   */\n      dup3\n        /* \"#utility.yul\":14478:14496   */\n      add\n        /* \"#utility.yul\":14470:14496   */\n      swap1\n      pop\n        /* \"#utility.yul\":14542:14551   */\n      dup2\n        /* \"#utility.yul\":14536:14540   */\n      dup2\n        /* \"#utility.yul\":14532:14552   */\n      sub\n        /* \"#utility.yul\":14528:14529   */\n      0x00\n        /* \"#utility.yul\":14517:14526   */\n      dup4\n        /* \"#utility.yul\":14513:14530   */\n      add\n        /* \"#utility.yul\":14506:14553   */\n      mstore\n        /* \"#utility.yul\":14570:14701   */\n      tag_465\n        /* \"#utility.yul\":14696:14700   */\n      dup2\n        /* \"#utility.yul\":14570:14701   */\n      tag_296\n      jump\t// in\n    tag_465:\n        /* \"#utility.yul\":14562:14701   */\n      swap1\n      pop\n        /* \"#utility.yul\":14289:14708   */\n      swap2\n      swap1\n      pop\n      jump\t// out\n        /* \"#utility.yul\":14714:14939   */\n    tag_297:\n        /* \"#utility.yul\":14854:14888   */\n      0x576167657220616d6f756e74206973206c657373207468616e206d696e696d75\n        /* \"#utility.yul\":14850:14851   */\n      0x00\n        /* \"#utility.yul\":14842:14848   */\n      dup3\n        /* \"#utility.yul\":14838:14852   */\n      add\n        /* \"#utility.yul\":14831:14889   */\n      mstore\n        /* \"#utility.yul\":14923:14931   */\n      0x6d57616765720000000000000000000000000000000000000000000000000000\n        /* \"#utility.yul\":14918:14920   */\n      0x20\n        /* \"#utility.yul\":14910:14916   */\n      dup3\n        /* \"#utility.yul\":14906:14921   */\n      add\n        /* \"#utility.yul\":14899:14932   */\n      mstore\n        /* \"#utility.yul\":14714:14939   */\n      pop\n      jump\t// out\n        /* \"#utility.yul\":14945:15311   */\n    tag_298:\n        /* \"#utility.yul\":15087:15090   */\n      0x00\n        /* \"#utility.yul\":15108:15175   */\n      tag_468\n        /* \"#utility.yul\":15172:15174   */\n      0x26\n        /* \"#utility.yul\":15167:15170   */\n      dup4\n        /* \"#utility.yul\":15108:15175   */\n      tag_286\n      jump\t// in\n    tag_468:\n        /* \"#utility.yul\":15101:15175   */\n      swap2\n      pop\n        /* \"#utility.yul\":15184:15277   */\n      tag_469\n        /* \"#utility.yul\":15273:15276   */\n      dup3\n        /* \"#utility.yul\":15184:15277   */\n      tag_297\n      jump\t// in\n    tag_469:\n        /* \"#utility.yul\":15302:15304   */\n      0x40\n        /* \"#utility.yul\":15297:15300   */\n      dup3\n        /* \"#utility.yul\":15293:15305   */\n      add\n        /* \"#utility.yul\":15286:15305   */\n      swap1\n      pop\n        /* \"#utility.yul\":14945:15311   */\n      swap2\n      swap1\n      pop\n      jump\t// out\n        /* \"#utility.yul\":15317:15736   */\n    tag_149:\n        /* \"#utility.yul\":15483:15487   */\n      0x00\n        /* \"#utility.yul\":15521:15523   */\n      0x20\n        /* \"#utility.yul\":15510:15519   */\n      dup3\n        /* \"#utility.yul\":15506:15524   */\n      add\n        /* \"#utility.yul\":15498:15524   */\n      swap1\n      pop\n        /* \"#utility.yul\":15570:15579   */\n      dup2\n        /* \"#utility.yul\":15564:15568   */\n      dup2\n        /* \"#utility.yul\":15560:15580   */\n      sub\n        /* \"#utility.yul\":15556:15557   */\n      0x00\n        /* \"#utility.yul\":15545:15554   */\n      dup4\n        /* \"#utility.yul\":15541:15558   */\n      add\n        /* \"#utility.yul\":15534:15581   */\n      mstore\n        /* \"#utility.yul\":15598:15729   */\n      tag_471\n        /* \"#utility.yul\":15724:15728   */\n      dup2\n        /* \"#utility.yul\":15598:15729   */\n      tag_298\n      jump\t// in\n    tag_471:\n        /* \"#utility.yul\":15590:15729   */\n      swap1\n      pop\n        /* \"#utility.yul\":15317:15736   */\n      swap2\n      swap1\n      pop\n      jump\t// out\n        /* \"#utility.yul\":15742:15913   */\n    tag_299:\n        /* \"#utility.yul\":15882:15905   */\n      0x496e636f727265637420616d6f756e742073656e740000000000000000000000\n        /* \"#utility.yul\":15878:15879   */\n      0x00\n        /* \"#utility.yul\":15870:15876   */\n      dup3\n        /* \"#utility.yul\":15866:15880   */\n      add\n        /* \"#utility.yul\":15859:15906   */\n      mstore\n        /* \"#utility.yul\":15742:15913   */\n      pop\n      jump\t// out\n        /* \"#utility.yul\":15919:16285   */\n    tag_300:\n        /* \"#utility.yul\":16061:16064   */\n      0x00\n        /* \"#utility.yul\":16082:16149   */\n      tag_474\n        /* \"#utility.yul\":16146:16148   */\n      0x15\n        /* \"#utility.yul\":16141:16144   */\n      dup4\n        /* \"#utility.yul\":16082:16149   */\n      tag_286\n      jump\t// in\n    tag_474:\n        /* \"#utility.yul\":16075:16149   */\n      swap2\n      pop\n        /* \"#utility.yul\":16158:16251   */\n      tag_475\n        /* \"#utility.yul\":16247:16250   */\n      dup3\n        /* \"#utility.yul\":16158:16251   */\n      tag_299\n      jump\t// in\n    tag_475:\n        /* \"#utility.yul\":16276:16278   */\n      0x20\n        /* \"#utility.yul\":16271:16274   */\n      dup3\n        /* \"#utility.yul\":16267:16279   */\n      add\n        /* \"#utility.yul\":16260:16279   */\n      swap1\n      pop\n        /* \"#utility.yul\":15919:16285   */\n      swap2\n      swap1\n      pop\n      jump\t// out\n        /* \"#utility.yul\":16291:16710   */\n    tag_161:\n        /* \"#utility.yul\":16457:16461   */\n      0x00\n        /* \"#utility.yul\":16495:16497   */\n      0x20\n        /* \"#utility.yul\":16484:16493   */\n      dup3\n        /* \"#utility.yul\":16480:16498   */\n      add\n        /* \"#utility.yul\":16472:16498   */\n      swap1\n      pop\n        /* \"#utility.yul\":16544:16553   */\n      dup2\n        /* \"#utility.yul\":16538:16542   */\n      dup2\n        /* \"#utility.yul\":16534:16554   */\n      sub\n        /* \"#utility.yul\":16530:16531   */\n      0x00\n        /* \"#utility.yul\":16519:16528   */\n      dup4\n        /* \"#utility.yul\":16515:16532   */\n      add\n        /* \"#utility.yul\":16508:16555   */\n      mstore\n        /* \"#utility.yul\":16572:16703   */\n      tag_477\n        /* \"#utility.yul\":16698:16702   */\n      dup2\n        /* \"#utility.yul\":16572:16703   */\n      tag_300\n      jump\t// in\n    tag_477:\n        /* \"#utility.yul\":16564:16703   */\n      swap1\n      pop\n        /* \"#utility.yul\":16291:16710   */\n      swap2\n      swap1\n      pop\n      jump\t// out\n        /* \"#utility.yul\":16716:16895   */\n    tag_301:\n        /* \"#utility.yul\":16856:16887   */\n      0x596f752063616e6e6f74206a6f696e20796f7572206f776e2067616d65000000\n        /* \"#utility.yul\":16852:16853   */\n      0x00\n        /* \"#utility.yul\":16844:16850   */\n      dup3\n        /* \"#utility.yul\":16840:16854   */\n      add\n        /* \"#utility.yul\":16833:16888   */\n      mstore\n        /* \"#utility.yul\":16716:16895   */\n      pop\n      jump\t// out\n        /* \"#utility.yul\":16901:17267   */\n    tag_302:\n        /* \"#utility.yul\":17043:17046   */\n      0x00\n        /* \"#utility.yul\":17064:17131   */\n      tag_480\n        /* \"#utility.yul\":17128:17130   */\n      0x1d\n        /* \"#utility.yul\":17123:17126   */\n      dup4\n        /* \"#utility.yul\":17064:17131   */\n      tag_286\n      jump\t// in\n    tag_480:\n        /* \"#utility.yul\":17057:17131   */\n      swap2\n      pop\n        /* \"#utility.yul\":17140:17233   */\n      tag_481\n        /* \"#utility.yul\":17229:17232   */\n      dup3\n        /* \"#utility.yul\":17140:17233   */\n      tag_301\n      jump\t// in\n    tag_481:\n        /* \"#utility.yul\":17258:17260   */\n      0x20\n        /* \"#utility.yul\":17253:17256   */\n      dup3\n        /* \"#utility.yul\":17249:17261   */\n      add\n        /* \"#utility.yul\":17242:17261   */\n      swap1\n      pop\n        /* \"#utility.yul\":16901:17267   */\n      swap2\n      swap1\n      pop\n      jump\t// out\n        /* \"#utility.yul\":17273:17692   */\n    tag_166:\n        /* \"#utility.yul\":17439:17443   */\n      0x00\n        /* \"#utility.yul\":17477:17479   */\n      0x20\n        /* \"#utility.yul\":17466:17475   */\n      dup3\n        /* \"#utility.yul\":17462:17480   */\n      add\n        /* \"#utility.yul\":17454:17480   */\n      swap1\n      pop\n        /* \"#utility.yul\":17526:17535   */\n      dup2\n        /* \"#utility.yul\":17520:17524   */\n      dup2\n        /* \"#utility.yul\":17516:17536   */\n      sub\n        /* \"#utility.yul\":17512:17513   */\n      0x00\n        /* \"#utility.yul\":17501:17510   */\n      dup4\n        /* \"#utility.yul\":17497:17514   */\n      add\n        /* \"#utility.yul\":17490:17537   */\n      mstore\n        /* \"#utility.yul\":17554:17685   */\n      tag_483\n        /* \"#utility.yul\":17680:17684   */\n      dup2\n        /* \"#utility.yul\":17554:17685   */\n      tag_302\n      jump\t// in\n    tag_483:\n        /* \"#utility.yul\":17546:17685   */\n      swap1\n      pop\n        /* \"#utility.yul\":17273:17692   */\n      swap2\n      swap1\n      pop\n      jump\t// out\n        /* \"#utility.yul\":17698:18181   */\n    tag_182:\n        /* \"#utility.yul\":17869:17873   */\n      0x00\n        /* \"#utility.yul\":17907:17909   */\n      0x40\n        /* \"#utility.yul\":17896:17905   */\n      dup3\n        /* \"#utility.yul\":17892:17910   */\n      add\n        /* \"#utility.yul\":17884:17910   */\n      swap1\n      pop\n        /* \"#utility.yul\":17920:17991   */\n      tag_485\n        /* \"#utility.yul\":17988:17989   */\n      0x00\n        /* \"#utility.yul\":17977:17986   */\n      dup4\n        /* \"#utility.yul\":17973:17990   */\n      add\n        /* \"#utility.yul\":17964:17970   */\n      dup6\n        /* \"#utility.yul\":17920:17991   */\n      tag_266\n      jump\t// in\n    tag_485:\n        /* \"#utility.yul\":18038:18047   */\n      dup2\n        /* \"#utility.yul\":18032:18036   */\n      dup2\n        /* \"#utility.yul\":18028:18048   */\n      sub\n        /* \"#utility.yul\":18023:18025   */\n      0x20\n        /* \"#utility.yul\":18012:18021   */\n      dup4\n        /* \"#utility.yul\":18008:18026   */\n      add\n        /* \"#utility.yul\":18001:18049   */\n      mstore\n        /* \"#utility.yul\":18066:18174   */\n      tag_486\n        /* \"#utility.yul\":18169:18173   */\n      dup2\n        /* \"#utility.yul\":18160:18166   */\n      dup5\n        /* \"#utility.yul\":18066:18174   */\n      tag_283\n      jump\t// in\n    tag_486:\n        /* \"#utility.yul\":18058:18174   */\n      swap1\n      pop\n        /* \"#utility.yul\":17698:18181   */\n      swap4\n      swap3\n      pop\n      pop\n      pop\n      jump\t// out\n        /* \"#utility.yul\":18187:18359   */\n    tag_303:\n        /* \"#utility.yul\":18327:18351   */\n      0x4f6e6c792063616c6c61626c65206279206f776e657200000000000000000000\n        /* \"#utility.yul\":18323:18324   */\n      0x00\n        /* \"#utility.yul\":18315:18321   */\n      dup3\n        /* \"#utility.yul\":18311:18325   */\n      add\n        /* \"#utility.yul\":18304:18352   */\n      mstore\n        /* \"#utility.yul\":18187:18359   */\n      pop\n      jump\t// out\n        /* \"#utility.yul\":18365:18731   */\n    tag_304:\n        /* \"#utility.yul\":18507:18510   */\n      0x00\n        /* \"#utility.yul\":18528:18595   */\n      tag_489\n        /* \"#utility.yul\":18592:18594   */\n      0x16\n        /* \"#utility.yul\":18587:18590   */\n      dup4\n        /* \"#utility.yul\":18528:18595   */\n      tag_286\n      jump\t// in\n    tag_489:\n        /* \"#utility.yul\":18521:18595   */\n      swap2\n      pop\n        /* \"#utility.yul\":18604:18697   */\n      tag_490\n        /* \"#utility.yul\":18693:18696   */\n      dup3\n        /* \"#utility.yul\":18604:18697   */\n      tag_303\n      jump\t// in\n    tag_490:\n        /* \"#utility.yul\":18722:18724   */\n      0x20\n        /* \"#utility.yul\":18717:18720   */\n      dup3\n        /* \"#utility.yul\":18713:18725   */\n      add\n        /* \"#utility.yul\":18706:18725   */\n      swap1\n      pop\n        /* \"#utility.yul\":18365:18731   */\n      swap2\n      swap1\n      pop\n      jump\t// out\n        /* \"#utility.yul\":18737:19156   */\n    tag_186:\n        /* \"#utility.yul\":18903:18907   */\n      0x00\n        /* \"#utility.yul\":18941:18943   */\n      0x20\n        /* \"#utility.yul\":18930:18939   */\n      dup3\n        /* \"#utility.yul\":18926:18944   */\n      add\n        /* \"#utility.yul\":18918:18944   */\n      swap1\n      pop\n        /* \"#utility.yul\":18990:18999   */\n      dup2\n        /* \"#utility.yul\":18984:18988   */\n      dup2\n        /* \"#utility.yul\":18980:19000   */\n      sub\n        /* \"#utility.yul\":18976:18977   */\n      0x00\n        /* \"#utility.yul\":18965:18974   */\n      dup4\n        /* \"#utility.yul\":18961:18978   */\n      add\n        /* \"#utility.yul\":18954:19001   */\n      mstore\n        /* \"#utility.yul\":19018:19149   */\n      tag_492\n        /* \"#utility.yul\":19144:19148   */\n      dup2\n        /* \"#utility.yul\":19018:19149   */\n      tag_304\n      jump\t// in\n    tag_492:\n        /* \"#utility.yul\":19010:19149   */\n      swap1\n      pop\n        /* \"#utility.yul\":18737:19156   */\n      swap2\n      swap1\n      pop\n      jump\t// out\n        /* \"#utility.yul\":19162:19342   */\n    tag_193:\n        /* \"#utility.yul\":19210:19287   */\n      0x4e487b7100000000000000000000000000000000000000000000000000000000\n        /* \"#utility.yul\":19207:19208   */\n      0x00\n        /* \"#utility.yul\":19200:19288   */\n      mstore\n        /* \"#utility.yul\":19307:19311   */\n      0x32\n        /* \"#utility.yul\":19304:19305   */\n      0x04\n        /* \"#utility.yul\":19297:19312   */\n      mstore\n        /* \"#utility.yul\":19331:19335   */\n      0x24\n        /* \"#utility.yul\":19328:19329   */\n      0x00\n        /* \"#utility.yul\":19321:19336   */\n      revert\n        /* \"#utility.yul\":19348:19528   */\n    tag_305:\n        /* \"#utility.yul\":19396:19473   */\n      0x4e487b7100000000000000000000000000000000000000000000000000000000\n        /* \"#utility.yul\":19393:19394   */\n      0x00\n        /* \"#utility.yul\":19386:19474   */\n      mstore\n        /* \"#utility.yul\":19493:19497   */\n      0x11\n        /* \"#utility.yul\":19490:19491   */\n      0x04\n        /* \"#utility.yul\":19483:19498   */\n      mstore\n        /* \"#utility.yul\":19517:19521   */\n      0x24\n        /* \"#utility.yul\":19514:19515   */\n      0x00\n        /* \"#utility.yul\":19507:19522   */\n      revert\n        /* \"#utility.yul\":19534:19728   */\n    tag_197:\n        /* \"#utility.yul\":19574:19578   */\n      0x00\n        /* \"#utility.yul\":19594:19614   */\n      tag_496\n        /* \"#utility.yul\":19612:19613   */\n      dup3\n        /* \"#utility.yul\":19594:19614   */\n      tag_260\n      jump\t// in\n    tag_496:\n        /* \"#utility.yul\":19589:19614   */\n      swap2\n      pop\n        /* \"#utility.yul\":19628:19648   */\n      tag_497\n        /* \"#utility.yul\":19646:19647   */\n      dup4\n        /* \"#utility.yul\":19628:19648   */\n      tag_260\n      jump\t// in\n    tag_497:\n        /* \"#utility.yul\":19623:19648   */\n      swap3\n      pop\n        /* \"#utility.yul\":19672:19673   */\n      dup3\n        /* \"#utility.yul\":19669:19670   */\n      dup3\n        /* \"#utility.yul\":19665:19674   */\n      sub\n        /* \"#utility.yul\":19657:19674   */\n      swap1\n      pop\n        /* \"#utility.yul\":19696:19697   */\n      dup2\n        /* \"#utility.yul\":19690:19694   */\n      dup2\n        /* \"#utility.yul\":19687:19698   */\n      gt\n        /* \"#utility.yul\":19684:19721   */\n      iszero\n      tag_498\n      jumpi\n        /* \"#utility.yul\":19701:19719   */\n      tag_499\n      tag_305\n      jump\t// in\n    tag_499:\n        /* \"#utility.yul\":19684:19721   */\n    tag_498:\n        /* \"#utility.yul\":19534:19728   */\n      swap3\n      swap2\n      pop\n      pop\n      jump\t// out\n        /* \"#utility.yul\":19734:19914   */\n    tag_206:\n        /* \"#utility.yul\":19782:19859   */\n      0x4e487b7100000000000000000000000000000000000000000000000000000000\n        /* \"#utility.yul\":19779:19780   */\n      0x00\n        /* \"#utility.yul\":19772:19860   */\n      mstore\n        /* \"#utility.yul\":19879:19883   */\n      0x31\n        /* \"#utility.yul\":19876:19877   */\n      0x04\n        /* \"#utility.yul\":19869:19884   */\n      mstore\n        /* \"#utility.yul\":19903:19907   */\n      0x24\n        /* \"#utility.yul\":19900:19901   */\n      0x00\n        /* \"#utility.yul\":19893:19908   */\n      revert\n        /* \"#utility.yul\":19920:20153   */\n    tag_210:\n        /* \"#utility.yul\":19959:19962   */\n      0x00\n        /* \"#utility.yul\":19982:20006   */\n      tag_502\n        /* \"#utility.yul\":20000:20005   */\n      dup3\n        /* \"#utility.yul\":19982:20006   */\n      tag_260\n      jump\t// in\n    tag_502:\n        /* \"#utility.yul\":19973:20006   */\n      swap2\n      pop\n        /* \"#utility.yul\":20028:20094   */\n      0xffffffffffffffffffffffffffffffffffffffffffffffffffffffffffffffff\n        /* \"#utility.yul\":20021:20026   */\n      dup3\n        /* \"#utility.yul\":20018:20095   */\n      sub\n        /* \"#utility.yul\":20015:20118   */\n      tag_503\n      jumpi\n        /* \"#utility.yul\":20098:20116   */\n      tag_504\n      tag_305\n      jump\t// in\n    tag_504:\n        /* \"#utility.yul\":20015:20118   */\n    tag_503:\n        /* \"#utility.yul\":20145:20146   */\n      0x01\n        /* \"#utility.yul\":20138:20143   */\n      dup3\n        /* \"#utility.yul\":20134:20147   */\n      add\n        /* \"#utility.yul\":20127:20147   */\n      swap1\n      pop\n        /* \"#utility.yul\":19920:20153   */\n      swap2\n      swap1\n      pop\n      jump\t// out\n        /* \"#utility.yul\":20159:20238   */\n    tag_306:\n        /* \"#utility.yul\":20198:20205   */\n      0x00\n        /* \"#utility.yul\":20227:20232   */\n      dup2\n        /* \"#utility.yul\":20216:20232   */\n      swap1\n      pop\n        /* \"#utility.yul\":20159:20238   */\n      swap2\n      swap1\n      pop\n      jump\t// out\n        /* \"#utility.yul\":20244:20401   */\n    tag_307:\n        /* \"#utility.yul\":20349:20394   */\n      tag_507\n        /* \"#utility.yul\":20369:20393   */\n      tag_508\n        /* \"#utility.yul\":20387:20392   */\n      dup3\n        /* \"#utility.yul\":20369:20393   */\n      tag_260\n      jump\t// in\n    tag_508:\n        /* \"#utility.yul\":20349:20394   */\n      tag_306\n      jump\t// in\n    tag_507:\n        /* \"#utility.yul\":20344:20347   */\n      dup3\n        /* \"#utility.yul\":20337:20395   */\n      mstore\n        /* \"#utility.yul\":20244:20401   */\n      pop\n      pop\n      jump\t// out\n        /* \"#utility.yul\":20407:20501   */\n    tag_308:\n        /* \"#utility.yul\":20440:20448   */\n      0x00\n        /* \"#utility.yul\":20488:20493   */\n      dup2\n        /* \"#utility.yul\":20484:20486   */\n      0x60\n        /* \"#utility.yul\":20480:20494   */\n      shl\n        /* \"#utility.yul\":20459:20494   */\n      swap1\n      pop\n        /* \"#utility.yul\":20407:20501   */\n      swap2\n      swap1\n      pop\n      jump\t// out\n        /* \"#utility.yul\":20507:20601   */\n    tag_309:\n        /* \"#utility.yul\":20546:20553   */\n      0x00\n        /* \"#utility.yul\":20575:20595   */\n      tag_511\n        /* \"#utility.yul\":20589:20594   */\n      dup3\n        /* \"#utility.yul\":20575:20595   */\n      tag_308\n      jump\t// in\n    tag_511:\n        /* \"#utility.yul\":20564:20595   */\n      swap1\n      pop\n        /* \"#utility.yul\":20507:20601   */\n      swap2\n      swap1\n      pop\n      jump\t// out\n        /* \"#utility.yul\":20607:20707   */\n    tag_310:\n        /* \"#utility.yul\":20646:20653   */\n      0x00\n        /* \"#utility.yul\":20675:20701   */\n      tag_513\n        /* \"#utility.yul\":20695:20700   */\n      dup3\n        /* \"#utility.yul\":20675:20701   */\n      tag_309\n      jump\t// in\n    tag_513:\n        /* \"#utility.yul\":20664:20701   */\n      swap1\n      pop\n        /* \"#utility.yul\":20607:20707   */\n      swap2\n      swap1\n      pop\n      jump\t// out\n        /* \"#utility.yul\":20713:20870   */\n    tag_311:\n        /* \"#utility.yul\":20818:20863   */\n      tag_515\n        /* \"#utility.yul\":20838:20862   */\n      tag_516\n        /* \"#utility.yul\":20856:20861   */\n      dup3\n        /* \"#utility.yul\":20838:20862   */\n      tag_264\n      jump\t// in\n    tag_516:\n        /* \"#utility.yul\":20818:20863   */\n      tag_310\n      jump\t// in\n    tag_515:\n        /* \"#utility.yul\":20813:20816   */\n      dup3\n        /* \"#utility.yul\":20806:20864   */\n      mstore\n        /* \"#utility.yul\":20713:20870   */\n      pop\n      pop\n      jump\t// out\n        /* \"#utility.yul\":20876:21414   */\n    tag_212:\n        /* \"#utility.yul\":21044:21047   */\n      0x00\n        /* \"#utility.yul\":21059:21134   */\n      tag_518\n        /* \"#utility.yul\":21130:21133   */\n      dup3\n        /* \"#utility.yul\":21121:21127   */\n      dup7\n        /* \"#utility.yul\":21059:21134   */\n      tag_307\n      jump\t// in\n    tag_518:\n        /* \"#utility.yul\":21159:21161   */\n      0x20\n        /* \"#utility.yul\":21154:21157   */\n      dup3\n        /* \"#utility.yul\":21150:21162   */\n      add\n        /* \"#utility.yul\":21143:21162   */\n      swap2\n      pop\n        /* \"#utility.yul\":21172:21247   */\n      tag_519\n        /* \"#utility.yul\":21243:21246   */\n      dup3\n        /* \"#utility.yul\":21234:21240   */\n      dup6\n        /* \"#utility.yul\":21172:21247   */\n      tag_311\n      jump\t// in\n    tag_519:\n        /* \"#utility.yul\":21272:21274   */\n      0x14\n        /* \"#utility.yul\":21267:21270   */\n      dup3\n        /* \"#utility.yul\":21263:21275   */\n      add\n        /* \"#utility.yul\":21256:21275   */\n      swap2\n      pop\n        /* \"#utility.yul\":21285:21360   */\n      tag_520\n        /* \"#utility.yul\":21356:21359   */\n      dup3\n        /* \"#utility.yul\":21347:21353   */\n      dup5\n        /* \"#utility.yul\":21285:21360   */\n      tag_307\n      jump\t// in\n    tag_520:\n        /* \"#utility.yul\":21385:21387   */\n      0x20\n        /* \"#utility.yul\":21380:21383   */\n      dup3\n        /* \"#utility.yul\":21376:21388   */\n      add\n        /* \"#utility.yul\":21369:21388   */\n      swap2\n      pop\n        /* \"#utility.yul\":21405:21408   */\n      dup2\n        /* \"#utility.yul\":21398:21408   */\n      swap1\n      pop\n        /* \"#utility.yul\":20876:21414   */\n      swap5\n      swap4\n      pop\n      pop\n      pop\n      pop\n      jump\t// out\n        /* \"#utility.yul\":21420:21497   */\n    tag_312:\n        /* \"#utility.yul\":21457:21464   */\n      0x00\n        /* \"#utility.yul\":21486:21491   */\n      dup2\n        /* \"#utility.yul\":21475:21491   */\n      swap1\n      pop\n        /* \"#utility.yul\":21420:21497   */\n      swap2\n      swap1\n      pop\n      jump\t// out\n        /* \"#utility.yul\":21503:21621   */\n    tag_313:\n        /* \"#utility.yul\":21590:21614   */\n      tag_523\n        /* \"#utility.yul\":21608:21613   */\n      dup2\n        /* \"#utility.yul\":21590:21614   */\n      tag_312\n      jump\t// in\n    tag_523:\n        /* \"#utility.yul\":21585:21588   */\n      dup3\n        /* \"#utility.yul\":21578:21615   */\n      mstore\n        /* \"#utility.yul\":21503:21621   */\n      pop\n      pop\n      jump\t// out\n        /* \"#utility.yul\":21627:21728   */\n    tag_314:\n        /* \"#utility.yul\":21663:21670   */\n      0x00\n        /* \"#utility.yul\":21703:21721   */\n      0xffffffffffffffff\n        /* \"#utility.yul\":21696:21701   */\n      dup3\n        /* \"#utility.yul\":21692:21722   */\n      and\n        /* \"#utility.yul\":21681:21722   */\n      swap1\n      pop\n        /* \"#utility.yul\":21627:21728   */\n      swap2\n      swap1\n      pop\n      jump\t// out\n        /* \"#utility.yul\":21734:21849   */\n    tag_315:\n        /* \"#utility.yul\":21819:21842   */\n      tag_526\n        /* \"#utility.yul\":21836:21841   */\n      dup2\n        /* \"#utility.yul\":21819:21842   */\n      tag_314\n      jump\t// in\n    tag_526:\n        /* \"#utility.yul\":21814:21817   */\n      dup3\n        /* \"#utility.yul\":21807:21843   */\n      mstore\n        /* \"#utility.yul\":21734:21849   */\n      pop\n      pop\n      jump\t// out\n        /* \"#utility.yul\":21855:21944   */\n    tag_316:\n        /* \"#utility.yul\":21891:21898   */\n      0x00\n        /* \"#utility.yul\":21931:21937   */\n      0xffff\n        /* \"#utility.yul\":21924:21929   */\n      dup3\n        /* \"#utility.yul\":21920:21938   */\n      and\n        /* \"#utility.yul\":21909:21938   */\n      swap1\n      pop\n        /* \"#utility.yul\":21855:21944   */\n      swap2\n      swap1\n      pop\n      jump\t// out\n        /* \"#utility.yul\":21950:22065   */\n    tag_317:\n        /* \"#utility.yul\":22035:22058   */\n      tag_529\n        /* \"#utility.yul\":22052:22057   */\n      dup2\n        /* \"#utility.yul\":22035:22058   */\n      tag_316\n      jump\t// in\n    tag_529:\n        /* \"#utility.yul\":22030:22033   */\n      dup3\n        /* \"#utility.yul\":22023:22059   */\n      mstore\n        /* \"#utility.yul\":21950:22065   */\n      pop\n      pop\n      jump\t// out\n        /* \"#utility.yul\":22071:22164   */\n    tag_318:\n        /* \"#utility.yul\":22107:22114   */\n      0x00\n        /* \"#utility.yul\":22147:22157   */\n      0xffffffff\n        /* \"#utility.yul\":22140:22145   */\n      dup3\n        /* \"#utility.yul\":22136:22158   */\n      and\n        /* \"#utility.yul\":22125:22158   */\n      swap1\n      pop\n        /* \"#utility.yul\":22071:22164   */\n      swap2\n      swap1\n      pop\n      jump\t// out\n        /* \"#utility.yul\":22170:22285   */\n    tag_319:\n        /* \"#utility.yul\":22255:22278   */\n      tag_532\n        /* \"#utility.yul\":22272:22277   */\n      dup2\n        /* \"#utility.yul\":22255:22278   */\n      tag_318\n      jump\t// in\n    tag_532:\n        /* \"#utility.yul\":22250:22253   */\n      dup3\n        /* \"#utility.yul\":22243:22279   */\n      mstore\n        /* \"#utility.yul\":22170:22285   */\n      pop\n      pop\n      jump\t// out\n        /* \"#utility.yul\":22291:22939   */\n    tag_215:\n        /* \"#utility.yul\":22488:22492   */\n      0x00\n        /* \"#utility.yul\":22526:22529   */\n      0xa0\n        /* \"#utility.yul\":22515:22524   */\n      dup3\n        /* \"#utility.yul\":22511:22530   */\n      add\n        /* \"#utility.yul\":22503:22530   */\n      swap1\n      pop\n        /* \"#utility.yul\":22540:22611   */\n      tag_534\n        /* \"#utility.yul\":22608:22609   */\n      0x00\n        /* \"#utility.yul\":22597:22606   */\n      dup4\n        /* \"#utility.yul\":22593:22610   */\n      add\n        /* \"#utility.yul\":22584:22590   */\n      dup9\n        /* \"#utility.yul\":22540:22611   */\n      tag_313\n      jump\t// in\n    tag_534:\n        /* \"#utility.yul\":22621:22691   */\n      tag_535\n        /* \"#utility.yul\":22687:22689   */\n      0x20\n        /* \"#utility.yul\":22676:22685   */\n      dup4\n        /* \"#utility.yul\":22672:22690   */\n      add\n        /* \"#utility.yul\":22663:22669   */\n      dup8\n        /* \"#utility.yul\":22621:22691   */\n      tag_315\n      jump\t// in\n    tag_535:\n        /* \"#utility.yul\":22701:22771   */\n      tag_536\n        /* \"#utility.yul\":22767:22769   */\n      0x40\n        /* \"#utility.yul\":22756:22765   */\n      dup4\n        /* \"#utility.yul\":22752:22770   */\n      add\n        /* \"#utility.yul\":22743:22749   */\n      dup7\n        /* \"#utility.yul\":22701:22771   */\n      tag_317\n      jump\t// in\n    tag_536:\n        /* \"#utility.yul\":22781:22851   */\n      tag_537\n        /* \"#utility.yul\":22847:22849   */\n      0x60\n        /* \"#utility.yul\":22836:22845   */\n      dup4\n        /* \"#utility.yul\":22832:22850   */\n      add\n        /* \"#utility.yul\":22823:22829   */\n      dup6\n        /* \"#utility.yul\":22781:22851   */\n      tag_319\n      jump\t// in\n    tag_537:\n        /* \"#utility.yul\":22861:22932   */\n      tag_538\n        /* \"#utility.yul\":22927:22930   */\n      0x80\n        /* \"#utility.yul\":22916:22925   */\n      dup4\n        /* \"#utility.yul\":22912:22931   */\n      add\n        /* \"#utility.yul\":22903:22909   */\n      dup5\n        /* \"#utility.yul\":22861:22932   */\n      tag_319\n      jump\t// in\n    tag_538:\n        /* \"#utility.yul\":22291:22939   */\n      swap7\n      swap6\n      pop\n      pop\n      pop\n      pop\n      pop\n      pop\n      jump\t// out\n        /* \"#utility.yul\":22945:23088   */\n    tag_320:\n        /* \"#utility.yul\":23002:23007   */\n      0x00\n        /* \"#utility.yul\":23033:23039   */\n      dup2\n        /* \"#utility.yul\":23027:23040   */\n      mload\n        /* \"#utility.yul\":23018:23040   */\n      swap1\n      pop\n        /* \"#utility.yul\":23049:23082   */\n      tag_540\n        /* \"#utility.yul\":23076:23081   */\n      dup2\n        /* \"#utility.yul\":23049:23082   */\n      tag_261\n      jump\t// in\n    tag_540:\n        /* \"#utility.yul\":22945:23088   */\n      swap3\n      swap2\n      pop\n      pop\n      jump\t// out\n        /* \"#utility.yul\":23094:23445   */\n    tag_219:\n        /* \"#utility.yul\":23164:23170   */\n      0x00\n        /* \"#utility.yul\":23213:23215   */\n      0x20\n        /* \"#utility.yul\":23201:23210   */\n      dup3\n        /* \"#utility.yul\":23192:23199   */\n      dup5\n        /* \"#utility.yul\":23188:23211   */\n      sub\n        /* \"#utility.yul\":23184:23216   */\n      slt\n        /* \"#utility.yul\":23181:23300   */\n      iszero\n      tag_542\n      jumpi\n        /* \"#utility.yul\":23219:23298   */\n      tag_543\n      tag_258\n      jump\t// in\n    tag_543:\n        /* \"#utility.yul\":23181:23300   */\n    tag_542:\n        /* \"#utility.yul\":23339:23340   */\n      0x00\n        /* \"#utility.yul\":23364:23428   */\n      tag_544\n        /* \"#utility.yul\":23420:23427   */\n      dup5\n        /* \"#utility.yul\":23411:23417   */\n      dup3\n        /* \"#utility.yul\":23400:23409   */\n      dup6\n        /* \"#utility.yul\":23396:23418   */\n      add\n        /* \"#utility.yul\":23364:23428   */\n      tag_320\n      jump\t// in\n    tag_544:\n        /* \"#utility.yul\":23354:23428   */\n      swap2\n      pop\n        /* \"#utility.yul\":23310:23438   */\n      pop\n        /* \"#utility.yul\":23094:23445   */\n      swap3\n      swap2\n      pop\n      pop\n      jump\t// out\n        /* \"#utility.yul\":23451:23779   */\n    tag_227:\n        /* \"#utility.yul\":23570:23574   */\n      0x00\n        /* \"#utility.yul\":23608:23610   */\n      0x40\n        /* \"#utility.yul\":23597:23606   */\n      dup3\n        /* \"#utility.yul\":23593:23611   */\n      add\n        /* \"#utility.yul\":23585:23611   */\n      swap1\n      pop\n        /* \"#utility.yul\":23621:23692   */\n      tag_546\n        /* \"#utility.yul\":23689:23690   */\n      0x00\n        /* \"#utility.yul\":23678:23687   */\n      dup4\n        /* \"#utility.yul\":23674:23691   */\n      add\n        /* \"#utility.yul\":23665:23671   */\n      dup6\n        /* \"#utility.yul\":23621:23692   */\n      tag_266\n      jump\t// in\n    tag_546:\n        /* \"#utility.yul\":23702:23772   */\n      tag_547\n        /* \"#utility.yul\":23768:23770   */\n      0x20\n        /* \"#utility.yul\":23757:23766   */\n      dup4\n        /* \"#utility.yul\":23753:23771   */\n      add\n        /* \"#utility.yul\":23744:23750   */\n      dup5\n        /* \"#utility.yul\":23702:23772   */\n      tag_319\n      jump\t// in\n    tag_547:\n        /* \"#utility.yul\":23451:23779   */\n      swap4\n      swap3\n      pop\n      pop\n      pop\n      jump\t// out\n        /* \"#utility.yul\":23785:23958   */\n    tag_321:\n        /* \"#utility.yul\":23925:23950   */\n      0x43616e6e6f74207472616e7366657220746f2073656c66000000000000000000\n        /* \"#utility.yul\":23921:23922   */\n      0x00\n        /* \"#utility.yul\":23913:23919   */\n      dup3\n        /* \"#utility.yul\":23909:23923   */\n      add\n        /* \"#utility.yul\":23902:23951   */\n      mstore\n        /* \"#utility.yul\":23785:23958   */\n      pop\n      jump\t// out\n        /* \"#utility.yul\":23964:24330   */\n    tag_322:\n        /* \"#utility.yul\":24106:24109   */\n      0x00\n        /* \"#utility.yul\":24127:24194   */\n      tag_550\n        /* \"#utility.yul\":24191:24193   */\n      0x17\n        /* \"#utility.yul\":24186:24189   */\n      dup4\n        /* \"#utility.yul\":24127:24194   */\n      tag_286\n      jump\t// in\n    tag_550:\n        /* \"#utility.yul\":24120:24194   */\n      swap2\n      pop\n        /* \"#utility.yul\":24203:24296   */\n      tag_551\n        /* \"#utility.yul\":24292:24295   */\n      dup3\n        /* \"#utility.yul\":24203:24296   */\n      tag_321\n      jump\t// in\n    tag_551:\n        /* \"#utility.yul\":24321:24323   */\n      0x20\n        /* \"#utility.yul\":24316:24319   */\n      dup3\n        /* \"#utility.yul\":24312:24324   */\n      add\n        /* \"#utility.yul\":24305:24324   */\n      swap1\n      pop\n        /* \"#utility.yul\":23964:24330   */\n      swap2\n      swap1\n      pop\n      jump\t// out\n        /* \"#utility.yul\":24336:24755   */\n    tag_231:\n        /* \"#utility.yul\":24502:24506   */\n      0x00\n        /* \"#utility.yul\":24540:24542   */\n      0x20\n        /* \"#utility.yul\":24529:24538   */\n      dup3\n        /* \"#utility.yul\":24525:24543   */\n      add\n        /* \"#utility.yul\":24517:24543   */\n      swap1\n      pop\n        /* \"#utility.yul\":24589:24598   */\n      dup2\n        /* \"#utility.yul\":24583:24587   */\n      dup2\n        /* \"#utility.yul\":24579:24599   */\n      sub\n        /* \"#utility.yul\":24575:24576   */\n      0x00\n        /* \"#utility.yul\":24564:24573   */\n      dup4\n        /* \"#utility.yul\":24560:24577   */\n      add\n        /* \"#utility.yul\":24553:24600   */\n      mstore\n        /* \"#utility.yul\":24617:24748   */\n      tag_553\n        /* \"#utility.yul\":24743:24747   */\n      dup2\n        /* \"#utility.yul\":24617:24748   */\n      tag_322\n      jump\t// in\n    tag_553:\n        /* \"#utility.yul\":24609:24748   */\n      swap1\n      pop\n        /* \"#utility.yul\":24336:24755   */\n      swap2\n      swap1\n      pop\n      jump\t// out\n        /* \"#utility.yul\":24761:24936   */\n    tag_323:\n        /* \"#utility.yul\":24901:24928   */\n      0x47616d6520697320616c726561647920636f6d706c6574656400000000000000\n        /* \"#utility.yul\":24897:24898   */\n      0x00\n        /* \"#utility.yul\":24889:24895   */\n      dup3\n        /* \"#utility.yul\":24885:24899   */\n      add\n        /* \"#utility.yul\":24878:24929   */\n      mstore\n        /* \"#utility.yul\":24761:24936   */\n      pop\n      jump\t// out\n        /* \"#utility.yul\":24942:25308   */\n    tag_324:\n        /* \"#utility.yul\":25084:25087   */\n      0x00\n        /* \"#utility.yul\":25105:25172   */\n      tag_556\n        /* \"#utility.yul\":25169:25171   */\n      0x19\n        /* \"#utility.yul\":25164:25167   */\n      dup4\n        /* \"#utility.yul\":25105:25172   */\n      tag_286\n      jump\t// in\n    tag_556:\n        /* \"#utility.yul\":25098:25172   */\n      swap2\n      pop\n        /* \"#utility.yul\":25181:25274   */\n      tag_557\n        /* \"#utility.yul\":25270:25273   */\n      dup3\n        /* \"#utility.yul\":25181:25274   */\n      tag_323\n      jump\t// in\n    tag_557:\n        /* \"#utility.yul\":25299:25301   */\n      0x20\n        /* \"#utility.yul\":25294:25297   */\n      dup3\n        /* \"#utility.yul\":25290:25302   */\n      add\n        /* \"#utility.yul\":25283:25302   */\n      swap1\n      pop\n        /* \"#utility.yul\":24942:25308   */\n      swap2\n      swap1\n      pop\n      jump\t// out\n        /* \"#utility.yul\":25314:25733   */\n    tag_235:\n        /* \"#utility.yul\":25480:25484   */\n      0x00\n        /* \"#utility.yul\":25518:25520   */\n      0x20\n        /* \"#utility.yul\":25507:25516   */\n      dup3\n        /* \"#utility.yul\":25503:25521   */\n      add\n        /* \"#utility.yul\":25495:25521   */\n      swap1\n      pop\n        /* \"#utility.yul\":25567:25576   */\n      dup2\n        /* \"#utility.yul\":25561:25565   */\n      dup2\n        /* \"#utility.yul\":25557:25577   */\n      sub\n        /* \"#utility.yul\":25553:25554   */\n      0x00\n        /* \"#utility.yul\":25542:25551   */\n      dup4\n        /* \"#utility.yul\":25538:25555   */\n      add\n        /* \"#utility.yul\":25531:25578   */\n      mstore\n        /* \"#utility.yul\":25595:25726   */\n      tag_559\n        /* \"#utility.yul\":25721:25725   */\n      dup2\n        /* \"#utility.yul\":25595:25726   */\n      tag_324\n      jump\t// in\n    tag_559:\n        /* \"#utility.yul\":25587:25726   */\n      swap1\n      pop\n        /* \"#utility.yul\":25314:25733   */\n      swap2\n      swap1\n      pop\n      jump\t// out\n        /* \"#utility.yul\":25739:25902   */\n    tag_325:\n        /* \"#utility.yul\":25856:25867   */\n      0x00\n        /* \"#utility.yul\":25893:25896   */\n      dup2\n        /* \"#utility.yul\":25878:25896   */\n      swap1\n      pop\n        /* \"#utility.yul\":25739:25902   */\n      swap3\n      swap2\n      pop\n      pop\n      jump\t// out\n        /* \"#utility.yul\":25908:26024   */\n    tag_326:\n        /* \"#utility.yul\":25993:26017   */\n      tag_562\n        /* \"#utility.yul\":26011:26016   */\n      dup2\n        /* \"#utility.yul\":25993:26017   */\n      tag_260\n      jump\t// in\n    tag_562:\n        /* \"#utility.yul\":25988:25991   */\n      dup3\n        /* \"#utility.yul\":25981:26018   */\n      mstore\n        /* \"#utility.yul\":25908:26024   */\n      pop\n      pop\n      jump\t// out\n        /* \"#utility.yul\":26030:26225   */\n    tag_327:\n        /* \"#utility.yul\":26107:26117   */\n      0x00\n        /* \"#utility.yul\":26128:26182   */\n      tag_564\n        /* \"#utility.yul\":26178:26181   */\n      dup4\n        /* \"#utility.yul\":26170:26176   */\n      dup4\n        /* \"#utility.yul\":26128:26182   */\n      tag_326\n      jump\t// in\n    tag_564:\n        /* \"#utility.yul\":26214:26218   */\n      0x20\n        /* \"#utility.yul\":26209:26212   */\n      dup4\n        /* \"#utility.yul\":26205:26219   */\n      add\n        /* \"#utility.yul\":26191:26219   */\n      swap1\n      pop\n        /* \"#utility.yul\":26030:26225   */\n      swap3\n      swap2\n      pop\n      pop\n      jump\t// out\n        /* \"#utility.yul\":26261:27037   */\n    tag_328:\n        /* \"#utility.yul\":26398:26401   */\n      0x00\n        /* \"#utility.yul\":26427:26481   */\n      tag_566\n        /* \"#utility.yul\":26475:26480   */\n      dup3\n        /* \"#utility.yul\":26427:26481   */\n      tag_277\n      jump\t// in\n    tag_566:\n        /* \"#utility.yul\":26497:26601   */\n      tag_567\n        /* \"#utility.yul\":26594:26600   */\n      dup2\n        /* \"#utility.yul\":26589:26592   */\n      dup6\n        /* \"#utility.yul\":26497:26601   */\n      tag_325\n      jump\t// in\n    tag_567:\n        /* \"#utility.yul\":26490:26601   */\n      swap4\n      pop\n        /* \"#utility.yul\":26625:26681   */\n      tag_568\n        /* \"#utility.yul\":26675:26680   */\n      dup4\n        /* \"#utility.yul\":26625:26681   */\n      tag_279\n      jump\t// in\n    tag_568:\n        /* \"#utility.yul\":26704:26711   */\n      dup1\n        /* \"#utility.yul\":26735:26736   */\n      0x00\n        /* \"#utility.yul\":26720:27012   */\n    tag_569:\n        /* \"#utility.yul\":26745:26751   */\n      dup4\n        /* \"#utility.yul\":26742:26743   */\n      dup2\n        /* \"#utility.yul\":26739:26752   */\n      lt\n        /* \"#utility.yul\":26720:27012   */\n      iszero\n      tag_571\n      jumpi\n        /* \"#utility.yul\":26821:26827   */\n      dup2\n        /* \"#utility.yul\":26815:26828   */\n      mload\n        /* \"#utility.yul\":26848:26919   */\n      tag_572\n        /* \"#utility.yul\":26915:26918   */\n      dup9\n        /* \"#utility.yul\":26900:26913   */\n      dup3\n        /* \"#utility.yul\":26848:26919   */\n      tag_327\n      jump\t// in\n    tag_572:\n        /* \"#utility.yul\":26841:26919   */\n      swap8\n      pop\n        /* \"#utility.yul\":26942:27002   */\n      tag_573\n        /* \"#utility.yul\":26995:27001   */\n      dup4\n        /* \"#utility.yul\":26942:27002   */\n      tag_282\n      jump\t// in\n    tag_573:\n        /* \"#utility.yul\":26932:27002   */\n      swap3\n      pop\n        /* \"#utility.yul\":26780:27012   */\n      pop\n        /* \"#utility.yul\":26767:26768   */\n      0x01\n        /* \"#utility.yul\":26764:26765   */\n      dup2\n        /* \"#utility.yul\":26760:26769   */\n      add\n        /* \"#utility.yul\":26755:26769   */\n      swap1\n      pop\n        /* \"#utility.yul\":26720:27012   */\n      jump(tag_569)\n    tag_571:\n        /* \"#utility.yul\":26724:26738   */\n      pop\n        /* \"#utility.yul\":27028:27031   */\n      dup6\n        /* \"#utility.yul\":27021:27031   */\n      swap4\n      pop\n        /* \"#utility.yul\":26403:27037   */\n      pop\n      pop\n      pop\n        /* \"#utility.yul\":26261:27037   */\n      swap3\n      swap2\n      pop\n      pop\n      jump\t// out\n        /* \"#utility.yul\":27043:27378   */\n    tag_237:\n        /* \"#utility.yul\":27205:27208   */\n      0x00\n        /* \"#utility.yul\":27227:27352   */\n      tag_575\n        /* \"#utility.yul\":27348:27351   */\n      dup3\n        /* \"#utility.yul\":27339:27345   */\n      dup5\n        /* \"#utility.yul\":27227:27352   */\n      tag_328\n      jump\t// in\n    tag_575:\n        /* \"#utility.yul\":27220:27352   */\n      swap2\n      pop\n        /* \"#utility.yul\":27369:27372   */\n      dup2\n        /* \"#utility.yul\":27362:27372   */\n      swap1\n      pop\n        /* \"#utility.yul\":27043:27378   */\n      swap3\n      swap2\n      pop\n      pop\n      jump\t// out\n        /* \"#utility.yul\":27384:27564   */\n    tag_329:\n        /* \"#utility.yul\":27432:27509   */\n      0x4e487b7100000000000000000000000000000000000000000000000000000000\n        /* \"#utility.yul\":27429:27430   */\n      0x00\n        /* \"#utility.yul\":27422:27510   */\n      mstore\n        /* \"#utility.yul\":27529:27533   */\n      0x12\n        /* \"#utility.yul\":27526:27527   */\n      0x04\n        /* \"#utility.yul\":27519:27534   */\n      mstore\n        /* \"#utility.yul\":27553:27557   */\n      0x24\n        /* \"#utility.yul\":27550:27551   */\n      0x00\n        /* \"#utility.yul\":27543:27558   */\n      revert\n        /* \"#utility.yul\":27570:27746   */\n    tag_239:\n        /* \"#utility.yul\":27602:27603   */\n      0x00\n        /* \"#utility.yul\":27619:27639   */\n      tag_578\n        /* \"#utility.yul\":27637:27638   */\n      dup3\n        /* \"#utility.yul\":27619:27639   */\n      tag_260\n      jump\t// in\n    tag_578:\n        /* \"#utility.yul\":27614:27639   */\n      swap2\n      pop\n        /* \"#utility.yul\":27653:27673   */\n      tag_579\n        /* \"#utility.yul\":27671:27672   */\n      dup4\n        /* \"#utility.yul\":27653:27673   */\n      tag_260\n      jump\t// in\n    tag_579:\n        /* \"#utility.yul\":27648:27673   */\n      swap3\n      pop\n        /* \"#utility.yul\":27692:27693   */\n      dup3\n        /* \"#utility.yul\":27682:27717   */\n      tag_580\n      jumpi\n        /* \"#utility.yul\":27697:27715   */\n      tag_581\n      tag_329\n      jump\t// in\n    tag_581:\n        /* \"#utility.yul\":27682:27717   */\n    tag_580:\n        /* \"#utility.yul\":27738:27739   */\n      dup3\n        /* \"#utility.yul\":27735:27736   */\n      dup3\n        /* \"#utility.yul\":27731:27740   */\n      mod\n        /* \"#utility.yul\":27726:27740   */\n      swap1\n      pop\n        /* \"#utility.yul\":27570:27746   */\n      swap3\n      swap2\n      pop\n      pop\n      jump\t// out\n        /* \"#utility.yul\":27752:28162   */\n    tag_249:\n        /* \"#utility.yul\":27792:27799   */\n      0x00\n        /* \"#utility.yul\":27815:27835   */\n      tag_583\n        /* \"#utility.yul\":27833:27834   */\n      dup3\n        /* \"#utility.yul\":27815:27835   */\n      tag_260\n      jump\t// in\n    tag_583:\n        /* \"#utility.yul\":27810:27835   */\n      swap2\n      pop\n        /* \"#utility.yul\":27849:27869   */\n      tag_584\n        /* \"#utility.yul\":27867:27868   */\n      dup4\n        /* \"#utility.yul\":27849:27869   */\n      tag_260\n      jump\t// in\n    tag_584:\n        /* \"#utility.yul\":27844:27869   */\n      swap3\n      pop\n        /* \"#utility.yul\":27904:27905   */\n      dup3\n        /* \"#utility.yul\":27901:27902   */\n      dup3\n        /* \"#utility.yul\":27897:27906   */\n      mul\n        /* \"#utility.yul\":27926:27956   */\n      tag_585\n        /* \"#utility.yul\":27944:27955   */\n      dup2\n        /* \"#utility.yul\":27926:27956   */\n      tag_260\n      jump\t// in\n    tag_585:\n        /* \"#utility.yul\":27915:27956   */\n      swap2\n      pop\n        /* \"#utility.yul\":28105:28106   */\n      dup3\n        /* \"#utility.yul\":28096:28103   */\n      dup3\n        /* \"#utility.yul\":28092:28107   */\n      div\n        /* \"#utility.yul\":28089:28090   */\n      dup5\n        /* \"#utility.yul\":28086:28108   */\n      eq\n        /* \"#utility.yul\":28066:28067   */\n      dup4\n        /* \"#utility.yul\":28059:28068   */\n      iszero\n        /* \"#utility.yul\":28039:28122   */\n      or\n        /* \"#utility.yul\":28016:28155   */\n      tag_586\n      jumpi\n        /* \"#utility.yul\":28135:28153   */\n      tag_587\n      tag_305\n      jump\t// in\n    tag_587:\n        /* \"#utility.yul\":28016:28155   */\n    tag_586:\n        /* \"#utility.yul\":27800:28162   */\n      pop\n        /* \"#utility.yul\":27752:28162   */\n      swap3\n      swap2\n      pop\n      pop\n      jump\t// out\n\n    auxdata: 0xa2646970667358221220f7d8966cc0503266edeeb90ecab62246f2a73893885a9b2f66c12339d480170c64736f6c63430008160033\n}\n",
				"bytecode": {
					"linkReferences": {},
					"object": "60a060405260016002557f354d2f95da55398f44b7cff77da56283d9c6c829a4bdf1bbcaf2ad6a4d081f615f1b600655620186a060075f6101000a81548163ffffffff021916908363ffffffff1602179055506003600760046101000a81548161ffff021916908361ffff1602179055506001600760066101000a81548163ffffffff021916908363ffffffff1602179055503480156200009e575f80fd5b5060405162002d4838038062002d488339818101604052810190620000c491906200040f565b33805f732ed832ba664535e5886b75d64c46eb9a228c26108073ffffffffffffffffffffffffffffffffffffffff1660808173ffffffffffffffffffffffffffffffffffffffff1681525050505f73ffffffffffffffffffffffffffffffffffffffff168273ffffffffffffffffffffffffffffffffffffffff160362000182576040517f08c379a000000000000000000000000000000000000000000000000000000000815260040162000179906200049d565b60405180910390fd5b815f806101000a81548173ffffffffffffffffffffffffffffffffffffffff021916908373ffffffffffffffffffffffffffffffffffffffff1602179055505f73ffffffffffffffffffffffffffffffffffffffff168173ffffffffffffffffffffffffffffffffffffffff1614620002075762000206816200029c60201b60201c565b5b505050732ed832ba664535e5886b75d64c46eb9a228c261060095f6101000a81548173ffffffffffffffffffffffffffffffffffffffff021916908373ffffffffffffffffffffffffffffffffffffffff1602179055508060035f6101000a81548167ffffffffffffffff021916908367ffffffffffffffff16021790555067016345785d8a0000600d81905550506200052b565b3373ffffffffffffffffffffffffffffffffffffffff168173ffffffffffffffffffffffffffffffffffffffff16036200030d576040517f08c379a000000000000000000000000000000000000000000000000000000000815260040162000304906200050b565b60405180910390fd5b8060015f6101000a81548173ffffffffffffffffffffffffffffffffffffffff021916908373ffffffffffffffffffffffffffffffffffffffff1602179055508073ffffffffffffffffffffffffffffffffffffffff165f8054906101000a900473ffffffffffffffffffffffffffffffffffffffff1673ffffffffffffffffffffffffffffffffffffffff167fed8889f560326eb138920d842192f0eb3dd22b4f139c87a2c57538e05bae127860405160405180910390a350565b5f80fd5b5f67ffffffffffffffff82169050919050565b620003eb81620003cd565b8114620003f6575f80fd5b50565b5f815190506200040981620003e0565b92915050565b5f60208284031215620004275762000426620003c9565b5b5f6200043684828501620003f9565b91505092915050565b5f82825260208201905092915050565b7f43616e6e6f7420736574206f776e657220746f207a65726f00000000000000005f82015250565b5f620004856018836200043f565b915062000492826200044f565b602082019050919050565b5f6020820190508181035f830152620004b68162000477565b9050919050565b7f43616e6e6f74207472616e7366657220746f2073656c660000000000000000005f82015250565b5f620004f36017836200043f565b91506200050082620004bd565b602082019050919050565b5f6020820190508181035f8301526200052481620004e5565b9050919050565b6080516127fd6200054b5f395f81816104a301526104f701526127fd5ff3fe6080604052600436106100fd575f3560e01c80638ee6747211610094578063d8a4676f11610063578063d8a4676f1461033e578063e5ed1d591461037b578063efaa55a014610397578063f2fde38b146103b3578063fc2a88c3146103db576100fd565b80638ee674721461025f578063a168fa891461029b578063b19068c7146102d8578063b4a91e1e14610302576100fd565b806379ba5097116100d057806379ba5097146101bb5780637f7f8968146101d15780638796ba8c146101f95780638da5cb5b14610235576100fd565b8063117a5b90146101015780631fe543e3146101415780636916c9b01461016957806369958ab914610193575b5f80fd5b34801561010c575f80fd5b5061012760048036038101906101229190611a76565b610405565b604051610138959493929190611b09565b60405180910390f35b34801561014c575f80fd5b5061016760048036038101906101629190611caa565b6104a1565b005b348015610174575f80fd5b5061017d610561565b60405161018a9190611dbb565b60405180910390f35b34801561019e575f80fd5b506101b960048036038101906101b49190611a76565b6105b7565b005b3480156101c6575f80fd5b506101cf610889565b005b3480156101dc575f80fd5b506101f760048036038101906101f29190611a76565b610a18565b005b348015610204575f80fd5b5061021f600480360381019061021a9190611a76565b610a2a565b60405161022c9190611ddb565b60405180910390f35b348015610240575f80fd5b50610249610a4a565b6040516102569190611df4565b60405180910390f35b34801561026a575f80fd5b5061028560048036038101906102809190611a76565b610a71565b6040516102929190611ddb565b60405180910390f35b3480156102a6575f80fd5b506102c160048036038101906102bc9190611a76565b610a91565b6040516102cf929190611e0d565b60405180910390f35b3480156102e3575f80fd5b506102ec610ac9565b6040516102f99190611ddb565b60405180910390f35b34801561030d575f80fd5b5061032860048036038101906103239190611a76565b610acf565b6040516103359190611ddb565b60405180910390f35b348015610349575f80fd5b50610364600480360381019061035f9190611a76565b610ae4565b604051610372929190611e34565b60405180910390f35b61039560048036038101906103909190611a76565b610c02565b005b6103b160048036038101906103ac9190611a76565b610e44565b005b3480156103be575f80fd5b506103d960048036038101906103d49190611e8c565b61114c565b005b3480156103e6575f80fd5b506103ef611160565b6040516103fc9190611ddb565b60405180910390f35b600a602052805f5260405f205f91509050805f015f9054906101000a900473ffffffffffffffffffffffffffffffffffffffff1690806001015f9054906101000a900473ffffffffffffffffffffffffffffffffffffffff1690806002015490806003015f9054906101000a900460ff16908060030160019054906101000a900473ffffffffffffffffffffffffffffffffffffffff16905085565b7f000000000000000000000000000000000000000000000000000000000000000073ffffffffffffffffffffffffffffffffffffffff163373ffffffffffffffffffffffffffffffffffffffff161461055357337f00000000000000000000000000000000000000000000000000000000000000006040517f1cf993f400000000000000000000000000000000000000000000000000000000815260040161054a929190611eb7565b60405180910390fd5b61055d8282611166565b5050565b6060600c8054806020026020016040519081016040528092919081815260200182805480156105ad57602002820191905f5260205f20905b815481526020019060010190808311610599575b5050505050905090565b6105bf611277565b5f600a5f8381526020019081526020015f2090505f73ffffffffffffffffffffffffffffffffffffffff16815f015f9054906101000a900473ffffffffffffffffffffffffffffffffffffffff1673ffffffffffffffffffffffffffffffffffffffff1603610663576040517f08c379a000000000000000000000000000000000000000000000000000000000815260040161065a90611f38565b60405180910390fd5b806003015f9054906101000a900460ff16156106b4576040517f08c379a00000000000000000000000000000000000000000000000000000000081526004016106ab90611fa0565b60405180910390fd5b5f73ffffffffffffffffffffffffffffffffffffffff16816001015f9054906101000a900473ffffffffffffffffffffffffffffffffffffffff1673ffffffffffffffffffffffffffffffffffffffff1614610745576040517f08c379a000000000000000000000000000000000000000000000000000000000815260040161073c90612008565b60405180910390fd5b805f015f9054906101000a900473ffffffffffffffffffffffffffffffffffffffff1673ffffffffffffffffffffffffffffffffffffffff166108fc826002015490811502906040515f60405180830381858888f193505050501580156107ae573d5f803e3d5ffd5b506107b882611306565b600a5f8381526020019081526020015f205f8082015f6101000a81549073ffffffffffffffffffffffffffffffffffffffff0219169055600182015f6101000a81549073ffffffffffffffffffffffffffffffffffffffff0219169055600282015f9055600382015f6101000a81549060ff02191690556003820160016101000a81549073ffffffffffffffffffffffffffffffffffffffff02191690555050817f681705fdbd93dba3b679fd712577e9a86d57c5551c520f8c74857deb57f9623f60405160405180910390a25050565b60015f9054906101000a900473ffffffffffffffffffffffffffffffffffffffff1673ffffffffffffffffffffffffffffffffffffffff163373ffffffffffffffffffffffffffffffffffffffff1614610918576040517f08c379a000000000000000000000000000000000000000000000000000000000815260040161090f90612070565b60405180910390fd5b5f805f9054906101000a900473ffffffffffffffffffffffffffffffffffffffff169050335f806101000a81548173ffffffffffffffffffffffffffffffffffffffff021916908373ffffffffffffffffffffffffffffffffffffffff1602179055505f60015f6101000a81548173ffffffffffffffffffffffffffffffffffffffff021916908373ffffffffffffffffffffffffffffffffffffffff1602179055503373ffffffffffffffffffffffffffffffffffffffff168173ffffffffffffffffffffffffffffffffffffffff167f8be0079c531659141344cd1fd0a4f28419497f9722a3daafe3b4186f6b6457e060405160405180910390a350565b610a20611277565b80600d8190555050565b60048181548110610a39575f80fd5b905f5260205f20015f915090505481565b5f805f9054906101000a900473ffffffffffffffffffffffffffffffffffffffff16905090565b600c8181548110610a80575f80fd5b905f5260205f20015f915090505481565b6008602052805f5260405f205f91509050805f015f9054906101000a900460ff1690805f0160019054906101000a900460ff16905082565b600d5481565b600b602052805f5260405f205f915090505481565b5f606060085f8481526020019081526020015f205f0160019054906101000a900460ff16610b47576040517f08c379a0000000000000000000000000000000000000000000000000000000008152600401610b3e906120d8565b60405180910390fd5b5f60085f8581526020019081526020015f206040518060600160405290815f82015f9054906101000a900460ff161515151581526020015f820160019054906101000a900460ff1615151515815260200160018201805480602002602001604051908101604052809291908181526020018280548015610be457602002820191905f5260205f20905b815481526020019060010190808311610bd0575b5050505050815250509050805f015181604001519250925050915091565b600d54341015610c47576040517f08c379a0000000000000000000000000000000000000000000000000000000008152600401610c3e90612166565b60405180910390fd5b5f610c506113c1565b90506040518060a001604052803373ffffffffffffffffffffffffffffffffffffffff1681526020015f73ffffffffffffffffffffffffffffffffffffffff1681526020018381526020015f151581526020015f73ffffffffffffffffffffffffffffffffffffffff16815250600a5f8381526020019081526020015f205f820151815f015f6101000a81548173ffffffffffffffffffffffffffffffffffffffff021916908373ffffffffffffffffffffffffffffffffffffffff1602179055506020820151816001015f6101000a81548173ffffffffffffffffffffffffffffffffffffffff021916908373ffffffffffffffffffffffffffffffffffffffff160217905550604082015181600201556060820151816003015f6101000a81548160ff02191690831515021790555060808201518160030160016101000a81548173ffffffffffffffffffffffffffffffffffffffff021916908373ffffffffffffffffffffffffffffffffffffffff160217905550905050600c81908060018154018082558091505060019003905f5260205f20015f90919091909150553373ffffffffffffffffffffffffffffffffffffffff16817f0c82908456d66c43e9de63edd66f9faf875c8f3a12f936e162d675ec42c3544484604051610e389190611ddb565b60405180910390a35050565b5f600a5f8381526020019081526020015f209050806003015f9054906101000a900460ff1615610ea9576040517f08c379a0000000000000000000000000000000000000000000000000000000008152600401610ea090611fa0565b60405180910390fd5b5f73ffffffffffffffffffffffffffffffffffffffff16816001015f9054906101000a900473ffffffffffffffffffffffffffffffffffffffff1673ffffffffffffffffffffffffffffffffffffffff1614610f3a576040517f08c379a0000000000000000000000000000000000000000000000000000000008152600401610f3190612008565b60405180910390fd5b80600201543414610f80576040517f08c379a0000000000000000000000000000000000000000000000000000000008152600401610f77906121ce565b60405180910390fd5b5f73ffffffffffffffffffffffffffffffffffffffff16815f015f9054906101000a900473ffffffffffffffffffffffffffffffffffffffff1673ffffffffffffffffffffffffffffffffffffffff1603611010576040517f08c379a000000000000000000000000000000000000000000000000000000000815260040161100790611f38565b60405180910390fd5b805f015f9054906101000a900473ffffffffffffffffffffffffffffffffffffffff1673ffffffffffffffffffffffffffffffffffffffff163373ffffffffffffffffffffffffffffffffffffffff16036110a0576040517f08c379a000000000000000000000000000000000000000000000000000000000815260040161109790612236565b60405180910390fd5b33816001015f6101000a81548173ffffffffffffffffffffffffffffffffffffffff021916908373ffffffffffffffffffffffffffffffffffffffff1602179055505f6110eb611409565b905082600b5f8381526020019081526020015f20819055503373ffffffffffffffffffffffffffffffffffffffff16837f87969bc7faf902221a147b95ceba76e011c5efb0339a0a8ee7a2bb82d9cfbbd660405160405180910390a3505050565b611154611277565b61115d81611648565b50565b60055481565b60085f8381526020019081526020015f205f0160019054906101000a900460ff166111c6576040517f08c379a00000000000000000000000000000000000000000000000000000000081526004016111bd906120d8565b60405180910390fd5b600160085f8481526020019081526020015f205f015f6101000a81548160ff0219169083151502179055508060085f8481526020019081526020015f2060010190805190602001906112199291906119cc565b505f600b5f8481526020019081526020015f205490506112398183611772565b7ffe2e2d779dba245964d4e3ef9b994be63856fd568bf7d3ca9e224755cb1bd54d838360405161126a929190612254565b60405180910390a1505050565b5f8054906101000a900473ffffffffffffffffffffffffffffffffffffffff1673ffffffffffffffffffffffffffffffffffffffff163373ffffffffffffffffffffffffffffffffffffffff1614611304576040517f08c379a00000000000000000000000000000000000000000000000000000000081526004016112fb906122cc565b60405180910390fd5b565b5f5b600c805490508110156113bd5781600c828154811061132a576113296122ea565b5b905f5260205f200154036113b057600c6001600c8054905061134c9190612344565b8154811061135d5761135c6122ea565b5b905f5260205f200154600c828154811061137a576113796122ea565b5b905f5260205f200181905550600c80548061139857611397612377565b5b600190038181905f5260205f20015f905590556113bd565b8080600101915050611308565b5050565b5f423360025f8154809291906113d6906123a4565b919050556040516020016113ec93929190612450565b604051602081830303815290604052805190602001205f1c905090565b5f60095f9054906101000a900473ffffffffffffffffffffffffffffffffffffffff1673ffffffffffffffffffffffffffffffffffffffff16635d3b1d3060065460035f9054906101000a900467ffffffffffffffff16600760049054906101000a900461ffff1660075f9054906101000a900463ffffffff16600760069054906101000a900463ffffffff166040518663ffffffff1660e01b81526004016114b6959493929190612500565b6020604051808303815f875af11580156114d2573d5f803e3d5ffd5b505050506040513d601f19601f820116820180604052508101906114f69190612565565b905060405180606001604052805f151581526020016001151581526020015f67ffffffffffffffff81111561152e5761152d611b6e565b5b60405190808252806020026020018201604052801561155c5781602001602082028036833780820191505090505b5081525060085f8381526020019081526020015f205f820151815f015f6101000a81548160ff0219169083151502179055506020820151815f0160016101000a81548160ff02191690831515021790555060408201518160010190805190602001906115c99291906119cc565b50905050600481908060018154018082558091505060019003905f5260205f20015f9091909190915055806005819055507fcc58b13ad3eab50626c6a6300b1d139cd6ebb1688a7cced9461c2f7e762665ee81600760069054906101000a900463ffffffff1660405161163d929190612590565b60405180910390a190565b3373ffffffffffffffffffffffffffffffffffffffff168173ffffffffffffffffffffffffffffffffffffffff16036116b6576040517f08c379a00000000000000000000000000000000000000000000000000000000081526004016116ad90612601565b60405180910390fd5b8060015f6101000a81548173ffffffffffffffffffffffffffffffffffffffff021916908373ffffffffffffffffffffffffffffffffffffffff1602179055508073ffffffffffffffffffffffffffffffffffffffff165f8054906101000a900473ffffffffffffffffffffffffffffffffffffffff1673ffffffffffffffffffffffffffffffffffffffff167fed8889f560326eb138920d842192f0eb3dd22b4f139c87a2c57538e05bae127860405160405180910390a350565b5f600a5f8481526020019081526020015f209050806003015f9054906101000a900460ff16156117d7576040517f08c379a00000000000000000000000000000000000000000000000000000000081526004016117ce90612669565b60405180910390fd5b5f826040516020016117e99190612713565b604051602081830303815290604052805190602001205f1c90505f6002826118119190612756565b1461183f57816001015f9054906101000a900473ffffffffffffffffffffffffffffffffffffffff16611863565b815f015f9054906101000a900473ffffffffffffffffffffffffffffffffffffffff165b8260030160016101000a81548173ffffffffffffffffffffffffffffffffffffffff021916908373ffffffffffffffffffffffffffffffffffffffff1602179055506001826003015f6101000a81548160ff0219169083151502179055508160030160019054906101000a900473ffffffffffffffffffffffffffffffffffffffff1673ffffffffffffffffffffffffffffffffffffffff166108fc611917600285600201546119b790919063ffffffff16565b90811502906040515f60405180830381858888f1935050505015801561193f573d5f803e3d5ffd5b5061194984611306565b8160030160019054906101000a900473ffffffffffffffffffffffffffffffffffffffff1673ffffffffffffffffffffffffffffffffffffffff16847f7f40df5127524300187445e867486da572aab86769c0212e0b392bd87c4ca97f60405160405180910390a350505050565b5f81836119c49190612786565b905092915050565b828054828255905f5260205f20908101928215611a06579160200282015b82811115611a055782518255916020019190600101906119ea565b5b509050611a139190611a17565b5090565b5b80821115611a2e575f815f905550600101611a18565b5090565b5f604051905090565b5f80fd5b5f80fd5b5f819050919050565b611a5581611a43565b8114611a5f575f80fd5b50565b5f81359050611a7081611a4c565b92915050565b5f60208284031215611a8b57611a8a611a3b565b5b5f611a9884828501611a62565b91505092915050565b5f73ffffffffffffffffffffffffffffffffffffffff82169050919050565b5f611aca82611aa1565b9050919050565b611ada81611ac0565b82525050565b611ae981611a43565b82525050565b5f8115159050919050565b611b0381611aef565b82525050565b5f60a082019050611b1c5f830188611ad1565b611b296020830187611ad1565b611b366040830186611ae0565b611b436060830185611afa565b611b506080830184611ad1565b9695505050505050565b5f80fd5b5f601f19601f8301169050919050565b7f4e487b71000000000000000000000000000000000000000000000000000000005f52604160045260245ffd5b611ba482611b5e565b810181811067ffffffffffffffff82111715611bc357611bc2611b6e565b5b80604052505050565b5f611bd5611a32565b9050611be18282611b9b565b919050565b5f67ffffffffffffffff821115611c0057611bff611b6e565b5b602082029050602081019050919050565b5f80fd5b5f611c27611c2284611be6565b611bcc565b90508083825260208201905060208402830185811115611c4a57611c49611c11565b5b835b81811015611c735780611c5f8882611a62565b845260208401935050602081019050611c4c565b5050509392505050565b5f82601f830112611c9157611c90611b5a565b5b8135611ca1848260208601611c15565b91505092915050565b5f8060408385031215611cc057611cbf611a3b565b5b5f611ccd85828601611a62565b925050602083013567ffffffffffffffff811115611cee57611ced611a3f565b5b611cfa85828601611c7d565b9150509250929050565b5f81519050919050565b5f82825260208201905092915050565b5f819050602082019050919050565b611d3681611a43565b82525050565b5f611d478383611d2d565b60208301905092915050565b5f602082019050919050565b5f611d6982611d04565b611d738185611d0e565b9350611d7e83611d1e565b805f5b83811015611dae578151611d958882611d3c565b9750611da083611d53565b925050600181019050611d81565b5085935050505092915050565b5f6020820190508181035f830152611dd38184611d5f565b905092915050565b5f602082019050611dee5f830184611ae0565b92915050565b5f602082019050611e075f830184611ad1565b92915050565b5f604082019050611e205f830185611afa565b611e2d6020830184611afa565b9392505050565b5f604082019050611e475f830185611afa565b8181036020830152611e598184611d5f565b90509392505050565b611e6b81611ac0565b8114611e75575f80fd5b50565b5f81359050611e8681611e62565b92915050565b5f60208284031215611ea157611ea0611a3b565b5b5f611eae84828501611e78565b91505092915050565b5f604082019050611eca5f830185611ad1565b611ed76020830184611ad1565b9392505050565b5f82825260208201905092915050565b7f47616d6520646f6573206e6f74206578697374000000000000000000000000005f82015250565b5f611f22601383611ede565b9150611f2d82611eee565b602082019050919050565b5f6020820190508181035f830152611f4f81611f16565b9050919050565b7f47616d6520697320636f6d706c657465640000000000000000000000000000005f82015250565b5f611f8a601183611ede565b9150611f9582611f56565b602082019050919050565b5f6020820190508181035f830152611fb781611f7e565b9050919050565b7f47616d6520697320616c7265616479206a6f696e6564000000000000000000005f82015250565b5f611ff2601683611ede565b9150611ffd82611fbe565b602082019050919050565b5f6020820190508181035f83015261201f81611fe6565b9050919050565b7f4d7573742062652070726f706f736564206f776e6572000000000000000000005f82015250565b5f61205a601683611ede565b915061206582612026565b602082019050919050565b5f6020820190508181035f8301526120878161204e565b9050919050565b7f72657175657374206e6f7420666f756e640000000000000000000000000000005f82015250565b5f6120c2601183611ede565b91506120cd8261208e565b602082019050919050565b5f6020820190508181035f8301526120ef816120b6565b9050919050565b7f576167657220616d6f756e74206973206c657373207468616e206d696e696d755f8201527f6d57616765720000000000000000000000000000000000000000000000000000602082015250565b5f612150602683611ede565b915061215b826120f6565b604082019050919050565b5f6020820190508181035f83015261217d81612144565b9050919050565b7f496e636f727265637420616d6f756e742073656e7400000000000000000000005f82015250565b5f6121b8601583611ede565b91506121c382612184565b602082019050919050565b5f6020820190508181035f8301526121e5816121ac565b9050919050565b7f596f752063616e6e6f74206a6f696e20796f7572206f776e2067616d650000005f82015250565b5f612220601d83611ede565b915061222b826121ec565b602082019050919050565b5f6020820190508181035f83015261224d81612214565b9050919050565b5f6040820190506122675f830185611ae0565b81810360208301526122798184611d5f565b90509392505050565b7f4f6e6c792063616c6c61626c65206279206f776e6572000000000000000000005f82015250565b5f6122b6601683611ede565b91506122c182612282565b602082019050919050565b5f6020820190508181035f8301526122e3816122aa565b9050919050565b7f4e487b71000000000000000000000000000000000000000000000000000000005f52603260045260245ffd5b7f4e487b71000000000000000000000000000000000000000000000000000000005f52601160045260245ffd5b5f61234e82611a43565b915061235983611a43565b925082820390508181111561237157612370612317565b5b92915050565b7f4e487b71000000000000000000000000000000000000000000000000000000005f52603160045260245ffd5b5f6123ae82611a43565b91507fffffffffffffffffffffffffffffffffffffffffffffffffffffffffffffffff82036123e0576123df612317565b5b600182019050919050565b5f819050919050565b61240561240082611a43565b6123eb565b82525050565b5f8160601b9050919050565b5f6124218261240b565b9050919050565b5f61243282612417565b9050919050565b61244a61244582611ac0565b612428565b82525050565b5f61245b82866123f4565b60208201915061246b8285612439565b60148201915061247b82846123f4565b602082019150819050949350505050565b5f819050919050565b61249e8161248c565b82525050565b5f67ffffffffffffffff82169050919050565b6124c0816124a4565b82525050565b5f61ffff82169050919050565b6124dc816124c6565b82525050565b5f63ffffffff82169050919050565b6124fa816124e2565b82525050565b5f60a0820190506125135f830188612495565b61252060208301876124b7565b61252d60408301866124d3565b61253a60608301856124f1565b61254760808301846124f1565b9695505050505050565b5f8151905061255f81611a4c565b92915050565b5f6020828403121561257a57612579611a3b565b5b5f61258784828501612551565b91505092915050565b5f6040820190506125a35f830185611ae0565b6125b060208301846124f1565b9392505050565b7f43616e6e6f74207472616e7366657220746f2073656c660000000000000000005f82015250565b5f6125eb601783611ede565b91506125f6826125b7565b602082019050919050565b5f6020820190508181035f830152612618816125df565b9050919050565b7f47616d6520697320616c726561647920636f6d706c65746564000000000000005f82015250565b5f612653601983611ede565b915061265e8261261f565b602082019050919050565b5f6020820190508181035f83015261268081612647565b9050919050565b5f81905092915050565b61269a81611a43565b82525050565b5f6126ab8383612691565b60208301905092915050565b5f6126c182611d04565b6126cb8185612687565b93506126d683611d1e565b805f5b838110156127065781516126ed88826126a0565b97506126f883611d53565b9250506001810190506126d9565b5085935050505092915050565b5f61271e82846126b7565b915081905092915050565b7f4e487b71000000000000000000000000000000000000000000000000000000005f52601260045260245ffd5b5f61276082611a43565b915061276b83611a43565b92508261277b5761277a612729565b5b828206905092915050565b5f61279082611a43565b915061279b83611a43565b92508282026127a981611a43565b915082820484148315176127c0576127bf612317565b5b509291505056fea2646970667358221220f7d8966cc0503266edeeb90ecab62246f2a73893885a9b2f66c12339d480170c64736f6c63430008160033",
					"opcodes": "PUSH1 0xA0 PUSH1 0x40 MSTORE PUSH1 0x1 PUSH1 0x2 SSTORE PUSH32 0x354D2F95DA55398F44B7CFF77DA56283D9C6C829A4BDF1BBCAF2AD6A4D081F61 PUSH0 SHL PUSH1 0x6 SSTORE PUSH3 0x186A0 PUSH1 0x7 PUSH0 PUSH2 0x100 EXP DUP2 SLOAD DUP2 PUSH4 0xFFFFFFFF MUL NOT AND SWAP1 DUP4 PUSH4 0xFFFFFFFF AND MUL OR SWAP1 SSTORE POP PUSH1 0x3 PUSH1 0x7 PUSH1 0x4 PUSH2 0x100 EXP DUP2 SLOAD DUP2 PUSH2 0xFFFF MUL NOT AND SWAP1 DUP4 PUSH2 0xFFFF AND MUL OR SWAP1 SSTORE POP PUSH1 0x1 PUSH1 0x7 PUSH1 0x6 PUSH2 0x100 EXP DUP2 SLOAD DUP2 PUSH4 0xFFFFFFFF MUL NOT AND SWAP1 DUP4 PUSH4 0xFFFFFFFF AND MUL OR SWAP1 SSTORE POP CALLVALUE DUP1 ISZERO PUSH3 0x9E JUMPI PUSH0 DUP1 REVERT JUMPDEST POP PUSH1 0x40 MLOAD PUSH3 0x2D48 CODESIZE SUB DUP1 PUSH3 0x2D48 DUP4 CODECOPY DUP2 DUP2 ADD PUSH1 0x40 MSTORE DUP2 ADD SWAP1 PUSH3 0xC4 SWAP2 SWAP1 PUSH3 0x40F JUMP JUMPDEST CALLER DUP1 PUSH0 PUSH20 0x2ED832BA664535E5886B75D64C46EB9A228C2610 DUP1 PUSH20 0xFFFFFFFFFFFFFFFFFFFFFFFFFFFFFFFFFFFFFFFF AND PUSH1 0x80 DUP2 PUSH20 0xFFFFFFFFFFFFFFFFFFFFFFFFFFFFFFFFFFFFFFFF AND DUP2 MSTORE POP POP POP PUSH0 PUSH20 0xFFFFFFFFFFFFFFFFFFFFFFFFFFFFFFFFFFFFFFFF AND DUP3 PUSH20 0xFFFFFFFFFFFFFFFFFFFFFFFFFFFFFFFFFFFFFFFF AND SUB PUSH3 0x182 JUMPI PUSH1 0x40 MLOAD PUSH32 0x8C379A000000000000000000000000000000000000000000000000000000000 DUP2 MSTORE PUSH1 0x4 ADD PUSH3 0x179 SWAP1 PUSH3 0x49D JUMP JUMPDEST PUSH1 0x40 MLOAD DUP1 SWAP2 SUB SWAP1 REVERT JUMPDEST DUP2 PUSH0 DUP1 PUSH2 0x100 EXP DUP2 SLOAD DUP2 PUSH20 0xFFFFFFFFFFFFFFFFFFFFFFFFFFFFFFFFFFFFFFFF MUL NOT AND SWAP1 DUP4 PUSH20 0xFFFFFFFFFFFFFFFFFFFFFFFFFFFFFFFFFFFFFFFF AND MUL OR SWAP1 SSTORE POP PUSH0 PUSH20 0xFFFFFFFFFFFFFFFFFFFFFFFFFFFFFFFFFFFFFFFF AND DUP2 PUSH20 0xFFFFFFFFFFFFFFFFFFFFFFFFFFFFFFFFFFFFFFFF AND EQ PUSH3 0x207 JUMPI PUSH3 0x206 DUP2 PUSH3 0x29C PUSH1 0x20 SHL PUSH1 0x20 SHR JUMP JUMPDEST JUMPDEST POP POP POP PUSH20 0x2ED832BA664535E5886B75D64C46EB9A228C2610 PUSH1 0x9 PUSH0 PUSH2 0x100 EXP DUP2 SLOAD DUP2 PUSH20 0xFFFFFFFFFFFFFFFFFFFFFFFFFFFFFFFFFFFFFFFF MUL NOT AND SWAP1 DUP4 PUSH20 0xFFFFFFFFFFFFFFFFFFFFFFFFFFFFFFFFFFFFFFFF AND MUL OR SWAP1 SSTORE POP DUP1 PUSH1 0x3 PUSH0 PUSH2 0x100 EXP DUP2 SLOAD DUP2 PUSH8 0xFFFFFFFFFFFFFFFF MUL NOT AND SWAP1 DUP4 PUSH8 0xFFFFFFFFFFFFFFFF AND MUL OR SWAP1 SSTORE POP PUSH8 0x16345785D8A0000 PUSH1 0xD DUP2 SWAP1 SSTORE POP POP PUSH3 0x52B JUMP JUMPDEST CALLER PUSH20 0xFFFFFFFFFFFFFFFFFFFFFFFFFFFFFFFFFFFFFFFF AND DUP2 PUSH20 0xFFFFFFFFFFFFFFFFFFFFFFFFFFFFFFFFFFFFFFFF AND SUB PUSH3 0x30D JUMPI PUSH1 0x40 MLOAD PUSH32 0x8C379A000000000000000000000000000000000000000000000000000000000 DUP2 MSTORE PUSH1 0x4 ADD PUSH3 0x304 SWAP1 PUSH3 0x50B JUMP JUMPDEST PUSH1 0x40 MLOAD DUP1 SWAP2 SUB SWAP1 REVERT JUMPDEST DUP1 PUSH1 0x1 PUSH0 PUSH2 0x100 EXP DUP2 SLOAD DUP2 PUSH20 0xFFFFFFFFFFFFFFFFFFFFFFFFFFFFFFFFFFFFFFFF MUL NOT AND SWAP1 DUP4 PUSH20 0xFFFFFFFFFFFFFFFFFFFFFFFFFFFFFFFFFFFFFFFF AND MUL OR SWAP1 SSTORE POP DUP1 PUSH20 0xFFFFFFFFFFFFFFFFFFFFFFFFFFFFFFFFFFFFFFFF AND PUSH0 DUP1 SLOAD SWAP1 PUSH2 0x100 EXP SWAP1 DIV PUSH20 0xFFFFFFFFFFFFFFFFFFFFFFFFFFFFFFFFFFFFFFFF AND PUSH20 0xFFFFFFFFFFFFFFFFFFFFFFFFFFFFFFFFFFFFFFFF AND PUSH32 0xED8889F560326EB138920D842192F0EB3DD22B4F139C87A2C57538E05BAE1278 PUSH1 0x40 MLOAD PUSH1 0x40 MLOAD DUP1 SWAP2 SUB SWAP1 LOG3 POP JUMP JUMPDEST PUSH0 DUP1 REVERT JUMPDEST PUSH0 PUSH8 0xFFFFFFFFFFFFFFFF DUP3 AND SWAP1 POP SWAP2 SWAP1 POP JUMP JUMPDEST PUSH3 0x3EB DUP2 PUSH3 0x3CD JUMP JUMPDEST DUP2 EQ PUSH3 0x3F6 JUMPI PUSH0 DUP1 REVERT JUMPDEST POP JUMP JUMPDEST PUSH0 DUP2 MLOAD SWAP1 POP PUSH3 0x409 DUP2 PUSH3 0x3E0 JUMP JUMPDEST SWAP3 SWAP2 POP POP JUMP JUMPDEST PUSH0 PUSH1 0x20 DUP3 DUP5 SUB SLT ISZERO PUSH3 0x427 JUMPI PUSH3 0x426 PUSH3 0x3C9 JUMP JUMPDEST JUMPDEST PUSH0 PUSH3 0x436 DUP5 DUP3 DUP6 ADD PUSH3 0x3F9 JUMP JUMPDEST SWAP2 POP POP SWAP3 SWAP2 POP POP JUMP JUMPDEST PUSH0 DUP3 DUP3 MSTORE PUSH1 0x20 DUP3 ADD SWAP1 POP SWAP3 SWAP2 POP POP JUMP JUMPDEST PUSH32 0x43616E6E6F7420736574206F776E657220746F207A65726F0000000000000000 PUSH0 DUP3 ADD MSTORE POP JUMP JUMPDEST PUSH0 PUSH3 0x485 PUSH1 0x18 DUP4 PUSH3 0x43F JUMP JUMPDEST SWAP2 POP PUSH3 0x492 DUP3 PUSH3 0x44F JUMP JUMPDEST PUSH1 0x20 DUP3 ADD SWAP1 POP SWAP2 SWAP1 POP JUMP JUMPDEST PUSH0 PUSH1 0x20 DUP3 ADD SWAP1 POP DUP2 DUP2 SUB PUSH0 DUP4 ADD MSTORE PUSH3 0x4B6 DUP2 PUSH3 0x477 JUMP JUMPDEST SWAP1 POP SWAP2 SWAP1 POP JUMP JUMPDEST PUSH32 0x43616E6E6F74207472616E7366657220746F2073656C66000000000000000000 PUSH0 DUP3 ADD MSTORE POP JUMP JUMPDEST PUSH0 PUSH3 0x4F3 PUSH1 0x17 DUP4 PUSH3 0x43F JUMP JUMPDEST SWAP2 POP PUSH3 0x500 DUP3 PUSH3 0x4BD JUMP JUMPDEST PUSH1 0x20 DUP3 ADD SWAP1 POP SWAP2 SWAP1 POP JUMP JUMPDEST PUSH0 PUSH1 0x20 DUP3 ADD SWAP1 POP DUP2 DUP2 SUB PUSH0 DUP4 ADD MSTORE PUSH3 0x524 DUP2 PUSH3 0x4E5 JUMP JUMPDEST SWAP1 POP SWAP2 SWAP1 POP JUMP JUMPDEST PUSH1 0x80 MLOAD PUSH2 0x27FD PUSH3 0x54B PUSH0 CODECOPY PUSH0 DUP2 DUP2 PUSH2 0x4A3 ADD MSTORE PUSH2 0x4F7 ADD MSTORE PUSH2 0x27FD PUSH0 RETURN INVALID PUSH1 0x80 PUSH1 0x40 MSTORE PUSH1 0x4 CALLDATASIZE LT PUSH2 0xFD JUMPI PUSH0 CALLDATALOAD PUSH1 0xE0 SHR DUP1 PUSH4 0x8EE67472 GT PUSH2 0x94 JUMPI DUP1 PUSH4 0xD8A4676F GT PUSH2 0x63 JUMPI DUP1 PUSH4 0xD8A4676F EQ PUSH2 0x33E JUMPI DUP1 PUSH4 0xE5ED1D59 EQ PUSH2 0x37B JUMPI DUP1 PUSH4 0xEFAA55A0 EQ PUSH2 0x397 JUMPI DUP1 PUSH4 0xF2FDE38B EQ PUSH2 0x3B3 JUMPI DUP1 PUSH4 0xFC2A88C3 EQ PUSH2 0x3DB JUMPI PUSH2 0xFD JUMP JUMPDEST DUP1 PUSH4 0x8EE67472 EQ PUSH2 0x25F JUMPI DUP1 PUSH4 0xA168FA89 EQ PUSH2 0x29B JUMPI DUP1 PUSH4 0xB19068C7 EQ PUSH2 0x2D8 JUMPI DUP1 PUSH4 0xB4A91E1E EQ PUSH2 0x302 JUMPI PUSH2 0xFD JUMP JUMPDEST DUP1 PUSH4 0x79BA5097 GT PUSH2 0xD0 JUMPI DUP1 PUSH4 0x79BA5097 EQ PUSH2 0x1BB JUMPI DUP1 PUSH4 0x7F7F8968 EQ PUSH2 0x1D1 JUMPI DUP1 PUSH4 0x8796BA8C EQ PUSH2 0x1F9 JUMPI DUP1 PUSH4 0x8DA5CB5B EQ PUSH2 0x235 JUMPI PUSH2 0xFD JUMP JUMPDEST DUP1 PUSH4 0x117A5B90 EQ PUSH2 0x101 JUMPI DUP1 PUSH4 0x1FE543E3 EQ PUSH2 0x141 JUMPI DUP1 PUSH4 0x6916C9B0 EQ PUSH2 0x169 JUMPI DUP1 PUSH4 0x69958AB9 EQ PUSH2 0x193 JUMPI JUMPDEST PUSH0 DUP1 REVERT JUMPDEST CALLVALUE DUP1 ISZERO PUSH2 0x10C JUMPI PUSH0 DUP1 REVERT JUMPDEST POP PUSH2 0x127 PUSH1 0x4 DUP1 CALLDATASIZE SUB DUP2 ADD SWAP1 PUSH2 0x122 SWAP2 SWAP1 PUSH2 0x1A76 JUMP JUMPDEST PUSH2 0x405 JUMP JUMPDEST PUSH1 0x40 MLOAD PUSH2 0x138 SWAP6 SWAP5 SWAP4 SWAP3 SWAP2 SWAP1 PUSH2 0x1B09 JUMP JUMPDEST PUSH1 0x40 MLOAD DUP1 SWAP2 SUB SWAP1 RETURN JUMPDEST CALLVALUE DUP1 ISZERO PUSH2 0x14C JUMPI PUSH0 DUP1 REVERT JUMPDEST POP PUSH2 0x167 PUSH1 0x4 DUP1 CALLDATASIZE SUB DUP2 ADD SWAP1 PUSH2 0x162 SWAP2 SWAP1 PUSH2 0x1CAA JUMP JUMPDEST PUSH2 0x4A1 JUMP JUMPDEST STOP JUMPDEST CALLVALUE DUP1 ISZERO PUSH2 0x174 JUMPI PUSH0 DUP1 REVERT JUMPDEST POP PUSH2 0x17D PUSH2 0x561 JUMP JUMPDEST PUSH1 0x40 MLOAD PUSH2 0x18A SWAP2 SWAP1 PUSH2 0x1DBB JUMP JUMPDEST PUSH1 0x40 MLOAD DUP1 SWAP2 SUB SWAP1 RETURN JUMPDEST CALLVALUE DUP1 ISZERO PUSH2 0x19E JUMPI PUSH0 DUP1 REVERT JUMPDEST POP PUSH2 0x1B9 PUSH1 0x4 DUP1 CALLDATASIZE SUB DUP2 ADD SWAP1 PUSH2 0x1B4 SWAP2 SWAP1 PUSH2 0x1A76 JUMP JUMPDEST PUSH2 0x5B7 JUMP JUMPDEST STOP JUMPDEST CALLVALUE DUP1 ISZERO PUSH2 0x1C6 JUMPI PUSH0 DUP1 REVERT JUMPDEST POP PUSH2 0x1CF PUSH2 0x889 JUMP JUMPDEST STOP JUMPDEST CALLVALUE DUP1 ISZERO PUSH2 0x1DC JUMPI PUSH0 DUP1 REVERT JUMPDEST POP PUSH2 0x1F7 PUSH1 0x4 DUP1 CALLDATASIZE SUB DUP2 ADD SWAP1 PUSH2 0x1F2 SWAP2 SWAP1 PUSH2 0x1A76 JUMP JUMPDEST PUSH2 0xA18 JUMP JUMPDEST STOP JUMPDEST CALLVALUE DUP1 ISZERO PUSH2 0x204 JUMPI PUSH0 DUP1 REVERT JUMPDEST POP PUSH2 0x21F PUSH1 0x4 DUP1 CALLDATASIZE SUB DUP2 ADD SWAP1 PUSH2 0x21A SWAP2 SWAP1 PUSH2 0x1A76 JUMP JUMPDEST PUSH2 0xA2A JUMP JUMPDEST PUSH1 0x40 MLOAD PUSH2 0x22C SWAP2 SWAP1 PUSH2 0x1DDB JUMP JUMPDEST PUSH1 0x40 MLOAD DUP1 SWAP2 SUB SWAP1 RETURN JUMPDEST CALLVALUE DUP1 ISZERO PUSH2 0x240 JUMPI PUSH0 DUP1 REVERT JUMPDEST POP PUSH2 0x249 PUSH2 0xA4A JUMP JUMPDEST PUSH1 0x40 MLOAD PUSH2 0x256 SWAP2 SWAP1 PUSH2 0x1DF4 JUMP JUMPDEST PUSH1 0x40 MLOAD DUP1 SWAP2 SUB SWAP1 RETURN JUMPDEST CALLVALUE DUP1 ISZERO PUSH2 0x26A JUMPI PUSH0 DUP1 REVERT JUMPDEST POP PUSH2 0x285 PUSH1 0x4 DUP1 CALLDATASIZE SUB DUP2 ADD SWAP1 PUSH2 0x280 SWAP2 SWAP1 PUSH2 0x1A76 JUMP JUMPDEST PUSH2 0xA71 JUMP JUMPDEST PUSH1 0x40 MLOAD PUSH2 0x292 SWAP2 SWAP1 PUSH2 0x1DDB JUMP JUMPDEST PUSH1 0x40 MLOAD DUP1 SWAP2 SUB SWAP1 RETURN JUMPDEST CALLVALUE DUP1 ISZERO PUSH2 0x2A6 JUMPI PUSH0 DUP1 REVERT JUMPDEST POP PUSH2 0x2C1 PUSH1 0x4 DUP1 CALLDATASIZE SUB DUP2 ADD SWAP1 PUSH2 0x2BC SWAP2 SWAP1 PUSH2 0x1A76 JUMP JUMPDEST PUSH2 0xA91 JUMP JUMPDEST PUSH1 0x40 MLOAD PUSH2 0x2CF SWAP3 SWAP2 SWAP1 PUSH2 0x1E0D JUMP JUMPDEST PUSH1 0x40 MLOAD DUP1 SWAP2 SUB SWAP1 RETURN JUMPDEST CALLVALUE DUP1 ISZERO PUSH2 0x2E3 JUMPI PUSH0 DUP1 REVERT JUMPDEST POP PUSH2 0x2EC PUSH2 0xAC9 JUMP JUMPDEST PUSH1 0x40 MLOAD PUSH2 0x2F9 SWAP2 SWAP1 PUSH2 0x1DDB JUMP JUMPDEST PUSH1 0x40 MLOAD DUP1 SWAP2 SUB SWAP1 RETURN JUMPDEST CALLVALUE DUP1 ISZERO PUSH2 0x30D JUMPI PUSH0 DUP1 REVERT JUMPDEST POP PUSH2 0x328 PUSH1 0x4 DUP1 CALLDATASIZE SUB DUP2 ADD SWAP1 PUSH2 0x323 SWAP2 SWAP1 PUSH2 0x1A76 JUMP JUMPDEST PUSH2 0xACF JUMP JUMPDEST PUSH1 0x40 MLOAD PUSH2 0x335 SWAP2 SWAP1 PUSH2 0x1DDB JUMP JUMPDEST PUSH1 0x40 MLOAD DUP1 SWAP2 SUB SWAP1 RETURN JUMPDEST CALLVALUE DUP1 ISZERO PUSH2 0x349 JUMPI PUSH0 DUP1 REVERT JUMPDEST POP PUSH2 0x364 PUSH1 0x4 DUP1 CALLDATASIZE SUB DUP2 ADD SWAP1 PUSH2 0x35F SWAP2 SWAP1 PUSH2 0x1A76 JUMP JUMPDEST PUSH2 0xAE4 JUMP JUMPDEST PUSH1 0x40 MLOAD PUSH2 0x372 SWAP3 SWAP2 SWAP1 PUSH2 0x1E34 JUMP JUMPDEST PUSH1 0x40 MLOAD DUP1 SWAP2 SUB SWAP1 RETURN JUMPDEST PUSH2 0x395 PUSH1 0x4 DUP1 CALLDATASIZE SUB DUP2 ADD SWAP1 PUSH2 0x390 SWAP2 SWAP1 PUSH2 0x1A76 JUMP JUMPDEST PUSH2 0xC02 JUMP JUMPDEST STOP JUMPDEST PUSH2 0x3B1 PUSH1 0x4 DUP1 CALLDATASIZE SUB DUP2 ADD SWAP1 PUSH2 0x3AC SWAP2 SWAP1 PUSH2 0x1A76 JUMP JUMPDEST PUSH2 0xE44 JUMP JUMPDEST STOP JUMPDEST CALLVALUE DUP1 ISZERO PUSH2 0x3BE JUMPI PUSH0 DUP1 REVERT JUMPDEST POP PUSH2 0x3D9 PUSH1 0x4 DUP1 CALLDATASIZE SUB DUP2 ADD SWAP1 PUSH2 0x3D4 SWAP2 SWAP1 PUSH2 0x1E8C JUMP JUMPDEST PUSH2 0x114C JUMP JUMPDEST STOP JUMPDEST CALLVALUE DUP1 ISZERO PUSH2 0x3E6 JUMPI PUSH0 DUP1 REVERT JUMPDEST POP PUSH2 0x3EF PUSH2 0x1160 JUMP JUMPDEST PUSH1 0x40 MLOAD PUSH2 0x3FC SWAP2 SWAP1 PUSH2 0x1DDB JUMP JUMPDEST PUSH1 0x40 MLOAD DUP1 SWAP2 SUB SWAP1 RETURN JUMPDEST PUSH1 0xA PUSH1 0x20 MSTORE DUP1 PUSH0 MSTORE PUSH1 0x40 PUSH0 KECCAK256 PUSH0 SWAP2 POP SWAP1 POP DUP1 PUSH0 ADD PUSH0 SWAP1 SLOAD SWAP1 PUSH2 0x100 EXP SWAP1 DIV PUSH20 0xFFFFFFFFFFFFFFFFFFFFFFFFFFFFFFFFFFFFFFFF AND SWAP1 DUP1 PUSH1 0x1 ADD PUSH0 SWAP1 SLOAD SWAP1 PUSH2 0x100 EXP SWAP1 DIV PUSH20 0xFFFFFFFFFFFFFFFFFFFFFFFFFFFFFFFFFFFFFFFF AND SWAP1 DUP1 PUSH1 0x2 ADD SLOAD SWAP1 DUP1 PUSH1 0x3 ADD PUSH0 SWAP1 SLOAD SWAP1 PUSH2 0x100 EXP SWAP1 DIV PUSH1 0xFF AND SWAP1 DUP1 PUSH1 0x3 ADD PUSH1 0x1 SWAP1 SLOAD SWAP1 PUSH2 0x100 EXP SWAP1 DIV PUSH20 0xFFFFFFFFFFFFFFFFFFFFFFFFFFFFFFFFFFFFFFFF AND SWAP1 POP DUP6 JUMP JUMPDEST PUSH32 0x0 PUSH20 0xFFFFFFFFFFFFFFFFFFFFFFFFFFFFFFFFFFFFFFFF AND CALLER PUSH20 0xFFFFFFFFFFFFFFFFFFFFFFFFFFFFFFFFFFFFFFFF AND EQ PUSH2 0x553 JUMPI CALLER PUSH32 0x0 PUSH1 0x40 MLOAD PUSH32 0x1CF993F400000000000000000000000000000000000000000000000000000000 DUP2 MSTORE PUSH1 0x4 ADD PUSH2 0x54A SWAP3 SWAP2 SWAP1 PUSH2 0x1EB7 JUMP JUMPDEST PUSH1 0x40 MLOAD DUP1 SWAP2 SUB SWAP1 REVERT JUMPDEST PUSH2 0x55D DUP3 DUP3 PUSH2 0x1166 JUMP JUMPDEST POP POP JUMP JUMPDEST PUSH1 0x60 PUSH1 0xC DUP1 SLOAD DUP1 PUSH1 0x20 MUL PUSH1 0x20 ADD PUSH1 0x40 MLOAD SWAP1 DUP2 ADD PUSH1 0x40 MSTORE DUP1 SWAP3 SWAP2 SWAP1 DUP2 DUP2 MSTORE PUSH1 0x20 ADD DUP3 DUP1 SLOAD DUP1 ISZERO PUSH2 0x5AD JUMPI PUSH1 0x20 MUL DUP3 ADD SWAP2 SWAP1 PUSH0 MSTORE PUSH1 0x20 PUSH0 KECCAK256 SWAP1 JUMPDEST DUP2 SLOAD DUP2 MSTORE PUSH1 0x20 ADD SWAP1 PUSH1 0x1 ADD SWAP1 DUP1 DUP4 GT PUSH2 0x599 JUMPI JUMPDEST POP POP POP POP POP SWAP1 POP SWAP1 JUMP JUMPDEST PUSH2 0x5BF PUSH2 0x1277 JUMP JUMPDEST PUSH0 PUSH1 0xA PUSH0 DUP4 DUP2 MSTORE PUSH1 0x20 ADD SWAP1 DUP2 MSTORE PUSH1 0x20 ADD PUSH0 KECCAK256 SWAP1 POP PUSH0 PUSH20 0xFFFFFFFFFFFFFFFFFFFFFFFFFFFFFFFFFFFFFFFF AND DUP2 PUSH0 ADD PUSH0 SWAP1 SLOAD SWAP1 PUSH2 0x100 EXP SWAP1 DIV PUSH20 0xFFFFFFFFFFFFFFFFFFFFFFFFFFFFFFFFFFFFFFFF AND PUSH20 0xFFFFFFFFFFFFFFFFFFFFFFFFFFFFFFFFFFFFFFFF AND SUB PUSH2 0x663 JUMPI PUSH1 0x40 MLOAD PUSH32 0x8C379A000000000000000000000000000000000000000000000000000000000 DUP2 MSTORE PUSH1 0x4 ADD PUSH2 0x65A SWAP1 PUSH2 0x1F38 JUMP JUMPDEST PUSH1 0x40 MLOAD DUP1 SWAP2 SUB SWAP1 REVERT JUMPDEST DUP1 PUSH1 0x3 ADD PUSH0 SWAP1 SLOAD SWAP1 PUSH2 0x100 EXP SWAP1 DIV PUSH1 0xFF AND ISZERO PUSH2 0x6B4 JUMPI PUSH1 0x40 MLOAD PUSH32 0x8C379A000000000000000000000000000000000000000000000000000000000 DUP2 MSTORE PUSH1 0x4 ADD PUSH2 0x6AB SWAP1 PUSH2 0x1FA0 JUMP JUMPDEST PUSH1 0x40 MLOAD DUP1 SWAP2 SUB SWAP1 REVERT JUMPDEST PUSH0 PUSH20 0xFFFFFFFFFFFFFFFFFFFFFFFFFFFFFFFFFFFFFFFF AND DUP2 PUSH1 0x1 ADD PUSH0 SWAP1 SLOAD SWAP1 PUSH2 0x100 EXP SWAP1 DIV PUSH20 0xFFFFFFFFFFFFFFFFFFFFFFFFFFFFFFFFFFFFFFFF AND PUSH20 0xFFFFFFFFFFFFFFFFFFFFFFFFFFFFFFFFFFFFFFFF AND EQ PUSH2 0x745 JUMPI PUSH1 0x40 MLOAD PUSH32 0x8C379A000000000000000000000000000000000000000000000000000000000 DUP2 MSTORE PUSH1 0x4 ADD PUSH2 0x73C SWAP1 PUSH2 0x2008 JUMP JUMPDEST PUSH1 0x40 MLOAD DUP1 SWAP2 SUB SWAP1 REVERT JUMPDEST DUP1 PUSH0 ADD PUSH0 SWAP1 SLOAD SWAP1 PUSH2 0x100 EXP SWAP1 DIV PUSH20 0xFFFFFFFFFFFFFFFFFFFFFFFFFFFFFFFFFFFFFFFF AND PUSH20 0xFFFFFFFFFFFFFFFFFFFFFFFFFFFFFFFFFFFFFFFF AND PUSH2 0x8FC DUP3 PUSH1 0x2 ADD SLOAD SWAP1 DUP2 ISZERO MUL SWAP1 PUSH1 0x40 MLOAD PUSH0 PUSH1 0x40 MLOAD DUP1 DUP4 SUB DUP2 DUP6 DUP9 DUP9 CALL SWAP4 POP POP POP POP ISZERO DUP1 ISZERO PUSH2 0x7AE JUMPI RETURNDATASIZE PUSH0 DUP1 RETURNDATACOPY RETURNDATASIZE PUSH0 REVERT JUMPDEST POP PUSH2 0x7B8 DUP3 PUSH2 0x1306 JUMP JUMPDEST PUSH1 0xA PUSH0 DUP4 DUP2 MSTORE PUSH1 0x20 ADD SWAP1 DUP2 MSTORE PUSH1 0x20 ADD PUSH0 KECCAK256 PUSH0 DUP1 DUP3 ADD PUSH0 PUSH2 0x100 EXP DUP2 SLOAD SWAP1 PUSH20 0xFFFFFFFFFFFFFFFFFFFFFFFFFFFFFFFFFFFFFFFF MUL NOT AND SWAP1 SSTORE PUSH1 0x1 DUP3 ADD PUSH0 PUSH2 0x100 EXP DUP2 SLOAD SWAP1 PUSH20 0xFFFFFFFFFFFFFFFFFFFFFFFFFFFFFFFFFFFFFFFF MUL NOT AND SWAP1 SSTORE PUSH1 0x2 DUP3 ADD PUSH0 SWAP1 SSTORE PUSH1 0x3 DUP3 ADD PUSH0 PUSH2 0x100 EXP DUP2 SLOAD SWAP1 PUSH1 0xFF MUL NOT AND SWAP1 SSTORE PUSH1 0x3 DUP3 ADD PUSH1 0x1 PUSH2 0x100 EXP DUP2 SLOAD SWAP1 PUSH20 0xFFFFFFFFFFFFFFFFFFFFFFFFFFFFFFFFFFFFFFFF MUL NOT AND SWAP1 SSTORE POP POP DUP2 PUSH32 0x681705FDBD93DBA3B679FD712577E9A86D57C5551C520F8C74857DEB57F9623F PUSH1 0x40 MLOAD PUSH1 0x40 MLOAD DUP1 SWAP2 SUB SWAP1 LOG2 POP POP JUMP JUMPDEST PUSH1 0x1 PUSH0 SWAP1 SLOAD SWAP1 PUSH2 0x100 EXP SWAP1 DIV PUSH20 0xFFFFFFFFFFFFFFFFFFFFFFFFFFFFFFFFFFFFFFFF AND PUSH20 0xFFFFFFFFFFFFFFFFFFFFFFFFFFFFFFFFFFFFFFFF AND CALLER PUSH20 0xFFFFFFFFFFFFFFFFFFFFFFFFFFFFFFFFFFFFFFFF AND EQ PUSH2 0x918 JUMPI PUSH1 0x40 MLOAD PUSH32 0x8C379A000000000000000000000000000000000000000000000000000000000 DUP2 MSTORE PUSH1 0x4 ADD PUSH2 0x90F SWAP1 PUSH2 0x2070 JUMP JUMPDEST PUSH1 0x40 MLOAD DUP1 SWAP2 SUB SWAP1 REVERT JUMPDEST PUSH0 DUP1 PUSH0 SWAP1 SLOAD SWAP1 PUSH2 0x100 EXP SWAP1 DIV PUSH20 0xFFFFFFFFFFFFFFFFFFFFFFFFFFFFFFFFFFFFFFFF AND SWAP1 POP CALLER PUSH0 DUP1 PUSH2 0x100 EXP DUP2 SLOAD DUP2 PUSH20 0xFFFFFFFFFFFFFFFFFFFFFFFFFFFFFFFFFFFFFFFF MUL NOT AND SWAP1 DUP4 PUSH20 0xFFFFFFFFFFFFFFFFFFFFFFFFFFFFFFFFFFFFFFFF AND MUL OR SWAP1 SSTORE POP PUSH0 PUSH1 0x1 PUSH0 PUSH2 0x100 EXP DUP2 SLOAD DUP2 PUSH20 0xFFFFFFFFFFFFFFFFFFFFFFFFFFFFFFFFFFFFFFFF MUL NOT AND SWAP1 DUP4 PUSH20 0xFFFFFFFFFFFFFFFFFFFFFFFFFFFFFFFFFFFFFFFF AND MUL OR SWAP1 SSTORE POP CALLER PUSH20 0xFFFFFFFFFFFFFFFFFFFFFFFFFFFFFFFFFFFFFFFF AND DUP2 PUSH20 0xFFFFFFFFFFFFFFFFFFFFFFFFFFFFFFFFFFFFFFFF AND PUSH32 0x8BE0079C531659141344CD1FD0A4F28419497F9722A3DAAFE3B4186F6B6457E0 PUSH1 0x40 MLOAD PUSH1 0x40 MLOAD DUP1 SWAP2 SUB SWAP1 LOG3 POP JUMP JUMPDEST PUSH2 0xA20 PUSH2 0x1277 JUMP JUMPDEST DUP1 PUSH1 0xD DUP2 SWAP1 SSTORE POP POP JUMP JUMPDEST PUSH1 0x4 DUP2 DUP2 SLOAD DUP2 LT PUSH2 0xA39 JUMPI PUSH0 DUP1 REVERT JUMPDEST SWAP1 PUSH0 MSTORE PUSH1 0x20 PUSH0 KECCAK256 ADD PUSH0 SWAP2 POP SWAP1 POP SLOAD DUP2 JUMP JUMPDEST PUSH0 DUP1 PUSH0 SWAP1 SLOAD SWAP1 PUSH2 0x100 EXP SWAP1 DIV PUSH20 0xFFFFFFFFFFFFFFFFFFFFFFFFFFFFFFFFFFFFFFFF AND SWAP1 POP SWAP1 JUMP JUMPDEST PUSH1 0xC DUP2 DUP2 SLOAD DUP2 LT PUSH2 0xA80 JUMPI PUSH0 DUP1 REVERT JUMPDEST SWAP1 PUSH0 MSTORE PUSH1 0x20 PUSH0 KECCAK256 ADD PUSH0 SWAP2 POP SWAP1 POP SLOAD DUP2 JUMP JUMPDEST PUSH1 0x8 PUSH1 0x20 MSTORE DUP1 PUSH0 MSTORE PUSH1 0x40 PUSH0 KECCAK256 PUSH0 SWAP2 POP SWAP1 POP DUP1 PUSH0 ADD PUSH0 SWAP1 SLOAD SWAP1 PUSH2 0x100 EXP SWAP1 DIV PUSH1 0xFF AND SWAP1 DUP1 PUSH0 ADD PUSH1 0x1 SWAP1 SLOAD SWAP1 PUSH2 0x100 EXP SWAP1 DIV PUSH1 0xFF AND SWAP1 POP DUP3 JUMP JUMPDEST PUSH1 0xD SLOAD DUP2 JUMP JUMPDEST PUSH1 0xB PUSH1 0x20 MSTORE DUP1 PUSH0 MSTORE PUSH1 0x40 PUSH0 KECCAK256 PUSH0 SWAP2 POP SWAP1 POP SLOAD DUP2 JUMP JUMPDEST PUSH0 PUSH1 0x60 PUSH1 0x8 PUSH0 DUP5 DUP2 MSTORE PUSH1 0x20 ADD SWAP1 DUP2 MSTORE PUSH1 0x20 ADD PUSH0 KECCAK256 PUSH0 ADD PUSH1 0x1 SWAP1 SLOAD SWAP1 PUSH2 0x100 EXP SWAP1 DIV PUSH1 0xFF AND PUSH2 0xB47 JUMPI PUSH1 0x40 MLOAD PUSH32 0x8C379A000000000000000000000000000000000000000000000000000000000 DUP2 MSTORE PUSH1 0x4 ADD PUSH2 0xB3E SWAP1 PUSH2 0x20D8 JUMP JUMPDEST PUSH1 0x40 MLOAD DUP1 SWAP2 SUB SWAP1 REVERT JUMPDEST PUSH0 PUSH1 0x8 PUSH0 DUP6 DUP2 MSTORE PUSH1 0x20 ADD SWAP1 DUP2 MSTORE PUSH1 0x20 ADD PUSH0 KECCAK256 PUSH1 0x40 MLOAD DUP1 PUSH1 0x60 ADD PUSH1 0x40 MSTORE SWAP1 DUP2 PUSH0 DUP3 ADD PUSH0 SWAP1 SLOAD SWAP1 PUSH2 0x100 EXP SWAP1 DIV PUSH1 0xFF AND ISZERO ISZERO ISZERO ISZERO DUP2 MSTORE PUSH1 0x20 ADD PUSH0 DUP3 ADD PUSH1 0x1 SWAP1 SLOAD SWAP1 PUSH2 0x100 EXP SWAP1 DIV PUSH1 0xFF AND ISZERO ISZERO ISZERO ISZERO DUP2 MSTORE PUSH1 0x20 ADD PUSH1 0x1 DUP3 ADD DUP1 SLOAD DUP1 PUSH1 0x20 MUL PUSH1 0x20 ADD PUSH1 0x40 MLOAD SWAP1 DUP2 ADD PUSH1 0x40 MSTORE DUP1 SWAP3 SWAP2 SWAP1 DUP2 DUP2 MSTORE PUSH1 0x20 ADD DUP3 DUP1 SLOAD DUP1 ISZERO PUSH2 0xBE4 JUMPI PUSH1 0x20 MUL DUP3 ADD SWAP2 SWAP1 PUSH0 MSTORE PUSH1 0x20 PUSH0 KECCAK256 SWAP1 JUMPDEST DUP2 SLOAD DUP2 MSTORE PUSH1 0x20 ADD SWAP1 PUSH1 0x1 ADD SWAP1 DUP1 DUP4 GT PUSH2 0xBD0 JUMPI JUMPDEST POP POP POP POP POP DUP2 MSTORE POP POP SWAP1 POP DUP1 PUSH0 ADD MLOAD DUP2 PUSH1 0x40 ADD MLOAD SWAP3 POP SWAP3 POP POP SWAP2 POP SWAP2 JUMP JUMPDEST PUSH1 0xD SLOAD CALLVALUE LT ISZERO PUSH2 0xC47 JUMPI PUSH1 0x40 MLOAD PUSH32 0x8C379A000000000000000000000000000000000000000000000000000000000 DUP2 MSTORE PUSH1 0x4 ADD PUSH2 0xC3E SWAP1 PUSH2 0x2166 JUMP JUMPDEST PUSH1 0x40 MLOAD DUP1 SWAP2 SUB SWAP1 REVERT JUMPDEST PUSH0 PUSH2 0xC50 PUSH2 0x13C1 JUMP JUMPDEST SWAP1 POP PUSH1 0x40 MLOAD DUP1 PUSH1 0xA0 ADD PUSH1 0x40 MSTORE DUP1 CALLER PUSH20 0xFFFFFFFFFFFFFFFFFFFFFFFFFFFFFFFFFFFFFFFF AND DUP2 MSTORE PUSH1 0x20 ADD PUSH0 PUSH20 0xFFFFFFFFFFFFFFFFFFFFFFFFFFFFFFFFFFFFFFFF AND DUP2 MSTORE PUSH1 0x20 ADD DUP4 DUP2 MSTORE PUSH1 0x20 ADD PUSH0 ISZERO ISZERO DUP2 MSTORE PUSH1 0x20 ADD PUSH0 PUSH20 0xFFFFFFFFFFFFFFFFFFFFFFFFFFFFFFFFFFFFFFFF AND DUP2 MSTORE POP PUSH1 0xA PUSH0 DUP4 DUP2 MSTORE PUSH1 0x20 ADD SWAP1 DUP2 MSTORE PUSH1 0x20 ADD PUSH0 KECCAK256 PUSH0 DUP3 ADD MLOAD DUP2 PUSH0 ADD PUSH0 PUSH2 0x100 EXP DUP2 SLOAD DUP2 PUSH20 0xFFFFFFFFFFFFFFFFFFFFFFFFFFFFFFFFFFFFFFFF MUL NOT AND SWAP1 DUP4 PUSH20 0xFFFFFFFFFFFFFFFFFFFFFFFFFFFFFFFFFFFFFFFF AND MUL OR SWAP1 SSTORE POP PUSH1 0x20 DUP3 ADD MLOAD DUP2 PUSH1 0x1 ADD PUSH0 PUSH2 0x100 EXP DUP2 SLOAD DUP2 PUSH20 0xFFFFFFFFFFFFFFFFFFFFFFFFFFFFFFFFFFFFFFFF MUL NOT AND SWAP1 DUP4 PUSH20 0xFFFFFFFFFFFFFFFFFFFFFFFFFFFFFFFFFFFFFFFF AND MUL OR SWAP1 SSTORE POP PUSH1 0x40 DUP3 ADD MLOAD DUP2 PUSH1 0x2 ADD SSTORE PUSH1 0x60 DUP3 ADD MLOAD DUP2 PUSH1 0x3 ADD PUSH0 PUSH2 0x100 EXP DUP2 SLOAD DUP2 PUSH1 0xFF MUL NOT AND SWAP1 DUP4 ISZERO ISZERO MUL OR SWAP1 SSTORE POP PUSH1 0x80 DUP3 ADD MLOAD DUP2 PUSH1 0x3 ADD PUSH1 0x1 PUSH2 0x100 EXP DUP2 SLOAD DUP2 PUSH20 0xFFFFFFFFFFFFFFFFFFFFFFFFFFFFFFFFFFFFFFFF MUL NOT AND SWAP1 DUP4 PUSH20 0xFFFFFFFFFFFFFFFFFFFFFFFFFFFFFFFFFFFFFFFF AND MUL OR SWAP1 SSTORE POP SWAP1 POP POP PUSH1 0xC DUP2 SWAP1 DUP1 PUSH1 0x1 DUP2 SLOAD ADD DUP1 DUP3 SSTORE DUP1 SWAP2 POP POP PUSH1 0x1 SWAP1 SUB SWAP1 PUSH0 MSTORE PUSH1 0x20 PUSH0 KECCAK256 ADD PUSH0 SWAP1 SWAP2 SWAP1 SWAP2 SWAP1 SWAP2 POP SSTORE CALLER PUSH20 0xFFFFFFFFFFFFFFFFFFFFFFFFFFFFFFFFFFFFFFFF AND DUP2 PUSH32 0xC82908456D66C43E9DE63EDD66F9FAF875C8F3A12F936E162D675EC42C35444 DUP5 PUSH1 0x40 MLOAD PUSH2 0xE38 SWAP2 SWAP1 PUSH2 0x1DDB JUMP JUMPDEST PUSH1 0x40 MLOAD DUP1 SWAP2 SUB SWAP1 LOG3 POP POP JUMP JUMPDEST PUSH0 PUSH1 0xA PUSH0 DUP4 DUP2 MSTORE PUSH1 0x20 ADD SWAP1 DUP2 MSTORE PUSH1 0x20 ADD PUSH0 KECCAK256 SWAP1 POP DUP1 PUSH1 0x3 ADD PUSH0 SWAP1 SLOAD SWAP1 PUSH2 0x100 EXP SWAP1 DIV PUSH1 0xFF AND ISZERO PUSH2 0xEA9 JUMPI PUSH1 0x40 MLOAD PUSH32 0x8C379A000000000000000000000000000000000000000000000000000000000 DUP2 MSTORE PUSH1 0x4 ADD PUSH2 0xEA0 SWAP1 PUSH2 0x1FA0 JUMP JUMPDEST PUSH1 0x40 MLOAD DUP1 SWAP2 SUB SWAP1 REVERT JUMPDEST PUSH0 PUSH20 0xFFFFFFFFFFFFFFFFFFFFFFFFFFFFFFFFFFFFFFFF AND DUP2 PUSH1 0x1 ADD PUSH0 SWAP1 SLOAD SWAP1 PUSH2 0x100 EXP SWAP1 DIV PUSH20 0xFFFFFFFFFFFFFFFFFFFFFFFFFFFFFFFFFFFFFFFF AND PUSH20 0xFFFFFFFFFFFFFFFFFFFFFFFFFFFFFFFFFFFFFFFF AND EQ PUSH2 0xF3A JUMPI PUSH1 0x40 MLOAD PUSH32 0x8C379A000000000000000000000000000000000000000000000000000000000 DUP2 MSTORE PUSH1 0x4 ADD PUSH2 0xF31 SWAP1 PUSH2 0x2008 JUMP JUMPDEST PUSH1 0x40 MLOAD DUP1 SWAP2 SUB SWAP1 REVERT JUMPDEST DUP1 PUSH1 0x2 ADD SLOAD CALLVALUE EQ PUSH2 0xF80 JUMPI PUSH1 0x40 MLOAD PUSH32 0x8C379A000000000000000000000000000000000000000000000000000000000 DUP2 MSTORE PUSH1 0x4 ADD PUSH2 0xF77 SWAP1 PUSH2 0x21CE JUMP JUMPDEST PUSH1 0x40 MLOAD DUP1 SWAP2 SUB SWAP1 REVERT JUMPDEST PUSH0 PUSH20 0xFFFFFFFFFFFFFFFFFFFFFFFFFFFFFFFFFFFFFFFF AND DUP2 PUSH0 ADD PUSH0 SWAP1 SLOAD SWAP1 PUSH2 0x100 EXP SWAP1 DIV PUSH20 0xFFFFFFFFFFFFFFFFFFFFFFFFFFFFFFFFFFFFFFFF AND PUSH20 0xFFFFFFFFFFFFFFFFFFFFFFFFFFFFFFFFFFFFFFFF AND SUB PUSH2 0x1010 JUMPI PUSH1 0x40 MLOAD PUSH32 0x8C379A000000000000000000000000000000000000000000000000000000000 DUP2 MSTORE PUSH1 0x4 ADD PUSH2 0x1007 SWAP1 PUSH2 0x1F38 JUMP JUMPDEST PUSH1 0x40 MLOAD DUP1 SWAP2 SUB SWAP1 REVERT JUMPDEST DUP1 PUSH0 ADD PUSH0 SWAP1 SLOAD SWAP1 PUSH2 0x100 EXP SWAP1 DIV PUSH20 0xFFFFFFFFFFFFFFFFFFFFFFFFFFFFFFFFFFFFFFFF AND PUSH20 0xFFFFFFFFFFFFFFFFFFFFFFFFFFFFFFFFFFFFFFFF AND CALLER PUSH20 0xFFFFFFFFFFFFFFFFFFFFFFFFFFFFFFFFFFFFFFFF AND SUB PUSH2 0x10A0 JUMPI PUSH1 0x40 MLOAD PUSH32 0x8C379A000000000000000000000000000000000000000000000000000000000 DUP2 MSTORE PUSH1 0x4 ADD PUSH2 0x1097 SWAP1 PUSH2 0x2236 JUMP JUMPDEST PUSH1 0x40 MLOAD DUP1 SWAP2 SUB SWAP1 REVERT JUMPDEST CALLER DUP2 PUSH1 0x1 ADD PUSH0 PUSH2 0x100 EXP DUP2 SLOAD DUP2 PUSH20 0xFFFFFFFFFFFFFFFFFFFFFFFFFFFFFFFFFFFFFFFF MUL NOT AND SWAP1 DUP4 PUSH20 0xFFFFFFFFFFFFFFFFFFFFFFFFFFFFFFFFFFFFFFFF AND MUL OR SWAP1 SSTORE POP PUSH0 PUSH2 0x10EB PUSH2 0x1409 JUMP JUMPDEST SWAP1 POP DUP3 PUSH1 0xB PUSH0 DUP4 DUP2 MSTORE PUSH1 0x20 ADD SWAP1 DUP2 MSTORE PUSH1 0x20 ADD PUSH0 KECCAK256 DUP2 SWAP1 SSTORE POP CALLER PUSH20 0xFFFFFFFFFFFFFFFFFFFFFFFFFFFFFFFFFFFFFFFF AND DUP4 PUSH32 0x87969BC7FAF902221A147B95CEBA76E011C5EFB0339A0A8EE7A2BB82D9CFBBD6 PUSH1 0x40 MLOAD PUSH1 0x40 MLOAD DUP1 SWAP2 SUB SWAP1 LOG3 POP POP POP JUMP JUMPDEST PUSH2 0x1154 PUSH2 0x1277 JUMP JUMPDEST PUSH2 0x115D DUP2 PUSH2 0x1648 JUMP JUMPDEST POP JUMP JUMPDEST PUSH1 0x5 SLOAD DUP2 JUMP JUMPDEST PUSH1 0x8 PUSH0 DUP4 DUP2 MSTORE PUSH1 0x20 ADD SWAP1 DUP2 MSTORE PUSH1 0x20 ADD PUSH0 KECCAK256 PUSH0 ADD PUSH1 0x1 SWAP1 SLOAD SWAP1 PUSH2 0x100 EXP SWAP1 DIV PUSH1 0xFF AND PUSH2 0x11C6 JUMPI PUSH1 0x40 MLOAD PUSH32 0x8C379A000000000000000000000000000000000000000000000000000000000 DUP2 MSTORE PUSH1 0x4 ADD PUSH2 0x11BD SWAP1 PUSH2 0x20D8 JUMP JUMPDEST PUSH1 0x40 MLOAD DUP1 SWAP2 SUB SWAP1 REVERT JUMPDEST PUSH1 0x1 PUSH1 0x8 PUSH0 DUP5 DUP2 MSTORE PUSH1 0x20 ADD SWAP1 DUP2 MSTORE PUSH1 0x20 ADD PUSH0 KECCAK256 PUSH0 ADD PUSH0 PUSH2 0x100 EXP DUP2 SLOAD DUP2 PUSH1 0xFF MUL NOT AND SWAP1 DUP4 ISZERO ISZERO MUL OR SWAP1 SSTORE POP DUP1 PUSH1 0x8 PUSH0 DUP5 DUP2 MSTORE PUSH1 0x20 ADD SWAP1 DUP2 MSTORE PUSH1 0x20 ADD PUSH0 KECCAK256 PUSH1 0x1 ADD SWAP1 DUP1 MLOAD SWAP1 PUSH1 0x20 ADD SWAP1 PUSH2 0x1219 SWAP3 SWAP2 SWAP1 PUSH2 0x19CC JUMP JUMPDEST POP PUSH0 PUSH1 0xB PUSH0 DUP5 DUP2 MSTORE PUSH1 0x20 ADD SWAP1 DUP2 MSTORE PUSH1 0x20 ADD PUSH0 KECCAK256 SLOAD SWAP1 POP PUSH2 0x1239 DUP2 DUP4 PUSH2 0x1772 JUMP JUMPDEST PUSH32 0xFE2E2D779DBA245964D4E3EF9B994BE63856FD568BF7D3CA9E224755CB1BD54D DUP4 DUP4 PUSH1 0x40 MLOAD PUSH2 0x126A SWAP3 SWAP2 SWAP1 PUSH2 0x2254 JUMP JUMPDEST PUSH1 0x40 MLOAD DUP1 SWAP2 SUB SWAP1 LOG1 POP POP POP JUMP JUMPDEST PUSH0 DUP1 SLOAD SWAP1 PUSH2 0x100 EXP SWAP1 DIV PUSH20 0xFFFFFFFFFFFFFFFFFFFFFFFFFFFFFFFFFFFFFFFF AND PUSH20 0xFFFFFFFFFFFFFFFFFFFFFFFFFFFFFFFFFFFFFFFF AND CALLER PUSH20 0xFFFFFFFFFFFFFFFFFFFFFFFFFFFFFFFFFFFFFFFF AND EQ PUSH2 0x1304 JUMPI PUSH1 0x40 MLOAD PUSH32 0x8C379A000000000000000000000000000000000000000000000000000000000 DUP2 MSTORE PUSH1 0x4 ADD PUSH2 0x12FB SWAP1 PUSH2 0x22CC JUMP JUMPDEST PUSH1 0x40 MLOAD DUP1 SWAP2 SUB SWAP1 REVERT JUMPDEST JUMP JUMPDEST PUSH0 JUMPDEST PUSH1 0xC DUP1 SLOAD SWAP1 POP DUP2 LT ISZERO PUSH2 0x13BD JUMPI DUP2 PUSH1 0xC DUP3 DUP2 SLOAD DUP2 LT PUSH2 0x132A JUMPI PUSH2 0x1329 PUSH2 0x22EA JUMP JUMPDEST JUMPDEST SWAP1 PUSH0 MSTORE PUSH1 0x20 PUSH0 KECCAK256 ADD SLOAD SUB PUSH2 0x13B0 JUMPI PUSH1 0xC PUSH1 0x1 PUSH1 0xC DUP1 SLOAD SWAP1 POP PUSH2 0x134C SWAP2 SWAP1 PUSH2 0x2344 JUMP JUMPDEST DUP2 SLOAD DUP2 LT PUSH2 0x135D JUMPI PUSH2 0x135C PUSH2 0x22EA JUMP JUMPDEST JUMPDEST SWAP1 PUSH0 MSTORE PUSH1 0x20 PUSH0 KECCAK256 ADD SLOAD PUSH1 0xC DUP3 DUP2 SLOAD DUP2 LT PUSH2 0x137A JUMPI PUSH2 0x1379 PUSH2 0x22EA JUMP JUMPDEST JUMPDEST SWAP1 PUSH0 MSTORE PUSH1 0x20 PUSH0 KECCAK256 ADD DUP2 SWAP1 SSTORE POP PUSH1 0xC DUP1 SLOAD DUP1 PUSH2 0x1398 JUMPI PUSH2 0x1397 PUSH2 0x2377 JUMP JUMPDEST JUMPDEST PUSH1 0x1 SWAP1 SUB DUP2 DUP2 SWAP1 PUSH0 MSTORE PUSH1 0x20 PUSH0 KECCAK256 ADD PUSH0 SWAP1 SSTORE SWAP1 SSTORE PUSH2 0x13BD JUMP JUMPDEST DUP1 DUP1 PUSH1 0x1 ADD SWAP2 POP POP PUSH2 0x1308 JUMP JUMPDEST POP POP JUMP JUMPDEST PUSH0 TIMESTAMP CALLER PUSH1 0x2 PUSH0 DUP2 SLOAD DUP1 SWAP3 SWAP2 SWAP1 PUSH2 0x13D6 SWAP1 PUSH2 0x23A4 JUMP JUMPDEST SWAP2 SWAP1 POP SSTORE PUSH1 0x40 MLOAD PUSH1 0x20 ADD PUSH2 0x13EC SWAP4 SWAP3 SWAP2 SWAP1 PUSH2 0x2450 JUMP JUMPDEST PUSH1 0x40 MLOAD PUSH1 0x20 DUP2 DUP4 SUB SUB DUP2 MSTORE SWAP1 PUSH1 0x40 MSTORE DUP1 MLOAD SWAP1 PUSH1 0x20 ADD KECCAK256 PUSH0 SHR SWAP1 POP SWAP1 JUMP JUMPDEST PUSH0 PUSH1 0x9 PUSH0 SWAP1 SLOAD SWAP1 PUSH2 0x100 EXP SWAP1 DIV PUSH20 0xFFFFFFFFFFFFFFFFFFFFFFFFFFFFFFFFFFFFFFFF AND PUSH20 0xFFFFFFFFFFFFFFFFFFFFFFFFFFFFFFFFFFFFFFFF AND PUSH4 0x5D3B1D30 PUSH1 0x6 SLOAD PUSH1 0x3 PUSH0 SWAP1 SLOAD SWAP1 PUSH2 0x100 EXP SWAP1 DIV PUSH8 0xFFFFFFFFFFFFFFFF AND PUSH1 0x7 PUSH1 0x4 SWAP1 SLOAD SWAP1 PUSH2 0x100 EXP SWAP1 DIV PUSH2 0xFFFF AND PUSH1 0x7 PUSH0 SWAP1 SLOAD SWAP1 PUSH2 0x100 EXP SWAP1 DIV PUSH4 0xFFFFFFFF AND PUSH1 0x7 PUSH1 0x6 SWAP1 SLOAD SWAP1 PUSH2 0x100 EXP SWAP1 DIV PUSH4 0xFFFFFFFF AND PUSH1 0x40 MLOAD DUP7 PUSH4 0xFFFFFFFF AND PUSH1 0xE0 SHL DUP2 MSTORE PUSH1 0x4 ADD PUSH2 0x14B6 SWAP6 SWAP5 SWAP4 SWAP3 SWAP2 SWAP1 PUSH2 0x2500 JUMP JUMPDEST PUSH1 0x20 PUSH1 0x40 MLOAD DUP1 DUP4 SUB DUP2 PUSH0 DUP8 GAS CALL ISZERO DUP1 ISZERO PUSH2 0x14D2 JUMPI RETURNDATASIZE PUSH0 DUP1 RETURNDATACOPY RETURNDATASIZE PUSH0 REVERT JUMPDEST POP POP POP POP PUSH1 0x40 MLOAD RETURNDATASIZE PUSH1 0x1F NOT PUSH1 0x1F DUP3 ADD AND DUP3 ADD DUP1 PUSH1 0x40 MSTORE POP DUP2 ADD SWAP1 PUSH2 0x14F6 SWAP2 SWAP1 PUSH2 0x2565 JUMP JUMPDEST SWAP1 POP PUSH1 0x40 MLOAD DUP1 PUSH1 0x60 ADD PUSH1 0x40 MSTORE DUP1 PUSH0 ISZERO ISZERO DUP2 MSTORE PUSH1 0x20 ADD PUSH1 0x1 ISZERO ISZERO DUP2 MSTORE PUSH1 0x20 ADD PUSH0 PUSH8 0xFFFFFFFFFFFFFFFF DUP2 GT ISZERO PUSH2 0x152E JUMPI PUSH2 0x152D PUSH2 0x1B6E JUMP JUMPDEST JUMPDEST PUSH1 0x40 MLOAD SWAP1 DUP1 DUP3 MSTORE DUP1 PUSH1 0x20 MUL PUSH1 0x20 ADD DUP3 ADD PUSH1 0x40 MSTORE DUP1 ISZERO PUSH2 0x155C JUMPI DUP2 PUSH1 0x20 ADD PUSH1 0x20 DUP3 MUL DUP1 CALLDATASIZE DUP4 CALLDATACOPY DUP1 DUP3 ADD SWAP2 POP POP SWAP1 POP JUMPDEST POP DUP2 MSTORE POP PUSH1 0x8 PUSH0 DUP4 DUP2 MSTORE PUSH1 0x20 ADD SWAP1 DUP2 MSTORE PUSH1 0x20 ADD PUSH0 KECCAK256 PUSH0 DUP3 ADD MLOAD DUP2 PUSH0 ADD PUSH0 PUSH2 0x100 EXP DUP2 SLOAD DUP2 PUSH1 0xFF MUL NOT AND SWAP1 DUP4 ISZERO ISZERO MUL OR SWAP1 SSTORE POP PUSH1 0x20 DUP3 ADD MLOAD DUP2 PUSH0 ADD PUSH1 0x1 PUSH2 0x100 EXP DUP2 SLOAD DUP2 PUSH1 0xFF MUL NOT AND SWAP1 DUP4 ISZERO ISZERO MUL OR SWAP1 SSTORE POP PUSH1 0x40 DUP3 ADD MLOAD DUP2 PUSH1 0x1 ADD SWAP1 DUP1 MLOAD SWAP1 PUSH1 0x20 ADD SWAP1 PUSH2 0x15C9 SWAP3 SWAP2 SWAP1 PUSH2 0x19CC JUMP JUMPDEST POP SWAP1 POP POP PUSH1 0x4 DUP2 SWAP1 DUP1 PUSH1 0x1 DUP2 SLOAD ADD DUP1 DUP3 SSTORE DUP1 SWAP2 POP POP PUSH1 0x1 SWAP1 SUB SWAP1 PUSH0 MSTORE PUSH1 0x20 PUSH0 KECCAK256 ADD PUSH0 SWAP1 SWAP2 SWAP1 SWAP2 SWAP1 SWAP2 POP SSTORE DUP1 PUSH1 0x5 DUP2 SWAP1 SSTORE POP PUSH32 0xCC58B13AD3EAB50626C6A6300B1D139CD6EBB1688A7CCED9461C2F7E762665EE DUP2 PUSH1 0x7 PUSH1 0x6 SWAP1 SLOAD SWAP1 PUSH2 0x100 EXP SWAP1 DIV PUSH4 0xFFFFFFFF AND PUSH1 0x40 MLOAD PUSH2 0x163D SWAP3 SWAP2 SWAP1 PUSH2 0x2590 JUMP JUMPDEST PUSH1 0x40 MLOAD DUP1 SWAP2 SUB SWAP1 LOG1 SWAP1 JUMP JUMPDEST CALLER PUSH20 0xFFFFFFFFFFFFFFFFFFFFFFFFFFFFFFFFFFFFFFFF AND DUP2 PUSH20 0xFFFFFFFFFFFFFFFFFFFFFFFFFFFFFFFFFFFFFFFF AND SUB PUSH2 0x16B6 JUMPI PUSH1 0x40 MLOAD PUSH32 0x8C379A000000000000000000000000000000000000000000000000000000000 DUP2 MSTORE PUSH1 0x4 ADD PUSH2 0x16AD SWAP1 PUSH2 0x2601 JUMP JUMPDEST PUSH1 0x40 MLOAD DUP1 SWAP2 SUB SWAP1 REVERT JUMPDEST DUP1 PUSH1 0x1 PUSH0 PUSH2 0x100 EXP DUP2 SLOAD DUP2 PUSH20 0xFFFFFFFFFFFFFFFFFFFFFFFFFFFFFFFFFFFFFFFF MUL NOT AND SWAP1 DUP4 PUSH20 0xFFFFFFFFFFFFFFFFFFFFFFFFFFFFFFFFFFFFFFFF AND MUL OR SWAP1 SSTORE POP DUP1 PUSH20 0xFFFFFFFFFFFFFFFFFFFFFFFFFFFFFFFFFFFFFFFF AND PUSH0 DUP1 SLOAD SWAP1 PUSH2 0x100 EXP SWAP1 DIV PUSH20 0xFFFFFFFFFFFFFFFFFFFFFFFFFFFFFFFFFFFFFFFF AND PUSH20 0xFFFFFFFFFFFFFFFFFFFFFFFFFFFFFFFFFFFFFFFF AND PUSH32 0xED8889F560326EB138920D842192F0EB3DD22B4F139C87A2C57538E05BAE1278 PUSH1 0x40 MLOAD PUSH1 0x40 MLOAD DUP1 SWAP2 SUB SWAP1 LOG3 POP JUMP JUMPDEST PUSH0 PUSH1 0xA PUSH0 DUP5 DUP2 MSTORE PUSH1 0x20 ADD SWAP1 DUP2 MSTORE PUSH1 0x20 ADD PUSH0 KECCAK256 SWAP1 POP DUP1 PUSH1 0x3 ADD PUSH0 SWAP1 SLOAD SWAP1 PUSH2 0x100 EXP SWAP1 DIV PUSH1 0xFF AND ISZERO PUSH2 0x17D7 JUMPI PUSH1 0x40 MLOAD PUSH32 0x8C379A000000000000000000000000000000000000000000000000000000000 DUP2 MSTORE PUSH1 0x4 ADD PUSH2 0x17CE SWAP1 PUSH2 0x2669 JUMP JUMPDEST PUSH1 0x40 MLOAD DUP1 SWAP2 SUB SWAP1 REVERT JUMPDEST PUSH0 DUP3 PUSH1 0x40 MLOAD PUSH1 0x20 ADD PUSH2 0x17E9 SWAP2 SWAP1 PUSH2 0x2713 JUMP JUMPDEST PUSH1 0x40 MLOAD PUSH1 0x20 DUP2 DUP4 SUB SUB DUP2 MSTORE SWAP1 PUSH1 0x40 MSTORE DUP1 MLOAD SWAP1 PUSH1 0x20 ADD KECCAK256 PUSH0 SHR SWAP1 POP PUSH0 PUSH1 0x2 DUP3 PUSH2 0x1811 SWAP2 SWAP1 PUSH2 0x2756 JUMP JUMPDEST EQ PUSH2 0x183F JUMPI DUP2 PUSH1 0x1 ADD PUSH0 SWAP1 SLOAD SWAP1 PUSH2 0x100 EXP SWAP1 DIV PUSH20 0xFFFFFFFFFFFFFFFFFFFFFFFFFFFFFFFFFFFFFFFF AND PUSH2 0x1863 JUMP JUMPDEST DUP2 PUSH0 ADD PUSH0 SWAP1 SLOAD SWAP1 PUSH2 0x100 EXP SWAP1 DIV PUSH20 0xFFFFFFFFFFFFFFFFFFFFFFFFFFFFFFFFFFFFFFFF AND JUMPDEST DUP3 PUSH1 0x3 ADD PUSH1 0x1 PUSH2 0x100 EXP DUP2 SLOAD DUP2 PUSH20 0xFFFFFFFFFFFFFFFFFFFFFFFFFFFFFFFFFFFFFFFF MUL NOT AND SWAP1 DUP4 PUSH20 0xFFFFFFFFFFFFFFFFFFFFFFFFFFFFFFFFFFFFFFFF AND MUL OR SWAP1 SSTORE POP PUSH1 0x1 DUP3 PUSH1 0x3 ADD PUSH0 PUSH2 0x100 EXP DUP2 SLOAD DUP2 PUSH1 0xFF MUL NOT AND SWAP1 DUP4 ISZERO ISZERO MUL OR SWAP1 SSTORE POP DUP2 PUSH1 0x3 ADD PUSH1 0x1 SWAP1 SLOAD SWAP1 PUSH2 0x100 EXP SWAP1 DIV PUSH20 0xFFFFFFFFFFFFFFFFFFFFFFFFFFFFFFFFFFFFFFFF AND PUSH20 0xFFFFFFFFFFFFFFFFFFFFFFFFFFFFFFFFFFFFFFFF AND PUSH2 0x8FC PUSH2 0x1917 PUSH1 0x2 DUP6 PUSH1 0x2 ADD SLOAD PUSH2 0x19B7 SWAP1 SWAP2 SWAP1 PUSH4 0xFFFFFFFF AND JUMP JUMPDEST SWAP1 DUP2 ISZERO MUL SWAP1 PUSH1 0x40 MLOAD PUSH0 PUSH1 0x40 MLOAD DUP1 DUP4 SUB DUP2 DUP6 DUP9 DUP9 CALL SWAP4 POP POP POP POP ISZERO DUP1 ISZERO PUSH2 0x193F JUMPI RETURNDATASIZE PUSH0 DUP1 RETURNDATACOPY RETURNDATASIZE PUSH0 REVERT JUMPDEST POP PUSH2 0x1949 DUP5 PUSH2 0x1306 JUMP JUMPDEST DUP2 PUSH1 0x3 ADD PUSH1 0x1 SWAP1 SLOAD SWAP1 PUSH2 0x100 EXP SWAP1 DIV PUSH20 0xFFFFFFFFFFFFFFFFFFFFFFFFFFFFFFFFFFFFFFFF AND PUSH20 0xFFFFFFFFFFFFFFFFFFFFFFFFFFFFFFFFFFFFFFFF AND DUP5 PUSH32 0x7F40DF5127524300187445E867486DA572AAB86769C0212E0B392BD87C4CA97F PUSH1 0x40 MLOAD PUSH1 0x40 MLOAD DUP1 SWAP2 SUB SWAP1 LOG3 POP POP POP POP JUMP JUMPDEST PUSH0 DUP2 DUP4 PUSH2 0x19C4 SWAP2 SWAP1 PUSH2 0x2786 JUMP JUMPDEST SWAP1 POP SWAP3 SWAP2 POP POP JUMP JUMPDEST DUP3 DUP1 SLOAD DUP3 DUP3 SSTORE SWAP1 PUSH0 MSTORE PUSH1 0x20 PUSH0 KECCAK256 SWAP1 DUP2 ADD SWAP3 DUP3 ISZERO PUSH2 0x1A06 JUMPI SWAP2 PUSH1 0x20 MUL DUP3 ADD JUMPDEST DUP3 DUP2 GT ISZERO PUSH2 0x1A05 JUMPI DUP3 MLOAD DUP3 SSTORE SWAP2 PUSH1 0x20 ADD SWAP2 SWAP1 PUSH1 0x1 ADD SWAP1 PUSH2 0x19EA JUMP JUMPDEST JUMPDEST POP SWAP1 POP PUSH2 0x1A13 SWAP2 SWAP1 PUSH2 0x1A17 JUMP JUMPDEST POP SWAP1 JUMP JUMPDEST JUMPDEST DUP1 DUP3 GT ISZERO PUSH2 0x1A2E JUMPI PUSH0 DUP2 PUSH0 SWAP1 SSTORE POP PUSH1 0x1 ADD PUSH2 0x1A18 JUMP JUMPDEST POP SWAP1 JUMP JUMPDEST PUSH0 PUSH1 0x40 MLOAD SWAP1 POP SWAP1 JUMP JUMPDEST PUSH0 DUP1 REVERT JUMPDEST PUSH0 DUP1 REVERT JUMPDEST PUSH0 DUP2 SWAP1 POP SWAP2 SWAP1 POP JUMP JUMPDEST PUSH2 0x1A55 DUP2 PUSH2 0x1A43 JUMP JUMPDEST DUP2 EQ PUSH2 0x1A5F JUMPI PUSH0 DUP1 REVERT JUMPDEST POP JUMP JUMPDEST PUSH0 DUP2 CALLDATALOAD SWAP1 POP PUSH2 0x1A70 DUP2 PUSH2 0x1A4C JUMP JUMPDEST SWAP3 SWAP2 POP POP JUMP JUMPDEST PUSH0 PUSH1 0x20 DUP3 DUP5 SUB SLT ISZERO PUSH2 0x1A8B JUMPI PUSH2 0x1A8A PUSH2 0x1A3B JUMP JUMPDEST JUMPDEST PUSH0 PUSH2 0x1A98 DUP5 DUP3 DUP6 ADD PUSH2 0x1A62 JUMP JUMPDEST SWAP2 POP POP SWAP3 SWAP2 POP POP JUMP JUMPDEST PUSH0 PUSH20 0xFFFFFFFFFFFFFFFFFFFFFFFFFFFFFFFFFFFFFFFF DUP3 AND SWAP1 POP SWAP2 SWAP1 POP JUMP JUMPDEST PUSH0 PUSH2 0x1ACA DUP3 PUSH2 0x1AA1 JUMP JUMPDEST SWAP1 POP SWAP2 SWAP1 POP JUMP JUMPDEST PUSH2 0x1ADA DUP2 PUSH2 0x1AC0 JUMP JUMPDEST DUP3 MSTORE POP POP JUMP JUMPDEST PUSH2 0x1AE9 DUP2 PUSH2 0x1A43 JUMP JUMPDEST DUP3 MSTORE POP POP JUMP JUMPDEST PUSH0 DUP2 ISZERO ISZERO SWAP1 POP SWAP2 SWAP1 POP JUMP JUMPDEST PUSH2 0x1B03 DUP2 PUSH2 0x1AEF JUMP JUMPDEST DUP3 MSTORE POP POP JUMP JUMPDEST PUSH0 PUSH1 0xA0 DUP3 ADD SWAP1 POP PUSH2 0x1B1C PUSH0 DUP4 ADD DUP9 PUSH2 0x1AD1 JUMP JUMPDEST PUSH2 0x1B29 PUSH1 0x20 DUP4 ADD DUP8 PUSH2 0x1AD1 JUMP JUMPDEST PUSH2 0x1B36 PUSH1 0x40 DUP4 ADD DUP7 PUSH2 0x1AE0 JUMP JUMPDEST PUSH2 0x1B43 PUSH1 0x60 DUP4 ADD DUP6 PUSH2 0x1AFA JUMP JUMPDEST PUSH2 0x1B50 PUSH1 0x80 DUP4 ADD DUP5 PUSH2 0x1AD1 JUMP JUMPDEST SWAP7 SWAP6 POP POP POP POP POP POP JUMP JUMPDEST PUSH0 DUP1 REVERT JUMPDEST PUSH0 PUSH1 0x1F NOT PUSH1 0x1F DUP4 ADD AND SWAP1 POP SWAP2 SWAP1 POP JUMP JUMPDEST PUSH32 0x4E487B7100000000000000000000000000000000000000000000000000000000 PUSH0 MSTORE PUSH1 0x41 PUSH1 0x4 MSTORE PUSH1 0x24 PUSH0 REVERT JUMPDEST PUSH2 0x1BA4 DUP3 PUSH2 0x1B5E JUMP JUMPDEST DUP2 ADD DUP2 DUP2 LT PUSH8 0xFFFFFFFFFFFFFFFF DUP3 GT OR ISZERO PUSH2 0x1BC3 JUMPI PUSH2 0x1BC2 PUSH2 0x1B6E JUMP JUMPDEST JUMPDEST DUP1 PUSH1 0x40 MSTORE POP POP POP JUMP JUMPDEST PUSH0 PUSH2 0x1BD5 PUSH2 0x1A32 JUMP JUMPDEST SWAP1 POP PUSH2 0x1BE1 DUP3 DUP3 PUSH2 0x1B9B JUMP JUMPDEST SWAP2 SWAP1 POP JUMP JUMPDEST PUSH0 PUSH8 0xFFFFFFFFFFFFFFFF DUP3 GT ISZERO PUSH2 0x1C00 JUMPI PUSH2 0x1BFF PUSH2 0x1B6E JUMP JUMPDEST JUMPDEST PUSH1 0x20 DUP3 MUL SWAP1 POP PUSH1 0x20 DUP2 ADD SWAP1 POP SWAP2 SWAP1 POP JUMP JUMPDEST PUSH0 DUP1 REVERT JUMPDEST PUSH0 PUSH2 0x1C27 PUSH2 0x1C22 DUP5 PUSH2 0x1BE6 JUMP JUMPDEST PUSH2 0x1BCC JUMP JUMPDEST SWAP1 POP DUP1 DUP4 DUP3 MSTORE PUSH1 0x20 DUP3 ADD SWAP1 POP PUSH1 0x20 DUP5 MUL DUP4 ADD DUP6 DUP2 GT ISZERO PUSH2 0x1C4A JUMPI PUSH2 0x1C49 PUSH2 0x1C11 JUMP JUMPDEST JUMPDEST DUP4 JUMPDEST DUP2 DUP2 LT ISZERO PUSH2 0x1C73 JUMPI DUP1 PUSH2 0x1C5F DUP9 DUP3 PUSH2 0x1A62 JUMP JUMPDEST DUP5 MSTORE PUSH1 0x20 DUP5 ADD SWAP4 POP POP PUSH1 0x20 DUP2 ADD SWAP1 POP PUSH2 0x1C4C JUMP JUMPDEST POP POP POP SWAP4 SWAP3 POP POP POP JUMP JUMPDEST PUSH0 DUP3 PUSH1 0x1F DUP4 ADD SLT PUSH2 0x1C91 JUMPI PUSH2 0x1C90 PUSH2 0x1B5A JUMP JUMPDEST JUMPDEST DUP2 CALLDATALOAD PUSH2 0x1CA1 DUP5 DUP3 PUSH1 0x20 DUP7 ADD PUSH2 0x1C15 JUMP JUMPDEST SWAP2 POP POP SWAP3 SWAP2 POP POP JUMP JUMPDEST PUSH0 DUP1 PUSH1 0x40 DUP4 DUP6 SUB SLT ISZERO PUSH2 0x1CC0 JUMPI PUSH2 0x1CBF PUSH2 0x1A3B JUMP JUMPDEST JUMPDEST PUSH0 PUSH2 0x1CCD DUP6 DUP3 DUP7 ADD PUSH2 0x1A62 JUMP JUMPDEST SWAP3 POP POP PUSH1 0x20 DUP4 ADD CALLDATALOAD PUSH8 0xFFFFFFFFFFFFFFFF DUP2 GT ISZERO PUSH2 0x1CEE JUMPI PUSH2 0x1CED PUSH2 0x1A3F JUMP JUMPDEST JUMPDEST PUSH2 0x1CFA DUP6 DUP3 DUP7 ADD PUSH2 0x1C7D JUMP JUMPDEST SWAP2 POP POP SWAP3 POP SWAP3 SWAP1 POP JUMP JUMPDEST PUSH0 DUP2 MLOAD SWAP1 POP SWAP2 SWAP1 POP JUMP JUMPDEST PUSH0 DUP3 DUP3 MSTORE PUSH1 0x20 DUP3 ADD SWAP1 POP SWAP3 SWAP2 POP POP JUMP JUMPDEST PUSH0 DUP2 SWAP1 POP PUSH1 0x20 DUP3 ADD SWAP1 POP SWAP2 SWAP1 POP JUMP JUMPDEST PUSH2 0x1D36 DUP2 PUSH2 0x1A43 JUMP JUMPDEST DUP3 MSTORE POP POP JUMP JUMPDEST PUSH0 PUSH2 0x1D47 DUP4 DUP4 PUSH2 0x1D2D JUMP JUMPDEST PUSH1 0x20 DUP4 ADD SWAP1 POP SWAP3 SWAP2 POP POP JUMP JUMPDEST PUSH0 PUSH1 0x20 DUP3 ADD SWAP1 POP SWAP2 SWAP1 POP JUMP JUMPDEST PUSH0 PUSH2 0x1D69 DUP3 PUSH2 0x1D04 JUMP JUMPDEST PUSH2 0x1D73 DUP2 DUP6 PUSH2 0x1D0E JUMP JUMPDEST SWAP4 POP PUSH2 0x1D7E DUP4 PUSH2 0x1D1E JUMP JUMPDEST DUP1 PUSH0 JUMPDEST DUP4 DUP2 LT ISZERO PUSH2 0x1DAE JUMPI DUP2 MLOAD PUSH2 0x1D95 DUP9 DUP3 PUSH2 0x1D3C JUMP JUMPDEST SWAP8 POP PUSH2 0x1DA0 DUP4 PUSH2 0x1D53 JUMP JUMPDEST SWAP3 POP POP PUSH1 0x1 DUP2 ADD SWAP1 POP PUSH2 0x1D81 JUMP JUMPDEST POP DUP6 SWAP4 POP POP POP POP SWAP3 SWAP2 POP POP JUMP JUMPDEST PUSH0 PUSH1 0x20 DUP3 ADD SWAP1 POP DUP2 DUP2 SUB PUSH0 DUP4 ADD MSTORE PUSH2 0x1DD3 DUP2 DUP5 PUSH2 0x1D5F JUMP JUMPDEST SWAP1 POP SWAP3 SWAP2 POP POP JUMP JUMPDEST PUSH0 PUSH1 0x20 DUP3 ADD SWAP1 POP PUSH2 0x1DEE PUSH0 DUP4 ADD DUP5 PUSH2 0x1AE0 JUMP JUMPDEST SWAP3 SWAP2 POP POP JUMP JUMPDEST PUSH0 PUSH1 0x20 DUP3 ADD SWAP1 POP PUSH2 0x1E07 PUSH0 DUP4 ADD DUP5 PUSH2 0x1AD1 JUMP JUMPDEST SWAP3 SWAP2 POP POP JUMP JUMPDEST PUSH0 PUSH1 0x40 DUP3 ADD SWAP1 POP PUSH2 0x1E20 PUSH0 DUP4 ADD DUP6 PUSH2 0x1AFA JUMP JUMPDEST PUSH2 0x1E2D PUSH1 0x20 DUP4 ADD DUP5 PUSH2 0x1AFA JUMP JUMPDEST SWAP4 SWAP3 POP POP POP JUMP JUMPDEST PUSH0 PUSH1 0x40 DUP3 ADD SWAP1 POP PUSH2 0x1E47 PUSH0 DUP4 ADD DUP6 PUSH2 0x1AFA JUMP JUMPDEST DUP2 DUP2 SUB PUSH1 0x20 DUP4 ADD MSTORE PUSH2 0x1E59 DUP2 DUP5 PUSH2 0x1D5F JUMP JUMPDEST SWAP1 POP SWAP4 SWAP3 POP POP POP JUMP JUMPDEST PUSH2 0x1E6B DUP2 PUSH2 0x1AC0 JUMP JUMPDEST DUP2 EQ PUSH2 0x1E75 JUMPI PUSH0 DUP1 REVERT JUMPDEST POP JUMP JUMPDEST PUSH0 DUP2 CALLDATALOAD SWAP1 POP PUSH2 0x1E86 DUP2 PUSH2 0x1E62 JUMP JUMPDEST SWAP3 SWAP2 POP POP JUMP JUMPDEST PUSH0 PUSH1 0x20 DUP3 DUP5 SUB SLT ISZERO PUSH2 0x1EA1 JUMPI PUSH2 0x1EA0 PUSH2 0x1A3B JUMP JUMPDEST JUMPDEST PUSH0 PUSH2 0x1EAE DUP5 DUP3 DUP6 ADD PUSH2 0x1E78 JUMP JUMPDEST SWAP2 POP POP SWAP3 SWAP2 POP POP JUMP JUMPDEST PUSH0 PUSH1 0x40 DUP3 ADD SWAP1 POP PUSH2 0x1ECA PUSH0 DUP4 ADD DUP6 PUSH2 0x1AD1 JUMP JUMPDEST PUSH2 0x1ED7 PUSH1 0x20 DUP4 ADD DUP5 PUSH2 0x1AD1 JUMP JUMPDEST SWAP4 SWAP3 POP POP POP JUMP JUMPDEST PUSH0 DUP3 DUP3 MSTORE PUSH1 0x20 DUP3 ADD SWAP1 POP SWAP3 SWAP2 POP POP JUMP JUMPDEST PUSH32 0x47616D6520646F6573206E6F7420657869737400000000000000000000000000 PUSH0 DUP3 ADD MSTORE POP JUMP JUMPDEST PUSH0 PUSH2 0x1F22 PUSH1 0x13 DUP4 PUSH2 0x1EDE JUMP JUMPDEST SWAP2 POP PUSH2 0x1F2D DUP3 PUSH2 0x1EEE JUMP JUMPDEST PUSH1 0x20 DUP3 ADD SWAP1 POP SWAP2 SWAP1 POP JUMP JUMPDEST PUSH0 PUSH1 0x20 DUP3 ADD SWAP1 POP DUP2 DUP2 SUB PUSH0 DUP4 ADD MSTORE PUSH2 0x1F4F DUP2 PUSH2 0x1F16 JUMP JUMPDEST SWAP1 POP SWAP2 SWAP1 POP JUMP JUMPDEST PUSH32 0x47616D6520697320636F6D706C65746564000000000000000000000000000000 PUSH0 DUP3 ADD MSTORE POP JUMP JUMPDEST PUSH0 PUSH2 0x1F8A PUSH1 0x11 DUP4 PUSH2 0x1EDE JUMP JUMPDEST SWAP2 POP PUSH2 0x1F95 DUP3 PUSH2 0x1F56 JUMP JUMPDEST PUSH1 0x20 DUP3 ADD SWAP1 POP SWAP2 SWAP1 POP JUMP JUMPDEST PUSH0 PUSH1 0x20 DUP3 ADD SWAP1 POP DUP2 DUP2 SUB PUSH0 DUP4 ADD MSTORE PUSH2 0x1FB7 DUP2 PUSH2 0x1F7E JUMP JUMPDEST SWAP1 POP SWAP2 SWAP1 POP JUMP JUMPDEST PUSH32 0x47616D6520697320616C7265616479206A6F696E656400000000000000000000 PUSH0 DUP3 ADD MSTORE POP JUMP JUMPDEST PUSH0 PUSH2 0x1FF2 PUSH1 0x16 DUP4 PUSH2 0x1EDE JUMP JUMPDEST SWAP2 POP PUSH2 0x1FFD DUP3 PUSH2 0x1FBE JUMP JUMPDEST PUSH1 0x20 DUP3 ADD SWAP1 POP SWAP2 SWAP1 POP JUMP JUMPDEST PUSH0 PUSH1 0x20 DUP3 ADD SWAP1 POP DUP2 DUP2 SUB PUSH0 DUP4 ADD MSTORE PUSH2 0x201F DUP2 PUSH2 0x1FE6 JUMP JUMPDEST SWAP1 POP SWAP2 SWAP1 POP JUMP JUMPDEST PUSH32 0x4D7573742062652070726F706F736564206F776E657200000000000000000000 PUSH0 DUP3 ADD MSTORE POP JUMP JUMPDEST PUSH0 PUSH2 0x205A PUSH1 0x16 DUP4 PUSH2 0x1EDE JUMP JUMPDEST SWAP2 POP PUSH2 0x2065 DUP3 PUSH2 0x2026 JUMP JUMPDEST PUSH1 0x20 DUP3 ADD SWAP1 POP SWAP2 SWAP1 POP JUMP JUMPDEST PUSH0 PUSH1 0x20 DUP3 ADD SWAP1 POP DUP2 DUP2 SUB PUSH0 DUP4 ADD MSTORE PUSH2 0x2087 DUP2 PUSH2 0x204E JUMP JUMPDEST SWAP1 POP SWAP2 SWAP1 POP JUMP JUMPDEST PUSH32 0x72657175657374206E6F7420666F756E64000000000000000000000000000000 PUSH0 DUP3 ADD MSTORE POP JUMP JUMPDEST PUSH0 PUSH2 0x20C2 PUSH1 0x11 DUP4 PUSH2 0x1EDE JUMP JUMPDEST SWAP2 POP PUSH2 0x20CD DUP3 PUSH2 0x208E JUMP JUMPDEST PUSH1 0x20 DUP3 ADD SWAP1 POP SWAP2 SWAP1 POP JUMP JUMPDEST PUSH0 PUSH1 0x20 DUP3 ADD SWAP1 POP DUP2 DUP2 SUB PUSH0 DUP4 ADD MSTORE PUSH2 0x20EF DUP2 PUSH2 0x20B6 JUMP JUMPDEST SWAP1 POP SWAP2 SWAP1 POP JUMP JUMPDEST PUSH32 0x576167657220616D6F756E74206973206C657373207468616E206D696E696D75 PUSH0 DUP3 ADD MSTORE PUSH32 0x6D57616765720000000000000000000000000000000000000000000000000000 PUSH1 0x20 DUP3 ADD MSTORE POP JUMP JUMPDEST PUSH0 PUSH2 0x2150 PUSH1 0x26 DUP4 PUSH2 0x1EDE JUMP JUMPDEST SWAP2 POP PUSH2 0x215B DUP3 PUSH2 0x20F6 JUMP JUMPDEST PUSH1 0x40 DUP3 ADD SWAP1 POP SWAP2 SWAP1 POP JUMP JUMPDEST PUSH0 PUSH1 0x20 DUP3 ADD SWAP1 POP DUP2 DUP2 SUB PUSH0 DUP4 ADD MSTORE PUSH2 0x217D DUP2 PUSH2 0x2144 JUMP JUMPDEST SWAP1 POP SWAP2 SWAP1 POP JUMP JUMPDEST PUSH32 0x496E636F727265637420616D6F756E742073656E740000000000000000000000 PUSH0 DUP3 ADD MSTORE POP JUMP JUMPDEST PUSH0 PUSH2 0x21B8 PUSH1 0x15 DUP4 PUSH2 0x1EDE JUMP JUMPDEST SWAP2 POP PUSH2 0x21C3 DUP3 PUSH2 0x2184 JUMP JUMPDEST PUSH1 0x20 DUP3 ADD SWAP1 POP SWAP2 SWAP1 POP JUMP JUMPDEST PUSH0 PUSH1 0x20 DUP3 ADD SWAP1 POP DUP2 DUP2 SUB PUSH0 DUP4 ADD MSTORE PUSH2 0x21E5 DUP2 PUSH2 0x21AC JUMP JUMPDEST SWAP1 POP SWAP2 SWAP1 POP JUMP JUMPDEST PUSH32 0x596F752063616E6E6F74206A6F696E20796F7572206F776E2067616D65000000 PUSH0 DUP3 ADD MSTORE POP JUMP JUMPDEST PUSH0 PUSH2 0x2220 PUSH1 0x1D DUP4 PUSH2 0x1EDE JUMP JUMPDEST SWAP2 POP PUSH2 0x222B DUP3 PUSH2 0x21EC JUMP JUMPDEST PUSH1 0x20 DUP3 ADD SWAP1 POP SWAP2 SWAP1 POP JUMP JUMPDEST PUSH0 PUSH1 0x20 DUP3 ADD SWAP1 POP DUP2 DUP2 SUB PUSH0 DUP4 ADD MSTORE PUSH2 0x224D DUP2 PUSH2 0x2214 JUMP JUMPDEST SWAP1 POP SWAP2 SWAP1 POP JUMP JUMPDEST PUSH0 PUSH1 0x40 DUP3 ADD SWAP1 POP PUSH2 0x2267 PUSH0 DUP4 ADD DUP6 PUSH2 0x1AE0 JUMP JUMPDEST DUP2 DUP2 SUB PUSH1 0x20 DUP4 ADD MSTORE PUSH2 0x2279 DUP2 DUP5 PUSH2 0x1D5F JUMP JUMPDEST SWAP1 POP SWAP4 SWAP3 POP POP POP JUMP JUMPDEST PUSH32 0x4F6E6C792063616C6C61626C65206279206F776E657200000000000000000000 PUSH0 DUP3 ADD MSTORE POP JUMP JUMPDEST PUSH0 PUSH2 0x22B6 PUSH1 0x16 DUP4 PUSH2 0x1EDE JUMP JUMPDEST SWAP2 POP PUSH2 0x22C1 DUP3 PUSH2 0x2282 JUMP JUMPDEST PUSH1 0x20 DUP3 ADD SWAP1 POP SWAP2 SWAP1 POP JUMP JUMPDEST PUSH0 PUSH1 0x20 DUP3 ADD SWAP1 POP DUP2 DUP2 SUB PUSH0 DUP4 ADD MSTORE PUSH2 0x22E3 DUP2 PUSH2 0x22AA JUMP JUMPDEST SWAP1 POP SWAP2 SWAP1 POP JUMP JUMPDEST PUSH32 0x4E487B7100000000000000000000000000000000000000000000000000000000 PUSH0 MSTORE PUSH1 0x32 PUSH1 0x4 MSTORE PUSH1 0x24 PUSH0 REVERT JUMPDEST PUSH32 0x4E487B7100000000000000000000000000000000000000000000000000000000 PUSH0 MSTORE PUSH1 0x11 PUSH1 0x4 MSTORE PUSH1 0x24 PUSH0 REVERT JUMPDEST PUSH0 PUSH2 0x234E DUP3 PUSH2 0x1A43 JUMP JUMPDEST SWAP2 POP PUSH2 0x2359 DUP4 PUSH2 0x1A43 JUMP JUMPDEST SWAP3 POP DUP3 DUP3 SUB SWAP1 POP DUP2 DUP2 GT ISZERO PUSH2 0x2371 JUMPI PUSH2 0x2370 PUSH2 0x2317 JUMP JUMPDEST JUMPDEST SWAP3 SWAP2 POP POP JUMP JUMPDEST PUSH32 0x4E487B7100000000000000000000000000000000000000000000000000000000 PUSH0 MSTORE PUSH1 0x31 PUSH1 0x4 MSTORE PUSH1 0x24 PUSH0 REVERT JUMPDEST PUSH0 PUSH2 0x23AE DUP3 PUSH2 0x1A43 JUMP JUMPDEST SWAP2 POP PUSH32 0xFFFFFFFFFFFFFFFFFFFFFFFFFFFFFFFFFFFFFFFFFFFFFFFFFFFFFFFFFFFFFFFF DUP3 SUB PUSH2 0x23E0 JUMPI PUSH2 0x23DF PUSH2 0x2317 JUMP JUMPDEST JUMPDEST PUSH1 0x1 DUP3 ADD SWAP1 POP SWAP2 SWAP1 POP JUMP JUMPDEST PUSH0 DUP2 SWAP1 POP SWAP2 SWAP1 POP JUMP JUMPDEST PUSH2 0x2405 PUSH2 0x2400 DUP3 PUSH2 0x1A43 JUMP JUMPDEST PUSH2 0x23EB JUMP JUMPDEST DUP3 MSTORE POP POP JUMP JUMPDEST PUSH0 DUP2 PUSH1 0x60 SHL SWAP1 POP SWAP2 SWAP1 POP JUMP JUMPDEST PUSH0 PUSH2 0x2421 DUP3 PUSH2 0x240B JUMP JUMPDEST SWAP1 POP SWAP2 SWAP1 POP JUMP JUMPDEST PUSH0 PUSH2 0x2432 DUP3 PUSH2 0x2417 JUMP JUMPDEST SWAP1 POP SWAP2 SWAP1 POP JUMP JUMPDEST PUSH2 0x244A PUSH2 0x2445 DUP3 PUSH2 0x1AC0 JUMP JUMPDEST PUSH2 0x2428 JUMP JUMPDEST DUP3 MSTORE POP POP JUMP JUMPDEST PUSH0 PUSH2 0x245B DUP3 DUP7 PUSH2 0x23F4 JUMP JUMPDEST PUSH1 0x20 DUP3 ADD SWAP2 POP PUSH2 0x246B DUP3 DUP6 PUSH2 0x2439 JUMP JUMPDEST PUSH1 0x14 DUP3 ADD SWAP2 POP PUSH2 0x247B DUP3 DUP5 PUSH2 0x23F4 JUMP JUMPDEST PUSH1 0x20 DUP3 ADD SWAP2 POP DUP2 SWAP1 POP SWAP5 SWAP4 POP POP POP POP JUMP JUMPDEST PUSH0 DUP2 SWAP1 POP SWAP2 SWAP1 POP JUMP JUMPDEST PUSH2 0x249E DUP2 PUSH2 0x248C JUMP JUMPDEST DUP3 MSTORE POP POP JUMP JUMPDEST PUSH0 PUSH8 0xFFFFFFFFFFFFFFFF DUP3 AND SWAP1 POP SWAP2 SWAP1 POP JUMP JUMPDEST PUSH2 0x24C0 DUP2 PUSH2 0x24A4 JUMP JUMPDEST DUP3 MSTORE POP POP JUMP JUMPDEST PUSH0 PUSH2 0xFFFF DUP3 AND SWAP1 POP SWAP2 SWAP1 POP JUMP JUMPDEST PUSH2 0x24DC DUP2 PUSH2 0x24C6 JUMP JUMPDEST DUP3 MSTORE POP POP JUMP JUMPDEST PUSH0 PUSH4 0xFFFFFFFF DUP3 AND SWAP1 POP SWAP2 SWAP1 POP JUMP JUMPDEST PUSH2 0x24FA DUP2 PUSH2 0x24E2 JUMP JUMPDEST DUP3 MSTORE POP POP JUMP JUMPDEST PUSH0 PUSH1 0xA0 DUP3 ADD SWAP1 POP PUSH2 0x2513 PUSH0 DUP4 ADD DUP9 PUSH2 0x2495 JUMP JUMPDEST PUSH2 0x2520 PUSH1 0x20 DUP4 ADD DUP8 PUSH2 0x24B7 JUMP JUMPDEST PUSH2 0x252D PUSH1 0x40 DUP4 ADD DUP7 PUSH2 0x24D3 JUMP JUMPDEST PUSH2 0x253A PUSH1 0x60 DUP4 ADD DUP6 PUSH2 0x24F1 JUMP JUMPDEST PUSH2 0x2547 PUSH1 0x80 DUP4 ADD DUP5 PUSH2 0x24F1 JUMP JUMPDEST SWAP7 SWAP6 POP POP POP POP POP POP JUMP JUMPDEST PUSH0 DUP2 MLOAD SWAP1 POP PUSH2 0x255F DUP2 PUSH2 0x1A4C JUMP JUMPDEST SWAP3 SWAP2 POP POP JUMP JUMPDEST PUSH0 PUSH1 0x20 DUP3 DUP5 SUB SLT ISZERO PUSH2 0x257A JUMPI PUSH2 0x2579 PUSH2 0x1A3B JUMP JUMPDEST JUMPDEST PUSH0 PUSH2 0x2587 DUP5 DUP3 DUP6 ADD PUSH2 0x2551 JUMP JUMPDEST SWAP2 POP POP SWAP3 SWAP2 POP POP JUMP JUMPDEST PUSH0 PUSH1 0x40 DUP3 ADD SWAP1 POP PUSH2 0x25A3 PUSH0 DUP4 ADD DUP6 PUSH2 0x1AE0 JUMP JUMPDEST PUSH2 0x25B0 PUSH1 0x20 DUP4 ADD DUP5 PUSH2 0x24F1 JUMP JUMPDEST SWAP4 SWAP3 POP POP POP JUMP JUMPDEST PUSH32 0x43616E6E6F74207472616E7366657220746F2073656C66000000000000000000 PUSH0 DUP3 ADD MSTORE POP JUMP JUMPDEST PUSH0 PUSH2 0x25EB PUSH1 0x17 DUP4 PUSH2 0x1EDE JUMP JUMPDEST SWAP2 POP PUSH2 0x25F6 DUP3 PUSH2 0x25B7 JUMP JUMPDEST PUSH1 0x20 DUP3 ADD SWAP1 POP SWAP2 SWAP1 POP JUMP JUMPDEST PUSH0 PUSH1 0x20 DUP3 ADD SWAP1 POP DUP2 DUP2 SUB PUSH0 DUP4 ADD MSTORE PUSH2 0x2618 DUP2 PUSH2 0x25DF JUMP JUMPDEST SWAP1 POP SWAP2 SWAP1 POP JUMP JUMPDEST PUSH32 0x47616D6520697320616C726561647920636F6D706C6574656400000000000000 PUSH0 DUP3 ADD MSTORE POP JUMP JUMPDEST PUSH0 PUSH2 0x2653 PUSH1 0x19 DUP4 PUSH2 0x1EDE JUMP JUMPDEST SWAP2 POP PUSH2 0x265E DUP3 PUSH2 0x261F JUMP JUMPDEST PUSH1 0x20 DUP3 ADD SWAP1 POP SWAP2 SWAP1 POP JUMP JUMPDEST PUSH0 PUSH1 0x20 DUP3 ADD SWAP1 POP DUP2 DUP2 SUB PUSH0 DUP4 ADD MSTORE PUSH2 0x2680 DUP2 PUSH2 0x2647 JUMP JUMPDEST SWAP1 POP SWAP2 SWAP1 POP JUMP JUMPDEST PUSH0 DUP2 SWAP1 POP SWAP3 SWAP2 POP POP JUMP JUMPDEST PUSH2 0x269A DUP2 PUSH2 0x1A43 JUMP JUMPDEST DUP3 MSTORE POP POP JUMP JUMPDEST PUSH0 PUSH2 0x26AB DUP4 DUP4 PUSH2 0x2691 JUMP JUMPDEST PUSH1 0x20 DUP4 ADD SWAP1 POP SWAP3 SWAP2 POP POP JUMP JUMPDEST PUSH0 PUSH2 0x26C1 DUP3 PUSH2 0x1D04 JUMP JUMPDEST PUSH2 0x26CB DUP2 DUP6 PUSH2 0x2687 JUMP JUMPDEST SWAP4 POP PUSH2 0x26D6 DUP4 PUSH2 0x1D1E JUMP JUMPDEST DUP1 PUSH0 JUMPDEST DUP4 DUP2 LT ISZERO PUSH2 0x2706 JUMPI DUP2 MLOAD PUSH2 0x26ED DUP9 DUP3 PUSH2 0x26A0 JUMP JUMPDEST SWAP8 POP PUSH2 0x26F8 DUP4 PUSH2 0x1D53 JUMP JUMPDEST SWAP3 POP POP PUSH1 0x1 DUP2 ADD SWAP1 POP PUSH2 0x26D9 JUMP JUMPDEST POP DUP6 SWAP4 POP POP POP POP SWAP3 SWAP2 POP POP JUMP JUMPDEST PUSH0 PUSH2 0x271E DUP3 DUP5 PUSH2 0x26B7 JUMP JUMPDEST SWAP2 POP DUP2 SWAP1 POP SWAP3 SWAP2 POP POP JUMP JUMPDEST PUSH32 0x4E487B7100000000000000000000000000000000000000000000000000000000 PUSH0 MSTORE PUSH1 0x12 PUSH1 0x4 MSTORE PUSH1 0x24 PUSH0 REVERT JUMPDEST PUSH0 PUSH2 0x2760 DUP3 PUSH2 0x1A43 JUMP JUMPDEST SWAP2 POP PUSH2 0x276B DUP4 PUSH2 0x1A43 JUMP JUMPDEST SWAP3 POP DUP3 PUSH2 0x277B JUMPI PUSH2 0x277A PUSH2 0x2729 JUMP JUMPDEST JUMPDEST DUP3 DUP3 MOD SWAP1 POP SWAP3 SWAP2 POP POP JUMP JUMPDEST PUSH0 PUSH2 0x2790 DUP3 PUSH2 0x1A43 JUMP JUMPDEST SWAP2 POP PUSH2 0x279B DUP4 PUSH2 0x1A43 JUMP JUMPDEST SWAP3 POP DUP3 DUP3 MUL PUSH2 0x27A9 DUP2 PUSH2 0x1A43 JUMP JUMPDEST SWAP2 POP DUP3 DUP3 DIV DUP5 EQ DUP4 ISZERO OR PUSH2 0x27C0 JUMPI PUSH2 0x27BF PUSH2 0x2317 JUMP JUMPDEST JUMPDEST POP SWAP3 SWAP2 POP POP JUMP INVALID LOG2 PUSH5 0x6970667358 0x22 SLT KECCAK256 0xF7 0xD8 SWAP7 PUSH13 0xC0503266EDEEB90ECAB62246F2 0xA7 CODESIZE SWAP4 DUP9 GAS SWAP12 0x2F PUSH7 0xC12339D480170C PUSH5 0x736F6C6343 STOP ADDMOD AND STOP CALLER "
				},
				"gasEstimates": {
					"creation": {
						"codeDepositCost": "2047400",
						"executionCost": "infinite",
						"totalCost": "infinite"
					},
					"external": {
						"acceptOwnership()": "54556",
						"activeGameIds(uint256)": "infinite",
						"cancelGame(uint256)": "infinite",
						"gameIdByRequestId(uint256)": "infinite",
						"games(uint256)": "infinite",
						"getActiveGameIds()": "infinite",
						"getRequestStatus(uint256)": "infinite",
						"joinGame(uint256)": "infinite",
						"lastRequestId()": "2535",
						"minimumWager()": "2492",
						"owner()": "2604",
						"rawFulfillRandomWords(uint256,uint256[])": "infinite",
						"requestIds(uint256)": "infinite",
						"s_requests(uint256)": "infinite",
						"setMinimumWager(uint256)": "24750",
						"startGame(uint256)": "infinite",
						"transferOwnership(address)": "30733"
					},
					"internal": {
						"_completeGame(uint256,uint256[] memory)": "infinite",
						"_generateGameId()": "infinite",
						"_removeGameFromActiveList(uint256)": "infinite",
						"fulfillRandomWords(uint256,uint256[] memory)": "infinite",
						"requestRandomWords()": "infinite"
					}
				},
				"methodIdentifiers": {
					"acceptOwnership()": "79ba5097",
					"activeGameIds(uint256)": "8ee67472",
					"cancelGame(uint256)": "69958ab9",
					"gameIdByRequestId(uint256)": "b4a91e1e",
					"games(uint256)": "117a5b90",
					"getActiveGameIds()": "6916c9b0",
					"getRequestStatus(uint256)": "d8a4676f",
					"joinGame(uint256)": "efaa55a0",
					"lastRequestId()": "fc2a88c3",
					"minimumWager()": "b19068c7",
					"owner()": "8da5cb5b",
					"rawFulfillRandomWords(uint256,uint256[])": "1fe543e3",
					"requestIds(uint256)": "8796ba8c",
					"s_requests(uint256)": "a168fa89",
					"setMinimumWager(uint256)": "7f7f8968",
					"startGame(uint256)": "e5ed1d59",
					"transferOwnership(address)": "f2fde38b"
				}
			},
			"storageLayout": {
				"storage": [
					{
						"astId": 123,
						"contract": "coqtesting.sol:CoqFightTestnet",
						"label": "s_owner",
						"offset": 0,
						"slot": "0",
						"type": "t_address"
					},
					{
						"astId": 125,
						"contract": "coqtesting.sol:CoqFightTestnet",
						"label": "s_pendingOwner",
						"offset": 0,
						"slot": "1",
						"type": "t_address"
					},
					{
						"astId": 758,
						"contract": "coqtesting.sol:CoqFightTestnet",
						"label": "gameCounter",
						"offset": 0,
						"slot": "2",
						"type": "t_uint256"
					},
					{
						"astId": 760,
						"contract": "coqtesting.sol:CoqFightTestnet",
						"label": "s_subscriptionId",
						"offset": 0,
						"slot": "3",
						"type": "t_uint64"
					},
					{
						"astId": 763,
						"contract": "coqtesting.sol:CoqFightTestnet",
						"label": "requestIds",
						"offset": 0,
						"slot": "4",
						"type": "t_array(t_uint256)dyn_storage"
					},
					{
						"astId": 765,
						"contract": "coqtesting.sol:CoqFightTestnet",
						"label": "lastRequestId",
						"offset": 0,
						"slot": "5",
						"type": "t_uint256"
					},
					{
						"astId": 768,
						"contract": "coqtesting.sol:CoqFightTestnet",
						"label": "keyHash",
						"offset": 0,
						"slot": "6",
						"type": "t_bytes32"
					},
					{
						"astId": 771,
						"contract": "coqtesting.sol:CoqFightTestnet",
						"label": "callbackGasLimit",
						"offset": 0,
						"slot": "7",
						"type": "t_uint32"
					},
					{
						"astId": 774,
						"contract": "coqtesting.sol:CoqFightTestnet",
						"label": "requestConfirmations",
						"offset": 4,
						"slot": "7",
						"type": "t_uint16"
					},
					{
						"astId": 777,
						"contract": "coqtesting.sol:CoqFightTestnet",
						"label": "numWords",
						"offset": 6,
						"slot": "7",
						"type": "t_uint32"
					},
					{
						"astId": 801,
						"contract": "coqtesting.sol:CoqFightTestnet",
						"label": "s_requests",
						"offset": 0,
						"slot": "8",
						"type": "t_mapping(t_uint256,t_struct(RequestStatus)796_storage)"
					},
					{
						"astId": 804,
						"contract": "coqtesting.sol:CoqFightTestnet",
						"label": "COORDINATOR",
						"offset": 0,
						"slot": "9",
						"type": "t_contract(VRFCoordinatorV2Interface)95"
					},
					{
						"astId": 809,
						"contract": "coqtesting.sol:CoqFightTestnet",
						"label": "games",
						"offset": 0,
						"slot": "10",
						"type": "t_mapping(t_uint256,t_struct(Game)788_storage)"
					},
					{
						"astId": 813,
						"contract": "coqtesting.sol:CoqFightTestnet",
						"label": "gameIdByRequestId",
						"offset": 0,
						"slot": "11",
						"type": "t_mapping(t_uint256,t_uint256)"
					},
					{
						"astId": 816,
						"contract": "coqtesting.sol:CoqFightTestnet",
						"label": "activeGameIds",
						"offset": 0,
						"slot": "12",
						"type": "t_array(t_uint256)dyn_storage"
					},
					{
						"astId": 818,
						"contract": "coqtesting.sol:CoqFightTestnet",
						"label": "minimumWager",
						"offset": 0,
						"slot": "13",
						"type": "t_uint256"
					}
				],
				"types": {
					"t_address": {
						"encoding": "inplace",
						"label": "address",
						"numberOfBytes": "20"
					},
					"t_array(t_uint256)dyn_storage": {
						"base": "t_uint256",
						"encoding": "dynamic_array",
						"label": "uint256[]",
						"numberOfBytes": "32"
					},
					"t_bool": {
						"encoding": "inplace",
						"label": "bool",
						"numberOfBytes": "1"
					},
					"t_bytes32": {
						"encoding": "inplace",
						"label": "bytes32",
						"numberOfBytes": "32"
					},
					"t_contract(VRFCoordinatorV2Interface)95": {
						"encoding": "inplace",
						"label": "contract VRFCoordinatorV2Interface",
						"numberOfBytes": "20"
					},
					"t_mapping(t_uint256,t_struct(Game)788_storage)": {
						"encoding": "mapping",
						"key": "t_uint256",
						"label": "mapping(uint256 => struct CoqFightTestnet.Game)",
						"numberOfBytes": "32",
						"value": "t_struct(Game)788_storage"
					},
					"t_mapping(t_uint256,t_struct(RequestStatus)796_storage)": {
						"encoding": "mapping",
						"key": "t_uint256",
						"label": "mapping(uint256 => struct CoqFightTestnet.RequestStatus)",
						"numberOfBytes": "32",
						"value": "t_struct(RequestStatus)796_storage"
					},
					"t_mapping(t_uint256,t_uint256)": {
						"encoding": "mapping",
						"key": "t_uint256",
						"label": "mapping(uint256 => uint256)",
						"numberOfBytes": "32",
						"value": "t_uint256"
					},
					"t_struct(Game)788_storage": {
						"encoding": "inplace",
						"label": "struct CoqFightTestnet.Game",
						"members": [
							{
								"astId": 779,
								"contract": "coqtesting.sol:CoqFightTestnet",
								"label": "player1",
								"offset": 0,
								"slot": "0",
								"type": "t_address"
							},
							{
								"astId": 781,
								"contract": "coqtesting.sol:CoqFightTestnet",
								"label": "player2",
								"offset": 0,
								"slot": "1",
								"type": "t_address"
							},
							{
								"astId": 783,
								"contract": "coqtesting.sol:CoqFightTestnet",
								"label": "wager",
								"offset": 0,
								"slot": "2",
								"type": "t_uint256"
							},
							{
								"astId": 785,
								"contract": "coqtesting.sol:CoqFightTestnet",
								"label": "completed",
								"offset": 0,
								"slot": "3",
								"type": "t_bool"
							},
							{
								"astId": 787,
								"contract": "coqtesting.sol:CoqFightTestnet",
								"label": "winner",
								"offset": 1,
								"slot": "3",
								"type": "t_address"
							}
						],
						"numberOfBytes": "128"
					},
					"t_struct(RequestStatus)796_storage": {
						"encoding": "inplace",
						"label": "struct CoqFightTestnet.RequestStatus",
						"members": [
							{
								"astId": 790,
								"contract": "coqtesting.sol:CoqFightTestnet",
								"label": "fulfilled",
								"offset": 0,
								"slot": "0",
								"type": "t_bool"
							},
							{
								"astId": 792,
								"contract": "coqtesting.sol:CoqFightTestnet",
								"label": "exists",
								"offset": 1,
								"slot": "0",
								"type": "t_bool"
							},
							{
								"astId": 795,
								"contract": "coqtesting.sol:CoqFightTestnet",
								"label": "randomWords",
								"offset": 0,
								"slot": "1",
								"type": "t_array(t_uint256)dyn_storage"
							}
						],
						"numberOfBytes": "64"
					},
					"t_uint16": {
						"encoding": "inplace",
						"label": "uint16",
						"numberOfBytes": "2"
					},
					"t_uint256": {
						"encoding": "inplace",
						"label": "uint256",
						"numberOfBytes": "32"
					},
					"t_uint32": {
						"encoding": "inplace",
						"label": "uint32",
						"numberOfBytes": "4"
					},
					"t_uint64": {
						"encoding": "inplace",
						"label": "uint64",
						"numberOfBytes": "8"
					}
				}
			},
			"userdoc": {
				"kind": "user",
				"methods": {
					"acceptOwnership()": {
						"notice": "Allows an ownership transfer to be completed by the recipient."
					},
					"owner()": {
						"notice": "Get the current owner"
					},
					"transferOwnership(address)": {
						"notice": "Allows an owner to begin transferring ownership to a new address, pending."
					}
				},
				"version": 1
			}
		}
	}
}